{
  "address": "0xc5c784ACAcE2531744d7Ed7AFC9624A3ec803D28",
  "abi": [
    {
      "inputs": [
        {
          "internalType": "address",
          "name": "settlementTokenArg",
          "type": "address"
        }
      ],
      "stateMutability": "nonpayable",
      "type": "constructor"
    },
    {
      "inputs": [
        {
          "internalType": "uint256",
          "name": "prod1",
          "type": "uint256"
        },
        {
          "internalType": "uint256",
          "name": "denominator",
          "type": "uint256"
        }
      ],
      "name": "PRBMath__MulDivOverflow",
      "type": "error"
    },
    {
      "anonymous": false,
      "inputs": [
        {
          "indexed": true,
          "internalType": "address",
          "name": "trader",
          "type": "address"
        },
        {
          "indexed": false,
          "internalType": "uint256",
          "name": "amount",
          "type": "uint256"
        }
      ],
      "name": "Deposited",
      "type": "event"
    },
    {
      "anonymous": false,
      "inputs": [
        {
          "indexed": false,
          "internalType": "uint24",
          "name": "value",
          "type": "uint24"
        }
      ],
      "name": "ImRatioChanged",
      "type": "event"
    },
    {
      "anonymous": false,
      "inputs": [
        {
          "indexed": true,
          "internalType": "address",
          "name": "market",
          "type": "address"
        },
        {
          "indexed": false,
          "internalType": "bool",
          "name": "isMarketAllowed",
          "type": "bool"
        }
      ],
      "name": "IsMarketAllowedChanged",
      "type": "event"
    },
    {
      "anonymous": false,
      "inputs": [
        {
          "indexed": true,
          "internalType": "address",
          "name": "trader",
          "type": "address"
        },
        {
          "indexed": true,
          "internalType": "address",
          "name": "market",
          "type": "address"
        },
        {
          "indexed": true,
          "internalType": "address",
          "name": "liquidator",
          "type": "address"
        },
        {
          "indexed": false,
          "internalType": "uint256",
          "name": "orderId",
          "type": "uint256"
        }
      ],
      "name": "LimitOrderCanceled",
      "type": "event"
    },
    {
      "anonymous": false,
      "inputs": [
        {
          "indexed": true,
          "internalType": "address",
          "name": "trader",
          "type": "address"
        },
        {
          "indexed": true,
          "internalType": "address",
          "name": "market",
          "type": "address"
        },
        {
          "indexed": false,
          "internalType": "bool",
          "name": "isBid",
          "type": "bool"
        },
        {
          "indexed": false,
          "internalType": "uint256",
          "name": "base",
          "type": "uint256"
        },
        {
          "indexed": false,
          "internalType": "uint256",
          "name": "priceX96",
          "type": "uint256"
        },
        {
          "indexed": false,
          "internalType": "uint256",
          "name": "orderId",
          "type": "uint256"
        }
      ],
      "name": "LimitOrderCreated",
      "type": "event"
    },
    {
      "anonymous": false,
      "inputs": [
        {
          "indexed": false,
          "internalType": "uint24",
          "name": "rewardRatio",
          "type": "uint24"
        },
        {
          "indexed": false,
          "internalType": "uint16",
          "name": "smoothEmaTime",
          "type": "uint16"
        }
      ],
      "name": "LiquidationRewardConfigChanged",
      "type": "event"
    },
    {
      "anonymous": false,
      "inputs": [
        {
          "indexed": true,
          "internalType": "address",
          "name": "trader",
          "type": "address"
        },
        {
          "indexed": true,
          "internalType": "address",
          "name": "market",
          "type": "address"
        },
        {
          "indexed": false,
          "internalType": "uint256",
          "name": "base",
          "type": "uint256"
        },
        {
          "indexed": false,
          "internalType": "uint256",
          "name": "quote",
          "type": "uint256"
        },
        {
          "indexed": false,
          "internalType": "uint256",
          "name": "liquidity",
          "type": "uint256"
        },
        {
          "indexed": false,
          "internalType": "uint256",
          "name": "cumBasePerLiquidityX96",
          "type": "uint256"
        },
        {
          "indexed": false,
          "internalType": "uint256",
          "name": "cumQuotePerLiquidityX96",
          "type": "uint256"
        },
        {
          "indexed": false,
          "internalType": "uint256",
          "name": "baseBalancePerShareX96",
          "type": "uint256"
        },
        {
          "indexed": false,
          "internalType": "uint256",
          "name": "sharePriceAfterX96",
          "type": "uint256"
        }
      ],
      "name": "LiquidityAdded",
      "type": "event"
    },
    {
      "anonymous": false,
      "inputs": [
        {
          "indexed": true,
          "internalType": "address",
          "name": "trader",
          "type": "address"
        },
        {
          "indexed": true,
          "internalType": "address",
          "name": "market",
          "type": "address"
        },
        {
          "indexed": false,
          "internalType": "address",
          "name": "liquidator",
          "type": "address"
        },
        {
          "indexed": false,
          "internalType": "uint256",
          "name": "base",
          "type": "uint256"
        },
        {
          "indexed": false,
          "internalType": "uint256",
          "name": "quote",
          "type": "uint256"
        },
        {
          "indexed": false,
          "internalType": "uint256",
          "name": "liquidity",
          "type": "uint256"
        },
        {
          "indexed": false,
          "internalType": "int256",
          "name": "takerBase",
          "type": "int256"
        },
        {
          "indexed": false,
          "internalType": "int256",
          "name": "takerQuote",
          "type": "int256"
        },
        {
          "indexed": false,
          "internalType": "int256",
          "name": "realizedPnl",
          "type": "int256"
        },
        {
          "indexed": false,
          "internalType": "uint256",
          "name": "baseBalancePerShareX96",
          "type": "uint256"
        },
        {
          "indexed": false,
          "internalType": "uint256",
          "name": "sharePriceAfterX96",
          "type": "uint256"
        }
      ],
      "name": "LiquidityRemoved",
      "type": "event"
    },
    {
      "anonymous": false,
      "inputs": [
        {
          "indexed": false,
          "internalType": "uint8",
          "name": "value",
          "type": "uint8"
        }
      ],
      "name": "MaxMarketsPerAccountChanged",
      "type": "event"
    },
    {
      "anonymous": false,
      "inputs": [
        {
          "indexed": false,
          "internalType": "uint24",
          "name": "value",
          "type": "uint24"
        }
      ],
      "name": "MmRatioChanged",
      "type": "event"
    },
    {
      "anonymous": false,
      "inputs": [
        {
          "indexed": true,
          "internalType": "address",
          "name": "previousOwner",
          "type": "address"
        },
        {
          "indexed": true,
          "internalType": "address",
          "name": "newOwner",
          "type": "address"
        }
      ],
      "name": "OwnershipTransferred",
      "type": "event"
    },
    {
      "anonymous": false,
      "inputs": [
        {
          "indexed": true,
          "internalType": "address",
          "name": "trader",
          "type": "address"
        },
        {
          "indexed": true,
          "internalType": "address",
          "name": "market",
          "type": "address"
        },
        {
          "indexed": false,
          "internalType": "int256",
          "name": "base",
          "type": "int256"
        },
        {
          "indexed": false,
          "internalType": "int256",
          "name": "quote",
          "type": "int256"
        },
        {
          "indexed": false,
          "internalType": "int256",
          "name": "realizedPnl",
          "type": "int256"
        },
        {
          "indexed": false,
          "internalType": "uint256",
          "name": "protocolFee",
          "type": "uint256"
        },
        {
          "indexed": false,
          "internalType": "uint256",
          "name": "baseBalancePerShareX96",
          "type": "uint256"
        },
        {
          "indexed": false,
          "internalType": "uint256",
          "name": "sharePriceAfterX96",
          "type": "uint256"
        }
      ],
      "name": "PositionChanged",
      "type": "event"
    },
    {
      "anonymous": false,
      "inputs": [
        {
          "indexed": true,
          "internalType": "address",
          "name": "trader",
          "type": "address"
        },
        {
          "indexed": true,
          "internalType": "address",
          "name": "market",
          "type": "address"
        },
        {
          "indexed": true,
          "internalType": "address",
          "name": "liquidator",
          "type": "address"
        },
        {
          "indexed": false,
          "internalType": "int256",
          "name": "base",
          "type": "int256"
        },
        {
          "indexed": false,
          "internalType": "int256",
          "name": "quote",
          "type": "int256"
        },
        {
          "indexed": false,
          "internalType": "int256",
          "name": "realizedPnl",
          "type": "int256"
        },
        {
          "indexed": false,
          "internalType": "uint256",
          "name": "protocolFee",
          "type": "uint256"
        },
        {
          "indexed": false,
          "internalType": "uint256",
          "name": "baseBalancePerShareX96",
          "type": "uint256"
        },
        {
          "indexed": false,
          "internalType": "uint256",
          "name": "sharePriceAfterX96",
          "type": "uint256"
        },
        {
          "indexed": false,
          "internalType": "uint256",
          "name": "liquidationPenalty",
          "type": "uint256"
        },
        {
          "indexed": false,
          "internalType": "uint256",
          "name": "liquidationReward",
          "type": "uint256"
        },
        {
          "indexed": false,
          "internalType": "uint256",
          "name": "insuranceFundReward",
          "type": "uint256"
        }
      ],
      "name": "PositionLiquidated",
      "type": "event"
    },
    {
      "anonymous": false,
      "inputs": [
        {
          "indexed": false,
          "internalType": "uint24",
          "name": "value",
          "type": "uint24"
        }
      ],
      "name": "ProtocolFeeRatioChanged",
      "type": "event"
    },
    {
      "anonymous": false,
      "inputs": [
        {
          "indexed": true,
          "internalType": "address",
          "name": "trader",
          "type": "address"
        },
        {
          "indexed": false,
          "internalType": "uint256",
          "name": "amount",
          "type": "uint256"
        }
      ],
      "name": "ProtocolFeeTransferred",
      "type": "event"
    },
    {
      "anonymous": false,
      "inputs": [
        {
          "indexed": true,
          "internalType": "address",
          "name": "trader",
          "type": "address"
        },
        {
          "indexed": false,
          "internalType": "uint256",
          "name": "amount",
          "type": "uint256"
        }
      ],
      "name": "Withdrawn",
      "type": "event"
    },
    {
      "inputs": [
        {
          "internalType": "address",
          "name": "",
          "type": "address"
        }
      ],
      "name": "accountInfos",
      "outputs": [
        {
          "components": [
            {
              "internalType": "int256",
              "name": "collateralBalance",
              "type": "int256"
            }
          ],
          "internalType": "struct PerpdexStructs.VaultInfo",
          "name": "vaultInfo",
          "type": "tuple"
        }
      ],
      "stateMutability": "view",
      "type": "function"
    },
    {
      "inputs": [
        {
          "components": [
            {
              "internalType": "address",
              "name": "market",
              "type": "address"
            },
            {
              "internalType": "uint256",
              "name": "base",
              "type": "uint256"
            },
            {
              "internalType": "uint256",
              "name": "quote",
              "type": "uint256"
            },
            {
              "internalType": "uint256",
              "name": "minBase",
              "type": "uint256"
            },
            {
              "internalType": "uint256",
              "name": "minQuote",
              "type": "uint256"
            },
            {
              "internalType": "uint256",
              "name": "deadline",
              "type": "uint256"
            }
          ],
          "internalType": "struct IPerpdexExchange.AddLiquidityParams",
          "name": "params",
          "type": "tuple"
        }
      ],
      "name": "addLiquidity",
      "outputs": [
        {
          "internalType": "uint256",
          "name": "base",
          "type": "uint256"
        },
        {
          "internalType": "uint256",
          "name": "quote",
          "type": "uint256"
        },
        {
          "internalType": "uint256",
          "name": "liquidity",
          "type": "uint256"
        }
      ],
      "stateMutability": "nonpayable",
      "type": "function"
    },
    {
      "inputs": [
        {
          "components": [
            {
              "internalType": "address",
              "name": "market",
              "type": "address"
            },
            {
              "internalType": "bool",
              "name": "isBid",
              "type": "bool"
            },
            {
              "internalType": "uint40",
              "name": "orderId",
              "type": "uint40"
            },
            {
              "internalType": "uint256",
              "name": "deadline",
              "type": "uint256"
            }
          ],
          "internalType": "struct IPerpdexExchange.CancelLimitOrderParams",
          "name": "params",
          "type": "tuple"
        }
      ],
      "name": "cancelLimitOrder",
      "outputs": [],
      "stateMutability": "nonpayable",
      "type": "function"
    },
    {
      "inputs": [
        {
          "components": [
            {
              "internalType": "address",
              "name": "market",
              "type": "address"
            },
            {
              "internalType": "bool",
              "name": "isBid",
              "type": "bool"
            },
            {
              "internalType": "uint256",
              "name": "base",
              "type": "uint256"
            },
            {
              "internalType": "uint256",
              "name": "priceX96",
              "type": "uint256"
            },
            {
              "internalType": "uint256",
              "name": "deadline",
              "type": "uint256"
            }
          ],
          "internalType": "struct IPerpdexExchange.CreateLimitOrderParams",
          "name": "params",
          "type": "tuple"
        }
      ],
      "name": "createLimitOrder",
      "outputs": [
        {
          "internalType": "uint40",
          "name": "orderId",
          "type": "uint40"
        }
      ],
      "stateMutability": "nonpayable",
      "type": "function"
    },
    {
      "inputs": [
        {
          "internalType": "uint256",
          "name": "amount",
          "type": "uint256"
        }
      ],
      "name": "deposit",
      "outputs": [],
      "stateMutability": "payable",
      "type": "function"
    },
    {
      "inputs": [
        {
          "internalType": "address",
          "name": "trader",
          "type": "address"
        }
      ],
      "name": "getAccountMarkets",
      "outputs": [
        {
          "internalType": "address[]",
          "name": "",
          "type": "address[]"
        }
      ],
      "stateMutability": "view",
      "type": "function"
    },
    {
      "inputs": [
        {
          "internalType": "address",
          "name": "trader",
          "type": "address"
        },
        {
          "internalType": "address",
          "name": "market",
          "type": "address"
        }
      ],
      "name": "getMakerInfo",
      "outputs": [
        {
          "components": [
            {
              "internalType": "uint256",
              "name": "liquidity",
              "type": "uint256"
            },
            {
              "internalType": "uint256",
              "name": "cumBaseSharePerLiquidityX96",
              "type": "uint256"
            },
            {
              "internalType": "uint256",
              "name": "cumQuotePerLiquidityX96",
              "type": "uint256"
            }
          ],
          "internalType": "struct PerpdexStructs.MakerInfo",
          "name": "",
          "type": "tuple"
        }
      ],
      "stateMutability": "view",
      "type": "function"
    },
    {
      "inputs": [
        {
          "internalType": "address",
          "name": "trader",
          "type": "address"
        },
        {
          "internalType": "address",
          "name": "market",
          "type": "address"
        }
      ],
      "name": "getOpenPositionNotional",
      "outputs": [
        {
          "internalType": "uint256",
          "name": "",
          "type": "uint256"
        }
      ],
      "stateMutability": "view",
      "type": "function"
    },
    {
      "inputs": [
        {
          "internalType": "address",
          "name": "trader",
          "type": "address"
        },
        {
          "internalType": "address",
          "name": "market",
          "type": "address"
        }
      ],
      "name": "getOpenPositionShare",
      "outputs": [
        {
          "internalType": "uint256",
          "name": "",
          "type": "uint256"
        }
      ],
      "stateMutability": "view",
      "type": "function"
    },
    {
      "inputs": [
        {
          "internalType": "address",
          "name": "trader",
          "type": "address"
        },
        {
          "internalType": "address",
          "name": "market",
          "type": "address"
        }
      ],
      "name": "getPositionNotional",
      "outputs": [
        {
          "internalType": "int256",
          "name": "",
          "type": "int256"
        }
      ],
      "stateMutability": "view",
      "type": "function"
    },
    {
      "inputs": [
        {
          "internalType": "address",
          "name": "trader",
          "type": "address"
        },
        {
          "internalType": "address",
          "name": "market",
          "type": "address"
        }
      ],
      "name": "getPositionShare",
      "outputs": [
        {
          "internalType": "int256",
          "name": "",
          "type": "int256"
        }
      ],
      "stateMutability": "view",
      "type": "function"
    },
    {
      "inputs": [
        {
          "internalType": "address",
          "name": "trader",
          "type": "address"
        },
        {
          "internalType": "address",
          "name": "market",
          "type": "address"
        }
      ],
      "name": "getTakerInfo",
      "outputs": [
        {
          "components": [
            {
              "internalType": "int256",
              "name": "baseBalanceShare",
              "type": "int256"
            },
            {
              "internalType": "int256",
              "name": "quoteBalance",
              "type": "int256"
            }
          ],
          "internalType": "struct PerpdexStructs.TakerInfo",
          "name": "",
          "type": "tuple"
        }
      ],
      "stateMutability": "view",
      "type": "function"
    },
    {
      "inputs": [
        {
          "internalType": "address",
          "name": "trader",
          "type": "address"
        }
      ],
      "name": "getTotalAccountValue",
      "outputs": [
        {
          "internalType": "int256",
          "name": "accountValue",
          "type": "int256"
        }
      ],
      "stateMutability": "view",
      "type": "function"
    },
    {
      "inputs": [
        {
          "internalType": "address",
          "name": "trader",
          "type": "address"
        }
      ],
      "name": "getTotalOpenPositionNotional",
      "outputs": [
        {
          "internalType": "uint256",
          "name": "",
          "type": "uint256"
        }
      ],
      "stateMutability": "view",
      "type": "function"
    },
    {
      "inputs": [
        {
          "internalType": "address",
          "name": "trader",
          "type": "address"
        }
      ],
      "name": "getTotalPositionNotional",
      "outputs": [
        {
          "internalType": "uint256",
          "name": "",
          "type": "uint256"
        }
      ],
      "stateMutability": "view",
      "type": "function"
    },
    {
      "inputs": [
        {
          "internalType": "address",
          "name": "trader",
          "type": "address"
        }
      ],
      "name": "hasEnoughInitialMargin",
      "outputs": [
        {
          "internalType": "bool",
          "name": "",
          "type": "bool"
        }
      ],
      "stateMutability": "view",
      "type": "function"
    },
    {
      "inputs": [
        {
          "internalType": "address",
          "name": "trader",
          "type": "address"
        }
      ],
      "name": "hasEnoughMaintenanceMargin",
      "outputs": [
        {
          "internalType": "bool",
          "name": "",
          "type": "bool"
        }
      ],
      "stateMutability": "view",
      "type": "function"
    },
    {
      "inputs": [],
      "name": "imRatio",
      "outputs": [
        {
          "internalType": "uint24",
          "name": "",
          "type": "uint24"
        }
      ],
      "stateMutability": "view",
      "type": "function"
    },
    {
      "inputs": [],
      "name": "insuranceFundInfo",
      "outputs": [
        {
          "internalType": "int256",
          "name": "balance",
          "type": "int256"
        },
        {
          "internalType": "uint256",
          "name": "liquidationRewardBalance",
          "type": "uint256"
        }
      ],
      "stateMutability": "view",
      "type": "function"
    },
    {
      "inputs": [
        {
          "internalType": "address",
          "name": "",
          "type": "address"
        }
      ],
      "name": "isMarketAllowed",
      "outputs": [
        {
          "internalType": "bool",
          "name": "",
          "type": "bool"
        }
      ],
      "stateMutability": "view",
      "type": "function"
    },
    {
      "inputs": [],
      "name": "liquidationRewardConfig",
      "outputs": [
        {
          "internalType": "uint24",
          "name": "rewardRatio",
          "type": "uint24"
        },
        {
          "internalType": "uint16",
          "name": "smoothEmaTime",
          "type": "uint16"
        }
      ],
      "stateMutability": "view",
      "type": "function"
    },
    {
      "inputs": [],
      "name": "maxMarketsPerAccount",
      "outputs": [
        {
          "internalType": "uint8",
          "name": "",
          "type": "uint8"
        }
      ],
      "stateMutability": "view",
      "type": "function"
    },
    {
      "inputs": [
        {
          "components": [
            {
              "internalType": "address",
              "name": "trader",
              "type": "address"
            },
            {
              "internalType": "address",
              "name": "market",
              "type": "address"
            },
            {
              "internalType": "address",
              "name": "caller",
              "type": "address"
            },
            {
              "internalType": "bool",
              "name": "isBaseToQuote",
              "type": "bool"
            },
            {
              "internalType": "bool",
              "name": "isExactInput",
              "type": "bool"
            }
          ],
          "internalType": "struct IPerpdexExchange.MaxTradeParams",
          "name": "params",
          "type": "tuple"
        }
      ],
      "name": "maxTrade",
      "outputs": [
        {
          "internalType": "uint256",
          "name": "amount",
          "type": "uint256"
        }
      ],
      "stateMutability": "view",
      "type": "function"
    },
    {
      "inputs": [],
      "name": "mmRatio",
      "outputs": [
        {
          "internalType": "uint24",
          "name": "",
          "type": "uint24"
        }
      ],
      "stateMutability": "view",
      "type": "function"
    },
    {
      "inputs": [
        {
          "internalType": "address",
          "name": "",
          "type": "address"
        },
        {
          "internalType": "bool",
          "name": "",
          "type": "bool"
        },
        {
          "internalType": "uint40",
          "name": "",
          "type": "uint40"
        }
      ],
      "name": "orderIdToTrader",
      "outputs": [
        {
          "internalType": "address",
          "name": "",
          "type": "address"
        }
      ],
      "stateMutability": "view",
      "type": "function"
    },
    {
      "inputs": [],
      "name": "owner",
      "outputs": [
        {
          "internalType": "address",
          "name": "",
          "type": "address"
        }
      ],
      "stateMutability": "view",
      "type": "function"
    },
    {
      "inputs": [
        {
          "components": [
            {
              "internalType": "address",
              "name": "trader",
              "type": "address"
            },
            {
              "internalType": "address",
              "name": "market",
              "type": "address"
            },
            {
              "internalType": "address",
              "name": "caller",
              "type": "address"
            },
            {
              "internalType": "bool",
              "name": "isBaseToQuote",
              "type": "bool"
            },
            {
              "internalType": "bool",
              "name": "isExactInput",
              "type": "bool"
            },
            {
              "internalType": "uint256",
              "name": "amount",
              "type": "uint256"
            },
            {
              "internalType": "uint256",
              "name": "oppositeAmountBound",
              "type": "uint256"
            }
          ],
          "internalType": "struct IPerpdexExchange.PreviewTradeParams",
          "name": "params",
          "type": "tuple"
        }
      ],
      "name": "previewTrade",
      "outputs": [
        {
          "internalType": "uint256",
          "name": "oppositeAmount",
          "type": "uint256"
        }
      ],
      "stateMutability": "view",
      "type": "function"
    },
    {
      "inputs": [],
      "name": "protocolFeeRatio",
      "outputs": [
        {
          "internalType": "uint24",
          "name": "",
          "type": "uint24"
        }
      ],
      "stateMutability": "view",
      "type": "function"
    },
    {
      "inputs": [],
      "name": "protocolInfo",
      "outputs": [
        {
          "internalType": "uint256",
          "name": "protocolFee",
          "type": "uint256"
        }
      ],
      "stateMutability": "view",
      "type": "function"
    },
    {
      "inputs": [],
      "name": "quoteDecimals",
      "outputs": [
        {
          "internalType": "uint8",
          "name": "",
          "type": "uint8"
        }
      ],
      "stateMutability": "view",
      "type": "function"
    },
    {
      "inputs": [
        {
          "components": [
            {
              "internalType": "address",
              "name": "trader",
              "type": "address"
            },
            {
              "internalType": "address",
              "name": "market",
              "type": "address"
            },
            {
              "internalType": "uint256",
              "name": "liquidity",
              "type": "uint256"
            },
            {
              "internalType": "uint256",
              "name": "minBase",
              "type": "uint256"
            },
            {
              "internalType": "uint256",
              "name": "minQuote",
              "type": "uint256"
            },
            {
              "internalType": "uint256",
              "name": "deadline",
              "type": "uint256"
            }
          ],
          "internalType": "struct IPerpdexExchange.RemoveLiquidityParams",
          "name": "params",
          "type": "tuple"
        }
      ],
      "name": "removeLiquidity",
      "outputs": [
        {
          "internalType": "uint256",
          "name": "base",
          "type": "uint256"
        },
        {
          "internalType": "uint256",
          "name": "quote",
          "type": "uint256"
        }
      ],
      "stateMutability": "nonpayable",
      "type": "function"
    },
    {
      "inputs": [],
      "name": "renounceOwnership",
      "outputs": [],
      "stateMutability": "nonpayable",
      "type": "function"
    },
    {
      "inputs": [
        {
          "internalType": "address",
          "name": "trader",
          "type": "address"
        },
        {
          "internalType": "int256",
          "name": "balance",
          "type": "int256"
        }
      ],
      "name": "setCollateralBalance",
      "outputs": [],
      "stateMutability": "nonpayable",
      "type": "function"
    },
    {
      "inputs": [
        {
          "internalType": "uint24",
          "name": "value",
          "type": "uint24"
        }
      ],
      "name": "setImRatio",
      "outputs": [],
      "stateMutability": "nonpayable",
      "type": "function"
    },
    {
      "inputs": [
        {
          "internalType": "address",
          "name": "market",
          "type": "address"
        },
        {
          "internalType": "bool",
          "name": "value",
          "type": "bool"
        }
      ],
      "name": "setIsMarketAllowed",
      "outputs": [],
      "stateMutability": "nonpayable",
      "type": "function"
    },
    {
      "inputs": [
        {
          "components": [
            {
              "internalType": "uint24",
              "name": "rewardRatio",
              "type": "uint24"
            },
            {
              "internalType": "uint16",
              "name": "smoothEmaTime",
              "type": "uint16"
            }
          ],
          "internalType": "struct PerpdexStructs.LiquidationRewardConfig",
          "name": "value",
          "type": "tuple"
        }
      ],
      "name": "setLiquidationRewardConfig",
      "outputs": [],
      "stateMutability": "nonpayable",
      "type": "function"
    },
    {
      "inputs": [
        {
          "internalType": "uint8",
          "name": "value",
          "type": "uint8"
        }
      ],
      "name": "setMaxMarketsPerAccount",
      "outputs": [],
      "stateMutability": "nonpayable",
      "type": "function"
    },
    {
      "inputs": [
        {
          "internalType": "uint24",
          "name": "value",
          "type": "uint24"
        }
      ],
      "name": "setMmRatio",
      "outputs": [],
      "stateMutability": "nonpayable",
      "type": "function"
    },
    {
      "inputs": [
        {
          "internalType": "uint24",
          "name": "value",
          "type": "uint24"
        }
      ],
      "name": "setProtocolFeeRatio",
      "outputs": [],
      "stateMutability": "nonpayable",
      "type": "function"
    },
    {
      "inputs": [],
      "name": "settlementToken",
      "outputs": [
        {
          "internalType": "address",
          "name": "",
          "type": "address"
        }
      ],
      "stateMutability": "view",
      "type": "function"
    },
    {
      "inputs": [
        {
          "components": [
            {
              "internalType": "address",
              "name": "trader",
              "type": "address"
            },
            {
              "internalType": "address",
              "name": "market",
              "type": "address"
            },
            {
              "internalType": "bool",
              "name": "isBaseToQuote",
              "type": "bool"
            },
            {
              "internalType": "bool",
              "name": "isExactInput",
              "type": "bool"
            },
            {
              "internalType": "uint256",
              "name": "amount",
              "type": "uint256"
            },
            {
              "internalType": "uint256",
              "name": "oppositeAmountBound",
              "type": "uint256"
            },
            {
              "internalType": "uint256",
              "name": "deadline",
              "type": "uint256"
            }
          ],
          "internalType": "struct IPerpdexExchange.TradeParams",
          "name": "params",
          "type": "tuple"
        }
      ],
      "name": "trade",
      "outputs": [
        {
          "internalType": "uint256",
          "name": "oppositeAmount",
          "type": "uint256"
        }
      ],
      "stateMutability": "nonpayable",
      "type": "function"
    },
    {
      "inputs": [
        {
          "internalType": "address",
          "name": "newOwner",
          "type": "address"
        }
      ],
      "name": "transferOwnership",
      "outputs": [],
      "stateMutability": "nonpayable",
      "type": "function"
    },
    {
      "inputs": [
        {
          "internalType": "uint256",
          "name": "amount",
          "type": "uint256"
        }
      ],
      "name": "transferProtocolFee",
      "outputs": [],
      "stateMutability": "nonpayable",
      "type": "function"
    },
    {
      "inputs": [
        {
          "internalType": "uint256",
          "name": "amount",
          "type": "uint256"
        }
      ],
      "name": "withdraw",
      "outputs": [],
      "stateMutability": "nonpayable",
      "type": "function"
    }
  ],
  "transactionHash": "0xa24a0893b54c8cfd6bee90288e50ddeb9feb2860fb8f5f14aecca5ef452e060b",
  "args": [
    "0x0000000000000000000000000000000000000000"
  ],
  "numDeployments": 5,
  "solcInputHash": "8642eae312eb2b97d831fbc7e7d45b89",
  "bytecode": "0x600780546001600160501b03191665c3500186a01017905560e060405262030d4060a052606460c052600880546364030d4064ffffffffff199091161790553480156200004b57600080fd5b506040516200611c3803806200611c8339810160408190526200006e9162000215565b6001600055806200007f33620001b4565b6001600160a01b0381161580620000b05750620000b0816001600160a01b03166200020660201b62002b8a1760201c565b620001025760405162461bcd60e51b815260206004820152601b60248201527f50455f433a20746f6b656e206164647265737320696e76616c6964000000000060448201526064015b60405180910390fd5b6001600160a01b03166080524660048114806200012157506201388181145b806200012d5750605181145b8062000137575080155b8062000145575062066eeb81145b80620001515750604581145b806200015e5750617a6981145b620001ac5760405162461bcd60e51b815260206004820152601360248201527f4450455f433a20746573746e6574206f6e6c79000000000000000000000000006044820152606401620000f9565b505062000247565b600180546001600160a01b038381166001600160a01b0319831681179093556040519116919082907f8be0079c531659141344cd1fd0a4f28419497f9722a3daafe3b4186f6b6457e090600090a35050565b6001600160a01b03163b151590565b6000602082840312156200022857600080fd5b81516001600160a01b03811681146200024057600080fd5b9392505050565b608051615ea462000278600039600081816104f601528181610e2801528181611af10152611c4b0152615ea46000f3fe6080604052600436106102675760003560e01c806394887af711610144578063cffe8556116100b6578063e671be171161007a578063e671be171461087d578063e72e43631461089d578063e8c41ef9146108cd578063ec6cca8414610903578063f2fde38b14610923578063f652b5271461094357600080fd5b8063cffe85561461079b578063d11102c5146107bb578063d1ce35e3146107e8578063ddad7e9714610808578063dfe1cb921461084257600080fd5b8063ac3732b411610108578063ac3732b4146106cb578063b53c5125146106eb578063b6b55f251461072d578063c66fa8e614610740578063c9ca7b181461075b578063ca5b721e1461077b57600080fd5b806394887af7146105dc578063996fbf94146106235780639dce9e19146106435780639f044f3114610673578063a616c66c1461069657600080fd5b80634b4aa735116101dd5780637b9e618d116101a15780637b9e618d146104e45780637c88490a1461051857806387cad0bf146105385780638da5cb5b146105875780639317b193146105a557806393420cf4146105c557600080fd5b80634b4aa7351461044c5780636e838bad1461046c578063715018a61461048c57806373f62501146104a15780637a27d9f6146104c157600080fd5b80632f60a1511161022f5780632f60a1511461033c5780632fd99bf41461037157806333ff1577146103c55780633a921051146103e55780633d46396a146104055780633fd1e2bd1461042557600080fd5b80630674fa411461026c5780630729e07a1461029f5780632d67669c146102c15780632e1a7d4d146102e15780632e78434314610301575b600080fd5b34801561027857600080fd5b5061028c6102873660046155a9565b61095d565b6040519081526020015b60405180910390f35b3480156102ab57600080fd5b506102bf6102ba3660046155c6565b6109f0565b005b3480156102cd57600080fd5b5061028c6102dc3660046155f0565b610cdc565b3480156102ed57600080fd5b506102bf6102fc36600461560c565b610dcf565b34801561030d57600080fd5b5061032161031c366004615625565b610ec0565b60408051825181526020928301519281019290925201610296565b34801561034857600080fd5b5060075461035d90610100900462ffffff1681565b60405162ffffff9091168152602001610296565b34801561037d57600080fd5b506103b861038c36600461567f565b60066020908152600093845260408085208252928452828420905282529020546001600160a01b031681565b60405161029691906156ca565b3480156103d157600080fd5b5061028c6103e0366004615625565b610f0f565b3480156103f157600080fd5b5061028c6104003660046155a9565b610fa7565b34801561041157600080fd5b506102bf61042036600461560c565b611035565b34801561043157600080fd5b5061043a601281565b60405160ff9091168152602001610296565b34801561045857600080fd5b5061028c6104673660046155a9565b6110ce565b34801561047857600080fd5b506102bf6104873660046156ef565b61111f565b34801561049857600080fd5b506102bf611256565b3480156104ad57600080fd5b506102bf6104bc36600461571b565b61126a565b3480156104cd57600080fd5b5060075461035d90600160381b900462ffffff1681565b3480156104f057600080fd5b506103b87f000000000000000000000000000000000000000000000000000000000000000081565b34801561052457600080fd5b5061028c610533366004615625565b6112dc565b34801561054457600080fd5b506105786105533660046155a9565b6002602090815260009182526040918290208251918201909252600390910154815281565b60405190518152602001610296565b34801561059357600080fd5b506001546001600160a01b03166103b8565b3480156105b157600080fd5b506102bf6105c0366004615738565b61132c565b3480156105d157600080fd5b5060055461028c9081565b3480156105e857600080fd5b506008546106059062ffffff8116906301000000900461ffff1682565b6040805162ffffff909316835261ffff909116602083015201610296565b34801561062f57600080fd5b5061028c61063e366004615625565b6114da565b34801561064f57600080fd5b5061066361065e3660046155a9565b61152a565b6040519015158152602001610296565b34801561067f57600080fd5b5060075461035d90600160201b900462ffffff1681565b3480156106a257600080fd5b506106b66106b1366004615778565b6115cd565b60408051928352602083019190915201610296565b3480156106d757600080fd5b506102bf6106e6366004615794565b6118eb565b3480156106f757600080fd5b5061070b610706366004615625565b611a49565b6040805182518152602080840151908201529181015190820152606001610296565b6102bf61073b36600461560c565b611abd565b34801561074c57600080fd5b506003546004546106b6919082565b34801561076757600080fd5b506102bf6107763660046156ef565b611cd4565b34801561078757600080fd5b5061028c610796366004615625565b611dfb565b3480156107a757600080fd5b5061028c6107b63660046157b8565b611e4b565b3480156107c757600080fd5b506107db6107d63660046155a9565b611f63565b60405161029691906157d4565b3480156107f457600080fd5b506102bf6108033660046156ef565b611fdc565b34801561081457600080fd5b506102bf610823366004615821565b6001600160a01b03909116600090815260026020526040902060030155565b34801561084e57600080fd5b5061086261085d366004615778565b6120aa565b60408051938452602084019290925290820152606001610296565b34801561088957600080fd5b5061028c6108983660046157b8565b61236f565b3480156108a957600080fd5b506106636108b83660046155a9565b60096020526000908152604090205460ff1681565b3480156108d957600080fd5b506108ed6108e83660046155f0565b6127f0565b60405164ffffffffff9091168152602001610296565b34801561090f57600080fd5b5061066361091e3660046155a9565b612aad565b34801561092f57600080fd5b506102bf61093e3660046155a9565b612b11565b34801561094f57600080fd5b5060075461043a9060ff1681565b6001600160a01b038116600090815260026020526040808220905163d73fd34160e01b8152600481019190915273F84762AA944658ea511bf9b1BD067c2c50fFa4aE9063d73fd341906024016040805180830381865af41580156109c5573d6000803e3d6000fd5b505050506040513d601f19601f820116820180604052508101906109e9919061584d565b5092915050565b60026000541415610a1c5760405162461bcd60e51b8152600401610a1390615871565b60405180910390fd5b60026000556060810135610a2f81612b99565b610a3c60208301836155a9565b610a4581612bdb565b6000600681610a5760208701876155a9565b6001600160a01b03166001600160a01b031681526020019081526020016000206000856020016020810190610a8c91906158a8565b1515151581526020019081526020016000206000856040016020810190610ab391906158c5565b64ffffffffff1681526020810191909152604001600020546001600160a01b03169050610adf81612c43565b6001600160a01b0381166000908152600260209081526040808320815160c0810190925273FA8B7afC23A3Afd7f2800aC0c13310f7E1ebDC8D92637ae9aeb292908190610b2e908b018b6155a9565b6001600160a01b03168152602001610b4c60608b0160408c016158c5565b64ffffffffff168152602001896020016020810190610b6b91906158a8565b15158152600754600160201b900462ffffff166020820152604001336001600160a01b0390811688821614825260075460ff9081166020938401526040805160e088901b6001600160e01b03191681526004810196909652845190921660248601529183015164ffffffffff16604485015282015115156064840152606082015162ffffff1660848401526080820151151560a484015260a0909101511660c482015260e401602060405180830381865af4158015610c2e573d6000803e3d6000fd5b505050506040513d601f19601f82011682018060405250810190610c5291906158e2565b905080610c60576000610c62565b335b6001600160a01b0316610c7860208701876155a9565b6001600160a01b039081169084167f918858ab3117fd69ab99c9055596d1e99f6c88b95cc8226a8dbdc7d9bdc115cb610cb760608a0160408b016158c5565b60405164ffffffffff909116815260200160405180910390a450506001600055505050565b6000600981610cf160408501602086016155a9565b6001600160a01b0316815260208101919091526040016000205460ff16610d1a57506000919050565b6000610d2960208401846155a9565b90506000610d3d60608501604086016155a9565b9050610dc760026000846001600160a01b03166001600160a01b03168152602001908152602001600020856020016020810190610d7a91906155a9565b610d8a60808801606089016158a8565b610d9a60a0890160808a016158a8565b60075462ffffff600160201b8204811691600160381b9004166001600160a01b0389811690891614612cd0565b949350505050565b60026000541415610df25760405162461bcd60e51b8152600401610a1390615871565b600260005533610e0181612c43565b6001600160a01b0381811660008181526002602090815260409182902082516080810184527f0000000000000000000000000000000000000000000000000000000000000000909516855290840186905290830191909152600754610100900462ffffff166060830152610e7491612e4f565b806001600160a01b03167f7084f5476618d8e60b11ef0d7d3f06914655adb8793e28ff7f018d4c76d505d583604051610eaf91815260200190565b60405180910390a250506001600055565b604080518082018252600080825260209182018190526001600160a01b038581168252600283528382209085168252825282902082518084019093528054835260010154908201525b92915050565b6001600160a01b0382166000908152600260205260408082209051632de9906b60e11b815273F84762AA944658ea511bf9b1BD067c2c50fFa4aE91635bd320d691610f5f919086906004016158ff565b602060405180830381865af4158015610f7c573d6000803e3d6000fd5b505050506040513d601f19601f82011682018060405250810190610fa09190615916565b9392505050565b6001600160a01b0381166000908152600260205260408082209051631caf045760e31b8152600481019190915273F84762AA944658ea511bf9b1BD067c2c50fFa4aE9063e57822b8906024015b602060405180830381865af4158015611011573d6000803e3d6000fd5b505050506040513d601f19601f82011682018060405250810190610f099190615916565b61103d613089565b600260005414156110605760405162461bcd60e51b8152600401610a1390615871565b60026000553361106f81612c43565b6001600160a01b0381166000908152600260205260409020611093906005846130e3565b806001600160a01b03167f0880b0e717a57f3b5cbd3fc19396ae3c8cdee5c624c9289477869c38014c849583604051610eaf91815260200190565b6001600160a01b03811660009081526002602052604080822090516367dd27b160e01b8152600481019190915273F84762AA944658ea511bf9b1BD067c2c50fFa4aE906367dd27b190602401610ff4565b611127613089565b6002600054141561114a5760405162461bcd60e51b8152600401610a1390615871565b6002600055620f424062ffffff82161061119a5760405162461bcd60e51b815260206004820152601160248201527050455f5349523a20746f6f206c6172676560781b6044820152606401610a13565b60075462ffffff600160201b909104811690821610156111fc5760405162461bcd60e51b815260206004820152601c60248201527f50455f5349523a20736d616c6c6572207468616e206d6d526174696f000000006044820152606401610a13565b6007805463ffffff00191661010062ffffff8416908102919091179091556040519081527f04f9c1a24c6543f4b91577d82af28fb7ef6d7b9fe46acd0e5c36ef17073b94e6906020015b60405180910390a1506001600055565b61125e613089565b6112686000613112565b565b611272613089565b600260005414156112955760405162461bcd60e51b8152600401610a1390615871565b60026000556007805460ff191660ff83169081179091556040519081527fa7b4760b38e2a630f3073fcd5119972cbf81bd50e3761f86534a69661caf811090602001611246565b6001600160a01b038216600090815260026020526040808220905163af77d70760e01b815273F84762AA944658ea511bf9b1BD067c2c50fFa4aE9163af77d70791610f5f919086906004016158ff565b611334613089565b600260005414156113575760405162461bcd60e51b8152600401610a1390615871565b600260005561136e6001600160a01b038316612b8a565b6113ba5760405162461bcd60e51b815260206004820152601f60248201527f50455f53494d413a206d61726b6574206164647265737320696e76616c6964006044820152606401610a13565b801561148257306001600160a01b0316826001600160a01b031663d2f7265a6040518163ffffffff1660e01b8152600401602060405180830381865afa158015611408573d6000803e3d6000fd5b505050506040513d601f19601f8201168201806040525081019061142c919061592f565b6001600160a01b0316146114825760405162461bcd60e51b815260206004820152601b60248201527f50455f53494d413a20646966666572656e742065786368616e676500000000006044820152606401610a13565b6001600160a01b038216600081815260096020908152604091829020805460ff191685151590811790915591519182527fd5d4c2e150c76234e0f5d390162d34c5c1e1405df2194cfbd63b12d9521b10279101610eaf565b6001600160a01b0382166000908152600260205260408082209051630d832e2160e31b815273F84762AA944658ea511bf9b1BD067c2c50fFa4aE91636c19710891610f5f919086906004016158ff565b6001600160a01b0381166000908152600260205260408082206007549151633c7e525f60e01b81526004810191909152600160201b90910462ffffff16602482015273F84762AA944658ea511bf9b1BD067c2c50fFa4aE90633c7e525f906044015b602060405180830381865af41580156115a9573d6000803e3d6000fd5b505050506040513d601f19601f82011682018060405250810190610f0991906158e2565b600080600260005414156115f35760405162461bcd60e51b8152600401610a1390615871565b600260005560a083013561160681612b99565b61161660408501602086016155a9565b61161f81612bdb565b61163461162f60208701876155a9565b612c43565b600061170060028261164960208a018a6155a9565b6001600160a01b03166001600160a01b031681526020019081526020016000206040518060e0016040528089602001602081019061168791906155a9565b6001600160a01b0316815260408a81013560208301526060808c0135918301919091526080808c013591830191909152600754600160201b810462ffffff169183019190915260ff1660a082015260c001336001600160a01b03166116ef60208c018c6155a9565b6001600160a01b0316149052613164565b9050600061171460408801602089016155a9565b6001600160a01b0316639482de1a6040518163ffffffff1660e01b8152600401602060405180830381865afa158015611751573d6000803e3d6000fd5b505050506040513d601f19601f820116820180604052508101906117759190615916565b905060006117896040890160208a016155a9565b6001600160a01b0316638ee8fe5d6040518163ffffffff1660e01b8152600401602060405180830381865afa1580156117c6573d6000803e3d6000fd5b505050506040513d601f19601f820116820180604052508101906117ea9190615916565b90506117fc6040890160208a016155a9565b6001600160a01b031661181260208a018a6155a9565b6001600160a01b03167f2935383596639a6916071dea84c6ed5d6c6315fa9628268974458798fea93ebc8560a0015161184c57600061184e565b335b866000015187602001518d6040013589604001518a606001518b608001518b8b6040516118c8999897969594939291906001600160a01b03999099168952602089019790975260408801959095526060870193909352608086019190915260a085015260c084015260e08301526101008201526101200190565b60405180910390a350508051602090910151600160005590969095509350505050565b6118f3613089565b600260005414156119165760405162461bcd60e51b8152600401610a1390615871565b6002600055620f424061192c60208301836156ef565b62ffffff161061197e5760405162461bcd60e51b815260206004820152601f60248201527f50455f534c52433a20746f6f206c617267652072657761726420726174696f006044820152606401610a13565b6000611990604083016020840161595c565b61ffff16116119dd5760405162461bcd60e51b815260206004820152601960248201527850455f534c52433a20656d612074696d65206973207a65726f60381b6044820152606401610a13565b8060086119ea8282615979565b507f1185c4964ca5cd3d88d5dfbc1fb65b84d5533e3354f3b2163e8e1c0f35bca0e19050611a1b60208301836156ef565b611a2b604084016020850161595c565b6040805162ffffff909316835261ffff909116602083015201611246565b611a6d60405180606001604052806000815260200160008152602001600081525090565b506001600160a01b03808316600090815260026020818152604080842094861684526001948501825292839020835160608101855281548152948101549185019190915201549082015292915050565b60026000541415611ae05760405162461bcd60e51b8152600401610a1390615871565b600260005533611aef81612c43565b7f00000000000000000000000000000000000000000000000000000000000000006001600160a01b0316611bcd578115611b635760405162461bcd60e51b815260206004820152601560248201527450455f443a20616d6f756e74206e6f74207a65726f60581b6044820152606401610a13565b6001600160a01b0381166000908152600260205260409020611b85903461352d565b806001600160a01b03167f2da466a7b24304f47e87fa2e1e5a81b9831ce54fec19055ce277ca2f39ba42c434604051611bc091815260200190565b60405180910390a2611ccb565b3415611c165760405162461bcd60e51b815260206004820152601860248201527750455f443a206d73672e76616c7565206e6f74207a65726f60401b6044820152606401610a13565b611c9060026000836001600160a01b03166001600160a01b0316815260200190815260200160002060405180606001604052807f00000000000000000000000000000000000000000000000000000000000000006001600160a01b03168152602001858152602001846001600160a01b0316815250613595565b806001600160a01b03167f2da466a7b24304f47e87fa2e1e5a81b9831ce54fec19055ce277ca2f39ba42c483604051610eaf91815260200190565b50506001600055565b611cdc613089565b60026000541415611cff5760405162461bcd60e51b8152600401610a1390615871565b600260005560075462ffffff61010090910481169082161115611d645760405162461bcd60e51b815260206004820152601b60248201527f50455f534d523a20626967676572207468616e20696d526174696f00000000006044820152606401610a13565b60008162ffffff1611611da85760405162461bcd60e51b815260206004820152600c60248201526b50455f534d523a207a65726f60a01b6044820152606401610a13565b6007805466ffffff000000001916600160201b62ffffff8416908102919091179091556040519081527ffbd0bf17b9833a130f5baeccbfc586acefc75be8ad5bb114f448e412adc4c05b90602001611246565b6001600160a01b0382166000908152600260205260408082209051632691409160e01b815273F84762AA944658ea511bf9b1BD067c2c50fFa4aE91632691409191610f5f919086906004016158ff565b6000611e5d60408301602084016155a9565b611e6681612bdb565b6000611e7560208501856155a9565b90506000611e8960608601604087016155a9565b9050611f5a60026000846001600160a01b03166001600160a01b03168152602001908152602001600020604051806101000160405280886020016020810190611ed291906155a9565b6001600160a01b03168152602001611ef060808a0160608b016158a8565b15158152602001611f0760a08a0160808b016158a8565b1515815260a0808a0135602083015260c08a0135604083015260075462ffffff600160201b820481166060850152600160381b9091041660808301526001600160a01b038781169087161491015261365b565b95945050505050565b6001600160a01b038116600090815260026020908152604091829020600401805483518184028101840190945280845260609392830182828015611fd057602002820191906000526020600020905b81546001600160a01b03168152600190910190602001808311611fb2575b50505050509050919050565b611fe4613089565b600260005414156120075760405162461bcd60e51b8152600401610a1390615871565b600260005561271062ffffff821611156120585760405162461bcd60e51b815260206004820152601260248201527150455f535046523a20746f6f206c6172676560701b6044820152606401610a13565b6007805462ffffff60381b1916600160381b62ffffff8416908102919091179091556040519081527f68c41b7a5c12c4d9cbb99ec284bf647922a75f379a90694e3ad65574f4ff944d90602001611246565b6000806000600260005414156120d25760405162461bcd60e51b8152600401610a1390615871565b600260005560a08401356120e581612b99565b6120f260208601866155a9565b6120fb81612bdb565b3361210581612c43565b6001600160a01b0381166000908152600260209081526040808320815160e0810190925261219192909190819061213e908d018d6155a9565b6001600160a01b0316815260208c810135908201526040808d0135908201526060808d0135908201526080808d01359082015260075462ffffff61010082041660a083015260ff1660c09091015261386c565b905060006121a260208a018a6155a9565b6001600160a01b0316639482de1a6040518163ffffffff1660e01b8152600401602060405180830381865afa1580156121df573d6000803e3d6000fd5b505050506040513d601f19601f820116820180604052508101906122039190615916565b9050600061221460208b018b6155a9565b6001600160a01b0316638ee8fe5d6040518163ffffffff1660e01b8152600401602060405180830381865afa158015612251573d6000803e3d6000fd5b505050506040513d601f19601f820116820180604052508101906122759190615916565b6001600160a01b0385166000908152600260209081526040822092935090916001019082906122a6908e018e6155a9565b6001600160a01b0316815260208082019290925260400160002091506122ce908c018c6155a9565b845160208087015160408089015160018701546002880154835196875294860193909352908401526060830152608082015260a0810185905260c081018490526001600160a01b03918216918716907f228674ca516ab8f32325e25d1e16656e747d977df7f664467fd5f7b4e64ba00f9060e00160405180910390a35050815160208301516040909301516001600055909a92995097509095505050505050565b6000600260005414156123945760405162461bcd60e51b8152600401610a1390615871565b600260005560c08201356123a781612b99565b6123b760408401602085016155a9565b6123c081612bdb565b6123d061162f60208601866155a9565b60006123db85613be1565b90508061010001516060015164ffffffffff1660001461253e57600060068161240a6040890160208a016155a9565b6001600160a01b03166001600160a01b03168152602001908152602001600020600087604001602081019061243f91906158a8565b15158152602080820192909252604090810160009081206101008601516060015164ffffffffff1682529092529020546001600160a01b0316905061248381612c43565b6001600160a01b03811660009081526002602090815260409182902061253b9290916124b3918a01908a016155a9565b6124c360608a0160408b016158a8565b6124de576124d985610100015160200151613d56565b6124f0565b6124f085610100015160200151613d6a565b61250060608b0160408c016158a8565b61251b5761251686610100015160400151613d6a565b61252d565b61252d86610100015160400151613d56565b60075460009060ff16613dd8565b50505b600061255060408701602088016155a9565b6001600160a01b0316639482de1a6040518163ffffffff1660e01b8152600401602060405180830381865afa15801561258d573d6000803e3d6000fd5b505050506040513d601f19601f820116820180604052508101906125b19190615916565b905060006125c560408801602089016155a9565b6001600160a01b0316638ee8fe5d6040518163ffffffff1660e01b8152600401602060405180830381865afa158015612602573d6000803e3d6000fd5b505050506040513d601f19601f820116820180604052508101906126269190615916565b90508260e001511561270457336126436040890160208a016155a9565b6001600160a01b031661265960208a018a6155a9565b6001600160a01b03167f7c3978559b662b8adf839d43cce2ec6ab7db3fdc995575e4576acc9e0628985d866000015187602001518860400151896060015189898c608001518d60a001518e60c001516040516126f799989796959493929190988952602089019790975260408801959095526060870193909352608086019190915260a085015260c084015260e08301526101008201526101200190565b60405180910390a461279a565b61271460408801602089016155a9565b6001600160a01b031661272a60208901896155a9565b84516020808701516040808901516060808b0151835196875294860193909352908401528201526080810185905260a081018490526001600160a01b0391909116907fe386a40c070a1424ae709b98c27e64993228f777c6294ef7149cf0ee42ef46e89060c00160405180910390a35b6127aa60608801604089016158a8565b15156127bc6080890160608a016158a8565b1515146127d35782516127ce90613ec9565b6127e0565b6127e08360200151613ec9565b6001600055979650505050505050565b6000600260005414156128155760405162461bcd60e51b8152600401610a1390615871565b6002600055608082013561282881612b99565b61283560208401846155a9565b61283e81612bdb565b3361284881612c43565b6001600160a01b038116600090815260026020908152604091829020825160c0810190935273FA8B7afC23A3Afd7f2800aC0c13310f7E1ebDC8D9263d34e48d4928190612897908b018b6155a9565b6001600160a01b0316815260200189604001358152602001896060013581526020018960200160208101906128cc91906158a8565b1515815260075462ffffff6101008204811660208085019190915260ff92831660409485015283516001600160e01b031960e089901b168152600481019690965284516001600160a01b031660248701528401516044860152918301516064850152606083015115156084850152608083015190911660a484015260a0909101511660c482015260e401602060405180830381865af4158015612973573d6000803e3d6000fd5b505050506040513d601f19601f8201168201806040525081019061299791906159c7565b935080600660006129ab60208901896155a9565b6001600160a01b03166001600160a01b0316815260200190815260200160002060008760200160208101906129e091906158a8565b151581526020808201929092526040908101600090812064ffffffffff8916825283522080546001600160a01b0319166001600160a01b039390931692909217909155612a2f908601866155a9565b6001600160a01b039081169082167f22c125447e6a06158aefb2637c0f7d1a544b0bb331e126582be4a4e70d3e6c88612a6e6040890160208a016158a8565b6040805191151582528981013560208301526060808b01358383015264ffffffffff8a1690830152519081900360800190a35050600160005550919050565b6001600160a01b0381166000908152600260205260408082206007549151634d3a1f3d60e11b8152600481019190915261010090910462ffffff16602482015273F84762AA944658ea511bf9b1BD067c2c50fFa4aE90639a743e7a9060440161158c565b612b19613089565b6001600160a01b038116612b7e5760405162461bcd60e51b815260206004820152602660248201527f4f776e61626c653a206e6577206f776e657220697320746865207a65726f206160448201526564647265737360d01b6064820152608401610a13565b612b8781613112565b50565b6001600160a01b03163b151590565b80421115612b875760405162461bcd60e51b815260206004820152600f60248201526e50455f43443a20746f6f206c61746560881b6044820152606401610a13565b6001600160a01b03811660009081526009602052604090205460ff16612b875760405162461bcd60e51b815260206004820152601a60248201527f50455f434d413a206d61726b6574206e6f7420616c6c6f7765640000000000006044820152606401610a13565b6001600160a01b038116600090815260026020526040908190206007549151635c02a9e960e01b8152600481019190915260ff909116602482015273FA8B7afC23A3Afd7f2800aC0c13310f7E1ebDC8D90635c02a9e99060440160006040518083038186803b158015612cb557600080fd5b505af4158015612cc9573d6000803e3d6000fd5b5050505050565b604051633c7e525f60e01b81526004810188905262ffffff84166024820152600090819073F84762AA944658ea511bf9b1BD067c2c50fFa4aE90633c7e525f90604401602060405180830381865af4158015612d30573d6000803e3d6000fd5b505050506040513d601f19601f82011682018060405250810190612d5491906158e2565b15905082158015612d63575080155b15612d72576000915050612e44565b808015612d9857506001600160a01b038816600090815260018a01602052604090205415155b15612da7576000915050612e44565b62ffffff8416612e325760405163e8fa204f60e01b81528715156004820152861515602482015281151560448201526001600160a01b0389169063e8fa204f90606401602060405180830381865afa158015612e07573d6000803e3d6000fd5b505050506040513d601f19601f82011682018060405250810190612e2b9190615916565b9150612e42565b612e3f8888888785613ef2565b91505b505b979650505050505050565b6000816020015111612e975760405162461bcd60e51b8152602060048201526011602482015270159317d5ce881e995c9bc8185b5bdd5b9d607a1b6044820152606401610a13565b80516000906001600160a01b031615612f2257612f1d826020015183600001516001600160a01b031663313ce5676040518163ffffffff1660e01b8152600401602060405180830381865afa158015612ef4573d6000803e3d6000fd5b505050506040513d601f19601f82011682018060405250810190612f1891906159e4565b613fbd565b612f28565b81602001515b9050612f41612f3682613d6a565b60038501549061406f565b60038401556060820151604051634d3a1f3d60e11b81526004810185905262ffffff909116602482015273F84762AA944658ea511bf9b1BD067c2c50fFa4aE90639a743e7a90604401602060405180830381865af4158015612fa7573d6000803e3d6000fd5b505050506040513d601f19601f82011682018060405250810190612fcb91906158e2565b6130175760405162461bcd60e51b815260206004820152601f60248201527f564c5f573a206e6f7420656e6f75676820696e697469616c206d617267696e006044820152606401610a13565b81516001600160a01b031661306d5781604001516001600160a01b03166108fc83602001519081150290604051600060405180830381858888f19350505050158015613067573d6000803e3d6000fd5b50505050565b61308482600001518360400151846020015161407b565b505050565b6001546001600160a01b031633146112685760405162461bcd60e51b815260206004820181905260248201527f4f776e61626c653a2063616c6c6572206973206e6f7420746865206f776e65726044820152606401610a13565b6130fa6130ef82613d6a565b6003850154906140de565b6003840155815461310b90826140ea565b9091555050565b600180546001600160a01b038381166001600160a01b0319831681179093556040519116919082907f8be0079c531659141344cd1fd0a4f28419497f9722a3daafe3b4186f6b6457e090600090a35050565b61319f6040518060c0016040528060008152602001600081526020016000815260200160008152602001600081526020016000151581525090565b6080820151604051633c7e525f60e01b81526004810185905262ffffff909116602482015273F84762AA944658ea511bf9b1BD067c2c50fFa4aE90633c7e525f90604401602060405180830381865af4158015613200573d6000803e3d6000fd5b505050506040513d601f19601f8201168201806040525081019061322491906158e2565b1560a082015260c0820151613277578060a001516132775760405162461bcd60e51b815260206004820152601060248201526f4d4c5f524c3a20656e6f756768206d6d60801b6044820152606401610a13565b81516001600160a01b039081166000908152600185810160209081526040808420875192880151938101546002820154925163933c797960e01b81526004810195909552602485015260448401919091529293169063933c7979906064016040805180830381865afa1580156132f1573d6000803e3d6000fd5b505050506040513d601f19601f82011682018060405250810190613315919061584d565b84604001856060018281525082815250505083600001516001600160a01b0316638ee8fe5d6040518163ffffffff1660e01b8152600401602060405180830381865afa158015613369573d6000803e3d6000fd5b505050506040513d601f19601f8201168201806040525081019061338d9190615916565b84516020860151604051639c8f9f2360e01b815260048101919091529193506001600160a01b03169150639c8f9f239060240160408051808303816000875af11580156133de573d6000803e3d6000fd5b505050506040513d601f19601f82011682018060405250810190613402919061584d565b60208401528083526040840151111561342d5760405162461bcd60e51b8152600401610a1390615a01565b8260600151826020015110156134555760405162461bcd60e51b8152600401610a1390615a01565b6134706134658360000151613d6a565b6040840151906140de565b604083015260208201516134929061348790613d6a565b6060840151906140de565b606083015282516001600160a01b0316600090815260018501602090815260409091209084015181546134c4916140ea565b905560006134e46134d483613d6a565b604085015190600160601b6140f6565b6134ed90615a4e565b905061351f85856000015185604001518461351586896060015161406f90919063ffffffff16565b8960a00151613dd8565b608084015250909392505050565b600081116135725760405162461bcd60e51b8152602060048201526012602482015271159317d1114e881e995c9bc8185b5bdd5b9d60721b6044820152606401610a13565b61358961357e82613d6a565b6003840154906140de565b60039092019190915550565b60008160200151116135dd5760405162461bcd60e51b8152602060048201526011602482015270159317d10e881e995c9bc8185b5bdd5b9d607a1b6044820152606401610a13565b6135f481600001518260400151836020015161419a565b6000613640826020015183600001516001600160a01b031663313ce5676040518163ffffffff1660e01b8152600401602060405180830381865afa158015612ef4573d6000803e3d6000fd5b905061364e6130ef82613d6a565b6003909301929092555050565b60a0810151604051633c7e525f60e01b81526004810184905262ffffff9091166024820152600090819073F84762AA944658ea511bf9b1BD067c2c50fFa4aE90633c7e525f90604401602060405180830381865af41580156136c1573d6000803e3d6000fd5b505050506040513d601f19601f820116820180604052508101906136e591906158e2565b1590508260e0015161373257806137325760405162461bcd60e51b8152602060048201526011602482015270544c5f4f50443a20656e6f756768206d6d60781b6044820152606401610a13565b801561379d5782516001600160a01b031660009081526001850160205260409020541561379d5760405162461bcd60e51b8152602060048201526019602482015278544c5f4f50443a206e6f206d616b6572207768656e206c697160381b6044820152606401610a13565b60c083015162ffffff1661383357825160208401516040808601516060870151915162de853760e31b81526001600160a01b03909416936306f429b8936137eb939092918790600401615a6b565b602060405180830381865afa158015613808573d6000803e3d6000fd5b505050506040513d601f19601f8201168201806040525081019061382c9190615916565b9150613859565b61385583600001518460200151856040015186606001518760c00151866142dd565b5091505b6109e983604001518385608001516144e5565b61389060405180606001604052806000815260200160008152602001600081525090565b81516001600160a01b039081166000908152600185016020526040808220855182516379144ba960e11b815283519295859492169263f2289752926004808401939192918290030181865afa1580156138ed573d6000803e3d6000fd5b505050506040513d601f19601f82011682018060405250810190613911919061584d565b865160208801516040808a01519051634e6a20ed60e11b8152600481019290925260248201529294509092506001600160a01b031690639cd441da906044016060604051808303816000875af115801561396f573d6000803e3d6000fd5b505050506040513d601f19601f820116820180604052508101906139939190615a8a565b60408701526020860152808552606086015111156139f35760405162461bcd60e51b815260206004820152601c60248201527f4d4c5f414c3a20746f6f20736d616c6c206f75747075742062617365000000006044820152606401610a13565b846080015184602001511015613a4b5760405162461bcd60e51b815260206004820152601d60248201527f4d4c5f414c3a20746f6f20736d616c6c206f75747075742071756f74650000006044820152606401610a13565b82546040850151613a5d90829061458b565b8455604085015185516001860154613a79928492909187614597565b8460010181905550613a9a8186604001518760200151876002015486614597565b6002850155855160c087015160405163724055e760e01b815273F84762AA944658ea511bf9b1BD067c2c50fFa4aE9263724055e792613adf928c929190600401615ab8565b60006040518083038186803b158015613af757600080fd5b505af4158015613b0b573d6000803e3d6000fd5b5050505060a0860151604051634d3a1f3d60e11b81526004810189905262ffffff909116602482015273F84762AA944658ea511bf9b1BD067c2c50fFa4aE90639a743e7a90604401602060405180830381865af4158015613b70573d6000803e3d6000fd5b505050506040513d601f19601f82011682018060405250810190613b9491906158e2565b613bd75760405162461bcd60e51b81526020600482015260146024820152734d4c5f414c3a206e6f7420656e6f75676820696d60601b6044820152606401610a13565b5050505092915050565b613be9615512565b610f0960026000613bfd60208601866155a9565b6001600160a01b03166001600160a01b0316815260200190815260200160002060026000613c283390565b6001600160a01b03166001600160a01b0316815260200190815260200160002060030160036005604051806101600160405280886020016020810190613c6e91906155a9565b6001600160a01b03168152602001613c8c60608a0160408b016158a8565b15158152602001613ca360808a0160608b016158a8565b151581526080808a0135602083015260a0808b0135604084015260075462ffffff600160201b820481166060860152610100820481169385019390935260ff811691840191909152600160381b90041660c082015260e001613d023390565b6001600160a01b0316613d1860208b018b6155a9565b6001600160a01b03161481526040805180820190915260085462ffffff811682526301000000900461ffff16602080830191909152909101526145e0565b6000613d6182613d6a565b610f0990615a4e565b60006001600160ff1b03821115613dd45760405162461bcd60e51b815260206004820152602860248201527f53616665436173743a2076616c756520646f65736e27742066697420696e2061604482015267371034b73a191a9b60c11b6064820152608401610a13565b5090565b6001600160a01b0385166000908152602087815260408083208151808301909252805482526001015491810191909152613e1490868686614993565b6001600160a01b038816600090815260208a81526040909120835181559201516001909201919091556003880154909150613e4f90826140de565b600388015560405163724055e760e01b815273F84762AA944658ea511bf9b1BD067c2c50fFa4aE9063724055e790613e8f908a908a908790600401615ab8565b60006040518083038186803b158015613ea757600080fd5b505af4158015613ebb573d6000803e3d6000fd5b505050509695505050505050565b600080821215613ee957613ee4613edf83614b9f565b614bfd565b610f09565b610f0982614bfd565b60405163e8fa204f60e01b81528415156004820152831515602482015281151560448201526000906001600160a01b0387169063e8fa204f90606401602060405180830381865afa158015613f4b573d6000803e3d6000fd5b505050506040513d601f19601f82011682018060405250810190613f6f9190615916565b90508315613fa0578415613f8257611f5a565b613f99613f92620f424085614c4f565b8290614cb5565b9050611f5a565b8415611f5a57613f99613fb6620f424085614c4f565b8290614cca565b600080613fd7613fcf8460ff16613d6a565b60129061406f565b90506000613fe482613ec9565b9050604d8111156140375760405162461bcd60e51b815260206004820152601f60248201527f564c5f5443413a20746f6f206c6172676520646563696d616c732064696666006044820152606401610a13565b600082121561405a5761405561404e82600a615bbe565b8690614cdf565b611f5a565b611f5a61406882600a615bbe565b8690614ceb565b6000610fa08284615bca565b6040516001600160a01b03831660248201526044810182905261308490849063a9059cbb60e01b906064015b60408051601f198184030181529190526020810180516001600160e01b03166001600160e01b031990931692909217909152614cf7565b6000610fa08284615c09565b6000610fa08284615c4a565b600080600085126141075784614110565b61411085614b9f565b90506000808512614121578461412a565b61412a85614b9f565b90506000808712801561413d5750600086135b8061415357506000871380156141535750600086125b61415e576000614161565b60015b90506000614170848488614dc9565b9050816141855761418081613d6a565b61418e565b61418e81613d56565b98975050505050505050565b6040516370a0823160e01b81526000906001600160a01b038516906370a08231906141c99030906004016156ca565b602060405180830381865afa1580156141e6573d6000803e3d6000fd5b505050506040513d601f19601f8201168201806040525081019061420a9190615916565b905061421884843085614e97565b8161429082866001600160a01b03166370a08231306040518263ffffffff1660e01b815260040161424991906156ca565b602060405180830381865afa158015614266573d6000803e3d6000fd5b505050506040513d601f19601f8201168201806040525081019061428a9190615916565b906140ea565b146130675760405162461bcd60e51b815260206004820152601c60248201527f564c5f5454493a20696e636f6e73697374656e742062616c616e6365000000006044820152606401610a13565b600080851561440557861561437d5760405162de853760e31b81526001600160a01b038916906306f429b89061431d908a908a908a908990600401615a6b565b602060405180830381865afa15801561433a573d6000803e3d6000fd5b505050506040513d601f19601f8201168201806040525081019061435e9190615916565b915061436a8285614cca565b905061437682826140ea565b91506144da565b6143878585614cca565b90506001600160a01b0388166306f429b888886143a489866140ea565b876040518563ffffffff1660e01b81526004016143c49493929190615a6b565b602060405180830381865afa1580156143e1573d6000803e3d6000fd5b505050506040513d601f19601f820116820180604052508101906143769190615916565b8615614443576144268561428a61441f620f424088614c4f565b8890614cb5565b90506001600160a01b0388166306f429b888886143a4898661458b565b60405162de853760e31b81526000906001600160a01b038a16906306f429b890614477908b908b908b908a90600401615a6b565b602060405180830381865afa158015614494573d6000803e3d6000fd5b505050506040513d601f19601f820116820180604052508101906144b89190615916565b90506144ca613f92620f424087614c4f565b92506144d683826140ea565b9150505b965096945050505050565b821561453b57808210156130845760405162461bcd60e51b815260206004820181905260248201527f544c5f56533a20746f6f20736d616c6c206f70706f7369746520616d6f756e746044820152606401610a13565b808211156130845760405162461bcd60e51b815260206004820181905260248201527f544c5f56533a20746f6f206c61726765206f70706f7369746520616d6f756e746044820152606401610a13565b6000610fa08284615c61565b6000806145a4878761458b565b90506145bf6145b886600160601b89614dc9565b849061458b565b9250612e446145cf848884614dc9565b6145da868a85614dc9565b9061458b565b6145e8615512565b60a0820151604051633c7e525f60e01b81526004810188905262ffffff909116602482015273F84762AA944658ea511bf9b1BD067c2c50fFa4aE90633c7e525f90604401602060405180830381865af4158015614649573d6000803e3d6000fd5b505050506040513d601f19601f8201168201806040525081019061466d91906158e2565b1560e08201526101208201516146c1578060e001516146c15760405162461bcd60e51b815260206004820152601060248201526f544c5f4f503a20656e6f756768206d6d60801b6044820152606401610a13565b8060e00151156147345781516001600160a01b03166000908152600187016020526040902054156147345760405162461bcd60e51b815260206004820181905260248201527f544c5f4f503a206e6f206d616b6572207768656e206c69717569646174696f6e6044820152606401610a13565b600086600001600084600001516001600160a01b03166001600160a01b031681526020019081526020016000206000015490506147e3878560405180610100016040528087600001516001600160a01b0316815260200187602001511515815260200187604001511515815260200187606001518152602001876080015181526020018760e0015160ff16815260200187610100015162ffffff1681526020018660e001511515815250614ecf565b61010087015260608601526040850152602084015280835260009081906148099061500a565b845161481f9061481a9086906140de565b61500a565b6148299190615c79565b1390508260e00151156148ba5780156148845760405162461bcd60e51b815260206004820152601f60248201527f544c5f4f503a206e6f206f70656e207768656e206c69717569646174696f6e006044820152606401610a13565b6148aa8860030188888760a001518861014001516148a58960200151613ec9565b615032565b60c086015260a085015260808401525b80156149885760c0840151604051634d3a1f3d60e11b8152600481018a905262ffffff909116602482015273F84762AA944658ea511bf9b1BD067c2c50fFa4aE90639a743e7a90604401602060405180830381865af4158015614921573d6000803e3d6000fd5b505050506040513d601f19601f8201168201806040525081019061494591906158e2565b6149885760405162461bcd60e51b8152602060048201526014602482015273544c5f4f503a206e6f7420656e6f75676820696d60601b6044820152606401610a13565b505095945050505050565b60408051808201909152600080825260208201526000841515806149b657508315155b15614ac9576149c48461500a565b6149cd8661500a565b6149d79190615c79565b60001914614a205760405162461bcd60e51b8152602060048201526016602482015275151317d05515108e881a5b9d985b1a59081a5b9c1d5d60521b6044820152606401610a13565b614a298561500a565b8651614a349061500a565b614a3e9190615c79565b6000191415614ac9576000614a5286613ec9565b90506000614a638860000151613ec9565b9050808211614a9a576000614a86614a7a84613d6a565b60208b015190846140f6565b9050614a9287826140de565b935050614ac6565b6000614ab0614aa883613d6a565b8890856140f6565b60208a0151909150614ac290826140de565b9350505b50505b614ad381846140de565b8651909150600090614ae590876140de565b90506000614b1483614b0e87614b088a8d602001516140de90919063ffffffff16565b906140de565b9061406f565b905081158015614b22575080155b80614b495750614b318161500a565b614b3a8361500a565b614b449190615c79565b600019145b614b8c5760405162461bcd60e51b81526020600482015260146024820152732a262fa0aa2a211d103732bb32b91037b1b1bab960611b6044820152606401610a13565b9083526020830152909590945092505050565b6000600160ff1b8213614bf45760405162461bcd60e51b815260206004820152601c60248201527f506572704d6174683a20696e76657273696f6e206f766572666c6f77000000006044820152606401610a13565b610f0982615a4e565b600080821215613dd45760405162461bcd60e51b815260206004820181905260248201527f53616665436173743a2076616c7565206d75737420626520706f7369746976656044820152606401610a13565b60008262ffffff168262ffffff161115614cab5760405162461bcd60e51b815260206004820152601e60248201527f506572704d6174683a207375627472616374696f6e206f766572666c6f7700006044820152606401610a13565b610fa08284615cfe565b6000610fa083620f42408462ffffff16614dc9565b6000610fa0838362ffffff16620f4240614dc9565b6000610fa08284615d38565b6000610fa08284615d5a565b6000614d4c826040518060400160405280602081526020017f5361666545524332303a206c6f772d6c6576656c2063616c6c206661696c6564815250856001600160a01b03166150cf9092919063ffffffff16565b8051909150156130845780806020019051810190614d6a91906158e2565b6130845760405162461bcd60e51b815260206004820152602a60248201527f5361666545524332303a204552433230206f7065726174696f6e20646964206e6044820152691bdd081cdd58d8d9595960b21b6064820152608401610a13565b600080806000198587098587029250828110838203039150508060001415614e0457838281614dfa57614dfa615d22565b0492505050610fa0565b838110614e2e57604051631dcf306360e21b81526004810182905260248101859052604401610a13565b60008486880960026001871981018816978890046003810283188082028403028082028403028082028403028082028403028082028403029081029092039091026000889003889004909101858311909403939093029303949094049190911702949350505050565b6040516001600160a01b03808516602483015283166044820152606481018290526130679085906323b872dd60e01b906084016140a7565b600080600080614edd615565565b60c086015160009062ffffff1615614f2257614f1688886000015189602001518a604001518b606001518c60c001518d60e001516150de565b90945092509050614fb2565b865160208801516040808a015160608b015160e08c015192516380796d5560e01b81526001600160a01b03909516946380796d5594614f679490939291600401615a6b565b6080604051808303816000875af1158015614f86573d6000803e3d6000fd5b505050506040513d601f19601f82011682018060405250810190614faa9190615d79565b805190925090505b614fc587604001518289608001516144e5565b614fdd87602001518860400151896060015184615317565b8096508197505050614ffc898860000151888860008c60a00151613dd8565b935050939792965093509350565b600080821361502a5760008212615022576000610f09565b600019610f09565b600192915050565b600080806150408487614cca565b8551909350615050908490614cca565b915061505c83836140ea565b9050615075876001015483876020015161ffff16615386565b6001890191909155915061509361508b84613d6a565b8a549061406f565b89556150a96150a183613d6a565b8954906140de565b88556150bf6150b782613d6a565b8854906140de565b9096559097909650939450505050565b6060610dc784846000856153ba565b6000806150e9615565565b861561522257871561518d576040516380796d5560e01b81526001600160a01b038a16906380796d5590615127908b908b908b908a90600401615a6b565b6080604051808303816000875af1158015615146573d6000803e3d6000fd5b505050506040513d601f19601f8201168201806040525081019061516a9190615d79565b80519350905061517a8386614cca565b915061518683836140ea565b92506152fa565b6151978686614cca565b91506001600160a01b0389166380796d5589896151b48a876140ea565b886040518563ffffffff1660e01b81526004016151d49493929190615a6b565b6080604051808303816000875af11580156151f3573d6000803e3d6000fd5b505050506040513d601f19601f820116820180604052508101906152179190615d79565b8051935090506152fa565b8715615260576152438661428a61523c620f424089614c4f565b8990614cb5565b91506001600160a01b0389166380796d5589896151b48a8761458b565b6040516380796d5560e01b81526001600160a01b038a16906380796d5590615292908b908b908b908a90600401615a6b565b6080604051808303816000875af11580156152b1573d6000803e3d6000fd5b505050506040513d601f19601f820116820180604052508101906152d59190615d79565b80519091506152ea613f92620f424088614c4f565b93506152f684826140ea565b9250505b8954615306908361458b565b909955909890979650945050505050565b60008084156153535785156153415761532f84613d56565b61533884613d6a565b9150915061537d565b61534a83613d6a565b61533885613d56565b851561536b5761536283613d56565b61533885613d6a565b61537484613d6a565b61533884613d56565b94509492505050565b600080615393858561458b565b94506153a48562ffffff8516614cdf565b90506153b085826140ea565b9150935093915050565b60608247101561541b5760405162461bcd60e51b815260206004820152602660248201527f416464726573733a20696e73756666696369656e742062616c616e636520666f6044820152651c8818d85b1b60d21b6064820152608401610a13565b61542485612b8a565b6154705760405162461bcd60e51b815260206004820152601d60248201527f416464726573733a2063616c6c20746f206e6f6e2d636f6e74726163740000006044820152606401610a13565b600080866001600160a01b0316858760405161548c9190615e1f565b60006040518083038185875af1925050503d80600081146154c9576040519150601f19603f3d011682016040523d82523d6000602084013e6154ce565b606091505b5091509150612e44828286606083156154e8575081610fa0565b8251156154f85782518084602001fd5b8160405162461bcd60e51b8152600401610a139190615e3b565b60405180610120016040528060008152602001600081526020016000815260200160008152602001600081526020016000815260200160008152602001600015158152602001615560615565565b905290565b6040518060800160405280600081526020016000815260200160008152602001600064ffffffffff1681525090565b6001600160a01b0381168114612b8757600080fd5b6000602082840312156155bb57600080fd5b8135610fa081615594565b6000608082840312156155d857600080fd5b50919050565b600060a082840312156155d857600080fd5b600060a0828403121561560257600080fd5b610fa083836155de565b60006020828403121561561e57600080fd5b5035919050565b6000806040838503121561563857600080fd5b823561564381615594565b9150602083013561565381615594565b809150509250929050565b8015158114612b8757600080fd5b64ffffffffff81168114612b8757600080fd5b60008060006060848603121561569457600080fd5b833561569f81615594565b925060208401356156af8161565e565b915060408401356156bf8161566c565b809150509250925092565b6001600160a01b0391909116815260200190565b62ffffff81168114612b8757600080fd5b60006020828403121561570157600080fd5b8135610fa0816156de565b60ff81168114612b8757600080fd5b60006020828403121561572d57600080fd5b8135610fa08161570c565b6000806040838503121561574b57600080fd5b823561575681615594565b915060208301356156538161565e565b600060c082840312156155d857600080fd5b600060c0828403121561578a57600080fd5b610fa08383615766565b6000604082840312156155d857600080fd5b600060e082840312156155d857600080fd5b600060e082840312156157ca57600080fd5b610fa083836157a6565b6020808252825182820181905260009190848201906040850190845b818110156158155783516001600160a01b0316835292840192918401916001016157f0565b50909695505050505050565b6000806040838503121561583457600080fd5b823561583f81615594565b946020939093013593505050565b6000806040838503121561586057600080fd5b505080516020909101519092909150565b6020808252601f908201527f5265656e7472616e637947756172643a207265656e7472616e742063616c6c00604082015260600190565b6000602082840312156158ba57600080fd5b8135610fa08161565e565b6000602082840312156158d757600080fd5b8135610fa08161566c565b6000602082840312156158f457600080fd5b8151610fa08161565e565b9182526001600160a01b0316602082015260400190565b60006020828403121561592857600080fd5b5051919050565b60006020828403121561594157600080fd5b8151610fa081615594565b61ffff81168114612b8757600080fd5b60006020828403121561596e57600080fd5b8135610fa08161594c565b8135615984816156de565b62ffffff8116905081548162ffffff19821617835560208401356159a78161594c565b64ffff0000008160181b168364ffffffffff198416171784555050505050565b6000602082840312156159d957600080fd5b8151610fa08161566c565b6000602082840312156159f657600080fd5b8151610fa08161570c565b6020808252601c908201527f4d4c5f524c3a20746f6f20736d616c6c206f7574707574206261736500000000604082015260600190565b634e487b7160e01b600052601160045260246000fd5b6000600160ff1b821415615a6457615a64615a38565b5060000390565b9315158452911515602084015260408301521515606082015260800190565b600080600060608486031215615a9f57600080fd5b8351925060208401519150604084015190509250925092565b9283526001600160a01b0391909116602083015260ff16604082015260600190565b600181815b80851115615b15578160001904821115615afb57615afb615a38565b80851615615b0857918102915b93841c9390800290615adf565b509250929050565b600082615b2c57506001610f09565b81615b3957506000610f09565b8160018114615b4f5760028114615b5957615b75565b6001915050610f09565b60ff841115615b6a57615b6a615a38565b50506001821b610f09565b5060208310610133831016604e8410600b8410161715615b98575081810a610f09565b615ba28383615ada565b8060001904821115615bb657615bb6615a38565b029392505050565b6000610fa08383615b1d565b60008083128015600160ff1b850184121615615be857615be8615a38565b6001600160ff1b0384018313811615615c0357615c03615a38565b50500390565b600080821280156001600160ff1b0384900385131615615c2b57615c2b615a38565b600160ff1b8390038412811615615c4457615c44615a38565b50500190565b600082821015615c5c57615c5c615a38565b500390565b60008219821115615c7457615c74615a38565b500190565b60006001600160ff1b0381841382841380821686840486111615615c9f57615c9f615a38565b600160ff1b6000871282811687830589121615615cbe57615cbe615a38565b60008712925087820587128484161615615cda57615cda615a38565b87850587128184161615615cf057615cf0615a38565b505050929093029392505050565b600062ffffff83811690831681811015615d1a57615d1a615a38565b039392505050565b634e487b7160e01b600052601260045260246000fd5b600082615d5557634e487b7160e01b600052601260045260246000fd5b500490565b6000816000190483118215151615615d7457615d74615a38565b500290565b600060808284031215615d8b57600080fd5b6040516080810181811067ffffffffffffffff82111715615dbc57634e487b7160e01b600052604160045260246000fd5b80604052508251815260208301516020820152604083015160408201526060830151615de78161566c565b60608201529392505050565b60005b83811015615e0e578181015183820152602001615df6565b838111156130675750506000910152565b60008251615e31818460208701615df3565b9190910192915050565b6020815260008251806020840152615e5a816040850160208701615df3565b601f01601f1916919091016040019291505056fea26469706673582212204dea7f4a97cd8b10eaf9740abe2f35d5664dbcf2b48fa57a953410ffbe104d2264736f6c634300080c0033",
  "deployedBytecode": "0x6080604052600436106102675760003560e01c806394887af711610144578063cffe8556116100b6578063e671be171161007a578063e671be171461087d578063e72e43631461089d578063e8c41ef9146108cd578063ec6cca8414610903578063f2fde38b14610923578063f652b5271461094357600080fd5b8063cffe85561461079b578063d11102c5146107bb578063d1ce35e3146107e8578063ddad7e9714610808578063dfe1cb921461084257600080fd5b8063ac3732b411610108578063ac3732b4146106cb578063b53c5125146106eb578063b6b55f251461072d578063c66fa8e614610740578063c9ca7b181461075b578063ca5b721e1461077b57600080fd5b806394887af7146105dc578063996fbf94146106235780639dce9e19146106435780639f044f3114610673578063a616c66c1461069657600080fd5b80634b4aa735116101dd5780637b9e618d116101a15780637b9e618d146104e45780637c88490a1461051857806387cad0bf146105385780638da5cb5b146105875780639317b193146105a557806393420cf4146105c557600080fd5b80634b4aa7351461044c5780636e838bad1461046c578063715018a61461048c57806373f62501146104a15780637a27d9f6146104c157600080fd5b80632f60a1511161022f5780632f60a1511461033c5780632fd99bf41461037157806333ff1577146103c55780633a921051146103e55780633d46396a146104055780633fd1e2bd1461042557600080fd5b80630674fa411461026c5780630729e07a1461029f5780632d67669c146102c15780632e1a7d4d146102e15780632e78434314610301575b600080fd5b34801561027857600080fd5b5061028c6102873660046155a9565b61095d565b6040519081526020015b60405180910390f35b3480156102ab57600080fd5b506102bf6102ba3660046155c6565b6109f0565b005b3480156102cd57600080fd5b5061028c6102dc3660046155f0565b610cdc565b3480156102ed57600080fd5b506102bf6102fc36600461560c565b610dcf565b34801561030d57600080fd5b5061032161031c366004615625565b610ec0565b60408051825181526020928301519281019290925201610296565b34801561034857600080fd5b5060075461035d90610100900462ffffff1681565b60405162ffffff9091168152602001610296565b34801561037d57600080fd5b506103b861038c36600461567f565b60066020908152600093845260408085208252928452828420905282529020546001600160a01b031681565b60405161029691906156ca565b3480156103d157600080fd5b5061028c6103e0366004615625565b610f0f565b3480156103f157600080fd5b5061028c6104003660046155a9565b610fa7565b34801561041157600080fd5b506102bf61042036600461560c565b611035565b34801561043157600080fd5b5061043a601281565b60405160ff9091168152602001610296565b34801561045857600080fd5b5061028c6104673660046155a9565b6110ce565b34801561047857600080fd5b506102bf6104873660046156ef565b61111f565b34801561049857600080fd5b506102bf611256565b3480156104ad57600080fd5b506102bf6104bc36600461571b565b61126a565b3480156104cd57600080fd5b5060075461035d90600160381b900462ffffff1681565b3480156104f057600080fd5b506103b87f000000000000000000000000000000000000000000000000000000000000000081565b34801561052457600080fd5b5061028c610533366004615625565b6112dc565b34801561054457600080fd5b506105786105533660046155a9565b6002602090815260009182526040918290208251918201909252600390910154815281565b60405190518152602001610296565b34801561059357600080fd5b506001546001600160a01b03166103b8565b3480156105b157600080fd5b506102bf6105c0366004615738565b61132c565b3480156105d157600080fd5b5060055461028c9081565b3480156105e857600080fd5b506008546106059062ffffff8116906301000000900461ffff1682565b6040805162ffffff909316835261ffff909116602083015201610296565b34801561062f57600080fd5b5061028c61063e366004615625565b6114da565b34801561064f57600080fd5b5061066361065e3660046155a9565b61152a565b6040519015158152602001610296565b34801561067f57600080fd5b5060075461035d90600160201b900462ffffff1681565b3480156106a257600080fd5b506106b66106b1366004615778565b6115cd565b60408051928352602083019190915201610296565b3480156106d757600080fd5b506102bf6106e6366004615794565b6118eb565b3480156106f757600080fd5b5061070b610706366004615625565b611a49565b6040805182518152602080840151908201529181015190820152606001610296565b6102bf61073b36600461560c565b611abd565b34801561074c57600080fd5b506003546004546106b6919082565b34801561076757600080fd5b506102bf6107763660046156ef565b611cd4565b34801561078757600080fd5b5061028c610796366004615625565b611dfb565b3480156107a757600080fd5b5061028c6107b63660046157b8565b611e4b565b3480156107c757600080fd5b506107db6107d63660046155a9565b611f63565b60405161029691906157d4565b3480156107f457600080fd5b506102bf6108033660046156ef565b611fdc565b34801561081457600080fd5b506102bf610823366004615821565b6001600160a01b03909116600090815260026020526040902060030155565b34801561084e57600080fd5b5061086261085d366004615778565b6120aa565b60408051938452602084019290925290820152606001610296565b34801561088957600080fd5b5061028c6108983660046157b8565b61236f565b3480156108a957600080fd5b506106636108b83660046155a9565b60096020526000908152604090205460ff1681565b3480156108d957600080fd5b506108ed6108e83660046155f0565b6127f0565b60405164ffffffffff9091168152602001610296565b34801561090f57600080fd5b5061066361091e3660046155a9565b612aad565b34801561092f57600080fd5b506102bf61093e3660046155a9565b612b11565b34801561094f57600080fd5b5060075461043a9060ff1681565b6001600160a01b038116600090815260026020526040808220905163d73fd34160e01b8152600481019190915273__$d5b0dec45940a7a1291c9da6fe7c8bb2e1$__9063d73fd341906024016040805180830381865af41580156109c5573d6000803e3d6000fd5b505050506040513d601f19601f820116820180604052508101906109e9919061584d565b5092915050565b60026000541415610a1c5760405162461bcd60e51b8152600401610a1390615871565b60405180910390fd5b60026000556060810135610a2f81612b99565b610a3c60208301836155a9565b610a4581612bdb565b6000600681610a5760208701876155a9565b6001600160a01b03166001600160a01b031681526020019081526020016000206000856020016020810190610a8c91906158a8565b1515151581526020019081526020016000206000856040016020810190610ab391906158c5565b64ffffffffff1681526020810191909152604001600020546001600160a01b03169050610adf81612c43565b6001600160a01b0381166000908152600260209081526040808320815160c0810190925273__$20e084fd68fd7ab4ec93efaca84ca46fc4$__92637ae9aeb292908190610b2e908b018b6155a9565b6001600160a01b03168152602001610b4c60608b0160408c016158c5565b64ffffffffff168152602001896020016020810190610b6b91906158a8565b15158152600754600160201b900462ffffff166020820152604001336001600160a01b0390811688821614825260075460ff9081166020938401526040805160e088901b6001600160e01b03191681526004810196909652845190921660248601529183015164ffffffffff16604485015282015115156064840152606082015162ffffff1660848401526080820151151560a484015260a0909101511660c482015260e401602060405180830381865af4158015610c2e573d6000803e3d6000fd5b505050506040513d601f19601f82011682018060405250810190610c5291906158e2565b905080610c60576000610c62565b335b6001600160a01b0316610c7860208701876155a9565b6001600160a01b039081169084167f918858ab3117fd69ab99c9055596d1e99f6c88b95cc8226a8dbdc7d9bdc115cb610cb760608a0160408b016158c5565b60405164ffffffffff909116815260200160405180910390a450506001600055505050565b6000600981610cf160408501602086016155a9565b6001600160a01b0316815260208101919091526040016000205460ff16610d1a57506000919050565b6000610d2960208401846155a9565b90506000610d3d60608501604086016155a9565b9050610dc760026000846001600160a01b03166001600160a01b03168152602001908152602001600020856020016020810190610d7a91906155a9565b610d8a60808801606089016158a8565b610d9a60a0890160808a016158a8565b60075462ffffff600160201b8204811691600160381b9004166001600160a01b0389811690891614612cd0565b949350505050565b60026000541415610df25760405162461bcd60e51b8152600401610a1390615871565b600260005533610e0181612c43565b6001600160a01b0381811660008181526002602090815260409182902082516080810184527f0000000000000000000000000000000000000000000000000000000000000000909516855290840186905290830191909152600754610100900462ffffff166060830152610e7491612e4f565b806001600160a01b03167f7084f5476618d8e60b11ef0d7d3f06914655adb8793e28ff7f018d4c76d505d583604051610eaf91815260200190565b60405180910390a250506001600055565b604080518082018252600080825260209182018190526001600160a01b038581168252600283528382209085168252825282902082518084019093528054835260010154908201525b92915050565b6001600160a01b0382166000908152600260205260408082209051632de9906b60e11b815273__$d5b0dec45940a7a1291c9da6fe7c8bb2e1$__91635bd320d691610f5f919086906004016158ff565b602060405180830381865af4158015610f7c573d6000803e3d6000fd5b505050506040513d601f19601f82011682018060405250810190610fa09190615916565b9392505050565b6001600160a01b0381166000908152600260205260408082209051631caf045760e31b8152600481019190915273__$d5b0dec45940a7a1291c9da6fe7c8bb2e1$__9063e57822b8906024015b602060405180830381865af4158015611011573d6000803e3d6000fd5b505050506040513d601f19601f82011682018060405250810190610f099190615916565b61103d613089565b600260005414156110605760405162461bcd60e51b8152600401610a1390615871565b60026000553361106f81612c43565b6001600160a01b0381166000908152600260205260409020611093906005846130e3565b806001600160a01b03167f0880b0e717a57f3b5cbd3fc19396ae3c8cdee5c624c9289477869c38014c849583604051610eaf91815260200190565b6001600160a01b03811660009081526002602052604080822090516367dd27b160e01b8152600481019190915273__$d5b0dec45940a7a1291c9da6fe7c8bb2e1$__906367dd27b190602401610ff4565b611127613089565b6002600054141561114a5760405162461bcd60e51b8152600401610a1390615871565b6002600055620f424062ffffff82161061119a5760405162461bcd60e51b815260206004820152601160248201527050455f5349523a20746f6f206c6172676560781b6044820152606401610a13565b60075462ffffff600160201b909104811690821610156111fc5760405162461bcd60e51b815260206004820152601c60248201527f50455f5349523a20736d616c6c6572207468616e206d6d526174696f000000006044820152606401610a13565b6007805463ffffff00191661010062ffffff8416908102919091179091556040519081527f04f9c1a24c6543f4b91577d82af28fb7ef6d7b9fe46acd0e5c36ef17073b94e6906020015b60405180910390a1506001600055565b61125e613089565b6112686000613112565b565b611272613089565b600260005414156112955760405162461bcd60e51b8152600401610a1390615871565b60026000556007805460ff191660ff83169081179091556040519081527fa7b4760b38e2a630f3073fcd5119972cbf81bd50e3761f86534a69661caf811090602001611246565b6001600160a01b038216600090815260026020526040808220905163af77d70760e01b815273__$d5b0dec45940a7a1291c9da6fe7c8bb2e1$__9163af77d70791610f5f919086906004016158ff565b611334613089565b600260005414156113575760405162461bcd60e51b8152600401610a1390615871565b600260005561136e6001600160a01b038316612b8a565b6113ba5760405162461bcd60e51b815260206004820152601f60248201527f50455f53494d413a206d61726b6574206164647265737320696e76616c6964006044820152606401610a13565b801561148257306001600160a01b0316826001600160a01b031663d2f7265a6040518163ffffffff1660e01b8152600401602060405180830381865afa158015611408573d6000803e3d6000fd5b505050506040513d601f19601f8201168201806040525081019061142c919061592f565b6001600160a01b0316146114825760405162461bcd60e51b815260206004820152601b60248201527f50455f53494d413a20646966666572656e742065786368616e676500000000006044820152606401610a13565b6001600160a01b038216600081815260096020908152604091829020805460ff191685151590811790915591519182527fd5d4c2e150c76234e0f5d390162d34c5c1e1405df2194cfbd63b12d9521b10279101610eaf565b6001600160a01b0382166000908152600260205260408082209051630d832e2160e31b815273__$d5b0dec45940a7a1291c9da6fe7c8bb2e1$__91636c19710891610f5f919086906004016158ff565b6001600160a01b0381166000908152600260205260408082206007549151633c7e525f60e01b81526004810191909152600160201b90910462ffffff16602482015273__$d5b0dec45940a7a1291c9da6fe7c8bb2e1$__90633c7e525f906044015b602060405180830381865af41580156115a9573d6000803e3d6000fd5b505050506040513d601f19601f82011682018060405250810190610f0991906158e2565b600080600260005414156115f35760405162461bcd60e51b8152600401610a1390615871565b600260005560a083013561160681612b99565b61161660408501602086016155a9565b61161f81612bdb565b61163461162f60208701876155a9565b612c43565b600061170060028261164960208a018a6155a9565b6001600160a01b03166001600160a01b031681526020019081526020016000206040518060e0016040528089602001602081019061168791906155a9565b6001600160a01b0316815260408a81013560208301526060808c0135918301919091526080808c013591830191909152600754600160201b810462ffffff169183019190915260ff1660a082015260c001336001600160a01b03166116ef60208c018c6155a9565b6001600160a01b0316149052613164565b9050600061171460408801602089016155a9565b6001600160a01b0316639482de1a6040518163ffffffff1660e01b8152600401602060405180830381865afa158015611751573d6000803e3d6000fd5b505050506040513d601f19601f820116820180604052508101906117759190615916565b905060006117896040890160208a016155a9565b6001600160a01b0316638ee8fe5d6040518163ffffffff1660e01b8152600401602060405180830381865afa1580156117c6573d6000803e3d6000fd5b505050506040513d601f19601f820116820180604052508101906117ea9190615916565b90506117fc6040890160208a016155a9565b6001600160a01b031661181260208a018a6155a9565b6001600160a01b03167f2935383596639a6916071dea84c6ed5d6c6315fa9628268974458798fea93ebc8560a0015161184c57600061184e565b335b866000015187602001518d6040013589604001518a606001518b608001518b8b6040516118c8999897969594939291906001600160a01b03999099168952602089019790975260408801959095526060870193909352608086019190915260a085015260c084015260e08301526101008201526101200190565b60405180910390a350508051602090910151600160005590969095509350505050565b6118f3613089565b600260005414156119165760405162461bcd60e51b8152600401610a1390615871565b6002600055620f424061192c60208301836156ef565b62ffffff161061197e5760405162461bcd60e51b815260206004820152601f60248201527f50455f534c52433a20746f6f206c617267652072657761726420726174696f006044820152606401610a13565b6000611990604083016020840161595c565b61ffff16116119dd5760405162461bcd60e51b815260206004820152601960248201527850455f534c52433a20656d612074696d65206973207a65726f60381b6044820152606401610a13565b8060086119ea8282615979565b507f1185c4964ca5cd3d88d5dfbc1fb65b84d5533e3354f3b2163e8e1c0f35bca0e19050611a1b60208301836156ef565b611a2b604084016020850161595c565b6040805162ffffff909316835261ffff909116602083015201611246565b611a6d60405180606001604052806000815260200160008152602001600081525090565b506001600160a01b03808316600090815260026020818152604080842094861684526001948501825292839020835160608101855281548152948101549185019190915201549082015292915050565b60026000541415611ae05760405162461bcd60e51b8152600401610a1390615871565b600260005533611aef81612c43565b7f00000000000000000000000000000000000000000000000000000000000000006001600160a01b0316611bcd578115611b635760405162461bcd60e51b815260206004820152601560248201527450455f443a20616d6f756e74206e6f74207a65726f60581b6044820152606401610a13565b6001600160a01b0381166000908152600260205260409020611b85903461352d565b806001600160a01b03167f2da466a7b24304f47e87fa2e1e5a81b9831ce54fec19055ce277ca2f39ba42c434604051611bc091815260200190565b60405180910390a2611ccb565b3415611c165760405162461bcd60e51b815260206004820152601860248201527750455f443a206d73672e76616c7565206e6f74207a65726f60401b6044820152606401610a13565b611c9060026000836001600160a01b03166001600160a01b0316815260200190815260200160002060405180606001604052807f00000000000000000000000000000000000000000000000000000000000000006001600160a01b03168152602001858152602001846001600160a01b0316815250613595565b806001600160a01b03167f2da466a7b24304f47e87fa2e1e5a81b9831ce54fec19055ce277ca2f39ba42c483604051610eaf91815260200190565b50506001600055565b611cdc613089565b60026000541415611cff5760405162461bcd60e51b8152600401610a1390615871565b600260005560075462ffffff61010090910481169082161115611d645760405162461bcd60e51b815260206004820152601b60248201527f50455f534d523a20626967676572207468616e20696d526174696f00000000006044820152606401610a13565b60008162ffffff1611611da85760405162461bcd60e51b815260206004820152600c60248201526b50455f534d523a207a65726f60a01b6044820152606401610a13565b6007805466ffffff000000001916600160201b62ffffff8416908102919091179091556040519081527ffbd0bf17b9833a130f5baeccbfc586acefc75be8ad5bb114f448e412adc4c05b90602001611246565b6001600160a01b0382166000908152600260205260408082209051632691409160e01b815273__$d5b0dec45940a7a1291c9da6fe7c8bb2e1$__91632691409191610f5f919086906004016158ff565b6000611e5d60408301602084016155a9565b611e6681612bdb565b6000611e7560208501856155a9565b90506000611e8960608601604087016155a9565b9050611f5a60026000846001600160a01b03166001600160a01b03168152602001908152602001600020604051806101000160405280886020016020810190611ed291906155a9565b6001600160a01b03168152602001611ef060808a0160608b016158a8565b15158152602001611f0760a08a0160808b016158a8565b1515815260a0808a0135602083015260c08a0135604083015260075462ffffff600160201b820481166060850152600160381b9091041660808301526001600160a01b038781169087161491015261365b565b95945050505050565b6001600160a01b038116600090815260026020908152604091829020600401805483518184028101840190945280845260609392830182828015611fd057602002820191906000526020600020905b81546001600160a01b03168152600190910190602001808311611fb2575b50505050509050919050565b611fe4613089565b600260005414156120075760405162461bcd60e51b8152600401610a1390615871565b600260005561271062ffffff821611156120585760405162461bcd60e51b815260206004820152601260248201527150455f535046523a20746f6f206c6172676560701b6044820152606401610a13565b6007805462ffffff60381b1916600160381b62ffffff8416908102919091179091556040519081527f68c41b7a5c12c4d9cbb99ec284bf647922a75f379a90694e3ad65574f4ff944d90602001611246565b6000806000600260005414156120d25760405162461bcd60e51b8152600401610a1390615871565b600260005560a08401356120e581612b99565b6120f260208601866155a9565b6120fb81612bdb565b3361210581612c43565b6001600160a01b0381166000908152600260209081526040808320815160e0810190925261219192909190819061213e908d018d6155a9565b6001600160a01b0316815260208c810135908201526040808d0135908201526060808d0135908201526080808d01359082015260075462ffffff61010082041660a083015260ff1660c09091015261386c565b905060006121a260208a018a6155a9565b6001600160a01b0316639482de1a6040518163ffffffff1660e01b8152600401602060405180830381865afa1580156121df573d6000803e3d6000fd5b505050506040513d601f19601f820116820180604052508101906122039190615916565b9050600061221460208b018b6155a9565b6001600160a01b0316638ee8fe5d6040518163ffffffff1660e01b8152600401602060405180830381865afa158015612251573d6000803e3d6000fd5b505050506040513d601f19601f820116820180604052508101906122759190615916565b6001600160a01b0385166000908152600260209081526040822092935090916001019082906122a6908e018e6155a9565b6001600160a01b0316815260208082019290925260400160002091506122ce908c018c6155a9565b845160208087015160408089015160018701546002880154835196875294860193909352908401526060830152608082015260a0810185905260c081018490526001600160a01b03918216918716907f228674ca516ab8f32325e25d1e16656e747d977df7f664467fd5f7b4e64ba00f9060e00160405180910390a35050815160208301516040909301516001600055909a92995097509095505050505050565b6000600260005414156123945760405162461bcd60e51b8152600401610a1390615871565b600260005560c08201356123a781612b99565b6123b760408401602085016155a9565b6123c081612bdb565b6123d061162f60208601866155a9565b60006123db85613be1565b90508061010001516060015164ffffffffff1660001461253e57600060068161240a6040890160208a016155a9565b6001600160a01b03166001600160a01b03168152602001908152602001600020600087604001602081019061243f91906158a8565b15158152602080820192909252604090810160009081206101008601516060015164ffffffffff1682529092529020546001600160a01b0316905061248381612c43565b6001600160a01b03811660009081526002602090815260409182902061253b9290916124b3918a01908a016155a9565b6124c360608a0160408b016158a8565b6124de576124d985610100015160200151613d56565b6124f0565b6124f085610100015160200151613d6a565b61250060608b0160408c016158a8565b61251b5761251686610100015160400151613d6a565b61252d565b61252d86610100015160400151613d56565b60075460009060ff16613dd8565b50505b600061255060408701602088016155a9565b6001600160a01b0316639482de1a6040518163ffffffff1660e01b8152600401602060405180830381865afa15801561258d573d6000803e3d6000fd5b505050506040513d601f19601f820116820180604052508101906125b19190615916565b905060006125c560408801602089016155a9565b6001600160a01b0316638ee8fe5d6040518163ffffffff1660e01b8152600401602060405180830381865afa158015612602573d6000803e3d6000fd5b505050506040513d601f19601f820116820180604052508101906126269190615916565b90508260e001511561270457336126436040890160208a016155a9565b6001600160a01b031661265960208a018a6155a9565b6001600160a01b03167f7c3978559b662b8adf839d43cce2ec6ab7db3fdc995575e4576acc9e0628985d866000015187602001518860400151896060015189898c608001518d60a001518e60c001516040516126f799989796959493929190988952602089019790975260408801959095526060870193909352608086019190915260a085015260c084015260e08301526101008201526101200190565b60405180910390a461279a565b61271460408801602089016155a9565b6001600160a01b031661272a60208901896155a9565b84516020808701516040808901516060808b0151835196875294860193909352908401528201526080810185905260a081018490526001600160a01b0391909116907fe386a40c070a1424ae709b98c27e64993228f777c6294ef7149cf0ee42ef46e89060c00160405180910390a35b6127aa60608801604089016158a8565b15156127bc6080890160608a016158a8565b1515146127d35782516127ce90613ec9565b6127e0565b6127e08360200151613ec9565b6001600055979650505050505050565b6000600260005414156128155760405162461bcd60e51b8152600401610a1390615871565b6002600055608082013561282881612b99565b61283560208401846155a9565b61283e81612bdb565b3361284881612c43565b6001600160a01b038116600090815260026020908152604091829020825160c0810190935273__$20e084fd68fd7ab4ec93efaca84ca46fc4$__9263d34e48d4928190612897908b018b6155a9565b6001600160a01b0316815260200189604001358152602001896060013581526020018960200160208101906128cc91906158a8565b1515815260075462ffffff6101008204811660208085019190915260ff92831660409485015283516001600160e01b031960e089901b168152600481019690965284516001600160a01b031660248701528401516044860152918301516064850152606083015115156084850152608083015190911660a484015260a0909101511660c482015260e401602060405180830381865af4158015612973573d6000803e3d6000fd5b505050506040513d601f19601f8201168201806040525081019061299791906159c7565b935080600660006129ab60208901896155a9565b6001600160a01b03166001600160a01b0316815260200190815260200160002060008760200160208101906129e091906158a8565b151581526020808201929092526040908101600090812064ffffffffff8916825283522080546001600160a01b0319166001600160a01b039390931692909217909155612a2f908601866155a9565b6001600160a01b039081169082167f22c125447e6a06158aefb2637c0f7d1a544b0bb331e126582be4a4e70d3e6c88612a6e6040890160208a016158a8565b6040805191151582528981013560208301526060808b01358383015264ffffffffff8a1690830152519081900360800190a35050600160005550919050565b6001600160a01b0381166000908152600260205260408082206007549151634d3a1f3d60e11b8152600481019190915261010090910462ffffff16602482015273__$d5b0dec45940a7a1291c9da6fe7c8bb2e1$__90639a743e7a9060440161158c565b612b19613089565b6001600160a01b038116612b7e5760405162461bcd60e51b815260206004820152602660248201527f4f776e61626c653a206e6577206f776e657220697320746865207a65726f206160448201526564647265737360d01b6064820152608401610a13565b612b8781613112565b50565b6001600160a01b03163b151590565b80421115612b875760405162461bcd60e51b815260206004820152600f60248201526e50455f43443a20746f6f206c61746560881b6044820152606401610a13565b6001600160a01b03811660009081526009602052604090205460ff16612b875760405162461bcd60e51b815260206004820152601a60248201527f50455f434d413a206d61726b6574206e6f7420616c6c6f7765640000000000006044820152606401610a13565b6001600160a01b038116600090815260026020526040908190206007549151635c02a9e960e01b8152600481019190915260ff909116602482015273__$20e084fd68fd7ab4ec93efaca84ca46fc4$__90635c02a9e99060440160006040518083038186803b158015612cb557600080fd5b505af4158015612cc9573d6000803e3d6000fd5b5050505050565b604051633c7e525f60e01b81526004810188905262ffffff84166024820152600090819073__$d5b0dec45940a7a1291c9da6fe7c8bb2e1$__90633c7e525f90604401602060405180830381865af4158015612d30573d6000803e3d6000fd5b505050506040513d601f19601f82011682018060405250810190612d5491906158e2565b15905082158015612d63575080155b15612d72576000915050612e44565b808015612d9857506001600160a01b038816600090815260018a01602052604090205415155b15612da7576000915050612e44565b62ffffff8416612e325760405163e8fa204f60e01b81528715156004820152861515602482015281151560448201526001600160a01b0389169063e8fa204f90606401602060405180830381865afa158015612e07573d6000803e3d6000fd5b505050506040513d601f19601f82011682018060405250810190612e2b9190615916565b9150612e42565b612e3f8888888785613ef2565b91505b505b979650505050505050565b6000816020015111612e975760405162461bcd60e51b8152602060048201526011602482015270159317d5ce881e995c9bc8185b5bdd5b9d607a1b6044820152606401610a13565b80516000906001600160a01b031615612f2257612f1d826020015183600001516001600160a01b031663313ce5676040518163ffffffff1660e01b8152600401602060405180830381865afa158015612ef4573d6000803e3d6000fd5b505050506040513d601f19601f82011682018060405250810190612f1891906159e4565b613fbd565b612f28565b81602001515b9050612f41612f3682613d6a565b60038501549061406f565b60038401556060820151604051634d3a1f3d60e11b81526004810185905262ffffff909116602482015273__$d5b0dec45940a7a1291c9da6fe7c8bb2e1$__90639a743e7a90604401602060405180830381865af4158015612fa7573d6000803e3d6000fd5b505050506040513d601f19601f82011682018060405250810190612fcb91906158e2565b6130175760405162461bcd60e51b815260206004820152601f60248201527f564c5f573a206e6f7420656e6f75676820696e697469616c206d617267696e006044820152606401610a13565b81516001600160a01b031661306d5781604001516001600160a01b03166108fc83602001519081150290604051600060405180830381858888f19350505050158015613067573d6000803e3d6000fd5b50505050565b61308482600001518360400151846020015161407b565b505050565b6001546001600160a01b031633146112685760405162461bcd60e51b815260206004820181905260248201527f4f776e61626c653a2063616c6c6572206973206e6f7420746865206f776e65726044820152606401610a13565b6130fa6130ef82613d6a565b6003850154906140de565b6003840155815461310b90826140ea565b9091555050565b600180546001600160a01b038381166001600160a01b0319831681179093556040519116919082907f8be0079c531659141344cd1fd0a4f28419497f9722a3daafe3b4186f6b6457e090600090a35050565b61319f6040518060c0016040528060008152602001600081526020016000815260200160008152602001600081526020016000151581525090565b6080820151604051633c7e525f60e01b81526004810185905262ffffff909116602482015273__$d5b0dec45940a7a1291c9da6fe7c8bb2e1$__90633c7e525f90604401602060405180830381865af4158015613200573d6000803e3d6000fd5b505050506040513d601f19601f8201168201806040525081019061322491906158e2565b1560a082015260c0820151613277578060a001516132775760405162461bcd60e51b815260206004820152601060248201526f4d4c5f524c3a20656e6f756768206d6d60801b6044820152606401610a13565b81516001600160a01b039081166000908152600185810160209081526040808420875192880151938101546002820154925163933c797960e01b81526004810195909552602485015260448401919091529293169063933c7979906064016040805180830381865afa1580156132f1573d6000803e3d6000fd5b505050506040513d601f19601f82011682018060405250810190613315919061584d565b84604001856060018281525082815250505083600001516001600160a01b0316638ee8fe5d6040518163ffffffff1660e01b8152600401602060405180830381865afa158015613369573d6000803e3d6000fd5b505050506040513d601f19601f8201168201806040525081019061338d9190615916565b84516020860151604051639c8f9f2360e01b815260048101919091529193506001600160a01b03169150639c8f9f239060240160408051808303816000875af11580156133de573d6000803e3d6000fd5b505050506040513d601f19601f82011682018060405250810190613402919061584d565b60208401528083526040840151111561342d5760405162461bcd60e51b8152600401610a1390615a01565b8260600151826020015110156134555760405162461bcd60e51b8152600401610a1390615a01565b6134706134658360000151613d6a565b6040840151906140de565b604083015260208201516134929061348790613d6a565b6060840151906140de565b606083015282516001600160a01b0316600090815260018501602090815260409091209084015181546134c4916140ea565b905560006134e46134d483613d6a565b604085015190600160601b6140f6565b6134ed90615a4e565b905061351f85856000015185604001518461351586896060015161406f90919063ffffffff16565b8960a00151613dd8565b608084015250909392505050565b600081116135725760405162461bcd60e51b8152602060048201526012602482015271159317d1114e881e995c9bc8185b5bdd5b9d60721b6044820152606401610a13565b61358961357e82613d6a565b6003840154906140de565b60039092019190915550565b60008160200151116135dd5760405162461bcd60e51b8152602060048201526011602482015270159317d10e881e995c9bc8185b5bdd5b9d607a1b6044820152606401610a13565b6135f481600001518260400151836020015161419a565b6000613640826020015183600001516001600160a01b031663313ce5676040518163ffffffff1660e01b8152600401602060405180830381865afa158015612ef4573d6000803e3d6000fd5b905061364e6130ef82613d6a565b6003909301929092555050565b60a0810151604051633c7e525f60e01b81526004810184905262ffffff9091166024820152600090819073__$d5b0dec45940a7a1291c9da6fe7c8bb2e1$__90633c7e525f90604401602060405180830381865af41580156136c1573d6000803e3d6000fd5b505050506040513d601f19601f820116820180604052508101906136e591906158e2565b1590508260e0015161373257806137325760405162461bcd60e51b8152602060048201526011602482015270544c5f4f50443a20656e6f756768206d6d60781b6044820152606401610a13565b801561379d5782516001600160a01b031660009081526001850160205260409020541561379d5760405162461bcd60e51b8152602060048201526019602482015278544c5f4f50443a206e6f206d616b6572207768656e206c697160381b6044820152606401610a13565b60c083015162ffffff1661383357825160208401516040808601516060870151915162de853760e31b81526001600160a01b03909416936306f429b8936137eb939092918790600401615a6b565b602060405180830381865afa158015613808573d6000803e3d6000fd5b505050506040513d601f19601f8201168201806040525081019061382c9190615916565b9150613859565b61385583600001518460200151856040015186606001518760c00151866142dd565b5091505b6109e983604001518385608001516144e5565b61389060405180606001604052806000815260200160008152602001600081525090565b81516001600160a01b039081166000908152600185016020526040808220855182516379144ba960e11b815283519295859492169263f2289752926004808401939192918290030181865afa1580156138ed573d6000803e3d6000fd5b505050506040513d601f19601f82011682018060405250810190613911919061584d565b865160208801516040808a01519051634e6a20ed60e11b8152600481019290925260248201529294509092506001600160a01b031690639cd441da906044016060604051808303816000875af115801561396f573d6000803e3d6000fd5b505050506040513d601f19601f820116820180604052508101906139939190615a8a565b60408701526020860152808552606086015111156139f35760405162461bcd60e51b815260206004820152601c60248201527f4d4c5f414c3a20746f6f20736d616c6c206f75747075742062617365000000006044820152606401610a13565b846080015184602001511015613a4b5760405162461bcd60e51b815260206004820152601d60248201527f4d4c5f414c3a20746f6f20736d616c6c206f75747075742071756f74650000006044820152606401610a13565b82546040850151613a5d90829061458b565b8455604085015185516001860154613a79928492909187614597565b8460010181905550613a9a8186604001518760200151876002015486614597565b6002850155855160c087015160405163724055e760e01b815273__$d5b0dec45940a7a1291c9da6fe7c8bb2e1$__9263724055e792613adf928c929190600401615ab8565b60006040518083038186803b158015613af757600080fd5b505af4158015613b0b573d6000803e3d6000fd5b5050505060a0860151604051634d3a1f3d60e11b81526004810189905262ffffff909116602482015273__$d5b0dec45940a7a1291c9da6fe7c8bb2e1$__90639a743e7a90604401602060405180830381865af4158015613b70573d6000803e3d6000fd5b505050506040513d601f19601f82011682018060405250810190613b9491906158e2565b613bd75760405162461bcd60e51b81526020600482015260146024820152734d4c5f414c3a206e6f7420656e6f75676820696d60601b6044820152606401610a13565b5050505092915050565b613be9615512565b610f0960026000613bfd60208601866155a9565b6001600160a01b03166001600160a01b0316815260200190815260200160002060026000613c283390565b6001600160a01b03166001600160a01b0316815260200190815260200160002060030160036005604051806101600160405280886020016020810190613c6e91906155a9565b6001600160a01b03168152602001613c8c60608a0160408b016158a8565b15158152602001613ca360808a0160608b016158a8565b151581526080808a0135602083015260a0808b0135604084015260075462ffffff600160201b820481166060860152610100820481169385019390935260ff811691840191909152600160381b90041660c082015260e001613d023390565b6001600160a01b0316613d1860208b018b6155a9565b6001600160a01b03161481526040805180820190915260085462ffffff811682526301000000900461ffff16602080830191909152909101526145e0565b6000613d6182613d6a565b610f0990615a4e565b60006001600160ff1b03821115613dd45760405162461bcd60e51b815260206004820152602860248201527f53616665436173743a2076616c756520646f65736e27742066697420696e2061604482015267371034b73a191a9b60c11b6064820152608401610a13565b5090565b6001600160a01b0385166000908152602087815260408083208151808301909252805482526001015491810191909152613e1490868686614993565b6001600160a01b038816600090815260208a81526040909120835181559201516001909201919091556003880154909150613e4f90826140de565b600388015560405163724055e760e01b815273__$d5b0dec45940a7a1291c9da6fe7c8bb2e1$__9063724055e790613e8f908a908a908790600401615ab8565b60006040518083038186803b158015613ea757600080fd5b505af4158015613ebb573d6000803e3d6000fd5b505050509695505050505050565b600080821215613ee957613ee4613edf83614b9f565b614bfd565b610f09565b610f0982614bfd565b60405163e8fa204f60e01b81528415156004820152831515602482015281151560448201526000906001600160a01b0387169063e8fa204f90606401602060405180830381865afa158015613f4b573d6000803e3d6000fd5b505050506040513d601f19601f82011682018060405250810190613f6f9190615916565b90508315613fa0578415613f8257611f5a565b613f99613f92620f424085614c4f565b8290614cb5565b9050611f5a565b8415611f5a57613f99613fb6620f424085614c4f565b8290614cca565b600080613fd7613fcf8460ff16613d6a565b60129061406f565b90506000613fe482613ec9565b9050604d8111156140375760405162461bcd60e51b815260206004820152601f60248201527f564c5f5443413a20746f6f206c6172676520646563696d616c732064696666006044820152606401610a13565b600082121561405a5761405561404e82600a615bbe565b8690614cdf565b611f5a565b611f5a61406882600a615bbe565b8690614ceb565b6000610fa08284615bca565b6040516001600160a01b03831660248201526044810182905261308490849063a9059cbb60e01b906064015b60408051601f198184030181529190526020810180516001600160e01b03166001600160e01b031990931692909217909152614cf7565b6000610fa08284615c09565b6000610fa08284615c4a565b600080600085126141075784614110565b61411085614b9f565b90506000808512614121578461412a565b61412a85614b9f565b90506000808712801561413d5750600086135b8061415357506000871380156141535750600086125b61415e576000614161565b60015b90506000614170848488614dc9565b9050816141855761418081613d6a565b61418e565b61418e81613d56565b98975050505050505050565b6040516370a0823160e01b81526000906001600160a01b038516906370a08231906141c99030906004016156ca565b602060405180830381865afa1580156141e6573d6000803e3d6000fd5b505050506040513d601f19601f8201168201806040525081019061420a9190615916565b905061421884843085614e97565b8161429082866001600160a01b03166370a08231306040518263ffffffff1660e01b815260040161424991906156ca565b602060405180830381865afa158015614266573d6000803e3d6000fd5b505050506040513d601f19601f8201168201806040525081019061428a9190615916565b906140ea565b146130675760405162461bcd60e51b815260206004820152601c60248201527f564c5f5454493a20696e636f6e73697374656e742062616c616e6365000000006044820152606401610a13565b600080851561440557861561437d5760405162de853760e31b81526001600160a01b038916906306f429b89061431d908a908a908a908990600401615a6b565b602060405180830381865afa15801561433a573d6000803e3d6000fd5b505050506040513d601f19601f8201168201806040525081019061435e9190615916565b915061436a8285614cca565b905061437682826140ea565b91506144da565b6143878585614cca565b90506001600160a01b0388166306f429b888886143a489866140ea565b876040518563ffffffff1660e01b81526004016143c49493929190615a6b565b602060405180830381865afa1580156143e1573d6000803e3d6000fd5b505050506040513d601f19601f820116820180604052508101906143769190615916565b8615614443576144268561428a61441f620f424088614c4f565b8890614cb5565b90506001600160a01b0388166306f429b888886143a4898661458b565b60405162de853760e31b81526000906001600160a01b038a16906306f429b890614477908b908b908b908a90600401615a6b565b602060405180830381865afa158015614494573d6000803e3d6000fd5b505050506040513d601f19601f820116820180604052508101906144b89190615916565b90506144ca613f92620f424087614c4f565b92506144d683826140ea565b9150505b965096945050505050565b821561453b57808210156130845760405162461bcd60e51b815260206004820181905260248201527f544c5f56533a20746f6f20736d616c6c206f70706f7369746520616d6f756e746044820152606401610a13565b808211156130845760405162461bcd60e51b815260206004820181905260248201527f544c5f56533a20746f6f206c61726765206f70706f7369746520616d6f756e746044820152606401610a13565b6000610fa08284615c61565b6000806145a4878761458b565b90506145bf6145b886600160601b89614dc9565b849061458b565b9250612e446145cf848884614dc9565b6145da868a85614dc9565b9061458b565b6145e8615512565b60a0820151604051633c7e525f60e01b81526004810188905262ffffff909116602482015273__$d5b0dec45940a7a1291c9da6fe7c8bb2e1$__90633c7e525f90604401602060405180830381865af4158015614649573d6000803e3d6000fd5b505050506040513d601f19601f8201168201806040525081019061466d91906158e2565b1560e08201526101208201516146c1578060e001516146c15760405162461bcd60e51b815260206004820152601060248201526f544c5f4f503a20656e6f756768206d6d60801b6044820152606401610a13565b8060e00151156147345781516001600160a01b03166000908152600187016020526040902054156147345760405162461bcd60e51b815260206004820181905260248201527f544c5f4f503a206e6f206d616b6572207768656e206c69717569646174696f6e6044820152606401610a13565b600086600001600084600001516001600160a01b03166001600160a01b031681526020019081526020016000206000015490506147e3878560405180610100016040528087600001516001600160a01b0316815260200187602001511515815260200187604001511515815260200187606001518152602001876080015181526020018760e0015160ff16815260200187610100015162ffffff1681526020018660e001511515815250614ecf565b61010087015260608601526040850152602084015280835260009081906148099061500a565b845161481f9061481a9086906140de565b61500a565b6148299190615c79565b1390508260e00151156148ba5780156148845760405162461bcd60e51b815260206004820152601f60248201527f544c5f4f503a206e6f206f70656e207768656e206c69717569646174696f6e006044820152606401610a13565b6148aa8860030188888760a001518861014001516148a58960200151613ec9565b615032565b60c086015260a085015260808401525b80156149885760c0840151604051634d3a1f3d60e11b8152600481018a905262ffffff909116602482015273__$d5b0dec45940a7a1291c9da6fe7c8bb2e1$__90639a743e7a90604401602060405180830381865af4158015614921573d6000803e3d6000fd5b505050506040513d601f19601f8201168201806040525081019061494591906158e2565b6149885760405162461bcd60e51b8152602060048201526014602482015273544c5f4f503a206e6f7420656e6f75676820696d60601b6044820152606401610a13565b505095945050505050565b60408051808201909152600080825260208201526000841515806149b657508315155b15614ac9576149c48461500a565b6149cd8661500a565b6149d79190615c79565b60001914614a205760405162461bcd60e51b8152602060048201526016602482015275151317d05515108e881a5b9d985b1a59081a5b9c1d5d60521b6044820152606401610a13565b614a298561500a565b8651614a349061500a565b614a3e9190615c79565b6000191415614ac9576000614a5286613ec9565b90506000614a638860000151613ec9565b9050808211614a9a576000614a86614a7a84613d6a565b60208b015190846140f6565b9050614a9287826140de565b935050614ac6565b6000614ab0614aa883613d6a565b8890856140f6565b60208a0151909150614ac290826140de565b9350505b50505b614ad381846140de565b8651909150600090614ae590876140de565b90506000614b1483614b0e87614b088a8d602001516140de90919063ffffffff16565b906140de565b9061406f565b905081158015614b22575080155b80614b495750614b318161500a565b614b3a8361500a565b614b449190615c79565b600019145b614b8c5760405162461bcd60e51b81526020600482015260146024820152732a262fa0aa2a211d103732bb32b91037b1b1bab960611b6044820152606401610a13565b9083526020830152909590945092505050565b6000600160ff1b8213614bf45760405162461bcd60e51b815260206004820152601c60248201527f506572704d6174683a20696e76657273696f6e206f766572666c6f77000000006044820152606401610a13565b610f0982615a4e565b600080821215613dd45760405162461bcd60e51b815260206004820181905260248201527f53616665436173743a2076616c7565206d75737420626520706f7369746976656044820152606401610a13565b60008262ffffff168262ffffff161115614cab5760405162461bcd60e51b815260206004820152601e60248201527f506572704d6174683a207375627472616374696f6e206f766572666c6f7700006044820152606401610a13565b610fa08284615cfe565b6000610fa083620f42408462ffffff16614dc9565b6000610fa0838362ffffff16620f4240614dc9565b6000610fa08284615d38565b6000610fa08284615d5a565b6000614d4c826040518060400160405280602081526020017f5361666545524332303a206c6f772d6c6576656c2063616c6c206661696c6564815250856001600160a01b03166150cf9092919063ffffffff16565b8051909150156130845780806020019051810190614d6a91906158e2565b6130845760405162461bcd60e51b815260206004820152602a60248201527f5361666545524332303a204552433230206f7065726174696f6e20646964206e6044820152691bdd081cdd58d8d9595960b21b6064820152608401610a13565b600080806000198587098587029250828110838203039150508060001415614e0457838281614dfa57614dfa615d22565b0492505050610fa0565b838110614e2e57604051631dcf306360e21b81526004810182905260248101859052604401610a13565b60008486880960026001871981018816978890046003810283188082028403028082028403028082028403028082028403028082028403029081029092039091026000889003889004909101858311909403939093029303949094049190911702949350505050565b6040516001600160a01b03808516602483015283166044820152606481018290526130679085906323b872dd60e01b906084016140a7565b600080600080614edd615565565b60c086015160009062ffffff1615614f2257614f1688886000015189602001518a604001518b606001518c60c001518d60e001516150de565b90945092509050614fb2565b865160208801516040808a015160608b015160e08c015192516380796d5560e01b81526001600160a01b03909516946380796d5594614f679490939291600401615a6b565b6080604051808303816000875af1158015614f86573d6000803e3d6000fd5b505050506040513d601f19601f82011682018060405250810190614faa9190615d79565b805190925090505b614fc587604001518289608001516144e5565b614fdd87602001518860400151896060015184615317565b8096508197505050614ffc898860000151888860008c60a00151613dd8565b935050939792965093509350565b600080821361502a5760008212615022576000610f09565b600019610f09565b600192915050565b600080806150408487614cca565b8551909350615050908490614cca565b915061505c83836140ea565b9050615075876001015483876020015161ffff16615386565b6001890191909155915061509361508b84613d6a565b8a549061406f565b89556150a96150a183613d6a565b8954906140de565b88556150bf6150b782613d6a565b8854906140de565b9096559097909650939450505050565b6060610dc784846000856153ba565b6000806150e9615565565b861561522257871561518d576040516380796d5560e01b81526001600160a01b038a16906380796d5590615127908b908b908b908a90600401615a6b565b6080604051808303816000875af1158015615146573d6000803e3d6000fd5b505050506040513d601f19601f8201168201806040525081019061516a9190615d79565b80519350905061517a8386614cca565b915061518683836140ea565b92506152fa565b6151978686614cca565b91506001600160a01b0389166380796d5589896151b48a876140ea565b886040518563ffffffff1660e01b81526004016151d49493929190615a6b565b6080604051808303816000875af11580156151f3573d6000803e3d6000fd5b505050506040513d601f19601f820116820180604052508101906152179190615d79565b8051935090506152fa565b8715615260576152438661428a61523c620f424089614c4f565b8990614cb5565b91506001600160a01b0389166380796d5589896151b48a8761458b565b6040516380796d5560e01b81526001600160a01b038a16906380796d5590615292908b908b908b908a90600401615a6b565b6080604051808303816000875af11580156152b1573d6000803e3d6000fd5b505050506040513d601f19601f820116820180604052508101906152d59190615d79565b80519091506152ea613f92620f424088614c4f565b93506152f684826140ea565b9250505b8954615306908361458b565b909955909890979650945050505050565b60008084156153535785156153415761532f84613d56565b61533884613d6a565b9150915061537d565b61534a83613d6a565b61533885613d56565b851561536b5761536283613d56565b61533885613d6a565b61537484613d6a565b61533884613d56565b94509492505050565b600080615393858561458b565b94506153a48562ffffff8516614cdf565b90506153b085826140ea565b9150935093915050565b60608247101561541b5760405162461bcd60e51b815260206004820152602660248201527f416464726573733a20696e73756666696369656e742062616c616e636520666f6044820152651c8818d85b1b60d21b6064820152608401610a13565b61542485612b8a565b6154705760405162461bcd60e51b815260206004820152601d60248201527f416464726573733a2063616c6c20746f206e6f6e2d636f6e74726163740000006044820152606401610a13565b600080866001600160a01b0316858760405161548c9190615e1f565b60006040518083038185875af1925050503d80600081146154c9576040519150601f19603f3d011682016040523d82523d6000602084013e6154ce565b606091505b5091509150612e44828286606083156154e8575081610fa0565b8251156154f85782518084602001fd5b8160405162461bcd60e51b8152600401610a139190615e3b565b60405180610120016040528060008152602001600081526020016000815260200160008152602001600081526020016000815260200160008152602001600015158152602001615560615565565b905290565b6040518060800160405280600081526020016000815260200160008152602001600064ffffffffff1681525090565b6001600160a01b0381168114612b8757600080fd5b6000602082840312156155bb57600080fd5b8135610fa081615594565b6000608082840312156155d857600080fd5b50919050565b600060a082840312156155d857600080fd5b600060a0828403121561560257600080fd5b610fa083836155de565b60006020828403121561561e57600080fd5b5035919050565b6000806040838503121561563857600080fd5b823561564381615594565b9150602083013561565381615594565b809150509250929050565b8015158114612b8757600080fd5b64ffffffffff81168114612b8757600080fd5b60008060006060848603121561569457600080fd5b833561569f81615594565b925060208401356156af8161565e565b915060408401356156bf8161566c565b809150509250925092565b6001600160a01b0391909116815260200190565b62ffffff81168114612b8757600080fd5b60006020828403121561570157600080fd5b8135610fa0816156de565b60ff81168114612b8757600080fd5b60006020828403121561572d57600080fd5b8135610fa08161570c565b6000806040838503121561574b57600080fd5b823561575681615594565b915060208301356156538161565e565b600060c082840312156155d857600080fd5b600060c0828403121561578a57600080fd5b610fa08383615766565b6000604082840312156155d857600080fd5b600060e082840312156155d857600080fd5b600060e082840312156157ca57600080fd5b610fa083836157a6565b6020808252825182820181905260009190848201906040850190845b818110156158155783516001600160a01b0316835292840192918401916001016157f0565b50909695505050505050565b6000806040838503121561583457600080fd5b823561583f81615594565b946020939093013593505050565b6000806040838503121561586057600080fd5b505080516020909101519092909150565b6020808252601f908201527f5265656e7472616e637947756172643a207265656e7472616e742063616c6c00604082015260600190565b6000602082840312156158ba57600080fd5b8135610fa08161565e565b6000602082840312156158d757600080fd5b8135610fa08161566c565b6000602082840312156158f457600080fd5b8151610fa08161565e565b9182526001600160a01b0316602082015260400190565b60006020828403121561592857600080fd5b5051919050565b60006020828403121561594157600080fd5b8151610fa081615594565b61ffff81168114612b8757600080fd5b60006020828403121561596e57600080fd5b8135610fa08161594c565b8135615984816156de565b62ffffff8116905081548162ffffff19821617835560208401356159a78161594c565b64ffff0000008160181b168364ffffffffff198416171784555050505050565b6000602082840312156159d957600080fd5b8151610fa08161566c565b6000602082840312156159f657600080fd5b8151610fa08161570c565b6020808252601c908201527f4d4c5f524c3a20746f6f20736d616c6c206f7574707574206261736500000000604082015260600190565b634e487b7160e01b600052601160045260246000fd5b6000600160ff1b821415615a6457615a64615a38565b5060000390565b9315158452911515602084015260408301521515606082015260800190565b600080600060608486031215615a9f57600080fd5b8351925060208401519150604084015190509250925092565b9283526001600160a01b0391909116602083015260ff16604082015260600190565b600181815b80851115615b15578160001904821115615afb57615afb615a38565b80851615615b0857918102915b93841c9390800290615adf565b509250929050565b600082615b2c57506001610f09565b81615b3957506000610f09565b8160018114615b4f5760028114615b5957615b75565b6001915050610f09565b60ff841115615b6a57615b6a615a38565b50506001821b610f09565b5060208310610133831016604e8410600b8410161715615b98575081810a610f09565b615ba28383615ada565b8060001904821115615bb657615bb6615a38565b029392505050565b6000610fa08383615b1d565b60008083128015600160ff1b850184121615615be857615be8615a38565b6001600160ff1b0384018313811615615c0357615c03615a38565b50500390565b600080821280156001600160ff1b0384900385131615615c2b57615c2b615a38565b600160ff1b8390038412811615615c4457615c44615a38565b50500190565b600082821015615c5c57615c5c615a38565b500390565b60008219821115615c7457615c74615a38565b500190565b60006001600160ff1b0381841382841380821686840486111615615c9f57615c9f615a38565b600160ff1b6000871282811687830589121615615cbe57615cbe615a38565b60008712925087820587128484161615615cda57615cda615a38565b87850587128184161615615cf057615cf0615a38565b505050929093029392505050565b600062ffffff83811690831681811015615d1a57615d1a615a38565b039392505050565b634e487b7160e01b600052601260045260246000fd5b600082615d5557634e487b7160e01b600052601260045260246000fd5b500490565b6000816000190483118215151615615d7457615d74615a38565b500290565b600060808284031215615d8b57600080fd5b6040516080810181811067ffffffffffffffff82111715615dbc57634e487b7160e01b600052604160045260246000fd5b80604052508251815260208301516020820152604083015160408201526060830151615de78161566c565b60608201529392505050565b60005b83811015615e0e578181015183820152602001615df6565b838111156130675750506000910152565b60008251615e31818460208701615df3565b9190910192915050565b6020815260008251806020840152615e5a816040850160208701615df3565b601f01601f1916919091016040019291505056fea26469706673582212204dea7f4a97cd8b10eaf9740abe2f35d5664dbcf2b48fa57a953410ffbe104d2264736f6c634300080c0033",
  "libraries": {
    "AccountLibrary": "0xF84762AA944658ea511bf9b1BD067c2c50fFa4aE",
    "MakerOrderBookLibrary": "0xFA8B7afC23A3Afd7f2800aC0c13310f7E1ebDC8D"
  },
  "devdoc": {
    "kind": "dev",
    "methods": {
      "owner()": {
        "details": "Returns the address of the current owner."
      },
      "renounceOwnership()": {
        "details": "Leaves the contract without owner. It will not be possible to call `onlyOwner` functions anymore. Can only be called by the current owner. NOTE: Renouncing ownership will leave the contract without an owner, thereby removing any functionality that is only available to the owner."
      },
      "transferOwnership(address)": {
        "details": "Transfers ownership of the contract to a new account (`newOwner`). Can only be called by the current owner."
      }
    },
    "version": 1
  },
  "userdoc": {
    "errors": {
      "PRBMath__MulDivOverflow(uint256,uint256)": [
        {
          "notice": "Emitted when the result overflows uint256."
        }
      ]
    },
    "kind": "user",
    "methods": {},
    "version": 1
  },
  "storageLayout": {
    "storage": [
      {
        "astId": 925,
        "contract": "contracts/test/DebugPerpdexExchange.sol:DebugPerpdexExchange",
        "label": "_status",
        "offset": 0,
        "slot": "0",
        "type": "t_uint256"
      },
      {
        "astId": 550,
        "contract": "contracts/test/DebugPerpdexExchange.sol:DebugPerpdexExchange",
        "label": "_owner",
        "offset": 0,
        "slot": "1",
        "type": "t_address"
      },
      {
        "astId": 6149,
        "contract": "contracts/test/DebugPerpdexExchange.sol:DebugPerpdexExchange",
        "label": "accountInfos",
        "offset": 0,
        "slot": "2",
        "type": "t_mapping(t_address,t_struct(AccountInfo)14774_storage)"
      },
      {
        "astId": 6153,
        "contract": "contracts/test/DebugPerpdexExchange.sol:DebugPerpdexExchange",
        "label": "insuranceFundInfo",
        "offset": 0,
        "slot": "3",
        "type": "t_struct(InsuranceFundInfo)14779_storage"
      },
      {
        "astId": 6157,
        "contract": "contracts/test/DebugPerpdexExchange.sol:DebugPerpdexExchange",
        "label": "protocolInfo",
        "offset": 0,
        "slot": "5",
        "type": "t_struct(ProtocolInfo)14782_storage"
      },
      {
        "astId": 6165,
        "contract": "contracts/test/DebugPerpdexExchange.sol:DebugPerpdexExchange",
        "label": "orderIdToTrader",
        "offset": 0,
        "slot": "6",
        "type": "t_mapping(t_address,t_mapping(t_bool,t_mapping(t_uint40,t_address)))"
      },
      {
        "astId": 6176,
        "contract": "contracts/test/DebugPerpdexExchange.sol:DebugPerpdexExchange",
        "label": "maxMarketsPerAccount",
        "offset": 0,
        "slot": "7",
        "type": "t_uint8"
      },
      {
        "astId": 6180,
        "contract": "contracts/test/DebugPerpdexExchange.sol:DebugPerpdexExchange",
        "label": "imRatio",
        "offset": 1,
        "slot": "7",
        "type": "t_uint24"
      },
      {
        "astId": 6184,
        "contract": "contracts/test/DebugPerpdexExchange.sol:DebugPerpdexExchange",
        "label": "mmRatio",
        "offset": 4,
        "slot": "7",
        "type": "t_uint24"
      },
      {
        "astId": 6188,
        "contract": "contracts/test/DebugPerpdexExchange.sol:DebugPerpdexExchange",
        "label": "protocolFeeRatio",
        "offset": 7,
        "slot": "7",
        "type": "t_uint24"
      },
      {
        "astId": 6197,
        "contract": "contracts/test/DebugPerpdexExchange.sol:DebugPerpdexExchange",
        "label": "liquidationRewardConfig",
        "offset": 0,
        "slot": "8",
        "type": "t_struct(LiquidationRewardConfig)14787_storage"
      },
      {
        "astId": 6202,
        "contract": "contracts/test/DebugPerpdexExchange.sol:DebugPerpdexExchange",
        "label": "isMarketAllowed",
        "offset": 0,
        "slot": "9",
        "type": "t_mapping(t_address,t_bool)"
      }
    ],
    "types": {
      "t_address": {
        "encoding": "inplace",
        "label": "address",
        "numberOfBytes": "20"
      },
      "t_array(t_address)dyn_storage": {
        "base": "t_address",
        "encoding": "dynamic_array",
        "label": "address[]",
        "numberOfBytes": "32"
      },
      "t_bool": {
        "encoding": "inplace",
        "label": "bool",
        "numberOfBytes": "1"
      },
      "t_int256": {
        "encoding": "inplace",
        "label": "int256",
        "numberOfBytes": "32"
      },
      "t_mapping(t_address,t_bool)": {
        "encoding": "mapping",
        "key": "t_address",
        "label": "mapping(address => bool)",
        "numberOfBytes": "32",
        "value": "t_bool"
      },
      "t_mapping(t_address,t_mapping(t_bool,t_mapping(t_uint40,t_address)))": {
        "encoding": "mapping",
        "key": "t_address",
        "label": "mapping(address => mapping(bool => mapping(uint40 => address)))",
        "numberOfBytes": "32",
        "value": "t_mapping(t_bool,t_mapping(t_uint40,t_address))"
      },
      "t_mapping(t_address,t_struct(AccountInfo)14774_storage)": {
        "encoding": "mapping",
        "key": "t_address",
        "label": "mapping(address => struct PerpdexStructs.AccountInfo)",
        "numberOfBytes": "32",
        "value": "t_struct(AccountInfo)14774_storage"
      },
      "t_mapping(t_address,t_struct(LimitOrderInfo)14749_storage)": {
        "encoding": "mapping",
        "key": "t_address",
        "label": "mapping(address => struct PerpdexStructs.LimitOrderInfo)",
        "numberOfBytes": "32",
        "value": "t_struct(LimitOrderInfo)14749_storage"
      },
      "t_mapping(t_address,t_struct(MakerInfo)14742_storage)": {
        "encoding": "mapping",
        "key": "t_address",
        "label": "mapping(address => struct PerpdexStructs.MakerInfo)",
        "numberOfBytes": "32",
        "value": "t_struct(MakerInfo)14742_storage"
      },
      "t_mapping(t_address,t_struct(TakerInfo)14735_storage)": {
        "encoding": "mapping",
        "key": "t_address",
        "label": "mapping(address => struct PerpdexStructs.TakerInfo)",
        "numberOfBytes": "32",
        "value": "t_struct(TakerInfo)14735_storage"
      },
      "t_mapping(t_bool,t_mapping(t_uint40,t_address))": {
        "encoding": "mapping",
        "key": "t_bool",
        "label": "mapping(bool => mapping(uint40 => address))",
        "numberOfBytes": "32",
        "value": "t_mapping(t_uint40,t_address)"
      },
      "t_mapping(t_uint40,t_address)": {
        "encoding": "mapping",
        "key": "t_uint40",
        "label": "mapping(uint40 => address)",
        "numberOfBytes": "32",
        "value": "t_address"
      },
      "t_mapping(t_uint40,t_struct(Node)19263_storage)": {
        "encoding": "mapping",
        "key": "t_uint40",
        "label": "mapping(uint40 => struct BokkyPooBahsRedBlackTreeLibrary.Node)",
        "numberOfBytes": "32",
        "value": "t_struct(Node)19263_storage"
      },
      "t_struct(AccountInfo)14774_storage": {
        "encoding": "inplace",
        "label": "struct PerpdexStructs.AccountInfo",
        "members": [
          {
            "astId": 14757,
            "contract": "contracts/test/DebugPerpdexExchange.sol:DebugPerpdexExchange",
            "label": "takerInfos",
            "offset": 0,
            "slot": "0",
            "type": "t_mapping(t_address,t_struct(TakerInfo)14735_storage)"
          },
          {
            "astId": 14762,
            "contract": "contracts/test/DebugPerpdexExchange.sol:DebugPerpdexExchange",
            "label": "makerInfos",
            "offset": 0,
            "slot": "1",
            "type": "t_mapping(t_address,t_struct(MakerInfo)14742_storage)"
          },
          {
            "astId": 14767,
            "contract": "contracts/test/DebugPerpdexExchange.sol:DebugPerpdexExchange",
            "label": "limitOrderInfos",
            "offset": 0,
            "slot": "2",
            "type": "t_mapping(t_address,t_struct(LimitOrderInfo)14749_storage)"
          },
          {
            "astId": 14770,
            "contract": "contracts/test/DebugPerpdexExchange.sol:DebugPerpdexExchange",
            "label": "vaultInfo",
            "offset": 0,
            "slot": "3",
            "type": "t_struct(VaultInfo)14752_storage"
          },
          {
            "astId": 14773,
            "contract": "contracts/test/DebugPerpdexExchange.sol:DebugPerpdexExchange",
            "label": "markets",
            "offset": 0,
            "slot": "4",
            "type": "t_array(t_address)dyn_storage"
          }
        ],
        "numberOfBytes": "160"
      },
      "t_struct(InsuranceFundInfo)14779_storage": {
        "encoding": "inplace",
        "label": "struct PerpdexStructs.InsuranceFundInfo",
        "members": [
          {
            "astId": 14776,
            "contract": "contracts/test/DebugPerpdexExchange.sol:DebugPerpdexExchange",
            "label": "balance",
            "offset": 0,
            "slot": "0",
            "type": "t_int256"
          },
          {
            "astId": 14778,
            "contract": "contracts/test/DebugPerpdexExchange.sol:DebugPerpdexExchange",
            "label": "liquidationRewardBalance",
            "offset": 0,
            "slot": "1",
            "type": "t_uint256"
          }
        ],
        "numberOfBytes": "64"
      },
      "t_struct(LimitOrderInfo)14749_storage": {
        "encoding": "inplace",
        "label": "struct PerpdexStructs.LimitOrderInfo",
        "members": [
          {
            "astId": 14745,
            "contract": "contracts/test/DebugPerpdexExchange.sol:DebugPerpdexExchange",
            "label": "ask",
            "offset": 0,
            "slot": "0",
            "type": "t_struct(Tree)19271_storage"
          },
          {
            "astId": 14748,
            "contract": "contracts/test/DebugPerpdexExchange.sol:DebugPerpdexExchange",
            "label": "bid",
            "offset": 0,
            "slot": "2",
            "type": "t_struct(Tree)19271_storage"
          }
        ],
        "numberOfBytes": "128"
      },
      "t_struct(LiquidationRewardConfig)14787_storage": {
        "encoding": "inplace",
        "label": "struct PerpdexStructs.LiquidationRewardConfig",
        "members": [
          {
            "astId": 14784,
            "contract": "contracts/test/DebugPerpdexExchange.sol:DebugPerpdexExchange",
            "label": "rewardRatio",
            "offset": 0,
            "slot": "0",
            "type": "t_uint24"
          },
          {
            "astId": 14786,
            "contract": "contracts/test/DebugPerpdexExchange.sol:DebugPerpdexExchange",
            "label": "smoothEmaTime",
            "offset": 3,
            "slot": "0",
            "type": "t_uint16"
          }
        ],
        "numberOfBytes": "32"
      },
      "t_struct(MakerInfo)14742_storage": {
        "encoding": "inplace",
        "label": "struct PerpdexStructs.MakerInfo",
        "members": [
          {
            "astId": 14737,
            "contract": "contracts/test/DebugPerpdexExchange.sol:DebugPerpdexExchange",
            "label": "liquidity",
            "offset": 0,
            "slot": "0",
            "type": "t_uint256"
          },
          {
            "astId": 14739,
            "contract": "contracts/test/DebugPerpdexExchange.sol:DebugPerpdexExchange",
            "label": "cumBaseSharePerLiquidityX96",
            "offset": 0,
            "slot": "1",
            "type": "t_uint256"
          },
          {
            "astId": 14741,
            "contract": "contracts/test/DebugPerpdexExchange.sol:DebugPerpdexExchange",
            "label": "cumQuotePerLiquidityX96",
            "offset": 0,
            "slot": "2",
            "type": "t_uint256"
          }
        ],
        "numberOfBytes": "96"
      },
      "t_struct(Node)19263_storage": {
        "encoding": "inplace",
        "label": "struct BokkyPooBahsRedBlackTreeLibrary.Node",
        "members": [
          {
            "astId": 19254,
            "contract": "contracts/test/DebugPerpdexExchange.sol:DebugPerpdexExchange",
            "label": "parent",
            "offset": 0,
            "slot": "0",
            "type": "t_uint40"
          },
          {
            "astId": 19256,
            "contract": "contracts/test/DebugPerpdexExchange.sol:DebugPerpdexExchange",
            "label": "left",
            "offset": 5,
            "slot": "0",
            "type": "t_uint40"
          },
          {
            "astId": 19258,
            "contract": "contracts/test/DebugPerpdexExchange.sol:DebugPerpdexExchange",
            "label": "right",
            "offset": 10,
            "slot": "0",
            "type": "t_uint40"
          },
          {
            "astId": 19260,
            "contract": "contracts/test/DebugPerpdexExchange.sol:DebugPerpdexExchange",
            "label": "red",
            "offset": 15,
            "slot": "0",
            "type": "t_bool"
          },
          {
            "astId": 19262,
            "contract": "contracts/test/DebugPerpdexExchange.sol:DebugPerpdexExchange",
            "label": "userData",
            "offset": 16,
            "slot": "0",
            "type": "t_uint128"
          }
        ],
        "numberOfBytes": "32"
      },
      "t_struct(ProtocolInfo)14782_storage": {
        "encoding": "inplace",
        "label": "struct PerpdexStructs.ProtocolInfo",
        "members": [
          {
            "astId": 14781,
            "contract": "contracts/test/DebugPerpdexExchange.sol:DebugPerpdexExchange",
            "label": "protocolFee",
            "offset": 0,
            "slot": "0",
            "type": "t_uint256"
          }
        ],
        "numberOfBytes": "32"
      },
      "t_struct(TakerInfo)14735_storage": {
        "encoding": "inplace",
        "label": "struct PerpdexStructs.TakerInfo",
        "members": [
          {
            "astId": 14732,
            "contract": "contracts/test/DebugPerpdexExchange.sol:DebugPerpdexExchange",
            "label": "baseBalanceShare",
            "offset": 0,
            "slot": "0",
            "type": "t_int256"
          },
          {
            "astId": 14734,
            "contract": "contracts/test/DebugPerpdexExchange.sol:DebugPerpdexExchange",
            "label": "quoteBalance",
            "offset": 0,
            "slot": "1",
            "type": "t_int256"
          }
        ],
        "numberOfBytes": "64"
      },
      "t_struct(Tree)19271_storage": {
        "encoding": "inplace",
        "label": "struct BokkyPooBahsRedBlackTreeLibrary.Tree",
        "members": [
          {
            "astId": 19265,
            "contract": "contracts/test/DebugPerpdexExchange.sol:DebugPerpdexExchange",
            "label": "root",
            "offset": 0,
            "slot": "0",
            "type": "t_uint40"
          },
          {
            "astId": 19270,
            "contract": "contracts/test/DebugPerpdexExchange.sol:DebugPerpdexExchange",
            "label": "nodes",
            "offset": 0,
            "slot": "1",
            "type": "t_mapping(t_uint40,t_struct(Node)19263_storage)"
          }
        ],
        "numberOfBytes": "64"
      },
      "t_struct(VaultInfo)14752_storage": {
        "encoding": "inplace",
        "label": "struct PerpdexStructs.VaultInfo",
        "members": [
          {
            "astId": 14751,
            "contract": "contracts/test/DebugPerpdexExchange.sol:DebugPerpdexExchange",
            "label": "collateralBalance",
            "offset": 0,
            "slot": "0",
            "type": "t_int256"
          }
        ],
        "numberOfBytes": "32"
      },
      "t_uint128": {
        "encoding": "inplace",
        "label": "uint128",
        "numberOfBytes": "16"
      },
      "t_uint16": {
        "encoding": "inplace",
        "label": "uint16",
        "numberOfBytes": "2"
      },
      "t_uint24": {
        "encoding": "inplace",
        "label": "uint24",
        "numberOfBytes": "3"
      },
      "t_uint256": {
        "encoding": "inplace",
        "label": "uint256",
        "numberOfBytes": "32"
      },
      "t_uint40": {
        "encoding": "inplace",
        "label": "uint40",
        "numberOfBytes": "5"
      },
      "t_uint8": {
        "encoding": "inplace",
        "label": "uint8",
        "numberOfBytes": "1"
      }
    }
  }
}