{
  "address": "0xc8188FC150f81727B7c6F1ece3BBAc21F62832C8",
  "abi": [
    {
      "inputs": [
        {
          "internalType": "string",
          "name": "symbolArg",
          "type": "string"
        },
        {
          "internalType": "address",
          "name": "exchangeArg",
          "type": "address"
        },
        {
          "internalType": "address",
          "name": "priceFeedBaseArg",
          "type": "address"
        },
        {
          "internalType": "address",
          "name": "priceFeedQuoteArg",
          "type": "address"
        }
      ],
      "stateMutability": "nonpayable",
      "type": "constructor"
    },
    {
      "inputs": [
        {
          "internalType": "uint256",
          "name": "prod1",
          "type": "uint256"
        },
        {
          "internalType": "uint256",
          "name": "denominator",
          "type": "uint256"
        }
      ],
      "name": "PRBMath__MulDivOverflow",
      "type": "error"
    },
    {
      "anonymous": false,
      "inputs": [
        {
          "indexed": false,
          "internalType": "uint32",
          "name": "value",
          "type": "uint32"
        }
      ],
      "name": "FundingMaxElapsedSecChanged",
      "type": "event"
    },
    {
      "anonymous": false,
      "inputs": [
        {
          "indexed": false,
          "internalType": "uint24",
          "name": "value",
          "type": "uint24"
        }
      ],
      "name": "FundingMaxPremiumRatioChanged",
      "type": "event"
    },
    {
      "anonymous": false,
      "inputs": [
        {
          "indexed": false,
          "internalType": "int256",
          "name": "fundingRateX96",
          "type": "int256"
        },
        {
          "indexed": false,
          "internalType": "uint32",
          "name": "elapsedSec",
          "type": "uint32"
        },
        {
          "indexed": false,
          "internalType": "int256",
          "name": "premiumX96",
          "type": "int256"
        },
        {
          "indexed": false,
          "internalType": "uint256",
          "name": "markPriceX96",
          "type": "uint256"
        },
        {
          "indexed": false,
          "internalType": "uint256",
          "name": "cumBasePerLiquidityX96",
          "type": "uint256"
        },
        {
          "indexed": false,
          "internalType": "uint256",
          "name": "cumQuotePerLiquidityX96",
          "type": "uint256"
        }
      ],
      "name": "FundingPaid",
      "type": "event"
    },
    {
      "anonymous": false,
      "inputs": [
        {
          "indexed": false,
          "internalType": "uint32",
          "name": "value",
          "type": "uint32"
        }
      ],
      "name": "FundingRolloverSecChanged",
      "type": "event"
    },
    {
      "anonymous": false,
      "inputs": [
        {
          "indexed": false,
          "internalType": "bool",
          "name": "isBid",
          "type": "bool"
        },
        {
          "indexed": false,
          "internalType": "uint256",
          "name": "orderId",
          "type": "uint256"
        }
      ],
      "name": "LimitOrderCanceled",
      "type": "event"
    },
    {
      "anonymous": false,
      "inputs": [
        {
          "indexed": false,
          "internalType": "bool",
          "name": "isBid",
          "type": "bool"
        },
        {
          "indexed": false,
          "internalType": "uint256",
          "name": "base",
          "type": "uint256"
        },
        {
          "indexed": false,
          "internalType": "uint256",
          "name": "priceX96",
          "type": "uint256"
        },
        {
          "indexed": false,
          "internalType": "uint256",
          "name": "orderId",
          "type": "uint256"
        }
      ],
      "name": "LimitOrderCreated",
      "type": "event"
    },
    {
      "anonymous": false,
      "inputs": [
        {
          "indexed": false,
          "internalType": "uint256",
          "name": "base",
          "type": "uint256"
        },
        {
          "indexed": false,
          "internalType": "uint256",
          "name": "quote",
          "type": "uint256"
        },
        {
          "indexed": false,
          "internalType": "uint256",
          "name": "liquidity",
          "type": "uint256"
        }
      ],
      "name": "LiquidityAdded",
      "type": "event"
    },
    {
      "anonymous": false,
      "inputs": [
        {
          "indexed": false,
          "internalType": "uint256",
          "name": "base",
          "type": "uint256"
        },
        {
          "indexed": false,
          "internalType": "uint256",
          "name": "quote",
          "type": "uint256"
        },
        {
          "indexed": false,
          "internalType": "uint256",
          "name": "liquidity",
          "type": "uint256"
        }
      ],
      "name": "LiquidityRemoved",
      "type": "event"
    },
    {
      "anonymous": false,
      "inputs": [
        {
          "indexed": true,
          "internalType": "address",
          "name": "previousOwner",
          "type": "address"
        },
        {
          "indexed": true,
          "internalType": "address",
          "name": "newOwner",
          "type": "address"
        }
      ],
      "name": "OwnershipTransferred",
      "type": "event"
    },
    {
      "anonymous": false,
      "inputs": [
        {
          "indexed": false,
          "internalType": "uint24",
          "name": "value",
          "type": "uint24"
        }
      ],
      "name": "PoolFeeRatioChanged",
      "type": "event"
    },
    {
      "anonymous": false,
      "inputs": [
        {
          "indexed": false,
          "internalType": "uint24",
          "name": "normalOrderRatio",
          "type": "uint24"
        },
        {
          "indexed": false,
          "internalType": "uint24",
          "name": "liquidationRatio",
          "type": "uint24"
        },
        {
          "indexed": false,
          "internalType": "uint24",
          "name": "emaNormalOrderRatio",
          "type": "uint24"
        },
        {
          "indexed": false,
          "internalType": "uint24",
          "name": "emaLiquidationRatio",
          "type": "uint24"
        },
        {
          "indexed": false,
          "internalType": "uint32",
          "name": "emaSec",
          "type": "uint32"
        }
      ],
      "name": "PriceLimitConfigChanged",
      "type": "event"
    },
    {
      "anonymous": false,
      "inputs": [
        {
          "indexed": false,
          "internalType": "bool",
          "name": "isBaseToQuote",
          "type": "bool"
        },
        {
          "indexed": false,
          "internalType": "bool",
          "name": "isExactInput",
          "type": "bool"
        },
        {
          "indexed": false,
          "internalType": "uint256",
          "name": "amount",
          "type": "uint256"
        },
        {
          "indexed": false,
          "internalType": "uint256",
          "name": "oppositeAmount",
          "type": "uint256"
        }
      ],
      "name": "Swapped",
      "type": "event"
    },
    {
      "inputs": [
        {
          "internalType": "uint256",
          "name": "baseShare",
          "type": "uint256"
        },
        {
          "internalType": "uint256",
          "name": "quoteBalance",
          "type": "uint256"
        }
      ],
      "name": "addLiquidity",
      "outputs": [
        {
          "internalType": "uint256",
          "name": "base",
          "type": "uint256"
        },
        {
          "internalType": "uint256",
          "name": "quote",
          "type": "uint256"
        },
        {
          "internalType": "uint256",
          "name": "liquidity",
          "type": "uint256"
        }
      ],
      "stateMutability": "nonpayable",
      "type": "function"
    },
    {
      "inputs": [],
      "name": "baseBalancePerShareX96",
      "outputs": [
        {
          "internalType": "uint256",
          "name": "",
          "type": "uint256"
        }
      ],
      "stateMutability": "view",
      "type": "function"
    },
    {
      "inputs": [
        {
          "internalType": "bool",
          "name": "isBid",
          "type": "bool"
        },
        {
          "internalType": "uint40",
          "name": "orderId",
          "type": "uint40"
        }
      ],
      "name": "cancelLimitOrder",
      "outputs": [],
      "stateMutability": "nonpayable",
      "type": "function"
    },
    {
      "inputs": [
        {
          "internalType": "bool",
          "name": "isBid",
          "type": "bool"
        },
        {
          "internalType": "uint256",
          "name": "base",
          "type": "uint256"
        },
        {
          "internalType": "uint256",
          "name": "priceX96",
          "type": "uint256"
        }
      ],
      "name": "createLimitOrder",
      "outputs": [
        {
          "internalType": "uint40",
          "name": "orderId",
          "type": "uint40"
        }
      ],
      "stateMutability": "nonpayable",
      "type": "function"
    },
    {
      "inputs": [],
      "name": "exchange",
      "outputs": [
        {
          "internalType": "address",
          "name": "",
          "type": "address"
        }
      ],
      "stateMutability": "view",
      "type": "function"
    },
    {
      "inputs": [],
      "name": "fundingInfo",
      "outputs": [
        {
          "internalType": "uint256",
          "name": "prevIndexPriceBase",
          "type": "uint256"
        },
        {
          "internalType": "uint256",
          "name": "prevIndexPriceQuote",
          "type": "uint256"
        },
        {
          "internalType": "uint256",
          "name": "prevIndexPriceTimestamp",
          "type": "uint256"
        }
      ],
      "stateMutability": "view",
      "type": "function"
    },
    {
      "inputs": [],
      "name": "fundingMaxElapsedSec",
      "outputs": [
        {
          "internalType": "uint32",
          "name": "",
          "type": "uint32"
        }
      ],
      "stateMutability": "view",
      "type": "function"
    },
    {
      "inputs": [],
      "name": "fundingMaxPremiumRatio",
      "outputs": [
        {
          "internalType": "uint24",
          "name": "",
          "type": "uint24"
        }
      ],
      "stateMutability": "view",
      "type": "function"
    },
    {
      "inputs": [],
      "name": "fundingRolloverSec",
      "outputs": [
        {
          "internalType": "uint32",
          "name": "",
          "type": "uint32"
        }
      ],
      "stateMutability": "view",
      "type": "function"
    },
    {
      "inputs": [],
      "name": "getCumDeleveragedPerLiquidityX96",
      "outputs": [
        {
          "internalType": "uint256",
          "name": "",
          "type": "uint256"
        },
        {
          "internalType": "uint256",
          "name": "",
          "type": "uint256"
        }
      ],
      "stateMutability": "view",
      "type": "function"
    },
    {
      "inputs": [
        {
          "internalType": "bool",
          "name": "isBid",
          "type": "bool"
        },
        {
          "internalType": "uint40",
          "name": "orderId",
          "type": "uint40"
        }
      ],
      "name": "getLimitOrderExecution",
      "outputs": [
        {
          "internalType": "uint256",
          "name": "executionId",
          "type": "uint256"
        },
        {
          "internalType": "uint256",
          "name": "executedBase",
          "type": "uint256"
        },
        {
          "internalType": "uint256",
          "name": "executedQuote",
          "type": "uint256"
        }
      ],
      "stateMutability": "view",
      "type": "function"
    },
    {
      "inputs": [
        {
          "internalType": "uint256",
          "name": "liquidity",
          "type": "uint256"
        },
        {
          "internalType": "uint256",
          "name": "cumBasePerLiquidityX96",
          "type": "uint256"
        },
        {
          "internalType": "uint256",
          "name": "cumQuotePerLiquidityX96",
          "type": "uint256"
        }
      ],
      "name": "getLiquidityDeleveraged",
      "outputs": [
        {
          "internalType": "int256",
          "name": "",
          "type": "int256"
        },
        {
          "internalType": "int256",
          "name": "",
          "type": "int256"
        }
      ],
      "stateMutability": "view",
      "type": "function"
    },
    {
      "inputs": [
        {
          "internalType": "uint256",
          "name": "liquidity",
          "type": "uint256"
        }
      ],
      "name": "getLiquidityValue",
      "outputs": [
        {
          "internalType": "uint256",
          "name": "",
          "type": "uint256"
        },
        {
          "internalType": "uint256",
          "name": "",
          "type": "uint256"
        }
      ],
      "stateMutability": "view",
      "type": "function"
    },
    {
      "inputs": [],
      "name": "getMarkPriceX96",
      "outputs": [
        {
          "internalType": "uint256",
          "name": "",
          "type": "uint256"
        }
      ],
      "stateMutability": "view",
      "type": "function"
    },
    {
      "inputs": [],
      "name": "getShareMarkPriceX96",
      "outputs": [
        {
          "internalType": "uint256",
          "name": "",
          "type": "uint256"
        }
      ],
      "stateMutability": "view",
      "type": "function"
    },
    {
      "inputs": [
        {
          "internalType": "bool",
          "name": "isBaseToQuote",
          "type": "bool"
        },
        {
          "internalType": "bool",
          "name": "isExactInput",
          "type": "bool"
        },
        {
          "internalType": "bool",
          "name": "isLiquidation",
          "type": "bool"
        }
      ],
      "name": "maxSwap",
      "outputs": [
        {
          "internalType": "uint256",
          "name": "amount",
          "type": "uint256"
        }
      ],
      "stateMutability": "view",
      "type": "function"
    },
    {
      "inputs": [],
      "name": "owner",
      "outputs": [
        {
          "internalType": "address",
          "name": "",
          "type": "address"
        }
      ],
      "stateMutability": "view",
      "type": "function"
    },
    {
      "inputs": [],
      "name": "poolFeeRatio",
      "outputs": [
        {
          "internalType": "uint24",
          "name": "",
          "type": "uint24"
        }
      ],
      "stateMutability": "view",
      "type": "function"
    },
    {
      "inputs": [],
      "name": "poolInfo",
      "outputs": [
        {
          "internalType": "uint256",
          "name": "base",
          "type": "uint256"
        },
        {
          "internalType": "uint256",
          "name": "quote",
          "type": "uint256"
        },
        {
          "internalType": "uint256",
          "name": "totalLiquidity",
          "type": "uint256"
        },
        {
          "internalType": "uint256",
          "name": "cumBasePerLiquidityX96",
          "type": "uint256"
        },
        {
          "internalType": "uint256",
          "name": "cumQuotePerLiquidityX96",
          "type": "uint256"
        },
        {
          "internalType": "uint256",
          "name": "baseBalancePerShareX96",
          "type": "uint256"
        }
      ],
      "stateMutability": "view",
      "type": "function"
    },
    {
      "inputs": [
        {
          "internalType": "bool",
          "name": "isBaseToQuote",
          "type": "bool"
        },
        {
          "internalType": "bool",
          "name": "isExactInput",
          "type": "bool"
        },
        {
          "internalType": "uint256",
          "name": "amount",
          "type": "uint256"
        },
        {
          "internalType": "bool",
          "name": "isLiquidation",
          "type": "bool"
        }
      ],
      "name": "previewSwap",
      "outputs": [
        {
          "internalType": "uint256",
          "name": "oppositeAmount",
          "type": "uint256"
        }
      ],
      "stateMutability": "view",
      "type": "function"
    },
    {
      "inputs": [],
      "name": "priceFeedBase",
      "outputs": [
        {
          "internalType": "address",
          "name": "",
          "type": "address"
        }
      ],
      "stateMutability": "view",
      "type": "function"
    },
    {
      "inputs": [],
      "name": "priceFeedQuote",
      "outputs": [
        {
          "internalType": "address",
          "name": "",
          "type": "address"
        }
      ],
      "stateMutability": "view",
      "type": "function"
    },
    {
      "inputs": [],
      "name": "priceLimitConfig",
      "outputs": [
        {
          "internalType": "uint24",
          "name": "normalOrderRatio",
          "type": "uint24"
        },
        {
          "internalType": "uint24",
          "name": "liquidationRatio",
          "type": "uint24"
        },
        {
          "internalType": "uint24",
          "name": "emaNormalOrderRatio",
          "type": "uint24"
        },
        {
          "internalType": "uint24",
          "name": "emaLiquidationRatio",
          "type": "uint24"
        },
        {
          "internalType": "uint32",
          "name": "emaSec",
          "type": "uint32"
        }
      ],
      "stateMutability": "view",
      "type": "function"
    },
    {
      "inputs": [],
      "name": "priceLimitInfo",
      "outputs": [
        {
          "internalType": "uint256",
          "name": "referencePrice",
          "type": "uint256"
        },
        {
          "internalType": "uint256",
          "name": "referenceTimestamp",
          "type": "uint256"
        },
        {
          "internalType": "uint256",
          "name": "emaPrice",
          "type": "uint256"
        }
      ],
      "stateMutability": "view",
      "type": "function"
    },
    {
      "inputs": [
        {
          "internalType": "uint256",
          "name": "liquidity",
          "type": "uint256"
        }
      ],
      "name": "removeLiquidity",
      "outputs": [
        {
          "internalType": "uint256",
          "name": "base",
          "type": "uint256"
        },
        {
          "internalType": "uint256",
          "name": "quote",
          "type": "uint256"
        }
      ],
      "stateMutability": "nonpayable",
      "type": "function"
    },
    {
      "inputs": [],
      "name": "renounceOwnership",
      "outputs": [],
      "stateMutability": "nonpayable",
      "type": "function"
    },
    {
      "inputs": [
        {
          "internalType": "uint32",
          "name": "value",
          "type": "uint32"
        }
      ],
      "name": "setFundingMaxElapsedSec",
      "outputs": [],
      "stateMutability": "nonpayable",
      "type": "function"
    },
    {
      "inputs": [
        {
          "internalType": "uint24",
          "name": "value",
          "type": "uint24"
        }
      ],
      "name": "setFundingMaxPremiumRatio",
      "outputs": [],
      "stateMutability": "nonpayable",
      "type": "function"
    },
    {
      "inputs": [
        {
          "internalType": "uint32",
          "name": "value",
          "type": "uint32"
        }
      ],
      "name": "setFundingRolloverSec",
      "outputs": [],
      "stateMutability": "nonpayable",
      "type": "function"
    },
    {
      "inputs": [
        {
          "internalType": "uint24",
          "name": "value",
          "type": "uint24"
        }
      ],
      "name": "setPoolFeeRatio",
      "outputs": [],
      "stateMutability": "nonpayable",
      "type": "function"
    },
    {
      "inputs": [
        {
          "components": [
            {
              "internalType": "uint24",
              "name": "normalOrderRatio",
              "type": "uint24"
            },
            {
              "internalType": "uint24",
              "name": "liquidationRatio",
              "type": "uint24"
            },
            {
              "internalType": "uint24",
              "name": "emaNormalOrderRatio",
              "type": "uint24"
            },
            {
              "internalType": "uint24",
              "name": "emaLiquidationRatio",
              "type": "uint24"
            },
            {
              "internalType": "uint32",
              "name": "emaSec",
              "type": "uint32"
            }
          ],
          "internalType": "struct MarketStructs.PriceLimitConfig",
          "name": "value",
          "type": "tuple"
        }
      ],
      "name": "setPriceLimitConfig",
      "outputs": [],
      "stateMutability": "nonpayable",
      "type": "function"
    },
    {
      "inputs": [
        {
          "internalType": "bool",
          "name": "isBaseToQuote",
          "type": "bool"
        },
        {
          "internalType": "bool",
          "name": "isExactInput",
          "type": "bool"
        },
        {
          "internalType": "uint256",
          "name": "amount",
          "type": "uint256"
        },
        {
          "internalType": "bool",
          "name": "isLiquidation",
          "type": "bool"
        }
      ],
      "name": "swap",
      "outputs": [
        {
          "components": [
            {
              "internalType": "uint256",
              "name": "oppositeAmount",
              "type": "uint256"
            },
            {
              "internalType": "uint256",
              "name": "basePartial",
              "type": "uint256"
            },
            {
              "internalType": "uint256",
              "name": "quotePartial",
              "type": "uint256"
            },
            {
              "internalType": "uint40",
              "name": "partialKey",
              "type": "uint40"
            }
          ],
          "internalType": "struct IPerpdexMarketMinimum.SwapResponse",
          "name": "response",
          "type": "tuple"
        }
      ],
      "stateMutability": "nonpayable",
      "type": "function"
    },
    {
      "inputs": [],
      "name": "symbol",
      "outputs": [
        {
          "internalType": "string",
          "name": "",
          "type": "string"
        }
      ],
      "stateMutability": "view",
      "type": "function"
    },
    {
      "inputs": [
        {
          "internalType": "address",
          "name": "newOwner",
          "type": "address"
        }
      ],
      "name": "transferOwnership",
      "outputs": [],
      "stateMutability": "nonpayable",
      "type": "function"
    }
  ],
  "transactionHash": "0xa4624b543aba913a1dfbe17a36bd06f32450e00671ac661d21e0b4239b891144",
  "args": [
    "BTC",
    "0xc5c784ACAcE2531744d7Ed7AFC9624A3ec803D28",
    "0x3864c8A38ad0BD644DBF7b71Ba2443Ab07Eb534F",
    "0x486422E06cae127ED59998C52e7188dBED73d362"
  ],
  "numDeployments": 5,
  "solcInputHash": "8642eae312eb2b97d831fbc7e7d45b89",
  "bytecode": "0x601980546001600160701b0319166c01518000015180002710000bb817905561018060405261c35060e052620186a06101005262030d40610120526203d0906101405261012c61016052601a80546001600160801b0319166d012c03d090030d400186a000c3501790553480156200007657600080fd5b50604051620058463803806200584683398101604081905262000099916200036c565b6001600055620000a93362000213565b6001600160a01b0382161580620000da5750620000da826001600160a01b03166200026560201b620015a91760201c565b6200012c5760405162461bcd60e51b815260206004820152601d60248201527f504d5f433a2062617365207072696365206665656420696e76616c696400000060448201526064015b60405180910390fd5b6001600160a01b03811615806200015d57506200015d816001600160a01b03166200026560201b620015a91760201c565b620001ab5760405162461bcd60e51b815260206004820152601e60248201527f504d5f433a2071756f7465207072696365206665656420696e76616c69640000604482015260640162000123565b8351620001c090600290602087019062000293565b506001600160a01b0383811660805282811660a052811660c052620001f2600962000274602090811b620015b817901c565b6200020960036200027d60201b620015c11760201c565b50505050620004bf565b600180546001600160a01b038381166001600160a01b0319831681179093556040519116919082907f8be0079c531659141344cd1fd0a4f28419497f9722a3daafe3b4186f6b6457e090600090a35050565b6001600160a01b03163b151590565b42600290910155565b6c01000000000000000000000000600590910155565b828054620002a19062000482565b90600052602060002090601f016020900481019282620002c5576000855562000310565b82601f10620002e057805160ff191683800117855562000310565b8280016001018555821562000310579182015b8281111562000310578251825591602001919060010190620002f3565b506200031e92915062000322565b5090565b5b808211156200031e576000815560010162000323565b634e487b7160e01b600052604160045260246000fd5b80516001600160a01b03811681146200036757600080fd5b919050565b600080600080608085870312156200038357600080fd5b84516001600160401b03808211156200039b57600080fd5b818701915087601f830112620003b057600080fd5b815181811115620003c557620003c562000339565b604051601f8201601f19908116603f01168101908382118183101715620003f057620003f062000339565b81604052828152602093508a848487010111156200040d57600080fd5b600091505b8282101562000431578482018401518183018501529083019062000412565b82821115620004435760008484830101525b9750620004559150508782016200034f565b9450505062000467604086016200034f565b915062000477606086016200034f565b905092959194509250565b600181811c908216806200049757607f821691505b60208210811415620004b957634e487b7160e01b600052602260045260246000fd5b50919050565b60805160a05160c051615334620005126000396000818161020b0152818161109401526121c90152600081816104380152818161107301526121a40152600081816105300152611d5901526153346000f3fe608060405234801561001057600080fd5b50600436106101c65760003560e01c806385aaa397116100fa5780639cd441da1161009d5780639cd441da146104f25780639d67bf0314610505578063c9ca629b14610518578063d2f7265a1461052b578063dba4915314610552578063e7a4993114610564578063e8fa204f14610577578063f22897521461058a578063f2fde38b1461059557600080fd5b806385aaa3971461045a57806388e27dfb146104875780638da5cb5b146104965780638ee8fe5d146104a7578063933c7979146104af5780639482de1a146104c257806395d89b41146104ca5780639c8f9f23146104df57600080fd5b80636346f32e1161016d5780636346f32e14610322578063715018a6146103715780637452fadd1461037957806374f25689146103815780637640482f146103945780637661ce13146103bc578063796c20b7146103d357806380796d55146103e6578063823f2b041461043357600080fd5b806301e0df12146101cb57806306f429b8146101e05780630e06e4d014610206578063186f181e1461024557806323c8346a146102715780633aa3e6501461028457806356f55170146102ae5780635a2f3d09146102d7575b600080fd5b6101de6101d9366004614b83565b6105a8565b005b6101f36101ee366004614bb0565b61067f565b6040519081526020015b60405180910390f35b61022d7f000000000000000000000000000000000000000000000000000000000000000081565b6040516001600160a01b0390911681526020016101fd565b60195461025c90600160501b900463ffffffff1681565b60405163ffffffff90911681526020016101fd565b6101de61027f366004614c10565b6107c4565b60195461029a906301000000900462ffffff1681565b60405162ffffff90911681526020016101fd565b6102c16102bc366004614c47565b6108b7565b60405164ffffffffff90911681526020016101fd565b6003546004546005546006546007546008546102f595949392919086565b604080519687526020870195909552938501929092526060840152608083015260a082015260c0016101fd565b601a546103609062ffffff8082169163010000008104821691600160301b8204811691600160481b810490911690600160601b900463ffffffff1685565b6040516101fd959493929190614c7a565b6101de610a7a565b6101f3610a8e565b6101de61038f366004614b83565b610ab7565b6103a76103a2366004614cae565b610b87565b604080519283526020830191909152016101fd565b60195461025c90600160301b900463ffffffff1681565b6101de6103e1366004614cd9565b610b9e565b6103f96103f4366004614bb0565b610cbd565b6040516101fd919081518152602080830151908201526040808301519082015260609182015164ffffffffff169181019190915260800190565b61022d7f000000000000000000000000000000000000000000000000000000000000000081565b600c54600d54600e5461046c92919083565b604080519384526020840192909252908201526060016101fd565b60195461029a9062ffffff1681565b6001546001600160a01b031661022d565b6101f3610eb7565b6103a76104bd366004614cf6565b610ed7565b6008546101f3565b6104d2610efd565b6040516101fd9190614d4e565b6103a76104ed366004614cae565b610f8b565b61046c610500366004614d81565b611032565b6101de610513366004614cd9565b611139565b61046c610526366004614c10565b61120f565b61022d7f000000000000000000000000000000000000000000000000000000000000000081565b600954600a54600b5461046c92919083565b6101de610572366004614da3565b6112b7565b6101f3610585366004614db5565b61151a565b6006546007546103a7565b6101de6105a3366004614df8565b611530565b6105b06115ce565b600260005414156105dc5760405162461bcd60e51b81526004016105d390614e21565b60405180910390fd5b600260005561c35062ffffff8216111561062d5760405162461bcd60e51b8152602060048201526012602482015271504d5f535046523a20746f6f206c6172676560701b60448201526064016105d3565b6019805462ffffff191662ffffff83169081179091556040519081527ff02c81debd01d238f7814ac27bec8a7970b5271dc47842a419737b1ae313ca0f906020015b60405180910390a1506001600055565b60008061068d868685611628565b509050808411156106da5760405162461bcd60e51b8152602060048201526017602482015276141357d414ce881d1bdbc81b185c99d948185b5bdd5b9d604a1b60448201526064016105d3565b6000610722876106eb57600f6106ee565b60135b6040805160a0810182528a15158152891515602082015290810188905260006060820152600854608082015261177161179c565b600354600454604080516080810182528b151581528a1515602082015260195462ffffff169181019190915260608101899052929350610763926000611c4e565b92508615158615151480159061079857816060015182602001516107879190614e6e565b6107919085614e6e565b93506107b9565b816080015182604001516107ac9190614e6e565b6107b69085614e6e565b93505b505050949350505050565b6107cc611d57565b600260005414156107ef5760405162461bcd60e51b81526004016105d390614e21565b6002600055604051632ec0b78b60e11b8152600f6004820152821515602482015264ffffffffff8216604482015273f2f4343C128c133f539b2Ac5D80Ed851C328513190635d816f169060640160006040518083038186803b15801561085457600080fd5b505af4158015610868573d6000803e3d6000fd5b505060408051851515815264ffffffffff851660208201527ff61aa5333bf001aa89f4bfa6ccaf123eec86eada7fd1c6c366227102507f89cd935001905060405180910390a150506001600055565b60006108c1611d57565b600260005414156108e45760405162461bcd60e51b81526004016105d390614e21565b600260009081556108f3610a8e565b9050841561094857808311156109435760405162461bcd60e51b8152602060048201526015602482015274141357d0d313ce881c1bdcdd081bdb9b1e48189a59605a1b60448201526064016105d3565b610990565b808310156109905760405162461bcd60e51b8152602060048201526015602482015274504d5f434c4f3a20706f7374206f6e6c792061736b60581b60448201526064016105d3565b6040516383818a6f60e01b8152600f60048201528515156024820152604481018590526064810184905273f2f4343C128c133f539b2Ac5D80Ed851C3285131906383818a6f90608401602060405180830381865af41580156109f6573d6000803e3d6000fd5b505050506040513d601f19601f82011682018060405250810190610a1a9190614e86565b6040805187151581526020810187905290810185905264ffffffffff821660608201529092507f7f6ce27b6803b5b961a441dac0f55de214751acfb64178849efb01fdb71c620b9060800160405180910390a15060016000559392505050565b610a826115ce565b610a8c6000611dcf565b565b600354600090610a9e5750600090565b600354600454600854610ab2929190611e21565b905090565b610abf6115ce565b60026000541415610ae25760405162461bcd60e51b81526004016105d390614e21565b6002600055620186a062ffffff82161115610b355760405162461bcd60e51b8152602060048201526013602482015272504d5f53464d50523a20746f6f206c6172676560681b60448201526064016105d3565b6019805465ffffff0000001916630100000062ffffff8416908102919091179091556040519081527f55647f4dd43ac173f04e53a506df46454012316d82fb04a9c1dbd8e0f21f8f769060200161066f565b600080610b95600384611e3b565b91509150915091565b610ba66115ce565b60026000541415610bc95760405162461bcd60e51b81526004016105d390614e21565b600260005562093a8063ffffffff82161115610c1c5760405162461bcd60e51b8152602060048201526012602482015271504d5f534652533a20746f6f206c6172676560701b60448201526064016105d3565b610e108163ffffffff161015610c695760405162461bcd60e51b8152602060048201526012602482015271141357d4d19494ce881d1bdbc81cdb585b1b60721b60448201526064016105d3565b6019805463ffffffff60501b1916600160501b63ffffffff8416908102919091179091556040519081527fa703b265f29064a106acd6473c258e009bff9ac0bfd63b6f5ca4b712a25c85169060200161066f565b610cef6040518060800160405280600081526020016000815260200160008152602001600064ffffffffff1681525090565b610cf7611d57565b60026000541415610d1a5760405162461bcd60e51b81526004016105d390614e21565b6002600090815580610d2d878786611628565b9150915081851115610d7a5760405162461bcd60e51b8152602060048201526016602482015275141357d4ce881d1bdbc81b185c99d948185b5bdd5b9d60521b60448201526064016105d3565b610d82614b43565b8715610dcd576040805160a08101825289151581528815156020820152908101879052600060608201526008546080820152610dc690600f90611771611e6f611eab565b9050610e0e565b6040805160a08101825289151581528815156020820152908101879052600060608201526008546080820152610e0b90600f90611771611e6f611eab565b90505b6040518060800160405280826000015181526020018260200151815260200182604001518152602001826060015164ffffffffff168152509350610e53600c8361215f565b8351604080518a1515815289151560208201528082018990526060810192909252517fdedf81f778c63a97f5a04bfeae9e0e04f18d283b04d930ea7b6af78b6eb50b769181900360800190a1610ea7612186565b5050600160005550949350505050565b600354600090610ec75750600090565b600354600454610ab291906122c5565b600080610ef060038001546003600401548787876122df565b915091505b935093915050565b60028054610f0a90614ea3565b80601f0160208091040260200160405190810160405280929190818152602001828054610f3690614ea3565b8015610f835780601f10610f5857610100808354040283529160200191610f83565b820191906000526020600020905b815481529060010190602001808311610f6657829003601f168201915b505050505081565b600080610f96611d57565b60026000541415610fb95760405162461bcd60e51b81526004016105d390614e21565b60026000556040805160208101909152838152610fd89060039061234d565b604080518381526020810183905290810186905291935091507f0bb89aa54ed6940a7e7167bd262b2400d63945045ceff1a52a05f2601ed215f19060600160405180910390a1611026612186565b60016000559092909150565b600080600061103f611d57565b600260005414156110625760405162461bcd60e51b81526004016105d390614e21565b60026000556005546110ba576110ba7f00000000000000000000000000000000000000000000000000000000000000007f00000000000000000000000000000000000000000000000000000000000000008787612464565b6110d96003604051806040016040528088815260200187815250612678565b604080518481526020810184905290810182905292955090935091507fd7f28048575eead8851d024ead087913957dfb4fd1a02b4d1573f5352a5a2be39060600160405180910390a161112a612186565b60016000819055509250925092565b6111416115ce565b600260005414156111645760405162461bcd60e51b81526004016105d390614e21565b600260005562093a8063ffffffff821611156111b85760405162461bcd60e51b8152602060048201526013602482015272504d5f53464d45533a20746f6f206c6172676560681b60448201526064016105d3565b6019805469ffffffff0000000000001916600160301b63ffffffff8416908102919091179091556040519081527f5b18da8898c1e492e6bc631eec59d143ebba7f31ca794b668f0bfa9b0d9892939060200161066f565b6040516399d5040960e01b8152600f6004820152821515602482015264ffffffffff821660448201526000908190819073f2f4343C128c133f539b2Ac5D80Ed851C3285131906399d5040990606401606060405180830381865af415801561127b573d6000803e3d6000fd5b505050506040513d601f19601f8201168201806040525081019061129f9190614ed8565b65ffffffffffff9092169450925090505b9250925092565b6112bf6115ce565b600260005414156112e25760405162461bcd60e51b81526004016105d390614e21565b60026000556207a1206112fb6040830160208401614b83565b62ffffff16111561134e5760405162461bcd60e51b815260206004820152601e60248201527f50455f53504c433a20746f6f206c61726765206c69717569646174696f6e000060448201526064016105d3565b61135e6040820160208301614b83565b62ffffff166113706020830183614b83565b62ffffff1611156113b65760405162461bcd60e51b815260206004820152601060248201526f141157d4d41310ce881a5b9d985b1a5960821b60448201526064016105d3565b620f42406113ca6080830160608401614b83565b62ffffff161061141c5760405162461bcd60e51b815260206004820152601a60248201527f50455f53504c433a20656d6120746f6f206c61726765206c697100000000000060448201526064016105d3565b61142c6080820160608301614b83565b62ffffff166114416060830160408401614b83565b62ffffff16111561148b5760405162461bcd60e51b8152602060048201526014602482015273141157d4d41310ce88195b58481a5b9d985b1a5960621b60448201526064016105d3565b80601a6114988282614f27565b507fbe7eee05a638b28e8473a6f87ae310d3123f8a2a7561ce96e140f76125f7461290506114c96020830183614b83565b6114d96040840160208501614b83565b6114e96060850160408601614b83565b6114f96080860160608701614b83565b61150960a0870160808801614cd9565b60405161066f959493929190614c7a565b6000611527848484611628565b50949350505050565b6115386115ce565b6001600160a01b03811661159d5760405162461bcd60e51b815260206004820152602660248201527f4f776e61626c653a206e6577206f776e657220697320746865207a65726f206160448201526564647265737360d01b60648201526084016105d3565b6115a681611dcf565b50565b6001600160a01b03163b151590565b42600290910155565b600160601b600590910155565b6001546001600160a01b03163314610a8c5760405162461bcd60e51b815260206004820181905260248201527f4f776e61626c653a2063616c6c6572206973206e6f7420746865206f776e657260448201526064016105d3565b600061164e60405180606001604052806000815260200160008152602001600081525090565b60055461165e5760009150610ef5565b6000611668610eb7565b9050611677600c601a8361283d565b9150600061169283600001518460400151601a888b1561290c565b6003546004546019549293506116b1928a908a9062ffffff16866129ba565b935073f2f4343C128c133f539b2Ac5D80Ed851C328513163b2041ed9886116d957600f6116dc565b60135b60085460405160e084901b6001600160e01b031916815260048101929092528a15156024830152891515604483015260648201859052608482015260a401602060405180830381865af4158015611737573d6000803e3d6000fd5b505050506040513d601f19601f8201168201806040525081019061175b9190615013565b6117659085614e6e565b93505050935093915050565b6003546004546019546000926117929290918790879062ffffff16876129ba565b90505b9392505050565b6117ea6040518060e001604052806000815260200160008152602001600081526020016000815260200160008152602001600064ffffffffff168152602001600064ffffffffff1681525090565b602083015183518554911515901515149064ffffffffff166000805b64ffffffffff831615611bfc5761187960405180610120016040528060006001600160801b031681526020016000815260200160008152602001600064ffffffffff168152602001600064ffffffffff168152602001600081526020016000815260200160008152602001600081525090565b64ffffffffff8416600090815260018a016020526040902054600160801b90046001600160801b031680825260808901516118b99190600160601b612b1d565b60208083018290528951908a01516118d49263ffffffff8b16565b60408083019190915264ffffffffff80861660008181526001808e01602081815286842054600160281b8104871660608a01908152958552918152600160501b909104851660808801529251909316815260028d0190915291909120015461193c9084614e6e565b60a0820152606081015164ffffffffff1660009081526002808b016020526040909120015461196b9083614e6e565b60c0820152604081015160009086611999576119948360c001518b60800151600160601b612b1d565b61199f565b8260a001515b6119a99190614e6e565b9050808960400151116119e957606082015164ffffffffff166119dd576119d08a86612beb565b64ffffffffff1660a08801525b50606001519250611806565b608082015164ffffffffff908116600090815260028c016020526040808220600190810154938916835291200154611a21919061502c565b611a2b9085614e6e565b60e0830152608082015164ffffffffff90811660009081526002808d01602052604080832082015493891683529091200154611a67919061502c565b611a719084614e6e565b610100830152604082015160009087611aa157611a9c8461010001518c60800151600160601b612b1d565b611aa7565b8360e001515b611ab19190614e6e565b9050808a604001511015611bbe576040830151885260a0830151602089015260c083015160808b0151611ae99190600160601b612b1d565b60408901528615611b2957818a60400151611b04919061502c565b606089018190526020840151611b1f9190600160601b612b1d565b6080890152611b91565b818a60400151611b39919061502c565b608089018190526020840151611b559190600160601b90612b1d565b6060890181905264ffffffffff8716600090815260028d016020526040902054611b8b9190611b869060019061502c565b612d14565b60608901525b611b9b8b87612beb565b64ffffffffff90811660a08a01529590951660c088015250611795945050505050565b8260e0015194508261010001519350826080015164ffffffffff1660001415611bef5764ffffffffff861660a08901525b5050608001519250611806565b602085018290526080870151611c18908290600160601b612b1d565b604086015283611c2c578460400151611c32565b84602001515b8760400151611c41919061502c565b8552505050509392505050565b600080611c62620f42408560400151612d2a565b9050836020015115611cbd576060840151600090611c809083612d90565b855190915015611ca557611c9e8682611c998a82612da5565b612b1d565b9250611cb7565b611cb48782611c998982612da5565b92505b50611d0a565b835115611ce5576060840151611cde908790611cd98882612db1565b612dbd565b9150611cfd565b6060840151611cfa908690611cd98982612db1565b91505b611d078282612e34565b91505b8261152757600082116115275760405162461bcd60e51b8152602060048201526015602482015274504c5f53443a206f7574707574206973207a65726f60581b60448201526064016105d3565b7f00000000000000000000000000000000000000000000000000000000000000006001600160a01b03163314610a8c5760405162461bcd60e51b815260206004820152601d60248201527f504d5f4f453a2063616c6c6572206973206e6f742065786368616e676500000060448201526064016105d3565b600180546001600160a01b038381166001600160a01b0319831681179093556040519116919082907f8be0079c531659141344cd1fd0a4f28419497f9722a3daafe3b4186f6b6457e090600090a35050565b6000611792611e3085856122c5565b600160601b84612b1d565b600080611e518385600001548660020154612b1d565b611e648486600101548760020154612b1d565b915091509250929050565b604080516080810182528415158152831515602082015260195462ffffff16918101919091526060810182905260009061179290600390612e49565b611eb3614b43565b8351600090611ec25785611ec7565b856004015b90506000611ed682878761179c565b805190915015611f0b57855160208701518251611ef892919063ffffffff8816565b83518490611f07908390614e6e565b9052505b602086015186511515901515146000611f218990565b90508260a0015164ffffffffff1660001461200e5760088901805460019190600090611f5690849065ffffffffffff16615043565b82546101009290920a65ffffffffffff818102199093169183160217909155604080516020808201835260808d0151825260088e0154909316600090815260098e0190935291209051905550875115611fc85760a0830151611fc3908590612e8c612e9f612eb786612ecb565b611fe2565b60a0830151611fe2908590612ff0612fff61300c86612ecb565b81611ff1578260200151611ff7565b82604001515b85518690612006908390614e6e565b905250612052565b6020830151156120305760405162461bcd60e51b81526004016105d39061506d565b6040830151156120525760405162461bcd60e51b81526004016105d39061506d565b60c083015164ffffffffff161561210f57606083015160c084015164ffffffffff1660009081526002860160205260408120805490919061209490849061502c565b909155505060c083015188516120be91906120b157612fff6120b5565b612e9f5b86919084613018565b816120cd5782606001516120d3565b82608001515b855186906120e2908390614e6e565b90525060608084015160208701526080840151604087015260c084015164ffffffffff1690860152612153565b6060830151156121315760405162461bcd60e51b81526004016105d39061506d565b6080830151156121535760405162461bcd60e51b81526004016105d39061506d565b50505050949350505050565b602081015161216c575050565b805182556020810151600183015560400151600290910155565b6000612190610a8e565b6040805160c0810182526001600160a01b037f0000000000000000000000000000000000000000000000000000000000000000811682527f000000000000000000000000000000000000000000000000000000000000000016602082015290810182905260195462ffffff6301000000820416606083015263ffffffff600160301b820481166080840152600160501b9091041660a08201529091506000908190819061223f90600990613066565b92509250925082600014156122545750505050565b61225f6003846131ff565b6006546007546040805186815263ffffffff8616602082015290810184905260608101879052608081019290925260a08201527f318daee0b48d1f6a0542d8cdd35e2593d88c4fb01708f4781609494206d070519060c00160405180910390a150505050565b60006122d682600160601b85612b1d565b90505b92915050565b60008060006122ff6122f086613300565b6122f98a613300565b9061336e565b9050600061230f6122f086613300565b905061232a82600160601b6123238a613300565b919061337a565b61233c82600160601b6123238b613300565b9350935050505b9550959350505050565b81546001830154600284015483516000938493909290918490612371908584612b1d565b9050600061238488600001518585612b1d565b90506000821180156123965750600081115b6123da5760405162461bcd60e51b8152602060048201526015602482015274504c5f524c3a206f7574707574206973207a65726f60581b60448201526064016105d3565b6123e48583612db1565b89556123f08482612db1565b60018a01558751600090612405908590612db1565b90506103e88110156124505760405162461bcd60e51b8152602060048201526014602482015273504c5f524c3a206d696e206c697175696469747960601b60448201526064016105d3565b60028a015590955093505050509250929050565b600061246f8561341e565b9050600061247c8561341e565b9050600082116124ce5760405162461bcd60e51b815260206004820152601b60248201527f464c5f56494c503a20696e76616c69642062617365207072696365000000000060448201526064016105d3565b6000811161251e5760405162461bcd60e51b815260206004820152601c60248201527f464c5f56494c503a20696e76616c69642071756f74652070726963650000000060448201526064016105d3565b6000612529876134e4565b90506000612536876134e4565b9050604d60ff8316111561258c5760405162461bcd60e51b815260206004820152601e60248201527f464c5f56494c503a20696e76616c6964206261736520646563696d616c73000060448201526064016105d3565b604d60ff821611156125e05760405162461bcd60e51b815260206004820152601f60248201527f464c5f56494c503a20696e76616c69642071756f746520646563696d616c730060448201526064016105d3565b60006125f186600160601b89612b1d565b9050600061260284848888866135aa565b9050612615600160601b620186a0612d90565b61261e8261362a565b111561266c5760405162461bcd60e51b815260206004820152601b60248201527f464c5f56494c503a20746f6f206661722066726f6d20696e646578000000000060448201526064016105d3565b50505050505050505050565b600282015460009081908190818161274957602086015186516000916126a6916126a19161364e565b61365a565b90506126b4816103e8612db1565b8751909250158015906126cb575060008760200151115b80156126d75750600082115b6127235760405162461bcd60e51b815260206004820152601d60248201527f504c5f414c3a20696e697469616c206c6971756964697479207a65726f00000060448201526064016105d3565b8651808955602088015160018a0181905560028a01929092559550935091506112b09050565b865460018801548751602089015160009161276991611b86908686612b1d565b905060006127848a60200151611b868c600001518688612b1d565b905061279f612794838887612b1d565b611b86838987612b1d565b94506000821180156127b15750600081115b80156127bd5750600085115b6128015760405162461bcd60e51b8152602060048201526015602482015274504c5f414c3a206c6971756964697479207a65726f60581b60448201526064016105d3565b61280b8483612da5565b8b556128178382612da5565b60018c01556128268686612da5565b60028c015590975095509193505050509250925092565b61286160405180606001604052806000815260200160008152602001600081525090565b600184015442908082116128845750508354815260028401546040820152611795565b60006128908383612db1565b87549091506128a557604084018590526128fb565b855463ffffffff600160601b9091048116906000906128c89084908490612da516565b90506128f36128d8888584612b1d565b6128ed8b600201548563ffffffff1685612b1d565b90612da5565b604087015250505b505082825260208201529392505050565b6000806129398461292357855462ffffff16612932565b85546301000000900462ffffff165b8890612d90565b9050600061296d85612958578654600160301b900462ffffff16612932565b86548890600160481b900462ffffff16612d90565b905083156129955761298c6129828984612da5565b611b868984612da5565b925050506129b1565b61298c6129a28984612db1565b6129ac8984612db1565b6136ca565b95945050505050565b6000806129ca620f424085612d2a565b905060006129d8898961364e565b90508615612a625760006129f182600160601b87612b1d565b905060006129ff8b8061364e565b9050808211612a15576000945050505050612b13565b6000612a218383612db1565b90506000612a39612a328e88612d90565b8e90612da5565b9050612a57612a4882886136da565b612a5284896136da565b6136ef565b965050505050612ad1565b6000612a738286600160601b612b1d565b90506000612a818a8061364e565b9050808211612a97576000945050505050612b13565b6000612aa38383612db1565b90506000612abb612ab48d88612d90565b8d90612da5565b9050612aca612a4882886136da565b9650505050505b85612b1057612b0d898960405180608001604052808b151581526020016001151581526020018962ffffff168152602001878152506001611c4e565b92505b50505b9695505050505050565b600080806000198587098587029250828110838203039150508060001415612b5857838281612b4e57612b4e615092565b0492505050611795565b838110612b8257604051631dcf306360e21b815260048101829052602481018590526044016105d3565b60008486880960026001871981018816978890046003810283188082028403028082028403028082028403028082028403028082028403029081029092039091026000889003889004909101858311909403939093029303949094049190911702949350505050565b600064ffffffffff8216612c3b5760405162461bcd60e51b81526020600482015260176024820152765242544c5f503a2074617267657420697320656d70747960481b60448201526064016105d3565b64ffffffffff8281166000908152600185016020526040902054600160281b90041615612c965764ffffffffff8083166000908152600185016020526040902054612c8f918591600160281b900416613721565b90506122d9565b5064ffffffffff8082166000908152600184016020526040902054165b64ffffffffff811615801590612cec575064ffffffffff8181166000908152600185016020526040902054600160281b90048116908316145b156122d95764ffffffffff808216600090815260018501602052604090205491925016612cb3565b6000818310612d2357816122d6565b5090919050565b60008262ffffff168262ffffff161115612d865760405162461bcd60e51b815260206004820152601e60248201527f506572704d6174683a207375627472616374696f6e206f766572666c6f77000060448201526064016105d3565b6122d682846150a8565b60006122d6838362ffffff16620f4240612b1d565b60006122d68284614e6e565b60006122d6828461502c565b6000612dca848484612b1d565b905060008280612ddc57612ddc615092565b8486091115611795576000198110612e2a5760405162461bcd60e51b8152602060048201526011602482015270464d5f4d4452553a206f766572666c6f7760781b60448201526064016105d3565b806129b1816150cc565b60006122d683620f42408462ffffff16612dbd565b6000612e6083600001548460010154846000611c4e565b82516020840151855460018701546060870151949550612e809486613775565b60018501559092555090565b6000816129b160048201600187876137f7565b600081612eaf600482018561388d565b949350505050565b80612ec660048201828561399c565b505050565b64ffffffffff8516612f175760405162461bcd60e51b81526020600482015260156024820152745242544c5f524c3a206b657920697320656d70747960581b60448201526064016105d3565b612f2186866139dd565b612f665760405162461bcd60e51b81526020600482015260166024820152751490951317d4930e881ad95e481b9bdd08195e1a5cdd60521b60448201526064016105d3565b6040805160808082018352885464ffffffffff9081168352881660208301529181019190915260608101829052612fa1908790868686613a28565b50865464ffffffffff91821664ffffffffff19918216811789556000908152600189016020526040808220805490931690925597549091168752909520805460ff60781b191690555050505050565b6000816129b1818387876137f7565b600081612eaf818561388d565b80612ec681808561399c565b64ffffffffff8316156130605761303383828463ffffffff16565b1561303d57613060565b64ffffffffff928316600090815260018501602052604090205490921691613018565b50505050565b6000806000804290506000613088876002015483612db190919063ffffffff16565b9050806130a157600080600094509450945050506112b0565b60006130b0876000015161341e565b905060006130c1886020015161341e565b905060006130d289600001516134e4565b905060006130e38a602001516134e4565b8b54909150841480156130f95750828b60010154145b80613102575083155b8061310b575082155b806131195750604d60ff8316115b806131275750604d60ff8216115b156131425760008060009850985098505050505050506112b0565b613156858b6080015163ffffffff16612d14565b945061316185613c57565b9750613174828286868e604001516135aa565b9650600061319b6131968c60600151600160601b612d9090919063ffffffff16565b613300565b90506131b96131aa828a613cbc565b6131b3836150e7565b90613ccb565b97506131e26131c787613300565b8c60a0015163ffffffff168a61337a9092919063ffffffff16565b948c55505050600189015560028801929092555092509250925092565b80613208575050565b60006132138261362a565b9050600082131561327657600183015460006132348284600160601b612b1d565b90506132408282612db1565b856001018190555061326961325e82600160601b8860020154612b1d565b600487015490612da5565b6004860155506132c89050565b8254600061328d8284611c99600160601b82612da5565b90506132998282612db1565b855560028501546132c0906132b5908390600160601b90612b1d565b600387015490612da5565b600386015550505b6132f383600501546132e96132e4856122f9600160601b613300565b613cdb565b600160601b612b1d565b8360050181905550505050565b60006001600160ff1b0382111561336a5760405162461bcd60e51b815260206004820152602860248201527f53616665436173743a2076616c756520646f65736e27742066697420696e2061604482015267371034b73a191a9b60c11b60648201526084016105d3565b5090565b60006122d68284615104565b6000806000851261338b5784613394565b61339485613d2d565b905060008085126133a557846133ae565b6133ae85613d2d565b9050600080871280156133c15750600086135b806133d757506000871380156133d75750600086125b6133e25760006133e5565b60015b905060006133f4848488612b1d565b9050816134095761340481613300565b613412565b61341281613d8b565b98975050505050505050565b60006001600160a01b03821661343657506001919050565b60408051600481526024810182526020810180516001600160e01b0316634c6afee560e11b179052905160009081906001600160a01b0386169061347b908590615143565b600060405180830381855afa9150503d80600081146134b6576040519150601f19603f3d011682016040523d82523d6000602084013e6134bb565b606091505b5091509150816134d057506000949350505050565b808060200190518101906129b19190615013565b60006001600160a01b0382166134fc57506000919050565b60408051600481526024810182526020810180516001600160e01b031663313ce56760e01b179052905160009081906001600160a01b03861690613541908590615143565b600060405180830381855afa9150503d806000811461357c576040519150601f19603f3d011682016040523d82523d6000602084013e613581565b606091505b509150915081613596575060ff949350505050565b808060200190518101906129b1919061515f565b60008160ff87161515806135bf575084600114155b156135dc576135d9816135d389600a615266565b87612b1d565b90505b60ff86161515806135ee575083600114155b15613606576136038185611c9989600a615266565b90505b61361f613616600160601b613300565b6122f983613300565b979650505050505050565b600080821215613645576136406132e483613d2d565b6122d9565b6122d982613cdb565b60006122d68284615275565b600060038211156136bb5750806000613674600283615294565b61367f906001614e6e565b90505b818110156136b55790508060028161369a8186615294565b6136a49190614e6e565b6136ae9190615294565b9050613682565b50919050565b81156136c5575060015b919050565b600081831015612d2357816122d6565b60006122d683620f42408462ffffff16612b1d565b60006122d6600261371b856137156126a161370b88600461364e565b6128ed8a8061364e565b90612db1565b90613d9f565b60005b64ffffffffff8281166000908152600185016020526040902054600160501b900416156136b55764ffffffffff9182166000908152600184016020526040902054600160501b900490911690613724565b60008086156137b75787156137a15761378e8685612da5565b915061379a8584612db1565b90506137ec565b6137ab8684612db1565b915061379a8585612da5565b87156137d3576137c78684612da5565b915061379a8585612db1565b6137dd8685612db1565b91506137e98584612da5565b90505b965096945050505050565b64ffffffffff828116600090815260018601602052604080822054928416825281205490916001600160801b03600160801b91829004811692919091041680821415613857578364ffffffffff168564ffffffffff161092505050612eaf565b8561387657806001600160801b0316826001600160801b03161061361f565b6001600160801b0390811691161195945050505050565b64ffffffffff808216600090815260028085016020818152604080852060018082015495820154818b01855283882054959094529054600160501b85048816808852838820830154600160281b909604909816808852928720909101549596949592949193919287926138ff91614e6e565b6139099190614e6e565b905060006139178989613dab565b64ffffffffff80851660009081526002808d016020526040808320820154938916835290912001546139499190614e6e565b6139539190614e6e565b9050858214801561396357508481145b9650866139905764ffffffffff881660009081526002808b01602052604090912060018101849055018190555b50505050505092915050565b60089091015464ffffffffff909116600090815260029092016020526040909120600301805465ffffffffffff191665ffffffffffff909216919091179055565b600064ffffffffff8216158015906122d65750825464ffffffffff838116911614806122d657505064ffffffffff908116600090815260019290920160205260409091205416151590565b8351600090819064ffffffffff16613a495750506040840151600090612343565b855164ffffffffff166000908152600188016020526040902054600160781b900460ff16613a78576001613a7b565b60005b86604001818151613a8c91906152b6565b60ff169052508551602087015164ffffffffff90811691161415613af557613ac0866000015187606001518563ffffffff16565b5050835164ffffffffff9081166000908152600187016020526040908190205490860151600160501b90910490911690612343565b613b108660200151876000015188606001518863ffffffff16565b15613bd45760408051608081018252875164ffffffffff908116600090815260018b01602090815284822054600160281b900483168452808b0151909216918301919091528883015160ff1692820192909252606080890151908201528190613b7d908a90898989613a28565b895164ffffffffff808216600090815260018e0160205260409081902054908d015160608e0151959750939550613bc9948e94889493600160501b909304909216918c91889190613df2565b935093505050612343565b613bea866000015187606001518563ffffffff16565b60408051608081018252875164ffffffffff908116600090815260018b0160209081529084902054600160501b900482168352808a0151909116908201528782015160ff169181019190915260608088015190820152613c4e908890878787613a28565b91509150612343565b600063ffffffff82111561336a5760405162461bcd60e51b815260206004820152602660248201527f53616665436173743a2076616c756520646f65736e27742066697420696e203360448201526532206269747360d01b60648201526084016105d3565b6000818312612d2357816122d6565b600081831215612d2357816122d6565b60008082121561336a5760405162461bcd60e51b815260206004820181905260248201527f53616665436173743a2076616c7565206d75737420626520706f73697469766560448201526064016105d3565b6000600160ff1b8213613d825760405162461bcd60e51b815260206004820152601c60248201527f506572704d6174683a20696e76657273696f6e206f766572666c6f770000000060448201526064016105d3565b6122d9826150e7565b6000613d9682613300565b6122d9906150e7565b60006122d68284615294565b64ffffffffff8116600090815260018301602090815260408083205460028601909252822054600160801b9091046001600160801b031690612eaf9082600160601b612b1d565b6000808360ff168560ff161115613ef657613e558a6040518060c001604052808c64ffffffffff1681526020018b64ffffffffff1681526020018a64ffffffffff1681526020018860ff1681526020018760ff16815260200186815250886140e6565b5064ffffffffff8116600090815260018c016020526040902054909250859150600160781b900460ff168015613eba575064ffffffffff828116600090815260018c01602052604080822054600160501b900490921681522054600160781b900460ff165b15613ef15764ffffffffff821660009081526001808c016020526040909120805460ff60781b19169055613eee90826152d9565b90505b6140d9565b8360ff168560ff161015613fed57613f568a6040518060c001604052808c64ffffffffff1681526020018b64ffffffffff1681526020018a64ffffffffff1681526020018860ff1681526020018760ff16815260200186815250886143dc565b64ffffffffff8116600090815260018c016020526040902054909250849150600160781b900460ff168015613eba575064ffffffffff828116600090815260018c01602052604080822054600160281b900490921681522054600160781b900460ff1615613ef15764ffffffffff821660009081526001808c016020526040909120805460ff60781b19169055613eee90826152d9565b64ffffffffff8916600090815260018b016020526040812054600160781b900460ff1615801561403d575064ffffffffff8816600090815260018c016020526040902054600160781b900460ff16155b64ffffffffff8a8116600090815260018e016020526040902080546fff0000000000ffffffffff00000000001916600160781b8415150264ffffffffff60281b191617600160281b8e8416021764ffffffffff60501b1916600160501b928c169290920291909117905590506140b7898563ffffffff8a16565b5088816140c55760016140c8565b60005b6140d290886152d9565b9093509150505b9850989650505050505050565b815164ffffffffff1660009081526001840160205260408120548190600160781b900460ff161580156141265750836080015160ff16846060015160ff16145b156141d8576020808501805164ffffffffff9081166000908152600189019093526040808420805460ff60781b1916600160781b17905587518351831685528185208054918416600160281b0264ffffffffff60281b19909216919091179055808801518351831685529320805493909116600160501b0264ffffffffff60501b19909316929092179091555160a08501516141c6919063ffffffff8616565b50505060208201516060830151610ef5565b6040805160c081018252855164ffffffffff908116600090815260018901602081815285832054600160501b900484168552808a01518416818601528986015184168587015289519093168252909152918220546142819188916060820190600160781b900460ff1661424c57600161424f565b60005b896060015161425e91906152b6565b60ff168152602001886080015160ff1681526020018860a00151815250866140e6565b50855164ffffffffff9081166000908152600189016020526040808220805464ffffffffff60501b1916600160501b868616021790558851909216815220805464ffffffffff19169055855160a08701519192506142e29163ffffffff8716565b50845164ffffffffff166000908152600187016020526040902054600160781b900460ff16158015614333575064ffffffffff81166000908152600187016020526040902054600160781b900460ff165b801561436e575064ffffffffff818116600090815260018801602052604080822054600160501b900490921681522054600160781b900460ff165b156143c95764ffffffffff808216600090815260018801602052604080822054600160501b9004909216815220805460ff60781b19169055845160a08601516143ba918891879061479a565b60608501519092509050610ef5565b5050825160609093015192949293505050565b60408281015164ffffffffff1660009081526001850160205290812054600160781b900460ff1615801561441d5750826080015160ff16836060015160ff16145b15614552576020808401805164ffffffffff9081166000908152600188019093526040808420805460ff60781b1916600160781b17905586518351831685528185208054918416600160281b0264ffffffffff60281b19909216919091179055808701519251821684529092208054918316600160501b0264ffffffffff60501b19909216919091179055835116156144e757602083810151845164ffffffffff9081166000908152600188019093526040909220805464ffffffffff1916929091169190911790555b604083015164ffffffffff16156145305760208381015160408086015164ffffffffff9081166000908152600189019094529220805464ffffffffff1916929091169190911790555b61454683602001518460a001518463ffffffff16565b50506020820151611795565b6040805160c081018252845164ffffffffff908116825260208087015182168184015286840180518316600090815260018a0180845286822054600160281b90048516868801526060808b015160ff90811691880191909152925190941681529290915292812054909261460492889290916080830191600160781b9004166145dc5760016145df565b60005b88608001516145ee91906152b6565b60ff1681526020018760a00151815250856143dc565b6040858101805164ffffffffff908116600090815260018a01602052838120805464ffffffffff60281b1916600160281b878516908102919091179091559251909116815291909120805464ffffffffff19169055909150156146955760408481015164ffffffffff83811660009081526001890160205292909220805464ffffffffff1916929091169190911790555b6146ab84604001518560a001518563ffffffff16565b5060408481015164ffffffffff166000908152600187016020522054600160781b900460ff161580156146fd575064ffffffffff81166000908152600186016020526040902054600160781b900460ff165b8015614738575064ffffffffff818116600090815260018701602052604080822054600160281b900490921681522054600160781b900460ff165b1561478e5764ffffffffff808216600090815260018701602052604080822054600160281b90049092168152819020805460ff60781b1916905584015160a0850151614787918791869061497b565b9050611795565b50505060400151919050565b64ffffffffff80841660008181526001870160205260408082208054600160501b80820487168086529385205495909452600160281b909404851692830264ffffffffff60501b19851617905592919091169080156148205764ffffffffff81811660009081526001890160205260409020805464ffffffffff19169188169190911790555b64ffffffffff83811660009081526001890160205260409020805464ffffffffff1916918416918217905561486957865464ffffffffff191664ffffffffff8416178755614909565b64ffffffffff8281166000908152600189016020526040902054600160281b9004811690871614156148d15764ffffffffff808316600090815260018901602052604090208054918516600160281b0264ffffffffff60281b19909216919091179055614909565b64ffffffffff808316600090815260018901602052604090208054918516600160501b0264ffffffffff60501b199092169190911790555b64ffffffffff838116600081815260018a016020526040808220805464ffffffffff60281b1916600160281b958c1695860217905592815291909120805464ffffffffff19169091179055614962868563ffffffff8816565b5061497183858763ffffffff16565b5050505050505050565b64ffffffffff80841660008181526001870160205260408082208054600160281b80820487168086529385205495909452600160501b909404851692830264ffffffffff60281b1985161790559291909116908015614a015764ffffffffff81811660009081526001890160205260409020805464ffffffffff19169188169190911790555b64ffffffffff83811660009081526001890160205260409020805464ffffffffff19169184169182179055614a4a57865464ffffffffff191664ffffffffff8416178755614aea565b64ffffffffff8281166000908152600189016020526040902054600160501b900481169087161415614ab25764ffffffffff808316600090815260018901602052604090208054918516600160501b0264ffffffffff60501b19909216919091179055614aea565b64ffffffffff808316600090815260018901602052604090208054918516600160281b0264ffffffffff60281b199092169190911790555b64ffffffffff838116600081815260018a016020526040808220805464ffffffffff60501b1916600160501b958c1695860217905592815291909120805464ffffffffff19169091179055614962868563ffffffff8816565b6040518060800160405280600081526020016000815260200160008152602001600064ffffffffff1681525090565b62ffffff811681146115a657600080fd5b600060208284031215614b9557600080fd5b813561179581614b72565b803580151581146136c557600080fd5b60008060008060808587031215614bc657600080fd5b614bcf85614ba0565b9350614bdd60208601614ba0565b925060408501359150614bf260608601614ba0565b905092959194509250565b64ffffffffff811681146115a657600080fd5b60008060408385031215614c2357600080fd5b614c2c83614ba0565b91506020830135614c3c81614bfd565b809150509250929050565b600080600060608486031215614c5c57600080fd5b614c6584614ba0565b95602085013595506040909401359392505050565b62ffffff958616815293851660208501529184166040840152909216606082015263ffffffff909116608082015260a00190565b600060208284031215614cc057600080fd5b5035919050565b63ffffffff811681146115a657600080fd5b600060208284031215614ceb57600080fd5b813561179581614cc7565b600080600060608486031215614d0b57600080fd5b505081359360208301359350604090920135919050565b60005b83811015614d3d578181015183820152602001614d25565b838111156130605750506000910152565b6020815260008251806020840152614d6d816040850160208701614d22565b601f01601f19169190910160400192915050565b60008060408385031215614d9457600080fd5b50508035926020909101359150565b600060a082840312156136b557600080fd5b600080600060608486031215614dca57600080fd5b614dd384614ba0565b9250614de160208501614ba0565b9150614def60408501614ba0565b90509250925092565b600060208284031215614e0a57600080fd5b81356001600160a01b038116811461179557600080fd5b6020808252601f908201527f5265656e7472616e637947756172643a207265656e7472616e742063616c6c00604082015260600190565b634e487b7160e01b600052601160045260246000fd5b60008219821115614e8157614e81614e58565b500190565b600060208284031215614e9857600080fd5b815161179581614bfd565b600181811c90821680614eb757607f821691505b602082108114156136b557634e487b7160e01b600052602260045260246000fd5b600080600060608486031215614eed57600080fd5b835165ffffffffffff81168114614f0357600080fd5b602085015160409095015190969495509392505050565b600081356122d981614cc7565b8135614f3281614b72565b62ffffff8116905081548162ffffff1982161783556020840135614f5581614b72565b65ffffff0000008160181b169050808365ffffffffffff198416171784556040850135614f8181614b72565b68ffffff0000000000008160301b1690508368ffffffffffffffffff1984161793508084831717855560608601359250614fba83614b72565b62ffffff60481b1993909316179190911760489190911b62ffffff60481b1617815561500f614feb60808401614f1a565b82805463ffffffff60601b191660609290921b63ffffffff60601b16919091179055565b5050565b60006020828403121561502557600080fd5b5051919050565b60008282101561503e5761503e614e58565b500390565b600065ffffffffffff80831681851680830382111561506457615064614e58565b01949350505050565b6020808252600b908201526a3732bb32b91037b1b1bab960a91b604082015260600190565b634e487b7160e01b600052601260045260246000fd5b600062ffffff838116908316818110156150c4576150c4614e58565b039392505050565b60006000198214156150e0576150e0614e58565b5060010190565b6000600160ff1b8214156150fd576150fd614e58565b5060000390565b60008083128015600160ff1b85018412161561512257615122614e58565b6001600160ff1b038401831381161561513d5761513d614e58565b50500390565b60008251615155818460208701614d22565b9190910192915050565b60006020828403121561517157600080fd5b815160ff8116811461179557600080fd5b600181815b808511156151bd5781600019048211156151a3576151a3614e58565b808516156151b057918102915b93841c9390800290615187565b509250929050565b6000826151d4575060016122d9565b816151e1575060006122d9565b81600181146151f757600281146152015761521d565b60019150506122d9565b60ff84111561521257615212614e58565b50506001821b6122d9565b5060208310610133831016604e8410600b8410161715615240575081810a6122d9565b61524a8383615182565b806000190482111561525e5761525e614e58565b029392505050565b60006122d660ff8416836151c5565b600081600019048311821515161561528f5761528f614e58565b500290565b6000826152b157634e487b7160e01b600052601260045260246000fd5b500490565b600060ff821660ff8416808210156152d0576152d0614e58565b90039392505050565b600060ff821660ff84168060ff038211156152f6576152f6614e58565b01939250505056fea2646970667358221220cd07535cb951730646c9e1932174200f9d9f54c97050fb369dc063886b25397664736f6c634300080c0033",
  "deployedBytecode": "0x608060405234801561001057600080fd5b50600436106101c65760003560e01c806385aaa397116100fa5780639cd441da1161009d5780639cd441da146104f25780639d67bf0314610505578063c9ca629b14610518578063d2f7265a1461052b578063dba4915314610552578063e7a4993114610564578063e8fa204f14610577578063f22897521461058a578063f2fde38b1461059557600080fd5b806385aaa3971461045a57806388e27dfb146104875780638da5cb5b146104965780638ee8fe5d146104a7578063933c7979146104af5780639482de1a146104c257806395d89b41146104ca5780639c8f9f23146104df57600080fd5b80636346f32e1161016d5780636346f32e14610322578063715018a6146103715780637452fadd1461037957806374f25689146103815780637640482f146103945780637661ce13146103bc578063796c20b7146103d357806380796d55146103e6578063823f2b041461043357600080fd5b806301e0df12146101cb57806306f429b8146101e05780630e06e4d014610206578063186f181e1461024557806323c8346a146102715780633aa3e6501461028457806356f55170146102ae5780635a2f3d09146102d7575b600080fd5b6101de6101d9366004614b83565b6105a8565b005b6101f36101ee366004614bb0565b61067f565b6040519081526020015b60405180910390f35b61022d7f000000000000000000000000000000000000000000000000000000000000000081565b6040516001600160a01b0390911681526020016101fd565b60195461025c90600160501b900463ffffffff1681565b60405163ffffffff90911681526020016101fd565b6101de61027f366004614c10565b6107c4565b60195461029a906301000000900462ffffff1681565b60405162ffffff90911681526020016101fd565b6102c16102bc366004614c47565b6108b7565b60405164ffffffffff90911681526020016101fd565b6003546004546005546006546007546008546102f595949392919086565b604080519687526020870195909552938501929092526060840152608083015260a082015260c0016101fd565b601a546103609062ffffff8082169163010000008104821691600160301b8204811691600160481b810490911690600160601b900463ffffffff1685565b6040516101fd959493929190614c7a565b6101de610a7a565b6101f3610a8e565b6101de61038f366004614b83565b610ab7565b6103a76103a2366004614cae565b610b87565b604080519283526020830191909152016101fd565b60195461025c90600160301b900463ffffffff1681565b6101de6103e1366004614cd9565b610b9e565b6103f96103f4366004614bb0565b610cbd565b6040516101fd919081518152602080830151908201526040808301519082015260609182015164ffffffffff169181019190915260800190565b61022d7f000000000000000000000000000000000000000000000000000000000000000081565b600c54600d54600e5461046c92919083565b604080519384526020840192909252908201526060016101fd565b60195461029a9062ffffff1681565b6001546001600160a01b031661022d565b6101f3610eb7565b6103a76104bd366004614cf6565b610ed7565b6008546101f3565b6104d2610efd565b6040516101fd9190614d4e565b6103a76104ed366004614cae565b610f8b565b61046c610500366004614d81565b611032565b6101de610513366004614cd9565b611139565b61046c610526366004614c10565b61120f565b61022d7f000000000000000000000000000000000000000000000000000000000000000081565b600954600a54600b5461046c92919083565b6101de610572366004614da3565b6112b7565b6101f3610585366004614db5565b61151a565b6006546007546103a7565b6101de6105a3366004614df8565b611530565b6105b06115ce565b600260005414156105dc5760405162461bcd60e51b81526004016105d390614e21565b60405180910390fd5b600260005561c35062ffffff8216111561062d5760405162461bcd60e51b8152602060048201526012602482015271504d5f535046523a20746f6f206c6172676560701b60448201526064016105d3565b6019805462ffffff191662ffffff83169081179091556040519081527ff02c81debd01d238f7814ac27bec8a7970b5271dc47842a419737b1ae313ca0f906020015b60405180910390a1506001600055565b60008061068d868685611628565b509050808411156106da5760405162461bcd60e51b8152602060048201526017602482015276141357d414ce881d1bdbc81b185c99d948185b5bdd5b9d604a1b60448201526064016105d3565b6000610722876106eb57600f6106ee565b60135b6040805160a0810182528a15158152891515602082015290810188905260006060820152600854608082015261177161179c565b600354600454604080516080810182528b151581528a1515602082015260195462ffffff169181019190915260608101899052929350610763926000611c4e565b92508615158615151480159061079857816060015182602001516107879190614e6e565b6107919085614e6e565b93506107b9565b816080015182604001516107ac9190614e6e565b6107b69085614e6e565b93505b505050949350505050565b6107cc611d57565b600260005414156107ef5760405162461bcd60e51b81526004016105d390614e21565b6002600055604051632ec0b78b60e11b8152600f6004820152821515602482015264ffffffffff8216604482015273__$52dce10bb0994e0b74d4a2856cc70476a1$__90635d816f169060640160006040518083038186803b15801561085457600080fd5b505af4158015610868573d6000803e3d6000fd5b505060408051851515815264ffffffffff851660208201527ff61aa5333bf001aa89f4bfa6ccaf123eec86eada7fd1c6c366227102507f89cd935001905060405180910390a150506001600055565b60006108c1611d57565b600260005414156108e45760405162461bcd60e51b81526004016105d390614e21565b600260009081556108f3610a8e565b9050841561094857808311156109435760405162461bcd60e51b8152602060048201526015602482015274141357d0d313ce881c1bdcdd081bdb9b1e48189a59605a1b60448201526064016105d3565b610990565b808310156109905760405162461bcd60e51b8152602060048201526015602482015274504d5f434c4f3a20706f7374206f6e6c792061736b60581b60448201526064016105d3565b6040516383818a6f60e01b8152600f60048201528515156024820152604481018590526064810184905273__$52dce10bb0994e0b74d4a2856cc70476a1$__906383818a6f90608401602060405180830381865af41580156109f6573d6000803e3d6000fd5b505050506040513d601f19601f82011682018060405250810190610a1a9190614e86565b6040805187151581526020810187905290810185905264ffffffffff821660608201529092507f7f6ce27b6803b5b961a441dac0f55de214751acfb64178849efb01fdb71c620b9060800160405180910390a15060016000559392505050565b610a826115ce565b610a8c6000611dcf565b565b600354600090610a9e5750600090565b600354600454600854610ab2929190611e21565b905090565b610abf6115ce565b60026000541415610ae25760405162461bcd60e51b81526004016105d390614e21565b6002600055620186a062ffffff82161115610b355760405162461bcd60e51b8152602060048201526013602482015272504d5f53464d50523a20746f6f206c6172676560681b60448201526064016105d3565b6019805465ffffff0000001916630100000062ffffff8416908102919091179091556040519081527f55647f4dd43ac173f04e53a506df46454012316d82fb04a9c1dbd8e0f21f8f769060200161066f565b600080610b95600384611e3b565b91509150915091565b610ba66115ce565b60026000541415610bc95760405162461bcd60e51b81526004016105d390614e21565b600260005562093a8063ffffffff82161115610c1c5760405162461bcd60e51b8152602060048201526012602482015271504d5f534652533a20746f6f206c6172676560701b60448201526064016105d3565b610e108163ffffffff161015610c695760405162461bcd60e51b8152602060048201526012602482015271141357d4d19494ce881d1bdbc81cdb585b1b60721b60448201526064016105d3565b6019805463ffffffff60501b1916600160501b63ffffffff8416908102919091179091556040519081527fa703b265f29064a106acd6473c258e009bff9ac0bfd63b6f5ca4b712a25c85169060200161066f565b610cef6040518060800160405280600081526020016000815260200160008152602001600064ffffffffff1681525090565b610cf7611d57565b60026000541415610d1a5760405162461bcd60e51b81526004016105d390614e21565b6002600090815580610d2d878786611628565b9150915081851115610d7a5760405162461bcd60e51b8152602060048201526016602482015275141357d4ce881d1bdbc81b185c99d948185b5bdd5b9d60521b60448201526064016105d3565b610d82614b43565b8715610dcd576040805160a08101825289151581528815156020820152908101879052600060608201526008546080820152610dc690600f90611771611e6f611eab565b9050610e0e565b6040805160a08101825289151581528815156020820152908101879052600060608201526008546080820152610e0b90600f90611771611e6f611eab565b90505b6040518060800160405280826000015181526020018260200151815260200182604001518152602001826060015164ffffffffff168152509350610e53600c8361215f565b8351604080518a1515815289151560208201528082018990526060810192909252517fdedf81f778c63a97f5a04bfeae9e0e04f18d283b04d930ea7b6af78b6eb50b769181900360800190a1610ea7612186565b5050600160005550949350505050565b600354600090610ec75750600090565b600354600454610ab291906122c5565b600080610ef060038001546003600401548787876122df565b915091505b935093915050565b60028054610f0a90614ea3565b80601f0160208091040260200160405190810160405280929190818152602001828054610f3690614ea3565b8015610f835780601f10610f5857610100808354040283529160200191610f83565b820191906000526020600020905b815481529060010190602001808311610f6657829003601f168201915b505050505081565b600080610f96611d57565b60026000541415610fb95760405162461bcd60e51b81526004016105d390614e21565b60026000556040805160208101909152838152610fd89060039061234d565b604080518381526020810183905290810186905291935091507f0bb89aa54ed6940a7e7167bd262b2400d63945045ceff1a52a05f2601ed215f19060600160405180910390a1611026612186565b60016000559092909150565b600080600061103f611d57565b600260005414156110625760405162461bcd60e51b81526004016105d390614e21565b60026000556005546110ba576110ba7f00000000000000000000000000000000000000000000000000000000000000007f00000000000000000000000000000000000000000000000000000000000000008787612464565b6110d96003604051806040016040528088815260200187815250612678565b604080518481526020810184905290810182905292955090935091507fd7f28048575eead8851d024ead087913957dfb4fd1a02b4d1573f5352a5a2be39060600160405180910390a161112a612186565b60016000819055509250925092565b6111416115ce565b600260005414156111645760405162461bcd60e51b81526004016105d390614e21565b600260005562093a8063ffffffff821611156111b85760405162461bcd60e51b8152602060048201526013602482015272504d5f53464d45533a20746f6f206c6172676560681b60448201526064016105d3565b6019805469ffffffff0000000000001916600160301b63ffffffff8416908102919091179091556040519081527f5b18da8898c1e492e6bc631eec59d143ebba7f31ca794b668f0bfa9b0d9892939060200161066f565b6040516399d5040960e01b8152600f6004820152821515602482015264ffffffffff821660448201526000908190819073__$52dce10bb0994e0b74d4a2856cc70476a1$__906399d5040990606401606060405180830381865af415801561127b573d6000803e3d6000fd5b505050506040513d601f19601f8201168201806040525081019061129f9190614ed8565b65ffffffffffff9092169450925090505b9250925092565b6112bf6115ce565b600260005414156112e25760405162461bcd60e51b81526004016105d390614e21565b60026000556207a1206112fb6040830160208401614b83565b62ffffff16111561134e5760405162461bcd60e51b815260206004820152601e60248201527f50455f53504c433a20746f6f206c61726765206c69717569646174696f6e000060448201526064016105d3565b61135e6040820160208301614b83565b62ffffff166113706020830183614b83565b62ffffff1611156113b65760405162461bcd60e51b815260206004820152601060248201526f141157d4d41310ce881a5b9d985b1a5960821b60448201526064016105d3565b620f42406113ca6080830160608401614b83565b62ffffff161061141c5760405162461bcd60e51b815260206004820152601a60248201527f50455f53504c433a20656d6120746f6f206c61726765206c697100000000000060448201526064016105d3565b61142c6080820160608301614b83565b62ffffff166114416060830160408401614b83565b62ffffff16111561148b5760405162461bcd60e51b8152602060048201526014602482015273141157d4d41310ce88195b58481a5b9d985b1a5960621b60448201526064016105d3565b80601a6114988282614f27565b507fbe7eee05a638b28e8473a6f87ae310d3123f8a2a7561ce96e140f76125f7461290506114c96020830183614b83565b6114d96040840160208501614b83565b6114e96060850160408601614b83565b6114f96080860160608701614b83565b61150960a0870160808801614cd9565b60405161066f959493929190614c7a565b6000611527848484611628565b50949350505050565b6115386115ce565b6001600160a01b03811661159d5760405162461bcd60e51b815260206004820152602660248201527f4f776e61626c653a206e6577206f776e657220697320746865207a65726f206160448201526564647265737360d01b60648201526084016105d3565b6115a681611dcf565b50565b6001600160a01b03163b151590565b42600290910155565b600160601b600590910155565b6001546001600160a01b03163314610a8c5760405162461bcd60e51b815260206004820181905260248201527f4f776e61626c653a2063616c6c6572206973206e6f7420746865206f776e657260448201526064016105d3565b600061164e60405180606001604052806000815260200160008152602001600081525090565b60055461165e5760009150610ef5565b6000611668610eb7565b9050611677600c601a8361283d565b9150600061169283600001518460400151601a888b1561290c565b6003546004546019549293506116b1928a908a9062ffffff16866129ba565b935073__$52dce10bb0994e0b74d4a2856cc70476a1$__63b2041ed9886116d957600f6116dc565b60135b60085460405160e084901b6001600160e01b031916815260048101929092528a15156024830152891515604483015260648201859052608482015260a401602060405180830381865af4158015611737573d6000803e3d6000fd5b505050506040513d601f19601f8201168201806040525081019061175b9190615013565b6117659085614e6e565b93505050935093915050565b6003546004546019546000926117929290918790879062ffffff16876129ba565b90505b9392505050565b6117ea6040518060e001604052806000815260200160008152602001600081526020016000815260200160008152602001600064ffffffffff168152602001600064ffffffffff1681525090565b602083015183518554911515901515149064ffffffffff166000805b64ffffffffff831615611bfc5761187960405180610120016040528060006001600160801b031681526020016000815260200160008152602001600064ffffffffff168152602001600064ffffffffff168152602001600081526020016000815260200160008152602001600081525090565b64ffffffffff8416600090815260018a016020526040902054600160801b90046001600160801b031680825260808901516118b99190600160601b612b1d565b60208083018290528951908a01516118d49263ffffffff8b16565b60408083019190915264ffffffffff80861660008181526001808e01602081815286842054600160281b8104871660608a01908152958552918152600160501b909104851660808801529251909316815260028d0190915291909120015461193c9084614e6e565b60a0820152606081015164ffffffffff1660009081526002808b016020526040909120015461196b9083614e6e565b60c0820152604081015160009086611999576119948360c001518b60800151600160601b612b1d565b61199f565b8260a001515b6119a99190614e6e565b9050808960400151116119e957606082015164ffffffffff166119dd576119d08a86612beb565b64ffffffffff1660a08801525b50606001519250611806565b608082015164ffffffffff908116600090815260028c016020526040808220600190810154938916835291200154611a21919061502c565b611a2b9085614e6e565b60e0830152608082015164ffffffffff90811660009081526002808d01602052604080832082015493891683529091200154611a67919061502c565b611a719084614e6e565b610100830152604082015160009087611aa157611a9c8461010001518c60800151600160601b612b1d565b611aa7565b8360e001515b611ab19190614e6e565b9050808a604001511015611bbe576040830151885260a0830151602089015260c083015160808b0151611ae99190600160601b612b1d565b60408901528615611b2957818a60400151611b04919061502c565b606089018190526020840151611b1f9190600160601b612b1d565b6080890152611b91565b818a60400151611b39919061502c565b608089018190526020840151611b559190600160601b90612b1d565b6060890181905264ffffffffff8716600090815260028d016020526040902054611b8b9190611b869060019061502c565b612d14565b60608901525b611b9b8b87612beb565b64ffffffffff90811660a08a01529590951660c088015250611795945050505050565b8260e0015194508261010001519350826080015164ffffffffff1660001415611bef5764ffffffffff861660a08901525b5050608001519250611806565b602085018290526080870151611c18908290600160601b612b1d565b604086015283611c2c578460400151611c32565b84602001515b8760400151611c41919061502c565b8552505050509392505050565b600080611c62620f42408560400151612d2a565b9050836020015115611cbd576060840151600090611c809083612d90565b855190915015611ca557611c9e8682611c998a82612da5565b612b1d565b9250611cb7565b611cb48782611c998982612da5565b92505b50611d0a565b835115611ce5576060840151611cde908790611cd98882612db1565b612dbd565b9150611cfd565b6060840151611cfa908690611cd98982612db1565b91505b611d078282612e34565b91505b8261152757600082116115275760405162461bcd60e51b8152602060048201526015602482015274504c5f53443a206f7574707574206973207a65726f60581b60448201526064016105d3565b7f00000000000000000000000000000000000000000000000000000000000000006001600160a01b03163314610a8c5760405162461bcd60e51b815260206004820152601d60248201527f504d5f4f453a2063616c6c6572206973206e6f742065786368616e676500000060448201526064016105d3565b600180546001600160a01b038381166001600160a01b0319831681179093556040519116919082907f8be0079c531659141344cd1fd0a4f28419497f9722a3daafe3b4186f6b6457e090600090a35050565b6000611792611e3085856122c5565b600160601b84612b1d565b600080611e518385600001548660020154612b1d565b611e648486600101548760020154612b1d565b915091509250929050565b604080516080810182528415158152831515602082015260195462ffffff16918101919091526060810182905260009061179290600390612e49565b611eb3614b43565b8351600090611ec25785611ec7565b856004015b90506000611ed682878761179c565b805190915015611f0b57855160208701518251611ef892919063ffffffff8816565b83518490611f07908390614e6e565b9052505b602086015186511515901515146000611f218990565b90508260a0015164ffffffffff1660001461200e5760088901805460019190600090611f5690849065ffffffffffff16615043565b82546101009290920a65ffffffffffff818102199093169183160217909155604080516020808201835260808d0151825260088e0154909316600090815260098e0190935291209051905550875115611fc85760a0830151611fc3908590612e8c612e9f612eb786612ecb565b611fe2565b60a0830151611fe2908590612ff0612fff61300c86612ecb565b81611ff1578260200151611ff7565b82604001515b85518690612006908390614e6e565b905250612052565b6020830151156120305760405162461bcd60e51b81526004016105d39061506d565b6040830151156120525760405162461bcd60e51b81526004016105d39061506d565b60c083015164ffffffffff161561210f57606083015160c084015164ffffffffff1660009081526002860160205260408120805490919061209490849061502c565b909155505060c083015188516120be91906120b157612fff6120b5565b612e9f5b86919084613018565b816120cd5782606001516120d3565b82608001515b855186906120e2908390614e6e565b90525060608084015160208701526080840151604087015260c084015164ffffffffff1690860152612153565b6060830151156121315760405162461bcd60e51b81526004016105d39061506d565b6080830151156121535760405162461bcd60e51b81526004016105d39061506d565b50505050949350505050565b602081015161216c575050565b805182556020810151600183015560400151600290910155565b6000612190610a8e565b6040805160c0810182526001600160a01b037f0000000000000000000000000000000000000000000000000000000000000000811682527f000000000000000000000000000000000000000000000000000000000000000016602082015290810182905260195462ffffff6301000000820416606083015263ffffffff600160301b820481166080840152600160501b9091041660a08201529091506000908190819061223f90600990613066565b92509250925082600014156122545750505050565b61225f6003846131ff565b6006546007546040805186815263ffffffff8616602082015290810184905260608101879052608081019290925260a08201527f318daee0b48d1f6a0542d8cdd35e2593d88c4fb01708f4781609494206d070519060c00160405180910390a150505050565b60006122d682600160601b85612b1d565b90505b92915050565b60008060006122ff6122f086613300565b6122f98a613300565b9061336e565b9050600061230f6122f086613300565b905061232a82600160601b6123238a613300565b919061337a565b61233c82600160601b6123238b613300565b9350935050505b9550959350505050565b81546001830154600284015483516000938493909290918490612371908584612b1d565b9050600061238488600001518585612b1d565b90506000821180156123965750600081115b6123da5760405162461bcd60e51b8152602060048201526015602482015274504c5f524c3a206f7574707574206973207a65726f60581b60448201526064016105d3565b6123e48583612db1565b89556123f08482612db1565b60018a01558751600090612405908590612db1565b90506103e88110156124505760405162461bcd60e51b8152602060048201526014602482015273504c5f524c3a206d696e206c697175696469747960601b60448201526064016105d3565b60028a015590955093505050509250929050565b600061246f8561341e565b9050600061247c8561341e565b9050600082116124ce5760405162461bcd60e51b815260206004820152601b60248201527f464c5f56494c503a20696e76616c69642062617365207072696365000000000060448201526064016105d3565b6000811161251e5760405162461bcd60e51b815260206004820152601c60248201527f464c5f56494c503a20696e76616c69642071756f74652070726963650000000060448201526064016105d3565b6000612529876134e4565b90506000612536876134e4565b9050604d60ff8316111561258c5760405162461bcd60e51b815260206004820152601e60248201527f464c5f56494c503a20696e76616c6964206261736520646563696d616c73000060448201526064016105d3565b604d60ff821611156125e05760405162461bcd60e51b815260206004820152601f60248201527f464c5f56494c503a20696e76616c69642071756f746520646563696d616c730060448201526064016105d3565b60006125f186600160601b89612b1d565b9050600061260284848888866135aa565b9050612615600160601b620186a0612d90565b61261e8261362a565b111561266c5760405162461bcd60e51b815260206004820152601b60248201527f464c5f56494c503a20746f6f206661722066726f6d20696e646578000000000060448201526064016105d3565b50505050505050505050565b600282015460009081908190818161274957602086015186516000916126a6916126a19161364e565b61365a565b90506126b4816103e8612db1565b8751909250158015906126cb575060008760200151115b80156126d75750600082115b6127235760405162461bcd60e51b815260206004820152601d60248201527f504c5f414c3a20696e697469616c206c6971756964697479207a65726f00000060448201526064016105d3565b8651808955602088015160018a0181905560028a01929092559550935091506112b09050565b865460018801548751602089015160009161276991611b86908686612b1d565b905060006127848a60200151611b868c600001518688612b1d565b905061279f612794838887612b1d565b611b86838987612b1d565b94506000821180156127b15750600081115b80156127bd5750600085115b6128015760405162461bcd60e51b8152602060048201526015602482015274504c5f414c3a206c6971756964697479207a65726f60581b60448201526064016105d3565b61280b8483612da5565b8b556128178382612da5565b60018c01556128268686612da5565b60028c015590975095509193505050509250925092565b61286160405180606001604052806000815260200160008152602001600081525090565b600184015442908082116128845750508354815260028401546040820152611795565b60006128908383612db1565b87549091506128a557604084018590526128fb565b855463ffffffff600160601b9091048116906000906128c89084908490612da516565b90506128f36128d8888584612b1d565b6128ed8b600201548563ffffffff1685612b1d565b90612da5565b604087015250505b505082825260208201529392505050565b6000806129398461292357855462ffffff16612932565b85546301000000900462ffffff165b8890612d90565b9050600061296d85612958578654600160301b900462ffffff16612932565b86548890600160481b900462ffffff16612d90565b905083156129955761298c6129828984612da5565b611b868984612da5565b925050506129b1565b61298c6129a28984612db1565b6129ac8984612db1565b6136ca565b95945050505050565b6000806129ca620f424085612d2a565b905060006129d8898961364e565b90508615612a625760006129f182600160601b87612b1d565b905060006129ff8b8061364e565b9050808211612a15576000945050505050612b13565b6000612a218383612db1565b90506000612a39612a328e88612d90565b8e90612da5565b9050612a57612a4882886136da565b612a5284896136da565b6136ef565b965050505050612ad1565b6000612a738286600160601b612b1d565b90506000612a818a8061364e565b9050808211612a97576000945050505050612b13565b6000612aa38383612db1565b90506000612abb612ab48d88612d90565b8d90612da5565b9050612aca612a4882886136da565b9650505050505b85612b1057612b0d898960405180608001604052808b151581526020016001151581526020018962ffffff168152602001878152506001611c4e565b92505b50505b9695505050505050565b600080806000198587098587029250828110838203039150508060001415612b5857838281612b4e57612b4e615092565b0492505050611795565b838110612b8257604051631dcf306360e21b815260048101829052602481018590526044016105d3565b60008486880960026001871981018816978890046003810283188082028403028082028403028082028403028082028403028082028403029081029092039091026000889003889004909101858311909403939093029303949094049190911702949350505050565b600064ffffffffff8216612c3b5760405162461bcd60e51b81526020600482015260176024820152765242544c5f503a2074617267657420697320656d70747960481b60448201526064016105d3565b64ffffffffff8281166000908152600185016020526040902054600160281b90041615612c965764ffffffffff8083166000908152600185016020526040902054612c8f918591600160281b900416613721565b90506122d9565b5064ffffffffff8082166000908152600184016020526040902054165b64ffffffffff811615801590612cec575064ffffffffff8181166000908152600185016020526040902054600160281b90048116908316145b156122d95764ffffffffff808216600090815260018501602052604090205491925016612cb3565b6000818310612d2357816122d6565b5090919050565b60008262ffffff168262ffffff161115612d865760405162461bcd60e51b815260206004820152601e60248201527f506572704d6174683a207375627472616374696f6e206f766572666c6f77000060448201526064016105d3565b6122d682846150a8565b60006122d6838362ffffff16620f4240612b1d565b60006122d68284614e6e565b60006122d6828461502c565b6000612dca848484612b1d565b905060008280612ddc57612ddc615092565b8486091115611795576000198110612e2a5760405162461bcd60e51b8152602060048201526011602482015270464d5f4d4452553a206f766572666c6f7760781b60448201526064016105d3565b806129b1816150cc565b60006122d683620f42408462ffffff16612dbd565b6000612e6083600001548460010154846000611c4e565b82516020840151855460018701546060870151949550612e809486613775565b60018501559092555090565b6000816129b160048201600187876137f7565b600081612eaf600482018561388d565b949350505050565b80612ec660048201828561399c565b505050565b64ffffffffff8516612f175760405162461bcd60e51b81526020600482015260156024820152745242544c5f524c3a206b657920697320656d70747960581b60448201526064016105d3565b612f2186866139dd565b612f665760405162461bcd60e51b81526020600482015260166024820152751490951317d4930e881ad95e481b9bdd08195e1a5cdd60521b60448201526064016105d3565b6040805160808082018352885464ffffffffff9081168352881660208301529181019190915260608101829052612fa1908790868686613a28565b50865464ffffffffff91821664ffffffffff19918216811789556000908152600189016020526040808220805490931690925597549091168752909520805460ff60781b191690555050505050565b6000816129b1818387876137f7565b600081612eaf818561388d565b80612ec681808561399c565b64ffffffffff8316156130605761303383828463ffffffff16565b1561303d57613060565b64ffffffffff928316600090815260018501602052604090205490921691613018565b50505050565b6000806000804290506000613088876002015483612db190919063ffffffff16565b9050806130a157600080600094509450945050506112b0565b60006130b0876000015161341e565b905060006130c1886020015161341e565b905060006130d289600001516134e4565b905060006130e38a602001516134e4565b8b54909150841480156130f95750828b60010154145b80613102575083155b8061310b575082155b806131195750604d60ff8316115b806131275750604d60ff8216115b156131425760008060009850985098505050505050506112b0565b613156858b6080015163ffffffff16612d14565b945061316185613c57565b9750613174828286868e604001516135aa565b9650600061319b6131968c60600151600160601b612d9090919063ffffffff16565b613300565b90506131b96131aa828a613cbc565b6131b3836150e7565b90613ccb565b97506131e26131c787613300565b8c60a0015163ffffffff168a61337a9092919063ffffffff16565b948c55505050600189015560028801929092555092509250925092565b80613208575050565b60006132138261362a565b9050600082131561327657600183015460006132348284600160601b612b1d565b90506132408282612db1565b856001018190555061326961325e82600160601b8860020154612b1d565b600487015490612da5565b6004860155506132c89050565b8254600061328d8284611c99600160601b82612da5565b90506132998282612db1565b855560028501546132c0906132b5908390600160601b90612b1d565b600387015490612da5565b600386015550505b6132f383600501546132e96132e4856122f9600160601b613300565b613cdb565b600160601b612b1d565b8360050181905550505050565b60006001600160ff1b0382111561336a5760405162461bcd60e51b815260206004820152602860248201527f53616665436173743a2076616c756520646f65736e27742066697420696e2061604482015267371034b73a191a9b60c11b60648201526084016105d3565b5090565b60006122d68284615104565b6000806000851261338b5784613394565b61339485613d2d565b905060008085126133a557846133ae565b6133ae85613d2d565b9050600080871280156133c15750600086135b806133d757506000871380156133d75750600086125b6133e25760006133e5565b60015b905060006133f4848488612b1d565b9050816134095761340481613300565b613412565b61341281613d8b565b98975050505050505050565b60006001600160a01b03821661343657506001919050565b60408051600481526024810182526020810180516001600160e01b0316634c6afee560e11b179052905160009081906001600160a01b0386169061347b908590615143565b600060405180830381855afa9150503d80600081146134b6576040519150601f19603f3d011682016040523d82523d6000602084013e6134bb565b606091505b5091509150816134d057506000949350505050565b808060200190518101906129b19190615013565b60006001600160a01b0382166134fc57506000919050565b60408051600481526024810182526020810180516001600160e01b031663313ce56760e01b179052905160009081906001600160a01b03861690613541908590615143565b600060405180830381855afa9150503d806000811461357c576040519150601f19603f3d011682016040523d82523d6000602084013e613581565b606091505b509150915081613596575060ff949350505050565b808060200190518101906129b1919061515f565b60008160ff87161515806135bf575084600114155b156135dc576135d9816135d389600a615266565b87612b1d565b90505b60ff86161515806135ee575083600114155b15613606576136038185611c9989600a615266565b90505b61361f613616600160601b613300565b6122f983613300565b979650505050505050565b600080821215613645576136406132e483613d2d565b6122d9565b6122d982613cdb565b60006122d68284615275565b600060038211156136bb5750806000613674600283615294565b61367f906001614e6e565b90505b818110156136b55790508060028161369a8186615294565b6136a49190614e6e565b6136ae9190615294565b9050613682565b50919050565b81156136c5575060015b919050565b600081831015612d2357816122d6565b60006122d683620f42408462ffffff16612b1d565b60006122d6600261371b856137156126a161370b88600461364e565b6128ed8a8061364e565b90612db1565b90613d9f565b60005b64ffffffffff8281166000908152600185016020526040902054600160501b900416156136b55764ffffffffff9182166000908152600184016020526040902054600160501b900490911690613724565b60008086156137b75787156137a15761378e8685612da5565b915061379a8584612db1565b90506137ec565b6137ab8684612db1565b915061379a8585612da5565b87156137d3576137c78684612da5565b915061379a8585612db1565b6137dd8685612db1565b91506137e98584612da5565b90505b965096945050505050565b64ffffffffff828116600090815260018601602052604080822054928416825281205490916001600160801b03600160801b91829004811692919091041680821415613857578364ffffffffff168564ffffffffff161092505050612eaf565b8561387657806001600160801b0316826001600160801b03161061361f565b6001600160801b0390811691161195945050505050565b64ffffffffff808216600090815260028085016020818152604080852060018082015495820154818b01855283882054959094529054600160501b85048816808852838820830154600160281b909604909816808852928720909101549596949592949193919287926138ff91614e6e565b6139099190614e6e565b905060006139178989613dab565b64ffffffffff80851660009081526002808d016020526040808320820154938916835290912001546139499190614e6e565b6139539190614e6e565b9050858214801561396357508481145b9650866139905764ffffffffff881660009081526002808b01602052604090912060018101849055018190555b50505050505092915050565b60089091015464ffffffffff909116600090815260029092016020526040909120600301805465ffffffffffff191665ffffffffffff909216919091179055565b600064ffffffffff8216158015906122d65750825464ffffffffff838116911614806122d657505064ffffffffff908116600090815260019290920160205260409091205416151590565b8351600090819064ffffffffff16613a495750506040840151600090612343565b855164ffffffffff166000908152600188016020526040902054600160781b900460ff16613a78576001613a7b565b60005b86604001818151613a8c91906152b6565b60ff169052508551602087015164ffffffffff90811691161415613af557613ac0866000015187606001518563ffffffff16565b5050835164ffffffffff9081166000908152600187016020526040908190205490860151600160501b90910490911690612343565b613b108660200151876000015188606001518863ffffffff16565b15613bd45760408051608081018252875164ffffffffff908116600090815260018b01602090815284822054600160281b900483168452808b0151909216918301919091528883015160ff1692820192909252606080890151908201528190613b7d908a90898989613a28565b895164ffffffffff808216600090815260018e0160205260409081902054908d015160608e0151959750939550613bc9948e94889493600160501b909304909216918c91889190613df2565b935093505050612343565b613bea866000015187606001518563ffffffff16565b60408051608081018252875164ffffffffff908116600090815260018b0160209081529084902054600160501b900482168352808a0151909116908201528782015160ff169181019190915260608088015190820152613c4e908890878787613a28565b91509150612343565b600063ffffffff82111561336a5760405162461bcd60e51b815260206004820152602660248201527f53616665436173743a2076616c756520646f65736e27742066697420696e203360448201526532206269747360d01b60648201526084016105d3565b6000818312612d2357816122d6565b600081831215612d2357816122d6565b60008082121561336a5760405162461bcd60e51b815260206004820181905260248201527f53616665436173743a2076616c7565206d75737420626520706f73697469766560448201526064016105d3565b6000600160ff1b8213613d825760405162461bcd60e51b815260206004820152601c60248201527f506572704d6174683a20696e76657273696f6e206f766572666c6f770000000060448201526064016105d3565b6122d9826150e7565b6000613d9682613300565b6122d9906150e7565b60006122d68284615294565b64ffffffffff8116600090815260018301602090815260408083205460028601909252822054600160801b9091046001600160801b031690612eaf9082600160601b612b1d565b6000808360ff168560ff161115613ef657613e558a6040518060c001604052808c64ffffffffff1681526020018b64ffffffffff1681526020018a64ffffffffff1681526020018860ff1681526020018760ff16815260200186815250886140e6565b5064ffffffffff8116600090815260018c016020526040902054909250859150600160781b900460ff168015613eba575064ffffffffff828116600090815260018c01602052604080822054600160501b900490921681522054600160781b900460ff165b15613ef15764ffffffffff821660009081526001808c016020526040909120805460ff60781b19169055613eee90826152d9565b90505b6140d9565b8360ff168560ff161015613fed57613f568a6040518060c001604052808c64ffffffffff1681526020018b64ffffffffff1681526020018a64ffffffffff1681526020018860ff1681526020018760ff16815260200186815250886143dc565b64ffffffffff8116600090815260018c016020526040902054909250849150600160781b900460ff168015613eba575064ffffffffff828116600090815260018c01602052604080822054600160281b900490921681522054600160781b900460ff1615613ef15764ffffffffff821660009081526001808c016020526040909120805460ff60781b19169055613eee90826152d9565b64ffffffffff8916600090815260018b016020526040812054600160781b900460ff1615801561403d575064ffffffffff8816600090815260018c016020526040902054600160781b900460ff16155b64ffffffffff8a8116600090815260018e016020526040902080546fff0000000000ffffffffff00000000001916600160781b8415150264ffffffffff60281b191617600160281b8e8416021764ffffffffff60501b1916600160501b928c169290920291909117905590506140b7898563ffffffff8a16565b5088816140c55760016140c8565b60005b6140d290886152d9565b9093509150505b9850989650505050505050565b815164ffffffffff1660009081526001840160205260408120548190600160781b900460ff161580156141265750836080015160ff16846060015160ff16145b156141d8576020808501805164ffffffffff9081166000908152600189019093526040808420805460ff60781b1916600160781b17905587518351831685528185208054918416600160281b0264ffffffffff60281b19909216919091179055808801518351831685529320805493909116600160501b0264ffffffffff60501b19909316929092179091555160a08501516141c6919063ffffffff8616565b50505060208201516060830151610ef5565b6040805160c081018252855164ffffffffff908116600090815260018901602081815285832054600160501b900484168552808a01518416818601528986015184168587015289519093168252909152918220546142819188916060820190600160781b900460ff1661424c57600161424f565b60005b896060015161425e91906152b6565b60ff168152602001886080015160ff1681526020018860a00151815250866140e6565b50855164ffffffffff9081166000908152600189016020526040808220805464ffffffffff60501b1916600160501b868616021790558851909216815220805464ffffffffff19169055855160a08701519192506142e29163ffffffff8716565b50845164ffffffffff166000908152600187016020526040902054600160781b900460ff16158015614333575064ffffffffff81166000908152600187016020526040902054600160781b900460ff165b801561436e575064ffffffffff818116600090815260018801602052604080822054600160501b900490921681522054600160781b900460ff165b156143c95764ffffffffff808216600090815260018801602052604080822054600160501b9004909216815220805460ff60781b19169055845160a08601516143ba918891879061479a565b60608501519092509050610ef5565b5050825160609093015192949293505050565b60408281015164ffffffffff1660009081526001850160205290812054600160781b900460ff1615801561441d5750826080015160ff16836060015160ff16145b15614552576020808401805164ffffffffff9081166000908152600188019093526040808420805460ff60781b1916600160781b17905586518351831685528185208054918416600160281b0264ffffffffff60281b19909216919091179055808701519251821684529092208054918316600160501b0264ffffffffff60501b19909216919091179055835116156144e757602083810151845164ffffffffff9081166000908152600188019093526040909220805464ffffffffff1916929091169190911790555b604083015164ffffffffff16156145305760208381015160408086015164ffffffffff9081166000908152600189019094529220805464ffffffffff1916929091169190911790555b61454683602001518460a001518463ffffffff16565b50506020820151611795565b6040805160c081018252845164ffffffffff908116825260208087015182168184015286840180518316600090815260018a0180845286822054600160281b90048516868801526060808b015160ff90811691880191909152925190941681529290915292812054909261460492889290916080830191600160781b9004166145dc5760016145df565b60005b88608001516145ee91906152b6565b60ff1681526020018760a00151815250856143dc565b6040858101805164ffffffffff908116600090815260018a01602052838120805464ffffffffff60281b1916600160281b878516908102919091179091559251909116815291909120805464ffffffffff19169055909150156146955760408481015164ffffffffff83811660009081526001890160205292909220805464ffffffffff1916929091169190911790555b6146ab84604001518560a001518563ffffffff16565b5060408481015164ffffffffff166000908152600187016020522054600160781b900460ff161580156146fd575064ffffffffff81166000908152600186016020526040902054600160781b900460ff165b8015614738575064ffffffffff818116600090815260018701602052604080822054600160281b900490921681522054600160781b900460ff165b1561478e5764ffffffffff808216600090815260018701602052604080822054600160281b90049092168152819020805460ff60781b1916905584015160a0850151614787918791869061497b565b9050611795565b50505060400151919050565b64ffffffffff80841660008181526001870160205260408082208054600160501b80820487168086529385205495909452600160281b909404851692830264ffffffffff60501b19851617905592919091169080156148205764ffffffffff81811660009081526001890160205260409020805464ffffffffff19169188169190911790555b64ffffffffff83811660009081526001890160205260409020805464ffffffffff1916918416918217905561486957865464ffffffffff191664ffffffffff8416178755614909565b64ffffffffff8281166000908152600189016020526040902054600160281b9004811690871614156148d15764ffffffffff808316600090815260018901602052604090208054918516600160281b0264ffffffffff60281b19909216919091179055614909565b64ffffffffff808316600090815260018901602052604090208054918516600160501b0264ffffffffff60501b199092169190911790555b64ffffffffff838116600081815260018a016020526040808220805464ffffffffff60281b1916600160281b958c1695860217905592815291909120805464ffffffffff19169091179055614962868563ffffffff8816565b5061497183858763ffffffff16565b5050505050505050565b64ffffffffff80841660008181526001870160205260408082208054600160281b80820487168086529385205495909452600160501b909404851692830264ffffffffff60281b1985161790559291909116908015614a015764ffffffffff81811660009081526001890160205260409020805464ffffffffff19169188169190911790555b64ffffffffff83811660009081526001890160205260409020805464ffffffffff19169184169182179055614a4a57865464ffffffffff191664ffffffffff8416178755614aea565b64ffffffffff8281166000908152600189016020526040902054600160501b900481169087161415614ab25764ffffffffff808316600090815260018901602052604090208054918516600160501b0264ffffffffff60501b19909216919091179055614aea565b64ffffffffff808316600090815260018901602052604090208054918516600160281b0264ffffffffff60281b199092169190911790555b64ffffffffff838116600081815260018a016020526040808220805464ffffffffff60501b1916600160501b958c1695860217905592815291909120805464ffffffffff19169091179055614962868563ffffffff8816565b6040518060800160405280600081526020016000815260200160008152602001600064ffffffffff1681525090565b62ffffff811681146115a657600080fd5b600060208284031215614b9557600080fd5b813561179581614b72565b803580151581146136c557600080fd5b60008060008060808587031215614bc657600080fd5b614bcf85614ba0565b9350614bdd60208601614ba0565b925060408501359150614bf260608601614ba0565b905092959194509250565b64ffffffffff811681146115a657600080fd5b60008060408385031215614c2357600080fd5b614c2c83614ba0565b91506020830135614c3c81614bfd565b809150509250929050565b600080600060608486031215614c5c57600080fd5b614c6584614ba0565b95602085013595506040909401359392505050565b62ffffff958616815293851660208501529184166040840152909216606082015263ffffffff909116608082015260a00190565b600060208284031215614cc057600080fd5b5035919050565b63ffffffff811681146115a657600080fd5b600060208284031215614ceb57600080fd5b813561179581614cc7565b600080600060608486031215614d0b57600080fd5b505081359360208301359350604090920135919050565b60005b83811015614d3d578181015183820152602001614d25565b838111156130605750506000910152565b6020815260008251806020840152614d6d816040850160208701614d22565b601f01601f19169190910160400192915050565b60008060408385031215614d9457600080fd5b50508035926020909101359150565b600060a082840312156136b557600080fd5b600080600060608486031215614dca57600080fd5b614dd384614ba0565b9250614de160208501614ba0565b9150614def60408501614ba0565b90509250925092565b600060208284031215614e0a57600080fd5b81356001600160a01b038116811461179557600080fd5b6020808252601f908201527f5265656e7472616e637947756172643a207265656e7472616e742063616c6c00604082015260600190565b634e487b7160e01b600052601160045260246000fd5b60008219821115614e8157614e81614e58565b500190565b600060208284031215614e9857600080fd5b815161179581614bfd565b600181811c90821680614eb757607f821691505b602082108114156136b557634e487b7160e01b600052602260045260246000fd5b600080600060608486031215614eed57600080fd5b835165ffffffffffff81168114614f0357600080fd5b602085015160409095015190969495509392505050565b600081356122d981614cc7565b8135614f3281614b72565b62ffffff8116905081548162ffffff1982161783556020840135614f5581614b72565b65ffffff0000008160181b169050808365ffffffffffff198416171784556040850135614f8181614b72565b68ffffff0000000000008160301b1690508368ffffffffffffffffff1984161793508084831717855560608601359250614fba83614b72565b62ffffff60481b1993909316179190911760489190911b62ffffff60481b1617815561500f614feb60808401614f1a565b82805463ffffffff60601b191660609290921b63ffffffff60601b16919091179055565b5050565b60006020828403121561502557600080fd5b5051919050565b60008282101561503e5761503e614e58565b500390565b600065ffffffffffff80831681851680830382111561506457615064614e58565b01949350505050565b6020808252600b908201526a3732bb32b91037b1b1bab960a91b604082015260600190565b634e487b7160e01b600052601260045260246000fd5b600062ffffff838116908316818110156150c4576150c4614e58565b039392505050565b60006000198214156150e0576150e0614e58565b5060010190565b6000600160ff1b8214156150fd576150fd614e58565b5060000390565b60008083128015600160ff1b85018412161561512257615122614e58565b6001600160ff1b038401831381161561513d5761513d614e58565b50500390565b60008251615155818460208701614d22565b9190910192915050565b60006020828403121561517157600080fd5b815160ff8116811461179557600080fd5b600181815b808511156151bd5781600019048211156151a3576151a3614e58565b808516156151b057918102915b93841c9390800290615187565b509250929050565b6000826151d4575060016122d9565b816151e1575060006122d9565b81600181146151f757600281146152015761521d565b60019150506122d9565b60ff84111561521257615212614e58565b50506001821b6122d9565b5060208310610133831016604e8410600b8410161715615240575081810a6122d9565b61524a8383615182565b806000190482111561525e5761525e614e58565b029392505050565b60006122d660ff8416836151c5565b600081600019048311821515161561528f5761528f614e58565b500290565b6000826152b157634e487b7160e01b600052601260045260246000fd5b500490565b600060ff821660ff8416808210156152d0576152d0614e58565b90039392505050565b600060ff821660ff84168060ff038211156152f6576152f6614e58565b01939250505056fea2646970667358221220cd07535cb951730646c9e1932174200f9d9f54c97050fb369dc063886b25397664736f6c634300080c0033",
  "libraries": {
    "OrderBookLibrary": "0xf2f4343C128c133f539b2Ac5D80Ed851C3285131"
  },
  "devdoc": {
    "kind": "dev",
    "methods": {
      "owner()": {
        "details": "Returns the address of the current owner."
      },
      "renounceOwnership()": {
        "details": "Leaves the contract without owner. It will not be possible to call `onlyOwner` functions anymore. Can only be called by the current owner. NOTE: Renouncing ownership will leave the contract without an owner, thereby removing any functionality that is only available to the owner."
      },
      "transferOwnership(address)": {
        "details": "Transfers ownership of the contract to a new account (`newOwner`). Can only be called by the current owner."
      }
    },
    "version": 1
  },
  "userdoc": {
    "errors": {
      "PRBMath__MulDivOverflow(uint256,uint256)": [
        {
          "notice": "Emitted when the result overflows uint256."
        }
      ]
    },
    "kind": "user",
    "methods": {},
    "version": 1
  },
  "storageLayout": {
    "storage": [
      {
        "astId": 925,
        "contract": "contracts/PerpdexMarket.sol:PerpdexMarket",
        "label": "_status",
        "offset": 0,
        "slot": "0",
        "type": "t_uint256"
      },
      {
        "astId": 550,
        "contract": "contracts/PerpdexMarket.sol:PerpdexMarket",
        "label": "_owner",
        "offset": 0,
        "slot": "1",
        "type": "t_address"
      },
      {
        "astId": 7627,
        "contract": "contracts/PerpdexMarket.sol:PerpdexMarket",
        "label": "symbol",
        "offset": 0,
        "slot": "2",
        "type": "t_string_storage"
      },
      {
        "astId": 7637,
        "contract": "contracts/PerpdexMarket.sol:PerpdexMarket",
        "label": "poolInfo",
        "offset": 0,
        "slot": "3",
        "type": "t_struct(PoolInfo)12633_storage"
      },
      {
        "astId": 7640,
        "contract": "contracts/PerpdexMarket.sol:PerpdexMarket",
        "label": "fundingInfo",
        "offset": 0,
        "slot": "9",
        "type": "t_struct(FundingInfo)12620_storage"
      },
      {
        "astId": 7643,
        "contract": "contracts/PerpdexMarket.sol:PerpdexMarket",
        "label": "priceLimitInfo",
        "offset": 0,
        "slot": "12",
        "type": "t_struct(PriceLimitInfo)12640_storage"
      },
      {
        "astId": 7646,
        "contract": "contracts/PerpdexMarket.sol:PerpdexMarket",
        "label": "orderBookInfo",
        "offset": 0,
        "slot": "15",
        "type": "t_struct(OrderBookInfo)12688_storage"
      },
      {
        "astId": 7649,
        "contract": "contracts/PerpdexMarket.sol:PerpdexMarket",
        "label": "poolFeeRatio",
        "offset": 0,
        "slot": "25",
        "type": "t_uint24"
      },
      {
        "astId": 7652,
        "contract": "contracts/PerpdexMarket.sol:PerpdexMarket",
        "label": "fundingMaxPremiumRatio",
        "offset": 3,
        "slot": "25",
        "type": "t_uint24"
      },
      {
        "astId": 7655,
        "contract": "contracts/PerpdexMarket.sol:PerpdexMarket",
        "label": "fundingMaxElapsedSec",
        "offset": 6,
        "slot": "25",
        "type": "t_uint32"
      },
      {
        "astId": 7658,
        "contract": "contracts/PerpdexMarket.sol:PerpdexMarket",
        "label": "fundingRolloverSec",
        "offset": 10,
        "slot": "25",
        "type": "t_uint32"
      },
      {
        "astId": 7669,
        "contract": "contracts/PerpdexMarket.sol:PerpdexMarket",
        "label": "priceLimitConfig",
        "offset": 0,
        "slot": "26",
        "type": "t_struct(PriceLimitConfig)12651_storage"
      }
    ],
    "types": {
      "t_address": {
        "encoding": "inplace",
        "label": "address",
        "numberOfBytes": "20"
      },
      "t_bool": {
        "encoding": "inplace",
        "label": "bool",
        "numberOfBytes": "1"
      },
      "t_mapping(t_uint40,t_struct(Node)19263_storage)": {
        "encoding": "mapping",
        "key": "t_uint40",
        "label": "mapping(uint40 => struct BokkyPooBahsRedBlackTreeLibrary.Node)",
        "numberOfBytes": "32",
        "value": "t_struct(Node)19263_storage"
      },
      "t_mapping(t_uint40,t_struct(OrderInfo)12660_storage)": {
        "encoding": "mapping",
        "key": "t_uint40",
        "label": "mapping(uint40 => struct MarketStructs.OrderInfo)",
        "numberOfBytes": "32",
        "value": "t_struct(OrderInfo)12660_storage"
      },
      "t_mapping(t_uint48,t_struct(ExecutionInfo)12674_storage)": {
        "encoding": "mapping",
        "key": "t_uint48",
        "label": "mapping(uint48 => struct MarketStructs.ExecutionInfo)",
        "numberOfBytes": "32",
        "value": "t_struct(ExecutionInfo)12674_storage"
      },
      "t_string_storage": {
        "encoding": "bytes",
        "label": "string",
        "numberOfBytes": "32"
      },
      "t_struct(ExecutionInfo)12674_storage": {
        "encoding": "inplace",
        "label": "struct MarketStructs.ExecutionInfo",
        "members": [
          {
            "astId": 12673,
            "contract": "contracts/PerpdexMarket.sol:PerpdexMarket",
            "label": "baseBalancePerShareX96",
            "offset": 0,
            "slot": "0",
            "type": "t_uint256"
          }
        ],
        "numberOfBytes": "32"
      },
      "t_struct(FundingInfo)12620_storage": {
        "encoding": "inplace",
        "label": "struct MarketStructs.FundingInfo",
        "members": [
          {
            "astId": 12615,
            "contract": "contracts/PerpdexMarket.sol:PerpdexMarket",
            "label": "prevIndexPriceBase",
            "offset": 0,
            "slot": "0",
            "type": "t_uint256"
          },
          {
            "astId": 12617,
            "contract": "contracts/PerpdexMarket.sol:PerpdexMarket",
            "label": "prevIndexPriceQuote",
            "offset": 0,
            "slot": "1",
            "type": "t_uint256"
          },
          {
            "astId": 12619,
            "contract": "contracts/PerpdexMarket.sol:PerpdexMarket",
            "label": "prevIndexPriceTimestamp",
            "offset": 0,
            "slot": "2",
            "type": "t_uint256"
          }
        ],
        "numberOfBytes": "96"
      },
      "t_struct(Node)19263_storage": {
        "encoding": "inplace",
        "label": "struct BokkyPooBahsRedBlackTreeLibrary.Node",
        "members": [
          {
            "astId": 19254,
            "contract": "contracts/PerpdexMarket.sol:PerpdexMarket",
            "label": "parent",
            "offset": 0,
            "slot": "0",
            "type": "t_uint40"
          },
          {
            "astId": 19256,
            "contract": "contracts/PerpdexMarket.sol:PerpdexMarket",
            "label": "left",
            "offset": 5,
            "slot": "0",
            "type": "t_uint40"
          },
          {
            "astId": 19258,
            "contract": "contracts/PerpdexMarket.sol:PerpdexMarket",
            "label": "right",
            "offset": 10,
            "slot": "0",
            "type": "t_uint40"
          },
          {
            "astId": 19260,
            "contract": "contracts/PerpdexMarket.sol:PerpdexMarket",
            "label": "red",
            "offset": 15,
            "slot": "0",
            "type": "t_bool"
          },
          {
            "astId": 19262,
            "contract": "contracts/PerpdexMarket.sol:PerpdexMarket",
            "label": "userData",
            "offset": 16,
            "slot": "0",
            "type": "t_uint128"
          }
        ],
        "numberOfBytes": "32"
      },
      "t_struct(OrderBookInfo)12688_storage": {
        "encoding": "inplace",
        "label": "struct MarketStructs.OrderBookInfo",
        "members": [
          {
            "astId": 12677,
            "contract": "contracts/PerpdexMarket.sol:PerpdexMarket",
            "label": "ask",
            "offset": 0,
            "slot": "0",
            "type": "t_struct(OrderBookSideInfo)12671_storage"
          },
          {
            "astId": 12680,
            "contract": "contracts/PerpdexMarket.sol:PerpdexMarket",
            "label": "bid",
            "offset": 0,
            "slot": "4",
            "type": "t_struct(OrderBookSideInfo)12671_storage"
          },
          {
            "astId": 12682,
            "contract": "contracts/PerpdexMarket.sol:PerpdexMarket",
            "label": "seqExecutionId",
            "offset": 0,
            "slot": "8",
            "type": "t_uint48"
          },
          {
            "astId": 12687,
            "contract": "contracts/PerpdexMarket.sol:PerpdexMarket",
            "label": "executionInfos",
            "offset": 0,
            "slot": "9",
            "type": "t_mapping(t_uint48,t_struct(ExecutionInfo)12674_storage)"
          }
        ],
        "numberOfBytes": "320"
      },
      "t_struct(OrderBookSideInfo)12671_storage": {
        "encoding": "inplace",
        "label": "struct MarketStructs.OrderBookSideInfo",
        "members": [
          {
            "astId": 12663,
            "contract": "contracts/PerpdexMarket.sol:PerpdexMarket",
            "label": "tree",
            "offset": 0,
            "slot": "0",
            "type": "t_struct(Tree)19271_storage"
          },
          {
            "astId": 12668,
            "contract": "contracts/PerpdexMarket.sol:PerpdexMarket",
            "label": "orderInfos",
            "offset": 0,
            "slot": "2",
            "type": "t_mapping(t_uint40,t_struct(OrderInfo)12660_storage)"
          },
          {
            "astId": 12670,
            "contract": "contracts/PerpdexMarket.sol:PerpdexMarket",
            "label": "seqKey",
            "offset": 0,
            "slot": "3",
            "type": "t_uint40"
          }
        ],
        "numberOfBytes": "128"
      },
      "t_struct(OrderInfo)12660_storage": {
        "encoding": "inplace",
        "label": "struct MarketStructs.OrderInfo",
        "members": [
          {
            "astId": 12653,
            "contract": "contracts/PerpdexMarket.sol:PerpdexMarket",
            "label": "base",
            "offset": 0,
            "slot": "0",
            "type": "t_uint256"
          },
          {
            "astId": 12655,
            "contract": "contracts/PerpdexMarket.sol:PerpdexMarket",
            "label": "baseSum",
            "offset": 0,
            "slot": "1",
            "type": "t_uint256"
          },
          {
            "astId": 12657,
            "contract": "contracts/PerpdexMarket.sol:PerpdexMarket",
            "label": "quoteSum",
            "offset": 0,
            "slot": "2",
            "type": "t_uint256"
          },
          {
            "astId": 12659,
            "contract": "contracts/PerpdexMarket.sol:PerpdexMarket",
            "label": "executionId",
            "offset": 0,
            "slot": "3",
            "type": "t_uint48"
          }
        ],
        "numberOfBytes": "128"
      },
      "t_struct(PoolInfo)12633_storage": {
        "encoding": "inplace",
        "label": "struct MarketStructs.PoolInfo",
        "members": [
          {
            "astId": 12622,
            "contract": "contracts/PerpdexMarket.sol:PerpdexMarket",
            "label": "base",
            "offset": 0,
            "slot": "0",
            "type": "t_uint256"
          },
          {
            "astId": 12624,
            "contract": "contracts/PerpdexMarket.sol:PerpdexMarket",
            "label": "quote",
            "offset": 0,
            "slot": "1",
            "type": "t_uint256"
          },
          {
            "astId": 12626,
            "contract": "contracts/PerpdexMarket.sol:PerpdexMarket",
            "label": "totalLiquidity",
            "offset": 0,
            "slot": "2",
            "type": "t_uint256"
          },
          {
            "astId": 12628,
            "contract": "contracts/PerpdexMarket.sol:PerpdexMarket",
            "label": "cumBasePerLiquidityX96",
            "offset": 0,
            "slot": "3",
            "type": "t_uint256"
          },
          {
            "astId": 12630,
            "contract": "contracts/PerpdexMarket.sol:PerpdexMarket",
            "label": "cumQuotePerLiquidityX96",
            "offset": 0,
            "slot": "4",
            "type": "t_uint256"
          },
          {
            "astId": 12632,
            "contract": "contracts/PerpdexMarket.sol:PerpdexMarket",
            "label": "baseBalancePerShareX96",
            "offset": 0,
            "slot": "5",
            "type": "t_uint256"
          }
        ],
        "numberOfBytes": "192"
      },
      "t_struct(PriceLimitConfig)12651_storage": {
        "encoding": "inplace",
        "label": "struct MarketStructs.PriceLimitConfig",
        "members": [
          {
            "astId": 12642,
            "contract": "contracts/PerpdexMarket.sol:PerpdexMarket",
            "label": "normalOrderRatio",
            "offset": 0,
            "slot": "0",
            "type": "t_uint24"
          },
          {
            "astId": 12644,
            "contract": "contracts/PerpdexMarket.sol:PerpdexMarket",
            "label": "liquidationRatio",
            "offset": 3,
            "slot": "0",
            "type": "t_uint24"
          },
          {
            "astId": 12646,
            "contract": "contracts/PerpdexMarket.sol:PerpdexMarket",
            "label": "emaNormalOrderRatio",
            "offset": 6,
            "slot": "0",
            "type": "t_uint24"
          },
          {
            "astId": 12648,
            "contract": "contracts/PerpdexMarket.sol:PerpdexMarket",
            "label": "emaLiquidationRatio",
            "offset": 9,
            "slot": "0",
            "type": "t_uint24"
          },
          {
            "astId": 12650,
            "contract": "contracts/PerpdexMarket.sol:PerpdexMarket",
            "label": "emaSec",
            "offset": 12,
            "slot": "0",
            "type": "t_uint32"
          }
        ],
        "numberOfBytes": "32"
      },
      "t_struct(PriceLimitInfo)12640_storage": {
        "encoding": "inplace",
        "label": "struct MarketStructs.PriceLimitInfo",
        "members": [
          {
            "astId": 12635,
            "contract": "contracts/PerpdexMarket.sol:PerpdexMarket",
            "label": "referencePrice",
            "offset": 0,
            "slot": "0",
            "type": "t_uint256"
          },
          {
            "astId": 12637,
            "contract": "contracts/PerpdexMarket.sol:PerpdexMarket",
            "label": "referenceTimestamp",
            "offset": 0,
            "slot": "1",
            "type": "t_uint256"
          },
          {
            "astId": 12639,
            "contract": "contracts/PerpdexMarket.sol:PerpdexMarket",
            "label": "emaPrice",
            "offset": 0,
            "slot": "2",
            "type": "t_uint256"
          }
        ],
        "numberOfBytes": "96"
      },
      "t_struct(Tree)19271_storage": {
        "encoding": "inplace",
        "label": "struct BokkyPooBahsRedBlackTreeLibrary.Tree",
        "members": [
          {
            "astId": 19265,
            "contract": "contracts/PerpdexMarket.sol:PerpdexMarket",
            "label": "root",
            "offset": 0,
            "slot": "0",
            "type": "t_uint40"
          },
          {
            "astId": 19270,
            "contract": "contracts/PerpdexMarket.sol:PerpdexMarket",
            "label": "nodes",
            "offset": 0,
            "slot": "1",
            "type": "t_mapping(t_uint40,t_struct(Node)19263_storage)"
          }
        ],
        "numberOfBytes": "64"
      },
      "t_uint128": {
        "encoding": "inplace",
        "label": "uint128",
        "numberOfBytes": "16"
      },
      "t_uint24": {
        "encoding": "inplace",
        "label": "uint24",
        "numberOfBytes": "3"
      },
      "t_uint256": {
        "encoding": "inplace",
        "label": "uint256",
        "numberOfBytes": "32"
      },
      "t_uint32": {
        "encoding": "inplace",
        "label": "uint32",
        "numberOfBytes": "4"
      },
      "t_uint40": {
        "encoding": "inplace",
        "label": "uint40",
        "numberOfBytes": "5"
      },
      "t_uint48": {
        "encoding": "inplace",
        "label": "uint48",
        "numberOfBytes": "6"
      }
    }
  }
}