{
  "address": "0xF8F527c45EF0628d4FfE94bf0Bc2b49f88A50641",
  "abi": [
    {
      "inputs": [],
      "name": "INTERVAL0",
      "outputs": [
        {
          "internalType": "uint32",
          "name": "",
          "type": "uint32"
        }
      ],
      "stateMutability": "view",
      "type": "function"
    },
    {
      "inputs": [],
      "name": "INTERVAL1",
      "outputs": [
        {
          "internalType": "uint32",
          "name": "",
          "type": "uint32"
        }
      ],
      "stateMutability": "view",
      "type": "function"
    },
    {
      "inputs": [],
      "name": "INTERVAL2",
      "outputs": [
        {
          "internalType": "uint32",
          "name": "",
          "type": "uint32"
        }
      ],
      "stateMutability": "view",
      "type": "function"
    },
    {
      "inputs": [],
      "name": "INTERVAL3",
      "outputs": [
        {
          "internalType": "uint32",
          "name": "",
          "type": "uint32"
        }
      ],
      "stateMutability": "view",
      "type": "function"
    },
    {
      "inputs": [],
      "name": "INTERVAL4",
      "outputs": [
        {
          "internalType": "uint32",
          "name": "",
          "type": "uint32"
        }
      ],
      "stateMutability": "view",
      "type": "function"
    }
  ],
  "transactionHash": "0x1b32f153ac2f9389895bac38946422edb4325389293f92e194c604f153d170d0",
  "args": [],
  "numDeployments": 2,
  "solcInputHash": "419562b4c163dca05159f3108d01f8ad",
  "bytecode": "0x610c4161003a600b82828239805160001a60731461002d57634e487b7160e01b600052600060045260246000fd5b30600052607381538281f3fe73000000000000000000000000000000000000000030146080604052600436106100775760003560e01c80631caa89ce1461007c5780632092c17b1461009e578063477032e4146100c05780634c118ba6146100ca57806396ef77d6146100ea578063b633ff46146100f3578063f914e658146100fc575b600080fd5b81801561008857600080fd5b5061009c610097366004610a36565b610105565b005b6100a6603c81565b60405163ffffffff90911681526020015b60405180910390f35b6100a66201518081565b6100dd6100d8366004610a71565b610231565b6040516100b79190610ab5565b6100a661012c81565b6100a6610e1081565b6100a661384081565b60018401805463ffffffff85811663ffffffff19831617909255603c600081815260208890526040812093909216929082906101419088610b55565b63ffffffff1663ffffffff1681526020019081526020016000209050610168818585610668565b60008061017e88603c868a63ffffffff16610747565b9150915080610190575050505061022b565b6040805160808101825261012c8152610e10602082015261384091810191909152620151806060820152600090815b6004811015610223576101f08b8383600481106101de576101de610b78565b6020020151898d63ffffffff16610747565b945092506101fe8386610799565b8361020f575050505050505061022b565b8294508061021c90610b8e565b90506101bf565b505050505050505b50505050565b60608167ffffffffffffffff81111561024c5761024c610ba7565b60405190808252806020026020018201604052801561029e57816020015b60408051608081018252600080825260208083018290529282018190526060820152825260001990920191018161026a5790505b50905060006102ad8585610b55565b600187015463ffffffff91821692501660006102c98783610b55565b905060005b8581101561065c5760006102ea6102e58387610bbd565b61087a565b90508263ffffffff168163ffffffff16036105c757603c600081815260208c9052604081209161031a9087610b55565b63ffffffff1681526020808201929092526040908101600020815160808101835281546001600160801b038082168352600160801b918290048116958301959095526001909201548085169382019390935291049091166060820152865187908490811061038a5761038a610b78565b602002602001018190525060006103a1603c6108e8565b90505b8963ffffffff168163ffffffff16116105c15763ffffffff8116600090815260208c905260408120816103d78489610b55565b63ffffffff1663ffffffff168152602001908152602001600020905087848151811061040557610405610b78565b6020026020010151600001516001600160801b031660000361045c57805488516001600160801b039091169089908690811061044357610443610b78565b60209081029190910101516001600160801b0390911690525b8060000160109054906101000a90046001600160801b031688858151811061048657610486610b78565b602002602001015160200181815161049e9190610bd0565b6001600160801b031690525087516104f1906104ec908a90879081106104c6576104c6610b78565b60209081029190910101516040015160018401546001600160801b039182169116610959565b610974565b88858151811061050357610503610b78565b6020026020010151604001906001600160801b031690816001600160801b03168152505061057a6104ec89868151811061053f5761053f610b78565b6020026020010151606001516001600160801b03168360010160109054906101000a90046001600160801b03166001600160801b03166109dd565b88858151811061058c5761058c610b78565b6020026020010151606001906001600160801b031690816001600160801b0316815250506105b9826108e8565b9150506103a4565b5061064b565b63ffffffff808a16600090815260208c81526040808320938516835292815290829020825160808101845281546001600160801b038082168352600160801b91829004811694830194909452600190920154808416948201949094529204166060820152865187908490811061063f5761063f610b78565b60200260200101819052505b5061065581610b8e565b90506102ce565b50505050949350505050565b61067182610974565b83546001600160801b0319166001600160801b039190911617835561069581610974565b835484906010906106b7908490600160801b90046001600160801b0316610bd0565b82546101009290920a6001600160801b0381810219909316918316021790915560018501546106ec92506104ec911684610959565b6001840180546001600160801b0319166001600160801b039283161790819055610722916104ec91600160801b900416846109dd565b600190930180546001600160801b03948516600160801b029416939093179092555050565b600080806107558686610b55565b905061076763ffffffff871685610bf7565b63ffffffff96871660009081526020988952604080822098909316808252979098529620969590941415949350505050565b805482546001600160801b0319166001600160801b03918216178084558254600160801b9081900483169285926010926107d99286929190910416610bd0565b82546101009290920a6001600160801b038181021990931691831602179091556001848101549084015461081693506104ec929182169116610959565b600183810180546001600160801b0319166001600160801b03938416179081905590830154610856926104ec92600160801b9081900482169204166109dd565b600190920180546001600160801b03938416600160801b0293169290921790915550565b600063ffffffff8211156108e45760405162461bcd60e51b815260206004820152602660248201527f53616665436173743a2076616c756520646f65736e27742066697420696e203360448201526532206269747360d01b60648201526084015b60405180910390fd5b5090565b6000603b1963ffffffff831601610902575061012c919050565b61012b1963ffffffff83160161091b5750610e10919050565b610e0f1963ffffffff8316016109345750613840919050565b61383f1963ffffffff83160161094e575062015180919050565b5063ffffffff919050565b600081831015610969578161096b565b825b90505b92915050565b60006001600160801b038211156108e45760405162461bcd60e51b815260206004820152602760248201527f53616665436173743a2076616c756520646f65736e27742066697420696e20316044820152663238206269747360c81b60648201526084016108db565b6000826000036109ee57508061096e565b816000036109fd57508161096e565b610a078383610a0e565b905061096e565b6000818310610969578161096b565b803563ffffffff81168114610a3157600080fd5b919050565b60008060008060808587031215610a4c57600080fd5b84359350610a5c60208601610a1d565b93969395505050506040820135916060013590565b60008060008060808587031215610a8757600080fd5b84359350610a9760208601610a1d565b9250610aa560408601610a1d565b9396929550929360600135925050565b602080825282518282018190526000919060409081850190868401855b82811015610b1c57815180516001600160801b0390811686528782015181168887015286820151811687870152606091820151169085015260809093019290850190600101610ad2565b5091979650505050505050565b634e487b7160e01b600052601260045260246000fd5b634e487b7160e01b600052601160045260246000fd5b600063ffffffff80841680610b6c57610b6c610b29565b92169190910492915050565b634e487b7160e01b600052603260045260246000fd5b600060018201610ba057610ba0610b3f565b5060010190565b634e487b7160e01b600052604160045260246000fd5b8082018082111561096e5761096e610b3f565b6001600160801b03818116838216019080821115610bf057610bf0610b3f565b5092915050565b600082610c0657610c06610b29565b50049056fea26469706673582212205b71d1277e87bda5e2e71daa6b245a1e72ec039f04b4f0c17cacec86d113880264736f6c63430008100033",
  "devdoc": {
    "kind": "dev",
    "methods": {},
    "version": 1
  },
  "userdoc": {
    "kind": "user",
    "methods": {},
    "version": 1
  },
  "storageLayout": {
    "storage": [],
    "types": null
  }
}