{
  "address": "0x37c30eC19a984c3Ba2bE7b8b5Bd1B1bDE51b9946",
  "abi": [
    {
      "inputs": [],
      "name": "MAX_DECIMALS",
      "outputs": [
        {
          "internalType": "uint8",
          "name": "",
          "type": "uint8"
        }
      ],
      "stateMutability": "view",
      "type": "function"
    },
    {
      "inputs": [
        {
          "internalType": "address",
          "name": "priceFeedBase",
          "type": "address"
        },
        {
          "internalType": "address",
          "name": "priceFeedQuote",
          "type": "address"
        },
        {
          "internalType": "uint256",
          "name": "base",
          "type": "uint256"
        },
        {
          "internalType": "uint256",
          "name": "quote",
          "type": "uint256"
        }
      ],
      "name": "validateInitialLiquidityPrice",
      "outputs": [],
      "stateMutability": "view",
      "type": "function"
    }
  ],
  "transactionHash": "0x367d8bdc6290adc3ee4269c1c9958bd40753e0ca8fa5a28f8cd835dfccc163c7",
  "args": [],
  "numDeployments": 3,
  "solcInputHash": "63db67fdb24b64bd5e8de54dcd920702",
  "bytecode": "0x610dbf61003a600b82828239805160001a60731461002d57634e487b7160e01b600052600060045260246000fd5b30600052607381538281f3fe73000000000000000000000000000000000000000030146080604052600436106100565760003560e01c80630417cf8e1461005b5780631714ca701461007a5780633f0387d9146100a057806354a4e2b9146100e0575b600080fd5b610063604d81565b60405160ff90911681526020015b60405180910390f35b81801561008657600080fd5b5061009e610095366004610a45565b42600290910155565b005b8180156100ac57600080fd5b506100c06100bb366004610aa1565b6100f3565b6040805193845263ffffffff909216602084015290820152606001610071565b61009e6100ee366004610b67565b610290565b60008060008042905060006101158760020154836104a590919063ffffffff16565b9050806000036101315760008060009450945094505050610289565b600061014087600001516104ba565b9050600061015188602001516104ba565b905060006101628960000151610589565b905060006101738a60200151610589565b8b54909150841480156101895750828b60010154145b80610192575083155b8061019b575082155b806101a95750604d60ff8316115b806101b75750604d60ff8216115b156101d2576000806000985098509850505050505050610289565b6101e6858b6080015163ffffffff1661064f565b94506101f185610665565b9750610204828286868e604001516106ce565b9650600061022b6102268c60600151600160601b61075990919063ffffffff16565b61076e565b905061024961023a828a6107d8565b61024383610bbf565b906107e7565b97506102726102578761076e565b8c60a0015163ffffffff168a6107f79092919063ffffffff16565b948c55505050600189015560028801929092555092505b9250925092565b600061029b856104ba565b905060006102a8856104ba565b9050600082116102fd5760405162461bcd60e51b815260206004820152601b60248201527a464c5f56494c503a20696e76616c6964206261736520707269636560281b60448201526064015b60405180910390fd5b6000811161034d5760405162461bcd60e51b815260206004820152601c60248201527f464c5f56494c503a20696e76616c69642071756f74652070726963650000000060448201526064016102f4565b600061035887610589565b9050600061036587610589565b9050604d60ff831611156103bb5760405162461bcd60e51b815260206004820152601e60248201527f464c5f56494c503a20696e76616c6964206261736520646563696d616c73000060448201526064016102f4565b604d60ff8216111561040f5760405162461bcd60e51b815260206004820152601f60248201527f464c5f56494c503a20696e76616c69642071756f746520646563696d616c730060448201526064016102f4565b600061042086600160601b8961089d565b9050600061043184848888866106ce565b9050610444600160601b620186a0610759565b61044d8261094c565b11156104995760405162461bcd60e51b815260206004820152601b60248201527a08c98beac9298a07440e8dede40ccc2e440cce4deda40d2dcc8caf602b1b60448201526064016102f4565b50505050505050505050565b60006104b18284610bdb565b90505b92915050565b60006001600160a01b0382166104d257506001919050565b60408051600481526024810182526020810180516001600160e01b0316634c6afee560e11b179052905160009081906001600160a01b03861690610517908590610bee565b600060405180830381855afa9150503d8060008114610552576040519150601f19603f3d011682016040523d82523d6000602084013e610557565b606091505b50915091508161056c57506000949350505050565b808060200190518101906105809190610c1d565b95945050505050565b60006001600160a01b0382166105a157506000919050565b60408051600481526024810182526020810180516001600160e01b031663313ce56760e01b179052905160009081906001600160a01b038616906105e6908590610bee565b600060405180830381855afa9150503d8060008114610621576040519150601f19603f3d011682016040523d82523d6000602084013e610626565b606091505b50915091508161063b575060ff949350505050565b808060200190518101906105809190610c36565b600081831061065e57816104b1565b5090919050565b600063ffffffff8211156106ca5760405162461bcd60e51b815260206004820152602660248201527f53616665436173743a2076616c756520646f65736e27742066697420696e203360448201526532206269747360d01b60648201526084016102f4565b5090565b60008160ff87161515806106e3575084600114155b15610700576106fd816106f789600a610d3d565b8761089d565b90505b60ff8616151580610712575083600114155b1561072f5761072c818561072789600a610d3d565b61089d565b90505b61074e61073f600160601b61076e565b6107488361076e565b90610975565b979650505050505050565b60006104b1838362ffffff16620f424061089d565b60006001600160ff1b038211156106ca5760405162461bcd60e51b815260206004820152602860248201527f53616665436173743a2076616c756520646f65736e27742066697420696e2061604482015267371034b73a191a9b60c11b60648201526084016102f4565b600081831261065e57816104b1565b60008183121561065e57816104b1565b600080600085126108085784610811565b61081185610981565b90506000808512610822578461082b565b61082b85610981565b90506000808712801561083e5750600086135b8061085457506000871380156108545750600086125b61085f576000610862565b60015b9050600061087184848861089d565b905081610886576108818161076e565b61088f565b61088f816109df565b9450505050505b9392505050565b60008080600019858709858702925082811083820303915050806000036108d7578382816108cd576108cd610d4c565b0492505050610896565b8084116108e357600080fd5b60008486880960026001871981018816978890046003810283188082028403028082028403028082028403028082028403028082028403029081029092039091026000889003889004909101858311909403939093029303949094049190911702949350505050565b60008082121561096c5761096761096283610981565b6109f3565b6104b4565b6104b4826109f3565b60006104b18284610d62565b6000600160ff1b82136109d65760405162461bcd60e51b815260206004820152601c60248201527f506572704d6174683a20696e76657273696f6e206f766572666c6f770000000060448201526064016102f4565b6104b482610bbf565b60006109ea8261076e565b6104b490610bbf565b6000808212156106ca5760405162461bcd60e51b815260206004820181905260248201527f53616665436173743a2076616c7565206d75737420626520706f73697469766560448201526064016102f4565b600060208284031215610a5757600080fd5b5035919050565b80356001600160a01b0381168114610a7557600080fd5b919050565b803562ffffff81168114610a7557600080fd5b803563ffffffff81168114610a7557600080fd5b60008082840360e0811215610ab557600080fd5b8335925060c0601f1982011215610acb57600080fd5b5060405160c0810181811067ffffffffffffffff82111715610afd57634e487b7160e01b600052604160045260246000fd5b604052610b0c60208501610a5e565b8152610b1a60408501610a5e565b602082015260608401356040820152610b3560808501610a7a565b6060820152610b4660a08501610a8d565b6080820152610b5760c08501610a8d565b60a0820152809150509250929050565b60008060008060808587031215610b7d57600080fd5b610b8685610a5e565b9350610b9460208601610a5e565b93969395505050506040820135916060013590565b634e487b7160e01b600052601160045260246000fd5b6000600160ff1b8201610bd457610bd4610ba9565b5060000390565b818103818111156104b4576104b4610ba9565b6000825160005b81811015610c0f5760208186018101518583015201610bf5565b506000920191825250919050565b600060208284031215610c2f57600080fd5b5051919050565b600060208284031215610c4857600080fd5b815160ff8116811461089657600080fd5b600181815b80851115610c94578160001904821115610c7a57610c7a610ba9565b80851615610c8757918102915b93841c9390800290610c5e565b509250929050565b600082610cab575060016104b4565b81610cb8575060006104b4565b8160018114610cce5760028114610cd857610cf4565b60019150506104b4565b60ff841115610ce957610ce9610ba9565b50506001821b6104b4565b5060208310610133831016604e8410600b8410161715610d17575081810a6104b4565b610d218383610c59565b8060001904821115610d3557610d35610ba9565b029392505050565b60006104b160ff841683610c9c565b634e487b7160e01b600052601260045260246000fd5b8181036000831280158383131683831282161715610d8257610d82610ba9565b509291505056fea2646970667358221220359c9baf08dab530379fcdc2ca7c61825f30d2334177195aef48902688898c8164736f6c63430008100033",
  "devdoc": {
    "kind": "dev",
    "methods": {},
    "version": 1
  },
  "userdoc": {
    "kind": "user",
    "methods": {},
    "version": 1
  },
  "storageLayout": {
    "storage": [],
    "types": null
  }
}