{
  "address": "0x1c6681d6B05aC935A9bDe6ac00227935b1c8CD98",
  "abi": [
    {
      "inputs": [
        {
          "internalType": "address",
          "name": "ownerArg",
          "type": "address"
        },
        {
          "internalType": "string",
          "name": "symbolArg",
          "type": "string"
        },
        {
          "internalType": "address",
          "name": "exchangeArg",
          "type": "address"
        },
        {
          "internalType": "address",
          "name": "priceFeedBaseArg",
          "type": "address"
        },
        {
          "internalType": "address",
          "name": "priceFeedQuoteArg",
          "type": "address"
        }
      ],
      "stateMutability": "nonpayable",
      "type": "constructor"
    },
    {
      "anonymous": false,
      "inputs": [
        {
          "indexed": false,
          "internalType": "uint32",
          "name": "value",
          "type": "uint32"
        }
      ],
      "name": "FundingMaxElapsedSecChanged",
      "type": "event"
    },
    {
      "anonymous": false,
      "inputs": [
        {
          "indexed": false,
          "internalType": "uint24",
          "name": "value",
          "type": "uint24"
        }
      ],
      "name": "FundingMaxPremiumRatioChanged",
      "type": "event"
    },
    {
      "anonymous": false,
      "inputs": [
        {
          "indexed": false,
          "internalType": "int256",
          "name": "fundingRateX96",
          "type": "int256"
        },
        {
          "indexed": false,
          "internalType": "uint32",
          "name": "elapsedSec",
          "type": "uint32"
        },
        {
          "indexed": false,
          "internalType": "int256",
          "name": "premiumX96",
          "type": "int256"
        },
        {
          "indexed": false,
          "internalType": "uint256",
          "name": "markPriceX96",
          "type": "uint256"
        },
        {
          "indexed": false,
          "internalType": "uint256",
          "name": "cumBasePerLiquidityX96",
          "type": "uint256"
        },
        {
          "indexed": false,
          "internalType": "uint256",
          "name": "cumQuotePerLiquidityX96",
          "type": "uint256"
        }
      ],
      "name": "FundingPaid",
      "type": "event"
    },
    {
      "anonymous": false,
      "inputs": [
        {
          "indexed": false,
          "internalType": "uint32",
          "name": "value",
          "type": "uint32"
        }
      ],
      "name": "FundingRolloverSecChanged",
      "type": "event"
    },
    {
      "anonymous": false,
      "inputs": [
        {
          "indexed": false,
          "internalType": "bool",
          "name": "isBid",
          "type": "bool"
        },
        {
          "indexed": false,
          "internalType": "uint256",
          "name": "orderId",
          "type": "uint256"
        }
      ],
      "name": "LimitOrderCanceled",
      "type": "event"
    },
    {
      "anonymous": false,
      "inputs": [
        {
          "indexed": false,
          "internalType": "bool",
          "name": "isBid",
          "type": "bool"
        },
        {
          "indexed": false,
          "internalType": "uint256",
          "name": "base",
          "type": "uint256"
        },
        {
          "indexed": false,
          "internalType": "uint256",
          "name": "priceX96",
          "type": "uint256"
        },
        {
          "indexed": false,
          "internalType": "uint256",
          "name": "orderId",
          "type": "uint256"
        }
      ],
      "name": "LimitOrderCreated",
      "type": "event"
    },
    {
      "anonymous": false,
      "inputs": [
        {
          "indexed": false,
          "internalType": "uint256",
          "name": "base",
          "type": "uint256"
        },
        {
          "indexed": false,
          "internalType": "uint256",
          "name": "quote",
          "type": "uint256"
        },
        {
          "indexed": false,
          "internalType": "uint256",
          "name": "liquidity",
          "type": "uint256"
        }
      ],
      "name": "LiquidityAdded",
      "type": "event"
    },
    {
      "anonymous": false,
      "inputs": [
        {
          "indexed": false,
          "internalType": "uint256",
          "name": "base",
          "type": "uint256"
        },
        {
          "indexed": false,
          "internalType": "uint256",
          "name": "quote",
          "type": "uint256"
        },
        {
          "indexed": false,
          "internalType": "uint256",
          "name": "liquidity",
          "type": "uint256"
        }
      ],
      "name": "LiquidityRemoved",
      "type": "event"
    },
    {
      "anonymous": false,
      "inputs": [
        {
          "indexed": true,
          "internalType": "address",
          "name": "previousOwner",
          "type": "address"
        },
        {
          "indexed": true,
          "internalType": "address",
          "name": "newOwner",
          "type": "address"
        }
      ],
      "name": "OwnershipTransferred",
      "type": "event"
    },
    {
      "anonymous": false,
      "inputs": [
        {
          "indexed": false,
          "internalType": "uint24",
          "name": "fixedFeeRatio",
          "type": "uint24"
        },
        {
          "indexed": false,
          "internalType": "uint24",
          "name": "atrFeeRatio",
          "type": "uint24"
        },
        {
          "indexed": false,
          "internalType": "uint32",
          "name": "atrEmaBlocks",
          "type": "uint32"
        }
      ],
      "name": "PoolFeeConfigChanged",
      "type": "event"
    },
    {
      "anonymous": false,
      "inputs": [
        {
          "indexed": false,
          "internalType": "uint24",
          "name": "normalOrderRatio",
          "type": "uint24"
        },
        {
          "indexed": false,
          "internalType": "uint24",
          "name": "liquidationRatio",
          "type": "uint24"
        },
        {
          "indexed": false,
          "internalType": "uint24",
          "name": "emaNormalOrderRatio",
          "type": "uint24"
        },
        {
          "indexed": false,
          "internalType": "uint24",
          "name": "emaLiquidationRatio",
          "type": "uint24"
        },
        {
          "indexed": false,
          "internalType": "uint32",
          "name": "emaSec",
          "type": "uint32"
        }
      ],
      "name": "PriceLimitConfigChanged",
      "type": "event"
    },
    {
      "anonymous": false,
      "inputs": [
        {
          "indexed": false,
          "internalType": "bool",
          "name": "isBaseToQuote",
          "type": "bool"
        },
        {
          "indexed": false,
          "internalType": "bool",
          "name": "isExactInput",
          "type": "bool"
        },
        {
          "indexed": false,
          "internalType": "uint256",
          "name": "amount",
          "type": "uint256"
        },
        {
          "indexed": false,
          "internalType": "uint256",
          "name": "oppositeAmount",
          "type": "uint256"
        },
        {
          "indexed": false,
          "internalType": "uint40",
          "name": "fullLastOrderId",
          "type": "uint40"
        },
        {
          "indexed": false,
          "internalType": "uint40",
          "name": "partialOrderId",
          "type": "uint40"
        },
        {
          "indexed": false,
          "internalType": "uint256",
          "name": "basePartial",
          "type": "uint256"
        },
        {
          "indexed": false,
          "internalType": "uint256",
          "name": "quotePartial",
          "type": "uint256"
        }
      ],
      "name": "Swapped",
      "type": "event"
    },
    {
      "inputs": [
        {
          "internalType": "uint256",
          "name": "baseShare",
          "type": "uint256"
        },
        {
          "internalType": "uint256",
          "name": "quoteBalance",
          "type": "uint256"
        }
      ],
      "name": "addLiquidity",
      "outputs": [
        {
          "internalType": "uint256",
          "name": "base",
          "type": "uint256"
        },
        {
          "internalType": "uint256",
          "name": "quote",
          "type": "uint256"
        },
        {
          "internalType": "uint256",
          "name": "liquidity",
          "type": "uint256"
        }
      ],
      "stateMutability": "nonpayable",
      "type": "function"
    },
    {
      "inputs": [],
      "name": "baseBalancePerShareX96",
      "outputs": [
        {
          "internalType": "uint256",
          "name": "",
          "type": "uint256"
        }
      ],
      "stateMutability": "view",
      "type": "function"
    },
    {
      "inputs": [
        {
          "internalType": "bool",
          "name": "isBid",
          "type": "bool"
        },
        {
          "internalType": "uint40",
          "name": "orderId",
          "type": "uint40"
        }
      ],
      "name": "cancelLimitOrder",
      "outputs": [],
      "stateMutability": "nonpayable",
      "type": "function"
    },
    {
      "inputs": [],
      "name": "candleList",
      "outputs": [
        {
          "internalType": "uint32",
          "name": "prevTimestamp",
          "type": "uint32"
        }
      ],
      "stateMutability": "view",
      "type": "function"
    },
    {
      "inputs": [
        {
          "internalType": "bool",
          "name": "isBid",
          "type": "bool"
        },
        {
          "internalType": "uint256",
          "name": "base",
          "type": "uint256"
        },
        {
          "internalType": "uint256",
          "name": "priceX96",
          "type": "uint256"
        },
        {
          "internalType": "bool",
          "name": "ignorePostOnlyCheck",
          "type": "bool"
        }
      ],
      "name": "createLimitOrder",
      "outputs": [
        {
          "internalType": "uint40",
          "name": "orderId",
          "type": "uint40"
        }
      ],
      "stateMutability": "nonpayable",
      "type": "function"
    },
    {
      "inputs": [],
      "name": "exchange",
      "outputs": [
        {
          "internalType": "address",
          "name": "",
          "type": "address"
        }
      ],
      "stateMutability": "view",
      "type": "function"
    },
    {
      "inputs": [],
      "name": "feeRatio",
      "outputs": [
        {
          "internalType": "uint24",
          "name": "",
          "type": "uint24"
        }
      ],
      "stateMutability": "view",
      "type": "function"
    },
    {
      "inputs": [],
      "name": "fundingInfo",
      "outputs": [
        {
          "internalType": "uint256",
          "name": "prevIndexPriceBase",
          "type": "uint256"
        },
        {
          "internalType": "uint256",
          "name": "prevIndexPriceQuote",
          "type": "uint256"
        },
        {
          "internalType": "uint256",
          "name": "prevIndexPriceTimestamp",
          "type": "uint256"
        }
      ],
      "stateMutability": "view",
      "type": "function"
    },
    {
      "inputs": [],
      "name": "fundingMaxElapsedSec",
      "outputs": [
        {
          "internalType": "uint32",
          "name": "",
          "type": "uint32"
        }
      ],
      "stateMutability": "view",
      "type": "function"
    },
    {
      "inputs": [],
      "name": "fundingMaxPremiumRatio",
      "outputs": [
        {
          "internalType": "uint24",
          "name": "",
          "type": "uint24"
        }
      ],
      "stateMutability": "view",
      "type": "function"
    },
    {
      "inputs": [],
      "name": "fundingRolloverSec",
      "outputs": [
        {
          "internalType": "uint32",
          "name": "",
          "type": "uint32"
        }
      ],
      "stateMutability": "view",
      "type": "function"
    },
    {
      "inputs": [],
      "name": "getAskPriceX96",
      "outputs": [
        {
          "internalType": "uint256",
          "name": "result",
          "type": "uint256"
        }
      ],
      "stateMutability": "view",
      "type": "function"
    },
    {
      "inputs": [],
      "name": "getBidPriceX96",
      "outputs": [
        {
          "internalType": "uint256",
          "name": "result",
          "type": "uint256"
        }
      ],
      "stateMutability": "view",
      "type": "function"
    },
    {
      "inputs": [
        {
          "internalType": "uint32",
          "name": "interval",
          "type": "uint32"
        },
        {
          "internalType": "uint32",
          "name": "startTime",
          "type": "uint32"
        },
        {
          "internalType": "uint256",
          "name": "count",
          "type": "uint256"
        }
      ],
      "name": "getCandles",
      "outputs": [
        {
          "components": [
            {
              "internalType": "uint128",
              "name": "closeX96",
              "type": "uint128"
            },
            {
              "internalType": "uint128",
              "name": "quote",
              "type": "uint128"
            },
            {
              "internalType": "uint128",
              "name": "highX96",
              "type": "uint128"
            },
            {
              "internalType": "uint128",
              "name": "lowX96",
              "type": "uint128"
            }
          ],
          "internalType": "struct MarketStructs.Candle[]",
          "name": "",
          "type": "tuple[]"
        }
      ],
      "stateMutability": "view",
      "type": "function"
    },
    {
      "inputs": [],
      "name": "getCumDeleveragedPerLiquidityX96",
      "outputs": [
        {
          "internalType": "uint256",
          "name": "",
          "type": "uint256"
        },
        {
          "internalType": "uint256",
          "name": "",
          "type": "uint256"
        }
      ],
      "stateMutability": "view",
      "type": "function"
    },
    {
      "inputs": [
        {
          "internalType": "bool",
          "name": "isBid",
          "type": "bool"
        },
        {
          "internalType": "uint40",
          "name": "orderId",
          "type": "uint40"
        }
      ],
      "name": "getLimitOrderExecution",
      "outputs": [
        {
          "internalType": "uint48",
          "name": "executionId",
          "type": "uint48"
        },
        {
          "internalType": "uint256",
          "name": "executedBase",
          "type": "uint256"
        },
        {
          "internalType": "uint256",
          "name": "executedQuote",
          "type": "uint256"
        }
      ],
      "stateMutability": "view",
      "type": "function"
    },
    {
      "inputs": [
        {
          "internalType": "bool",
          "name": "isBid",
          "type": "bool"
        },
        {
          "internalType": "uint40",
          "name": "orderId",
          "type": "uint40"
        }
      ],
      "name": "getLimitOrderInfo",
      "outputs": [
        {
          "internalType": "uint256",
          "name": "base",
          "type": "uint256"
        },
        {
          "internalType": "uint256",
          "name": "priceX96",
          "type": "uint256"
        }
      ],
      "stateMutability": "view",
      "type": "function"
    },
    {
      "inputs": [
        {
          "internalType": "uint256",
          "name": "liquidity",
          "type": "uint256"
        },
        {
          "internalType": "uint256",
          "name": "cumBasePerLiquidityX96",
          "type": "uint256"
        },
        {
          "internalType": "uint256",
          "name": "cumQuotePerLiquidityX96",
          "type": "uint256"
        }
      ],
      "name": "getLiquidityDeleveraged",
      "outputs": [
        {
          "internalType": "int256",
          "name": "",
          "type": "int256"
        },
        {
          "internalType": "int256",
          "name": "",
          "type": "int256"
        }
      ],
      "stateMutability": "view",
      "type": "function"
    },
    {
      "inputs": [
        {
          "internalType": "uint256",
          "name": "liquidity",
          "type": "uint256"
        }
      ],
      "name": "getLiquidityValue",
      "outputs": [
        {
          "internalType": "uint256",
          "name": "",
          "type": "uint256"
        },
        {
          "internalType": "uint256",
          "name": "",
          "type": "uint256"
        }
      ],
      "stateMutability": "view",
      "type": "function"
    },
    {
      "inputs": [],
      "name": "getMarkPriceX96",
      "outputs": [
        {
          "internalType": "uint256",
          "name": "",
          "type": "uint256"
        }
      ],
      "stateMutability": "view",
      "type": "function"
    },
    {
      "inputs": [],
      "name": "getShareMarkPriceX96",
      "outputs": [
        {
          "internalType": "uint256",
          "name": "",
          "type": "uint256"
        }
      ],
      "stateMutability": "view",
      "type": "function"
    },
    {
      "inputs": [
        {
          "internalType": "bool",
          "name": "isBaseToQuote",
          "type": "bool"
        },
        {
          "internalType": "bool",
          "name": "isExactInput",
          "type": "bool"
        },
        {
          "internalType": "bool",
          "name": "isLiquidation",
          "type": "bool"
        }
      ],
      "name": "maxSwap",
      "outputs": [
        {
          "internalType": "uint256",
          "name": "amount",
          "type": "uint256"
        }
      ],
      "stateMutability": "view",
      "type": "function"
    },
    {
      "inputs": [
        {
          "internalType": "bool",
          "name": "isBaseToQuote",
          "type": "bool"
        },
        {
          "internalType": "bool",
          "name": "isExactInput",
          "type": "bool"
        },
        {
          "internalType": "uint256",
          "name": "priceX96",
          "type": "uint256"
        }
      ],
      "name": "maxSwapByPrice",
      "outputs": [
        {
          "internalType": "uint256",
          "name": "amount",
          "type": "uint256"
        }
      ],
      "stateMutability": "view",
      "type": "function"
    },
    {
      "inputs": [
        {
          "internalType": "bytes[]",
          "name": "data",
          "type": "bytes[]"
        }
      ],
      "name": "multicall",
      "outputs": [
        {
          "internalType": "bytes[]",
          "name": "results",
          "type": "bytes[]"
        }
      ],
      "stateMutability": "nonpayable",
      "type": "function"
    },
    {
      "inputs": [],
      "name": "owner",
      "outputs": [
        {
          "internalType": "address",
          "name": "",
          "type": "address"
        }
      ],
      "stateMutability": "view",
      "type": "function"
    },
    {
      "inputs": [],
      "name": "poolFeeConfig",
      "outputs": [
        {
          "internalType": "uint24",
          "name": "fixedFeeRatio",
          "type": "uint24"
        },
        {
          "internalType": "uint24",
          "name": "atrFeeRatio",
          "type": "uint24"
        },
        {
          "internalType": "uint32",
          "name": "atrEmaBlocks",
          "type": "uint32"
        }
      ],
      "stateMutability": "view",
      "type": "function"
    },
    {
      "inputs": [],
      "name": "poolFeeInfo",
      "outputs": [
        {
          "internalType": "uint256",
          "name": "atrX96",
          "type": "uint256"
        },
        {
          "internalType": "uint256",
          "name": "referenceTimestamp",
          "type": "uint256"
        },
        {
          "internalType": "uint256",
          "name": "currentHighX96",
          "type": "uint256"
        },
        {
          "internalType": "uint256",
          "name": "currentLowX96",
          "type": "uint256"
        }
      ],
      "stateMutability": "view",
      "type": "function"
    },
    {
      "inputs": [],
      "name": "poolInfo",
      "outputs": [
        {
          "internalType": "uint256",
          "name": "base",
          "type": "uint256"
        },
        {
          "internalType": "uint256",
          "name": "quote",
          "type": "uint256"
        },
        {
          "internalType": "uint256",
          "name": "totalLiquidity",
          "type": "uint256"
        },
        {
          "internalType": "uint256",
          "name": "cumBasePerLiquidityX96",
          "type": "uint256"
        },
        {
          "internalType": "uint256",
          "name": "cumQuotePerLiquidityX96",
          "type": "uint256"
        },
        {
          "internalType": "uint256",
          "name": "baseBalancePerShareX96",
          "type": "uint256"
        }
      ],
      "stateMutability": "view",
      "type": "function"
    },
    {
      "inputs": [
        {
          "internalType": "bool",
          "name": "isBaseToQuote",
          "type": "bool"
        },
        {
          "internalType": "bool",
          "name": "isExactInput",
          "type": "bool"
        },
        {
          "internalType": "uint256",
          "name": "amount",
          "type": "uint256"
        },
        {
          "internalType": "bool",
          "name": "isLiquidation",
          "type": "bool"
        }
      ],
      "name": "previewSwap",
      "outputs": [
        {
          "internalType": "uint256",
          "name": "oppositeAmount",
          "type": "uint256"
        }
      ],
      "stateMutability": "view",
      "type": "function"
    },
    {
      "inputs": [],
      "name": "priceFeedBase",
      "outputs": [
        {
          "internalType": "address",
          "name": "",
          "type": "address"
        }
      ],
      "stateMutability": "view",
      "type": "function"
    },
    {
      "inputs": [],
      "name": "priceFeedQuote",
      "outputs": [
        {
          "internalType": "address",
          "name": "",
          "type": "address"
        }
      ],
      "stateMutability": "view",
      "type": "function"
    },
    {
      "inputs": [],
      "name": "priceLimitConfig",
      "outputs": [
        {
          "internalType": "uint24",
          "name": "normalOrderRatio",
          "type": "uint24"
        },
        {
          "internalType": "uint24",
          "name": "liquidationRatio",
          "type": "uint24"
        },
        {
          "internalType": "uint24",
          "name": "emaNormalOrderRatio",
          "type": "uint24"
        },
        {
          "internalType": "uint24",
          "name": "emaLiquidationRatio",
          "type": "uint24"
        },
        {
          "internalType": "uint32",
          "name": "emaSec",
          "type": "uint32"
        }
      ],
      "stateMutability": "view",
      "type": "function"
    },
    {
      "inputs": [],
      "name": "priceLimitInfo",
      "outputs": [
        {
          "internalType": "uint256",
          "name": "referencePrice",
          "type": "uint256"
        },
        {
          "internalType": "uint256",
          "name": "referenceTimestamp",
          "type": "uint256"
        },
        {
          "internalType": "uint256",
          "name": "emaPrice",
          "type": "uint256"
        }
      ],
      "stateMutability": "view",
      "type": "function"
    },
    {
      "inputs": [
        {
          "internalType": "uint256",
          "name": "liquidity",
          "type": "uint256"
        }
      ],
      "name": "removeLiquidity",
      "outputs": [
        {
          "internalType": "uint256",
          "name": "base",
          "type": "uint256"
        },
        {
          "internalType": "uint256",
          "name": "quote",
          "type": "uint256"
        }
      ],
      "stateMutability": "nonpayable",
      "type": "function"
    },
    {
      "inputs": [],
      "name": "renounceOwnership",
      "outputs": [],
      "stateMutability": "nonpayable",
      "type": "function"
    },
    {
      "inputs": [
        {
          "internalType": "uint32",
          "name": "value",
          "type": "uint32"
        }
      ],
      "name": "setFundingMaxElapsedSec",
      "outputs": [],
      "stateMutability": "nonpayable",
      "type": "function"
    },
    {
      "inputs": [
        {
          "internalType": "uint24",
          "name": "value",
          "type": "uint24"
        }
      ],
      "name": "setFundingMaxPremiumRatio",
      "outputs": [],
      "stateMutability": "nonpayable",
      "type": "function"
    },
    {
      "inputs": [
        {
          "internalType": "uint32",
          "name": "value",
          "type": "uint32"
        }
      ],
      "name": "setFundingRolloverSec",
      "outputs": [],
      "stateMutability": "nonpayable",
      "type": "function"
    },
    {
      "inputs": [
        {
          "components": [
            {
              "internalType": "uint24",
              "name": "fixedFeeRatio",
              "type": "uint24"
            },
            {
              "internalType": "uint24",
              "name": "atrFeeRatio",
              "type": "uint24"
            },
            {
              "internalType": "uint32",
              "name": "atrEmaBlocks",
              "type": "uint32"
            }
          ],
          "internalType": "struct MarketStructs.PoolFeeConfig",
          "name": "value",
          "type": "tuple"
        }
      ],
      "name": "setPoolFeeConfig",
      "outputs": [],
      "stateMutability": "nonpayable",
      "type": "function"
    },
    {
      "inputs": [
        {
          "components": [
            {
              "internalType": "uint24",
              "name": "normalOrderRatio",
              "type": "uint24"
            },
            {
              "internalType": "uint24",
              "name": "liquidationRatio",
              "type": "uint24"
            },
            {
              "internalType": "uint24",
              "name": "emaNormalOrderRatio",
              "type": "uint24"
            },
            {
              "internalType": "uint24",
              "name": "emaLiquidationRatio",
              "type": "uint24"
            },
            {
              "internalType": "uint32",
              "name": "emaSec",
              "type": "uint32"
            }
          ],
          "internalType": "struct MarketStructs.PriceLimitConfig",
          "name": "value",
          "type": "tuple"
        }
      ],
      "name": "setPriceLimitConfig",
      "outputs": [],
      "stateMutability": "nonpayable",
      "type": "function"
    },
    {
      "inputs": [
        {
          "internalType": "bool",
          "name": "isBaseToQuote",
          "type": "bool"
        },
        {
          "internalType": "bool",
          "name": "isExactInput",
          "type": "bool"
        },
        {
          "internalType": "uint256",
          "name": "amount",
          "type": "uint256"
        },
        {
          "internalType": "bool",
          "name": "isLiquidation",
          "type": "bool"
        }
      ],
      "name": "swap",
      "outputs": [
        {
          "components": [
            {
              "internalType": "uint256",
              "name": "oppositeAmount",
              "type": "uint256"
            },
            {
              "internalType": "uint256",
              "name": "basePartial",
              "type": "uint256"
            },
            {
              "internalType": "uint256",
              "name": "quotePartial",
              "type": "uint256"
            },
            {
              "internalType": "uint40",
              "name": "partialOrderId",
              "type": "uint40"
            }
          ],
          "internalType": "struct IPerpdexMarketMinimum.SwapResponse",
          "name": "response",
          "type": "tuple"
        }
      ],
      "stateMutability": "nonpayable",
      "type": "function"
    },
    {
      "inputs": [],
      "name": "symbol",
      "outputs": [
        {
          "internalType": "string",
          "name": "",
          "type": "string"
        }
      ],
      "stateMutability": "view",
      "type": "function"
    },
    {
      "inputs": [
        {
          "internalType": "address",
          "name": "newOwner",
          "type": "address"
        }
      ],
      "name": "transferOwnership",
      "outputs": [],
      "stateMutability": "nonpayable",
      "type": "function"
    }
  ],
  "transactionHash": "0xe8347cc6fc773b3b24c3c90cf4b3f68be7bfd4b1befd9ad31f4cabd028b993f9",
  "args": [
    "0x4B78eCe4AA1be3495713199380635537C5fB2326",
    "USD",
    "0x3A9422E206051577AfA92BAc8788C5b243BF5AA4",
    "0x0000000000000000000000000000000000000000",
    "0xf485d7478cCeA7ff7FDbE78957E73216CADBaC60"
  ],
  "numDeployments": 7,
  "solcInputHash": "63db67fdb24b64bd5e8de54dcd920702",
  "bytecode": "0x601f80546001600160581b031916690151800001518000271017905561c35060e052620186a06101005262030d40610120526203d0906101405261012c61016052602080546001600160801b0319166d012c03d090030d400186a000c3501790556101e0604052600061018052623d09006101a05260106101c052602180546001600160501b03191666103d0900000000179055348015620000a057600080fd5b50604051620062c3380380620062c3833981016040819052620000c39162000339565b6001600055620000d3336200028f565b620000de856200028f565b6001600160a01b03821615806200010f57506200010f826001600160a01b0316620002e160201b62001d151760201c565b620001615760405162461bcd60e51b815260206004820152601d60248201527f504d5f433a2062617365207072696365206665656420696e76616c696400000060448201526064015b60405180910390fd5b6001600160a01b038116158062000192575062000192816001600160a01b0316620002e160201b62001d151760201c565b620001e05760405162461bcd60e51b815260206004820152601e60248201527f504d5f433a2071756f7465207072696365206665656420696e76616c69640000604482015260640162000158565b6002620001ee8582620004e9565b506001600160a01b0383811660805282811660a052811660c0526040516301714ca760e41b8152600960048201527337c30eC19a984c3Ba2bE7b8b5Bd1B1bDE51b994690631714ca709060240160006040518083038186803b1580156200025457600080fd5b505af415801562000269573d6000803e3d6000fd5b50505050620002846003620002f060201b62001d241760201c565b5050505050620005b5565b600180546001600160a01b038381166001600160a01b0319831681179093556040519116919082907f8be0079c531659141344cd1fd0a4f28419497f9722a3daafe3b4186f6b6457e090600090a35050565b6001600160a01b03163b151590565b6c01000000000000000000000000600590910155565b80516001600160a01b03811681146200031e57600080fd5b919050565b634e487b7160e01b600052604160045260246000fd5b600080600080600060a086880312156200035257600080fd5b6200035d8662000306565b602087810151919650906001600160401b03808211156200037d57600080fd5b818901915089601f8301126200039257600080fd5b815181811115620003a757620003a762000323565b604051601f8201601f19908116603f01168101908382118183101715620003d257620003d262000323565b816040528281528c86848701011115620003eb57600080fd5b600093505b828410156200040f5784840186015181850187015292850192620003f0565b60008684830101528099505050505050506200042e6040870162000306565b92506200043e6060870162000306565b91506200044e6080870162000306565b90509295509295909350565b600181811c908216806200046f57607f821691505b6020821081036200049057634e487b7160e01b600052602260045260246000fd5b50919050565b601f821115620004e457600081815260208120601f850160051c81016020861015620004bf5750805b601f850160051c820191505b81811015620004e057828155600101620004cb565b5050505b505050565b81516001600160401b0381111562000505576200050562000323565b6200051d816200051684546200045a565b8462000496565b602080601f8311600181146200055557600084156200053c5750858301515b600019600386901b1c1916600185901b178555620004e0565b600085815260208120601f198616915b82811015620005865788860151825594840194600190910190840162000565565b5085821015620005a55787850151600019600388901b60f8161c191681555b5050505050600190811b01905550565b60805160a05160c051615cbb6200060860003960008181610259015281816114470152612b8e01526000818161050a0152818161141f0152612b6901526000818161069601526124650152615cbb6000f3fe608060405234801561001057600080fd5b50600436106102295760003560e01c806380796d5511610131578063a276405b116100b3578063a276405b146105db578063a4edcfc114610604578063ac9650d81461063a578063c9ca629b1461065a578063d2f7265a14610691578063dba49153146106b8578063e7a49931146106ca578063e801c4d8146106dd578063e8fa204f146106e5578063f2289752146106f8578063f2fde38b1461070357600080fd5b806380796d55146104b8578063823f2b041461050557806385aaa3971461052c5780638da5cb5b146105595780638ee8fe5d1461056a578063933c7979146105725780639482de1a1461058557806395d89b411461058d5780639c8f9f23146105a25780639cd441da146105b55780639d67bf03146105c857600080fd5b806341744dd4116101ba57806341744dd4146103835780634920e1fe1461038b5780635a2f3d09146103ab5780636346f32e146103f657806366a61ffb14610445578063715018a6146104585780637452fadd1461046057806374f25689146104685780637640482f1461047b5780637661ce131461048e578063796c20b7146104a557600080fd5b806306f429b81461022e5780630e06e4d014610254578063125b9d2714610293578063186f181e146102a85780631b520a02146102d4578063220e89ce1461030d57806323c8346a146103155780632724ebb0146103285780632ca756c4146103505780633aa3e65014610360575b600080fd5b61024161023c366004615157565b610716565b6040519081526020015b60405180910390f35b61027b7f000000000000000000000000000000000000000000000000000000000000000081565b6040516001600160a01b03909116815260200161024b565b6102a66102a13660046151a4565b61085d565b005b601f546102bf90600160381b900463ffffffff1681565b60405163ffffffff909116815260200161024b565b6021546102fe9062ffffff808216916301000000810490911690600160301b900463ffffffff1683565b60405161024b939291906151b6565b6102416109d3565b6102a66103233660046151ee565b610a84565b61033b6103363660046151ee565b610b6a565b6040805192835260208301919091520161024b565b601e546102bf9063ffffffff1681565b601f5461036f9062ffffff1681565b60405162ffffff909116815260200161024b565b61036f610bf5565b61039e610399366004615237565b610c6b565b60405161024b9190615278565b6003546004546005546006546007546008546103c995949392919086565b604080519687526020870195909552938501929092526060840152608083015260a082015260c00161024b565b6020546104349062ffffff8082169163010000008104821691600160301b8204811691600160481b810490911690600160601b900463ffffffff1685565b60405161024b9594939291906152ec565b610241610453366004615320565b610d0b565b6102a6610d3b565b610241610d4f565b6102a661047636600461536d565b610d75565b61033b61048936600461538a565b610e38565b601f546102bf906301000000900463ffffffff1681565b6102a66104b33660046153a3565b610e4f565b6104cb6104c6366004615157565b610f6d565b60405161024b919081518152602080830151908201526040808301519082015260609182015164ffffffffff169181019190915260800190565b61027b7f000000000000000000000000000000000000000000000000000000000000000081565b600c54600d54600e5461053e92919083565b6040805193845260208401929092529082015260600161024b565b6001546001600160a01b031661027b565b610241611255565b61033b6105803660046153c0565b611277565b600854610241565b61059561129d565b60405161024b919061543c565b61033b6105b036600461538a565b61132b565b61053e6105c336600461544f565b6113c9565b6102a66105d63660046153a3565b611541565b6105ee6105e9366004615471565b611613565b60405164ffffffffff909116815260200161024b565b601954601a54601b54601c5461061a9392919084565b60408051948552602085019390935291830152606082015260800161024b565b61064d6106483660046154ac565b6117f3565b60405161024b9190615520565b61066d6106683660046151ee565b6118e8565b6040805165ffffffffffff909416845260208401929092529082015260600161024b565b61027b7f000000000000000000000000000000000000000000000000000000000000000081565b600954600a54600b5461053e92919083565b6102a66106d8366004615582565b611978565b610241611bd7565b6102416106f3366004615594565b611c84565b60065460075461033b565b6102a66107113660046155d7565b611c9c565b6000806107268686856000611d31565b509050808411156107785760405162461bcd60e51b8152602060048201526017602482015276141357d414ce881d1bdbc81b185c99d948185b5bdd5b9d604a1b60448201526064015b60405180910390fd5b60006107b98761078957600f61078c565b60135b604080516080810182528a1515815289151560208201529081018890526008546060820152611e67611e84565b600354600454604080516080810182528b151581528a151560208201529394506107fc939081016107e8610bf5565b62ffffff168152855160209091015261231f565b92508615158615151480159061083157816060015182602001516108209190615616565b61082a9085615616565b9350610852565b816080015182604001516108459190615616565b61084f9085615616565b93505b505050949350505050565b6108656123e5565b6002600054036108875760405162461bcd60e51b815260040161076f90615629565b600260005561c35061089c602083018361536d565b62ffffff1611156108ef5760405162461bcd60e51b815260206004820152601c60248201527f504d5f535046433a2066697865642066656520746f6f206c6172676500000000604482015260640161076f565b61271061090260608301604084016153a3565b63ffffffff1611156109565760405162461bcd60e51b815260206004820152601f60248201527f504d5f535046433a2061747220656d6120626c6f636b7320746f6f2062696700604482015260640161076f565b8060216109638282615680565b507f269f7c0d124741a5574762c75c64c04ad89fa3e91ec86aa3be1b9b6d6d0866879050610994602083018361536d565b6109a4604084016020850161536d565b6109b460608501604086016153a3565b6040516109c3939291906151b6565b60405180910390a1506001600055565b60006109ed6109e0610d4f565b6109e8610bf5565b61243f565b604051632e45552560e21b8152600f600482015290915060009073BF55D03E402C9fEB5D50C6B8b5aB4BaEdb7161609063b915549490602401602060405180830381865af4158015610a43573d6000803e3d6000fd5b505050506040513d601f19601f82011682018060405250810190610a6791906156e5565b90508015801590610a7757508181105b15610a80578091505b5090565b610a8c612463565b600260005403610aae5760405162461bcd60e51b815260040161076f90615629565b6002600055604051632ec0b78b60e11b815273BF55D03E402C9fEB5D50C6B8b5aB4BaEdb71616090635d816f1690610aef90600f90869086906004016156fe565b60006040518083038186803b158015610b0757600080fd5b505af4158015610b1b573d6000803e3d6000fd5b505060408051851515815264ffffffffff851660208201527ff61aa5333bf001aa89f4bfa6ccaf123eec86eada7fd1c6c366227102507f89cd935001905060405180910390a150506001600055565b60008073BF55D03E402C9fEB5D50C6B8b5aB4BaEdb7161606302ea3f09600f86866040518463ffffffff1660e01b8152600401610ba9939291906156fe565b6040805180830381865af4158015610bc5573d6000803e3d6000fd5b505050506040513d601f19601f82011682018060405250810190610be9919061571b565b915091505b9250929050565b602054600090610c6690610c6190610c149060029062ffffff16615755565b6040805160608101825260215462ffffff80821683526301000000820481166020840152600160301b90910463ffffffff1692820192909252911690610c5c906019906124db565b612519565b61252f565b905090565b604051632608c5d360e11b8152601d600482015263ffffffff8085166024830152831660448201526064810182905260609073805d87E87ACff122D3D19E19AC116C1C4AAD676590634c118ba690608401600060405180830381865af4158015610cd9573d6000803e3d6000fd5b505050506040513d6000823e601f3d908101601f19168201604052610d0191908101906157fc565b90505b9392505050565b600080610d2283600360050154600160601b612593565b9050610d318585600084611d31565b5095945050505050565b610d436123e5565b610d4d6000612642565b565b6003546000908103610d615750600090565b600354600454600854610c66929190612694565b610d7d6123e5565b600260005403610d9f5760405162461bcd60e51b815260040161076f90615629565b6002600055620186a062ffffff82161115610df25760405162461bcd60e51b8152602060048201526013602482015272504d5f53464d50523a20746f6f206c6172676560681b604482015260640161076f565b601f805462ffffff191662ffffff83169081179091556040519081527f55647f4dd43ac173f04e53a506df46454012316d82fb04a9c1dbd8e0f21f8f76906020016109c3565b600080610e466003846126ae565b91509150915091565b610e576123e5565b600260005403610e795760405162461bcd60e51b815260040161076f90615629565b600260005562093a8063ffffffff82161115610ecc5760405162461bcd60e51b8152602060048201526012602482015271504d5f534652533a20746f6f206c6172676560701b604482015260640161076f565b610e108163ffffffff161015610f195760405162461bcd60e51b8152602060048201526012602482015271141357d4d19494ce881d1bdbc81cdb585b1b60721b604482015260640161076f565b601f805463ffffffff60381b1916600160381b63ffffffff8416908102919091179091556040519081527fa703b265f29064a106acd6473c258e009bff9ac0bfd63b6f5ca4b712a25c8516906020016109c3565b610f9f6040518060800160405280600081526020016000815260200160008152602001600064ffffffffff1681525090565b610fa7612463565b600260005403610fc95760405162461bcd60e51b815260040161076f90615629565b6002600090815580610fdd87878684611d31565b915091508185111561102a5760405162461bcd60e51b8152602060048201526016602482015275141357d4ce881d1bdbc81b185c99d948185b5bdd5b9d60521b604482015260640161076f565b6000611034611255565b90506000611072600f60405180608001604052808c151581526020018b151581526020018a8152602001600360050154815250611e676126d7612713565b90506040518060800160405280826000015181526020018260200151815260200182604001518152602001826060015164ffffffffff1681525094506000896110c2576110bd6109d3565b6110ca565b6110ca611bd7565b905060008915158b1515146110df57886110e2565b82515b905073805d87E87ACff122D3D19E19AC116C1C4AAD6765631caa89ce601d61110942612a4a565b6040516001600160e01b031960e085901b168152600481019290925263ffffffff166024820152604481018590526064810184905260840160006040518083038186803b15801561115957600080fd5b505af415801561116d573d6000803e3d6000fd5b505060215461119a945060199350600160301b900463ffffffff169150859050611195611255565b612aaf565b6111a5600c84612b21565b7f4af368bb319fb6132e4a959e88a5bd0ebed952b65925f8503bb497d99de64b20898989886000015185608001518a606001518b602001518c60400151604051611233989796959493929190971515885295151560208801526040870194909452606086019290925264ffffffffff90811660808601521660a084015260c083015260e08201526101000190565b60405180910390a1611243612b4b565b50506001600055509095945050505050565b60035460009081036112675750600090565b600354600454610c669190612d2a565b6000806112906003800154600360040154878787612d3b565b915091505b935093915050565b600280546112aa906158ee565b80601f01602080910402602001604051908101604052809291908181526020018280546112d6906158ee565b80156113235780601f106112f857610100808354040283529160200191611323565b820191906000526020600020905b81548152906001019060200180831161130657829003601f168201915b505050505081565b600080611336612463565b6002600054036113585760405162461bcd60e51b815260040161076f90615629565b6002600055604080516020810190915283815261137790600390612da9565b604080518381526020810183905290810186905291935091507f0bb89aa54ed6940a7e7167bd262b2400d63945045ceff1a52a05f2601ed215f19060600160405180910390a160016000559092909150565b60008060006113d6612463565b6002600054036113f85760405162461bcd60e51b815260040161076f90615629565b6002600090815560055490036114ca576040516354a4e2b960e01b81526001600160a01b037f0000000000000000000000000000000000000000000000000000000000000000811660048301527f000000000000000000000000000000000000000000000000000000000000000016602482015260448101869052606481018590527337c30eC19a984c3Ba2bE7b8b5Bd1B1bDE51b9946906354a4e2b99060840160006040518083038186803b1580156114b157600080fd5b505af41580156114c5573d6000803e3d6000fd5b505050505b6114e96003604051806040016040528088815260200187815250612ec0565b604080518481526020810184905290810182905292955090935091507fd7f28048575eead8851d024ead087913957dfb4fd1a02b4d1573f5352a5a2be39060600160405180910390a160016000819055509250925092565b6115496123e5565b60026000540361156b5760405162461bcd60e51b815260040161076f90615629565b600260005562093a8063ffffffff821611156115bf5760405162461bcd60e51b8152602060048201526013602482015272504d5f53464d45533a20746f6f206c6172676560681b604482015260640161076f565b601f805466ffffffff0000001916630100000063ffffffff8416908102919091179091556040519081527f5b18da8898c1e492e6bc631eec59d143ebba7f31ca794b668f0bfa9b0d989293906020016109c3565b600061161d612463565b60026000540361163f5760405162461bcd60e51b815260040161076f90615629565b6002600055816116f25784156116a3576116576109d3565b83111561169e5760405162461bcd60e51b8152602060048201526015602482015274141357d0d313ce881c1bdcdd081bdb9b1e48189a59605a1b604482015260640161076f565b6116f2565b6116ab611bd7565b8310156116f25760405162461bcd60e51b8152602060048201526015602482015274504d5f434c4f3a20706f7374206f6e6c792061736b60581b604482015260640161076f565b73BF55D03E402C9fEB5D50C6B8b5aB4BaEdb71616063a47859fc600f878787611719610d4f565b6040516001600160e01b031960e088901b1681526004810195909552921515602485015260448401919091526064830152608482015260a401602060405180830381865af415801561176f573d6000803e3d6000fd5b505050506040513d601f19601f820116820180604052508101906117939190615922565b6040805187151581526020810187905290810185905264ffffffffff821660608201529091507f7f6ce27b6803b5b961a441dac0f55de214751acfb64178849efb01fdb71c620b9060800160405180910390a16001600055949350505050565b6060816001600160401b0381111561180d5761180d615777565b60405190808252806020026020018201604052801561184057816020015b606081526020019060019003908161182b5790505b50905060005b828110156118e0576118b0308585848181106118645761186461593f565b90506020028101906118769190615955565b8080601f01602080910402602001604051908101604052809392919081815260200183838082843760009201919091525061308a92505050565b8282815181106118c2576118c261593f565b602002602001018190525080806118d89061599b565b915050611846565b505b92915050565b600080600073BF55D03E402C9fEB5D50C6B8b5aB4BaEdb7161606399d50409600f87876040518463ffffffff1660e01b8152600401611929939291906156fe565b606060405180830381865af4158015611946573d6000803e3d6000fd5b505050506040513d601f19601f8201168201806040525081019061196a91906159b4565b9250925092505b9250925092565b6119806123e5565b6002600054036119a25760405162461bcd60e51b815260040161076f90615629565b60026000556207a1206119bb604083016020840161536d565b62ffffff161115611a0e5760405162461bcd60e51b815260206004820152601e60248201527f50455f53504c433a20746f6f206c61726765206c69717569646174696f6e0000604482015260640161076f565b611a1e604082016020830161536d565b62ffffff16611a30602083018361536d565b62ffffff161115611a765760405162461bcd60e51b815260206004820152601060248201526f141157d4d41310ce881a5b9d985b1a5960821b604482015260640161076f565b620f4240611a8a608083016060840161536d565b62ffffff1610611ad95760405162461bcd60e51b815260206004820152601a60248201527950455f53504c433a20656d6120746f6f206c61726765206c697160301b604482015260640161076f565b611ae9608082016060830161536d565b62ffffff16611afe606083016040840161536d565b62ffffff161115611b485760405162461bcd60e51b8152602060048201526014602482015273141157d4d41310ce88195b58481a5b9d985b1a5960621b604482015260640161076f565b806020611b5582826159f6565b507fbe7eee05a638b28e8473a6f87ae310d3123f8a2a7561ce96e140f76125f746129050611b86602083018361536d565b611b96604084016020850161536d565b611ba6606085016040860161536d565b611bb6608086016060870161536d565b611bc660a08701608088016153a3565b6040516109c39594939291906152ec565b6000611bf1611be4610d4f565b611bec610bf5565b6130af565b604051632e45552560e21b81526013600482015290915060009073BF55D03E402C9fEB5D50C6B8b5aB4BaEdb7161609063b915549490602401602060405180830381865af4158015611c47573d6000803e3d6000fd5b505050506040513d601f19601f82011682018060405250810190611c6b91906156e5565b90508015801590610a77575081811115610a8057919050565b6000611c938484846000611d31565b50949350505050565b611ca46123e5565b6001600160a01b038116611d095760405162461bcd60e51b815260206004820152602660248201527f4f776e61626c653a206e6577206f776e657220697320746865207a65726f206160448201526564647265737360d01b606482015260840161076f565b611d1281612642565b50565b6001600160a01b03163b151590565b600160601b600590910155565b6000611d3b615121565b600554600003611d4e5760009150611e5e565b82600003611d8c576000611d60611255565b9050611d6f600c6020836130cb565b9150611d88826000015183604001516020888b1561317b565b9350505b600354600454611da791908888611da1610bf5565b88613229565b915073BF55D03E402C9fEB5D50C6B8b5aB4BaEdb71616063b2041ed987611dcf57600f611dd2565b60135b60085460405160e084901b6001600160e01b031916815260048101929092528915156024830152881515604483015260648201879052608482015260a401602060405180830381865af4158015611e2d573d6000803e3d6000fd5b505050506040513d601f19601f82011682018060405250810190611e5191906156e5565b611e5b9083615616565b91505b94509492505050565b600354600454600091610d01918686611e7e610bf5565b87613229565b611ed26040518060e001604052806000815260200160008152602001600081526020016000815260200160008152602001600064ffffffffff168152602001600064ffffffffff1681525090565b602083015183518554911515901515149064ffffffffff166000805b64ffffffffff8316156122d257611f6160405180610120016040528060006001600160801b031681526020016000815260200160008152602001600064ffffffffff168152602001600064ffffffffff168152602001600081526020016000815260200160008152602001600081525090565b64ffffffffff8416600090815260018a016020526040902054600160801b90046001600160801b03168082526060890151611fa19190600160601b612593565b60208083018290528951908a0151611fbc9263ffffffff8b16565b60408083019190915264ffffffffff80861660008181526001808e01602081815286842054600160281b8104871660608a01908152958552918152600160501b909104851660808801529251909316815260028d019091529190912001546120249084615616565b60a0820152606081015164ffffffffff1660009081526002808b01602052604090912001546120539083615616565b60c082015260408101516000908661207c576120778360c001518b60600151613398565b612082565b8260a001515b61208c9190615616565b9050808960400151116120cf57816060015164ffffffffff166000036120c3576120b68a866133a9565b64ffffffffff1660a08801525b50606001519250611eee565b608082015164ffffffffff908116600090815260028c0160205260408082206001908101549389168352912001546121079190615ac2565b6121119085615616565b60e0830152608082015164ffffffffff90811660009081526002808d0160205260408083208201549389168352909120015461214d9190615ac2565b6121579084615616565b6101008301526040820151600090876121825761217d8461010001518c60600151613398565b612188565b8360e001515b6121929190615616565b9050808a604001511015612295576040830151885260a0830151602089015260c083015160608b01516121c59190613398565b6040890152861561220557818a604001516121e09190615ac2565b6060890181905260208401516121fb9190600160601b612593565b6080890152612268565b818a604001516122159190615ac2565b6080890181905260208401516122319190600160601b90612593565b6060890181905264ffffffffff8716600090815260028d0160205260409020546122629190610c5c90600190615ac2565b60608901525b6122728b876133a9565b64ffffffffff90811660a08a01529590951660c088015250610d04945050505050565b8260e0015194508261010001519350826080015164ffffffffff166000036122c55764ffffffffff861660a08901525b5050608001519250611eee565b6020850182905260608701516122e9908290613398565b6040860152836122fd578460400151612303565b84602001515b87604001516123129190615ac2565b8552505050509392505050565b600080612333620f424084604001516134d2565b905082602001511561238e5760608301516000906123519083613538565b8451909150156123765761236f858261236a898261354d565b612593565b9250612388565b612385868261236a888261354d565b92505b506123dd565b8251156123b85760608301516123b19086906123aa8782613559565b6001613565565b91506123d0565b60608301516123cd9085906123aa8882613559565b91505b6123da82826135b6565b91505b509392505050565b6001546001600160a01b03163314610d4d5760405162461bcd60e51b815260206004820181905260248201527f4f776e61626c653a2063616c6c6572206973206e6f7420746865206f776e6572604482015260640161076f565b60008061244f620f4240846134d2565b905061245b84826135cd565b949350505050565b7f00000000000000000000000000000000000000000000000000000000000000006001600160a01b03163314610d4d5760405162461bcd60e51b815260206004820152601d60248201527f504d5f4f453a2063616c6c6572206973206e6f742065786368616e6765000000604482015260640161076f565b6000806124ec8484604001516135e2565b905061245b836000015162ffffff16612513856020015162ffffff1684600160601b612593565b9061354d565b60008183106125285781610d04565b5090919050565b600062ffffff821115610a805760405162461bcd60e51b815260206004820152602660248201527f53616665436173743a2076616c756520646f65736e27742066697420696e203260448201526534206269747360d01b606482015260840161076f565b60008080600019858709858702925082811083820303915050806000036125cd578382816125c3576125c361573f565b0492505050610d04565b8084116125d957600080fd5b60008486880960026001871981018816978890046003810283188082028403028082028403028082028403028082028403028082028403029081029092039091026000889003889004909101858311909403939093029303949094049190911702949350505050565b600180546001600160a01b038381166001600160a01b0319831681179093556040519116919082907f8be0079c531659141344cd1fd0a4f28419497f9722a3daafe3b4186f6b6457e090600090a35050565b6000610d016126a38585612d2a565b600160601b84612593565b6000806126c48385600001548660020154612593565b610be98486600101548760020154612593565b6000610d016003604051806080016040528087151581526020018615158152602001612701610bf5565b62ffffff16815260200185905261365f565b6127536040518060a00160405280600081526020016000815260200160008152602001600064ffffffffff168152602001600064ffffffffff1681525090565b83516000906127625785612767565b856004015b90506000612776828787611e84565b8051909150156127ab5785516020870151825161279892919063ffffffff8816565b835184906127a7908390615616565b9052505b6020860151865115159015151460006127c18990565b90508260a0015164ffffffffff166000146128bf57600889018054600191906000906127f690849065ffffffffffff16615ad5565b82546101009290920a65ffffffffffff818102199093169183160217909155604080516020808201835260608d0151825260088e0154909316600090815260098e01909352912090519055508751156128685760a08301516128639085906136a06136b36136c3866136d7565b612882565b60a08301516128829085906137fc61380b613818866136d7565b81612891578260200151612897565b82604001515b855186906128a6908390615616565b90525060a083015164ffffffffff166080860152612903565b6020830151156128e15760405162461bcd60e51b815260040161076f90615af4565b6040830151156129035760405162461bcd60e51b815260040161076f90615af4565b60c083015164ffffffffff16156129fa57606083015160c084015164ffffffffff16600090815260028601602052604081208054909190612945908490615ac2565b909155505060c083015164ffffffffff1660009081526002850160205260409020546129835760405162461bcd60e51b815260040161076f90615af4565b6129a98360c00151896000015161299c5761380b6129a0565b6136b35b86919084613824565b816129b85782606001516129be565b82608001515b855186906129cd908390615616565b90525060608084015160208701526080840151604087015260c084015164ffffffffff1690860152612a3e565b606083015115612a1c5760405162461bcd60e51b815260040161076f90615af4565b608083015115612a3e5760405162461bcd60e51b815260040161076f90615af4565b50505050949350505050565b600063ffffffff821115610a805760405162461bcd60e51b815260206004820152602660248201527f53616665436173743a2076616c756520646f65736e27742066697420696e203360448201526532206269747360d01b606482015260840161076f565b600184015442908111612ae857612aca85600201548361386c565b60028601556003850154612ade9083612519565b6003860155612b1a565b60018501819055612af985856135e2565b8555612b05838361386c565b6002860155612b148383612519565b60038601555b5050505050565b8060200151600003612b31575050565b805182556020810151600183015560400151600290910155565b6000612b55610d4f565b6040805160c0810182526001600160a01b037f0000000000000000000000000000000000000000000000000000000000000000811682527f0000000000000000000000000000000000000000000000000000000000000000811660208301908152828401858152601f5462ffffff8082166060870190815263ffffffff63010000008404811660808901908152600160381b909404811660a089019081529851633f0387d960e01b815260096004820152975187166024890152945190951660448701529151606486015292511660848401529051811660a4830152915190911660c4820152909150600090819081907337c30eC19a984c3Ba2bE7b8b5Bd1B1bDE51b994690633f0387d99060e401606060405180830381865af4158015612c81573d6000803e3d6000fd5b505050506040513d601f19601f82011682018060405250810190612ca59190615b19565b92509250925082600003612cb95750505050565b612cc460038461387c565b6006546007546040805186815263ffffffff8616602082015290810184905260608101879052608081019290925260a08201527f318daee0b48d1f6a0542d8cdd35e2593d88c4fb01708f4781609494206d070519060c00160405180910390a150505050565b6000610d0482600160601b85612593565b6000806000612d5b612d4c86613980565b612d558a613980565b906139ea565b90506000612d6b612d4c86613980565b9050612d8682600160601b612d7f8a613980565b91906139f6565b612d9882600160601b612d7f8b613980565b9350935050505b9550959350505050565b81546001830154600284015483516000938493909290918490612dcd908584612593565b90506000612de088600001518585612593565b9050600082118015612df25750600081115b612e365760405162461bcd60e51b8152602060048201526015602482015274504c5f524c3a206f7574707574206973207a65726f60581b604482015260640161076f565b612e408583613559565b8955612e4c8482613559565b60018a01558751600090612e61908590613559565b90506103e8811015612eac5760405162461bcd60e51b8152602060048201526014602482015273504c5f524c3a206d696e206c697175696469747960601b604482015260640161076f565b60028a015590955093505050509250929050565b60008060008085600201549050600081600003612f965760208601518651600091612ef391612eee91613a9a565b613aa6565b9050612f01816103e8613559565b875190925015801590612f18575060008760200151115b8015612f245750600082115b612f705760405162461bcd60e51b815260206004820152601d60248201527f504c5f414c3a20696e697469616c206c6971756964697479207a65726f000000604482015260640161076f565b8651808955602088015160018a0181905560028a01929092559550935091506119719050565b8654600188015487516020890151600091612fb691610c5c908686612593565b90506000612fd18a60200151610c5c8c600001518688612593565b9050612fec612fe1838887612593565b610c5c838987612593565b9450600082118015612ffe5750600081115b801561300a5750600085115b61304e5760405162461bcd60e51b8152602060048201526015602482015274504c5f414c3a206c6971756964697479207a65726f60581b604482015260640161076f565b613058848361354d565b8b55613064838261354d565b60018c0155613073868661354d565b60028c015590975095509193505050509250925092565b6060610d048383604051806060016040528060278152602001615c5f60279139613c0c565b6000806130bf620f4240846134d2565b905061245b8482613cdd565b6130d3615121565b600184015442908082116130f65750508354815260028401546040820152610d04565b60006131028383613559565b875490915060000361311a576040840185905261316a565b855463ffffffff600160601b90910481169060009061313d908490849061354d16565b905061316261314d888584612593565b6125138b600201548563ffffffff1685612593565b604087015250505b505082825260208201529392505050565b6000806131a88461319257855462ffffff166131a1565b85546301000000900462ffffff165b8890613538565b905060006131dc856131c7578654600160301b900462ffffff166131a1565b86548890600160481b900462ffffff16613538565b90508315613204576131fb6131f1898461354d565b610c5c898461354d565b92505050613220565b6131fb6132118984613559565b61321b8984613559565b61386c565b95945050505050565b600080613239620f4240856134d2565b905060006132478989613a9a565b905086156132db57600061326a8361326484600160601b89612593565b90613538565b905060006132788b80613a9a565b905080821161328e57600094505050505061338e565b600061329a8383613559565b905060006132b26132ab8e88613538565b8e9061354d565b90506132d06132c182886135cd565b6132cb84896135cd565b613cf4565b96505050505061334e565b60006132f0836132648488600160601b612593565b905060006132fe8a80613a9a565b905080821161331457600094505050505061338e565b60006133208383613559565b905060006133386133318d88613538565b8d9061354d565b90506133476132c182886135cd565b9650505050505b8561338b57613388898960405180608001604052808b151581526020016001151581526020018962ffffff1681526020018781525061231f565b92505b50505b9695505050505050565b6000610d048383600160601b612593565b600064ffffffffff82166133f95760405162461bcd60e51b81526020600482015260176024820152765242544c5f503a2074617267657420697320656d70747960481b604482015260640161076f565b64ffffffffff8281166000908152600185016020526040902054600160281b900416156134545764ffffffffff808316600090815260018501602052604090205461344d918591600160281b900416613d20565b90506118e2565b5064ffffffffff8082166000908152600184016020526040902054165b64ffffffffff8116158015906134aa575064ffffffffff8181166000908152600185016020526040902054600160281b90048116908316145b156118e25764ffffffffff808216600090815260018501602052604090205491925016613471565b60008262ffffff168262ffffff16111561352e5760405162461bcd60e51b815260206004820152601e60248201527f506572704d6174683a207375627472616374696f6e206f766572666c6f770000604482015260640161076f565b610d048284615b52565b6000610d04838362ffffff16620f4240612593565b6000610d048284615616565b6000610d048284615ac2565b600080613573868686612593565b9050600183600281111561358957613589615b6e565b1480156135a65750600084806135a1576135a161573f565b868809115b156132205761338e600182615616565b6000610d0483620f42408462ffffff166001613565565b6000610d0483620f42408462ffffff16612593565b600082600301546000036135f8575060006118e2565b600061361f600160601b6136198660020154600160601b8860030154612593565b90613559565b9050600061362e846001615b84565b63ffffffff16905061322061364c8284613d7a90919063ffffffff16565b86546125139063ffffffff881685612593565b6000613674836000015484600101548461231f565b825160208401518554600187015460608701519495506136949486613d86565b60018501559092555090565b6000816123da6004820160018787613e08565b60008161245b6004820185613ea7565b806136d2600482018285613fb6565b505050565b64ffffffffff85166137235760405162461bcd60e51b81526020600482015260156024820152745242544c5f524c3a206b657920697320656d70747960581b604482015260640161076f565b61372d8686613ff7565b6137725760405162461bcd60e51b81526020600482015260166024820152751490951317d4930e881ad95e481b9bdd08195e1a5cdd60521b604482015260640161076f565b6040805160808082018352885464ffffffffff90811683528816602083015291810191909152606081018290526137ad908790868686614042565b50865464ffffffffff91821664ffffffffff19918216811789556000908152600189016020526040808220805490931690925597549091168752909520805460ff60781b191690555050505050565b6000816123da81838787613e08565b60008161245b8185613ea7565b806136d2818085613fb6565b64ffffffffff8316156138665761383f83828463ffffffff16565b6138665764ffffffffff928316600090815260018501602052604090205490921691613824565b50505050565b6000818310156125285781610d04565b80600003613888575050565b600061389382614270565b905060008213156138f657600183015460006138b48284600160601b612593565b90506138c08282613559565b85600101819055506138e96138de82600160601b8860020154612593565b60048701549061354d565b6004860155506139489050565b8254600061390d828461236a600160601b8261354d565b90506139198282613559565b8555600285015461394090613935908390600160601b90612593565b60038701549061354d565b600386015550505b613973836005015461396961396485612d55600160601b613980565b614290565b600160601b612593565b8360050181905550505050565b60006001600160ff1b03821115610a805760405162461bcd60e51b815260206004820152602860248201527f53616665436173743a2076616c756520646f65736e27742066697420696e2061604482015267371034b73a191a9b60c11b606482015260840161076f565b6000610d048284615ba1565b60008060008512613a075784613a10565b613a10856142e2565b90506000808512613a215784613a2a565b613a2a856142e2565b905060008087128015613a3d5750600086135b80613a535750600087138015613a535750600086125b613a5e576000613a61565b60015b90506000613a70848488612593565b905081613a8557613a8081613980565b613a8e565b613a8e81614340565b98975050505050505050565b6000610d048284615bc1565b600081600003613ab857506000919050565b600182608081901c15613ad05760409190911b9060801c5b604081901c15613ae55760209190911b9060401c5b602081901c15613afa5760109190911b9060201c5b601081901c15613b0f5760089190911b9060101c5b600881901c15613b245760049190911b9060081c5b600481901c15613b395760029190911b9060041c5b600281901c15613b4b57600182901b91505b6001828581613b5c57613b5c61573f565b048301901c91506001828581613b7457613b7461573f565b048301901c91506001828581613b8c57613b8c61573f565b048301901c91506001828581613ba457613ba461573f565b048301901c91506001828581613bbc57613bbc61573f565b048301901c91506001828581613bd457613bd461573f565b048301901c91506001828581613bec57613bec61573f565b048301901c915061245b82838681613c0657613c0661573f565b04612519565b6060613c1784611d15565b613c725760405162461bcd60e51b815260206004820152602660248201527f416464726573733a2064656c65676174652063616c6c20746f206e6f6e2d636f6044820152651b9d1c9858dd60d21b606482015260840161076f565b600080856001600160a01b031685604051613c8d9190615be0565b600060405180830381855af49150503d8060008114613cc8576040519150601f19603f3d011682016040523d82523d6000602084013e613ccd565b606091505b509150915061338e828286614354565b6000610d04838362ffffff16620f42406001613565565b6000610d046002613d1a85613619612eee613d10886004613a9a565b6125138a80613a9a565b90613d7a565b60005b64ffffffffff8281166000908152600185016020526040902054600160501b90041615613d745764ffffffffff9182166000908152600184016020526040902054600160501b900490911690613d23565b50919050565b6000610d048284615bfc565b6000808615613dc8578715613db257613d9f868561354d565b9150613dab8584613559565b9050613dfd565b613dbc8684613559565b9150613dab858561354d565b8715613de457613dd8868461354d565b9150613dab8585613559565b613dee8685613559565b9150613dfa858461354d565b90505b965096945050505050565b64ffffffffff828116600090815260018601602052604080822054928416825281205490916001600160801b03600160801b918290048116929190910416808203613e67578364ffffffffff168564ffffffffff16109250505061245b565b85613e8657806001600160801b0316826001600160801b031610613e9c565b806001600160801b0316826001600160801b0316115b979650505050505050565b64ffffffffff808216600090815260028085016020818152604080852060018082015495820154818b01855283882054959094529054600160501b85048816808852838820830154600160281b90960490981680885292872090910154959694959294919391928792613f1991615616565b613f239190615616565b90506000613f31898961438d565b64ffffffffff80851660009081526002808d01602052604080832082015493891683529091200154613f639190615616565b613f6d9190615616565b90508582148015613f7d57508481145b965086613faa5764ffffffffff881660009081526002808b01602052604090912060018101849055018190555b50505050505092915050565b60089091015464ffffffffff909116600090815260029092016020526040909120600301805465ffffffffffff191665ffffffffffff909216919091179055565b600064ffffffffff821615801590610d045750825464ffffffffff83811691161480610d0457505064ffffffffff908116600090815260019290920160205260409091205416151590565b8351600090819064ffffffffff166140635750506040840151600090612d9f565b855164ffffffffff166000908152600188016020526040902054600160781b900460ff16614092576001614095565b60005b866040018181516140a69190615c10565b60ff169052508551602087015164ffffffffff91821691160361410e576140d9866000015187606001518563ffffffff16565b5050835164ffffffffff9081166000908152600187016020526040908190205490860151600160501b90910490911690612d9f565b6141298660200151876000015188606001518863ffffffff16565b156141ed5760408051608081018252875164ffffffffff908116600090815260018b01602090815284822054600160281b900483168452808b0151909216918301919091528883015160ff1692820192909252606080890151908201528190614196908a90898989614042565b895164ffffffffff808216600090815260018e0160205260409081902054908d015160608e01519597509395506141e2948e94889493600160501b909304909216918c918891906143d4565b935093505050612d9f565b614203866000015187606001518563ffffffff16565b60408051608081018252875164ffffffffff908116600090815260018b0160209081529084902054600160501b900482168352808a0151909116908201528782015160ff169181019190915260608088015190820152614267908890878787614042565b91509150612d9f565b60008082121561428b57614286613964836142e2565b6118e2565b6118e2825b600080821215610a805760405162461bcd60e51b815260206004820181905260248201527f53616665436173743a2076616c7565206d75737420626520706f736974697665604482015260640161076f565b6000600160ff1b82136143375760405162461bcd60e51b815260206004820152601c60248201527f506572704d6174683a20696e76657273696f6e206f766572666c6f7700000000604482015260640161076f565b6118e282615c29565b600061434b82613980565b6118e290615c29565b60608315614363575081610d04565b8251156143735782518084602001fd5b8160405162461bcd60e51b815260040161076f919061543c565b64ffffffffff8116600090815260018301602090815260408083205460028601909252822054600160801b9091046001600160801b03169061245b9082600160601b612593565b6000808360ff168560ff1611156144d8576144378a6040518060c001604052808c64ffffffffff1681526020018b64ffffffffff1681526020018a64ffffffffff1681526020018860ff1681526020018760ff16815260200186815250886146c6565b5064ffffffffff8116600090815260018c016020526040902054909250859150600160781b900460ff16801561449c575064ffffffffff828116600090815260018c01602052604080822054600160501b900490921681522054600160781b900460ff165b156144d35764ffffffffff821660009081526001808c016020526040909120805460ff60781b191690556144d09082615c45565b90505b6146b9565b8360ff168560ff1610156145cf576145388a6040518060c001604052808c64ffffffffff1681526020018b64ffffffffff1681526020018a64ffffffffff1681526020018860ff1681526020018760ff16815260200186815250886149bc565b64ffffffffff8116600090815260018c016020526040902054909250849150600160781b900460ff16801561449c575064ffffffffff828116600090815260018c01602052604080822054600160281b900490921681522054600160781b900460ff16156144d35764ffffffffff821660009081526001808c016020526040909120805460ff60781b191690556144d09082615c45565b64ffffffffff8916600090815260018b016020526040812054600160781b900460ff1615801561461f575064ffffffffff8816600090815260018c016020526040902054600160781b900460ff16155b64ffffffffff8a8116600090815260018e016020526040902080546aff0000000000ffffffffff60281b1916600160781b8415150264ffffffffff60281b191617600160281b8e8416021764ffffffffff60501b1916600160501b928c16929092029190911790559050614697898563ffffffff8a16565b5088816146a55760016146a8565b60005b6146b29088615c45565b9093509150505b9850989650505050505050565b815164ffffffffff1660009081526001840160205260408120548190600160781b900460ff161580156147065750836080015160ff16846060015160ff16145b156147b8576020808501805164ffffffffff9081166000908152600189019093526040808420805460ff60781b1916600160781b17905587518351831685528185208054918416600160281b0264ffffffffff60281b19909216919091179055808801518351831685529320805493909116600160501b0264ffffffffff60501b19909316929092179091555160a08501516147a6919063ffffffff8616565b50505060208201516060830151611295565b6040805160c081018252855164ffffffffff908116600090815260018901602081815285832054600160501b900484168552808a01518416818601528986015184168587015289519093168252909152918220546148619188916060820190600160781b900460ff1661482c57600161482f565b60005b896060015161483e9190615c10565b60ff168152602001886080015160ff1681526020018860a00151815250866146c6565b50855164ffffffffff9081166000908152600189016020526040808220805464ffffffffff60501b1916600160501b868616021790558851909216815220805464ffffffffff19169055855160a08701519192506148c29163ffffffff8716565b50845164ffffffffff166000908152600187016020526040902054600160781b900460ff16158015614913575064ffffffffff81166000908152600187016020526040902054600160781b900460ff165b801561494e575064ffffffffff818116600090815260018801602052604080822054600160501b900490921681522054600160781b900460ff165b156149a95764ffffffffff808216600090815260018801602052604080822054600160501b9004909216815220805460ff60781b19169055845160a086015161499a9188918790614d7a565b60608501519092509050611295565b5050825160609093015192949293505050565b60408281015164ffffffffff1660009081526001850160205290812054600160781b900460ff161580156149fd5750826080015160ff16836060015160ff16145b15614b32576020808401805164ffffffffff9081166000908152600188019093526040808420805460ff60781b1916600160781b17905586518351831685528185208054918416600160281b0264ffffffffff60281b19909216919091179055808701519251821684529092208054918316600160501b0264ffffffffff60501b1990921691909117905583511615614ac757602083810151845164ffffffffff9081166000908152600188019093526040909220805464ffffffffff1916929091169190911790555b604083015164ffffffffff1615614b105760208381015160408086015164ffffffffff9081166000908152600189019094529220805464ffffffffff1916929091169190911790555b614b2683602001518460a001518463ffffffff16565b50506020820151610d04565b6040805160c081018252845164ffffffffff908116825260208087015182168184015286840180518316600090815260018a0180845286822054600160281b90048516868801526060808b015160ff908116918801919091529251909416815292909152928120549092614be492889290916080830191600160781b900416614bbc576001614bbf565b60005b8860800151614bce9190615c10565b60ff1681526020018760a00151815250856149bc565b6040858101805164ffffffffff908116600090815260018a01602052838120805464ffffffffff60281b1916600160281b878516908102919091179091559251909116815291909120805464ffffffffff1916905590915015614c755760408481015164ffffffffff83811660009081526001890160205292909220805464ffffffffff1916929091169190911790555b614c8b84604001518560a001518563ffffffff16565b5060408481015164ffffffffff166000908152600187016020522054600160781b900460ff16158015614cdd575064ffffffffff81166000908152600186016020526040902054600160781b900460ff165b8015614d18575064ffffffffff818116600090815260018701602052604080822054600160281b900490921681522054600160781b900460ff165b15614d6e5764ffffffffff808216600090815260018701602052604080822054600160281b90049092168152819020805460ff60781b1916905584015160a0850151614d679187918690614f5a565b9050610d04565b50505060400151919050565b64ffffffffff80841660008181526001870160205260408082208054600160501b80820487168086529385205495909452600160281b909404851692830264ffffffffff60501b1985161790559291909116908015614e005764ffffffffff81811660009081526001890160205260409020805464ffffffffff19169188169190911790555b64ffffffffff83811660009081526001890160205260409020805464ffffffffff19169184169182179055614e4957865464ffffffffff191664ffffffffff8416178755614ee8565b64ffffffffff8083166000908152600189016020526040902054600160281b9004811690871603614eb05764ffffffffff808316600090815260018901602052604090208054918516600160281b0264ffffffffff60281b19909216919091179055614ee8565b64ffffffffff808316600090815260018901602052604090208054918516600160501b0264ffffffffff60501b199092169190911790555b64ffffffffff838116600081815260018a016020526040808220805464ffffffffff60281b1916600160281b958c1695860217905592815291909120805464ffffffffff19169091179055614f41868563ffffffff8816565b50614f5083858763ffffffff16565b5050505050505050565b64ffffffffff80841660008181526001870160205260408082208054600160281b80820487168086529385205495909452600160501b909404851692830264ffffffffff60281b1985161790559291909116908015614fe05764ffffffffff81811660009081526001890160205260409020805464ffffffffff19169188169190911790555b64ffffffffff83811660009081526001890160205260409020805464ffffffffff1916918416918217905561502957865464ffffffffff191664ffffffffff84161787556150c8565b64ffffffffff8083166000908152600189016020526040902054600160501b90048116908716036150905764ffffffffff808316600090815260018901602052604090208054918516600160501b0264ffffffffff60501b199092169190911790556150c8565b64ffffffffff808316600090815260018901602052604090208054918516600160281b0264ffffffffff60281b199092169190911790555b64ffffffffff838116600081815260018a016020526040808220805464ffffffffff60501b1916600160501b958c1695860217905592815291909120805464ffffffffff19169091179055614f41868563ffffffff8816565b60405180606001604052806000815260200160008152602001600081525090565b8035801515811461515257600080fd5b919050565b6000806000806080858703121561516d57600080fd5b61517685615142565b935061518460208601615142565b92506040850135915061519960608601615142565b905092959194509250565b600060608284031215613d7457600080fd5b62ffffff938416815291909216602082015263ffffffff909116604082015260600190565b64ffffffffff81168114611d1257600080fd5b6000806040838503121561520157600080fd5b61520a83615142565b9150602083013561521a816151db565b809150509250929050565b63ffffffff81168114611d1257600080fd5b60008060006060848603121561524c57600080fd5b833561525781615225565b9250602084013561526781615225565b929592945050506040919091013590565b602080825282518282018190526000919060409081850190868401855b828110156152df57815180516001600160801b0390811686528782015181168887015286820151811687870152606091820151169085015260809093019290850190600101615295565b5091979650505050505050565b62ffffff958616815293851660208501529184166040840152909216606082015263ffffffff909116608082015260a00190565b60008060006060848603121561533557600080fd5b61533e84615142565b925061534c60208501615142565b9150604084013590509250925092565b62ffffff81168114611d1257600080fd5b60006020828403121561537f57600080fd5b8135610d048161535c565b60006020828403121561539c57600080fd5b5035919050565b6000602082840312156153b557600080fd5b8135610d0481615225565b6000806000606084860312156153d557600080fd5b505081359360208301359350604090920135919050565b60005b838110156154075781810151838201526020016153ef565b50506000910152565b600081518084526154288160208601602086016153ec565b601f01601f19169290920160200192915050565b602081526000610d046020830184615410565b6000806040838503121561546257600080fd5b50508035926020909101359150565b6000806000806080858703121561548757600080fd5b61549085615142565b9350602085013592506040850135915061519960608601615142565b600080602083850312156154bf57600080fd5b82356001600160401b03808211156154d657600080fd5b818501915085601f8301126154ea57600080fd5b8135818111156154f957600080fd5b8660208260051b850101111561550e57600080fd5b60209290920196919550909350505050565b6000602080830181845280855180835260408601915060408160051b870101925083870160005b8281101561557557603f19888603018452615563858351615410565b94509285019290850190600101615547565b5092979650505050505050565b600060a08284031215613d7457600080fd5b6000806000606084860312156155a957600080fd5b6155b284615142565b92506155c060208501615142565b91506155ce60408501615142565b90509250925092565b6000602082840312156155e957600080fd5b81356001600160a01b0381168114610d0457600080fd5b634e487b7160e01b600052601160045260246000fd5b808201808211156118e2576118e2615600565b6020808252601f908201527f5265656e7472616e637947756172643a207265656e7472616e742063616c6c00604082015260600190565b805465ffffff0000008360181b1665ffffff000000198216178255505050565b813561568b8161535c565b815462ffffff191662ffffff82161782555060208201356156ab8161535c565b6156b58183615660565b5060408201356156c481615225565b815463ffffffff60301b191660309190911b63ffffffff60301b1617905550565b6000602082840312156156f757600080fd5b5051919050565b928352901515602083015264ffffffffff16604082015260600190565b6000806040838503121561572e57600080fd5b505080516020909101519092909150565b634e487b7160e01b600052601260045260246000fd5b600062ffffff8084168061576b5761576b61573f565b92169190910492915050565b634e487b7160e01b600052604160045260246000fd5b604051608081016001600160401b03811182821017156157af576157af615777565b60405290565b604051601f8201601f191681016001600160401b03811182821017156157dd576157dd615777565b604052919050565b80516001600160801b038116811461515257600080fd5b6000602080838503121561580f57600080fd5b82516001600160401b038082111561582657600080fd5b818501915085601f83011261583a57600080fd5b81518181111561584c5761584c615777565b61585a848260051b016157b5565b818152848101925060079190911b83018401908782111561587a57600080fd5b928401925b81841015613e9c57608084890312156158985760008081fd5b6158a061578d565b6158a9856157e5565b81526158b68686016157e5565b8682015260406158c78187016157e5565b9082015260606158d88682016157e5565b908201528352608093909301929184019161587f565b600181811c9082168061590257607f821691505b602082108103613d7457634e487b7160e01b600052602260045260246000fd5b60006020828403121561593457600080fd5b8151610d04816151db565b634e487b7160e01b600052603260045260246000fd5b6000808335601e1984360301811261596c57600080fd5b8301803591506001600160401b0382111561598657600080fd5b602001915036819003821315610bee57600080fd5b6000600182016159ad576159ad615600565b5060010190565b6000806000606084860312156159c957600080fd5b835165ffffffffffff811681146159df57600080fd5b602085015160409095015190969495509392505050565b8135615a018161535c565b815462ffffff191662ffffff8216178255506020820135615a218161535c565b615a2b8183615660565b506040820135615a3a8161535c565b815462ffffff60301b19811660309290921b62ffffff60301b1691821783556060840135615a678161535c565b62ffffff60481b60489190911b1665ffffffffffff60301b1982168317811784556080850135615a9681615225565b600160301b600160801b0319929092169092179190911760609190911b63ffffffff60601b1617905550565b818103818111156118e2576118e2615600565b65ffffffffffff8181168382160190808211156118e0576118e0615600565b6020808252600b908201526a3732bb32b91037b1b1bab960a91b604082015260600190565b600080600060608486031215615b2e57600080fd5b835192506020840151615b4081615225565b80925050604084015190509250925092565b62ffffff8281168282160390808211156118e0576118e0615600565b634e487b7160e01b600052602160045260246000fd5b63ffffffff8181168382160190808211156118e0576118e0615600565b81810360008312801583831316838312821617156118e0576118e0615600565b6000816000190483118215151615615bdb57615bdb615600565b500290565b60008251615bf28184602087016153ec565b9190910192915050565b600082615c0b57615c0b61573f565b500490565b60ff82811682821603908111156118e2576118e2615600565b6000600160ff1b8201615c3e57615c3e615600565b5060000390565b60ff81811683821601908111156118e2576118e261560056fe416464726573733a206c6f772d6c6576656c2064656c65676174652063616c6c206661696c6564a2646970667358221220d080fcbbb06874fae7fcf82ead56af7e4f9da3d74ccf3e22a0e08d02cd4c97ed64736f6c63430008100033",
  "deployedBytecode": "0x608060405234801561001057600080fd5b50600436106102295760003560e01c806380796d5511610131578063a276405b116100b3578063a276405b146105db578063a4edcfc114610604578063ac9650d81461063a578063c9ca629b1461065a578063d2f7265a14610691578063dba49153146106b8578063e7a49931146106ca578063e801c4d8146106dd578063e8fa204f146106e5578063f2289752146106f8578063f2fde38b1461070357600080fd5b806380796d55146104b8578063823f2b041461050557806385aaa3971461052c5780638da5cb5b146105595780638ee8fe5d1461056a578063933c7979146105725780639482de1a1461058557806395d89b411461058d5780639c8f9f23146105a25780639cd441da146105b55780639d67bf03146105c857600080fd5b806341744dd4116101ba57806341744dd4146103835780634920e1fe1461038b5780635a2f3d09146103ab5780636346f32e146103f657806366a61ffb14610445578063715018a6146104585780637452fadd1461046057806374f25689146104685780637640482f1461047b5780637661ce131461048e578063796c20b7146104a557600080fd5b806306f429b81461022e5780630e06e4d014610254578063125b9d2714610293578063186f181e146102a85780631b520a02146102d4578063220e89ce1461030d57806323c8346a146103155780632724ebb0146103285780632ca756c4146103505780633aa3e65014610360575b600080fd5b61024161023c366004615157565b610716565b6040519081526020015b60405180910390f35b61027b7f000000000000000000000000000000000000000000000000000000000000000081565b6040516001600160a01b03909116815260200161024b565b6102a66102a13660046151a4565b61085d565b005b601f546102bf90600160381b900463ffffffff1681565b60405163ffffffff909116815260200161024b565b6021546102fe9062ffffff808216916301000000810490911690600160301b900463ffffffff1683565b60405161024b939291906151b6565b6102416109d3565b6102a66103233660046151ee565b610a84565b61033b6103363660046151ee565b610b6a565b6040805192835260208301919091520161024b565b601e546102bf9063ffffffff1681565b601f5461036f9062ffffff1681565b60405162ffffff909116815260200161024b565b61036f610bf5565b61039e610399366004615237565b610c6b565b60405161024b9190615278565b6003546004546005546006546007546008546103c995949392919086565b604080519687526020870195909552938501929092526060840152608083015260a082015260c00161024b565b6020546104349062ffffff8082169163010000008104821691600160301b8204811691600160481b810490911690600160601b900463ffffffff1685565b60405161024b9594939291906152ec565b610241610453366004615320565b610d0b565b6102a6610d3b565b610241610d4f565b6102a661047636600461536d565b610d75565b61033b61048936600461538a565b610e38565b601f546102bf906301000000900463ffffffff1681565b6102a66104b33660046153a3565b610e4f565b6104cb6104c6366004615157565b610f6d565b60405161024b919081518152602080830151908201526040808301519082015260609182015164ffffffffff169181019190915260800190565b61027b7f000000000000000000000000000000000000000000000000000000000000000081565b600c54600d54600e5461053e92919083565b6040805193845260208401929092529082015260600161024b565b6001546001600160a01b031661027b565b610241611255565b61033b6105803660046153c0565b611277565b600854610241565b61059561129d565b60405161024b919061543c565b61033b6105b036600461538a565b61132b565b61053e6105c336600461544f565b6113c9565b6102a66105d63660046153a3565b611541565b6105ee6105e9366004615471565b611613565b60405164ffffffffff909116815260200161024b565b601954601a54601b54601c5461061a9392919084565b60408051948552602085019390935291830152606082015260800161024b565b61064d6106483660046154ac565b6117f3565b60405161024b9190615520565b61066d6106683660046151ee565b6118e8565b6040805165ffffffffffff909416845260208401929092529082015260600161024b565b61027b7f000000000000000000000000000000000000000000000000000000000000000081565b600954600a54600b5461053e92919083565b6102a66106d8366004615582565b611978565b610241611bd7565b6102416106f3366004615594565b611c84565b60065460075461033b565b6102a66107113660046155d7565b611c9c565b6000806107268686856000611d31565b509050808411156107785760405162461bcd60e51b8152602060048201526017602482015276141357d414ce881d1bdbc81b185c99d948185b5bdd5b9d604a1b60448201526064015b60405180910390fd5b60006107b98761078957600f61078c565b60135b604080516080810182528a1515815289151560208201529081018890526008546060820152611e67611e84565b600354600454604080516080810182528b151581528a151560208201529394506107fc939081016107e8610bf5565b62ffffff168152855160209091015261231f565b92508615158615151480159061083157816060015182602001516108209190615616565b61082a9085615616565b9350610852565b816080015182604001516108459190615616565b61084f9085615616565b93505b505050949350505050565b6108656123e5565b6002600054036108875760405162461bcd60e51b815260040161076f90615629565b600260005561c35061089c602083018361536d565b62ffffff1611156108ef5760405162461bcd60e51b815260206004820152601c60248201527f504d5f535046433a2066697865642066656520746f6f206c6172676500000000604482015260640161076f565b61271061090260608301604084016153a3565b63ffffffff1611156109565760405162461bcd60e51b815260206004820152601f60248201527f504d5f535046433a2061747220656d6120626c6f636b7320746f6f2062696700604482015260640161076f565b8060216109638282615680565b507f269f7c0d124741a5574762c75c64c04ad89fa3e91ec86aa3be1b9b6d6d0866879050610994602083018361536d565b6109a4604084016020850161536d565b6109b460608501604086016153a3565b6040516109c3939291906151b6565b60405180910390a1506001600055565b60006109ed6109e0610d4f565b6109e8610bf5565b61243f565b604051632e45552560e21b8152600f600482015290915060009073__$52dce10bb0994e0b74d4a2856cc70476a1$__9063b915549490602401602060405180830381865af4158015610a43573d6000803e3d6000fd5b505050506040513d601f19601f82011682018060405250810190610a6791906156e5565b90508015801590610a7757508181105b15610a80578091505b5090565b610a8c612463565b600260005403610aae5760405162461bcd60e51b815260040161076f90615629565b6002600055604051632ec0b78b60e11b815273__$52dce10bb0994e0b74d4a2856cc70476a1$__90635d816f1690610aef90600f90869086906004016156fe565b60006040518083038186803b158015610b0757600080fd5b505af4158015610b1b573d6000803e3d6000fd5b505060408051851515815264ffffffffff851660208201527ff61aa5333bf001aa89f4bfa6ccaf123eec86eada7fd1c6c366227102507f89cd935001905060405180910390a150506001600055565b60008073__$52dce10bb0994e0b74d4a2856cc70476a1$__6302ea3f09600f86866040518463ffffffff1660e01b8152600401610ba9939291906156fe565b6040805180830381865af4158015610bc5573d6000803e3d6000fd5b505050506040513d601f19601f82011682018060405250810190610be9919061571b565b915091505b9250929050565b602054600090610c6690610c6190610c149060029062ffffff16615755565b6040805160608101825260215462ffffff80821683526301000000820481166020840152600160301b90910463ffffffff1692820192909252911690610c5c906019906124db565b612519565b61252f565b905090565b604051632608c5d360e11b8152601d600482015263ffffffff8085166024830152831660448201526064810182905260609073__$9e340f64798e34484357185d53842c98f3$__90634c118ba690608401600060405180830381865af4158015610cd9573d6000803e3d6000fd5b505050506040513d6000823e601f3d908101601f19168201604052610d0191908101906157fc565b90505b9392505050565b600080610d2283600360050154600160601b612593565b9050610d318585600084611d31565b5095945050505050565b610d436123e5565b610d4d6000612642565b565b6003546000908103610d615750600090565b600354600454600854610c66929190612694565b610d7d6123e5565b600260005403610d9f5760405162461bcd60e51b815260040161076f90615629565b6002600055620186a062ffffff82161115610df25760405162461bcd60e51b8152602060048201526013602482015272504d5f53464d50523a20746f6f206c6172676560681b604482015260640161076f565b601f805462ffffff191662ffffff83169081179091556040519081527f55647f4dd43ac173f04e53a506df46454012316d82fb04a9c1dbd8e0f21f8f76906020016109c3565b600080610e466003846126ae565b91509150915091565b610e576123e5565b600260005403610e795760405162461bcd60e51b815260040161076f90615629565b600260005562093a8063ffffffff82161115610ecc5760405162461bcd60e51b8152602060048201526012602482015271504d5f534652533a20746f6f206c6172676560701b604482015260640161076f565b610e108163ffffffff161015610f195760405162461bcd60e51b8152602060048201526012602482015271141357d4d19494ce881d1bdbc81cdb585b1b60721b604482015260640161076f565b601f805463ffffffff60381b1916600160381b63ffffffff8416908102919091179091556040519081527fa703b265f29064a106acd6473c258e009bff9ac0bfd63b6f5ca4b712a25c8516906020016109c3565b610f9f6040518060800160405280600081526020016000815260200160008152602001600064ffffffffff1681525090565b610fa7612463565b600260005403610fc95760405162461bcd60e51b815260040161076f90615629565b6002600090815580610fdd87878684611d31565b915091508185111561102a5760405162461bcd60e51b8152602060048201526016602482015275141357d4ce881d1bdbc81b185c99d948185b5bdd5b9d60521b604482015260640161076f565b6000611034611255565b90506000611072600f60405180608001604052808c151581526020018b151581526020018a8152602001600360050154815250611e676126d7612713565b90506040518060800160405280826000015181526020018260200151815260200182604001518152602001826060015164ffffffffff1681525094506000896110c2576110bd6109d3565b6110ca565b6110ca611bd7565b905060008915158b1515146110df57886110e2565b82515b905073__$9e340f64798e34484357185d53842c98f3$__631caa89ce601d61110942612a4a565b6040516001600160e01b031960e085901b168152600481019290925263ffffffff166024820152604481018590526064810184905260840160006040518083038186803b15801561115957600080fd5b505af415801561116d573d6000803e3d6000fd5b505060215461119a945060199350600160301b900463ffffffff169150859050611195611255565b612aaf565b6111a5600c84612b21565b7f4af368bb319fb6132e4a959e88a5bd0ebed952b65925f8503bb497d99de64b20898989886000015185608001518a606001518b602001518c60400151604051611233989796959493929190971515885295151560208801526040870194909452606086019290925264ffffffffff90811660808601521660a084015260c083015260e08201526101000190565b60405180910390a1611243612b4b565b50506001600055509095945050505050565b60035460009081036112675750600090565b600354600454610c669190612d2a565b6000806112906003800154600360040154878787612d3b565b915091505b935093915050565b600280546112aa906158ee565b80601f01602080910402602001604051908101604052809291908181526020018280546112d6906158ee565b80156113235780601f106112f857610100808354040283529160200191611323565b820191906000526020600020905b81548152906001019060200180831161130657829003601f168201915b505050505081565b600080611336612463565b6002600054036113585760405162461bcd60e51b815260040161076f90615629565b6002600055604080516020810190915283815261137790600390612da9565b604080518381526020810183905290810186905291935091507f0bb89aa54ed6940a7e7167bd262b2400d63945045ceff1a52a05f2601ed215f19060600160405180910390a160016000559092909150565b60008060006113d6612463565b6002600054036113f85760405162461bcd60e51b815260040161076f90615629565b6002600090815560055490036114ca576040516354a4e2b960e01b81526001600160a01b037f0000000000000000000000000000000000000000000000000000000000000000811660048301527f0000000000000000000000000000000000000000000000000000000000000000166024820152604481018690526064810185905273__$e2d8ae539a03751d1065df53ab0607ab3a$__906354a4e2b99060840160006040518083038186803b1580156114b157600080fd5b505af41580156114c5573d6000803e3d6000fd5b505050505b6114e96003604051806040016040528088815260200187815250612ec0565b604080518481526020810184905290810182905292955090935091507fd7f28048575eead8851d024ead087913957dfb4fd1a02b4d1573f5352a5a2be39060600160405180910390a160016000819055509250925092565b6115496123e5565b60026000540361156b5760405162461bcd60e51b815260040161076f90615629565b600260005562093a8063ffffffff821611156115bf5760405162461bcd60e51b8152602060048201526013602482015272504d5f53464d45533a20746f6f206c6172676560681b604482015260640161076f565b601f805466ffffffff0000001916630100000063ffffffff8416908102919091179091556040519081527f5b18da8898c1e492e6bc631eec59d143ebba7f31ca794b668f0bfa9b0d989293906020016109c3565b600061161d612463565b60026000540361163f5760405162461bcd60e51b815260040161076f90615629565b6002600055816116f25784156116a3576116576109d3565b83111561169e5760405162461bcd60e51b8152602060048201526015602482015274141357d0d313ce881c1bdcdd081bdb9b1e48189a59605a1b604482015260640161076f565b6116f2565b6116ab611bd7565b8310156116f25760405162461bcd60e51b8152602060048201526015602482015274504d5f434c4f3a20706f7374206f6e6c792061736b60581b604482015260640161076f565b73__$52dce10bb0994e0b74d4a2856cc70476a1$__63a47859fc600f878787611719610d4f565b6040516001600160e01b031960e088901b1681526004810195909552921515602485015260448401919091526064830152608482015260a401602060405180830381865af415801561176f573d6000803e3d6000fd5b505050506040513d601f19601f820116820180604052508101906117939190615922565b6040805187151581526020810187905290810185905264ffffffffff821660608201529091507f7f6ce27b6803b5b961a441dac0f55de214751acfb64178849efb01fdb71c620b9060800160405180910390a16001600055949350505050565b6060816001600160401b0381111561180d5761180d615777565b60405190808252806020026020018201604052801561184057816020015b606081526020019060019003908161182b5790505b50905060005b828110156118e0576118b0308585848181106118645761186461593f565b90506020028101906118769190615955565b8080601f01602080910402602001604051908101604052809392919081815260200183838082843760009201919091525061308a92505050565b8282815181106118c2576118c261593f565b602002602001018190525080806118d89061599b565b915050611846565b505b92915050565b600080600073__$52dce10bb0994e0b74d4a2856cc70476a1$__6399d50409600f87876040518463ffffffff1660e01b8152600401611929939291906156fe565b606060405180830381865af4158015611946573d6000803e3d6000fd5b505050506040513d601f19601f8201168201806040525081019061196a91906159b4565b9250925092505b9250925092565b6119806123e5565b6002600054036119a25760405162461bcd60e51b815260040161076f90615629565b60026000556207a1206119bb604083016020840161536d565b62ffffff161115611a0e5760405162461bcd60e51b815260206004820152601e60248201527f50455f53504c433a20746f6f206c61726765206c69717569646174696f6e0000604482015260640161076f565b611a1e604082016020830161536d565b62ffffff16611a30602083018361536d565b62ffffff161115611a765760405162461bcd60e51b815260206004820152601060248201526f141157d4d41310ce881a5b9d985b1a5960821b604482015260640161076f565b620f4240611a8a608083016060840161536d565b62ffffff1610611ad95760405162461bcd60e51b815260206004820152601a60248201527950455f53504c433a20656d6120746f6f206c61726765206c697160301b604482015260640161076f565b611ae9608082016060830161536d565b62ffffff16611afe606083016040840161536d565b62ffffff161115611b485760405162461bcd60e51b8152602060048201526014602482015273141157d4d41310ce88195b58481a5b9d985b1a5960621b604482015260640161076f565b806020611b5582826159f6565b507fbe7eee05a638b28e8473a6f87ae310d3123f8a2a7561ce96e140f76125f746129050611b86602083018361536d565b611b96604084016020850161536d565b611ba6606085016040860161536d565b611bb6608086016060870161536d565b611bc660a08701608088016153a3565b6040516109c39594939291906152ec565b6000611bf1611be4610d4f565b611bec610bf5565b6130af565b604051632e45552560e21b81526013600482015290915060009073__$52dce10bb0994e0b74d4a2856cc70476a1$__9063b915549490602401602060405180830381865af4158015611c47573d6000803e3d6000fd5b505050506040513d601f19601f82011682018060405250810190611c6b91906156e5565b90508015801590610a77575081811115610a8057919050565b6000611c938484846000611d31565b50949350505050565b611ca46123e5565b6001600160a01b038116611d095760405162461bcd60e51b815260206004820152602660248201527f4f776e61626c653a206e6577206f776e657220697320746865207a65726f206160448201526564647265737360d01b606482015260840161076f565b611d1281612642565b50565b6001600160a01b03163b151590565b600160601b600590910155565b6000611d3b615121565b600554600003611d4e5760009150611e5e565b82600003611d8c576000611d60611255565b9050611d6f600c6020836130cb565b9150611d88826000015183604001516020888b1561317b565b9350505b600354600454611da791908888611da1610bf5565b88613229565b915073__$52dce10bb0994e0b74d4a2856cc70476a1$__63b2041ed987611dcf57600f611dd2565b60135b60085460405160e084901b6001600160e01b031916815260048101929092528915156024830152881515604483015260648201879052608482015260a401602060405180830381865af4158015611e2d573d6000803e3d6000fd5b505050506040513d601f19601f82011682018060405250810190611e5191906156e5565b611e5b9083615616565b91505b94509492505050565b600354600454600091610d01918686611e7e610bf5565b87613229565b611ed26040518060e001604052806000815260200160008152602001600081526020016000815260200160008152602001600064ffffffffff168152602001600064ffffffffff1681525090565b602083015183518554911515901515149064ffffffffff166000805b64ffffffffff8316156122d257611f6160405180610120016040528060006001600160801b031681526020016000815260200160008152602001600064ffffffffff168152602001600064ffffffffff168152602001600081526020016000815260200160008152602001600081525090565b64ffffffffff8416600090815260018a016020526040902054600160801b90046001600160801b03168082526060890151611fa19190600160601b612593565b60208083018290528951908a0151611fbc9263ffffffff8b16565b60408083019190915264ffffffffff80861660008181526001808e01602081815286842054600160281b8104871660608a01908152958552918152600160501b909104851660808801529251909316815260028d019091529190912001546120249084615616565b60a0820152606081015164ffffffffff1660009081526002808b01602052604090912001546120539083615616565b60c082015260408101516000908661207c576120778360c001518b60600151613398565b612082565b8260a001515b61208c9190615616565b9050808960400151116120cf57816060015164ffffffffff166000036120c3576120b68a866133a9565b64ffffffffff1660a08801525b50606001519250611eee565b608082015164ffffffffff908116600090815260028c0160205260408082206001908101549389168352912001546121079190615ac2565b6121119085615616565b60e0830152608082015164ffffffffff90811660009081526002808d0160205260408083208201549389168352909120015461214d9190615ac2565b6121579084615616565b6101008301526040820151600090876121825761217d8461010001518c60600151613398565b612188565b8360e001515b6121929190615616565b9050808a604001511015612295576040830151885260a0830151602089015260c083015160608b01516121c59190613398565b6040890152861561220557818a604001516121e09190615ac2565b6060890181905260208401516121fb9190600160601b612593565b6080890152612268565b818a604001516122159190615ac2565b6080890181905260208401516122319190600160601b90612593565b6060890181905264ffffffffff8716600090815260028d0160205260409020546122629190610c5c90600190615ac2565b60608901525b6122728b876133a9565b64ffffffffff90811660a08a01529590951660c088015250610d04945050505050565b8260e0015194508261010001519350826080015164ffffffffff166000036122c55764ffffffffff861660a08901525b5050608001519250611eee565b6020850182905260608701516122e9908290613398565b6040860152836122fd578460400151612303565b84602001515b87604001516123129190615ac2565b8552505050509392505050565b600080612333620f424084604001516134d2565b905082602001511561238e5760608301516000906123519083613538565b8451909150156123765761236f858261236a898261354d565b612593565b9250612388565b612385868261236a888261354d565b92505b506123dd565b8251156123b85760608301516123b19086906123aa8782613559565b6001613565565b91506123d0565b60608301516123cd9085906123aa8882613559565b91505b6123da82826135b6565b91505b509392505050565b6001546001600160a01b03163314610d4d5760405162461bcd60e51b815260206004820181905260248201527f4f776e61626c653a2063616c6c6572206973206e6f7420746865206f776e6572604482015260640161076f565b60008061244f620f4240846134d2565b905061245b84826135cd565b949350505050565b7f00000000000000000000000000000000000000000000000000000000000000006001600160a01b03163314610d4d5760405162461bcd60e51b815260206004820152601d60248201527f504d5f4f453a2063616c6c6572206973206e6f742065786368616e6765000000604482015260640161076f565b6000806124ec8484604001516135e2565b905061245b836000015162ffffff16612513856020015162ffffff1684600160601b612593565b9061354d565b60008183106125285781610d04565b5090919050565b600062ffffff821115610a805760405162461bcd60e51b815260206004820152602660248201527f53616665436173743a2076616c756520646f65736e27742066697420696e203260448201526534206269747360d01b606482015260840161076f565b60008080600019858709858702925082811083820303915050806000036125cd578382816125c3576125c361573f565b0492505050610d04565b8084116125d957600080fd5b60008486880960026001871981018816978890046003810283188082028403028082028403028082028403028082028403028082028403029081029092039091026000889003889004909101858311909403939093029303949094049190911702949350505050565b600180546001600160a01b038381166001600160a01b0319831681179093556040519116919082907f8be0079c531659141344cd1fd0a4f28419497f9722a3daafe3b4186f6b6457e090600090a35050565b6000610d016126a38585612d2a565b600160601b84612593565b6000806126c48385600001548660020154612593565b610be98486600101548760020154612593565b6000610d016003604051806080016040528087151581526020018615158152602001612701610bf5565b62ffffff16815260200185905261365f565b6127536040518060a00160405280600081526020016000815260200160008152602001600064ffffffffff168152602001600064ffffffffff1681525090565b83516000906127625785612767565b856004015b90506000612776828787611e84565b8051909150156127ab5785516020870151825161279892919063ffffffff8816565b835184906127a7908390615616565b9052505b6020860151865115159015151460006127c18990565b90508260a0015164ffffffffff166000146128bf57600889018054600191906000906127f690849065ffffffffffff16615ad5565b82546101009290920a65ffffffffffff818102199093169183160217909155604080516020808201835260608d0151825260088e0154909316600090815260098e01909352912090519055508751156128685760a08301516128639085906136a06136b36136c3866136d7565b612882565b60a08301516128829085906137fc61380b613818866136d7565b81612891578260200151612897565b82604001515b855186906128a6908390615616565b90525060a083015164ffffffffff166080860152612903565b6020830151156128e15760405162461bcd60e51b815260040161076f90615af4565b6040830151156129035760405162461bcd60e51b815260040161076f90615af4565b60c083015164ffffffffff16156129fa57606083015160c084015164ffffffffff16600090815260028601602052604081208054909190612945908490615ac2565b909155505060c083015164ffffffffff1660009081526002850160205260409020546129835760405162461bcd60e51b815260040161076f90615af4565b6129a98360c00151896000015161299c5761380b6129a0565b6136b35b86919084613824565b816129b85782606001516129be565b82608001515b855186906129cd908390615616565b90525060608084015160208701526080840151604087015260c084015164ffffffffff1690860152612a3e565b606083015115612a1c5760405162461bcd60e51b815260040161076f90615af4565b608083015115612a3e5760405162461bcd60e51b815260040161076f90615af4565b50505050949350505050565b600063ffffffff821115610a805760405162461bcd60e51b815260206004820152602660248201527f53616665436173743a2076616c756520646f65736e27742066697420696e203360448201526532206269747360d01b606482015260840161076f565b600184015442908111612ae857612aca85600201548361386c565b60028601556003850154612ade9083612519565b6003860155612b1a565b60018501819055612af985856135e2565b8555612b05838361386c565b6002860155612b148383612519565b60038601555b5050505050565b8060200151600003612b31575050565b805182556020810151600183015560400151600290910155565b6000612b55610d4f565b6040805160c0810182526001600160a01b037f0000000000000000000000000000000000000000000000000000000000000000811682527f0000000000000000000000000000000000000000000000000000000000000000811660208301908152828401858152601f5462ffffff8082166060870190815263ffffffff63010000008404811660808901908152600160381b909404811660a089019081529851633f0387d960e01b815260096004820152975187166024890152945190951660448701529151606486015292511660848401529051811660a4830152915190911660c48201529091506000908190819073__$e2d8ae539a03751d1065df53ab0607ab3a$__90633f0387d99060e401606060405180830381865af4158015612c81573d6000803e3d6000fd5b505050506040513d601f19601f82011682018060405250810190612ca59190615b19565b92509250925082600003612cb95750505050565b612cc460038461387c565b6006546007546040805186815263ffffffff8616602082015290810184905260608101879052608081019290925260a08201527f318daee0b48d1f6a0542d8cdd35e2593d88c4fb01708f4781609494206d070519060c00160405180910390a150505050565b6000610d0482600160601b85612593565b6000806000612d5b612d4c86613980565b612d558a613980565b906139ea565b90506000612d6b612d4c86613980565b9050612d8682600160601b612d7f8a613980565b91906139f6565b612d9882600160601b612d7f8b613980565b9350935050505b9550959350505050565b81546001830154600284015483516000938493909290918490612dcd908584612593565b90506000612de088600001518585612593565b9050600082118015612df25750600081115b612e365760405162461bcd60e51b8152602060048201526015602482015274504c5f524c3a206f7574707574206973207a65726f60581b604482015260640161076f565b612e408583613559565b8955612e4c8482613559565b60018a01558751600090612e61908590613559565b90506103e8811015612eac5760405162461bcd60e51b8152602060048201526014602482015273504c5f524c3a206d696e206c697175696469747960601b604482015260640161076f565b60028a015590955093505050509250929050565b60008060008085600201549050600081600003612f965760208601518651600091612ef391612eee91613a9a565b613aa6565b9050612f01816103e8613559565b875190925015801590612f18575060008760200151115b8015612f245750600082115b612f705760405162461bcd60e51b815260206004820152601d60248201527f504c5f414c3a20696e697469616c206c6971756964697479207a65726f000000604482015260640161076f565b8651808955602088015160018a0181905560028a01929092559550935091506119719050565b8654600188015487516020890151600091612fb691610c5c908686612593565b90506000612fd18a60200151610c5c8c600001518688612593565b9050612fec612fe1838887612593565b610c5c838987612593565b9450600082118015612ffe5750600081115b801561300a5750600085115b61304e5760405162461bcd60e51b8152602060048201526015602482015274504c5f414c3a206c6971756964697479207a65726f60581b604482015260640161076f565b613058848361354d565b8b55613064838261354d565b60018c0155613073868661354d565b60028c015590975095509193505050509250925092565b6060610d048383604051806060016040528060278152602001615c5f60279139613c0c565b6000806130bf620f4240846134d2565b905061245b8482613cdd565b6130d3615121565b600184015442908082116130f65750508354815260028401546040820152610d04565b60006131028383613559565b875490915060000361311a576040840185905261316a565b855463ffffffff600160601b90910481169060009061313d908490849061354d16565b905061316261314d888584612593565b6125138b600201548563ffffffff1685612593565b604087015250505b505082825260208201529392505050565b6000806131a88461319257855462ffffff166131a1565b85546301000000900462ffffff165b8890613538565b905060006131dc856131c7578654600160301b900462ffffff166131a1565b86548890600160481b900462ffffff16613538565b90508315613204576131fb6131f1898461354d565b610c5c898461354d565b92505050613220565b6131fb6132118984613559565b61321b8984613559565b61386c565b95945050505050565b600080613239620f4240856134d2565b905060006132478989613a9a565b905086156132db57600061326a8361326484600160601b89612593565b90613538565b905060006132788b80613a9a565b905080821161328e57600094505050505061338e565b600061329a8383613559565b905060006132b26132ab8e88613538565b8e9061354d565b90506132d06132c182886135cd565b6132cb84896135cd565b613cf4565b96505050505061334e565b60006132f0836132648488600160601b612593565b905060006132fe8a80613a9a565b905080821161331457600094505050505061338e565b60006133208383613559565b905060006133386133318d88613538565b8d9061354d565b90506133476132c182886135cd565b9650505050505b8561338b57613388898960405180608001604052808b151581526020016001151581526020018962ffffff1681526020018781525061231f565b92505b50505b9695505050505050565b6000610d048383600160601b612593565b600064ffffffffff82166133f95760405162461bcd60e51b81526020600482015260176024820152765242544c5f503a2074617267657420697320656d70747960481b604482015260640161076f565b64ffffffffff8281166000908152600185016020526040902054600160281b900416156134545764ffffffffff808316600090815260018501602052604090205461344d918591600160281b900416613d20565b90506118e2565b5064ffffffffff8082166000908152600184016020526040902054165b64ffffffffff8116158015906134aa575064ffffffffff8181166000908152600185016020526040902054600160281b90048116908316145b156118e25764ffffffffff808216600090815260018501602052604090205491925016613471565b60008262ffffff168262ffffff16111561352e5760405162461bcd60e51b815260206004820152601e60248201527f506572704d6174683a207375627472616374696f6e206f766572666c6f770000604482015260640161076f565b610d048284615b52565b6000610d04838362ffffff16620f4240612593565b6000610d048284615616565b6000610d048284615ac2565b600080613573868686612593565b9050600183600281111561358957613589615b6e565b1480156135a65750600084806135a1576135a161573f565b868809115b156132205761338e600182615616565b6000610d0483620f42408462ffffff166001613565565b6000610d0483620f42408462ffffff16612593565b600082600301546000036135f8575060006118e2565b600061361f600160601b6136198660020154600160601b8860030154612593565b90613559565b9050600061362e846001615b84565b63ffffffff16905061322061364c8284613d7a90919063ffffffff16565b86546125139063ffffffff881685612593565b6000613674836000015484600101548461231f565b825160208401518554600187015460608701519495506136949486613d86565b60018501559092555090565b6000816123da6004820160018787613e08565b60008161245b6004820185613ea7565b806136d2600482018285613fb6565b505050565b64ffffffffff85166137235760405162461bcd60e51b81526020600482015260156024820152745242544c5f524c3a206b657920697320656d70747960581b604482015260640161076f565b61372d8686613ff7565b6137725760405162461bcd60e51b81526020600482015260166024820152751490951317d4930e881ad95e481b9bdd08195e1a5cdd60521b604482015260640161076f565b6040805160808082018352885464ffffffffff90811683528816602083015291810191909152606081018290526137ad908790868686614042565b50865464ffffffffff91821664ffffffffff19918216811789556000908152600189016020526040808220805490931690925597549091168752909520805460ff60781b191690555050505050565b6000816123da81838787613e08565b60008161245b8185613ea7565b806136d2818085613fb6565b64ffffffffff8316156138665761383f83828463ffffffff16565b6138665764ffffffffff928316600090815260018501602052604090205490921691613824565b50505050565b6000818310156125285781610d04565b80600003613888575050565b600061389382614270565b905060008213156138f657600183015460006138b48284600160601b612593565b90506138c08282613559565b85600101819055506138e96138de82600160601b8860020154612593565b60048701549061354d565b6004860155506139489050565b8254600061390d828461236a600160601b8261354d565b90506139198282613559565b8555600285015461394090613935908390600160601b90612593565b60038701549061354d565b600386015550505b613973836005015461396961396485612d55600160601b613980565b614290565b600160601b612593565b8360050181905550505050565b60006001600160ff1b03821115610a805760405162461bcd60e51b815260206004820152602860248201527f53616665436173743a2076616c756520646f65736e27742066697420696e2061604482015267371034b73a191a9b60c11b606482015260840161076f565b6000610d048284615ba1565b60008060008512613a075784613a10565b613a10856142e2565b90506000808512613a215784613a2a565b613a2a856142e2565b905060008087128015613a3d5750600086135b80613a535750600087138015613a535750600086125b613a5e576000613a61565b60015b90506000613a70848488612593565b905081613a8557613a8081613980565b613a8e565b613a8e81614340565b98975050505050505050565b6000610d048284615bc1565b600081600003613ab857506000919050565b600182608081901c15613ad05760409190911b9060801c5b604081901c15613ae55760209190911b9060401c5b602081901c15613afa5760109190911b9060201c5b601081901c15613b0f5760089190911b9060101c5b600881901c15613b245760049190911b9060081c5b600481901c15613b395760029190911b9060041c5b600281901c15613b4b57600182901b91505b6001828581613b5c57613b5c61573f565b048301901c91506001828581613b7457613b7461573f565b048301901c91506001828581613b8c57613b8c61573f565b048301901c91506001828581613ba457613ba461573f565b048301901c91506001828581613bbc57613bbc61573f565b048301901c91506001828581613bd457613bd461573f565b048301901c91506001828581613bec57613bec61573f565b048301901c915061245b82838681613c0657613c0661573f565b04612519565b6060613c1784611d15565b613c725760405162461bcd60e51b815260206004820152602660248201527f416464726573733a2064656c65676174652063616c6c20746f206e6f6e2d636f6044820152651b9d1c9858dd60d21b606482015260840161076f565b600080856001600160a01b031685604051613c8d9190615be0565b600060405180830381855af49150503d8060008114613cc8576040519150601f19603f3d011682016040523d82523d6000602084013e613ccd565b606091505b509150915061338e828286614354565b6000610d04838362ffffff16620f42406001613565565b6000610d046002613d1a85613619612eee613d10886004613a9a565b6125138a80613a9a565b90613d7a565b60005b64ffffffffff8281166000908152600185016020526040902054600160501b90041615613d745764ffffffffff9182166000908152600184016020526040902054600160501b900490911690613d23565b50919050565b6000610d048284615bfc565b6000808615613dc8578715613db257613d9f868561354d565b9150613dab8584613559565b9050613dfd565b613dbc8684613559565b9150613dab858561354d565b8715613de457613dd8868461354d565b9150613dab8585613559565b613dee8685613559565b9150613dfa858461354d565b90505b965096945050505050565b64ffffffffff828116600090815260018601602052604080822054928416825281205490916001600160801b03600160801b918290048116929190910416808203613e67578364ffffffffff168564ffffffffff16109250505061245b565b85613e8657806001600160801b0316826001600160801b031610613e9c565b806001600160801b0316826001600160801b0316115b979650505050505050565b64ffffffffff808216600090815260028085016020818152604080852060018082015495820154818b01855283882054959094529054600160501b85048816808852838820830154600160281b90960490981680885292872090910154959694959294919391928792613f1991615616565b613f239190615616565b90506000613f31898961438d565b64ffffffffff80851660009081526002808d01602052604080832082015493891683529091200154613f639190615616565b613f6d9190615616565b90508582148015613f7d57508481145b965086613faa5764ffffffffff881660009081526002808b01602052604090912060018101849055018190555b50505050505092915050565b60089091015464ffffffffff909116600090815260029092016020526040909120600301805465ffffffffffff191665ffffffffffff909216919091179055565b600064ffffffffff821615801590610d045750825464ffffffffff83811691161480610d0457505064ffffffffff908116600090815260019290920160205260409091205416151590565b8351600090819064ffffffffff166140635750506040840151600090612d9f565b855164ffffffffff166000908152600188016020526040902054600160781b900460ff16614092576001614095565b60005b866040018181516140a69190615c10565b60ff169052508551602087015164ffffffffff91821691160361410e576140d9866000015187606001518563ffffffff16565b5050835164ffffffffff9081166000908152600187016020526040908190205490860151600160501b90910490911690612d9f565b6141298660200151876000015188606001518863ffffffff16565b156141ed5760408051608081018252875164ffffffffff908116600090815260018b01602090815284822054600160281b900483168452808b0151909216918301919091528883015160ff1692820192909252606080890151908201528190614196908a90898989614042565b895164ffffffffff808216600090815260018e0160205260409081902054908d015160608e01519597509395506141e2948e94889493600160501b909304909216918c918891906143d4565b935093505050612d9f565b614203866000015187606001518563ffffffff16565b60408051608081018252875164ffffffffff908116600090815260018b0160209081529084902054600160501b900482168352808a0151909116908201528782015160ff169181019190915260608088015190820152614267908890878787614042565b91509150612d9f565b60008082121561428b57614286613964836142e2565b6118e2565b6118e2825b600080821215610a805760405162461bcd60e51b815260206004820181905260248201527f53616665436173743a2076616c7565206d75737420626520706f736974697665604482015260640161076f565b6000600160ff1b82136143375760405162461bcd60e51b815260206004820152601c60248201527f506572704d6174683a20696e76657273696f6e206f766572666c6f7700000000604482015260640161076f565b6118e282615c29565b600061434b82613980565b6118e290615c29565b60608315614363575081610d04565b8251156143735782518084602001fd5b8160405162461bcd60e51b815260040161076f919061543c565b64ffffffffff8116600090815260018301602090815260408083205460028601909252822054600160801b9091046001600160801b03169061245b9082600160601b612593565b6000808360ff168560ff1611156144d8576144378a6040518060c001604052808c64ffffffffff1681526020018b64ffffffffff1681526020018a64ffffffffff1681526020018860ff1681526020018760ff16815260200186815250886146c6565b5064ffffffffff8116600090815260018c016020526040902054909250859150600160781b900460ff16801561449c575064ffffffffff828116600090815260018c01602052604080822054600160501b900490921681522054600160781b900460ff165b156144d35764ffffffffff821660009081526001808c016020526040909120805460ff60781b191690556144d09082615c45565b90505b6146b9565b8360ff168560ff1610156145cf576145388a6040518060c001604052808c64ffffffffff1681526020018b64ffffffffff1681526020018a64ffffffffff1681526020018860ff1681526020018760ff16815260200186815250886149bc565b64ffffffffff8116600090815260018c016020526040902054909250849150600160781b900460ff16801561449c575064ffffffffff828116600090815260018c01602052604080822054600160281b900490921681522054600160781b900460ff16156144d35764ffffffffff821660009081526001808c016020526040909120805460ff60781b191690556144d09082615c45565b64ffffffffff8916600090815260018b016020526040812054600160781b900460ff1615801561461f575064ffffffffff8816600090815260018c016020526040902054600160781b900460ff16155b64ffffffffff8a8116600090815260018e016020526040902080546aff0000000000ffffffffff60281b1916600160781b8415150264ffffffffff60281b191617600160281b8e8416021764ffffffffff60501b1916600160501b928c16929092029190911790559050614697898563ffffffff8a16565b5088816146a55760016146a8565b60005b6146b29088615c45565b9093509150505b9850989650505050505050565b815164ffffffffff1660009081526001840160205260408120548190600160781b900460ff161580156147065750836080015160ff16846060015160ff16145b156147b8576020808501805164ffffffffff9081166000908152600189019093526040808420805460ff60781b1916600160781b17905587518351831685528185208054918416600160281b0264ffffffffff60281b19909216919091179055808801518351831685529320805493909116600160501b0264ffffffffff60501b19909316929092179091555160a08501516147a6919063ffffffff8616565b50505060208201516060830151611295565b6040805160c081018252855164ffffffffff908116600090815260018901602081815285832054600160501b900484168552808a01518416818601528986015184168587015289519093168252909152918220546148619188916060820190600160781b900460ff1661482c57600161482f565b60005b896060015161483e9190615c10565b60ff168152602001886080015160ff1681526020018860a00151815250866146c6565b50855164ffffffffff9081166000908152600189016020526040808220805464ffffffffff60501b1916600160501b868616021790558851909216815220805464ffffffffff19169055855160a08701519192506148c29163ffffffff8716565b50845164ffffffffff166000908152600187016020526040902054600160781b900460ff16158015614913575064ffffffffff81166000908152600187016020526040902054600160781b900460ff165b801561494e575064ffffffffff818116600090815260018801602052604080822054600160501b900490921681522054600160781b900460ff165b156149a95764ffffffffff808216600090815260018801602052604080822054600160501b9004909216815220805460ff60781b19169055845160a086015161499a9188918790614d7a565b60608501519092509050611295565b5050825160609093015192949293505050565b60408281015164ffffffffff1660009081526001850160205290812054600160781b900460ff161580156149fd5750826080015160ff16836060015160ff16145b15614b32576020808401805164ffffffffff9081166000908152600188019093526040808420805460ff60781b1916600160781b17905586518351831685528185208054918416600160281b0264ffffffffff60281b19909216919091179055808701519251821684529092208054918316600160501b0264ffffffffff60501b1990921691909117905583511615614ac757602083810151845164ffffffffff9081166000908152600188019093526040909220805464ffffffffff1916929091169190911790555b604083015164ffffffffff1615614b105760208381015160408086015164ffffffffff9081166000908152600189019094529220805464ffffffffff1916929091169190911790555b614b2683602001518460a001518463ffffffff16565b50506020820151610d04565b6040805160c081018252845164ffffffffff908116825260208087015182168184015286840180518316600090815260018a0180845286822054600160281b90048516868801526060808b015160ff908116918801919091529251909416815292909152928120549092614be492889290916080830191600160781b900416614bbc576001614bbf565b60005b8860800151614bce9190615c10565b60ff1681526020018760a00151815250856149bc565b6040858101805164ffffffffff908116600090815260018a01602052838120805464ffffffffff60281b1916600160281b878516908102919091179091559251909116815291909120805464ffffffffff1916905590915015614c755760408481015164ffffffffff83811660009081526001890160205292909220805464ffffffffff1916929091169190911790555b614c8b84604001518560a001518563ffffffff16565b5060408481015164ffffffffff166000908152600187016020522054600160781b900460ff16158015614cdd575064ffffffffff81166000908152600186016020526040902054600160781b900460ff165b8015614d18575064ffffffffff818116600090815260018701602052604080822054600160281b900490921681522054600160781b900460ff165b15614d6e5764ffffffffff808216600090815260018701602052604080822054600160281b90049092168152819020805460ff60781b1916905584015160a0850151614d679187918690614f5a565b9050610d04565b50505060400151919050565b64ffffffffff80841660008181526001870160205260408082208054600160501b80820487168086529385205495909452600160281b909404851692830264ffffffffff60501b1985161790559291909116908015614e005764ffffffffff81811660009081526001890160205260409020805464ffffffffff19169188169190911790555b64ffffffffff83811660009081526001890160205260409020805464ffffffffff19169184169182179055614e4957865464ffffffffff191664ffffffffff8416178755614ee8565b64ffffffffff8083166000908152600189016020526040902054600160281b9004811690871603614eb05764ffffffffff808316600090815260018901602052604090208054918516600160281b0264ffffffffff60281b19909216919091179055614ee8565b64ffffffffff808316600090815260018901602052604090208054918516600160501b0264ffffffffff60501b199092169190911790555b64ffffffffff838116600081815260018a016020526040808220805464ffffffffff60281b1916600160281b958c1695860217905592815291909120805464ffffffffff19169091179055614f41868563ffffffff8816565b50614f5083858763ffffffff16565b5050505050505050565b64ffffffffff80841660008181526001870160205260408082208054600160281b80820487168086529385205495909452600160501b909404851692830264ffffffffff60281b1985161790559291909116908015614fe05764ffffffffff81811660009081526001890160205260409020805464ffffffffff19169188169190911790555b64ffffffffff83811660009081526001890160205260409020805464ffffffffff1916918416918217905561502957865464ffffffffff191664ffffffffff84161787556150c8565b64ffffffffff8083166000908152600189016020526040902054600160501b90048116908716036150905764ffffffffff808316600090815260018901602052604090208054918516600160501b0264ffffffffff60501b199092169190911790556150c8565b64ffffffffff808316600090815260018901602052604090208054918516600160281b0264ffffffffff60281b199092169190911790555b64ffffffffff838116600081815260018a016020526040808220805464ffffffffff60501b1916600160501b958c1695860217905592815291909120805464ffffffffff19169091179055614f41868563ffffffff8816565b60405180606001604052806000815260200160008152602001600081525090565b8035801515811461515257600080fd5b919050565b6000806000806080858703121561516d57600080fd5b61517685615142565b935061518460208601615142565b92506040850135915061519960608601615142565b905092959194509250565b600060608284031215613d7457600080fd5b62ffffff938416815291909216602082015263ffffffff909116604082015260600190565b64ffffffffff81168114611d1257600080fd5b6000806040838503121561520157600080fd5b61520a83615142565b9150602083013561521a816151db565b809150509250929050565b63ffffffff81168114611d1257600080fd5b60008060006060848603121561524c57600080fd5b833561525781615225565b9250602084013561526781615225565b929592945050506040919091013590565b602080825282518282018190526000919060409081850190868401855b828110156152df57815180516001600160801b0390811686528782015181168887015286820151811687870152606091820151169085015260809093019290850190600101615295565b5091979650505050505050565b62ffffff958616815293851660208501529184166040840152909216606082015263ffffffff909116608082015260a00190565b60008060006060848603121561533557600080fd5b61533e84615142565b925061534c60208501615142565b9150604084013590509250925092565b62ffffff81168114611d1257600080fd5b60006020828403121561537f57600080fd5b8135610d048161535c565b60006020828403121561539c57600080fd5b5035919050565b6000602082840312156153b557600080fd5b8135610d0481615225565b6000806000606084860312156153d557600080fd5b505081359360208301359350604090920135919050565b60005b838110156154075781810151838201526020016153ef565b50506000910152565b600081518084526154288160208601602086016153ec565b601f01601f19169290920160200192915050565b602081526000610d046020830184615410565b6000806040838503121561546257600080fd5b50508035926020909101359150565b6000806000806080858703121561548757600080fd5b61549085615142565b9350602085013592506040850135915061519960608601615142565b600080602083850312156154bf57600080fd5b82356001600160401b03808211156154d657600080fd5b818501915085601f8301126154ea57600080fd5b8135818111156154f957600080fd5b8660208260051b850101111561550e57600080fd5b60209290920196919550909350505050565b6000602080830181845280855180835260408601915060408160051b870101925083870160005b8281101561557557603f19888603018452615563858351615410565b94509285019290850190600101615547565b5092979650505050505050565b600060a08284031215613d7457600080fd5b6000806000606084860312156155a957600080fd5b6155b284615142565b92506155c060208501615142565b91506155ce60408501615142565b90509250925092565b6000602082840312156155e957600080fd5b81356001600160a01b0381168114610d0457600080fd5b634e487b7160e01b600052601160045260246000fd5b808201808211156118e2576118e2615600565b6020808252601f908201527f5265656e7472616e637947756172643a207265656e7472616e742063616c6c00604082015260600190565b805465ffffff0000008360181b1665ffffff000000198216178255505050565b813561568b8161535c565b815462ffffff191662ffffff82161782555060208201356156ab8161535c565b6156b58183615660565b5060408201356156c481615225565b815463ffffffff60301b191660309190911b63ffffffff60301b1617905550565b6000602082840312156156f757600080fd5b5051919050565b928352901515602083015264ffffffffff16604082015260600190565b6000806040838503121561572e57600080fd5b505080516020909101519092909150565b634e487b7160e01b600052601260045260246000fd5b600062ffffff8084168061576b5761576b61573f565b92169190910492915050565b634e487b7160e01b600052604160045260246000fd5b604051608081016001600160401b03811182821017156157af576157af615777565b60405290565b604051601f8201601f191681016001600160401b03811182821017156157dd576157dd615777565b604052919050565b80516001600160801b038116811461515257600080fd5b6000602080838503121561580f57600080fd5b82516001600160401b038082111561582657600080fd5b818501915085601f83011261583a57600080fd5b81518181111561584c5761584c615777565b61585a848260051b016157b5565b818152848101925060079190911b83018401908782111561587a57600080fd5b928401925b81841015613e9c57608084890312156158985760008081fd5b6158a061578d565b6158a9856157e5565b81526158b68686016157e5565b8682015260406158c78187016157e5565b9082015260606158d88682016157e5565b908201528352608093909301929184019161587f565b600181811c9082168061590257607f821691505b602082108103613d7457634e487b7160e01b600052602260045260246000fd5b60006020828403121561593457600080fd5b8151610d04816151db565b634e487b7160e01b600052603260045260246000fd5b6000808335601e1984360301811261596c57600080fd5b8301803591506001600160401b0382111561598657600080fd5b602001915036819003821315610bee57600080fd5b6000600182016159ad576159ad615600565b5060010190565b6000806000606084860312156159c957600080fd5b835165ffffffffffff811681146159df57600080fd5b602085015160409095015190969495509392505050565b8135615a018161535c565b815462ffffff191662ffffff8216178255506020820135615a218161535c565b615a2b8183615660565b506040820135615a3a8161535c565b815462ffffff60301b19811660309290921b62ffffff60301b1691821783556060840135615a678161535c565b62ffffff60481b60489190911b1665ffffffffffff60301b1982168317811784556080850135615a9681615225565b600160301b600160801b0319929092169092179190911760609190911b63ffffffff60601b1617905550565b818103818111156118e2576118e2615600565b65ffffffffffff8181168382160190808211156118e0576118e0615600565b6020808252600b908201526a3732bb32b91037b1b1bab960a91b604082015260600190565b600080600060608486031215615b2e57600080fd5b835192506020840151615b4081615225565b80925050604084015190509250925092565b62ffffff8281168282160390808211156118e0576118e0615600565b634e487b7160e01b600052602160045260246000fd5b63ffffffff8181168382160190808211156118e0576118e0615600565b81810360008312801583831316838312821617156118e0576118e0615600565b6000816000190483118215151615615bdb57615bdb615600565b500290565b60008251615bf28184602087016153ec565b9190910192915050565b600082615c0b57615c0b61573f565b500490565b60ff82811682821603908111156118e2576118e2615600565b6000600160ff1b8201615c3e57615c3e615600565b5060000390565b60ff81811683821601908111156118e2576118e261560056fe416464726573733a206c6f772d6c6576656c2064656c65676174652063616c6c206661696c6564a2646970667358221220d080fcbbb06874fae7fcf82ead56af7e4f9da3d74ccf3e22a0e08d02cd4c97ed64736f6c63430008100033",
  "libraries": {
    "OrderBookLibrary": "0xBF55D03E402C9fEB5D50C6B8b5aB4BaEdb716160",
    "CandleLibrary": "0x805d87E87ACff122D3D19E19AC116C1C4AAD6765",
    "FundingLibrary": "0x37c30eC19a984c3Ba2bE7b8b5Bd1B1bDE51b9946"
  },
  "devdoc": {
    "kind": "dev",
    "methods": {
      "multicall(bytes[])": {
        "details": "Receives and executes a batch of function calls on this contract."
      },
      "owner()": {
        "details": "Returns the address of the current owner."
      },
      "renounceOwnership()": {
        "details": "Leaves the contract without owner. It will not be possible to call `onlyOwner` functions anymore. Can only be called by the current owner. NOTE: Renouncing ownership will leave the contract without an owner, thereby removing any functionality that is only available to the owner."
      },
      "transferOwnership(address)": {
        "details": "Transfers ownership of the contract to a new account (`newOwner`). Can only be called by the current owner."
      }
    },
    "version": 1
  },
  "userdoc": {
    "kind": "user",
    "methods": {},
    "version": 1
  },
  "storageLayout": {
    "storage": [
      {
        "astId": 925,
        "contract": "contracts/PerpdexMarket.sol:PerpdexMarket",
        "label": "_status",
        "offset": 0,
        "slot": "0",
        "type": "t_uint256"
      },
      {
        "astId": 550,
        "contract": "contracts/PerpdexMarket.sol:PerpdexMarket",
        "label": "_owner",
        "offset": 0,
        "slot": "1",
        "type": "t_address"
      },
      {
        "astId": 8138,
        "contract": "contracts/PerpdexMarket.sol:PerpdexMarket",
        "label": "symbol",
        "offset": 0,
        "slot": "2",
        "type": "t_string_storage"
      },
      {
        "astId": 8147,
        "contract": "contracts/PerpdexMarket.sol:PerpdexMarket",
        "label": "poolInfo",
        "offset": 0,
        "slot": "3",
        "type": "t_struct(PoolInfo)14618_storage"
      },
      {
        "astId": 8150,
        "contract": "contracts/PerpdexMarket.sol:PerpdexMarket",
        "label": "fundingInfo",
        "offset": 0,
        "slot": "9",
        "type": "t_struct(FundingInfo)14605_storage"
      },
      {
        "astId": 8153,
        "contract": "contracts/PerpdexMarket.sol:PerpdexMarket",
        "label": "priceLimitInfo",
        "offset": 0,
        "slot": "12",
        "type": "t_struct(PriceLimitInfo)14625_storage"
      },
      {
        "astId": 8156,
        "contract": "contracts/PerpdexMarket.sol:PerpdexMarket",
        "label": "_orderBookInfo",
        "offset": 0,
        "slot": "15",
        "type": "t_struct(OrderBookInfo)14673_storage"
      },
      {
        "astId": 8159,
        "contract": "contracts/PerpdexMarket.sol:PerpdexMarket",
        "label": "poolFeeInfo",
        "offset": 0,
        "slot": "25",
        "type": "t_struct(PoolFeeInfo)14682_storage"
      },
      {
        "astId": 8162,
        "contract": "contracts/PerpdexMarket.sol:PerpdexMarket",
        "label": "candleList",
        "offset": 0,
        "slot": "29",
        "type": "t_struct(CandleList)14708_storage"
      },
      {
        "astId": 8165,
        "contract": "contracts/PerpdexMarket.sol:PerpdexMarket",
        "label": "fundingMaxPremiumRatio",
        "offset": 0,
        "slot": "31",
        "type": "t_uint24"
      },
      {
        "astId": 8168,
        "contract": "contracts/PerpdexMarket.sol:PerpdexMarket",
        "label": "fundingMaxElapsedSec",
        "offset": 3,
        "slot": "31",
        "type": "t_uint32"
      },
      {
        "astId": 8171,
        "contract": "contracts/PerpdexMarket.sol:PerpdexMarket",
        "label": "fundingRolloverSec",
        "offset": 7,
        "slot": "31",
        "type": "t_uint32"
      },
      {
        "astId": 8182,
        "contract": "contracts/PerpdexMarket.sol:PerpdexMarket",
        "label": "priceLimitConfig",
        "offset": 0,
        "slot": "32",
        "type": "t_struct(PriceLimitConfig)14636_storage"
      },
      {
        "astId": 8191,
        "contract": "contracts/PerpdexMarket.sol:PerpdexMarket",
        "label": "poolFeeConfig",
        "offset": 0,
        "slot": "33",
        "type": "t_struct(PoolFeeConfig)14689_storage"
      }
    ],
    "types": {
      "t_address": {
        "encoding": "inplace",
        "label": "address",
        "numberOfBytes": "20"
      },
      "t_bool": {
        "encoding": "inplace",
        "label": "bool",
        "numberOfBytes": "1"
      },
      "t_mapping(t_uint32,t_mapping(t_uint32,t_struct(Candle)14698_storage))": {
        "encoding": "mapping",
        "key": "t_uint32",
        "label": "mapping(uint32 => mapping(uint32 => struct MarketStructs.Candle))",
        "numberOfBytes": "32",
        "value": "t_mapping(t_uint32,t_struct(Candle)14698_storage)"
      },
      "t_mapping(t_uint32,t_struct(Candle)14698_storage)": {
        "encoding": "mapping",
        "key": "t_uint32",
        "label": "mapping(uint32 => struct MarketStructs.Candle)",
        "numberOfBytes": "32",
        "value": "t_struct(Candle)14698_storage"
      },
      "t_mapping(t_uint40,t_struct(Node)22089_storage)": {
        "encoding": "mapping",
        "key": "t_uint40",
        "label": "mapping(uint40 => struct BokkyPooBahsRedBlackTreeLibrary.Node)",
        "numberOfBytes": "32",
        "value": "t_struct(Node)22089_storage"
      },
      "t_mapping(t_uint40,t_struct(OrderInfo)14645_storage)": {
        "encoding": "mapping",
        "key": "t_uint40",
        "label": "mapping(uint40 => struct MarketStructs.OrderInfo)",
        "numberOfBytes": "32",
        "value": "t_struct(OrderInfo)14645_storage"
      },
      "t_mapping(t_uint48,t_struct(ExecutionInfo)14659_storage)": {
        "encoding": "mapping",
        "key": "t_uint48",
        "label": "mapping(uint48 => struct MarketStructs.ExecutionInfo)",
        "numberOfBytes": "32",
        "value": "t_struct(ExecutionInfo)14659_storage"
      },
      "t_string_storage": {
        "encoding": "bytes",
        "label": "string",
        "numberOfBytes": "32"
      },
      "t_struct(Candle)14698_storage": {
        "encoding": "inplace",
        "label": "struct MarketStructs.Candle",
        "members": [
          {
            "astId": 14691,
            "contract": "contracts/PerpdexMarket.sol:PerpdexMarket",
            "label": "closeX96",
            "offset": 0,
            "slot": "0",
            "type": "t_uint128"
          },
          {
            "astId": 14693,
            "contract": "contracts/PerpdexMarket.sol:PerpdexMarket",
            "label": "quote",
            "offset": 16,
            "slot": "0",
            "type": "t_uint128"
          },
          {
            "astId": 14695,
            "contract": "contracts/PerpdexMarket.sol:PerpdexMarket",
            "label": "highX96",
            "offset": 0,
            "slot": "1",
            "type": "t_uint128"
          },
          {
            "astId": 14697,
            "contract": "contracts/PerpdexMarket.sol:PerpdexMarket",
            "label": "lowX96",
            "offset": 16,
            "slot": "1",
            "type": "t_uint128"
          }
        ],
        "numberOfBytes": "64"
      },
      "t_struct(CandleList)14708_storage": {
        "encoding": "inplace",
        "label": "struct MarketStructs.CandleList",
        "members": [
          {
            "astId": 14705,
            "contract": "contracts/PerpdexMarket.sol:PerpdexMarket",
            "label": "candles",
            "offset": 0,
            "slot": "0",
            "type": "t_mapping(t_uint32,t_mapping(t_uint32,t_struct(Candle)14698_storage))"
          },
          {
            "astId": 14707,
            "contract": "contracts/PerpdexMarket.sol:PerpdexMarket",
            "label": "prevTimestamp",
            "offset": 0,
            "slot": "1",
            "type": "t_uint32"
          }
        ],
        "numberOfBytes": "64"
      },
      "t_struct(ExecutionInfo)14659_storage": {
        "encoding": "inplace",
        "label": "struct MarketStructs.ExecutionInfo",
        "members": [
          {
            "astId": 14658,
            "contract": "contracts/PerpdexMarket.sol:PerpdexMarket",
            "label": "baseBalancePerShareX96",
            "offset": 0,
            "slot": "0",
            "type": "t_uint256"
          }
        ],
        "numberOfBytes": "32"
      },
      "t_struct(FundingInfo)14605_storage": {
        "encoding": "inplace",
        "label": "struct MarketStructs.FundingInfo",
        "members": [
          {
            "astId": 14600,
            "contract": "contracts/PerpdexMarket.sol:PerpdexMarket",
            "label": "prevIndexPriceBase",
            "offset": 0,
            "slot": "0",
            "type": "t_uint256"
          },
          {
            "astId": 14602,
            "contract": "contracts/PerpdexMarket.sol:PerpdexMarket",
            "label": "prevIndexPriceQuote",
            "offset": 0,
            "slot": "1",
            "type": "t_uint256"
          },
          {
            "astId": 14604,
            "contract": "contracts/PerpdexMarket.sol:PerpdexMarket",
            "label": "prevIndexPriceTimestamp",
            "offset": 0,
            "slot": "2",
            "type": "t_uint256"
          }
        ],
        "numberOfBytes": "96"
      },
      "t_struct(Node)22089_storage": {
        "encoding": "inplace",
        "label": "struct BokkyPooBahsRedBlackTreeLibrary.Node",
        "members": [
          {
            "astId": 22080,
            "contract": "contracts/PerpdexMarket.sol:PerpdexMarket",
            "label": "parent",
            "offset": 0,
            "slot": "0",
            "type": "t_uint40"
          },
          {
            "astId": 22082,
            "contract": "contracts/PerpdexMarket.sol:PerpdexMarket",
            "label": "left",
            "offset": 5,
            "slot": "0",
            "type": "t_uint40"
          },
          {
            "astId": 22084,
            "contract": "contracts/PerpdexMarket.sol:PerpdexMarket",
            "label": "right",
            "offset": 10,
            "slot": "0",
            "type": "t_uint40"
          },
          {
            "astId": 22086,
            "contract": "contracts/PerpdexMarket.sol:PerpdexMarket",
            "label": "red",
            "offset": 15,
            "slot": "0",
            "type": "t_bool"
          },
          {
            "astId": 22088,
            "contract": "contracts/PerpdexMarket.sol:PerpdexMarket",
            "label": "userData",
            "offset": 16,
            "slot": "0",
            "type": "t_uint128"
          }
        ],
        "numberOfBytes": "32"
      },
      "t_struct(OrderBookInfo)14673_storage": {
        "encoding": "inplace",
        "label": "struct MarketStructs.OrderBookInfo",
        "members": [
          {
            "astId": 14662,
            "contract": "contracts/PerpdexMarket.sol:PerpdexMarket",
            "label": "ask",
            "offset": 0,
            "slot": "0",
            "type": "t_struct(OrderBookSideInfo)14656_storage"
          },
          {
            "astId": 14665,
            "contract": "contracts/PerpdexMarket.sol:PerpdexMarket",
            "label": "bid",
            "offset": 0,
            "slot": "4",
            "type": "t_struct(OrderBookSideInfo)14656_storage"
          },
          {
            "astId": 14667,
            "contract": "contracts/PerpdexMarket.sol:PerpdexMarket",
            "label": "seqExecutionId",
            "offset": 0,
            "slot": "8",
            "type": "t_uint48"
          },
          {
            "astId": 14672,
            "contract": "contracts/PerpdexMarket.sol:PerpdexMarket",
            "label": "executionInfos",
            "offset": 0,
            "slot": "9",
            "type": "t_mapping(t_uint48,t_struct(ExecutionInfo)14659_storage)"
          }
        ],
        "numberOfBytes": "320"
      },
      "t_struct(OrderBookSideInfo)14656_storage": {
        "encoding": "inplace",
        "label": "struct MarketStructs.OrderBookSideInfo",
        "members": [
          {
            "astId": 14648,
            "contract": "contracts/PerpdexMarket.sol:PerpdexMarket",
            "label": "tree",
            "offset": 0,
            "slot": "0",
            "type": "t_struct(Tree)22097_storage"
          },
          {
            "astId": 14653,
            "contract": "contracts/PerpdexMarket.sol:PerpdexMarket",
            "label": "orderInfos",
            "offset": 0,
            "slot": "2",
            "type": "t_mapping(t_uint40,t_struct(OrderInfo)14645_storage)"
          },
          {
            "astId": 14655,
            "contract": "contracts/PerpdexMarket.sol:PerpdexMarket",
            "label": "seqKey",
            "offset": 0,
            "slot": "3",
            "type": "t_uint40"
          }
        ],
        "numberOfBytes": "128"
      },
      "t_struct(OrderInfo)14645_storage": {
        "encoding": "inplace",
        "label": "struct MarketStructs.OrderInfo",
        "members": [
          {
            "astId": 14638,
            "contract": "contracts/PerpdexMarket.sol:PerpdexMarket",
            "label": "base",
            "offset": 0,
            "slot": "0",
            "type": "t_uint256"
          },
          {
            "astId": 14640,
            "contract": "contracts/PerpdexMarket.sol:PerpdexMarket",
            "label": "baseSum",
            "offset": 0,
            "slot": "1",
            "type": "t_uint256"
          },
          {
            "astId": 14642,
            "contract": "contracts/PerpdexMarket.sol:PerpdexMarket",
            "label": "quoteSum",
            "offset": 0,
            "slot": "2",
            "type": "t_uint256"
          },
          {
            "astId": 14644,
            "contract": "contracts/PerpdexMarket.sol:PerpdexMarket",
            "label": "executionId",
            "offset": 0,
            "slot": "3",
            "type": "t_uint48"
          }
        ],
        "numberOfBytes": "128"
      },
      "t_struct(PoolFeeConfig)14689_storage": {
        "encoding": "inplace",
        "label": "struct MarketStructs.PoolFeeConfig",
        "members": [
          {
            "astId": 14684,
            "contract": "contracts/PerpdexMarket.sol:PerpdexMarket",
            "label": "fixedFeeRatio",
            "offset": 0,
            "slot": "0",
            "type": "t_uint24"
          },
          {
            "astId": 14686,
            "contract": "contracts/PerpdexMarket.sol:PerpdexMarket",
            "label": "atrFeeRatio",
            "offset": 3,
            "slot": "0",
            "type": "t_uint24"
          },
          {
            "astId": 14688,
            "contract": "contracts/PerpdexMarket.sol:PerpdexMarket",
            "label": "atrEmaBlocks",
            "offset": 6,
            "slot": "0",
            "type": "t_uint32"
          }
        ],
        "numberOfBytes": "32"
      },
      "t_struct(PoolFeeInfo)14682_storage": {
        "encoding": "inplace",
        "label": "struct MarketStructs.PoolFeeInfo",
        "members": [
          {
            "astId": 14675,
            "contract": "contracts/PerpdexMarket.sol:PerpdexMarket",
            "label": "atrX96",
            "offset": 0,
            "slot": "0",
            "type": "t_uint256"
          },
          {
            "astId": 14677,
            "contract": "contracts/PerpdexMarket.sol:PerpdexMarket",
            "label": "referenceTimestamp",
            "offset": 0,
            "slot": "1",
            "type": "t_uint256"
          },
          {
            "astId": 14679,
            "contract": "contracts/PerpdexMarket.sol:PerpdexMarket",
            "label": "currentHighX96",
            "offset": 0,
            "slot": "2",
            "type": "t_uint256"
          },
          {
            "astId": 14681,
            "contract": "contracts/PerpdexMarket.sol:PerpdexMarket",
            "label": "currentLowX96",
            "offset": 0,
            "slot": "3",
            "type": "t_uint256"
          }
        ],
        "numberOfBytes": "128"
      },
      "t_struct(PoolInfo)14618_storage": {
        "encoding": "inplace",
        "label": "struct MarketStructs.PoolInfo",
        "members": [
          {
            "astId": 14607,
            "contract": "contracts/PerpdexMarket.sol:PerpdexMarket",
            "label": "base",
            "offset": 0,
            "slot": "0",
            "type": "t_uint256"
          },
          {
            "astId": 14609,
            "contract": "contracts/PerpdexMarket.sol:PerpdexMarket",
            "label": "quote",
            "offset": 0,
            "slot": "1",
            "type": "t_uint256"
          },
          {
            "astId": 14611,
            "contract": "contracts/PerpdexMarket.sol:PerpdexMarket",
            "label": "totalLiquidity",
            "offset": 0,
            "slot": "2",
            "type": "t_uint256"
          },
          {
            "astId": 14613,
            "contract": "contracts/PerpdexMarket.sol:PerpdexMarket",
            "label": "cumBasePerLiquidityX96",
            "offset": 0,
            "slot": "3",
            "type": "t_uint256"
          },
          {
            "astId": 14615,
            "contract": "contracts/PerpdexMarket.sol:PerpdexMarket",
            "label": "cumQuotePerLiquidityX96",
            "offset": 0,
            "slot": "4",
            "type": "t_uint256"
          },
          {
            "astId": 14617,
            "contract": "contracts/PerpdexMarket.sol:PerpdexMarket",
            "label": "baseBalancePerShareX96",
            "offset": 0,
            "slot": "5",
            "type": "t_uint256"
          }
        ],
        "numberOfBytes": "192"
      },
      "t_struct(PriceLimitConfig)14636_storage": {
        "encoding": "inplace",
        "label": "struct MarketStructs.PriceLimitConfig",
        "members": [
          {
            "astId": 14627,
            "contract": "contracts/PerpdexMarket.sol:PerpdexMarket",
            "label": "normalOrderRatio",
            "offset": 0,
            "slot": "0",
            "type": "t_uint24"
          },
          {
            "astId": 14629,
            "contract": "contracts/PerpdexMarket.sol:PerpdexMarket",
            "label": "liquidationRatio",
            "offset": 3,
            "slot": "0",
            "type": "t_uint24"
          },
          {
            "astId": 14631,
            "contract": "contracts/PerpdexMarket.sol:PerpdexMarket",
            "label": "emaNormalOrderRatio",
            "offset": 6,
            "slot": "0",
            "type": "t_uint24"
          },
          {
            "astId": 14633,
            "contract": "contracts/PerpdexMarket.sol:PerpdexMarket",
            "label": "emaLiquidationRatio",
            "offset": 9,
            "slot": "0",
            "type": "t_uint24"
          },
          {
            "astId": 14635,
            "contract": "contracts/PerpdexMarket.sol:PerpdexMarket",
            "label": "emaSec",
            "offset": 12,
            "slot": "0",
            "type": "t_uint32"
          }
        ],
        "numberOfBytes": "32"
      },
      "t_struct(PriceLimitInfo)14625_storage": {
        "encoding": "inplace",
        "label": "struct MarketStructs.PriceLimitInfo",
        "members": [
          {
            "astId": 14620,
            "contract": "contracts/PerpdexMarket.sol:PerpdexMarket",
            "label": "referencePrice",
            "offset": 0,
            "slot": "0",
            "type": "t_uint256"
          },
          {
            "astId": 14622,
            "contract": "contracts/PerpdexMarket.sol:PerpdexMarket",
            "label": "referenceTimestamp",
            "offset": 0,
            "slot": "1",
            "type": "t_uint256"
          },
          {
            "astId": 14624,
            "contract": "contracts/PerpdexMarket.sol:PerpdexMarket",
            "label": "emaPrice",
            "offset": 0,
            "slot": "2",
            "type": "t_uint256"
          }
        ],
        "numberOfBytes": "96"
      },
      "t_struct(Tree)22097_storage": {
        "encoding": "inplace",
        "label": "struct BokkyPooBahsRedBlackTreeLibrary.Tree",
        "members": [
          {
            "astId": 22091,
            "contract": "contracts/PerpdexMarket.sol:PerpdexMarket",
            "label": "root",
            "offset": 0,
            "slot": "0",
            "type": "t_uint40"
          },
          {
            "astId": 22096,
            "contract": "contracts/PerpdexMarket.sol:PerpdexMarket",
            "label": "nodes",
            "offset": 0,
            "slot": "1",
            "type": "t_mapping(t_uint40,t_struct(Node)22089_storage)"
          }
        ],
        "numberOfBytes": "64"
      },
      "t_uint128": {
        "encoding": "inplace",
        "label": "uint128",
        "numberOfBytes": "16"
      },
      "t_uint24": {
        "encoding": "inplace",
        "label": "uint24",
        "numberOfBytes": "3"
      },
      "t_uint256": {
        "encoding": "inplace",
        "label": "uint256",
        "numberOfBytes": "32"
      },
      "t_uint32": {
        "encoding": "inplace",
        "label": "uint32",
        "numberOfBytes": "4"
      },
      "t_uint40": {
        "encoding": "inplace",
        "label": "uint40",
        "numberOfBytes": "5"
      },
      "t_uint48": {
        "encoding": "inplace",
        "label": "uint48",
        "numberOfBytes": "6"
      }
    }
  }
}