{
  "address": "0xF3CbC92267c6217A1F67F91431A4BdC038Fe2Aee",
  "abi": [
    {
      "inputs": [
        {
          "internalType": "address",
          "name": "ownerArg",
          "type": "address"
        },
        {
          "internalType": "string",
          "name": "symbolArg",
          "type": "string"
        },
        {
          "internalType": "address",
          "name": "exchangeArg",
          "type": "address"
        },
        {
          "internalType": "address",
          "name": "priceFeedBaseArg",
          "type": "address"
        },
        {
          "internalType": "address",
          "name": "priceFeedQuoteArg",
          "type": "address"
        }
      ],
      "stateMutability": "nonpayable",
      "type": "constructor"
    },
    {
      "anonymous": false,
      "inputs": [
        {
          "indexed": false,
          "internalType": "uint32",
          "name": "value",
          "type": "uint32"
        }
      ],
      "name": "FundingMaxElapsedSecChanged",
      "type": "event"
    },
    {
      "anonymous": false,
      "inputs": [
        {
          "indexed": false,
          "internalType": "uint24",
          "name": "value",
          "type": "uint24"
        }
      ],
      "name": "FundingMaxPremiumRatioChanged",
      "type": "event"
    },
    {
      "anonymous": false,
      "inputs": [
        {
          "indexed": false,
          "internalType": "int256",
          "name": "fundingRateX96",
          "type": "int256"
        },
        {
          "indexed": false,
          "internalType": "uint32",
          "name": "elapsedSec",
          "type": "uint32"
        },
        {
          "indexed": false,
          "internalType": "int256",
          "name": "premiumX96",
          "type": "int256"
        },
        {
          "indexed": false,
          "internalType": "uint256",
          "name": "markPriceX96",
          "type": "uint256"
        },
        {
          "indexed": false,
          "internalType": "uint256",
          "name": "cumBasePerLiquidityX96",
          "type": "uint256"
        },
        {
          "indexed": false,
          "internalType": "uint256",
          "name": "cumQuotePerLiquidityX96",
          "type": "uint256"
        }
      ],
      "name": "FundingPaid",
      "type": "event"
    },
    {
      "anonymous": false,
      "inputs": [
        {
          "indexed": false,
          "internalType": "uint32",
          "name": "value",
          "type": "uint32"
        }
      ],
      "name": "FundingRolloverSecChanged",
      "type": "event"
    },
    {
      "anonymous": false,
      "inputs": [
        {
          "indexed": false,
          "internalType": "bool",
          "name": "isBid",
          "type": "bool"
        },
        {
          "indexed": false,
          "internalType": "uint256",
          "name": "orderId",
          "type": "uint256"
        }
      ],
      "name": "LimitOrderCanceled",
      "type": "event"
    },
    {
      "anonymous": false,
      "inputs": [
        {
          "indexed": false,
          "internalType": "bool",
          "name": "isBid",
          "type": "bool"
        },
        {
          "indexed": false,
          "internalType": "uint256",
          "name": "base",
          "type": "uint256"
        },
        {
          "indexed": false,
          "internalType": "uint256",
          "name": "priceX96",
          "type": "uint256"
        },
        {
          "indexed": false,
          "internalType": "uint256",
          "name": "orderId",
          "type": "uint256"
        }
      ],
      "name": "LimitOrderCreated",
      "type": "event"
    },
    {
      "anonymous": false,
      "inputs": [
        {
          "indexed": false,
          "internalType": "uint256",
          "name": "base",
          "type": "uint256"
        },
        {
          "indexed": false,
          "internalType": "uint256",
          "name": "quote",
          "type": "uint256"
        },
        {
          "indexed": false,
          "internalType": "uint256",
          "name": "liquidity",
          "type": "uint256"
        }
      ],
      "name": "LiquidityAdded",
      "type": "event"
    },
    {
      "anonymous": false,
      "inputs": [
        {
          "indexed": false,
          "internalType": "uint256",
          "name": "base",
          "type": "uint256"
        },
        {
          "indexed": false,
          "internalType": "uint256",
          "name": "quote",
          "type": "uint256"
        },
        {
          "indexed": false,
          "internalType": "uint256",
          "name": "liquidity",
          "type": "uint256"
        }
      ],
      "name": "LiquidityRemoved",
      "type": "event"
    },
    {
      "anonymous": false,
      "inputs": [
        {
          "indexed": true,
          "internalType": "address",
          "name": "previousOwner",
          "type": "address"
        },
        {
          "indexed": true,
          "internalType": "address",
          "name": "newOwner",
          "type": "address"
        }
      ],
      "name": "OwnershipTransferred",
      "type": "event"
    },
    {
      "anonymous": false,
      "inputs": [
        {
          "indexed": false,
          "internalType": "uint24",
          "name": "fixedFeeRatio",
          "type": "uint24"
        },
        {
          "indexed": false,
          "internalType": "uint24",
          "name": "atrFeeRatio",
          "type": "uint24"
        },
        {
          "indexed": false,
          "internalType": "uint32",
          "name": "atrEmaBlocks",
          "type": "uint32"
        }
      ],
      "name": "PoolFeeConfigChanged",
      "type": "event"
    },
    {
      "anonymous": false,
      "inputs": [
        {
          "indexed": false,
          "internalType": "uint24",
          "name": "normalOrderRatio",
          "type": "uint24"
        },
        {
          "indexed": false,
          "internalType": "uint24",
          "name": "liquidationRatio",
          "type": "uint24"
        },
        {
          "indexed": false,
          "internalType": "uint24",
          "name": "emaNormalOrderRatio",
          "type": "uint24"
        },
        {
          "indexed": false,
          "internalType": "uint24",
          "name": "emaLiquidationRatio",
          "type": "uint24"
        },
        {
          "indexed": false,
          "internalType": "uint32",
          "name": "emaSec",
          "type": "uint32"
        }
      ],
      "name": "PriceLimitConfigChanged",
      "type": "event"
    },
    {
      "anonymous": false,
      "inputs": [
        {
          "indexed": false,
          "internalType": "bool",
          "name": "isBaseToQuote",
          "type": "bool"
        },
        {
          "indexed": false,
          "internalType": "bool",
          "name": "isExactInput",
          "type": "bool"
        },
        {
          "indexed": false,
          "internalType": "uint256",
          "name": "amount",
          "type": "uint256"
        },
        {
          "indexed": false,
          "internalType": "uint256",
          "name": "oppositeAmount",
          "type": "uint256"
        },
        {
          "indexed": false,
          "internalType": "uint40",
          "name": "fullLastOrderId",
          "type": "uint40"
        },
        {
          "indexed": false,
          "internalType": "uint40",
          "name": "partialOrderId",
          "type": "uint40"
        },
        {
          "indexed": false,
          "internalType": "uint256",
          "name": "basePartial",
          "type": "uint256"
        },
        {
          "indexed": false,
          "internalType": "uint256",
          "name": "quotePartial",
          "type": "uint256"
        }
      ],
      "name": "Swapped",
      "type": "event"
    },
    {
      "inputs": [
        {
          "internalType": "uint256",
          "name": "baseShare",
          "type": "uint256"
        },
        {
          "internalType": "uint256",
          "name": "quoteBalance",
          "type": "uint256"
        }
      ],
      "name": "addLiquidity",
      "outputs": [
        {
          "internalType": "uint256",
          "name": "base",
          "type": "uint256"
        },
        {
          "internalType": "uint256",
          "name": "quote",
          "type": "uint256"
        },
        {
          "internalType": "uint256",
          "name": "liquidity",
          "type": "uint256"
        }
      ],
      "stateMutability": "nonpayable",
      "type": "function"
    },
    {
      "inputs": [],
      "name": "baseBalancePerShareX96",
      "outputs": [
        {
          "internalType": "uint256",
          "name": "",
          "type": "uint256"
        }
      ],
      "stateMutability": "view",
      "type": "function"
    },
    {
      "inputs": [
        {
          "internalType": "bool",
          "name": "isBid",
          "type": "bool"
        },
        {
          "internalType": "uint40",
          "name": "orderId",
          "type": "uint40"
        }
      ],
      "name": "cancelLimitOrder",
      "outputs": [],
      "stateMutability": "nonpayable",
      "type": "function"
    },
    {
      "inputs": [],
      "name": "candleList",
      "outputs": [
        {
          "internalType": "uint32",
          "name": "prevTimestamp",
          "type": "uint32"
        }
      ],
      "stateMutability": "view",
      "type": "function"
    },
    {
      "inputs": [
        {
          "internalType": "bool",
          "name": "isBid",
          "type": "bool"
        },
        {
          "internalType": "uint256",
          "name": "base",
          "type": "uint256"
        },
        {
          "internalType": "uint256",
          "name": "priceX96",
          "type": "uint256"
        },
        {
          "internalType": "bool",
          "name": "ignorePostOnlyCheck",
          "type": "bool"
        }
      ],
      "name": "createLimitOrder",
      "outputs": [
        {
          "internalType": "uint40",
          "name": "orderId",
          "type": "uint40"
        }
      ],
      "stateMutability": "nonpayable",
      "type": "function"
    },
    {
      "inputs": [],
      "name": "exchange",
      "outputs": [
        {
          "internalType": "address",
          "name": "",
          "type": "address"
        }
      ],
      "stateMutability": "view",
      "type": "function"
    },
    {
      "inputs": [],
      "name": "feeRatio",
      "outputs": [
        {
          "internalType": "uint24",
          "name": "",
          "type": "uint24"
        }
      ],
      "stateMutability": "view",
      "type": "function"
    },
    {
      "inputs": [],
      "name": "fundingInfo",
      "outputs": [
        {
          "internalType": "uint256",
          "name": "prevIndexPriceBase",
          "type": "uint256"
        },
        {
          "internalType": "uint256",
          "name": "prevIndexPriceQuote",
          "type": "uint256"
        },
        {
          "internalType": "uint256",
          "name": "prevIndexPriceTimestamp",
          "type": "uint256"
        }
      ],
      "stateMutability": "view",
      "type": "function"
    },
    {
      "inputs": [],
      "name": "fundingMaxElapsedSec",
      "outputs": [
        {
          "internalType": "uint32",
          "name": "",
          "type": "uint32"
        }
      ],
      "stateMutability": "view",
      "type": "function"
    },
    {
      "inputs": [],
      "name": "fundingMaxPremiumRatio",
      "outputs": [
        {
          "internalType": "uint24",
          "name": "",
          "type": "uint24"
        }
      ],
      "stateMutability": "view",
      "type": "function"
    },
    {
      "inputs": [],
      "name": "fundingRolloverSec",
      "outputs": [
        {
          "internalType": "uint32",
          "name": "",
          "type": "uint32"
        }
      ],
      "stateMutability": "view",
      "type": "function"
    },
    {
      "inputs": [],
      "name": "getAskPriceX96",
      "outputs": [
        {
          "internalType": "uint256",
          "name": "result",
          "type": "uint256"
        }
      ],
      "stateMutability": "view",
      "type": "function"
    },
    {
      "inputs": [],
      "name": "getBidPriceX96",
      "outputs": [
        {
          "internalType": "uint256",
          "name": "result",
          "type": "uint256"
        }
      ],
      "stateMutability": "view",
      "type": "function"
    },
    {
      "inputs": [
        {
          "internalType": "uint32",
          "name": "interval",
          "type": "uint32"
        },
        {
          "internalType": "uint32",
          "name": "startTime",
          "type": "uint32"
        },
        {
          "internalType": "uint256",
          "name": "count",
          "type": "uint256"
        }
      ],
      "name": "getCandles",
      "outputs": [
        {
          "components": [
            {
              "internalType": "uint128",
              "name": "closeX96",
              "type": "uint128"
            },
            {
              "internalType": "uint128",
              "name": "quote",
              "type": "uint128"
            },
            {
              "internalType": "uint128",
              "name": "highX96",
              "type": "uint128"
            },
            {
              "internalType": "uint128",
              "name": "lowX96",
              "type": "uint128"
            }
          ],
          "internalType": "struct MarketStructs.Candle[]",
          "name": "",
          "type": "tuple[]"
        }
      ],
      "stateMutability": "view",
      "type": "function"
    },
    {
      "inputs": [],
      "name": "getCumDeleveragedPerLiquidityX96",
      "outputs": [
        {
          "internalType": "uint256",
          "name": "",
          "type": "uint256"
        },
        {
          "internalType": "uint256",
          "name": "",
          "type": "uint256"
        }
      ],
      "stateMutability": "view",
      "type": "function"
    },
    {
      "inputs": [
        {
          "internalType": "bool",
          "name": "isBid",
          "type": "bool"
        },
        {
          "internalType": "uint40",
          "name": "orderId",
          "type": "uint40"
        }
      ],
      "name": "getLimitOrderExecution",
      "outputs": [
        {
          "internalType": "uint48",
          "name": "executionId",
          "type": "uint48"
        },
        {
          "internalType": "uint256",
          "name": "executedBase",
          "type": "uint256"
        },
        {
          "internalType": "uint256",
          "name": "executedQuote",
          "type": "uint256"
        }
      ],
      "stateMutability": "view",
      "type": "function"
    },
    {
      "inputs": [
        {
          "internalType": "bool",
          "name": "isBid",
          "type": "bool"
        },
        {
          "internalType": "uint40",
          "name": "orderId",
          "type": "uint40"
        }
      ],
      "name": "getLimitOrderInfo",
      "outputs": [
        {
          "internalType": "uint256",
          "name": "base",
          "type": "uint256"
        },
        {
          "internalType": "uint256",
          "name": "priceX96",
          "type": "uint256"
        }
      ],
      "stateMutability": "view",
      "type": "function"
    },
    {
      "inputs": [
        {
          "internalType": "uint256",
          "name": "liquidity",
          "type": "uint256"
        },
        {
          "internalType": "uint256",
          "name": "cumBasePerLiquidityX96",
          "type": "uint256"
        },
        {
          "internalType": "uint256",
          "name": "cumQuotePerLiquidityX96",
          "type": "uint256"
        }
      ],
      "name": "getLiquidityDeleveraged",
      "outputs": [
        {
          "internalType": "int256",
          "name": "",
          "type": "int256"
        },
        {
          "internalType": "int256",
          "name": "",
          "type": "int256"
        }
      ],
      "stateMutability": "view",
      "type": "function"
    },
    {
      "inputs": [
        {
          "internalType": "uint256",
          "name": "liquidity",
          "type": "uint256"
        }
      ],
      "name": "getLiquidityValue",
      "outputs": [
        {
          "internalType": "uint256",
          "name": "",
          "type": "uint256"
        },
        {
          "internalType": "uint256",
          "name": "",
          "type": "uint256"
        }
      ],
      "stateMutability": "view",
      "type": "function"
    },
    {
      "inputs": [],
      "name": "getMarkPriceX96",
      "outputs": [
        {
          "internalType": "uint256",
          "name": "",
          "type": "uint256"
        }
      ],
      "stateMutability": "view",
      "type": "function"
    },
    {
      "inputs": [],
      "name": "getShareMarkPriceX96",
      "outputs": [
        {
          "internalType": "uint256",
          "name": "",
          "type": "uint256"
        }
      ],
      "stateMutability": "view",
      "type": "function"
    },
    {
      "inputs": [
        {
          "internalType": "bool",
          "name": "isBaseToQuote",
          "type": "bool"
        },
        {
          "internalType": "bool",
          "name": "isExactInput",
          "type": "bool"
        },
        {
          "internalType": "bool",
          "name": "isLiquidation",
          "type": "bool"
        }
      ],
      "name": "maxSwap",
      "outputs": [
        {
          "internalType": "uint256",
          "name": "amount",
          "type": "uint256"
        }
      ],
      "stateMutability": "view",
      "type": "function"
    },
    {
      "inputs": [
        {
          "internalType": "bool",
          "name": "isBaseToQuote",
          "type": "bool"
        },
        {
          "internalType": "bool",
          "name": "isExactInput",
          "type": "bool"
        },
        {
          "internalType": "uint256",
          "name": "priceX96",
          "type": "uint256"
        }
      ],
      "name": "maxSwapByPrice",
      "outputs": [
        {
          "internalType": "uint256",
          "name": "amount",
          "type": "uint256"
        }
      ],
      "stateMutability": "view",
      "type": "function"
    },
    {
      "inputs": [
        {
          "internalType": "bytes[]",
          "name": "data",
          "type": "bytes[]"
        }
      ],
      "name": "multicall",
      "outputs": [
        {
          "internalType": "bytes[]",
          "name": "results",
          "type": "bytes[]"
        }
      ],
      "stateMutability": "nonpayable",
      "type": "function"
    },
    {
      "inputs": [],
      "name": "owner",
      "outputs": [
        {
          "internalType": "address",
          "name": "",
          "type": "address"
        }
      ],
      "stateMutability": "view",
      "type": "function"
    },
    {
      "inputs": [],
      "name": "poolFeeConfig",
      "outputs": [
        {
          "internalType": "uint24",
          "name": "fixedFeeRatio",
          "type": "uint24"
        },
        {
          "internalType": "uint24",
          "name": "atrFeeRatio",
          "type": "uint24"
        },
        {
          "internalType": "uint32",
          "name": "atrEmaBlocks",
          "type": "uint32"
        }
      ],
      "stateMutability": "view",
      "type": "function"
    },
    {
      "inputs": [],
      "name": "poolFeeInfo",
      "outputs": [
        {
          "internalType": "uint256",
          "name": "atrX96",
          "type": "uint256"
        },
        {
          "internalType": "uint256",
          "name": "referenceTimestamp",
          "type": "uint256"
        },
        {
          "internalType": "uint256",
          "name": "currentHighX96",
          "type": "uint256"
        },
        {
          "internalType": "uint256",
          "name": "currentLowX96",
          "type": "uint256"
        }
      ],
      "stateMutability": "view",
      "type": "function"
    },
    {
      "inputs": [],
      "name": "poolInfo",
      "outputs": [
        {
          "internalType": "uint256",
          "name": "base",
          "type": "uint256"
        },
        {
          "internalType": "uint256",
          "name": "quote",
          "type": "uint256"
        },
        {
          "internalType": "uint256",
          "name": "totalLiquidity",
          "type": "uint256"
        },
        {
          "internalType": "uint256",
          "name": "cumBasePerLiquidityX96",
          "type": "uint256"
        },
        {
          "internalType": "uint256",
          "name": "cumQuotePerLiquidityX96",
          "type": "uint256"
        },
        {
          "internalType": "uint256",
          "name": "baseBalancePerShareX96",
          "type": "uint256"
        }
      ],
      "stateMutability": "view",
      "type": "function"
    },
    {
      "inputs": [
        {
          "internalType": "bool",
          "name": "isBaseToQuote",
          "type": "bool"
        },
        {
          "internalType": "bool",
          "name": "isExactInput",
          "type": "bool"
        },
        {
          "internalType": "uint256",
          "name": "amount",
          "type": "uint256"
        },
        {
          "internalType": "bool",
          "name": "isLiquidation",
          "type": "bool"
        }
      ],
      "name": "previewSwap",
      "outputs": [
        {
          "internalType": "uint256",
          "name": "oppositeAmount",
          "type": "uint256"
        }
      ],
      "stateMutability": "view",
      "type": "function"
    },
    {
      "inputs": [],
      "name": "priceFeedBase",
      "outputs": [
        {
          "internalType": "address",
          "name": "",
          "type": "address"
        }
      ],
      "stateMutability": "view",
      "type": "function"
    },
    {
      "inputs": [],
      "name": "priceFeedQuote",
      "outputs": [
        {
          "internalType": "address",
          "name": "",
          "type": "address"
        }
      ],
      "stateMutability": "view",
      "type": "function"
    },
    {
      "inputs": [],
      "name": "priceLimitConfig",
      "outputs": [
        {
          "internalType": "uint24",
          "name": "normalOrderRatio",
          "type": "uint24"
        },
        {
          "internalType": "uint24",
          "name": "liquidationRatio",
          "type": "uint24"
        },
        {
          "internalType": "uint24",
          "name": "emaNormalOrderRatio",
          "type": "uint24"
        },
        {
          "internalType": "uint24",
          "name": "emaLiquidationRatio",
          "type": "uint24"
        },
        {
          "internalType": "uint32",
          "name": "emaSec",
          "type": "uint32"
        }
      ],
      "stateMutability": "view",
      "type": "function"
    },
    {
      "inputs": [],
      "name": "priceLimitInfo",
      "outputs": [
        {
          "internalType": "uint256",
          "name": "referencePrice",
          "type": "uint256"
        },
        {
          "internalType": "uint256",
          "name": "referenceTimestamp",
          "type": "uint256"
        },
        {
          "internalType": "uint256",
          "name": "emaPrice",
          "type": "uint256"
        }
      ],
      "stateMutability": "view",
      "type": "function"
    },
    {
      "inputs": [
        {
          "internalType": "uint256",
          "name": "liquidity",
          "type": "uint256"
        }
      ],
      "name": "removeLiquidity",
      "outputs": [
        {
          "internalType": "uint256",
          "name": "base",
          "type": "uint256"
        },
        {
          "internalType": "uint256",
          "name": "quote",
          "type": "uint256"
        }
      ],
      "stateMutability": "nonpayable",
      "type": "function"
    },
    {
      "inputs": [],
      "name": "renounceOwnership",
      "outputs": [],
      "stateMutability": "nonpayable",
      "type": "function"
    },
    {
      "inputs": [
        {
          "internalType": "uint32",
          "name": "value",
          "type": "uint32"
        }
      ],
      "name": "setFundingMaxElapsedSec",
      "outputs": [],
      "stateMutability": "nonpayable",
      "type": "function"
    },
    {
      "inputs": [
        {
          "internalType": "uint24",
          "name": "value",
          "type": "uint24"
        }
      ],
      "name": "setFundingMaxPremiumRatio",
      "outputs": [],
      "stateMutability": "nonpayable",
      "type": "function"
    },
    {
      "inputs": [
        {
          "internalType": "uint32",
          "name": "value",
          "type": "uint32"
        }
      ],
      "name": "setFundingRolloverSec",
      "outputs": [],
      "stateMutability": "nonpayable",
      "type": "function"
    },
    {
      "inputs": [
        {
          "components": [
            {
              "internalType": "uint24",
              "name": "fixedFeeRatio",
              "type": "uint24"
            },
            {
              "internalType": "uint24",
              "name": "atrFeeRatio",
              "type": "uint24"
            },
            {
              "internalType": "uint32",
              "name": "atrEmaBlocks",
              "type": "uint32"
            }
          ],
          "internalType": "struct MarketStructs.PoolFeeConfig",
          "name": "value",
          "type": "tuple"
        }
      ],
      "name": "setPoolFeeConfig",
      "outputs": [],
      "stateMutability": "nonpayable",
      "type": "function"
    },
    {
      "inputs": [
        {
          "components": [
            {
              "internalType": "uint24",
              "name": "normalOrderRatio",
              "type": "uint24"
            },
            {
              "internalType": "uint24",
              "name": "liquidationRatio",
              "type": "uint24"
            },
            {
              "internalType": "uint24",
              "name": "emaNormalOrderRatio",
              "type": "uint24"
            },
            {
              "internalType": "uint24",
              "name": "emaLiquidationRatio",
              "type": "uint24"
            },
            {
              "internalType": "uint32",
              "name": "emaSec",
              "type": "uint32"
            }
          ],
          "internalType": "struct MarketStructs.PriceLimitConfig",
          "name": "value",
          "type": "tuple"
        }
      ],
      "name": "setPriceLimitConfig",
      "outputs": [],
      "stateMutability": "nonpayable",
      "type": "function"
    },
    {
      "inputs": [
        {
          "internalType": "bool",
          "name": "isBaseToQuote",
          "type": "bool"
        },
        {
          "internalType": "bool",
          "name": "isExactInput",
          "type": "bool"
        },
        {
          "internalType": "uint256",
          "name": "amount",
          "type": "uint256"
        },
        {
          "internalType": "bool",
          "name": "isLiquidation",
          "type": "bool"
        }
      ],
      "name": "swap",
      "outputs": [
        {
          "components": [
            {
              "internalType": "uint256",
              "name": "oppositeAmount",
              "type": "uint256"
            },
            {
              "internalType": "uint256",
              "name": "basePartial",
              "type": "uint256"
            },
            {
              "internalType": "uint256",
              "name": "quotePartial",
              "type": "uint256"
            },
            {
              "internalType": "uint40",
              "name": "partialOrderId",
              "type": "uint40"
            }
          ],
          "internalType": "struct IPerpdexMarketMinimum.SwapResponse",
          "name": "response",
          "type": "tuple"
        }
      ],
      "stateMutability": "nonpayable",
      "type": "function"
    },
    {
      "inputs": [],
      "name": "symbol",
      "outputs": [
        {
          "internalType": "string",
          "name": "",
          "type": "string"
        }
      ],
      "stateMutability": "view",
      "type": "function"
    },
    {
      "inputs": [
        {
          "internalType": "address",
          "name": "newOwner",
          "type": "address"
        }
      ],
      "name": "transferOwnership",
      "outputs": [],
      "stateMutability": "nonpayable",
      "type": "function"
    }
  ],
  "transactionHash": "0xfe3099dcf1820660d0ffa3bbd3d0dc5e59be3c516434af5bd71832ee5a1889cd",
  "args": [
    "0x4B78eCe4AA1be3495713199380635537C5fB2326",
    "USD",
    "0x9009EE9aaD89a5b12D70615d295f5850F9EcE501",
    "0x0000000000000000000000000000000000000000",
    "0xf485d7478cCeA7ff7FDbE78957E73216CADBaC60"
  ],
  "numDeployments": 6,
  "solcInputHash": "419562b4c163dca05159f3108d01f8ad",
  "bytecode": "0x601f80546001600160581b031916690151800001518000271017905561c35060e052620186a06101005262030d40610120526203d0906101405261012c61016052602080546001600160801b0319166d012c03d090030d400186a000c3501790556101e0604052600061018052623d09006101a05260106101c052602180546001600160501b03191666103d0900000000179055348015620000a057600080fd5b506040516200634938038062006349833981016040819052620000c39162000339565b6001600055620000d3336200028f565b620000de856200028f565b6001600160a01b03821615806200010f57506200010f826001600160a01b0316620002e160201b62001daf1760201c565b620001615760405162461bcd60e51b815260206004820152601d60248201527f504d5f433a2062617365207072696365206665656420696e76616c696400000060448201526064015b60405180910390fd5b6001600160a01b038116158062000192575062000192816001600160a01b0316620002e160201b62001daf1760201c565b620001e05760405162461bcd60e51b815260206004820152601e60248201527f504d5f433a2071756f7465207072696365206665656420696e76616c69640000604482015260640162000158565b6002620001ee8582620004e9565b506001600160a01b0383811660805282811660a052811660c0526040516301714ca760e41b81526009600482015273062788EcDd46A5F837A491570A50543b5fD3232290631714ca709060240160006040518083038186803b1580156200025457600080fd5b505af415801562000269573d6000803e3d6000fd5b50505050620002846003620002f060201b62001dbe1760201c565b5050505050620005b5565b600180546001600160a01b038381166001600160a01b0319831681179093556040519116919082907f8be0079c531659141344cd1fd0a4f28419497f9722a3daafe3b4186f6b6457e090600090a35050565b6001600160a01b03163b151590565b6c01000000000000000000000000600590910155565b80516001600160a01b03811681146200031e57600080fd5b919050565b634e487b7160e01b600052604160045260246000fd5b600080600080600060a086880312156200035257600080fd5b6200035d8662000306565b602087810151919650906001600160401b03808211156200037d57600080fd5b818901915089601f8301126200039257600080fd5b815181811115620003a757620003a762000323565b604051601f8201601f19908116603f01168101908382118183101715620003d257620003d262000323565b816040528281528c86848701011115620003eb57600080fd5b600093505b828410156200040f5784840186015181850187015292850192620003f0565b60008684830101528099505050505050506200042e6040870162000306565b92506200043e6060870162000306565b91506200044e6080870162000306565b90509295509295909350565b600181811c908216806200046f57607f821691505b6020821081036200049057634e487b7160e01b600052602260045260246000fd5b50919050565b601f821115620004e457600081815260208120601f850160051c81016020861015620004bf5750805b601f850160051c820191505b81811015620004e057828155600101620004cb565b5050505b505050565b81516001600160401b0381111562000505576200050562000323565b6200051d816200051684546200045a565b8462000496565b602080601f8311600181146200055557600084156200053c5750858301515b600019600386901b1c1916600185901b178555620004e0565b600085815260208120601f198616915b82811015620005865788860151825594840194600190910190840162000565565b5085821015620005a55787850151600019600388901b60f8161c191681555b5050505050600190811b01905550565b60805160a05160c051615d416200060860003960008181610299015281816114cf0152612c44015260008181610563015281816114a70152612c1f0152600081816106ef015261251b0152615d416000f3fe608060405234801561001057600080fd5b50600436106102695760003560e01c806380796d5511610151578063a276405b116100c3578063dba4915311610087578063dba4915314610711578063e7a4993114610723578063e801c4d814610736578063e8fa204f1461073e578063f228975214610751578063f2fde38b1461075c57600080fd5b8063a276405b14610634578063a4edcfc11461065d578063ac9650d814610693578063c9ca629b146106b3578063d2f7265a146106ea57600080fd5b8063933c797911610115578063933c7979146105cb5780639482de1a146105de57806395d89b41146105e65780639c8f9f23146105fb5780639cd441da1461060e5780639d67bf031461062157600080fd5b806380796d5514610511578063823f2b041461055e57806385aaa397146105855780638da5cb5b146105b25780638ee8fe5d146105c357600080fd5b806341744dd4116101ea578063715018a6116101ae578063715018a6146104b15780637452fadd146104b957806374f25689146104c15780637640482f146104d45780637661ce13146104e7578063796c20b7146104fe57600080fd5b806341744dd4146103dc5780634920e1fe146103e45780635a2f3d09146104045780636346f32e1461044f57806366a61ffb1461049e57600080fd5b8063220e89ce11610231578063220e89ce1461036657806323c8346a1461036e5780632724ebb0146103815780632ca756c4146103a95780633aa3e650146103b957600080fd5b806306f429b81461026e5780630e06e4d014610294578063125b9d27146102d3578063186f181e146102e85780631b520a0214610314575b600080fd5b61028161027c36600461520a565b61076f565b6040519081526020015b60405180910390f35b6102bb7f000000000000000000000000000000000000000000000000000000000000000081565b6040516001600160a01b03909116815260200161028b565b6102e66102e1366004615257565b6108b6565b005b601f546102ff90600160381b900463ffffffff1681565b60405163ffffffff909116815260200161028b565b60215461033e9062ffffff808216916301000000810490911690600160301b900463ffffffff1683565b6040805162ffffff948516815293909216602084015263ffffffff169082015260600161028b565b610281610a41565b6102e661037c36600461527c565b610af2565b61039461038f36600461527c565b610be4565b6040805192835260208301919091520161028b565b601e546102ff9063ffffffff1681565b601f546103c89062ffffff1681565b60405162ffffff909116815260200161028b565b6103c8610c7d565b6103f76103f23660046152c5565b610cf3565b60405161028b9190615306565b60035460045460055460065460075460085461042295949392919086565b604080519687526020870195909552938501929092526060840152608083015260a082015260c00161028b565b60205461048d9062ffffff8082169163010000008104821691600160301b8204811691600160481b810490911690600160601b900463ffffffff1685565b60405161028b95949392919061537a565b6102816104ac3660046153ae565b610d93565b6102e6610dc3565b610281610dd7565b6102e66104cf3660046153fb565b610dfd565b6103946104e2366004615418565b610ec0565b601f546102ff906301000000900463ffffffff1681565b6102e661050c366004615431565b610ed7565b61052461051f36600461520a565b610ff5565b60405161028b919081518152602080830151908201526040808301519082015260609182015164ffffffffff169181019190915260800190565b6102bb7f000000000000000000000000000000000000000000000000000000000000000081565b600c54600d54600e5461059792919083565b6040805193845260208401929092529082015260600161028b565b6001546001600160a01b03166102bb565b6102816112dd565b6103946105d936600461544e565b6112ff565b600854610281565b6105ee611325565b60405161028b91906154ca565b610394610609366004615418565b6113b3565b61059761061c3660046154dd565b611451565b6102e661062f366004615431565b6115c9565b6106476106423660046154ff565b61169b565b60405164ffffffffff909116815260200161028b565b601954601a54601b54601c546106739392919084565b60408051948552602085019390935291830152606082015260800161028b565b6106a66106a136600461553a565b61187b565b60405161028b91906155af565b6106c66106c136600461527c565b611971565b6040805165ffffffffffff909416845260208401929092529082015260600161028b565b6102bb7f000000000000000000000000000000000000000000000000000000000000000081565b600954600a54600b5461059792919083565b6102e6610731366004615611565b611a0f565b610281611c71565b61028161074c366004615623565b611d1e565b600654600754610394565b6102e661076a366004615666565b611d36565b60008061077f8686856000611dcb565b509050808411156107d15760405162461bcd60e51b8152602060048201526017602482015276141357d414ce881d1bdbc81b185c99d948185b5bdd5b9d604a1b60448201526064015b60405180910390fd5b6000610812876107e257600f6107e5565b60135b604080516080810182528a1515815289151560208201529081018890526008546060820152611f1d611f3a565b600354600454604080516080810182528b151581528a1515602082015293945061085593908101610841610c7d565b62ffffff16815285516020909101526123d5565b92508615158615151480159061088a578160600151826020015161087991906156a5565b61088390856156a5565b93506108ab565b8160800151826040015161089e91906156a5565b6108a890856156a5565b93505b505050949350505050565b6108be61249b565b6002600054036108e05760405162461bcd60e51b81526004016107c8906156b8565b600260005561c3506108f560208301836153fb565b62ffffff1611156109485760405162461bcd60e51b815260206004820152601c60248201527f504d5f535046433a2066697865642066656520746f6f206c617267650000000060448201526064016107c8565b61271061095b6060830160408401615431565b63ffffffff1611156109af5760405162461bcd60e51b815260206004820152601f60248201527f504d5f535046433a2061747220656d6120626c6f636b7320746f6f206269670060448201526064016107c8565b8060216109bc82826156ef565b507f269f7c0d124741a5574762c75c64c04ad89fa3e91ec86aa3be1b9b6d6d08668790506109ed60208301836153fb565b6109fd60408401602085016153fb565b610a0d6060850160408601615431565b6040805162ffffff948516815293909216602084015263ffffffff16908201526060015b60405180910390a1506001600055565b6000610a5b610a4e610dd7565b610a56610c7d565b6124f5565b604051632e45552560e21b8152600f600482015290915060009073717F03bB21DEa53c35b756F4D8fd487Ce96526169063b915549490602401602060405180830381865af4158015610ab1573d6000803e3d6000fd5b505050506040513d601f19601f82011682018060405250810190610ad5919061576b565b90508015801590610ae557508181105b15610aee578091505b5090565b610afa612519565b600260005403610b1c5760405162461bcd60e51b81526004016107c8906156b8565b6002600055604051632ec0b78b60e11b8152600f6004820152821515602482015264ffffffffff8216604482015273717F03bB21DEa53c35b756F4D8fd487Ce965261690635d816f169060640160006040518083038186803b158015610b8157600080fd5b505af4158015610b95573d6000803e3d6000fd5b505060408051851515815264ffffffffff851660208201527ff61aa5333bf001aa89f4bfa6ccaf123eec86eada7fd1c6c366227102507f89cd935001905060405180910390a150506001600055565b6040516302ea3f0960e01b8152600f6004820152821515602482015264ffffffffff82166044820152600090819073717F03bB21DEa53c35b756F4D8fd487Ce9652616906302ea3f09906064016040805180830381865af4158015610c4d573d6000803e3d6000fd5b505050506040513d601f19601f82011682018060405250810190610c719190615784565b915091505b9250929050565b602054600090610cee90610ce990610c9c9060029062ffffff166157be565b6040805160608101825260215462ffffff80821683526301000000820481166020840152600160301b90910463ffffffff1692820192909252911690610ce490601990612591565b6125cf565b6125e5565b905090565b604051632608c5d360e11b8152601d600482015263ffffffff8085166024830152831660448201526064810182905260609073F8F527c45EF0628d4FfE94bf0Bc2b49f88A5064190634c118ba690608401600060405180830381865af4158015610d61573d6000803e3d6000fd5b505050506040513d6000823e601f3d908101601f19168201604052610d899190810190615867565b90505b9392505050565b600080610daa83600360050154600160601b612649565b9050610db98585600084611dcb565b5095945050505050565b610dcb61249b565b610dd560006126f8565b565b6003546000908103610de95750600090565b600354600454600854610cee92919061274a565b610e0561249b565b600260005403610e275760405162461bcd60e51b81526004016107c8906156b8565b6002600055620186a062ffffff82161115610e7a5760405162461bcd60e51b8152602060048201526013602482015272504d5f53464d50523a20746f6f206c6172676560681b60448201526064016107c8565b601f805462ffffff191662ffffff83169081179091556040519081527f55647f4dd43ac173f04e53a506df46454012316d82fb04a9c1dbd8e0f21f8f7690602001610a31565b600080610ece600384612764565b91509150915091565b610edf61249b565b600260005403610f015760405162461bcd60e51b81526004016107c8906156b8565b600260005562093a8063ffffffff82161115610f545760405162461bcd60e51b8152602060048201526012602482015271504d5f534652533a20746f6f206c6172676560701b60448201526064016107c8565b610e108163ffffffff161015610fa15760405162461bcd60e51b8152602060048201526012602482015271141357d4d19494ce881d1bdbc81cdb585b1b60721b60448201526064016107c8565b601f805463ffffffff60381b1916600160381b63ffffffff8416908102919091179091556040519081527fa703b265f29064a106acd6473c258e009bff9ac0bfd63b6f5ca4b712a25c851690602001610a31565b6110276040518060800160405280600081526020016000815260200160008152602001600064ffffffffff1681525090565b61102f612519565b6002600054036110515760405162461bcd60e51b81526004016107c8906156b8565b600260009081558061106587878684611dcb565b91509150818511156110b25760405162461bcd60e51b8152602060048201526016602482015275141357d4ce881d1bdbc81b185c99d948185b5bdd5b9d60521b60448201526064016107c8565b60006110bc6112dd565b905060006110fa600f60405180608001604052808c151581526020018b151581526020018a8152602001600360050154815250611f1d61278d6127c9565b90506040518060800160405280826000015181526020018260200151815260200182604001518152602001826060015164ffffffffff16815250945060008961114a57611145610a41565b611152565b611152611c71565b905060008915158b151514611167578861116a565b82515b905073F8F527c45EF0628d4FfE94bf0Bc2b49f88A50641631caa89ce601d61119142612b00565b6040516001600160e01b031960e085901b168152600481019290925263ffffffff166024820152604481018590526064810184905260840160006040518083038186803b1580156111e157600080fd5b505af41580156111f5573d6000803e3d6000fd5b5050602154611222945060199350600160301b900463ffffffff16915085905061121d6112dd565b612b65565b61122d600c84612bd7565b7f4af368bb319fb6132e4a959e88a5bd0ebed952b65925f8503bb497d99de64b20898989886000015185608001518a606001518b602001518c604001516040516112bb989796959493929190971515885295151560208801526040870194909452606086019290925264ffffffffff90811660808601521660a084015260c083015260e08201526101000190565b60405180910390a16112cb612c01565b50506001600055509095945050505050565b60035460009081036112ef5750600090565b600354600454610cee9190612de0565b6000806113186003800154600360040154878787612df1565b915091505b935093915050565b600280546113329061595a565b80601f016020809104026020016040519081016040528092919081815260200182805461135e9061595a565b80156113ab5780601f10611380576101008083540402835291602001916113ab565b820191906000526020600020905b81548152906001019060200180831161138e57829003601f168201915b505050505081565b6000806113be612519565b6002600054036113e05760405162461bcd60e51b81526004016107c8906156b8565b600260005560408051602081019091528381526113ff90600390612e5f565b604080518381526020810183905290810186905291935091507f0bb89aa54ed6940a7e7167bd262b2400d63945045ceff1a52a05f2601ed215f19060600160405180910390a160016000559092909150565b600080600061145e612519565b6002600054036114805760405162461bcd60e51b81526004016107c8906156b8565b600260009081556005549003611552576040516354a4e2b960e01b81526001600160a01b037f0000000000000000000000000000000000000000000000000000000000000000811660048301527f0000000000000000000000000000000000000000000000000000000000000000166024820152604481018690526064810185905273062788EcDd46A5F837A491570A50543b5fD32322906354a4e2b99060840160006040518083038186803b15801561153957600080fd5b505af415801561154d573d6000803e3d6000fd5b505050505b6115716003604051806040016040528088815260200187815250612f76565b604080518481526020810184905290810182905292955090935091507fd7f28048575eead8851d024ead087913957dfb4fd1a02b4d1573f5352a5a2be39060600160405180910390a160016000819055509250925092565b6115d161249b565b6002600054036115f35760405162461bcd60e51b81526004016107c8906156b8565b600260005562093a8063ffffffff821611156116475760405162461bcd60e51b8152602060048201526013602482015272504d5f53464d45533a20746f6f206c6172676560681b60448201526064016107c8565b601f805466ffffffff0000001916630100000063ffffffff8416908102919091179091556040519081527f5b18da8898c1e492e6bc631eec59d143ebba7f31ca794b668f0bfa9b0d98929390602001610a31565b60006116a5612519565b6002600054036116c75760405162461bcd60e51b81526004016107c8906156b8565b60026000558161177a57841561172b576116df610a41565b8311156117265760405162461bcd60e51b8152602060048201526015602482015274141357d0d313ce881c1bdcdd081bdb9b1e48189a59605a1b60448201526064016107c8565b61177a565b611733611c71565b83101561177a5760405162461bcd60e51b8152602060048201526015602482015274504d5f434c4f3a20706f7374206f6e6c792061736b60581b60448201526064016107c8565b73717F03bB21DEa53c35b756F4D8fd487Ce965261663a47859fc600f8787876117a1610dd7565b6040516001600160e01b031960e088901b1681526004810195909552921515602485015260448401919091526064830152608482015260a401602060405180830381865af41580156117f7573d6000803e3d6000fd5b505050506040513d601f19601f8201168201806040525081019061181b919061598e565b6040805187151581526020810187905290810185905264ffffffffff821660608201529091507f7f6ce27b6803b5b961a441dac0f55de214751acfb64178849efb01fdb71c620b9060800160405180910390a16001600055949350505050565b60608167ffffffffffffffff811115611896576118966157e0565b6040519080825280602002602001820160405280156118c957816020015b60608152602001906001900390816118b45790505b50905060005b8281101561196957611939308585848181106118ed576118ed6159ab565b90506020028101906118ff91906159c1565b8080601f01602080910402602001604051908101604052809392919081815260200183838082843760009201919091525061314092505050565b82828151811061194b5761194b6159ab565b6020026020010181905250808061196190615a08565b9150506118cf565b505b92915050565b6040516399d5040960e01b8152600f6004820152821515602482015264ffffffffff821660448201526000908190819073717F03bB21DEa53c35b756F4D8fd487Ce9652616906399d5040990606401606060405180830381865af41580156119dd573d6000803e3d6000fd5b505050506040513d601f19601f82011682018060405250810190611a019190615a21565b9250925092505b9250925092565b611a1761249b565b600260005403611a395760405162461bcd60e51b81526004016107c8906156b8565b60026000556207a120611a5260408301602084016153fb565b62ffffff161115611aa55760405162461bcd60e51b815260206004820152601e60248201527f50455f53504c433a20746f6f206c61726765206c69717569646174696f6e000060448201526064016107c8565b611ab560408201602083016153fb565b62ffffff16611ac760208301836153fb565b62ffffff161115611b0d5760405162461bcd60e51b815260206004820152601060248201526f141157d4d41310ce881a5b9d985b1a5960821b60448201526064016107c8565b620f4240611b2160808301606084016153fb565b62ffffff1610611b735760405162461bcd60e51b815260206004820152601a60248201527f50455f53504c433a20656d6120746f6f206c61726765206c697100000000000060448201526064016107c8565b611b8360808201606083016153fb565b62ffffff16611b9860608301604084016153fb565b62ffffff161115611be25760405162461bcd60e51b8152602060048201526014602482015273141157d4d41310ce88195b58481a5b9d985b1a5960621b60448201526064016107c8565b806020611bef8282615a63565b507fbe7eee05a638b28e8473a6f87ae310d3123f8a2a7561ce96e140f76125f746129050611c2060208301836153fb565b611c3060408401602085016153fb565b611c4060608501604086016153fb565b611c5060808601606087016153fb565b611c6060a0870160808801615431565b604051610a3195949392919061537a565b6000611c8b611c7e610dd7565b611c86610c7d565b613165565b604051632e45552560e21b81526013600482015290915060009073717F03bB21DEa53c35b756F4D8fd487Ce96526169063b915549490602401602060405180830381865af4158015611ce1573d6000803e3d6000fd5b505050506040513d601f19601f82011682018060405250810190611d05919061576b565b90508015801590610ae5575081811115610aee57919050565b6000611d2d8484846000611dcb565b50949350505050565b611d3e61249b565b6001600160a01b038116611da35760405162461bcd60e51b815260206004820152602660248201527f4f776e61626c653a206e6577206f776e657220697320746865207a65726f206160448201526564647265737360d01b60648201526084016107c8565b611dac816126f8565b50565b6001600160a01b03163b151590565b600160601b600590910155565b6000611df160405180606001604052806000815260200160008152602001600081525090565b600554600003611e045760009150611f14565b82600003611e42576000611e166112dd565b9050611e25600c602083613181565b9150611e3e826000015183604001516020888b1561324d565b9350505b600354600454611e5d91908888611e57610c7d565b886132fb565b915073717F03bB21DEa53c35b756F4D8fd487Ce965261663b2041ed987611e8557600f611e88565b60135b60085460405160e084901b6001600160e01b031916815260048101929092528915156024830152881515604483015260648201879052608482015260a401602060405180830381865af4158015611ee3573d6000803e3d6000fd5b505050506040513d601f19601f82011682018060405250810190611f07919061576b565b611f1190836156a5565b91505b94509492505050565b600354600454600091610d89918686611f34610c7d565b876132fb565b611f886040518060e001604052806000815260200160008152602001600081526020016000815260200160008152602001600064ffffffffff168152602001600064ffffffffff1681525090565b602083015183518554911515901515149064ffffffffff166000805b64ffffffffff8316156123885761201760405180610120016040528060006001600160801b031681526020016000815260200160008152602001600064ffffffffff168152602001600064ffffffffff168152602001600081526020016000815260200160008152602001600081525090565b64ffffffffff8416600090815260018a016020526040902054600160801b90046001600160801b031680825260608901516120579190600160601b612649565b60208083018290528951908a01516120729263ffffffff8b16565b60408083019190915264ffffffffff80861660008181526001808e01602081815286842054600160281b8104871660608a01908152958552918152600160501b909104851660808801529251909316815260028d019091529190912001546120da90846156a5565b60a0820152606081015164ffffffffff1660009081526002808b016020526040909120015461210990836156a5565b60c08201526040810151600090866121325761212d8360c001518b6060015161346a565b612138565b8260a001515b61214291906156a5565b90508089604001511161218557816060015164ffffffffff166000036121795761216c8a8661347b565b64ffffffffff1660a08801525b50606001519250611fa4565b608082015164ffffffffff908116600090815260028c0160205260408082206001908101549389168352912001546121bd9190615b48565b6121c790856156a5565b60e0830152608082015164ffffffffff90811660009081526002808d016020526040808320820154938916835290912001546122039190615b48565b61220d90846156a5565b610100830152604082015160009087612238576122338461010001518c6060015161346a565b61223e565b8360e001515b61224891906156a5565b9050808a60400151101561234b576040830151885260a0830151602089015260c083015160608b015161227b919061346a565b604089015286156122bb57818a604001516122969190615b48565b6060890181905260208401516122b19190600160601b612649565b608089015261231e565b818a604001516122cb9190615b48565b6080890181905260208401516122e79190600160601b90612649565b6060890181905264ffffffffff8716600090815260028d0160205260409020546123189190610ce490600190615b48565b60608901525b6123288b8761347b565b64ffffffffff90811660a08a01529590951660c088015250610d8c945050505050565b8260e0015194508261010001519350826080015164ffffffffff1660000361237b5764ffffffffff861660a08901525b5050608001519250611fa4565b60208501829052606087015161239f90829061346a565b6040860152836123b35784604001516123b9565b84602001515b87604001516123c89190615b48565b8552505050509392505050565b6000806123e9620f424084604001516135a4565b9050826020015115612444576060830151600090612407908361360a565b84519091501561242c576124258582612420898261361f565b612649565b925061243e565b61243b8682612420888261361f565b92505b50612493565b82511561246e576060830151612467908690612460878261362b565b6001613637565b9150612486565b6060830151612483908590612460888261362b565b91505b6124908282613688565b91505b509392505050565b6001546001600160a01b03163314610dd55760405162461bcd60e51b815260206004820181905260248201527f4f776e61626c653a2063616c6c6572206973206e6f7420746865206f776e657260448201526064016107c8565b600080612505620f4240846135a4565b9050612511848261369f565b949350505050565b7f00000000000000000000000000000000000000000000000000000000000000006001600160a01b03163314610dd55760405162461bcd60e51b815260206004820152601d60248201527f504d5f4f453a2063616c6c6572206973206e6f742065786368616e676500000060448201526064016107c8565b6000806125a28484604001516136b4565b9050612511836000015162ffffff166125c9856020015162ffffff1684600160601b612649565b9061361f565b60008183106125de5781610d8c565b5090919050565b600062ffffff821115610aee5760405162461bcd60e51b815260206004820152602660248201527f53616665436173743a2076616c756520646f65736e27742066697420696e203260448201526534206269747360d01b60648201526084016107c8565b600080806000198587098587029250828110838203039150508060000361268357838281612679576126796157a8565b0492505050610d8c565b80841161268f57600080fd5b60008486880960026001871981018816978890046003810283188082028403028082028403028082028403028082028403028082028403029081029092039091026000889003889004909101858311909403939093029303949094049190911702949350505050565b600180546001600160a01b038381166001600160a01b0319831681179093556040519116919082907f8be0079c531659141344cd1fd0a4f28419497f9722a3daafe3b4186f6b6457e090600090a35050565b6000610d896127598585612de0565b600160601b84612649565b60008061277a8385600001548660020154612649565b610c718486600101548760020154612649565b6000610d8960036040518060800160405280871515815260200186151581526020016127b7610c7d565b62ffffff168152602001859052613731565b6128096040518060a00160405280600081526020016000815260200160008152602001600064ffffffffff168152602001600064ffffffffff1681525090565b8351600090612818578561281d565b856004015b9050600061282c828787611f3a565b8051909150156128615785516020870151825161284e92919063ffffffff8816565b8351849061285d9083906156a5565b9052505b6020860151865115159015151460006128778990565b90508260a0015164ffffffffff1660001461297557600889018054600191906000906128ac90849065ffffffffffff16615b5b565b82546101009290920a65ffffffffffff818102199093169183160217909155604080516020808201835260608d0151825260088e0154909316600090815260098e019093529120905190555087511561291e5760a0830151612919908590613772613785613795866137a9565b612938565b60a08301516129389085906138ce6138dd6138ea866137a9565b8161294757826020015161294d565b82604001515b8551869061295c9083906156a5565b90525060a083015164ffffffffff1660808601526129b9565b6020830151156129975760405162461bcd60e51b81526004016107c890615b7a565b6040830151156129b95760405162461bcd60e51b81526004016107c890615b7a565b60c083015164ffffffffff1615612ab057606083015160c084015164ffffffffff166000908152600286016020526040812080549091906129fb908490615b48565b909155505060c083015164ffffffffff166000908152600285016020526040902054612a395760405162461bcd60e51b81526004016107c890615b7a565b612a5f8360c001518960000151612a52576138dd612a56565b6137855b869190846138f6565b81612a6e578260600151612a74565b82608001515b85518690612a839083906156a5565b90525060608084015160208701526080840151604087015260c084015164ffffffffff1690860152612af4565b606083015115612ad25760405162461bcd60e51b81526004016107c890615b7a565b608083015115612af45760405162461bcd60e51b81526004016107c890615b7a565b50505050949350505050565b600063ffffffff821115610aee5760405162461bcd60e51b815260206004820152602660248201527f53616665436173743a2076616c756520646f65736e27742066697420696e203360448201526532206269747360d01b60648201526084016107c8565b600184015442908111612b9e57612b8085600201548361393e565b60028601556003850154612b9490836125cf565b6003860155612bd0565b60018501819055612baf85856136b4565b8555612bbb838361393e565b6002860155612bca83836125cf565b60038601555b5050505050565b8060200151600003612be7575050565b805182556020810151600183015560400151600290910155565b6000612c0b610dd7565b6040805160c0810182526001600160a01b037f0000000000000000000000000000000000000000000000000000000000000000811682527f0000000000000000000000000000000000000000000000000000000000000000811660208301908152828401858152601f5462ffffff8082166060870190815263ffffffff63010000008404811660808901908152600160381b909404811660a089019081529851633f0387d960e01b815260096004820152975187166024890152945190951660448701529151606486015292511660848401529051811660a4830152915190911660c48201529091506000908190819073062788EcDd46A5F837A491570A50543b5fD3232290633f0387d99060e401606060405180830381865af4158015612d37573d6000803e3d6000fd5b505050506040513d601f19601f82011682018060405250810190612d5b9190615b9f565b92509250925082600003612d6f5750505050565b612d7a60038461394e565b6006546007546040805186815263ffffffff8616602082015290810184905260608101879052608081019290925260a08201527f318daee0b48d1f6a0542d8cdd35e2593d88c4fb01708f4781609494206d070519060c00160405180910390a150505050565b6000610d8c82600160601b85612649565b6000806000612e11612e0286613a52565b612e0b8a613a52565b90613abc565b90506000612e21612e0286613a52565b9050612e3c82600160601b612e358a613a52565b9190613ac8565b612e4e82600160601b612e358b613a52565b9350935050505b9550959350505050565b81546001830154600284015483516000938493909290918490612e83908584612649565b90506000612e9688600001518585612649565b9050600082118015612ea85750600081115b612eec5760405162461bcd60e51b8152602060048201526015602482015274504c5f524c3a206f7574707574206973207a65726f60581b60448201526064016107c8565b612ef6858361362b565b8955612f02848261362b565b60018a01558751600090612f1790859061362b565b90506103e8811015612f625760405162461bcd60e51b8152602060048201526014602482015273504c5f524c3a206d696e206c697175696469747960601b60448201526064016107c8565b60028a015590955093505050509250929050565b6000806000808560020154905060008160000361304c5760208601518651600091612fa991612fa491613b6c565b613b78565b9050612fb7816103e861362b565b875190925015801590612fce575060008760200151115b8015612fda5750600082115b6130265760405162461bcd60e51b815260206004820152601d60248201527f504c5f414c3a20696e697469616c206c6971756964697479207a65726f00000060448201526064016107c8565b8651808955602088015160018a0181905560028a0192909255955093509150611a089050565b865460018801548751602089015160009161306c91610ce4908686612649565b905060006130878a60200151610ce48c600001518688612649565b90506130a2613097838887612649565b610ce4838987612649565b94506000821180156130b45750600081115b80156130c05750600085115b6131045760405162461bcd60e51b8152602060048201526015602482015274504c5f414c3a206c6971756964697479207a65726f60581b60448201526064016107c8565b61310e848361361f565b8b5561311a838261361f565b60018c0155613129868661361f565b60028c015590975095509193505050509250925092565b6060610d8c8383604051806060016040528060278152602001615ce560279139613cde565b600080613175620f4240846135a4565b90506125118482613daf565b6131a560405180606001604052806000815260200160008152602001600081525090565b600184015442908082116131c85750508354815260028401546040820152610d8c565b60006131d4838361362b565b87549091506000036131ec576040840185905261323c565b855463ffffffff600160601b90910481169060009061320f908490849061361f16565b905061323461321f888584612649565b6125c98b600201548563ffffffff1685612649565b604087015250505b505082825260208201529392505050565b60008061327a8461326457855462ffffff16613273565b85546301000000900462ffffff165b889061360a565b905060006132ae85613299578654600160301b900462ffffff16613273565b86548890600160481b900462ffffff1661360a565b905083156132d6576132cd6132c3898461361f565b610ce4898461361f565b925050506132f2565b6132cd6132e3898461362b565b6132ed898461362b565b61393e565b95945050505050565b60008061330b620f4240856135a4565b905060006133198989613b6c565b905086156133ad57600061333c8361333684600160601b89612649565b9061360a565b9050600061334a8b80613b6c565b9050808211613360576000945050505050613460565b600061336c838361362b565b9050600061338461337d8e8861360a565b8e9061361f565b90506133a2613393828861369f565b61339d848961369f565b613dc6565b965050505050613420565b60006133c2836133368488600160601b612649565b905060006133d08a80613b6c565b90508082116133e6576000945050505050613460565b60006133f2838361362b565b9050600061340a6134038d8861360a565b8d9061361f565b9050613419613393828861369f565b9650505050505b8561345d5761345a898960405180608001604052808b151581526020016001151581526020018962ffffff168152602001878152506123d5565b92505b50505b9695505050505050565b6000610d8c8383600160601b612649565b600064ffffffffff82166134cb5760405162461bcd60e51b81526020600482015260176024820152765242544c5f503a2074617267657420697320656d70747960481b60448201526064016107c8565b64ffffffffff8281166000908152600185016020526040902054600160281b900416156135265764ffffffffff808316600090815260018501602052604090205461351f918591600160281b900416613df2565b905061196b565b5064ffffffffff8082166000908152600184016020526040902054165b64ffffffffff81161580159061357c575064ffffffffff8181166000908152600185016020526040902054600160281b90048116908316145b1561196b5764ffffffffff808216600090815260018501602052604090205491925016613543565b60008262ffffff168262ffffff1611156136005760405162461bcd60e51b815260206004820152601e60248201527f506572704d6174683a207375627472616374696f6e206f766572666c6f77000060448201526064016107c8565b610d8c8284615bd8565b6000610d8c838362ffffff16620f4240612649565b6000610d8c82846156a5565b6000610d8c8284615b48565b600080613645868686612649565b9050600183600281111561365b5761365b615bf4565b148015613678575060008480613673576136736157a8565b868809115b156132f2576134606001826156a5565b6000610d8c83620f42408462ffffff166001613637565b6000610d8c83620f42408462ffffff16612649565b600082600301546000036136ca5750600061196b565b60006136f1600160601b6136eb8660020154600160601b8860030154612649565b9061362b565b90506000613700846001615c0a565b63ffffffff1690506132f261371e8284613e4c90919063ffffffff16565b86546125c99063ffffffff881685612649565b600061374683600001548460010154846123d5565b825160208401518554600187015460608701519495506137669486613e58565b60018501559092555090565b6000816124906004820160018787613eda565b6000816125116004820185613f79565b806137a4600482018285614088565b505050565b64ffffffffff85166137f55760405162461bcd60e51b81526020600482015260156024820152745242544c5f524c3a206b657920697320656d70747960581b60448201526064016107c8565b6137ff86866140c9565b6138445760405162461bcd60e51b81526020600482015260166024820152751490951317d4930e881ad95e481b9bdd08195e1a5cdd60521b60448201526064016107c8565b6040805160808082018352885464ffffffffff908116835288166020830152918101919091526060810182905261387f908790868686614114565b50865464ffffffffff91821664ffffffffff19918216811789556000908152600189016020526040808220805490931690925597549091168752909520805460ff60781b191690555050505050565b60008161249081838787613eda565b6000816125118185613f79565b806137a4818085614088565b64ffffffffff8316156139385761391183828463ffffffff16565b6139385764ffffffffff9283166000908152600185016020526040902054909216916138f6565b50505050565b6000818310156125de5781610d8c565b8060000361395a575050565b600061396582614342565b905060008213156139c857600183015460006139868284600160601b612649565b9050613992828261362b565b85600101819055506139bb6139b082600160601b8860020154612649565b60048701549061361f565b600486015550613a1a9050565b825460006139df8284612420600160601b8261361f565b90506139eb828261362b565b85556002850154613a1290613a07908390600160601b90612649565b60038701549061361f565b600386015550505b613a458360050154613a3b613a3685612e0b600160601b613a52565b614362565b600160601b612649565b8360050181905550505050565b60006001600160ff1b03821115610aee5760405162461bcd60e51b815260206004820152602860248201527f53616665436173743a2076616c756520646f65736e27742066697420696e2061604482015267371034b73a191a9b60c11b60648201526084016107c8565b6000610d8c8284615c27565b60008060008512613ad95784613ae2565b613ae2856143b4565b90506000808512613af35784613afc565b613afc856143b4565b905060008087128015613b0f5750600086135b80613b255750600087138015613b255750600086125b613b30576000613b33565b60015b90506000613b42848488612649565b905081613b5757613b5281613a52565b613b60565b613b6081614412565b98975050505050505050565b6000610d8c8284615c47565b600081600003613b8a57506000919050565b600182608081901c15613ba25760409190911b9060801c5b604081901c15613bb75760209190911b9060401c5b602081901c15613bcc5760109190911b9060201c5b601081901c15613be15760089190911b9060101c5b600881901c15613bf65760049190911b9060081c5b600481901c15613c0b5760029190911b9060041c5b600281901c15613c1d57600182901b91505b6001828581613c2e57613c2e6157a8565b048301901c91506001828581613c4657613c466157a8565b048301901c91506001828581613c5e57613c5e6157a8565b048301901c91506001828581613c7657613c766157a8565b048301901c91506001828581613c8e57613c8e6157a8565b048301901c91506001828581613ca657613ca66157a8565b048301901c91506001828581613cbe57613cbe6157a8565b048301901c915061251182838681613cd857613cd86157a8565b046125cf565b6060613ce984611daf565b613d445760405162461bcd60e51b815260206004820152602660248201527f416464726573733a2064656c65676174652063616c6c20746f206e6f6e2d636f6044820152651b9d1c9858dd60d21b60648201526084016107c8565b600080856001600160a01b031685604051613d5f9190615c66565b600060405180830381855af49150503d8060008114613d9a576040519150601f19603f3d011682016040523d82523d6000602084013e613d9f565b606091505b5091509150613460828286614426565b6000610d8c838362ffffff16620f42406001613637565b6000610d8c6002613dec856136eb612fa4613de2886004613b6c565b6125c98a80613b6c565b90613e4c565b60005b64ffffffffff8281166000908152600185016020526040902054600160501b90041615613e465764ffffffffff9182166000908152600184016020526040902054600160501b900490911690613df5565b50919050565b6000610d8c8284615c82565b6000808615613e9a578715613e8457613e71868561361f565b9150613e7d858461362b565b9050613ecf565b613e8e868461362b565b9150613e7d858561361f565b8715613eb657613eaa868461361f565b9150613e7d858561362b565b613ec0868561362b565b9150613ecc858461361f565b90505b965096945050505050565b64ffffffffff828116600090815260018601602052604080822054928416825281205490916001600160801b03600160801b918290048116929190910416808203613f39578364ffffffffff168564ffffffffff161092505050612511565b85613f5857806001600160801b0316826001600160801b031610613f6e565b806001600160801b0316826001600160801b0316115b979650505050505050565b64ffffffffff808216600090815260028085016020818152604080852060018082015495820154818b01855283882054959094529054600160501b85048816808852838820830154600160281b90960490981680885292872090910154959694959294919391928792613feb916156a5565b613ff591906156a5565b90506000614003898961445f565b64ffffffffff80851660009081526002808d0160205260408083208201549389168352909120015461403591906156a5565b61403f91906156a5565b9050858214801561404f57508481145b96508661407c5764ffffffffff881660009081526002808b01602052604090912060018101849055018190555b50505050505092915050565b60089091015464ffffffffff909116600090815260029092016020526040909120600301805465ffffffffffff191665ffffffffffff909216919091179055565b600064ffffffffff821615801590610d8c5750825464ffffffffff83811691161480610d8c57505064ffffffffff908116600090815260019290920160205260409091205416151590565b8351600090819064ffffffffff166141355750506040840151600090612e55565b855164ffffffffff166000908152600188016020526040902054600160781b900460ff16614164576001614167565b60005b866040018181516141789190615c96565b60ff169052508551602087015164ffffffffff9182169116036141e0576141ab866000015187606001518563ffffffff16565b5050835164ffffffffff9081166000908152600187016020526040908190205490860151600160501b90910490911690612e55565b6141fb8660200151876000015188606001518863ffffffff16565b156142bf5760408051608081018252875164ffffffffff908116600090815260018b01602090815284822054600160281b900483168452808b0151909216918301919091528883015160ff1692820192909252606080890151908201528190614268908a90898989614114565b895164ffffffffff808216600090815260018e0160205260409081902054908d015160608e01519597509395506142b4948e94889493600160501b909304909216918c918891906144a6565b935093505050612e55565b6142d5866000015187606001518563ffffffff16565b60408051608081018252875164ffffffffff908116600090815260018b0160209081529084902054600160501b900482168352808a0151909116908201528782015160ff169181019190915260608088015190820152614339908890878787614114565b91509150612e55565b60008082121561435d57614358613a36836143b4565b61196b565b61196b825b600080821215610aee5760405162461bcd60e51b815260206004820181905260248201527f53616665436173743a2076616c7565206d75737420626520706f73697469766560448201526064016107c8565b6000600160ff1b82136144095760405162461bcd60e51b815260206004820152601c60248201527f506572704d6174683a20696e76657273696f6e206f766572666c6f770000000060448201526064016107c8565b61196b82615caf565b600061441d82613a52565b61196b90615caf565b60608315614435575081610d8c565b8251156144455782518084602001fd5b8160405162461bcd60e51b81526004016107c891906154ca565b64ffffffffff8116600090815260018301602090815260408083205460028601909252822054600160801b9091046001600160801b0316906125119082600160601b612649565b6000808360ff168560ff1611156145aa576145098a6040518060c001604052808c64ffffffffff1681526020018b64ffffffffff1681526020018a64ffffffffff1681526020018860ff1681526020018760ff168152602001868152508861479a565b5064ffffffffff8116600090815260018c016020526040902054909250859150600160781b900460ff16801561456e575064ffffffffff828116600090815260018c01602052604080822054600160501b900490921681522054600160781b900460ff165b156145a55764ffffffffff821660009081526001808c016020526040909120805460ff60781b191690556145a29082615ccb565b90505b61478d565b8360ff168560ff1610156146a15761460a8a6040518060c001604052808c64ffffffffff1681526020018b64ffffffffff1681526020018a64ffffffffff1681526020018860ff1681526020018760ff1681526020018681525088614a90565b64ffffffffff8116600090815260018c016020526040902054909250849150600160781b900460ff16801561456e575064ffffffffff828116600090815260018c01602052604080822054600160281b900490921681522054600160781b900460ff16156145a55764ffffffffff821660009081526001808c016020526040909120805460ff60781b191690556145a29082615ccb565b64ffffffffff8916600090815260018b016020526040812054600160781b900460ff161580156146f1575064ffffffffff8816600090815260018c016020526040902054600160781b900460ff16155b64ffffffffff8a8116600090815260018e016020526040902080546fff0000000000ffffffffff00000000001916600160781b8415150264ffffffffff60281b191617600160281b8e8416021764ffffffffff60501b1916600160501b928c1692909202919091179055905061476b898563ffffffff8a16565b50888161477957600161477c565b60005b6147869088615ccb565b9093509150505b9850989650505050505050565b815164ffffffffff1660009081526001840160205260408120548190600160781b900460ff161580156147da5750836080015160ff16846060015160ff16145b1561488c576020808501805164ffffffffff9081166000908152600189019093526040808420805460ff60781b1916600160781b17905587518351831685528185208054918416600160281b0264ffffffffff60281b19909216919091179055808801518351831685529320805493909116600160501b0264ffffffffff60501b19909316929092179091555160a085015161487a919063ffffffff8616565b5050506020820151606083015161131d565b6040805160c081018252855164ffffffffff908116600090815260018901602081815285832054600160501b900484168552808a01518416818601528986015184168587015289519093168252909152918220546149359188916060820190600160781b900460ff16614900576001614903565b60005b89606001516149129190615c96565b60ff168152602001886080015160ff1681526020018860a001518152508661479a565b50855164ffffffffff9081166000908152600189016020526040808220805464ffffffffff60501b1916600160501b868616021790558851909216815220805464ffffffffff19169055855160a08701519192506149969163ffffffff8716565b50845164ffffffffff166000908152600187016020526040902054600160781b900460ff161580156149e7575064ffffffffff81166000908152600187016020526040902054600160781b900460ff165b8015614a22575064ffffffffff818116600090815260018801602052604080822054600160501b900490921681522054600160781b900460ff165b15614a7d5764ffffffffff808216600090815260018801602052604080822054600160501b9004909216815220805460ff60781b19169055845160a0860151614a6e9188918790614e4e565b6060850151909250905061131d565b5050825160609093015192949293505050565b60408281015164ffffffffff1660009081526001850160205290812054600160781b900460ff16158015614ad15750826080015160ff16836060015160ff16145b15614c06576020808401805164ffffffffff9081166000908152600188019093526040808420805460ff60781b1916600160781b17905586518351831685528185208054918416600160281b0264ffffffffff60281b19909216919091179055808701519251821684529092208054918316600160501b0264ffffffffff60501b1990921691909117905583511615614b9b57602083810151845164ffffffffff9081166000908152600188019093526040909220805464ffffffffff1916929091169190911790555b604083015164ffffffffff1615614be45760208381015160408086015164ffffffffff9081166000908152600189019094529220805464ffffffffff1916929091169190911790555b614bfa83602001518460a001518463ffffffff16565b50506020820151610d8c565b6040805160c081018252845164ffffffffff908116825260208087015182168184015286840180518316600090815260018a0180845286822054600160281b90048516868801526060808b015160ff908116918801919091529251909416815292909152928120549092614cb892889290916080830191600160781b900416614c90576001614c93565b60005b8860800151614ca29190615c96565b60ff1681526020018760a0015181525085614a90565b6040858101805164ffffffffff908116600090815260018a01602052838120805464ffffffffff60281b1916600160281b878516908102919091179091559251909116815291909120805464ffffffffff1916905590915015614d495760408481015164ffffffffff83811660009081526001890160205292909220805464ffffffffff1916929091169190911790555b614d5f84604001518560a001518563ffffffff16565b5060408481015164ffffffffff166000908152600187016020522054600160781b900460ff16158015614db1575064ffffffffff81166000908152600186016020526040902054600160781b900460ff165b8015614dec575064ffffffffff818116600090815260018701602052604080822054600160281b900490921681522054600160781b900460ff165b15614e425764ffffffffff808216600090815260018701602052604080822054600160281b90049092168152819020805460ff60781b1916905584015160a0850151614e3b918791869061502e565b9050610d8c565b50505060400151919050565b64ffffffffff80841660008181526001870160205260408082208054600160501b80820487168086529385205495909452600160281b909404851692830264ffffffffff60501b1985161790559291909116908015614ed45764ffffffffff81811660009081526001890160205260409020805464ffffffffff19169188169190911790555b64ffffffffff83811660009081526001890160205260409020805464ffffffffff19169184169182179055614f1d57865464ffffffffff191664ffffffffff8416178755614fbc565b64ffffffffff8083166000908152600189016020526040902054600160281b9004811690871603614f845764ffffffffff808316600090815260018901602052604090208054918516600160281b0264ffffffffff60281b19909216919091179055614fbc565b64ffffffffff808316600090815260018901602052604090208054918516600160501b0264ffffffffff60501b199092169190911790555b64ffffffffff838116600081815260018a016020526040808220805464ffffffffff60281b1916600160281b958c1695860217905592815291909120805464ffffffffff19169091179055615015868563ffffffff8816565b5061502483858763ffffffff16565b5050505050505050565b64ffffffffff80841660008181526001870160205260408082208054600160281b80820487168086529385205495909452600160501b909404851692830264ffffffffff60281b19851617905592919091169080156150b45764ffffffffff81811660009081526001890160205260409020805464ffffffffff19169188169190911790555b64ffffffffff83811660009081526001890160205260409020805464ffffffffff191691841691821790556150fd57865464ffffffffff191664ffffffffff841617875561519c565b64ffffffffff8083166000908152600189016020526040902054600160501b90048116908716036151645764ffffffffff808316600090815260018901602052604090208054918516600160501b0264ffffffffff60501b1990921691909117905561519c565b64ffffffffff808316600090815260018901602052604090208054918516600160281b0264ffffffffff60281b199092169190911790555b64ffffffffff838116600081815260018a016020526040808220805464ffffffffff60501b1916600160501b958c1695860217905592815291909120805464ffffffffff19169091179055615015868563ffffffff8816565b8035801515811461520557600080fd5b919050565b6000806000806080858703121561522057600080fd5b615229856151f5565b9350615237602086016151f5565b92506040850135915061524c606086016151f5565b905092959194509250565b600060608284031215613e4657600080fd5b64ffffffffff81168114611dac57600080fd5b6000806040838503121561528f57600080fd5b615298836151f5565b915060208301356152a881615269565b809150509250929050565b63ffffffff81168114611dac57600080fd5b6000806000606084860312156152da57600080fd5b83356152e5816152b3565b925060208401356152f5816152b3565b929592945050506040919091013590565b602080825282518282018190526000919060409081850190868401855b8281101561536d57815180516001600160801b0390811686528782015181168887015286820151811687870152606091820151169085015260809093019290850190600101615323565b5091979650505050505050565b62ffffff958616815293851660208501529184166040840152909216606082015263ffffffff909116608082015260a00190565b6000806000606084860312156153c357600080fd5b6153cc846151f5565b92506153da602085016151f5565b9150604084013590509250925092565b62ffffff81168114611dac57600080fd5b60006020828403121561540d57600080fd5b8135610d8c816153ea565b60006020828403121561542a57600080fd5b5035919050565b60006020828403121561544357600080fd5b8135610d8c816152b3565b60008060006060848603121561546357600080fd5b505081359360208301359350604090920135919050565b60005b8381101561549557818101518382015260200161547d565b50506000910152565b600081518084526154b681602086016020860161547a565b601f01601f19169290920160200192915050565b602081526000610d8c602083018461549e565b600080604083850312156154f057600080fd5b50508035926020909101359150565b6000806000806080858703121561551557600080fd5b61551e856151f5565b9350602085013592506040850135915061524c606086016151f5565b6000806020838503121561554d57600080fd5b823567ffffffffffffffff8082111561556557600080fd5b818501915085601f83011261557957600080fd5b81358181111561558857600080fd5b8660208260051b850101111561559d57600080fd5b60209290920196919550909350505050565b6000602080830181845280855180835260408601915060408160051b870101925083870160005b8281101561560457603f198886030184526155f285835161549e565b945092850192908501906001016155d6565b5092979650505050505050565b600060a08284031215613e4657600080fd5b60008060006060848603121561563857600080fd5b615641846151f5565b925061564f602085016151f5565b915061565d604085016151f5565b90509250925092565b60006020828403121561567857600080fd5b81356001600160a01b0381168114610d8c57600080fd5b634e487b7160e01b600052601160045260246000fd5b8082018082111561196b5761196b61568f565b6020808252601f908201527f5265656e7472616e637947756172643a207265656e7472616e742063616c6c00604082015260600190565b81356156fa816153ea565b815462ffffff191662ffffff821617825550602082013561571a816153ea565b815465ffffff0000001916601882901b65ffffff00000016178255506040820135615744816152b3565b815469ffffffff000000000000191660309190911b69ffffffff0000000000001617905550565b60006020828403121561577d57600080fd5b5051919050565b6000806040838503121561579757600080fd5b505080516020909101519092909150565b634e487b7160e01b600052601260045260246000fd5b600062ffffff808416806157d4576157d46157a8565b92169190910492915050565b634e487b7160e01b600052604160045260246000fd5b6040516080810167ffffffffffffffff81118282101715615819576158196157e0565b60405290565b604051601f8201601f1916810167ffffffffffffffff81118282101715615848576158486157e0565b604052919050565b80516001600160801b038116811461520557600080fd5b6000602080838503121561587a57600080fd5b825167ffffffffffffffff8082111561589257600080fd5b818501915085601f8301126158a657600080fd5b8151818111156158b8576158b86157e0565b6158c6848260051b0161581f565b818152848101925060079190911b8301840190878211156158e657600080fd5b928401925b81841015613f6e57608084890312156159045760008081fd5b61590c6157f6565b61591585615850565b8152615922868601615850565b868201526040615933818701615850565b908201526060615944868201615850565b90820152835260809390930192918401916158eb565b600181811c9082168061596e57607f821691505b602082108103613e4657634e487b7160e01b600052602260045260246000fd5b6000602082840312156159a057600080fd5b8151610d8c81615269565b634e487b7160e01b600052603260045260246000fd5b6000808335601e198436030181126159d857600080fd5b83018035915067ffffffffffffffff8211156159f357600080fd5b602001915036819003821315610c7657600080fd5b600060018201615a1a57615a1a61568f565b5060010190565b600080600060608486031215615a3657600080fd5b835165ffffffffffff81168114615a4c57600080fd5b602085015160409095015190969495509392505050565b8135615a6e816153ea565b815462ffffff191662ffffff8216178255506020820135615a8e816153ea565b815465ffffff0000001916601882901b65ffffff00000016178255506040820135615ab8816153ea565b815462ffffff60301b8260301b1691508162ffffff60301b1982161783556060840135615ae4816153ea565b62ffffff60481b60489190911b166bffffffffffff0000000000001982168317811784556080850135615b16816152b3565b6fffffffffffffffffffff00000000000019929092169092179190911760609190911b63ffffffff60601b1617905550565b8181038181111561196b5761196b61568f565b65ffffffffffff8181168382160190808211156119695761196961568f565b6020808252600b908201526a3732bb32b91037b1b1bab960a91b604082015260600190565b600080600060608486031215615bb457600080fd5b835192506020840151615bc6816152b3565b80925050604084015190509250925092565b62ffffff8281168282160390808211156119695761196961568f565b634e487b7160e01b600052602160045260246000fd5b63ffffffff8181168382160190808211156119695761196961568f565b81810360008312801583831316838312821617156119695761196961568f565b6000816000190483118215151615615c6157615c6161568f565b500290565b60008251615c7881846020870161547a565b9190910192915050565b600082615c9157615c916157a8565b500490565b60ff828116828216039081111561196b5761196b61568f565b6000600160ff1b8201615cc457615cc461568f565b5060000390565b60ff818116838216019081111561196b5761196b61568f56fe416464726573733a206c6f772d6c6576656c2064656c65676174652063616c6c206661696c6564a2646970667358221220099c721978e7c4a38987a3fad102b5b04f1fa0b9260aa740e349c0247c81fae364736f6c63430008100033",
  "deployedBytecode": "0x608060405234801561001057600080fd5b50600436106102695760003560e01c806380796d5511610151578063a276405b116100c3578063dba4915311610087578063dba4915314610711578063e7a4993114610723578063e801c4d814610736578063e8fa204f1461073e578063f228975214610751578063f2fde38b1461075c57600080fd5b8063a276405b14610634578063a4edcfc11461065d578063ac9650d814610693578063c9ca629b146106b3578063d2f7265a146106ea57600080fd5b8063933c797911610115578063933c7979146105cb5780639482de1a146105de57806395d89b41146105e65780639c8f9f23146105fb5780639cd441da1461060e5780639d67bf031461062157600080fd5b806380796d5514610511578063823f2b041461055e57806385aaa397146105855780638da5cb5b146105b25780638ee8fe5d146105c357600080fd5b806341744dd4116101ea578063715018a6116101ae578063715018a6146104b15780637452fadd146104b957806374f25689146104c15780637640482f146104d45780637661ce13146104e7578063796c20b7146104fe57600080fd5b806341744dd4146103dc5780634920e1fe146103e45780635a2f3d09146104045780636346f32e1461044f57806366a61ffb1461049e57600080fd5b8063220e89ce11610231578063220e89ce1461036657806323c8346a1461036e5780632724ebb0146103815780632ca756c4146103a95780633aa3e650146103b957600080fd5b806306f429b81461026e5780630e06e4d014610294578063125b9d27146102d3578063186f181e146102e85780631b520a0214610314575b600080fd5b61028161027c36600461520a565b61076f565b6040519081526020015b60405180910390f35b6102bb7f000000000000000000000000000000000000000000000000000000000000000081565b6040516001600160a01b03909116815260200161028b565b6102e66102e1366004615257565b6108b6565b005b601f546102ff90600160381b900463ffffffff1681565b60405163ffffffff909116815260200161028b565b60215461033e9062ffffff808216916301000000810490911690600160301b900463ffffffff1683565b6040805162ffffff948516815293909216602084015263ffffffff169082015260600161028b565b610281610a41565b6102e661037c36600461527c565b610af2565b61039461038f36600461527c565b610be4565b6040805192835260208301919091520161028b565b601e546102ff9063ffffffff1681565b601f546103c89062ffffff1681565b60405162ffffff909116815260200161028b565b6103c8610c7d565b6103f76103f23660046152c5565b610cf3565b60405161028b9190615306565b60035460045460055460065460075460085461042295949392919086565b604080519687526020870195909552938501929092526060840152608083015260a082015260c00161028b565b60205461048d9062ffffff8082169163010000008104821691600160301b8204811691600160481b810490911690600160601b900463ffffffff1685565b60405161028b95949392919061537a565b6102816104ac3660046153ae565b610d93565b6102e6610dc3565b610281610dd7565b6102e66104cf3660046153fb565b610dfd565b6103946104e2366004615418565b610ec0565b601f546102ff906301000000900463ffffffff1681565b6102e661050c366004615431565b610ed7565b61052461051f36600461520a565b610ff5565b60405161028b919081518152602080830151908201526040808301519082015260609182015164ffffffffff169181019190915260800190565b6102bb7f000000000000000000000000000000000000000000000000000000000000000081565b600c54600d54600e5461059792919083565b6040805193845260208401929092529082015260600161028b565b6001546001600160a01b03166102bb565b6102816112dd565b6103946105d936600461544e565b6112ff565b600854610281565b6105ee611325565b60405161028b91906154ca565b610394610609366004615418565b6113b3565b61059761061c3660046154dd565b611451565b6102e661062f366004615431565b6115c9565b6106476106423660046154ff565b61169b565b60405164ffffffffff909116815260200161028b565b601954601a54601b54601c546106739392919084565b60408051948552602085019390935291830152606082015260800161028b565b6106a66106a136600461553a565b61187b565b60405161028b91906155af565b6106c66106c136600461527c565b611971565b6040805165ffffffffffff909416845260208401929092529082015260600161028b565b6102bb7f000000000000000000000000000000000000000000000000000000000000000081565b600954600a54600b5461059792919083565b6102e6610731366004615611565b611a0f565b610281611c71565b61028161074c366004615623565b611d1e565b600654600754610394565b6102e661076a366004615666565b611d36565b60008061077f8686856000611dcb565b509050808411156107d15760405162461bcd60e51b8152602060048201526017602482015276141357d414ce881d1bdbc81b185c99d948185b5bdd5b9d604a1b60448201526064015b60405180910390fd5b6000610812876107e257600f6107e5565b60135b604080516080810182528a1515815289151560208201529081018890526008546060820152611f1d611f3a565b600354600454604080516080810182528b151581528a1515602082015293945061085593908101610841610c7d565b62ffffff16815285516020909101526123d5565b92508615158615151480159061088a578160600151826020015161087991906156a5565b61088390856156a5565b93506108ab565b8160800151826040015161089e91906156a5565b6108a890856156a5565b93505b505050949350505050565b6108be61249b565b6002600054036108e05760405162461bcd60e51b81526004016107c8906156b8565b600260005561c3506108f560208301836153fb565b62ffffff1611156109485760405162461bcd60e51b815260206004820152601c60248201527f504d5f535046433a2066697865642066656520746f6f206c617267650000000060448201526064016107c8565b61271061095b6060830160408401615431565b63ffffffff1611156109af5760405162461bcd60e51b815260206004820152601f60248201527f504d5f535046433a2061747220656d6120626c6f636b7320746f6f206269670060448201526064016107c8565b8060216109bc82826156ef565b507f269f7c0d124741a5574762c75c64c04ad89fa3e91ec86aa3be1b9b6d6d08668790506109ed60208301836153fb565b6109fd60408401602085016153fb565b610a0d6060850160408601615431565b6040805162ffffff948516815293909216602084015263ffffffff16908201526060015b60405180910390a1506001600055565b6000610a5b610a4e610dd7565b610a56610c7d565b6124f5565b604051632e45552560e21b8152600f600482015290915060009073__$52dce10bb0994e0b74d4a2856cc70476a1$__9063b915549490602401602060405180830381865af4158015610ab1573d6000803e3d6000fd5b505050506040513d601f19601f82011682018060405250810190610ad5919061576b565b90508015801590610ae557508181105b15610aee578091505b5090565b610afa612519565b600260005403610b1c5760405162461bcd60e51b81526004016107c8906156b8565b6002600055604051632ec0b78b60e11b8152600f6004820152821515602482015264ffffffffff8216604482015273__$52dce10bb0994e0b74d4a2856cc70476a1$__90635d816f169060640160006040518083038186803b158015610b8157600080fd5b505af4158015610b95573d6000803e3d6000fd5b505060408051851515815264ffffffffff851660208201527ff61aa5333bf001aa89f4bfa6ccaf123eec86eada7fd1c6c366227102507f89cd935001905060405180910390a150506001600055565b6040516302ea3f0960e01b8152600f6004820152821515602482015264ffffffffff82166044820152600090819073__$52dce10bb0994e0b74d4a2856cc70476a1$__906302ea3f09906064016040805180830381865af4158015610c4d573d6000803e3d6000fd5b505050506040513d601f19601f82011682018060405250810190610c719190615784565b915091505b9250929050565b602054600090610cee90610ce990610c9c9060029062ffffff166157be565b6040805160608101825260215462ffffff80821683526301000000820481166020840152600160301b90910463ffffffff1692820192909252911690610ce490601990612591565b6125cf565b6125e5565b905090565b604051632608c5d360e11b8152601d600482015263ffffffff8085166024830152831660448201526064810182905260609073__$9e340f64798e34484357185d53842c98f3$__90634c118ba690608401600060405180830381865af4158015610d61573d6000803e3d6000fd5b505050506040513d6000823e601f3d908101601f19168201604052610d899190810190615867565b90505b9392505050565b600080610daa83600360050154600160601b612649565b9050610db98585600084611dcb565b5095945050505050565b610dcb61249b565b610dd560006126f8565b565b6003546000908103610de95750600090565b600354600454600854610cee92919061274a565b610e0561249b565b600260005403610e275760405162461bcd60e51b81526004016107c8906156b8565b6002600055620186a062ffffff82161115610e7a5760405162461bcd60e51b8152602060048201526013602482015272504d5f53464d50523a20746f6f206c6172676560681b60448201526064016107c8565b601f805462ffffff191662ffffff83169081179091556040519081527f55647f4dd43ac173f04e53a506df46454012316d82fb04a9c1dbd8e0f21f8f7690602001610a31565b600080610ece600384612764565b91509150915091565b610edf61249b565b600260005403610f015760405162461bcd60e51b81526004016107c8906156b8565b600260005562093a8063ffffffff82161115610f545760405162461bcd60e51b8152602060048201526012602482015271504d5f534652533a20746f6f206c6172676560701b60448201526064016107c8565b610e108163ffffffff161015610fa15760405162461bcd60e51b8152602060048201526012602482015271141357d4d19494ce881d1bdbc81cdb585b1b60721b60448201526064016107c8565b601f805463ffffffff60381b1916600160381b63ffffffff8416908102919091179091556040519081527fa703b265f29064a106acd6473c258e009bff9ac0bfd63b6f5ca4b712a25c851690602001610a31565b6110276040518060800160405280600081526020016000815260200160008152602001600064ffffffffff1681525090565b61102f612519565b6002600054036110515760405162461bcd60e51b81526004016107c8906156b8565b600260009081558061106587878684611dcb565b91509150818511156110b25760405162461bcd60e51b8152602060048201526016602482015275141357d4ce881d1bdbc81b185c99d948185b5bdd5b9d60521b60448201526064016107c8565b60006110bc6112dd565b905060006110fa600f60405180608001604052808c151581526020018b151581526020018a8152602001600360050154815250611f1d61278d6127c9565b90506040518060800160405280826000015181526020018260200151815260200182604001518152602001826060015164ffffffffff16815250945060008961114a57611145610a41565b611152565b611152611c71565b905060008915158b151514611167578861116a565b82515b905073__$9e340f64798e34484357185d53842c98f3$__631caa89ce601d61119142612b00565b6040516001600160e01b031960e085901b168152600481019290925263ffffffff166024820152604481018590526064810184905260840160006040518083038186803b1580156111e157600080fd5b505af41580156111f5573d6000803e3d6000fd5b5050602154611222945060199350600160301b900463ffffffff16915085905061121d6112dd565b612b65565b61122d600c84612bd7565b7f4af368bb319fb6132e4a959e88a5bd0ebed952b65925f8503bb497d99de64b20898989886000015185608001518a606001518b602001518c604001516040516112bb989796959493929190971515885295151560208801526040870194909452606086019290925264ffffffffff90811660808601521660a084015260c083015260e08201526101000190565b60405180910390a16112cb612c01565b50506001600055509095945050505050565b60035460009081036112ef5750600090565b600354600454610cee9190612de0565b6000806113186003800154600360040154878787612df1565b915091505b935093915050565b600280546113329061595a565b80601f016020809104026020016040519081016040528092919081815260200182805461135e9061595a565b80156113ab5780601f10611380576101008083540402835291602001916113ab565b820191906000526020600020905b81548152906001019060200180831161138e57829003601f168201915b505050505081565b6000806113be612519565b6002600054036113e05760405162461bcd60e51b81526004016107c8906156b8565b600260005560408051602081019091528381526113ff90600390612e5f565b604080518381526020810183905290810186905291935091507f0bb89aa54ed6940a7e7167bd262b2400d63945045ceff1a52a05f2601ed215f19060600160405180910390a160016000559092909150565b600080600061145e612519565b6002600054036114805760405162461bcd60e51b81526004016107c8906156b8565b600260009081556005549003611552576040516354a4e2b960e01b81526001600160a01b037f0000000000000000000000000000000000000000000000000000000000000000811660048301527f0000000000000000000000000000000000000000000000000000000000000000166024820152604481018690526064810185905273__$e2d8ae539a03751d1065df53ab0607ab3a$__906354a4e2b99060840160006040518083038186803b15801561153957600080fd5b505af415801561154d573d6000803e3d6000fd5b505050505b6115716003604051806040016040528088815260200187815250612f76565b604080518481526020810184905290810182905292955090935091507fd7f28048575eead8851d024ead087913957dfb4fd1a02b4d1573f5352a5a2be39060600160405180910390a160016000819055509250925092565b6115d161249b565b6002600054036115f35760405162461bcd60e51b81526004016107c8906156b8565b600260005562093a8063ffffffff821611156116475760405162461bcd60e51b8152602060048201526013602482015272504d5f53464d45533a20746f6f206c6172676560681b60448201526064016107c8565b601f805466ffffffff0000001916630100000063ffffffff8416908102919091179091556040519081527f5b18da8898c1e492e6bc631eec59d143ebba7f31ca794b668f0bfa9b0d98929390602001610a31565b60006116a5612519565b6002600054036116c75760405162461bcd60e51b81526004016107c8906156b8565b60026000558161177a57841561172b576116df610a41565b8311156117265760405162461bcd60e51b8152602060048201526015602482015274141357d0d313ce881c1bdcdd081bdb9b1e48189a59605a1b60448201526064016107c8565b61177a565b611733611c71565b83101561177a5760405162461bcd60e51b8152602060048201526015602482015274504d5f434c4f3a20706f7374206f6e6c792061736b60581b60448201526064016107c8565b73__$52dce10bb0994e0b74d4a2856cc70476a1$__63a47859fc600f8787876117a1610dd7565b6040516001600160e01b031960e088901b1681526004810195909552921515602485015260448401919091526064830152608482015260a401602060405180830381865af41580156117f7573d6000803e3d6000fd5b505050506040513d601f19601f8201168201806040525081019061181b919061598e565b6040805187151581526020810187905290810185905264ffffffffff821660608201529091507f7f6ce27b6803b5b961a441dac0f55de214751acfb64178849efb01fdb71c620b9060800160405180910390a16001600055949350505050565b60608167ffffffffffffffff811115611896576118966157e0565b6040519080825280602002602001820160405280156118c957816020015b60608152602001906001900390816118b45790505b50905060005b8281101561196957611939308585848181106118ed576118ed6159ab565b90506020028101906118ff91906159c1565b8080601f01602080910402602001604051908101604052809392919081815260200183838082843760009201919091525061314092505050565b82828151811061194b5761194b6159ab565b6020026020010181905250808061196190615a08565b9150506118cf565b505b92915050565b6040516399d5040960e01b8152600f6004820152821515602482015264ffffffffff821660448201526000908190819073__$52dce10bb0994e0b74d4a2856cc70476a1$__906399d5040990606401606060405180830381865af41580156119dd573d6000803e3d6000fd5b505050506040513d601f19601f82011682018060405250810190611a019190615a21565b9250925092505b9250925092565b611a1761249b565b600260005403611a395760405162461bcd60e51b81526004016107c8906156b8565b60026000556207a120611a5260408301602084016153fb565b62ffffff161115611aa55760405162461bcd60e51b815260206004820152601e60248201527f50455f53504c433a20746f6f206c61726765206c69717569646174696f6e000060448201526064016107c8565b611ab560408201602083016153fb565b62ffffff16611ac760208301836153fb565b62ffffff161115611b0d5760405162461bcd60e51b815260206004820152601060248201526f141157d4d41310ce881a5b9d985b1a5960821b60448201526064016107c8565b620f4240611b2160808301606084016153fb565b62ffffff1610611b735760405162461bcd60e51b815260206004820152601a60248201527f50455f53504c433a20656d6120746f6f206c61726765206c697100000000000060448201526064016107c8565b611b8360808201606083016153fb565b62ffffff16611b9860608301604084016153fb565b62ffffff161115611be25760405162461bcd60e51b8152602060048201526014602482015273141157d4d41310ce88195b58481a5b9d985b1a5960621b60448201526064016107c8565b806020611bef8282615a63565b507fbe7eee05a638b28e8473a6f87ae310d3123f8a2a7561ce96e140f76125f746129050611c2060208301836153fb565b611c3060408401602085016153fb565b611c4060608501604086016153fb565b611c5060808601606087016153fb565b611c6060a0870160808801615431565b604051610a3195949392919061537a565b6000611c8b611c7e610dd7565b611c86610c7d565b613165565b604051632e45552560e21b81526013600482015290915060009073__$52dce10bb0994e0b74d4a2856cc70476a1$__9063b915549490602401602060405180830381865af4158015611ce1573d6000803e3d6000fd5b505050506040513d601f19601f82011682018060405250810190611d05919061576b565b90508015801590610ae5575081811115610aee57919050565b6000611d2d8484846000611dcb565b50949350505050565b611d3e61249b565b6001600160a01b038116611da35760405162461bcd60e51b815260206004820152602660248201527f4f776e61626c653a206e6577206f776e657220697320746865207a65726f206160448201526564647265737360d01b60648201526084016107c8565b611dac816126f8565b50565b6001600160a01b03163b151590565b600160601b600590910155565b6000611df160405180606001604052806000815260200160008152602001600081525090565b600554600003611e045760009150611f14565b82600003611e42576000611e166112dd565b9050611e25600c602083613181565b9150611e3e826000015183604001516020888b1561324d565b9350505b600354600454611e5d91908888611e57610c7d565b886132fb565b915073__$52dce10bb0994e0b74d4a2856cc70476a1$__63b2041ed987611e8557600f611e88565b60135b60085460405160e084901b6001600160e01b031916815260048101929092528915156024830152881515604483015260648201879052608482015260a401602060405180830381865af4158015611ee3573d6000803e3d6000fd5b505050506040513d601f19601f82011682018060405250810190611f07919061576b565b611f1190836156a5565b91505b94509492505050565b600354600454600091610d89918686611f34610c7d565b876132fb565b611f886040518060e001604052806000815260200160008152602001600081526020016000815260200160008152602001600064ffffffffff168152602001600064ffffffffff1681525090565b602083015183518554911515901515149064ffffffffff166000805b64ffffffffff8316156123885761201760405180610120016040528060006001600160801b031681526020016000815260200160008152602001600064ffffffffff168152602001600064ffffffffff168152602001600081526020016000815260200160008152602001600081525090565b64ffffffffff8416600090815260018a016020526040902054600160801b90046001600160801b031680825260608901516120579190600160601b612649565b60208083018290528951908a01516120729263ffffffff8b16565b60408083019190915264ffffffffff80861660008181526001808e01602081815286842054600160281b8104871660608a01908152958552918152600160501b909104851660808801529251909316815260028d019091529190912001546120da90846156a5565b60a0820152606081015164ffffffffff1660009081526002808b016020526040909120015461210990836156a5565b60c08201526040810151600090866121325761212d8360c001518b6060015161346a565b612138565b8260a001515b61214291906156a5565b90508089604001511161218557816060015164ffffffffff166000036121795761216c8a8661347b565b64ffffffffff1660a08801525b50606001519250611fa4565b608082015164ffffffffff908116600090815260028c0160205260408082206001908101549389168352912001546121bd9190615b48565b6121c790856156a5565b60e0830152608082015164ffffffffff90811660009081526002808d016020526040808320820154938916835290912001546122039190615b48565b61220d90846156a5565b610100830152604082015160009087612238576122338461010001518c6060015161346a565b61223e565b8360e001515b61224891906156a5565b9050808a60400151101561234b576040830151885260a0830151602089015260c083015160608b015161227b919061346a565b604089015286156122bb57818a604001516122969190615b48565b6060890181905260208401516122b19190600160601b612649565b608089015261231e565b818a604001516122cb9190615b48565b6080890181905260208401516122e79190600160601b90612649565b6060890181905264ffffffffff8716600090815260028d0160205260409020546123189190610ce490600190615b48565b60608901525b6123288b8761347b565b64ffffffffff90811660a08a01529590951660c088015250610d8c945050505050565b8260e0015194508261010001519350826080015164ffffffffff1660000361237b5764ffffffffff861660a08901525b5050608001519250611fa4565b60208501829052606087015161239f90829061346a565b6040860152836123b35784604001516123b9565b84602001515b87604001516123c89190615b48565b8552505050509392505050565b6000806123e9620f424084604001516135a4565b9050826020015115612444576060830151600090612407908361360a565b84519091501561242c576124258582612420898261361f565b612649565b925061243e565b61243b8682612420888261361f565b92505b50612493565b82511561246e576060830151612467908690612460878261362b565b6001613637565b9150612486565b6060830151612483908590612460888261362b565b91505b6124908282613688565b91505b509392505050565b6001546001600160a01b03163314610dd55760405162461bcd60e51b815260206004820181905260248201527f4f776e61626c653a2063616c6c6572206973206e6f7420746865206f776e657260448201526064016107c8565b600080612505620f4240846135a4565b9050612511848261369f565b949350505050565b7f00000000000000000000000000000000000000000000000000000000000000006001600160a01b03163314610dd55760405162461bcd60e51b815260206004820152601d60248201527f504d5f4f453a2063616c6c6572206973206e6f742065786368616e676500000060448201526064016107c8565b6000806125a28484604001516136b4565b9050612511836000015162ffffff166125c9856020015162ffffff1684600160601b612649565b9061361f565b60008183106125de5781610d8c565b5090919050565b600062ffffff821115610aee5760405162461bcd60e51b815260206004820152602660248201527f53616665436173743a2076616c756520646f65736e27742066697420696e203260448201526534206269747360d01b60648201526084016107c8565b600080806000198587098587029250828110838203039150508060000361268357838281612679576126796157a8565b0492505050610d8c565b80841161268f57600080fd5b60008486880960026001871981018816978890046003810283188082028403028082028403028082028403028082028403028082028403029081029092039091026000889003889004909101858311909403939093029303949094049190911702949350505050565b600180546001600160a01b038381166001600160a01b0319831681179093556040519116919082907f8be0079c531659141344cd1fd0a4f28419497f9722a3daafe3b4186f6b6457e090600090a35050565b6000610d896127598585612de0565b600160601b84612649565b60008061277a8385600001548660020154612649565b610c718486600101548760020154612649565b6000610d8960036040518060800160405280871515815260200186151581526020016127b7610c7d565b62ffffff168152602001859052613731565b6128096040518060a00160405280600081526020016000815260200160008152602001600064ffffffffff168152602001600064ffffffffff1681525090565b8351600090612818578561281d565b856004015b9050600061282c828787611f3a565b8051909150156128615785516020870151825161284e92919063ffffffff8816565b8351849061285d9083906156a5565b9052505b6020860151865115159015151460006128778990565b90508260a0015164ffffffffff1660001461297557600889018054600191906000906128ac90849065ffffffffffff16615b5b565b82546101009290920a65ffffffffffff818102199093169183160217909155604080516020808201835260608d0151825260088e0154909316600090815260098e019093529120905190555087511561291e5760a0830151612919908590613772613785613795866137a9565b612938565b60a08301516129389085906138ce6138dd6138ea866137a9565b8161294757826020015161294d565b82604001515b8551869061295c9083906156a5565b90525060a083015164ffffffffff1660808601526129b9565b6020830151156129975760405162461bcd60e51b81526004016107c890615b7a565b6040830151156129b95760405162461bcd60e51b81526004016107c890615b7a565b60c083015164ffffffffff1615612ab057606083015160c084015164ffffffffff166000908152600286016020526040812080549091906129fb908490615b48565b909155505060c083015164ffffffffff166000908152600285016020526040902054612a395760405162461bcd60e51b81526004016107c890615b7a565b612a5f8360c001518960000151612a52576138dd612a56565b6137855b869190846138f6565b81612a6e578260600151612a74565b82608001515b85518690612a839083906156a5565b90525060608084015160208701526080840151604087015260c084015164ffffffffff1690860152612af4565b606083015115612ad25760405162461bcd60e51b81526004016107c890615b7a565b608083015115612af45760405162461bcd60e51b81526004016107c890615b7a565b50505050949350505050565b600063ffffffff821115610aee5760405162461bcd60e51b815260206004820152602660248201527f53616665436173743a2076616c756520646f65736e27742066697420696e203360448201526532206269747360d01b60648201526084016107c8565b600184015442908111612b9e57612b8085600201548361393e565b60028601556003850154612b9490836125cf565b6003860155612bd0565b60018501819055612baf85856136b4565b8555612bbb838361393e565b6002860155612bca83836125cf565b60038601555b5050505050565b8060200151600003612be7575050565b805182556020810151600183015560400151600290910155565b6000612c0b610dd7565b6040805160c0810182526001600160a01b037f0000000000000000000000000000000000000000000000000000000000000000811682527f0000000000000000000000000000000000000000000000000000000000000000811660208301908152828401858152601f5462ffffff8082166060870190815263ffffffff63010000008404811660808901908152600160381b909404811660a089019081529851633f0387d960e01b815260096004820152975187166024890152945190951660448701529151606486015292511660848401529051811660a4830152915190911660c48201529091506000908190819073__$e2d8ae539a03751d1065df53ab0607ab3a$__90633f0387d99060e401606060405180830381865af4158015612d37573d6000803e3d6000fd5b505050506040513d601f19601f82011682018060405250810190612d5b9190615b9f565b92509250925082600003612d6f5750505050565b612d7a60038461394e565b6006546007546040805186815263ffffffff8616602082015290810184905260608101879052608081019290925260a08201527f318daee0b48d1f6a0542d8cdd35e2593d88c4fb01708f4781609494206d070519060c00160405180910390a150505050565b6000610d8c82600160601b85612649565b6000806000612e11612e0286613a52565b612e0b8a613a52565b90613abc565b90506000612e21612e0286613a52565b9050612e3c82600160601b612e358a613a52565b9190613ac8565b612e4e82600160601b612e358b613a52565b9350935050505b9550959350505050565b81546001830154600284015483516000938493909290918490612e83908584612649565b90506000612e9688600001518585612649565b9050600082118015612ea85750600081115b612eec5760405162461bcd60e51b8152602060048201526015602482015274504c5f524c3a206f7574707574206973207a65726f60581b60448201526064016107c8565b612ef6858361362b565b8955612f02848261362b565b60018a01558751600090612f1790859061362b565b90506103e8811015612f625760405162461bcd60e51b8152602060048201526014602482015273504c5f524c3a206d696e206c697175696469747960601b60448201526064016107c8565b60028a015590955093505050509250929050565b6000806000808560020154905060008160000361304c5760208601518651600091612fa991612fa491613b6c565b613b78565b9050612fb7816103e861362b565b875190925015801590612fce575060008760200151115b8015612fda5750600082115b6130265760405162461bcd60e51b815260206004820152601d60248201527f504c5f414c3a20696e697469616c206c6971756964697479207a65726f00000060448201526064016107c8565b8651808955602088015160018a0181905560028a0192909255955093509150611a089050565b865460018801548751602089015160009161306c91610ce4908686612649565b905060006130878a60200151610ce48c600001518688612649565b90506130a2613097838887612649565b610ce4838987612649565b94506000821180156130b45750600081115b80156130c05750600085115b6131045760405162461bcd60e51b8152602060048201526015602482015274504c5f414c3a206c6971756964697479207a65726f60581b60448201526064016107c8565b61310e848361361f565b8b5561311a838261361f565b60018c0155613129868661361f565b60028c015590975095509193505050509250925092565b6060610d8c8383604051806060016040528060278152602001615ce560279139613cde565b600080613175620f4240846135a4565b90506125118482613daf565b6131a560405180606001604052806000815260200160008152602001600081525090565b600184015442908082116131c85750508354815260028401546040820152610d8c565b60006131d4838361362b565b87549091506000036131ec576040840185905261323c565b855463ffffffff600160601b90910481169060009061320f908490849061361f16565b905061323461321f888584612649565b6125c98b600201548563ffffffff1685612649565b604087015250505b505082825260208201529392505050565b60008061327a8461326457855462ffffff16613273565b85546301000000900462ffffff165b889061360a565b905060006132ae85613299578654600160301b900462ffffff16613273565b86548890600160481b900462ffffff1661360a565b905083156132d6576132cd6132c3898461361f565b610ce4898461361f565b925050506132f2565b6132cd6132e3898461362b565b6132ed898461362b565b61393e565b95945050505050565b60008061330b620f4240856135a4565b905060006133198989613b6c565b905086156133ad57600061333c8361333684600160601b89612649565b9061360a565b9050600061334a8b80613b6c565b9050808211613360576000945050505050613460565b600061336c838361362b565b9050600061338461337d8e8861360a565b8e9061361f565b90506133a2613393828861369f565b61339d848961369f565b613dc6565b965050505050613420565b60006133c2836133368488600160601b612649565b905060006133d08a80613b6c565b90508082116133e6576000945050505050613460565b60006133f2838361362b565b9050600061340a6134038d8861360a565b8d9061361f565b9050613419613393828861369f565b9650505050505b8561345d5761345a898960405180608001604052808b151581526020016001151581526020018962ffffff168152602001878152506123d5565b92505b50505b9695505050505050565b6000610d8c8383600160601b612649565b600064ffffffffff82166134cb5760405162461bcd60e51b81526020600482015260176024820152765242544c5f503a2074617267657420697320656d70747960481b60448201526064016107c8565b64ffffffffff8281166000908152600185016020526040902054600160281b900416156135265764ffffffffff808316600090815260018501602052604090205461351f918591600160281b900416613df2565b905061196b565b5064ffffffffff8082166000908152600184016020526040902054165b64ffffffffff81161580159061357c575064ffffffffff8181166000908152600185016020526040902054600160281b90048116908316145b1561196b5764ffffffffff808216600090815260018501602052604090205491925016613543565b60008262ffffff168262ffffff1611156136005760405162461bcd60e51b815260206004820152601e60248201527f506572704d6174683a207375627472616374696f6e206f766572666c6f77000060448201526064016107c8565b610d8c8284615bd8565b6000610d8c838362ffffff16620f4240612649565b6000610d8c82846156a5565b6000610d8c8284615b48565b600080613645868686612649565b9050600183600281111561365b5761365b615bf4565b148015613678575060008480613673576136736157a8565b868809115b156132f2576134606001826156a5565b6000610d8c83620f42408462ffffff166001613637565b6000610d8c83620f42408462ffffff16612649565b600082600301546000036136ca5750600061196b565b60006136f1600160601b6136eb8660020154600160601b8860030154612649565b9061362b565b90506000613700846001615c0a565b63ffffffff1690506132f261371e8284613e4c90919063ffffffff16565b86546125c99063ffffffff881685612649565b600061374683600001548460010154846123d5565b825160208401518554600187015460608701519495506137669486613e58565b60018501559092555090565b6000816124906004820160018787613eda565b6000816125116004820185613f79565b806137a4600482018285614088565b505050565b64ffffffffff85166137f55760405162461bcd60e51b81526020600482015260156024820152745242544c5f524c3a206b657920697320656d70747960581b60448201526064016107c8565b6137ff86866140c9565b6138445760405162461bcd60e51b81526020600482015260166024820152751490951317d4930e881ad95e481b9bdd08195e1a5cdd60521b60448201526064016107c8565b6040805160808082018352885464ffffffffff908116835288166020830152918101919091526060810182905261387f908790868686614114565b50865464ffffffffff91821664ffffffffff19918216811789556000908152600189016020526040808220805490931690925597549091168752909520805460ff60781b191690555050505050565b60008161249081838787613eda565b6000816125118185613f79565b806137a4818085614088565b64ffffffffff8316156139385761391183828463ffffffff16565b6139385764ffffffffff9283166000908152600185016020526040902054909216916138f6565b50505050565b6000818310156125de5781610d8c565b8060000361395a575050565b600061396582614342565b905060008213156139c857600183015460006139868284600160601b612649565b9050613992828261362b565b85600101819055506139bb6139b082600160601b8860020154612649565b60048701549061361f565b600486015550613a1a9050565b825460006139df8284612420600160601b8261361f565b90506139eb828261362b565b85556002850154613a1290613a07908390600160601b90612649565b60038701549061361f565b600386015550505b613a458360050154613a3b613a3685612e0b600160601b613a52565b614362565b600160601b612649565b8360050181905550505050565b60006001600160ff1b03821115610aee5760405162461bcd60e51b815260206004820152602860248201527f53616665436173743a2076616c756520646f65736e27742066697420696e2061604482015267371034b73a191a9b60c11b60648201526084016107c8565b6000610d8c8284615c27565b60008060008512613ad95784613ae2565b613ae2856143b4565b90506000808512613af35784613afc565b613afc856143b4565b905060008087128015613b0f5750600086135b80613b255750600087138015613b255750600086125b613b30576000613b33565b60015b90506000613b42848488612649565b905081613b5757613b5281613a52565b613b60565b613b6081614412565b98975050505050505050565b6000610d8c8284615c47565b600081600003613b8a57506000919050565b600182608081901c15613ba25760409190911b9060801c5b604081901c15613bb75760209190911b9060401c5b602081901c15613bcc5760109190911b9060201c5b601081901c15613be15760089190911b9060101c5b600881901c15613bf65760049190911b9060081c5b600481901c15613c0b5760029190911b9060041c5b600281901c15613c1d57600182901b91505b6001828581613c2e57613c2e6157a8565b048301901c91506001828581613c4657613c466157a8565b048301901c91506001828581613c5e57613c5e6157a8565b048301901c91506001828581613c7657613c766157a8565b048301901c91506001828581613c8e57613c8e6157a8565b048301901c91506001828581613ca657613ca66157a8565b048301901c91506001828581613cbe57613cbe6157a8565b048301901c915061251182838681613cd857613cd86157a8565b046125cf565b6060613ce984611daf565b613d445760405162461bcd60e51b815260206004820152602660248201527f416464726573733a2064656c65676174652063616c6c20746f206e6f6e2d636f6044820152651b9d1c9858dd60d21b60648201526084016107c8565b600080856001600160a01b031685604051613d5f9190615c66565b600060405180830381855af49150503d8060008114613d9a576040519150601f19603f3d011682016040523d82523d6000602084013e613d9f565b606091505b5091509150613460828286614426565b6000610d8c838362ffffff16620f42406001613637565b6000610d8c6002613dec856136eb612fa4613de2886004613b6c565b6125c98a80613b6c565b90613e4c565b60005b64ffffffffff8281166000908152600185016020526040902054600160501b90041615613e465764ffffffffff9182166000908152600184016020526040902054600160501b900490911690613df5565b50919050565b6000610d8c8284615c82565b6000808615613e9a578715613e8457613e71868561361f565b9150613e7d858461362b565b9050613ecf565b613e8e868461362b565b9150613e7d858561361f565b8715613eb657613eaa868461361f565b9150613e7d858561362b565b613ec0868561362b565b9150613ecc858461361f565b90505b965096945050505050565b64ffffffffff828116600090815260018601602052604080822054928416825281205490916001600160801b03600160801b918290048116929190910416808203613f39578364ffffffffff168564ffffffffff161092505050612511565b85613f5857806001600160801b0316826001600160801b031610613f6e565b806001600160801b0316826001600160801b0316115b979650505050505050565b64ffffffffff808216600090815260028085016020818152604080852060018082015495820154818b01855283882054959094529054600160501b85048816808852838820830154600160281b90960490981680885292872090910154959694959294919391928792613feb916156a5565b613ff591906156a5565b90506000614003898961445f565b64ffffffffff80851660009081526002808d0160205260408083208201549389168352909120015461403591906156a5565b61403f91906156a5565b9050858214801561404f57508481145b96508661407c5764ffffffffff881660009081526002808b01602052604090912060018101849055018190555b50505050505092915050565b60089091015464ffffffffff909116600090815260029092016020526040909120600301805465ffffffffffff191665ffffffffffff909216919091179055565b600064ffffffffff821615801590610d8c5750825464ffffffffff83811691161480610d8c57505064ffffffffff908116600090815260019290920160205260409091205416151590565b8351600090819064ffffffffff166141355750506040840151600090612e55565b855164ffffffffff166000908152600188016020526040902054600160781b900460ff16614164576001614167565b60005b866040018181516141789190615c96565b60ff169052508551602087015164ffffffffff9182169116036141e0576141ab866000015187606001518563ffffffff16565b5050835164ffffffffff9081166000908152600187016020526040908190205490860151600160501b90910490911690612e55565b6141fb8660200151876000015188606001518863ffffffff16565b156142bf5760408051608081018252875164ffffffffff908116600090815260018b01602090815284822054600160281b900483168452808b0151909216918301919091528883015160ff1692820192909252606080890151908201528190614268908a90898989614114565b895164ffffffffff808216600090815260018e0160205260409081902054908d015160608e01519597509395506142b4948e94889493600160501b909304909216918c918891906144a6565b935093505050612e55565b6142d5866000015187606001518563ffffffff16565b60408051608081018252875164ffffffffff908116600090815260018b0160209081529084902054600160501b900482168352808a0151909116908201528782015160ff169181019190915260608088015190820152614339908890878787614114565b91509150612e55565b60008082121561435d57614358613a36836143b4565b61196b565b61196b825b600080821215610aee5760405162461bcd60e51b815260206004820181905260248201527f53616665436173743a2076616c7565206d75737420626520706f73697469766560448201526064016107c8565b6000600160ff1b82136144095760405162461bcd60e51b815260206004820152601c60248201527f506572704d6174683a20696e76657273696f6e206f766572666c6f770000000060448201526064016107c8565b61196b82615caf565b600061441d82613a52565b61196b90615caf565b60608315614435575081610d8c565b8251156144455782518084602001fd5b8160405162461bcd60e51b81526004016107c891906154ca565b64ffffffffff8116600090815260018301602090815260408083205460028601909252822054600160801b9091046001600160801b0316906125119082600160601b612649565b6000808360ff168560ff1611156145aa576145098a6040518060c001604052808c64ffffffffff1681526020018b64ffffffffff1681526020018a64ffffffffff1681526020018860ff1681526020018760ff168152602001868152508861479a565b5064ffffffffff8116600090815260018c016020526040902054909250859150600160781b900460ff16801561456e575064ffffffffff828116600090815260018c01602052604080822054600160501b900490921681522054600160781b900460ff165b156145a55764ffffffffff821660009081526001808c016020526040909120805460ff60781b191690556145a29082615ccb565b90505b61478d565b8360ff168560ff1610156146a15761460a8a6040518060c001604052808c64ffffffffff1681526020018b64ffffffffff1681526020018a64ffffffffff1681526020018860ff1681526020018760ff1681526020018681525088614a90565b64ffffffffff8116600090815260018c016020526040902054909250849150600160781b900460ff16801561456e575064ffffffffff828116600090815260018c01602052604080822054600160281b900490921681522054600160781b900460ff16156145a55764ffffffffff821660009081526001808c016020526040909120805460ff60781b191690556145a29082615ccb565b64ffffffffff8916600090815260018b016020526040812054600160781b900460ff161580156146f1575064ffffffffff8816600090815260018c016020526040902054600160781b900460ff16155b64ffffffffff8a8116600090815260018e016020526040902080546fff0000000000ffffffffff00000000001916600160781b8415150264ffffffffff60281b191617600160281b8e8416021764ffffffffff60501b1916600160501b928c1692909202919091179055905061476b898563ffffffff8a16565b50888161477957600161477c565b60005b6147869088615ccb565b9093509150505b9850989650505050505050565b815164ffffffffff1660009081526001840160205260408120548190600160781b900460ff161580156147da5750836080015160ff16846060015160ff16145b1561488c576020808501805164ffffffffff9081166000908152600189019093526040808420805460ff60781b1916600160781b17905587518351831685528185208054918416600160281b0264ffffffffff60281b19909216919091179055808801518351831685529320805493909116600160501b0264ffffffffff60501b19909316929092179091555160a085015161487a919063ffffffff8616565b5050506020820151606083015161131d565b6040805160c081018252855164ffffffffff908116600090815260018901602081815285832054600160501b900484168552808a01518416818601528986015184168587015289519093168252909152918220546149359188916060820190600160781b900460ff16614900576001614903565b60005b89606001516149129190615c96565b60ff168152602001886080015160ff1681526020018860a001518152508661479a565b50855164ffffffffff9081166000908152600189016020526040808220805464ffffffffff60501b1916600160501b868616021790558851909216815220805464ffffffffff19169055855160a08701519192506149969163ffffffff8716565b50845164ffffffffff166000908152600187016020526040902054600160781b900460ff161580156149e7575064ffffffffff81166000908152600187016020526040902054600160781b900460ff165b8015614a22575064ffffffffff818116600090815260018801602052604080822054600160501b900490921681522054600160781b900460ff165b15614a7d5764ffffffffff808216600090815260018801602052604080822054600160501b9004909216815220805460ff60781b19169055845160a0860151614a6e9188918790614e4e565b6060850151909250905061131d565b5050825160609093015192949293505050565b60408281015164ffffffffff1660009081526001850160205290812054600160781b900460ff16158015614ad15750826080015160ff16836060015160ff16145b15614c06576020808401805164ffffffffff9081166000908152600188019093526040808420805460ff60781b1916600160781b17905586518351831685528185208054918416600160281b0264ffffffffff60281b19909216919091179055808701519251821684529092208054918316600160501b0264ffffffffff60501b1990921691909117905583511615614b9b57602083810151845164ffffffffff9081166000908152600188019093526040909220805464ffffffffff1916929091169190911790555b604083015164ffffffffff1615614be45760208381015160408086015164ffffffffff9081166000908152600189019094529220805464ffffffffff1916929091169190911790555b614bfa83602001518460a001518463ffffffff16565b50506020820151610d8c565b6040805160c081018252845164ffffffffff908116825260208087015182168184015286840180518316600090815260018a0180845286822054600160281b90048516868801526060808b015160ff908116918801919091529251909416815292909152928120549092614cb892889290916080830191600160781b900416614c90576001614c93565b60005b8860800151614ca29190615c96565b60ff1681526020018760a0015181525085614a90565b6040858101805164ffffffffff908116600090815260018a01602052838120805464ffffffffff60281b1916600160281b878516908102919091179091559251909116815291909120805464ffffffffff1916905590915015614d495760408481015164ffffffffff83811660009081526001890160205292909220805464ffffffffff1916929091169190911790555b614d5f84604001518560a001518563ffffffff16565b5060408481015164ffffffffff166000908152600187016020522054600160781b900460ff16158015614db1575064ffffffffff81166000908152600186016020526040902054600160781b900460ff165b8015614dec575064ffffffffff818116600090815260018701602052604080822054600160281b900490921681522054600160781b900460ff165b15614e425764ffffffffff808216600090815260018701602052604080822054600160281b90049092168152819020805460ff60781b1916905584015160a0850151614e3b918791869061502e565b9050610d8c565b50505060400151919050565b64ffffffffff80841660008181526001870160205260408082208054600160501b80820487168086529385205495909452600160281b909404851692830264ffffffffff60501b1985161790559291909116908015614ed45764ffffffffff81811660009081526001890160205260409020805464ffffffffff19169188169190911790555b64ffffffffff83811660009081526001890160205260409020805464ffffffffff19169184169182179055614f1d57865464ffffffffff191664ffffffffff8416178755614fbc565b64ffffffffff8083166000908152600189016020526040902054600160281b9004811690871603614f845764ffffffffff808316600090815260018901602052604090208054918516600160281b0264ffffffffff60281b19909216919091179055614fbc565b64ffffffffff808316600090815260018901602052604090208054918516600160501b0264ffffffffff60501b199092169190911790555b64ffffffffff838116600081815260018a016020526040808220805464ffffffffff60281b1916600160281b958c1695860217905592815291909120805464ffffffffff19169091179055615015868563ffffffff8816565b5061502483858763ffffffff16565b5050505050505050565b64ffffffffff80841660008181526001870160205260408082208054600160281b80820487168086529385205495909452600160501b909404851692830264ffffffffff60281b19851617905592919091169080156150b45764ffffffffff81811660009081526001890160205260409020805464ffffffffff19169188169190911790555b64ffffffffff83811660009081526001890160205260409020805464ffffffffff191691841691821790556150fd57865464ffffffffff191664ffffffffff841617875561519c565b64ffffffffff8083166000908152600189016020526040902054600160501b90048116908716036151645764ffffffffff808316600090815260018901602052604090208054918516600160501b0264ffffffffff60501b1990921691909117905561519c565b64ffffffffff808316600090815260018901602052604090208054918516600160281b0264ffffffffff60281b199092169190911790555b64ffffffffff838116600081815260018a016020526040808220805464ffffffffff60501b1916600160501b958c1695860217905592815291909120805464ffffffffff19169091179055615015868563ffffffff8816565b8035801515811461520557600080fd5b919050565b6000806000806080858703121561522057600080fd5b615229856151f5565b9350615237602086016151f5565b92506040850135915061524c606086016151f5565b905092959194509250565b600060608284031215613e4657600080fd5b64ffffffffff81168114611dac57600080fd5b6000806040838503121561528f57600080fd5b615298836151f5565b915060208301356152a881615269565b809150509250929050565b63ffffffff81168114611dac57600080fd5b6000806000606084860312156152da57600080fd5b83356152e5816152b3565b925060208401356152f5816152b3565b929592945050506040919091013590565b602080825282518282018190526000919060409081850190868401855b8281101561536d57815180516001600160801b0390811686528782015181168887015286820151811687870152606091820151169085015260809093019290850190600101615323565b5091979650505050505050565b62ffffff958616815293851660208501529184166040840152909216606082015263ffffffff909116608082015260a00190565b6000806000606084860312156153c357600080fd5b6153cc846151f5565b92506153da602085016151f5565b9150604084013590509250925092565b62ffffff81168114611dac57600080fd5b60006020828403121561540d57600080fd5b8135610d8c816153ea565b60006020828403121561542a57600080fd5b5035919050565b60006020828403121561544357600080fd5b8135610d8c816152b3565b60008060006060848603121561546357600080fd5b505081359360208301359350604090920135919050565b60005b8381101561549557818101518382015260200161547d565b50506000910152565b600081518084526154b681602086016020860161547a565b601f01601f19169290920160200192915050565b602081526000610d8c602083018461549e565b600080604083850312156154f057600080fd5b50508035926020909101359150565b6000806000806080858703121561551557600080fd5b61551e856151f5565b9350602085013592506040850135915061524c606086016151f5565b6000806020838503121561554d57600080fd5b823567ffffffffffffffff8082111561556557600080fd5b818501915085601f83011261557957600080fd5b81358181111561558857600080fd5b8660208260051b850101111561559d57600080fd5b60209290920196919550909350505050565b6000602080830181845280855180835260408601915060408160051b870101925083870160005b8281101561560457603f198886030184526155f285835161549e565b945092850192908501906001016155d6565b5092979650505050505050565b600060a08284031215613e4657600080fd5b60008060006060848603121561563857600080fd5b615641846151f5565b925061564f602085016151f5565b915061565d604085016151f5565b90509250925092565b60006020828403121561567857600080fd5b81356001600160a01b0381168114610d8c57600080fd5b634e487b7160e01b600052601160045260246000fd5b8082018082111561196b5761196b61568f565b6020808252601f908201527f5265656e7472616e637947756172643a207265656e7472616e742063616c6c00604082015260600190565b81356156fa816153ea565b815462ffffff191662ffffff821617825550602082013561571a816153ea565b815465ffffff0000001916601882901b65ffffff00000016178255506040820135615744816152b3565b815469ffffffff000000000000191660309190911b69ffffffff0000000000001617905550565b60006020828403121561577d57600080fd5b5051919050565b6000806040838503121561579757600080fd5b505080516020909101519092909150565b634e487b7160e01b600052601260045260246000fd5b600062ffffff808416806157d4576157d46157a8565b92169190910492915050565b634e487b7160e01b600052604160045260246000fd5b6040516080810167ffffffffffffffff81118282101715615819576158196157e0565b60405290565b604051601f8201601f1916810167ffffffffffffffff81118282101715615848576158486157e0565b604052919050565b80516001600160801b038116811461520557600080fd5b6000602080838503121561587a57600080fd5b825167ffffffffffffffff8082111561589257600080fd5b818501915085601f8301126158a657600080fd5b8151818111156158b8576158b86157e0565b6158c6848260051b0161581f565b818152848101925060079190911b8301840190878211156158e657600080fd5b928401925b81841015613f6e57608084890312156159045760008081fd5b61590c6157f6565b61591585615850565b8152615922868601615850565b868201526040615933818701615850565b908201526060615944868201615850565b90820152835260809390930192918401916158eb565b600181811c9082168061596e57607f821691505b602082108103613e4657634e487b7160e01b600052602260045260246000fd5b6000602082840312156159a057600080fd5b8151610d8c81615269565b634e487b7160e01b600052603260045260246000fd5b6000808335601e198436030181126159d857600080fd5b83018035915067ffffffffffffffff8211156159f357600080fd5b602001915036819003821315610c7657600080fd5b600060018201615a1a57615a1a61568f565b5060010190565b600080600060608486031215615a3657600080fd5b835165ffffffffffff81168114615a4c57600080fd5b602085015160409095015190969495509392505050565b8135615a6e816153ea565b815462ffffff191662ffffff8216178255506020820135615a8e816153ea565b815465ffffff0000001916601882901b65ffffff00000016178255506040820135615ab8816153ea565b815462ffffff60301b8260301b1691508162ffffff60301b1982161783556060840135615ae4816153ea565b62ffffff60481b60489190911b166bffffffffffff0000000000001982168317811784556080850135615b16816152b3565b6fffffffffffffffffffff00000000000019929092169092179190911760609190911b63ffffffff60601b1617905550565b8181038181111561196b5761196b61568f565b65ffffffffffff8181168382160190808211156119695761196961568f565b6020808252600b908201526a3732bb32b91037b1b1bab960a91b604082015260600190565b600080600060608486031215615bb457600080fd5b835192506020840151615bc6816152b3565b80925050604084015190509250925092565b62ffffff8281168282160390808211156119695761196961568f565b634e487b7160e01b600052602160045260246000fd5b63ffffffff8181168382160190808211156119695761196961568f565b81810360008312801583831316838312821617156119695761196961568f565b6000816000190483118215151615615c6157615c6161568f565b500290565b60008251615c7881846020870161547a565b9190910192915050565b600082615c9157615c916157a8565b500490565b60ff828116828216039081111561196b5761196b61568f565b6000600160ff1b8201615cc457615cc461568f565b5060000390565b60ff818116838216019081111561196b5761196b61568f56fe416464726573733a206c6f772d6c6576656c2064656c65676174652063616c6c206661696c6564a2646970667358221220099c721978e7c4a38987a3fad102b5b04f1fa0b9260aa740e349c0247c81fae364736f6c63430008100033",
  "libraries": {
    "OrderBookLibrary": "0x717F03bB21DEa53c35b756F4D8fd487Ce9652616",
    "CandleLibrary": "0xF8F527c45EF0628d4FfE94bf0Bc2b49f88A50641",
    "FundingLibrary": "0x062788EcDd46A5F837A491570A50543b5fD32322"
  },
  "devdoc": {
    "kind": "dev",
    "methods": {
      "multicall(bytes[])": {
        "details": "Receives and executes a batch of function calls on this contract."
      },
      "owner()": {
        "details": "Returns the address of the current owner."
      },
      "renounceOwnership()": {
        "details": "Leaves the contract without owner. It will not be possible to call `onlyOwner` functions anymore. Can only be called by the current owner. NOTE: Renouncing ownership will leave the contract without an owner, thereby removing any functionality that is only available to the owner."
      },
      "transferOwnership(address)": {
        "details": "Transfers ownership of the contract to a new account (`newOwner`). Can only be called by the current owner."
      }
    },
    "version": 1
  },
  "userdoc": {
    "kind": "user",
    "methods": {},
    "version": 1
  },
  "storageLayout": {
    "storage": [
      {
        "astId": 925,
        "contract": "contracts/PerpdexMarket.sol:PerpdexMarket",
        "label": "_status",
        "offset": 0,
        "slot": "0",
        "type": "t_uint256"
      },
      {
        "astId": 550,
        "contract": "contracts/PerpdexMarket.sol:PerpdexMarket",
        "label": "_owner",
        "offset": 0,
        "slot": "1",
        "type": "t_address"
      },
      {
        "astId": 8131,
        "contract": "contracts/PerpdexMarket.sol:PerpdexMarket",
        "label": "symbol",
        "offset": 0,
        "slot": "2",
        "type": "t_string_storage"
      },
      {
        "astId": 8140,
        "contract": "contracts/PerpdexMarket.sol:PerpdexMarket",
        "label": "poolInfo",
        "offset": 0,
        "slot": "3",
        "type": "t_struct(PoolInfo)14596_storage"
      },
      {
        "astId": 8143,
        "contract": "contracts/PerpdexMarket.sol:PerpdexMarket",
        "label": "fundingInfo",
        "offset": 0,
        "slot": "9",
        "type": "t_struct(FundingInfo)14583_storage"
      },
      {
        "astId": 8146,
        "contract": "contracts/PerpdexMarket.sol:PerpdexMarket",
        "label": "priceLimitInfo",
        "offset": 0,
        "slot": "12",
        "type": "t_struct(PriceLimitInfo)14603_storage"
      },
      {
        "astId": 8149,
        "contract": "contracts/PerpdexMarket.sol:PerpdexMarket",
        "label": "_orderBookInfo",
        "offset": 0,
        "slot": "15",
        "type": "t_struct(OrderBookInfo)14651_storage"
      },
      {
        "astId": 8152,
        "contract": "contracts/PerpdexMarket.sol:PerpdexMarket",
        "label": "poolFeeInfo",
        "offset": 0,
        "slot": "25",
        "type": "t_struct(PoolFeeInfo)14660_storage"
      },
      {
        "astId": 8155,
        "contract": "contracts/PerpdexMarket.sol:PerpdexMarket",
        "label": "candleList",
        "offset": 0,
        "slot": "29",
        "type": "t_struct(CandleList)14686_storage"
      },
      {
        "astId": 8158,
        "contract": "contracts/PerpdexMarket.sol:PerpdexMarket",
        "label": "fundingMaxPremiumRatio",
        "offset": 0,
        "slot": "31",
        "type": "t_uint24"
      },
      {
        "astId": 8161,
        "contract": "contracts/PerpdexMarket.sol:PerpdexMarket",
        "label": "fundingMaxElapsedSec",
        "offset": 3,
        "slot": "31",
        "type": "t_uint32"
      },
      {
        "astId": 8164,
        "contract": "contracts/PerpdexMarket.sol:PerpdexMarket",
        "label": "fundingRolloverSec",
        "offset": 7,
        "slot": "31",
        "type": "t_uint32"
      },
      {
        "astId": 8175,
        "contract": "contracts/PerpdexMarket.sol:PerpdexMarket",
        "label": "priceLimitConfig",
        "offset": 0,
        "slot": "32",
        "type": "t_struct(PriceLimitConfig)14614_storage"
      },
      {
        "astId": 8184,
        "contract": "contracts/PerpdexMarket.sol:PerpdexMarket",
        "label": "poolFeeConfig",
        "offset": 0,
        "slot": "33",
        "type": "t_struct(PoolFeeConfig)14667_storage"
      }
    ],
    "types": {
      "t_address": {
        "encoding": "inplace",
        "label": "address",
        "numberOfBytes": "20"
      },
      "t_bool": {
        "encoding": "inplace",
        "label": "bool",
        "numberOfBytes": "1"
      },
      "t_mapping(t_uint32,t_mapping(t_uint32,t_struct(Candle)14676_storage))": {
        "encoding": "mapping",
        "key": "t_uint32",
        "label": "mapping(uint32 => mapping(uint32 => struct MarketStructs.Candle))",
        "numberOfBytes": "32",
        "value": "t_mapping(t_uint32,t_struct(Candle)14676_storage)"
      },
      "t_mapping(t_uint32,t_struct(Candle)14676_storage)": {
        "encoding": "mapping",
        "key": "t_uint32",
        "label": "mapping(uint32 => struct MarketStructs.Candle)",
        "numberOfBytes": "32",
        "value": "t_struct(Candle)14676_storage"
      },
      "t_mapping(t_uint40,t_struct(Node)22067_storage)": {
        "encoding": "mapping",
        "key": "t_uint40",
        "label": "mapping(uint40 => struct BokkyPooBahsRedBlackTreeLibrary.Node)",
        "numberOfBytes": "32",
        "value": "t_struct(Node)22067_storage"
      },
      "t_mapping(t_uint40,t_struct(OrderInfo)14623_storage)": {
        "encoding": "mapping",
        "key": "t_uint40",
        "label": "mapping(uint40 => struct MarketStructs.OrderInfo)",
        "numberOfBytes": "32",
        "value": "t_struct(OrderInfo)14623_storage"
      },
      "t_mapping(t_uint48,t_struct(ExecutionInfo)14637_storage)": {
        "encoding": "mapping",
        "key": "t_uint48",
        "label": "mapping(uint48 => struct MarketStructs.ExecutionInfo)",
        "numberOfBytes": "32",
        "value": "t_struct(ExecutionInfo)14637_storage"
      },
      "t_string_storage": {
        "encoding": "bytes",
        "label": "string",
        "numberOfBytes": "32"
      },
      "t_struct(Candle)14676_storage": {
        "encoding": "inplace",
        "label": "struct MarketStructs.Candle",
        "members": [
          {
            "astId": 14669,
            "contract": "contracts/PerpdexMarket.sol:PerpdexMarket",
            "label": "closeX96",
            "offset": 0,
            "slot": "0",
            "type": "t_uint128"
          },
          {
            "astId": 14671,
            "contract": "contracts/PerpdexMarket.sol:PerpdexMarket",
            "label": "quote",
            "offset": 16,
            "slot": "0",
            "type": "t_uint128"
          },
          {
            "astId": 14673,
            "contract": "contracts/PerpdexMarket.sol:PerpdexMarket",
            "label": "highX96",
            "offset": 0,
            "slot": "1",
            "type": "t_uint128"
          },
          {
            "astId": 14675,
            "contract": "contracts/PerpdexMarket.sol:PerpdexMarket",
            "label": "lowX96",
            "offset": 16,
            "slot": "1",
            "type": "t_uint128"
          }
        ],
        "numberOfBytes": "64"
      },
      "t_struct(CandleList)14686_storage": {
        "encoding": "inplace",
        "label": "struct MarketStructs.CandleList",
        "members": [
          {
            "astId": 14683,
            "contract": "contracts/PerpdexMarket.sol:PerpdexMarket",
            "label": "candles",
            "offset": 0,
            "slot": "0",
            "type": "t_mapping(t_uint32,t_mapping(t_uint32,t_struct(Candle)14676_storage))"
          },
          {
            "astId": 14685,
            "contract": "contracts/PerpdexMarket.sol:PerpdexMarket",
            "label": "prevTimestamp",
            "offset": 0,
            "slot": "1",
            "type": "t_uint32"
          }
        ],
        "numberOfBytes": "64"
      },
      "t_struct(ExecutionInfo)14637_storage": {
        "encoding": "inplace",
        "label": "struct MarketStructs.ExecutionInfo",
        "members": [
          {
            "astId": 14636,
            "contract": "contracts/PerpdexMarket.sol:PerpdexMarket",
            "label": "baseBalancePerShareX96",
            "offset": 0,
            "slot": "0",
            "type": "t_uint256"
          }
        ],
        "numberOfBytes": "32"
      },
      "t_struct(FundingInfo)14583_storage": {
        "encoding": "inplace",
        "label": "struct MarketStructs.FundingInfo",
        "members": [
          {
            "astId": 14578,
            "contract": "contracts/PerpdexMarket.sol:PerpdexMarket",
            "label": "prevIndexPriceBase",
            "offset": 0,
            "slot": "0",
            "type": "t_uint256"
          },
          {
            "astId": 14580,
            "contract": "contracts/PerpdexMarket.sol:PerpdexMarket",
            "label": "prevIndexPriceQuote",
            "offset": 0,
            "slot": "1",
            "type": "t_uint256"
          },
          {
            "astId": 14582,
            "contract": "contracts/PerpdexMarket.sol:PerpdexMarket",
            "label": "prevIndexPriceTimestamp",
            "offset": 0,
            "slot": "2",
            "type": "t_uint256"
          }
        ],
        "numberOfBytes": "96"
      },
      "t_struct(Node)22067_storage": {
        "encoding": "inplace",
        "label": "struct BokkyPooBahsRedBlackTreeLibrary.Node",
        "members": [
          {
            "astId": 22058,
            "contract": "contracts/PerpdexMarket.sol:PerpdexMarket",
            "label": "parent",
            "offset": 0,
            "slot": "0",
            "type": "t_uint40"
          },
          {
            "astId": 22060,
            "contract": "contracts/PerpdexMarket.sol:PerpdexMarket",
            "label": "left",
            "offset": 5,
            "slot": "0",
            "type": "t_uint40"
          },
          {
            "astId": 22062,
            "contract": "contracts/PerpdexMarket.sol:PerpdexMarket",
            "label": "right",
            "offset": 10,
            "slot": "0",
            "type": "t_uint40"
          },
          {
            "astId": 22064,
            "contract": "contracts/PerpdexMarket.sol:PerpdexMarket",
            "label": "red",
            "offset": 15,
            "slot": "0",
            "type": "t_bool"
          },
          {
            "astId": 22066,
            "contract": "contracts/PerpdexMarket.sol:PerpdexMarket",
            "label": "userData",
            "offset": 16,
            "slot": "0",
            "type": "t_uint128"
          }
        ],
        "numberOfBytes": "32"
      },
      "t_struct(OrderBookInfo)14651_storage": {
        "encoding": "inplace",
        "label": "struct MarketStructs.OrderBookInfo",
        "members": [
          {
            "astId": 14640,
            "contract": "contracts/PerpdexMarket.sol:PerpdexMarket",
            "label": "ask",
            "offset": 0,
            "slot": "0",
            "type": "t_struct(OrderBookSideInfo)14634_storage"
          },
          {
            "astId": 14643,
            "contract": "contracts/PerpdexMarket.sol:PerpdexMarket",
            "label": "bid",
            "offset": 0,
            "slot": "4",
            "type": "t_struct(OrderBookSideInfo)14634_storage"
          },
          {
            "astId": 14645,
            "contract": "contracts/PerpdexMarket.sol:PerpdexMarket",
            "label": "seqExecutionId",
            "offset": 0,
            "slot": "8",
            "type": "t_uint48"
          },
          {
            "astId": 14650,
            "contract": "contracts/PerpdexMarket.sol:PerpdexMarket",
            "label": "executionInfos",
            "offset": 0,
            "slot": "9",
            "type": "t_mapping(t_uint48,t_struct(ExecutionInfo)14637_storage)"
          }
        ],
        "numberOfBytes": "320"
      },
      "t_struct(OrderBookSideInfo)14634_storage": {
        "encoding": "inplace",
        "label": "struct MarketStructs.OrderBookSideInfo",
        "members": [
          {
            "astId": 14626,
            "contract": "contracts/PerpdexMarket.sol:PerpdexMarket",
            "label": "tree",
            "offset": 0,
            "slot": "0",
            "type": "t_struct(Tree)22075_storage"
          },
          {
            "astId": 14631,
            "contract": "contracts/PerpdexMarket.sol:PerpdexMarket",
            "label": "orderInfos",
            "offset": 0,
            "slot": "2",
            "type": "t_mapping(t_uint40,t_struct(OrderInfo)14623_storage)"
          },
          {
            "astId": 14633,
            "contract": "contracts/PerpdexMarket.sol:PerpdexMarket",
            "label": "seqKey",
            "offset": 0,
            "slot": "3",
            "type": "t_uint40"
          }
        ],
        "numberOfBytes": "128"
      },
      "t_struct(OrderInfo)14623_storage": {
        "encoding": "inplace",
        "label": "struct MarketStructs.OrderInfo",
        "members": [
          {
            "astId": 14616,
            "contract": "contracts/PerpdexMarket.sol:PerpdexMarket",
            "label": "base",
            "offset": 0,
            "slot": "0",
            "type": "t_uint256"
          },
          {
            "astId": 14618,
            "contract": "contracts/PerpdexMarket.sol:PerpdexMarket",
            "label": "baseSum",
            "offset": 0,
            "slot": "1",
            "type": "t_uint256"
          },
          {
            "astId": 14620,
            "contract": "contracts/PerpdexMarket.sol:PerpdexMarket",
            "label": "quoteSum",
            "offset": 0,
            "slot": "2",
            "type": "t_uint256"
          },
          {
            "astId": 14622,
            "contract": "contracts/PerpdexMarket.sol:PerpdexMarket",
            "label": "executionId",
            "offset": 0,
            "slot": "3",
            "type": "t_uint48"
          }
        ],
        "numberOfBytes": "128"
      },
      "t_struct(PoolFeeConfig)14667_storage": {
        "encoding": "inplace",
        "label": "struct MarketStructs.PoolFeeConfig",
        "members": [
          {
            "astId": 14662,
            "contract": "contracts/PerpdexMarket.sol:PerpdexMarket",
            "label": "fixedFeeRatio",
            "offset": 0,
            "slot": "0",
            "type": "t_uint24"
          },
          {
            "astId": 14664,
            "contract": "contracts/PerpdexMarket.sol:PerpdexMarket",
            "label": "atrFeeRatio",
            "offset": 3,
            "slot": "0",
            "type": "t_uint24"
          },
          {
            "astId": 14666,
            "contract": "contracts/PerpdexMarket.sol:PerpdexMarket",
            "label": "atrEmaBlocks",
            "offset": 6,
            "slot": "0",
            "type": "t_uint32"
          }
        ],
        "numberOfBytes": "32"
      },
      "t_struct(PoolFeeInfo)14660_storage": {
        "encoding": "inplace",
        "label": "struct MarketStructs.PoolFeeInfo",
        "members": [
          {
            "astId": 14653,
            "contract": "contracts/PerpdexMarket.sol:PerpdexMarket",
            "label": "atrX96",
            "offset": 0,
            "slot": "0",
            "type": "t_uint256"
          },
          {
            "astId": 14655,
            "contract": "contracts/PerpdexMarket.sol:PerpdexMarket",
            "label": "referenceTimestamp",
            "offset": 0,
            "slot": "1",
            "type": "t_uint256"
          },
          {
            "astId": 14657,
            "contract": "contracts/PerpdexMarket.sol:PerpdexMarket",
            "label": "currentHighX96",
            "offset": 0,
            "slot": "2",
            "type": "t_uint256"
          },
          {
            "astId": 14659,
            "contract": "contracts/PerpdexMarket.sol:PerpdexMarket",
            "label": "currentLowX96",
            "offset": 0,
            "slot": "3",
            "type": "t_uint256"
          }
        ],
        "numberOfBytes": "128"
      },
      "t_struct(PoolInfo)14596_storage": {
        "encoding": "inplace",
        "label": "struct MarketStructs.PoolInfo",
        "members": [
          {
            "astId": 14585,
            "contract": "contracts/PerpdexMarket.sol:PerpdexMarket",
            "label": "base",
            "offset": 0,
            "slot": "0",
            "type": "t_uint256"
          },
          {
            "astId": 14587,
            "contract": "contracts/PerpdexMarket.sol:PerpdexMarket",
            "label": "quote",
            "offset": 0,
            "slot": "1",
            "type": "t_uint256"
          },
          {
            "astId": 14589,
            "contract": "contracts/PerpdexMarket.sol:PerpdexMarket",
            "label": "totalLiquidity",
            "offset": 0,
            "slot": "2",
            "type": "t_uint256"
          },
          {
            "astId": 14591,
            "contract": "contracts/PerpdexMarket.sol:PerpdexMarket",
            "label": "cumBasePerLiquidityX96",
            "offset": 0,
            "slot": "3",
            "type": "t_uint256"
          },
          {
            "astId": 14593,
            "contract": "contracts/PerpdexMarket.sol:PerpdexMarket",
            "label": "cumQuotePerLiquidityX96",
            "offset": 0,
            "slot": "4",
            "type": "t_uint256"
          },
          {
            "astId": 14595,
            "contract": "contracts/PerpdexMarket.sol:PerpdexMarket",
            "label": "baseBalancePerShareX96",
            "offset": 0,
            "slot": "5",
            "type": "t_uint256"
          }
        ],
        "numberOfBytes": "192"
      },
      "t_struct(PriceLimitConfig)14614_storage": {
        "encoding": "inplace",
        "label": "struct MarketStructs.PriceLimitConfig",
        "members": [
          {
            "astId": 14605,
            "contract": "contracts/PerpdexMarket.sol:PerpdexMarket",
            "label": "normalOrderRatio",
            "offset": 0,
            "slot": "0",
            "type": "t_uint24"
          },
          {
            "astId": 14607,
            "contract": "contracts/PerpdexMarket.sol:PerpdexMarket",
            "label": "liquidationRatio",
            "offset": 3,
            "slot": "0",
            "type": "t_uint24"
          },
          {
            "astId": 14609,
            "contract": "contracts/PerpdexMarket.sol:PerpdexMarket",
            "label": "emaNormalOrderRatio",
            "offset": 6,
            "slot": "0",
            "type": "t_uint24"
          },
          {
            "astId": 14611,
            "contract": "contracts/PerpdexMarket.sol:PerpdexMarket",
            "label": "emaLiquidationRatio",
            "offset": 9,
            "slot": "0",
            "type": "t_uint24"
          },
          {
            "astId": 14613,
            "contract": "contracts/PerpdexMarket.sol:PerpdexMarket",
            "label": "emaSec",
            "offset": 12,
            "slot": "0",
            "type": "t_uint32"
          }
        ],
        "numberOfBytes": "32"
      },
      "t_struct(PriceLimitInfo)14603_storage": {
        "encoding": "inplace",
        "label": "struct MarketStructs.PriceLimitInfo",
        "members": [
          {
            "astId": 14598,
            "contract": "contracts/PerpdexMarket.sol:PerpdexMarket",
            "label": "referencePrice",
            "offset": 0,
            "slot": "0",
            "type": "t_uint256"
          },
          {
            "astId": 14600,
            "contract": "contracts/PerpdexMarket.sol:PerpdexMarket",
            "label": "referenceTimestamp",
            "offset": 0,
            "slot": "1",
            "type": "t_uint256"
          },
          {
            "astId": 14602,
            "contract": "contracts/PerpdexMarket.sol:PerpdexMarket",
            "label": "emaPrice",
            "offset": 0,
            "slot": "2",
            "type": "t_uint256"
          }
        ],
        "numberOfBytes": "96"
      },
      "t_struct(Tree)22075_storage": {
        "encoding": "inplace",
        "label": "struct BokkyPooBahsRedBlackTreeLibrary.Tree",
        "members": [
          {
            "astId": 22069,
            "contract": "contracts/PerpdexMarket.sol:PerpdexMarket",
            "label": "root",
            "offset": 0,
            "slot": "0",
            "type": "t_uint40"
          },
          {
            "astId": 22074,
            "contract": "contracts/PerpdexMarket.sol:PerpdexMarket",
            "label": "nodes",
            "offset": 0,
            "slot": "1",
            "type": "t_mapping(t_uint40,t_struct(Node)22067_storage)"
          }
        ],
        "numberOfBytes": "64"
      },
      "t_uint128": {
        "encoding": "inplace",
        "label": "uint128",
        "numberOfBytes": "16"
      },
      "t_uint24": {
        "encoding": "inplace",
        "label": "uint24",
        "numberOfBytes": "3"
      },
      "t_uint256": {
        "encoding": "inplace",
        "label": "uint256",
        "numberOfBytes": "32"
      },
      "t_uint32": {
        "encoding": "inplace",
        "label": "uint32",
        "numberOfBytes": "4"
      },
      "t_uint40": {
        "encoding": "inplace",
        "label": "uint40",
        "numberOfBytes": "5"
      },
      "t_uint48": {
        "encoding": "inplace",
        "label": "uint48",
        "numberOfBytes": "6"
      }
    }
  }
}