{
  "address": "0x6bD9e001970838eA992C579BB4b65E3a2AA8a31A",
  "abi": [
    {
      "inputs": [
        {
          "internalType": "address",
          "name": "settlementTokenArg",
          "type": "address"
        }
      ],
      "stateMutability": "nonpayable",
      "type": "constructor"
    },
    {
      "anonymous": false,
      "inputs": [
        {
          "indexed": true,
          "internalType": "address",
          "name": "trader",
          "type": "address"
        },
        {
          "indexed": false,
          "internalType": "uint256",
          "name": "amount",
          "type": "uint256"
        }
      ],
      "name": "CollateralCompensated",
      "type": "event"
    },
    {
      "anonymous": false,
      "inputs": [
        {
          "indexed": true,
          "internalType": "address",
          "name": "trader",
          "type": "address"
        },
        {
          "indexed": false,
          "internalType": "uint256",
          "name": "amount",
          "type": "uint256"
        }
      ],
      "name": "Deposited",
      "type": "event"
    },
    {
      "anonymous": false,
      "inputs": [
        {
          "indexed": false,
          "internalType": "uint24",
          "name": "value",
          "type": "uint24"
        }
      ],
      "name": "ImRatioChanged",
      "type": "event"
    },
    {
      "anonymous": false,
      "inputs": [
        {
          "indexed": true,
          "internalType": "address",
          "name": "market",
          "type": "address"
        },
        {
          "indexed": false,
          "internalType": "bool",
          "name": "isMarketAllowed",
          "type": "bool"
        }
      ],
      "name": "IsMarketAllowedChanged",
      "type": "event"
    },
    {
      "anonymous": false,
      "inputs": [
        {
          "indexed": true,
          "internalType": "address",
          "name": "trader",
          "type": "address"
        },
        {
          "indexed": true,
          "internalType": "address",
          "name": "market",
          "type": "address"
        },
        {
          "indexed": true,
          "internalType": "address",
          "name": "liquidator",
          "type": "address"
        },
        {
          "indexed": false,
          "internalType": "bool",
          "name": "isBid",
          "type": "bool"
        },
        {
          "indexed": false,
          "internalType": "uint256",
          "name": "orderId",
          "type": "uint256"
        }
      ],
      "name": "LimitOrderCanceled",
      "type": "event"
    },
    {
      "anonymous": false,
      "inputs": [
        {
          "indexed": true,
          "internalType": "address",
          "name": "trader",
          "type": "address"
        },
        {
          "indexed": true,
          "internalType": "address",
          "name": "market",
          "type": "address"
        },
        {
          "indexed": false,
          "internalType": "bool",
          "name": "isBid",
          "type": "bool"
        },
        {
          "indexed": false,
          "internalType": "uint256",
          "name": "base",
          "type": "uint256"
        },
        {
          "indexed": false,
          "internalType": "uint256",
          "name": "priceX96",
          "type": "uint256"
        },
        {
          "indexed": false,
          "internalType": "uint256",
          "name": "orderId",
          "type": "uint256"
        }
      ],
      "name": "LimitOrderCreated",
      "type": "event"
    },
    {
      "anonymous": false,
      "inputs": [
        {
          "indexed": false,
          "internalType": "uint24",
          "name": "rewardRatio",
          "type": "uint24"
        },
        {
          "indexed": false,
          "internalType": "uint16",
          "name": "smoothEmaTime",
          "type": "uint16"
        }
      ],
      "name": "LiquidationRewardConfigChanged",
      "type": "event"
    },
    {
      "anonymous": false,
      "inputs": [
        {
          "indexed": true,
          "internalType": "address",
          "name": "trader",
          "type": "address"
        },
        {
          "indexed": true,
          "internalType": "address",
          "name": "market",
          "type": "address"
        },
        {
          "indexed": false,
          "internalType": "uint256",
          "name": "base",
          "type": "uint256"
        },
        {
          "indexed": false,
          "internalType": "uint256",
          "name": "quote",
          "type": "uint256"
        },
        {
          "indexed": false,
          "internalType": "uint256",
          "name": "liquidity",
          "type": "uint256"
        },
        {
          "indexed": false,
          "internalType": "uint256",
          "name": "cumBasePerLiquidityX96",
          "type": "uint256"
        },
        {
          "indexed": false,
          "internalType": "uint256",
          "name": "cumQuotePerLiquidityX96",
          "type": "uint256"
        }
      ],
      "name": "LiquidityAdded",
      "type": "event"
    },
    {
      "anonymous": false,
      "inputs": [
        {
          "indexed": true,
          "internalType": "address",
          "name": "trader",
          "type": "address"
        },
        {
          "indexed": true,
          "internalType": "address",
          "name": "market",
          "type": "address"
        },
        {
          "indexed": false,
          "internalType": "address",
          "name": "liquidator",
          "type": "address"
        },
        {
          "indexed": false,
          "internalType": "uint256",
          "name": "base",
          "type": "uint256"
        },
        {
          "indexed": false,
          "internalType": "uint256",
          "name": "quote",
          "type": "uint256"
        },
        {
          "indexed": false,
          "internalType": "uint256",
          "name": "liquidity",
          "type": "uint256"
        },
        {
          "indexed": false,
          "internalType": "int256",
          "name": "takerBase",
          "type": "int256"
        },
        {
          "indexed": false,
          "internalType": "int256",
          "name": "takerQuote",
          "type": "int256"
        },
        {
          "indexed": false,
          "internalType": "int256",
          "name": "realizedPnl",
          "type": "int256"
        }
      ],
      "name": "LiquidityRemoved",
      "type": "event"
    },
    {
      "anonymous": false,
      "inputs": [
        {
          "indexed": false,
          "internalType": "uint8",
          "name": "value",
          "type": "uint8"
        }
      ],
      "name": "MaxMarketsPerAccountChanged",
      "type": "event"
    },
    {
      "anonymous": false,
      "inputs": [
        {
          "indexed": false,
          "internalType": "uint8",
          "name": "value",
          "type": "uint8"
        }
      ],
      "name": "MaxOrdersPerAccountChanged",
      "type": "event"
    },
    {
      "anonymous": false,
      "inputs": [
        {
          "indexed": false,
          "internalType": "uint24",
          "name": "value",
          "type": "uint24"
        }
      ],
      "name": "MmRatioChanged",
      "type": "event"
    },
    {
      "anonymous": false,
      "inputs": [
        {
          "indexed": true,
          "internalType": "address",
          "name": "previousOwner",
          "type": "address"
        },
        {
          "indexed": true,
          "internalType": "address",
          "name": "newOwner",
          "type": "address"
        }
      ],
      "name": "OwnershipTransferred",
      "type": "event"
    },
    {
      "anonymous": false,
      "inputs": [
        {
          "indexed": true,
          "internalType": "address",
          "name": "maker",
          "type": "address"
        },
        {
          "indexed": true,
          "internalType": "address",
          "name": "market",
          "type": "address"
        },
        {
          "indexed": false,
          "internalType": "bool",
          "name": "isAsk",
          "type": "bool"
        },
        {
          "indexed": false,
          "internalType": "uint256",
          "name": "basePartial",
          "type": "uint256"
        },
        {
          "indexed": false,
          "internalType": "uint256",
          "name": "quotePartial",
          "type": "uint256"
        },
        {
          "indexed": false,
          "internalType": "int256",
          "name": "partialRealizedPnL",
          "type": "int256"
        }
      ],
      "name": "PartiallyExecuted",
      "type": "event"
    },
    {
      "anonymous": false,
      "inputs": [
        {
          "indexed": true,
          "internalType": "address",
          "name": "trader",
          "type": "address"
        },
        {
          "indexed": true,
          "internalType": "address",
          "name": "market",
          "type": "address"
        },
        {
          "indexed": false,
          "internalType": "int256",
          "name": "base",
          "type": "int256"
        },
        {
          "indexed": false,
          "internalType": "int256",
          "name": "quote",
          "type": "int256"
        },
        {
          "indexed": false,
          "internalType": "int256",
          "name": "realizedPnl",
          "type": "int256"
        },
        {
          "indexed": false,
          "internalType": "uint256",
          "name": "protocolFee",
          "type": "uint256"
        },
        {
          "indexed": false,
          "internalType": "uint256",
          "name": "baseBalancePerShareX96",
          "type": "uint256"
        },
        {
          "indexed": false,
          "internalType": "uint256",
          "name": "sharePriceAfterX96",
          "type": "uint256"
        }
      ],
      "name": "PositionChanged",
      "type": "event"
    },
    {
      "anonymous": false,
      "inputs": [
        {
          "indexed": true,
          "internalType": "address",
          "name": "trader",
          "type": "address"
        },
        {
          "indexed": true,
          "internalType": "address",
          "name": "market",
          "type": "address"
        },
        {
          "indexed": true,
          "internalType": "address",
          "name": "liquidator",
          "type": "address"
        },
        {
          "indexed": false,
          "internalType": "int256",
          "name": "base",
          "type": "int256"
        },
        {
          "indexed": false,
          "internalType": "int256",
          "name": "quote",
          "type": "int256"
        },
        {
          "indexed": false,
          "internalType": "int256",
          "name": "realizedPnl",
          "type": "int256"
        },
        {
          "indexed": false,
          "internalType": "uint256",
          "name": "protocolFee",
          "type": "uint256"
        },
        {
          "indexed": false,
          "internalType": "uint256",
          "name": "baseBalancePerShareX96",
          "type": "uint256"
        },
        {
          "indexed": false,
          "internalType": "uint256",
          "name": "sharePriceAfterX96",
          "type": "uint256"
        },
        {
          "indexed": false,
          "internalType": "uint256",
          "name": "liquidationPenalty",
          "type": "uint256"
        },
        {
          "indexed": false,
          "internalType": "uint256",
          "name": "liquidationReward",
          "type": "uint256"
        },
        {
          "indexed": false,
          "internalType": "uint256",
          "name": "insuranceFundReward",
          "type": "uint256"
        }
      ],
      "name": "PositionLiquidated",
      "type": "event"
    },
    {
      "anonymous": false,
      "inputs": [
        {
          "indexed": false,
          "internalType": "uint24",
          "name": "value",
          "type": "uint24"
        }
      ],
      "name": "ProtocolFeeRatioChanged",
      "type": "event"
    },
    {
      "anonymous": false,
      "inputs": [
        {
          "indexed": true,
          "internalType": "address",
          "name": "trader",
          "type": "address"
        },
        {
          "indexed": false,
          "internalType": "uint256",
          "name": "amount",
          "type": "uint256"
        }
      ],
      "name": "ProtocolFeeTransferred",
      "type": "event"
    },
    {
      "anonymous": false,
      "inputs": [
        {
          "indexed": true,
          "internalType": "address",
          "name": "trader",
          "type": "address"
        },
        {
          "indexed": false,
          "internalType": "uint256",
          "name": "amount",
          "type": "uint256"
        }
      ],
      "name": "Withdrawn",
      "type": "event"
    },
    {
      "inputs": [
        {
          "internalType": "address",
          "name": "",
          "type": "address"
        }
      ],
      "name": "accountInfos",
      "outputs": [
        {
          "components": [
            {
              "internalType": "int256",
              "name": "collateralBalance",
              "type": "int256"
            }
          ],
          "internalType": "struct PerpdexStructs.VaultInfo",
          "name": "vaultInfo",
          "type": "tuple"
        },
        {
          "internalType": "uint8",
          "name": "limitOrderCount",
          "type": "uint8"
        }
      ],
      "stateMutability": "view",
      "type": "function"
    },
    {
      "inputs": [
        {
          "components": [
            {
              "internalType": "address",
              "name": "market",
              "type": "address"
            },
            {
              "internalType": "uint256",
              "name": "base",
              "type": "uint256"
            },
            {
              "internalType": "uint256",
              "name": "quote",
              "type": "uint256"
            },
            {
              "internalType": "uint256",
              "name": "minBase",
              "type": "uint256"
            },
            {
              "internalType": "uint256",
              "name": "minQuote",
              "type": "uint256"
            },
            {
              "internalType": "uint256",
              "name": "deadline",
              "type": "uint256"
            }
          ],
          "internalType": "struct IPerpdexExchange.AddLiquidityParams",
          "name": "params",
          "type": "tuple"
        }
      ],
      "name": "addLiquidity",
      "outputs": [
        {
          "internalType": "uint256",
          "name": "base",
          "type": "uint256"
        },
        {
          "internalType": "uint256",
          "name": "quote",
          "type": "uint256"
        },
        {
          "internalType": "uint256",
          "name": "liquidity",
          "type": "uint256"
        }
      ],
      "stateMutability": "nonpayable",
      "type": "function"
    },
    {
      "inputs": [
        {
          "components": [
            {
              "internalType": "address",
              "name": "market",
              "type": "address"
            },
            {
              "internalType": "bool",
              "name": "isBid",
              "type": "bool"
            },
            {
              "internalType": "uint40",
              "name": "orderId",
              "type": "uint40"
            },
            {
              "internalType": "uint256",
              "name": "deadline",
              "type": "uint256"
            }
          ],
          "internalType": "struct IPerpdexExchange.CancelLimitOrderParams",
          "name": "params",
          "type": "tuple"
        }
      ],
      "name": "cancelLimitOrder",
      "outputs": [],
      "stateMutability": "nonpayable",
      "type": "function"
    },
    {
      "inputs": [
        {
          "components": [
            {
              "internalType": "address",
              "name": "market",
              "type": "address"
            },
            {
              "internalType": "bool",
              "name": "isBid",
              "type": "bool"
            },
            {
              "internalType": "uint256",
              "name": "base",
              "type": "uint256"
            },
            {
              "internalType": "uint256",
              "name": "priceX96",
              "type": "uint256"
            },
            {
              "internalType": "uint256",
              "name": "deadline",
              "type": "uint256"
            }
          ],
          "internalType": "struct IPerpdexExchange.CreateLimitOrderParams",
          "name": "params",
          "type": "tuple"
        }
      ],
      "name": "createLimitOrder",
      "outputs": [
        {
          "internalType": "uint40",
          "name": "orderId",
          "type": "uint40"
        }
      ],
      "stateMutability": "nonpayable",
      "type": "function"
    },
    {
      "inputs": [
        {
          "internalType": "uint256",
          "name": "amount",
          "type": "uint256"
        }
      ],
      "name": "deposit",
      "outputs": [],
      "stateMutability": "payable",
      "type": "function"
    },
    {
      "inputs": [
        {
          "internalType": "address",
          "name": "trader",
          "type": "address"
        }
      ],
      "name": "getAccountMarkets",
      "outputs": [
        {
          "internalType": "address[]",
          "name": "",
          "type": "address[]"
        }
      ],
      "stateMutability": "view",
      "type": "function"
    },
    {
      "inputs": [
        {
          "internalType": "address",
          "name": "trader",
          "type": "address"
        }
      ],
      "name": "getCollateralBalance",
      "outputs": [
        {
          "internalType": "int256",
          "name": "",
          "type": "int256"
        }
      ],
      "stateMutability": "view",
      "type": "function"
    },
    {
      "inputs": [
        {
          "internalType": "address",
          "name": "trader",
          "type": "address"
        },
        {
          "internalType": "address",
          "name": "market",
          "type": "address"
        },
        {
          "internalType": "bool",
          "name": "isBid",
          "type": "bool"
        }
      ],
      "name": "getLimitOrderIds",
      "outputs": [
        {
          "internalType": "uint40[]",
          "name": "",
          "type": "uint40[]"
        }
      ],
      "stateMutability": "view",
      "type": "function"
    },
    {
      "inputs": [
        {
          "internalType": "address",
          "name": "trader",
          "type": "address"
        },
        {
          "internalType": "address",
          "name": "market",
          "type": "address"
        }
      ],
      "name": "getLimitOrderInfo",
      "outputs": [
        {
          "internalType": "uint40",
          "name": "askRoot",
          "type": "uint40"
        },
        {
          "internalType": "uint40",
          "name": "bidRoot",
          "type": "uint40"
        },
        {
          "internalType": "uint256",
          "name": "totalBaseAsk",
          "type": "uint256"
        },
        {
          "internalType": "uint256",
          "name": "totalBaseBid",
          "type": "uint256"
        }
      ],
      "stateMutability": "view",
      "type": "function"
    },
    {
      "inputs": [
        {
          "internalType": "address",
          "name": "trader",
          "type": "address"
        },
        {
          "internalType": "address",
          "name": "market",
          "type": "address"
        }
      ],
      "name": "getMakerInfo",
      "outputs": [
        {
          "components": [
            {
              "internalType": "uint256",
              "name": "liquidity",
              "type": "uint256"
            },
            {
              "internalType": "uint256",
              "name": "cumBaseSharePerLiquidityX96",
              "type": "uint256"
            },
            {
              "internalType": "uint256",
              "name": "cumQuotePerLiquidityX96",
              "type": "uint256"
            }
          ],
          "internalType": "struct PerpdexStructs.MakerInfo",
          "name": "",
          "type": "tuple"
        }
      ],
      "stateMutability": "view",
      "type": "function"
    },
    {
      "inputs": [
        {
          "internalType": "address",
          "name": "trader",
          "type": "address"
        },
        {
          "internalType": "address",
          "name": "market",
          "type": "address"
        }
      ],
      "name": "getOpenPositionNotional",
      "outputs": [
        {
          "internalType": "uint256",
          "name": "",
          "type": "uint256"
        }
      ],
      "stateMutability": "view",
      "type": "function"
    },
    {
      "inputs": [
        {
          "internalType": "address",
          "name": "trader",
          "type": "address"
        },
        {
          "internalType": "address",
          "name": "market",
          "type": "address"
        }
      ],
      "name": "getOpenPositionShare",
      "outputs": [
        {
          "internalType": "uint256",
          "name": "",
          "type": "uint256"
        }
      ],
      "stateMutability": "view",
      "type": "function"
    },
    {
      "inputs": [
        {
          "internalType": "address",
          "name": "trader",
          "type": "address"
        },
        {
          "internalType": "address",
          "name": "market",
          "type": "address"
        }
      ],
      "name": "getPositionNotional",
      "outputs": [
        {
          "internalType": "int256",
          "name": "",
          "type": "int256"
        }
      ],
      "stateMutability": "view",
      "type": "function"
    },
    {
      "inputs": [
        {
          "internalType": "address",
          "name": "trader",
          "type": "address"
        },
        {
          "internalType": "address",
          "name": "market",
          "type": "address"
        }
      ],
      "name": "getPositionShare",
      "outputs": [
        {
          "internalType": "int256",
          "name": "",
          "type": "int256"
        }
      ],
      "stateMutability": "view",
      "type": "function"
    },
    {
      "inputs": [
        {
          "internalType": "address",
          "name": "trader",
          "type": "address"
        },
        {
          "internalType": "address",
          "name": "market",
          "type": "address"
        }
      ],
      "name": "getTakerInfo",
      "outputs": [
        {
          "components": [
            {
              "internalType": "int256",
              "name": "baseBalanceShare",
              "type": "int256"
            },
            {
              "internalType": "int256",
              "name": "quoteBalance",
              "type": "int256"
            }
          ],
          "internalType": "struct PerpdexStructs.TakerInfo",
          "name": "",
          "type": "tuple"
        }
      ],
      "stateMutability": "view",
      "type": "function"
    },
    {
      "inputs": [
        {
          "internalType": "address",
          "name": "trader",
          "type": "address"
        },
        {
          "internalType": "address",
          "name": "market",
          "type": "address"
        }
      ],
      "name": "getTakerInfoLazy",
      "outputs": [
        {
          "components": [
            {
              "internalType": "int256",
              "name": "baseBalanceShare",
              "type": "int256"
            },
            {
              "internalType": "int256",
              "name": "quoteBalance",
              "type": "int256"
            }
          ],
          "internalType": "struct PerpdexStructs.TakerInfo",
          "name": "",
          "type": "tuple"
        }
      ],
      "stateMutability": "view",
      "type": "function"
    },
    {
      "inputs": [
        {
          "internalType": "address",
          "name": "trader",
          "type": "address"
        }
      ],
      "name": "getTotalAccountValue",
      "outputs": [
        {
          "internalType": "int256",
          "name": "",
          "type": "int256"
        }
      ],
      "stateMutability": "view",
      "type": "function"
    },
    {
      "inputs": [
        {
          "internalType": "address",
          "name": "trader",
          "type": "address"
        }
      ],
      "name": "getTotalOpenPositionNotional",
      "outputs": [
        {
          "internalType": "uint256",
          "name": "",
          "type": "uint256"
        }
      ],
      "stateMutability": "view",
      "type": "function"
    },
    {
      "inputs": [
        {
          "internalType": "address",
          "name": "trader",
          "type": "address"
        }
      ],
      "name": "getTotalPositionNotional",
      "outputs": [
        {
          "internalType": "uint256",
          "name": "",
          "type": "uint256"
        }
      ],
      "stateMutability": "view",
      "type": "function"
    },
    {
      "inputs": [
        {
          "internalType": "address",
          "name": "trader",
          "type": "address"
        }
      ],
      "name": "hasEnoughInitialMargin",
      "outputs": [
        {
          "internalType": "bool",
          "name": "",
          "type": "bool"
        }
      ],
      "stateMutability": "view",
      "type": "function"
    },
    {
      "inputs": [
        {
          "internalType": "address",
          "name": "trader",
          "type": "address"
        }
      ],
      "name": "hasEnoughMaintenanceMargin",
      "outputs": [
        {
          "internalType": "bool",
          "name": "",
          "type": "bool"
        }
      ],
      "stateMutability": "view",
      "type": "function"
    },
    {
      "inputs": [],
      "name": "imRatio",
      "outputs": [
        {
          "internalType": "uint24",
          "name": "",
          "type": "uint24"
        }
      ],
      "stateMutability": "view",
      "type": "function"
    },
    {
      "inputs": [],
      "name": "insuranceFundInfo",
      "outputs": [
        {
          "internalType": "uint256",
          "name": "balance",
          "type": "uint256"
        },
        {
          "internalType": "uint256",
          "name": "liquidationRewardBalance",
          "type": "uint256"
        }
      ],
      "stateMutability": "view",
      "type": "function"
    },
    {
      "inputs": [
        {
          "internalType": "address",
          "name": "trader",
          "type": "address"
        }
      ],
      "name": "isLiquidationFree",
      "outputs": [
        {
          "internalType": "bool",
          "name": "",
          "type": "bool"
        }
      ],
      "stateMutability": "view",
      "type": "function"
    },
    {
      "inputs": [
        {
          "internalType": "address",
          "name": "",
          "type": "address"
        }
      ],
      "name": "isMarketAllowed",
      "outputs": [
        {
          "internalType": "bool",
          "name": "",
          "type": "bool"
        }
      ],
      "stateMutability": "view",
      "type": "function"
    },
    {
      "inputs": [],
      "name": "liquidationRewardConfig",
      "outputs": [
        {
          "internalType": "uint24",
          "name": "rewardRatio",
          "type": "uint24"
        },
        {
          "internalType": "uint16",
          "name": "smoothEmaTime",
          "type": "uint16"
        }
      ],
      "stateMutability": "view",
      "type": "function"
    },
    {
      "inputs": [],
      "name": "maxMarketsPerAccount",
      "outputs": [
        {
          "internalType": "uint8",
          "name": "",
          "type": "uint8"
        }
      ],
      "stateMutability": "view",
      "type": "function"
    },
    {
      "inputs": [],
      "name": "maxOrdersPerAccount",
      "outputs": [
        {
          "internalType": "uint8",
          "name": "",
          "type": "uint8"
        }
      ],
      "stateMutability": "view",
      "type": "function"
    },
    {
      "inputs": [
        {
          "components": [
            {
              "internalType": "address",
              "name": "trader",
              "type": "address"
            },
            {
              "internalType": "address",
              "name": "market",
              "type": "address"
            },
            {
              "internalType": "address",
              "name": "caller",
              "type": "address"
            },
            {
              "internalType": "bool",
              "name": "isBaseToQuote",
              "type": "bool"
            },
            {
              "internalType": "bool",
              "name": "isExactInput",
              "type": "bool"
            }
          ],
          "internalType": "struct IPerpdexExchange.MaxTradeParams",
          "name": "params",
          "type": "tuple"
        }
      ],
      "name": "maxTrade",
      "outputs": [
        {
          "internalType": "uint256",
          "name": "amount",
          "type": "uint256"
        }
      ],
      "stateMutability": "view",
      "type": "function"
    },
    {
      "inputs": [],
      "name": "mmRatio",
      "outputs": [
        {
          "internalType": "uint24",
          "name": "",
          "type": "uint24"
        }
      ],
      "stateMutability": "view",
      "type": "function"
    },
    {
      "inputs": [
        {
          "internalType": "bytes[]",
          "name": "data",
          "type": "bytes[]"
        }
      ],
      "name": "multicall",
      "outputs": [
        {
          "internalType": "bytes[]",
          "name": "results",
          "type": "bytes[]"
        }
      ],
      "stateMutability": "nonpayable",
      "type": "function"
    },
    {
      "inputs": [
        {
          "internalType": "address",
          "name": "",
          "type": "address"
        },
        {
          "internalType": "bool",
          "name": "",
          "type": "bool"
        },
        {
          "internalType": "uint40",
          "name": "",
          "type": "uint40"
        }
      ],
      "name": "orderIdToTrader",
      "outputs": [
        {
          "internalType": "address",
          "name": "",
          "type": "address"
        }
      ],
      "stateMutability": "view",
      "type": "function"
    },
    {
      "inputs": [],
      "name": "owner",
      "outputs": [
        {
          "internalType": "address",
          "name": "",
          "type": "address"
        }
      ],
      "stateMutability": "view",
      "type": "function"
    },
    {
      "inputs": [
        {
          "components": [
            {
              "internalType": "address",
              "name": "trader",
              "type": "address"
            },
            {
              "internalType": "address",
              "name": "market",
              "type": "address"
            },
            {
              "internalType": "address",
              "name": "caller",
              "type": "address"
            },
            {
              "internalType": "bool",
              "name": "isBaseToQuote",
              "type": "bool"
            },
            {
              "internalType": "bool",
              "name": "isExactInput",
              "type": "bool"
            },
            {
              "internalType": "uint256",
              "name": "amount",
              "type": "uint256"
            },
            {
              "internalType": "uint256",
              "name": "oppositeAmountBound",
              "type": "uint256"
            }
          ],
          "internalType": "struct IPerpdexExchange.PreviewTradeParams",
          "name": "params",
          "type": "tuple"
        }
      ],
      "name": "previewTrade",
      "outputs": [
        {
          "internalType": "uint256",
          "name": "oppositeAmount",
          "type": "uint256"
        }
      ],
      "stateMutability": "view",
      "type": "function"
    },
    {
      "inputs": [],
      "name": "protocolFeeRatio",
      "outputs": [
        {
          "internalType": "uint24",
          "name": "",
          "type": "uint24"
        }
      ],
      "stateMutability": "view",
      "type": "function"
    },
    {
      "inputs": [],
      "name": "protocolInfo",
      "outputs": [
        {
          "internalType": "uint256",
          "name": "protocolFee",
          "type": "uint256"
        }
      ],
      "stateMutability": "view",
      "type": "function"
    },
    {
      "inputs": [],
      "name": "quoteDecimals",
      "outputs": [
        {
          "internalType": "uint8",
          "name": "",
          "type": "uint8"
        }
      ],
      "stateMutability": "view",
      "type": "function"
    },
    {
      "inputs": [
        {
          "components": [
            {
              "internalType": "address",
              "name": "trader",
              "type": "address"
            },
            {
              "internalType": "address",
              "name": "market",
              "type": "address"
            },
            {
              "internalType": "uint256",
              "name": "liquidity",
              "type": "uint256"
            },
            {
              "internalType": "uint256",
              "name": "minBase",
              "type": "uint256"
            },
            {
              "internalType": "uint256",
              "name": "minQuote",
              "type": "uint256"
            },
            {
              "internalType": "uint256",
              "name": "deadline",
              "type": "uint256"
            }
          ],
          "internalType": "struct IPerpdexExchange.RemoveLiquidityParams",
          "name": "params",
          "type": "tuple"
        }
      ],
      "name": "removeLiquidity",
      "outputs": [
        {
          "internalType": "uint256",
          "name": "base",
          "type": "uint256"
        },
        {
          "internalType": "uint256",
          "name": "quote",
          "type": "uint256"
        }
      ],
      "stateMutability": "nonpayable",
      "type": "function"
    },
    {
      "inputs": [],
      "name": "renounceOwnership",
      "outputs": [],
      "stateMutability": "nonpayable",
      "type": "function"
    },
    {
      "inputs": [
        {
          "internalType": "address",
          "name": "trader",
          "type": "address"
        },
        {
          "internalType": "int256",
          "name": "balance",
          "type": "int256"
        }
      ],
      "name": "setCollateralBalance",
      "outputs": [],
      "stateMutability": "nonpayable",
      "type": "function"
    },
    {
      "inputs": [
        {
          "internalType": "uint24",
          "name": "value",
          "type": "uint24"
        }
      ],
      "name": "setImRatio",
      "outputs": [],
      "stateMutability": "nonpayable",
      "type": "function"
    },
    {
      "inputs": [
        {
          "internalType": "address",
          "name": "market",
          "type": "address"
        },
        {
          "internalType": "bool",
          "name": "value",
          "type": "bool"
        }
      ],
      "name": "setIsMarketAllowed",
      "outputs": [],
      "stateMutability": "nonpayable",
      "type": "function"
    },
    {
      "inputs": [
        {
          "components": [
            {
              "internalType": "uint24",
              "name": "rewardRatio",
              "type": "uint24"
            },
            {
              "internalType": "uint16",
              "name": "smoothEmaTime",
              "type": "uint16"
            }
          ],
          "internalType": "struct PerpdexStructs.LiquidationRewardConfig",
          "name": "value",
          "type": "tuple"
        }
      ],
      "name": "setLiquidationRewardConfig",
      "outputs": [],
      "stateMutability": "nonpayable",
      "type": "function"
    },
    {
      "inputs": [
        {
          "internalType": "uint8",
          "name": "value",
          "type": "uint8"
        }
      ],
      "name": "setMaxMarketsPerAccount",
      "outputs": [],
      "stateMutability": "nonpayable",
      "type": "function"
    },
    {
      "inputs": [
        {
          "internalType": "uint8",
          "name": "value",
          "type": "uint8"
        }
      ],
      "name": "setMaxOrdersPerAccount",
      "outputs": [],
      "stateMutability": "nonpayable",
      "type": "function"
    },
    {
      "inputs": [
        {
          "internalType": "uint24",
          "name": "value",
          "type": "uint24"
        }
      ],
      "name": "setMmRatio",
      "outputs": [],
      "stateMutability": "nonpayable",
      "type": "function"
    },
    {
      "inputs": [
        {
          "internalType": "uint24",
          "name": "value",
          "type": "uint24"
        }
      ],
      "name": "setProtocolFeeRatio",
      "outputs": [],
      "stateMutability": "nonpayable",
      "type": "function"
    },
    {
      "inputs": [],
      "name": "settlementToken",
      "outputs": [
        {
          "internalType": "address",
          "name": "",
          "type": "address"
        }
      ],
      "stateMutability": "view",
      "type": "function"
    },
    {
      "inputs": [
        {
          "components": [
            {
              "internalType": "address",
              "name": "trader",
              "type": "address"
            },
            {
              "internalType": "address",
              "name": "market",
              "type": "address"
            },
            {
              "internalType": "bool",
              "name": "isBaseToQuote",
              "type": "bool"
            },
            {
              "internalType": "bool",
              "name": "isExactInput",
              "type": "bool"
            },
            {
              "internalType": "uint256",
              "name": "amount",
              "type": "uint256"
            },
            {
              "internalType": "uint256",
              "name": "oppositeAmountBound",
              "type": "uint256"
            },
            {
              "internalType": "uint256",
              "name": "deadline",
              "type": "uint256"
            }
          ],
          "internalType": "struct IPerpdexExchange.TradeParams",
          "name": "params",
          "type": "tuple"
        }
      ],
      "name": "trade",
      "outputs": [
        {
          "internalType": "uint256",
          "name": "oppositeAmount",
          "type": "uint256"
        }
      ],
      "stateMutability": "nonpayable",
      "type": "function"
    },
    {
      "inputs": [
        {
          "internalType": "address",
          "name": "newOwner",
          "type": "address"
        }
      ],
      "name": "transferOwnership",
      "outputs": [],
      "stateMutability": "nonpayable",
      "type": "function"
    },
    {
      "inputs": [
        {
          "internalType": "uint256",
          "name": "amount",
          "type": "uint256"
        }
      ],
      "name": "transferProtocolFee",
      "outputs": [],
      "stateMutability": "nonpayable",
      "type": "function"
    },
    {
      "inputs": [
        {
          "internalType": "uint256",
          "name": "amount",
          "type": "uint256"
        }
      ],
      "name": "withdraw",
      "outputs": [],
      "stateMutability": "nonpayable",
      "type": "function"
    }
  ],
  "transactionHash": "0x9f54a9161d3459be815ea191e24fab76f14a76a2584b97beb0c2172d348c909a",
  "args": [
    "0x0000000000000000000000000000000000000000"
  ],
  "numDeployments": 2,
  "solcInputHash": "61b0f5571c4803a51ab476ac1676a8de",
  "bytecode": "0x6007805466c3500186a028106001600160581b031990911617905560e060405262030d4060a052606460c0526008805464ffffffffff19166364030d401790553480156200004c57600080fd5b5060405162006137380380620061378339810160408190526200006f9162000216565b6001600055806200008033620001b5565b6001600160a01b0381161580620000b15750620000b1816001600160a01b03166200020760201b620032541760201c565b620001035760405162461bcd60e51b815260206004820152601b60248201527f50455f433a20746f6b656e206164647265737320696e76616c6964000000000060448201526064015b60405180910390fd5b6001600160a01b03166080524660048114806200012257506201388181145b806200012e5750605181145b8062000138575080155b8062000146575062066eeb81145b80620001525750604581145b806200015f5750617a6981145b620001ad5760405162461bcd60e51b815260206004820152601360248201527f4450455f433a20746573746e6574206f6e6c79000000000000000000000000006044820152606401620000fa565b505062000248565b600180546001600160a01b038381166001600160a01b0319831681179093556040519116919082907f8be0079c531659141344cd1fd0a4f28419497f9722a3daafe3b4186f6b6457e090600090a35050565b6001600160a01b03163b151590565b6000602082840312156200022957600080fd5b81516001600160a01b03811681146200024157600080fd5b9392505050565b608051615ebe620002796000396000818161064f015281816111a4015281816120c1015261226c0152615ebe6000f3fe6080604052600436106102bf5760003560e01c80639317b19311610170578063ca5b721e116100cc578063e671be1711610085578063e671be1714610aa6578063e72e436314610ac6578063e8c41ef914610af6578063ec6cca8414610b2c578063f2fde38b14610b4c578063f652b52714610b6c578063fed4063214610b8657600080fd5b8063ca5b721e146109a4578063cffe8556146109c4578063d11102c5146109e4578063d1ce35e314610a11578063ddad7e9714610a31578063dfe1cb9214610a6b57600080fd5b8063a616c66c11610129578063a616c66c14610892578063ac3732b4146108c7578063ac9650d8146108e7578063b53c512514610914578063b6b55f2514610956578063c66fa8e614610969578063c9ca7b181461098457600080fd5b80639317b193146107a157806393420cf4146107c157806394887af7146107d8578063996fbf941461081f5780639dce9e191461083f5780639f044f311461086f57600080fd5b80633d46396a1161021f57806373f62501116101d857806373f62501146105fa5780637a27d9f61461061a5780637b9e618d1461063d5780637c88490a1461067157806387cad0bf1461069157806388060d8b146106f15780638da5cb5b1461078357600080fd5b80633d46396a146105505780633fd1e2bd146105705780634b4aa735146105855780634ebd6bb4146105a55780636e838bad146105c5578063715018a6146105e557600080fd5b80632e1a7d4d1161027c5780632e1a7d4d146103aa5780632e784343146103ca5780632f60a1511461044e5780632fd99bf41461048457806331e60ddf146104e357806333ff1577146105105780633a9210511461053057600080fd5b8063030ee0cb146102c45780630674fa41146102e65780630729e07a1461031957806318f8c0cd146103395780632703ee851461036a5780632d67669c1461038a575b600080fd5b3480156102d057600080fd5b506102e46102df36600461541b565b610ba6565b005b3480156102f257600080fd5b50610306610301366004615453565b610c34565b6040519081526020015b60405180910390f35b34801561032557600080fd5b506102e4610334366004615470565b610cc8565b34801561034557600080fd5b5060075461035890610100900460ff1681565b60405160ff9091168152602001610310565b34801561037657600080fd5b50610306610385366004615453565b611008565b34801561039657600080fd5b506103066103a536600461549a565b611059565b3480156103b657600080fd5b506102e46103c53660046154b6565b61114c565b3480156103d657600080fd5b506104336103e53660046154cf565b604080518082018252600080825260209182018190526001600160a01b0394851681526002825282812093909416845291825291829020825180840190935280548352600101549082015290565b60408051825181526020928301519281019290925201610310565b34801561045a57600080fd5b506007546104709062010000900462ffffff1681565b60405162ffffff9091168152602001610310565b34801561049057600080fd5b506104cb61049f366004615529565b60066020908152600093845260408085208252928452828420905282529020546001600160a01b031681565b6040516001600160a01b039091168152602001610310565b3480156104ef57600080fd5b506105036104fe366004615574565b6112bb565b60405161031091906155b4565b34801561051c57600080fd5b5061030661052b3660046154cf565b61136b565b34801561053c57600080fd5b5061030661054b366004615453565b6113fc565b34801561055c57600080fd5b506102e461056b3660046154b6565b61144d565b34801561057c57600080fd5b50610358601281565b34801561059157600080fd5b506103066105a0366004615453565b61154c565b3480156105b157600080fd5b506104336105c03660046154cf565b61159d565b3480156105d157600080fd5b506102e46105e0366004615610565b61163e565b3480156105f157600080fd5b506102e461176a565b34801561060657600080fd5b506102e461061536600461541b565b61177e565b34801561062657600080fd5b5060075461047090600160401b900462ffffff1681565b34801561064957600080fd5b506104cb7f000000000000000000000000000000000000000000000000000000000000000081565b34801561067d57600080fd5b5061030661068c3660046154cf565b6117ef565b34801561069d57600080fd5b506106d96106ac366004615453565b60026020908152600091825260409182902082519182019092526003820154815260059091015460ff1682565b604080519251835260ff909116602083015201610310565b3480156106fd57600080fd5b5061075a61070c3660046154cf565b6001600160a01b03918216600090815260026020818152604080842094909516835292810190925291909120805491810154600482015460059092015464ffffffffff938416949390911692565b6040805164ffffffffff9586168152949093166020850152918301526060820152608001610310565b34801561078f57600080fd5b506001546001600160a01b03166104cb565b3480156107ad57600080fd5b506102e46107bc36600461562d565b61183f565b3480156107cd57600080fd5b506005546103069081565b3480156107e457600080fd5b506008546108019062ffffff8116906301000000900461ffff1682565b6040805162ffffff909316835261ffff909116602083015201610310565b34801561082b57600080fd5b5061030661083a3660046154cf565b6119ec565b34801561084b57600080fd5b5061085f61085a366004615453565b611a3c565b6040519015158152602001610310565b34801561087b57600080fd5b5060075461047090600160281b900462ffffff1681565b34801561089e57600080fd5b506108b26108ad36600461566d565b611adf565b60408051928352602083019190915201610310565b3480156108d357600080fd5b506102e46108e2366004615689565b611ce9565b3480156108f357600080fd5b5061090761090236600461569b565b611e46565b604051610310919061575f565b34801561092057600080fd5b5061093461092f3660046154cf565b611f3a565b6040805182518152602080840151908201529181015190820152606001610310565b6102e46109643660046154b6565b611fae565b34801561097557600080fd5b506003546004546108b2919082565b34801561099057600080fd5b506102e461099f366004615610565b612366565b3480156109b057600080fd5b506103066109bf3660046154cf565b61248e565b3480156109d057600080fd5b506103066109df3660046157d3565b6124de565b3480156109f057600080fd5b50610a046109ff366004615453565b6125f6565b60405161031091906157ef565b348015610a1d57600080fd5b506102e4610a2c366004615610565b61266f565b348015610a3d57600080fd5b506102e4610a4c366004615830565b6001600160a01b03909116600090815260026020526040902060030155565b348015610a7757600080fd5b50610a8b610a8636600461566d565b61273c565b60408051938452602084019290925290820152606001610310565b348015610ab257600080fd5b50610306610ac13660046157d3565b61290c565b348015610ad257600080fd5b5061085f610ae1366004615453565b60096020526000908152604090205460ff1681565b348015610b0257600080fd5b50610b16610b1136600461549a565b612e4c565b60405164ffffffffff9091168152602001610310565b348015610b3857600080fd5b5061085f610b47366004615453565b613127565b348015610b5857600080fd5b506102e4610b67366004615453565b61318c565b348015610b7857600080fd5b506007546103589060ff1681565b348015610b9257600080fd5b5061085f610ba1366004615453565b613205565b610bae613263565b600260005403610bd95760405162461bcd60e51b8152600401610bd09061585c565b60405180910390fd5b60026000556007805461ff00191661010060ff8416908102919091179091556040519081527fa1c52f9241e2609b5e6bd1b508707a109021d174cc16f3b16215c457d4bbddfa906020015b60405180910390a1506001600055565b6001600160a01b038116600090815260026020526040808220905163d73fd34160e01b8152600481019190915273fd5CD7D2c8277B855c87D05aCC3343DFFA9CDE1f9063d73fd341906024015b602060405180830381865af4158015610c9e573d6000803e3d6000fd5b505050506040513d601f19601f82011682018060405250810190610cc29190615893565b92915050565b600260005403610cea5760405162461bcd60e51b8152600401610bd09061585c565b60026000556060810135610cfd816132bd565b610d0a6020830183615453565b610d13816132ff565b6000600681610d256020870187615453565b6001600160a01b03166001600160a01b031681526020019081526020016000206000856020016020810190610d5a91906158ac565b1515151581526020019081526020016000206000856040016020810190610d8191906158c9565b64ffffffffff1681526020810191909152604001600020546001600160a01b0316905080610deb5760405162461bcd60e51b8152602060048201526017602482015276141157d0d313ce881bdc99195c881b9bdd08195e1a5cdd604a1b6044820152606401610bd0565b610df481613367565b6001600160a01b0381166000908152600260209081526040808320815160c0810190925273fa559987167994706EeF52E959e7C2d5aB79911492637ae9aeb292908190610e43908b018b615453565b6001600160a01b03168152602001610e6160608b0160408c016158c9565b64ffffffffff168152602001896020016020810190610e8091906158ac565b15158152600754600160281b900462ffffff166020820152604001336001600160a01b0390811688821614825260075460ff9081166020938401526040805160e088901b6001600160e01b03191681526004810196909652845190921660248601529183015164ffffffffff16604485015282015115156064840152606082015162ffffff1660848401526080820151151560a484015260a0909101511660c482015260e401602060405180830381865af4158015610f43573d6000803e3d6000fd5b505050506040513d601f19601f82011682018060405250810190610f6791906158e6565b905080610f75576000610f77565b335b6001600160a01b0316610f8d6020870187615453565b6001600160a01b039081169084167f4de6bf440f231c89a9a5151794265a35b57c248083faeae83678c9259a7dd123610fcc60408a0160208b016158ac565b610fdc60608b0160408c016158c9565b60408051921515835264ffffffffff90911660208301520160405180910390a450506001600055505050565b6001600160a01b03811660009081526002602052604080822090516344ae957f60e11b8152600481019190915273fd5CD7D2c8277B855c87D05aCC3343DFFA9CDE1f9063895d2afe90602401610c81565b600060098161106e6040850160208601615453565b6001600160a01b0316815260208101919091526040016000205460ff1661109757506000919050565b60006110a66020840184615453565b905060006110ba6060850160408601615453565b905061114460026000846001600160a01b03166001600160a01b031681526020019081526020016000208560200160208101906110f79190615453565b61110760808801606089016158ac565b61111760a0890160808a016158ac565b60075462ffffff600160281b8204811691600160401b9004166001600160a01b03898116908916146133f4565b949350505050565b60026000540361116e5760405162461bcd60e51b8152600401610bd09061585c565b60026000553361117d81613367565b6001600160a01b0381811660008181526002602090815260409182902082516080810184527f00000000000000000000000000000000000000000000000000000000000000008616815291820187815282840194855260075462010000900462ffffff908116606085019081529451638b72b4c760e01b815260048101939093529251861660248301525160448201529251909316606483015251909116608482015273f7938AadBB45D27a42676145f423741405D541d290638b72b4c79060a40160006040518083038186803b15801561125757600080fd5b505af415801561126b573d6000803e3d6000fd5b50505050806001600160a01b03167f7084f5476618d8e60b11ef0d7d3f06914655adb8793e28ff7f018d4c76d505d5836040516112aa91815260200190565b60405180910390a250506001600055565b6001600160a01b0383811660009081526002602052604090819020905163733242af60e11b815260048101919091529083166024820152811515604482015260609073fa559987167994706EeF52E959e7C2d5aB7991149063e664855e90606401600060405180830381865af4158015611339573d6000803e3d6000fd5b505050506040513d6000823e601f3d908101601f191682016040526113619190810190615949565b90505b9392505050565b6001600160a01b0382166000908152600260205260408082209051632de9906b60e11b815273fd5CD7D2c8277B855c87D05aCC3343DFFA9CDE1f91635bd320d6916113bb919086906004016159ee565b602060405180830381865af41580156113d8573d6000803e3d6000fd5b505050506040513d601f19601f820116820180604052508101906113649190615893565b6001600160a01b0381166000908152600260205260408082209051631caf045760e31b8152600481019190915273fd5CD7D2c8277B855c87D05aCC3343DFFA9CDE1f9063e57822b890602401610c81565b611455613263565b6002600054036114775760405162461bcd60e51b8152600401610bd09061585c565b60026000553361148681613367565b6001600160a01b0381166000908152600260205260409081902090516333a4aff760e21b81526004810191909152600560248201526044810183905273f7938AadBB45D27a42676145f423741405D541d29063ce92bfdc9060640160006040518083038186803b1580156114f957600080fd5b505af415801561150d573d6000803e3d6000fd5b50505050806001600160a01b03167f0880b0e717a57f3b5cbd3fc19396ae3c8cdee5c624c9289477869c38014c8495836040516112aa91815260200190565b6001600160a01b03811660009081526002602052604080822090516367dd27b160e01b8152600481019190915273fd5CD7D2c8277B855c87D05aCC3343DFFA9CDE1f906367dd27b190602401610c81565b604080518082018252600080825260208083018290526001600160a01b038616825260029052829020915163195bd60760e31b8152909173fd5CD7D2c8277B855c87D05aCC3343DFFA9CDE1f9163cadeb038916115fe9186906004016159ee565b6040805180830381865af415801561161a573d6000803e3d6000fd5b505050506040513d601f19601f820116820180604052508101906113649190615a05565b611646613263565b6002600054036116685760405162461bcd60e51b8152600401610bd09061585c565b6002600055620f424062ffffff8216106116b85760405162461bcd60e51b815260206004820152601160248201527050455f5349523a20746f6f206c6172676560781b6044820152606401610bd0565b60075462ffffff600160281b9091048116908216101561171a5760405162461bcd60e51b815260206004820152601c60248201527f50455f5349523a20736d616c6c6572207468616e206d6d526174696f000000006044820152606401610bd0565b6007805464ffffff000019166201000062ffffff8416908102919091179091556040519081527f04f9c1a24c6543f4b91577d82af28fb7ef6d7b9fe46acd0e5c36ef17073b94e690602001610c24565b611772613263565b61177c6000613541565b565b611786613263565b6002600054036117a85760405162461bcd60e51b8152600401610bd09061585c565b60026000556007805460ff191660ff83169081179091556040519081527fa7b4760b38e2a630f3073fcd5119972cbf81bd50e3761f86534a69661caf811090602001610c24565b6001600160a01b038216600090815260026020526040808220905163af77d70760e01b815273fd5CD7D2c8277B855c87D05aCC3343DFFA9CDE1f9163af77d707916113bb919086906004016159ee565b611847613263565b6002600054036118695760405162461bcd60e51b8152600401610bd09061585c565b60026000556118806001600160a01b038316613254565b6118cc5760405162461bcd60e51b815260206004820152601f60248201527f50455f53494d413a206d61726b6574206164647265737320696e76616c6964006044820152606401610bd0565b801561199457306001600160a01b0316826001600160a01b031663d2f7265a6040518163ffffffff1660e01b8152600401602060405180830381865afa15801561191a573d6000803e3d6000fd5b505050506040513d601f19601f8201168201806040525081019061193e9190615a53565b6001600160a01b0316146119945760405162461bcd60e51b815260206004820152601b60248201527f50455f53494d413a20646966666572656e742065786368616e676500000000006044820152606401610bd0565b6001600160a01b038216600081815260096020908152604091829020805460ff191685151590811790915591519182527fd5d4c2e150c76234e0f5d390162d34c5c1e1405df2194cfbd63b12d9521b102791016112aa565b6001600160a01b0382166000908152600260205260408082209051630d832e2160e31b815273fd5CD7D2c8277B855c87D05aCC3343DFFA9CDE1f91636c197108916113bb919086906004016159ee565b6001600160a01b0381166000908152600260205260408082206007549151633c7e525f60e01b81526004810191909152600160281b90910462ffffff16602482015273fd5CD7D2c8277B855c87D05aCC3343DFFA9CDE1f90633c7e525f906044015b602060405180830381865af4158015611abb573d6000803e3d6000fd5b505050506040513d601f19601f82011682018060405250810190610cc291906158e6565b600080600260005403611b045760405162461bcd60e51b8152600401610bd09061585c565b600260005560a0830135611b17816132bd565b611b276040850160208601615453565b611b30816132ff565b611b45611b406020870187615453565b613367565b6000611c11600282611b5a60208a018a615453565b6001600160a01b03166001600160a01b031681526020019081526020016000206040518060e00160405280896020016020810190611b989190615453565b6001600160a01b0316815260408a81013560208301526060808c0135918301919091526080808c013591830191909152600754600160281b810462ffffff169183019190915260ff1660a082015260c001336001600160a01b0316611c0060208c018c615453565b6001600160a01b0316149052613593565b9050611c236040870160208801615453565b6001600160a01b0316611c396020880188615453565b6001600160a01b03167f6412738c4a8b04483cde318a630d4c268654a7ebd52c9ef2c516e5e8520a4fd88360a00151611c73576000611c75565b335b84516020808701516040808901516060808b01516080808d015185516001600160a01b039a909a168a5296890197909752878401949094528f830135908701529385019390935260a084015260c0830152519081900360e00190a38051602090910151600160005590969095509350505050565b611cf1613263565b600260005403611d135760405162461bcd60e51b8152600401610bd09061585c565b6002600055620f4240611d296020830183615610565b62ffffff1610611d7b5760405162461bcd60e51b815260206004820152601f60248201527f50455f534c52433a20746f6f206c617267652072657761726420726174696f006044820152606401610bd0565b6000611d8d6040830160208401615a80565b61ffff1611611dda5760405162461bcd60e51b815260206004820152601960248201527850455f534c52433a20656d612074696d65206973207a65726f60381b6044820152606401610bd0565b806008611de78282615a9d565b507f1185c4964ca5cd3d88d5dfbc1fb65b84d5533e3354f3b2163e8e1c0f35bca0e19050611e186020830183615610565b611e286040840160208501615a80565b6040805162ffffff909316835261ffff909116602083015201610c24565b6060816001600160401b03811115611e6057611e60615903565b604051908082528060200260200182016040528015611e9357816020015b6060815260200190600190039081611e7e5790505b50905060005b82811015611f3357611f0330858584818110611eb757611eb7615aeb565b9050602002810190611ec99190615b01565b8080601f01602080910402602001604051908101604052809392919081815260200183838082843760009201919091525061395c92505050565b828281518110611f1557611f15615aeb565b60200260200101819052508080611f2b90615b64565b915050611e99565b5092915050565b611f5e60405180606001604052806000815260200160008152602001600081525090565b506001600160a01b03808316600090815260026020818152604080842094861684526001948501825292839020835160608101855281548152948101549185019190915201549082015292915050565b600260005403611fd05760405162461bcd60e51b8152600401610bd09061585c565b600260005533611fdf81613367565b6001600160a01b038116600090815260026020526040808220905163218be9d560e11b815260048101919091526003602482015273f7938AadBB45D27a42676145f423741405D541d290634317d3aa90604401602060405180830381865af415801561204f573d6000803e3d6000fd5b505050506040513d601f19601f820116820180604052508101906120739190615893565b905080156120bf57816001600160a01b03167f02637aab023322fc124131f556858082be212382f69cdec79efddcbfbc5c0205826040516120b691815260200190565b60405180910390a25b7f00000000000000000000000000000000000000000000000000000000000000006001600160a01b03166121fc5782156121335760405162461bcd60e51b815260206004820152601560248201527450455f443a20616d6f756e74206e6f74207a65726f60581b6044820152606401610bd0565b6001600160a01b038216600090815260026020526040908190209051624d1ed560e11b8152600481019190915234602482015273f7938AadBB45D27a42676145f423741405D541d290629a3daa9060440160006040518083038186803b15801561219c57600080fd5b505af41580156121b0573d6000803e3d6000fd5b50505050816001600160a01b03167f2da466a7b24304f47e87fa2e1e5a81b9831ce54fec19055ce277ca2f39ba42c4346040516121ef91815260200190565b60405180910390a261235c565b34156122455760405162461bcd60e51b815260206004820152601860248201527750455f443a206d73672e76616c7565206e6f74207a65726f60401b6044820152606401610bd0565b6001600160a01b0382811660008181526002602090815260409182902082516060810184527f0000000000000000000000000000000000000000000000000000000000000000861681529182018881528284019485529251631faeb67360e31b81526004810191909152905184166024820152905160448201529051909116606482015273f7938AadBB45D27a42676145f423741405D541d29063fd75b3989060840160006040518083038186803b15801561230057600080fd5b505af4158015612314573d6000803e3d6000fd5b50505050816001600160a01b03167f2da466a7b24304f47e87fa2e1e5a81b9831ce54fec19055ce277ca2f39ba42c48460405161235391815260200190565b60405180910390a25b5050600160005550565b61236e613263565b6002600054036123905760405162461bcd60e51b8152600401610bd09061585c565b600260005560075462ffffff62010000909104811690821611156123f65760405162461bcd60e51b815260206004820152601b60248201527f50455f534d523a20626967676572207468616e20696d526174696f00000000006044820152606401610bd0565b60008162ffffff161161243a5760405162461bcd60e51b815260206004820152600c60248201526b50455f534d523a207a65726f60a01b6044820152606401610bd0565b6007805467ffffff00000000001916600160281b62ffffff8416908102919091179091556040519081527ffbd0bf17b9833a130f5baeccbfc586acefc75be8ad5bb114f448e412adc4c05b90602001610c24565b6001600160a01b0382166000908152600260205260408082209051632691409160e01b815273fd5CD7D2c8277B855c87D05aCC3343DFFA9CDE1f916326914091916113bb919086906004016159ee565b60006124f06040830160208401615453565b6124f9816132ff565b60006125086020850185615453565b9050600061251c6060860160408701615453565b90506125ed60026000846001600160a01b03166001600160a01b031681526020019081526020016000206040518061010001604052808860200160208101906125659190615453565b6001600160a01b0316815260200161258360808a0160608b016158ac565b1515815260200161259a60a08a0160808b016158ac565b1515815260a0808a0135602083015260c08a0135604083015260075462ffffff600160281b820481166060850152600160401b9091041660808301526001600160a01b0387811690871614910152613981565b95945050505050565b6001600160a01b03811660009081526002602090815260409182902060040180548351818402810184019094528084526060939283018282801561266357602002820191906000526020600020905b81546001600160a01b03168152600190910190602001808311612645575b50505050509050919050565b612677613263565b6002600054036126995760405162461bcd60e51b8152600401610bd09061585c565b600260005561271062ffffff821611156126ea5760405162461bcd60e51b815260206004820152601260248201527150455f535046523a20746f6f206c6172676560701b6044820152606401610bd0565b6007805462ffffff60401b1916600160401b62ffffff8416908102919091179091556040519081527f68c41b7a5c12c4d9cbb99ec284bf647922a75f379a90694e3ad65574f4ff944d90602001610c24565b60008060006002600054036127635760405162461bcd60e51b8152600401610bd09061585c565b600260005560a0840135612776816132bd565b6127836020860186615453565b61278c816132ff565b3361279681613367565b6001600160a01b0381166000908152600260209081526040808320815160e081019092526128239290919081906127cf908d018d615453565b6001600160a01b0316815260208c810135908201526040808d0135908201526060808d0135908201526080808d01359082015260075462ffffff6201000082041660a083015260ff1660c090910152613a72565b6001600160a01b038316600090815260026020908152604082209293509091600101908290612854908c018c615453565b6001600160a01b03168152602080820192909252604001600020915061287c908a018a615453565b82516020808501516040808701516001870154600288015483519687529486019390935290840152606083015260808201526001600160a01b03918216918516907fea3191ffbe2f62bfd724ee8d971b15ff9b7994e3a9169dc4c60443be3e4a43c49060a00160405180910390a35080516020820151604090920151600160005590999198509650945050505050565b60006002600054036129305760405162461bcd60e51b8152600401610bd09061585c565b600260005560c0820135612943816132bd565b6129536040840160208501615453565b61295c816132ff565b61296c611b406020860186615453565b600061297785613de7565b90508061010001516060015164ffffffffff16600014612b9a5760006006816129a66040890160208a01615453565b6001600160a01b03166001600160a01b0316815260200190815260200160002060008760400160208101906129db91906158ac565b15158152602080820192909252604090810160009081206101008601516060015164ffffffffff1682528352818120546001600160a01b031680825260028452828220909450909273fa559987167994706EeF52E959e7C2d5aB79911492635a9813c69291612a4e918c01908c01615453565b612a5e60608c0160408d016158ac565b6007546101008901516040805160e088901b6001600160e01b031916815260048101969096526001600160a01b039094166024860152911515604485015260ff16606484015280516084840152602081015160a48401529081015160c48301526060015164ffffffffff1660e482015261010401602060405180830381865af4158015612aef573d6000803e3d6000fd5b505050506040513d601f19601f82011682018060405250810190612b139190615893565b9050612b256040880160208901615453565b6001600160a01b039081169083167f6a44f7a15d600604cd07ab787ae45c22908a25bcc8a24e951f297a4ff4885ccc612b6460608b0160408c016158ac565b6101008701516020808201516040928301518351941515855291840152908201526060810185905260800160405180910390a350505b6000612bac6040870160208801615453565b6001600160a01b0316639482de1a6040518163ffffffff1660e01b8152600401602060405180830381865afa158015612be9573d6000803e3d6000fd5b505050506040513d601f19601f82011682018060405250810190612c0d9190615893565b90506000612c216040880160208901615453565b6001600160a01b0316638ee8fe5d6040518163ffffffff1660e01b8152600401602060405180830381865afa158015612c5e573d6000803e3d6000fd5b505050506040513d601f19601f82011682018060405250810190612c829190615893565b90508260e0015115612d605733612c9f6040890160208a01615453565b6001600160a01b0316612cb560208a018a615453565b6001600160a01b03167f7c3978559b662b8adf839d43cce2ec6ab7db3fdc995575e4576acc9e0628985d866000015187602001518860400151896060015189898c608001518d60a001518e60c00151604051612d5399989796959493929190988952602089019790975260408801959095526060870193909352608086019190915260a085015260c084015260e08301526101008201526101200190565b60405180910390a4612df6565b612d706040880160208901615453565b6001600160a01b0316612d866020890189615453565b84516020808701516040808901516060808b0151835196875294860193909352908401528201526080810185905260a081018490526001600160a01b0391909116907fe386a40c070a1424ae709b98c27e64993228f777c6294ef7149cf0ee42ef46e89060c00160405180910390a35b612e0660608801604089016158ac565b1515612e186080890160608a016158ac565b151514612e2f578251612e2a90613f5d565b612e3c565b612e3c8360200151613f5d565b6001600055979650505050505050565b6000600260005403612e705760405162461bcd60e51b8152600401610bd09061585c565b60026000556080820135612e83816132bd565b612e906020840184615453565b612e99816132ff565b33612ea381613367565b6001600160a01b038116600090815260026020908152604091829020825160e0810190935273fa559987167994706EeF52E959e7C2d5aB7991149263d34e48d4928190612ef2908b018b615453565b6001600160a01b031681526020018960400135815260200189606001358152602001896020016020810190612f2791906158ac565b1515815260075462ffffff620100008204811660208085019190915260ff808416604080870191909152610100909404811660609586015283516001600160e01b031960e08a901b168152600481019790975285516001600160a01b031660248801529085015160448701529184015160648601529183015115156084850152608083015190911660a484015260a0820151811660c484015260c0909101511660e482015261010401602060405180830381865af4158015612fed573d6000803e3d6000fd5b505050506040513d601f19601f820116820180604052508101906130119190615b7d565b935080600660006130256020890189615453565b6001600160a01b03166001600160a01b03168152602001908152602001600020600087602001602081019061305a91906158ac565b151581526020808201929092526040908101600090812064ffffffffff8916825283522080546001600160a01b0319166001600160a01b0393909316929092179091556130a990860186615453565b6001600160a01b039081169082167f22c125447e6a06158aefb2637c0f7d1a544b0bb331e126582be4a4e70d3e6c886130e86040890160208a016158ac565b6040805191151582528981013560208301526060808b01358383015264ffffffffff8a1690830152519081900360800190a35050600160005550919050565b6001600160a01b0381166000908152600260205260408082206007549151634d3a1f3d60e11b815260048101919091526201000090910462ffffff16602482015273fd5CD7D2c8277B855c87D05aCC3343DFFA9CDE1f90639a743e7a90604401611a9e565b613194613263565b6001600160a01b0381166131f95760405162461bcd60e51b815260206004820152602660248201527f4f776e61626c653a206e6577206f776e657220697320746865207a65726f206160448201526564647265737360d01b6064820152608401610bd0565b61320281613541565b50565b6001600160a01b03811660009081526002602052604080822090516210164360e11b8152600481019190915273fd5CD7D2c8277B855c87D05aCC3343DFFA9CDE1f9062202c8690602401611a9e565b6001600160a01b03163b151590565b6001546001600160a01b0316331461177c5760405162461bcd60e51b815260206004820181905260248201527f4f776e61626c653a2063616c6c6572206973206e6f7420746865206f776e65726044820152606401610bd0565b804211156132025760405162461bcd60e51b815260206004820152600f60248201526e50455f43443a20746f6f206c61746560881b6044820152606401610bd0565b6001600160a01b03811660009081526009602052604090205460ff166132025760405162461bcd60e51b815260206004820152601a60248201527f50455f434d413a206d61726b6574206e6f7420616c6c6f7765640000000000006044820152606401610bd0565b6001600160a01b038116600090815260026020526040908190206007549151635c02a9e960e01b8152600481019190915260ff909116602482015273fa559987167994706EeF52E959e7C2d5aB79911490635c02a9e99060440160006040518083038186803b1580156133d957600080fd5b505af41580156133ed573d6000803e3d6000fd5b5050505050565b604051633c7e525f60e01b81526004810188905262ffffff84166024820152600090819073fd5CD7D2c8277B855c87D05aCC3343DFFA9CDE1f90633c7e525f90604401602060405180830381865af4158015613454573d6000803e3d6000fd5b505050506040513d601f19601f8201168201806040525081019061347891906158e6565b15905082158015613487575080155b15613496576000915050613536565b8362ffffff166000036135245760405163e8fa204f60e01b81528715156004820152861515602482015281151560448201526001600160a01b0389169063e8fa204f90606401602060405180830381865afa1580156134f9573d6000803e3d6000fd5b505050506040513d601f19601f8201168201806040525081019061351d9190615893565b9150613534565b6135318888888785613f86565b91505b505b979650505050505050565b600180546001600160a01b038381166001600160a01b0319831681179093556040519116919082907f8be0079c531659141344cd1fd0a4f28419497f9722a3daafe3b4186f6b6457e090600090a35050565b6135ce6040518060c0016040528060008152602001600081526020016000815260200160008152602001600081526020016000151581525090565b6080820151604051633c7e525f60e01b81526004810185905262ffffff909116602482015273fd5CD7D2c8277B855c87D05aCC3343DFFA9CDE1f90633c7e525f90604401602060405180830381865af415801561362f573d6000803e3d6000fd5b505050506040513d601f19601f8201168201806040525081019061365391906158e6565b1560a082015260c08201516136a6578060a001516136a65760405162461bcd60e51b815260206004820152601060248201526f4d4c5f524c3a20656e6f756768206d6d60801b6044820152606401610bd0565b81516001600160a01b039081166000908152600185810160209081526040808420875192880151938101546002820154925163933c797960e01b81526004810195909552602485015260448401919091529293169063933c7979906064016040805180830381865afa158015613720573d6000803e3d6000fd5b505050506040513d601f19601f820116820180604052508101906137449190615b9a565b84604001856060018281525082815250505083600001516001600160a01b0316638ee8fe5d6040518163ffffffff1660e01b8152600401602060405180830381865afa158015613798573d6000803e3d6000fd5b505050506040513d601f19601f820116820180604052508101906137bc9190615893565b84516020860151604051639c8f9f2360e01b815260048101919091529193506001600160a01b03169150639c8f9f239060240160408051808303816000875af115801561380d573d6000803e3d6000fd5b505050506040513d601f19601f820116820180604052508101906138319190615b9a565b60208401528083526040840151111561385c5760405162461bcd60e51b8152600401610bd090615bbe565b8260600151826020015110156138845760405162461bcd60e51b8152600401610bd090615bbe565b61389f613894836000015161404b565b6040840151906140b9565b604083015260208201516138c1906138b69061404b565b6060840151906140b9565b606083015282516001600160a01b0316600090815260018501602090815260409091209084015181546138f3916140c5565b905560006139136139038361404b565b604085015190600160601b6140d1565b61391c90615bf5565b905061394e85856000015185604001518461394486896060015161417590919063ffffffff16565b8960a00151614181565b608084015250909392505050565b60606113648383604051806060016040528060278152602001615e6260279139614272565b60008061399e8484600001518560e001518660a00151600161434d565b90508260c0015162ffffff16600003613a3957825160208401516040808601516060870151915162de853760e31b81526001600160a01b03909416936306f429b8936139f1939092918790600401615c11565b602060405180830381865afa158015613a0e573d6000803e3d6000fd5b505050506040513d601f19601f82011682018060405250810190613a329190615893565b9150613a5f565b613a5b83600001518460200151856040015186606001518760c0015186614570565b5091505b611f33836040015183856080015161477e565b613a9660405180606001604052806000815260200160008152602001600081525090565b81516001600160a01b039081166000908152600185016020526040808220855182516379144ba960e11b815283519295859492169263f2289752926004808401939192918290030181865afa158015613af3573d6000803e3d6000fd5b505050506040513d601f19601f82011682018060405250810190613b179190615b9a565b865160208801516040808a01519051634e6a20ed60e11b8152600481019290925260248201529294509092506001600160a01b031690639cd441da906044016060604051808303816000875af1158015613b75573d6000803e3d6000fd5b505050506040513d601f19601f82011682018060405250810190613b999190615c30565b6040870152602086015280855260608601511115613bf95760405162461bcd60e51b815260206004820152601c60248201527f4d4c5f414c3a20746f6f20736d616c6c206f75747075742062617365000000006044820152606401610bd0565b846080015184602001511015613c515760405162461bcd60e51b815260206004820152601d60248201527f4d4c5f414c3a20746f6f20736d616c6c206f75747075742071756f74650000006044820152606401610bd0565b82546040850151613c63908290614829565b8455604085015185516001860154613c7f928492909187614835565b8460010181905550613ca08186604001518760200151876002015486614835565b6002850155855160c087015160405163724055e760e01b815273fd5CD7D2c8277B855c87D05aCC3343DFFA9CDE1f9263724055e792613ce5928c929190600401615c5e565b60006040518083038186803b158015613cfd57600080fd5b505af4158015613d11573d6000803e3d6000fd5b5050505060a0860151604051634d3a1f3d60e11b81526004810189905262ffffff909116602482015273fd5CD7D2c8277B855c87D05aCC3343DFFA9CDE1f90639a743e7a90604401602060405180830381865af4158015613d76573d6000803e3d6000fd5b505050506040513d601f19601f82011682018060405250810190613d9a91906158e6565b613ddd5760405162461bcd60e51b81526020600482015260146024820152734d4c5f414c3a206e6f7420656e6f75676820696d60601b6044820152606401610bd0565b5050505092915050565b613def615399565b610cc260026000613e036020860186615453565b6001600160a01b03166001600160a01b0316815260200190815260200160002060026000613e2e3390565b6001600160a01b03166001600160a01b0316815260200190815260200160002060030160036005604051806101600160405280886020016020810190613e749190615453565b6001600160a01b03168152602001613e9260608a0160408b016158ac565b15158152602001613ea960808a0160608b016158ac565b151581526080808a0135602083015260a0808b0135604084015260075462ffffff600160281b82048116606086015262010000820481169385019390935260ff811691840191909152600160401b90041660c082015260e001613f093390565b6001600160a01b0316613f1f60208b018b615453565b6001600160a01b03161481526040805180820190915260085462ffffff811682526301000000900461ffff166020808301919091529091015261487e565b600080821215613f7d57613f78613f7383614aea565b614b48565b610cc2565b610cc282614b48565b60405163e8fa204f60e01b81528415156004820152831515602482015281151560448201526000906001600160a01b0387169063e8fa204f90606401602060405180830381865afa158015613fdf573d6000803e3d6000fd5b505050506040513d601f19601f820116820180604052508101906140039190615893565b9050831561402e57846125ed57614027614020620f424085614b9a565b8290614c00565b90506125ed565b84156125ed57614027614044620f424085614b9a565b8290614c15565b60006001600160ff1b038211156140b55760405162461bcd60e51b815260206004820152602860248201527f53616665436173743a2076616c756520646f65736e27742066697420696e2061604482015267371034b73a191a9b60c11b6064820152608401610bd0565b5090565b60006113648284615c80565b60006113648284615ca8565b600080600085126140e257846140eb565b6140eb85614aea565b905060008085126140fc5784614105565b61410585614aea565b9050600080871280156141185750600086135b8061412e575060008713801561412e5750600086125b61413957600061413c565b60015b9050600061414b848488614c26565b9050816141605761415b8161404b565b614169565b61416981614cd5565b98975050505050505050565b60006113648284615cbb565b6001600160a01b03851660009081526020878152604080832081518083019092528054825260010154918101919091526141bd90868686614ce9565b6001600160a01b038816600090815260208a815260409091208351815592015160019092019190915560038801549091506141f890826140b9565b600388015560405163724055e760e01b815273fd5CD7D2c8277B855c87D05aCC3343DFFA9CDE1f9063724055e790614238908a908a908790600401615c5e565b60006040518083038186803b15801561425057600080fd5b505af4158015614264573d6000803e3d6000fd5b505050509695505050505050565b606061427d84613254565b6142d85760405162461bcd60e51b815260206004820152602660248201527f416464726573733a2064656c65676174652063616c6c20746f206e6f6e2d636f6044820152651b9d1c9858dd60d21b6064820152608401610bd0565b600080856001600160a01b0316856040516142f39190615cdb565b600060405180830381855af49150503d806000811461432e576040519150601f19603f3d011682016040523d82523d6000602084013e614333565b606091505b5091509150614343828286614e89565b9695505050505050565b604051633c7e525f60e01b81526004810186905262ffffff8316602482015260009073fd5CD7D2c8277B855c87D05aCC3343DFFA9CDE1f90633c7e525f90604401602060405180830381865af41580156143ab573d6000803e3d6000fd5b505050506040513d601f19601f820116820180604052508101906143cf91906158e6565b1590508361441757806144175760405162461bcd60e51b815260206004820152601060248201526f544c5f56543a20656e6f756768206d6d60801b6044820152606401610bd0565b811580156144225750805b156125ed576001600160a01b03851660009081526001870160205260409020541561448f5760405162461bcd60e51b815260206004820181905260248201527f544c5f56543a206e6f206d616b6572207768656e206c69717569646174696f6e6044820152606401610bd0565b6001600160a01b038516600090815260028701602052604090205464ffffffffff16156144fe5760405162461bcd60e51b815260206004820152601e60248201527f544c5f56543a206e6f2061736b207768656e206c69717569646174696f6e00006044820152606401610bd0565b6001600160a01b038516600090815260028088016020526040909120015464ffffffffff16156125ed5760405162461bcd60e51b815260206004820152601e60248201527f544c5f56543a206e6f20626964207768656e206c69717569646174696f6e00006044820152606401610bd0565b60008085156146985786156146105760405162de853760e31b81526001600160a01b038916906306f429b8906145b0908a908a908a908990600401615c11565b602060405180830381865afa1580156145cd573d6000803e3d6000fd5b505050506040513d601f19601f820116820180604052508101906145f19190615893565b91506145fd8285614c15565b905061460982826140c5565b9150614773565b61461a8585614c15565b90506001600160a01b0388166306f429b8888861463789866140c5565b876040518563ffffffff1660e01b81526004016146579493929190615c11565b602060405180830381865afa158015614674573d6000803e3d6000fd5b505050506040513d601f19601f820116820180604052508101906146099190615893565b86156146dc576146bf856146b96146b2620f424088614b9a565b8890614c00565b906140c5565b90506001600160a01b0388166306f429b888886146378986614829565b60405162de853760e31b81526000906001600160a01b038a16906306f429b890614710908b908b908b908a90600401615c11565b602060405180830381865afa15801561472d573d6000803e3d6000fd5b505050506040513d601f19601f820116820180604052508101906147519190615893565b9050614763614020620f424087614b9a565b925061476f83826140c5565b9150505b965096945050505050565b82156147d957808210156147d45760405162461bcd60e51b815260206004820181905260248201527f544c5f56533a20746f6f20736d616c6c206f70706f7369746520616d6f756e746044820152606401610bd0565b505050565b808211156147d45760405162461bcd60e51b815260206004820181905260248201527f544c5f56533a20746f6f206c61726765206f70706f7369746520616d6f756e746044820152606401610bd0565b60006113648284615cf7565b6000806148428787614829565b905061485d61485686600160601b89614c26565b8490614829565b925061353661486d848884614c26565b614878868a85614c26565b90614829565b614886615399565b6148a18683600001518461012001518560a00151600061434d565b151560e080830191825283516001600160a01b03908116600090815260208a8152604091829020548251610100808201855289519095168152828901511515928101929092528288015115159282019290925260608088015190820152608080880151908201528684015160ff1660a08201529186015162ffffff1660c0830152925115159181019190915261493a9088908690614ec2565b610100870152606086015260408501526020840152808352600090819061496090614ffd565b8451614976906149719086906140b9565b614ffd565b6149809190615d0a565b1390508260e0015115614a115780156149db5760405162461bcd60e51b815260206004820152601f60248201527f544c5f4f503a206e6f206f70656e207768656e206c69717569646174696f6e006044820152606401610bd0565b614a018860030188888760a001518861014001516149fc8960200151613f5d565b615025565b60c086015260a085015260808401525b8015614adf5760c0840151604051634d3a1f3d60e11b8152600481018a905262ffffff909116602482015273fd5CD7D2c8277B855c87D05aCC3343DFFA9CDE1f90639a743e7a90604401602060405180830381865af4158015614a78573d6000803e3d6000fd5b505050506040513d601f19601f82011682018060405250810190614a9c91906158e6565b614adf5760405162461bcd60e51b8152602060048201526014602482015273544c5f4f503a206e6f7420656e6f75676820696d60601b6044820152606401610bd0565b505095945050505050565b6000600160ff1b8213614b3f5760405162461bcd60e51b815260206004820152601c60248201527f506572704d6174683a20696e76657273696f6e206f766572666c6f77000000006044820152606401610bd0565b610cc282615bf5565b6000808212156140b55760405162461bcd60e51b815260206004820181905260248201527f53616665436173743a2076616c7565206d75737420626520706f7369746976656044820152606401610bd0565b60008262ffffff168262ffffff161115614bf65760405162461bcd60e51b815260206004820152601e60248201527f506572704d6174683a207375627472616374696f6e206f766572666c6f7700006044820152606401610bd0565b6113648284615d8f565b600061136483620f42408462ffffff16614c26565b6000611364838362ffffff16620f42405b6000808060001985870985870292508281108382030391505080600003614c6057838281614c5657614c56615dab565b0492505050611364565b808411614c6c57600080fd5b60008486880960026001871981018816978890046003810283188082028403028082028403028082028403028082028403028082028403029081029092039091026000889003889004909101858311909403939093029303949094049190911702949350505050565b6000614ce08261404b565b610cc290615bf5565b6040805180820190915260008082526020820152600084151580614d0c57508315155b15614de557614d1a84614ffd565b614d2386614ffd565b614d2d9190615d0a565b60001914614d4057508490506000614e80565b614d4985614ffd565b8651614d5490614ffd565b614d5e9190615d0a565b19614de5576000614d6e86613f5d565b90506000614d7f8860000151613f5d565b9050808211614db6576000614da2614d968461404b565b60208b015190846140d1565b9050614dae87826140b9565b935050614de2565b6000614dcc614dc48361404b565b8890856140d1565b60208a0151909150614dde90826140b9565b9350505b50505b614def81846140b9565b8651909150600090614e0190876140b9565b90506000614e3083614e2a87614e248a8d602001516140b990919063ffffffff16565b906140b9565b90614175565b905081158015614e3e575080155b80614e655750614e4d81614ffd565b614e5683614ffd565b614e609190615d0a565b600019145b614e7757876000935093505050614e80565b90835260208301525b94509492505050565b60608315614e98575081611364565b825115614ea85782518084602001fd5b8160405162461bcd60e51b8152600401610bd09190615dc1565b600080600080614ed06153ec565b60c086015160009062ffffff1615614f1557614f0988886000015189602001518a604001518b606001518c60c001518d60e001516150ba565b90945092509050614fa5565b865160208801516040808a015160608b015160e08c015192516380796d5560e01b81526001600160a01b03909516946380796d5594614f5a9490939291600401615c11565b6080604051808303816000875af1158015614f79573d6000803e3d6000fd5b505050506040513d601f19601f82011682018060405250810190614f9d9190615dd4565b805190925090505b614fb8876040015182896080015161477e565b614fd0876020015188604001518960600151846152f3565b8096508197505050614fef898860000151888860008c60a00151614181565b935050939792965093509350565b600080821361501d5760008212615015576000610cc2565b600019610cc2565b600192915050565b600080806150338487614c15565b8551909350615043908490614c15565b915061504f83836140c5565b9050615068876001015483876020015161ffff16615359565b6001890191909155915061508661507e8461404b565b8a5490614175565b895561509c6150948361404b565b8954906140b9565b885586546150aa9082614829565b9096559097909650939450505050565b6000806150c56153ec565b86156151fe578715615169576040516380796d5560e01b81526001600160a01b038a16906380796d5590615103908b908b908b908a90600401615c11565b6080604051808303816000875af1158015615122573d6000803e3d6000fd5b505050506040513d601f19601f820116820180604052508101906151469190615dd4565b8051935090506151568386614c15565b915061516283836140c5565b92506152d6565b6151738686614c15565b91506001600160a01b0389166380796d5589896151908a876140c5565b886040518563ffffffff1660e01b81526004016151b09493929190615c11565b6080604051808303816000875af11580156151cf573d6000803e3d6000fd5b505050506040513d601f19601f820116820180604052508101906151f39190615dd4565b8051935090506152d6565b871561523c5761521f866146b9615218620f424089614b9a565b8990614c00565b91506001600160a01b0389166380796d5589896151908a87614829565b6040516380796d5560e01b81526001600160a01b038a16906380796d559061526e908b908b908b908a90600401615c11565b6080604051808303816000875af115801561528d573d6000803e3d6000fd5b505050506040513d601f19601f820116820180604052508101906152b19190615dd4565b80519091506152c6614020620f424088614b9a565b93506152d284826140c5565b9250505b89546152e29083614829565b909955909890979650945050505050565b600080841561532f57851561531d5761530b84614cd5565b6153148461404b565b91509150614e80565b6153268361404b565b61531485614cd5565b85156153475761533e83614cd5565b6153148561404b565b6153508461404b565b61531484614cd5565b6000806153668585614829565b94506153778562ffffff851661538d565b905061538385826140c5565b9150935093915050565b60006113648284615e3f565b604051806101200160405280600081526020016000815260200160008152602001600081526020016000815260200160008152602001600081526020016000151581526020016153e76153ec565b905290565b6040518060800160405280600081526020016000815260200160008152602001600064ffffffffff1681525090565b60006020828403121561542d57600080fd5b813560ff8116811461136457600080fd5b6001600160a01b038116811461320257600080fd5b60006020828403121561546557600080fd5b81356113648161543e565b60006080828403121561548257600080fd5b50919050565b600060a0828403121561548257600080fd5b600060a082840312156154ac57600080fd5b6113648383615488565b6000602082840312156154c857600080fd5b5035919050565b600080604083850312156154e257600080fd5b82356154ed8161543e565b915060208301356154fd8161543e565b809150509250929050565b801515811461320257600080fd5b64ffffffffff8116811461320257600080fd5b60008060006060848603121561553e57600080fd5b83356155498161543e565b9250602084013561555981615508565b9150604084013561556981615516565b809150509250925092565b60008060006060848603121561558957600080fd5b83356155948161543e565b925060208401356155a48161543e565b9150604084013561556981615508565b6020808252825182820181905260009190848201906040850190845b818110156155f357835164ffffffffff16835292840192918401916001016155d0565b50909695505050505050565b62ffffff8116811461320257600080fd5b60006020828403121561562257600080fd5b8135611364816155ff565b6000806040838503121561564057600080fd5b823561564b8161543e565b915060208301356154fd81615508565b600060c0828403121561548257600080fd5b600060c0828403121561567f57600080fd5b611364838361565b565b60006040828403121561548257600080fd5b600080602083850312156156ae57600080fd5b82356001600160401b03808211156156c557600080fd5b818501915085601f8301126156d957600080fd5b8135818111156156e857600080fd5b8660208260051b85010111156156fd57600080fd5b60209290920196919550909350505050565b60005b8381101561572a578181015183820152602001615712565b50506000910152565b6000815180845261574b81602086016020860161570f565b601f01601f19169290920160200192915050565b6000602080830181845280855180835260408601915060408160051b870101925083870160005b828110156157b457603f198886030184526157a2858351615733565b94509285019290850190600101615786565b5092979650505050505050565b600060e0828403121561548257600080fd5b600060e082840312156157e557600080fd5b61136483836157c1565b6020808252825182820181905260009190848201906040850190845b818110156155f35783516001600160a01b03168352928401929184019160010161580b565b6000806040838503121561584357600080fd5b823561584e8161543e565b946020939093013593505050565b6020808252601f908201527f5265656e7472616e637947756172643a207265656e7472616e742063616c6c00604082015260600190565b6000602082840312156158a557600080fd5b5051919050565b6000602082840312156158be57600080fd5b813561136481615508565b6000602082840312156158db57600080fd5b813561136481615516565b6000602082840312156158f857600080fd5b815161136481615508565b634e487b7160e01b600052604160045260246000fd5b604051601f8201601f191681016001600160401b038111828210171561594157615941615903565b604052919050565b6000602080838503121561595c57600080fd5b82516001600160401b038082111561597357600080fd5b818501915085601f83011261598757600080fd5b81518181111561599957615999615903565b8060051b91506159aa848301615919565b81815291830184019184810190888411156159c457600080fd5b938501935b8385101561416957845192506159de83615516565b82825293850193908501906159c9565b9182526001600160a01b0316602082015260400190565b600060408284031215615a1757600080fd5b604051604081018181106001600160401b0382111715615a3957615a39615903565b604052825181526020928301519281019290925250919050565b600060208284031215615a6557600080fd5b81516113648161543e565b61ffff8116811461320257600080fd5b600060208284031215615a9257600080fd5b813561136481615a70565b8135615aa8816155ff565b62ffffff8116905081548162ffffff1982161783556020840135615acb81615a70565b64ffff0000008160181b168364ffffffffff198416171784555050505050565b634e487b7160e01b600052603260045260246000fd5b6000808335601e19843603018112615b1857600080fd5b8301803591506001600160401b03821115615b3257600080fd5b602001915036819003821315615b4757600080fd5b9250929050565b634e487b7160e01b600052601160045260246000fd5b600060018201615b7657615b76615b4e565b5060010190565b600060208284031215615b8f57600080fd5b815161136481615516565b60008060408385031215615bad57600080fd5b505080516020909101519092909150565b6020808252601c908201527f4d4c5f524c3a20746f6f20736d616c6c206f7574707574206261736500000000604082015260600190565b6000600160ff1b8201615c0a57615c0a615b4e565b5060000390565b9315158452911515602084015260408301521515606082015260800190565b600080600060608486031215615c4557600080fd5b8351925060208401519150604084015190509250925092565b9283526001600160a01b0391909116602083015260ff16604082015260600190565b8082018281126000831280158216821582161715615ca057615ca0615b4e565b505092915050565b81810381811115610cc257610cc2615b4e565b8181036000831280158383131683831282161715611f3357611f33615b4e565b60008251615ced81846020870161570f565b9190910192915050565b80820180821115610cc257610cc2615b4e565b60006001600160ff1b0381841382841380821686840486111615615d3057615d30615b4e565b600160ff1b6000871282811687830589121615615d4f57615d4f615b4e565b60008712925087820587128484161615615d6b57615d6b615b4e565b87850587128184161615615d8157615d81615b4e565b505050929093029392505050565b62ffffff828116828216039080821115611f3357611f33615b4e565b634e487b7160e01b600052601260045260246000fd5b6020815260006113646020830184615733565b600060808284031215615de657600080fd5b604051608081018181106001600160401b0382111715615e0857615e08615903565b80604052508251815260208301516020820152604083015160408201526060830151615e3381615516565b60608201529392505050565b600082615e5c57634e487b7160e01b600052601260045260246000fd5b50049056fe416464726573733a206c6f772d6c6576656c2064656c65676174652063616c6c206661696c6564a264697066735822122008213520beea3475095e8b329a716bbca9a8cc60269e7484e270d8995ef19df464736f6c63430008100033",
  "deployedBytecode": "0x6080604052600436106102bf5760003560e01c80639317b19311610170578063ca5b721e116100cc578063e671be1711610085578063e671be1714610aa6578063e72e436314610ac6578063e8c41ef914610af6578063ec6cca8414610b2c578063f2fde38b14610b4c578063f652b52714610b6c578063fed4063214610b8657600080fd5b8063ca5b721e146109a4578063cffe8556146109c4578063d11102c5146109e4578063d1ce35e314610a11578063ddad7e9714610a31578063dfe1cb9214610a6b57600080fd5b8063a616c66c11610129578063a616c66c14610892578063ac3732b4146108c7578063ac9650d8146108e7578063b53c512514610914578063b6b55f2514610956578063c66fa8e614610969578063c9ca7b181461098457600080fd5b80639317b193146107a157806393420cf4146107c157806394887af7146107d8578063996fbf941461081f5780639dce9e191461083f5780639f044f311461086f57600080fd5b80633d46396a1161021f57806373f62501116101d857806373f62501146105fa5780637a27d9f61461061a5780637b9e618d1461063d5780637c88490a1461067157806387cad0bf1461069157806388060d8b146106f15780638da5cb5b1461078357600080fd5b80633d46396a146105505780633fd1e2bd146105705780634b4aa735146105855780634ebd6bb4146105a55780636e838bad146105c5578063715018a6146105e557600080fd5b80632e1a7d4d1161027c5780632e1a7d4d146103aa5780632e784343146103ca5780632f60a1511461044e5780632fd99bf41461048457806331e60ddf146104e357806333ff1577146105105780633a9210511461053057600080fd5b8063030ee0cb146102c45780630674fa41146102e65780630729e07a1461031957806318f8c0cd146103395780632703ee851461036a5780632d67669c1461038a575b600080fd5b3480156102d057600080fd5b506102e46102df36600461541b565b610ba6565b005b3480156102f257600080fd5b50610306610301366004615453565b610c34565b6040519081526020015b60405180910390f35b34801561032557600080fd5b506102e4610334366004615470565b610cc8565b34801561034557600080fd5b5060075461035890610100900460ff1681565b60405160ff9091168152602001610310565b34801561037657600080fd5b50610306610385366004615453565b611008565b34801561039657600080fd5b506103066103a536600461549a565b611059565b3480156103b657600080fd5b506102e46103c53660046154b6565b61114c565b3480156103d657600080fd5b506104336103e53660046154cf565b604080518082018252600080825260209182018190526001600160a01b0394851681526002825282812093909416845291825291829020825180840190935280548352600101549082015290565b60408051825181526020928301519281019290925201610310565b34801561045a57600080fd5b506007546104709062010000900462ffffff1681565b60405162ffffff9091168152602001610310565b34801561049057600080fd5b506104cb61049f366004615529565b60066020908152600093845260408085208252928452828420905282529020546001600160a01b031681565b6040516001600160a01b039091168152602001610310565b3480156104ef57600080fd5b506105036104fe366004615574565b6112bb565b60405161031091906155b4565b34801561051c57600080fd5b5061030661052b3660046154cf565b61136b565b34801561053c57600080fd5b5061030661054b366004615453565b6113fc565b34801561055c57600080fd5b506102e461056b3660046154b6565b61144d565b34801561057c57600080fd5b50610358601281565b34801561059157600080fd5b506103066105a0366004615453565b61154c565b3480156105b157600080fd5b506104336105c03660046154cf565b61159d565b3480156105d157600080fd5b506102e46105e0366004615610565b61163e565b3480156105f157600080fd5b506102e461176a565b34801561060657600080fd5b506102e461061536600461541b565b61177e565b34801561062657600080fd5b5060075461047090600160401b900462ffffff1681565b34801561064957600080fd5b506104cb7f000000000000000000000000000000000000000000000000000000000000000081565b34801561067d57600080fd5b5061030661068c3660046154cf565b6117ef565b34801561069d57600080fd5b506106d96106ac366004615453565b60026020908152600091825260409182902082519182019092526003820154815260059091015460ff1682565b604080519251835260ff909116602083015201610310565b3480156106fd57600080fd5b5061075a61070c3660046154cf565b6001600160a01b03918216600090815260026020818152604080842094909516835292810190925291909120805491810154600482015460059092015464ffffffffff938416949390911692565b6040805164ffffffffff9586168152949093166020850152918301526060820152608001610310565b34801561078f57600080fd5b506001546001600160a01b03166104cb565b3480156107ad57600080fd5b506102e46107bc36600461562d565b61183f565b3480156107cd57600080fd5b506005546103069081565b3480156107e457600080fd5b506008546108019062ffffff8116906301000000900461ffff1682565b6040805162ffffff909316835261ffff909116602083015201610310565b34801561082b57600080fd5b5061030661083a3660046154cf565b6119ec565b34801561084b57600080fd5b5061085f61085a366004615453565b611a3c565b6040519015158152602001610310565b34801561087b57600080fd5b5060075461047090600160281b900462ffffff1681565b34801561089e57600080fd5b506108b26108ad36600461566d565b611adf565b60408051928352602083019190915201610310565b3480156108d357600080fd5b506102e46108e2366004615689565b611ce9565b3480156108f357600080fd5b5061090761090236600461569b565b611e46565b604051610310919061575f565b34801561092057600080fd5b5061093461092f3660046154cf565b611f3a565b6040805182518152602080840151908201529181015190820152606001610310565b6102e46109643660046154b6565b611fae565b34801561097557600080fd5b506003546004546108b2919082565b34801561099057600080fd5b506102e461099f366004615610565b612366565b3480156109b057600080fd5b506103066109bf3660046154cf565b61248e565b3480156109d057600080fd5b506103066109df3660046157d3565b6124de565b3480156109f057600080fd5b50610a046109ff366004615453565b6125f6565b60405161031091906157ef565b348015610a1d57600080fd5b506102e4610a2c366004615610565b61266f565b348015610a3d57600080fd5b506102e4610a4c366004615830565b6001600160a01b03909116600090815260026020526040902060030155565b348015610a7757600080fd5b50610a8b610a8636600461566d565b61273c565b60408051938452602084019290925290820152606001610310565b348015610ab257600080fd5b50610306610ac13660046157d3565b61290c565b348015610ad257600080fd5b5061085f610ae1366004615453565b60096020526000908152604090205460ff1681565b348015610b0257600080fd5b50610b16610b1136600461549a565b612e4c565b60405164ffffffffff9091168152602001610310565b348015610b3857600080fd5b5061085f610b47366004615453565b613127565b348015610b5857600080fd5b506102e4610b67366004615453565b61318c565b348015610b7857600080fd5b506007546103589060ff1681565b348015610b9257600080fd5b5061085f610ba1366004615453565b613205565b610bae613263565b600260005403610bd95760405162461bcd60e51b8152600401610bd09061585c565b60405180910390fd5b60026000556007805461ff00191661010060ff8416908102919091179091556040519081527fa1c52f9241e2609b5e6bd1b508707a109021d174cc16f3b16215c457d4bbddfa906020015b60405180910390a1506001600055565b6001600160a01b038116600090815260026020526040808220905163d73fd34160e01b8152600481019190915273__$d5b0dec45940a7a1291c9da6fe7c8bb2e1$__9063d73fd341906024015b602060405180830381865af4158015610c9e573d6000803e3d6000fd5b505050506040513d601f19601f82011682018060405250810190610cc29190615893565b92915050565b600260005403610cea5760405162461bcd60e51b8152600401610bd09061585c565b60026000556060810135610cfd816132bd565b610d0a6020830183615453565b610d13816132ff565b6000600681610d256020870187615453565b6001600160a01b03166001600160a01b031681526020019081526020016000206000856020016020810190610d5a91906158ac565b1515151581526020019081526020016000206000856040016020810190610d8191906158c9565b64ffffffffff1681526020810191909152604001600020546001600160a01b0316905080610deb5760405162461bcd60e51b8152602060048201526017602482015276141157d0d313ce881bdc99195c881b9bdd08195e1a5cdd604a1b6044820152606401610bd0565b610df481613367565b6001600160a01b0381166000908152600260209081526040808320815160c0810190925273__$20e084fd68fd7ab4ec93efaca84ca46fc4$__92637ae9aeb292908190610e43908b018b615453565b6001600160a01b03168152602001610e6160608b0160408c016158c9565b64ffffffffff168152602001896020016020810190610e8091906158ac565b15158152600754600160281b900462ffffff166020820152604001336001600160a01b0390811688821614825260075460ff9081166020938401526040805160e088901b6001600160e01b03191681526004810196909652845190921660248601529183015164ffffffffff16604485015282015115156064840152606082015162ffffff1660848401526080820151151560a484015260a0909101511660c482015260e401602060405180830381865af4158015610f43573d6000803e3d6000fd5b505050506040513d601f19601f82011682018060405250810190610f6791906158e6565b905080610f75576000610f77565b335b6001600160a01b0316610f8d6020870187615453565b6001600160a01b039081169084167f4de6bf440f231c89a9a5151794265a35b57c248083faeae83678c9259a7dd123610fcc60408a0160208b016158ac565b610fdc60608b0160408c016158c9565b60408051921515835264ffffffffff90911660208301520160405180910390a450506001600055505050565b6001600160a01b03811660009081526002602052604080822090516344ae957f60e11b8152600481019190915273__$d5b0dec45940a7a1291c9da6fe7c8bb2e1$__9063895d2afe90602401610c81565b600060098161106e6040850160208601615453565b6001600160a01b0316815260208101919091526040016000205460ff1661109757506000919050565b60006110a66020840184615453565b905060006110ba6060850160408601615453565b905061114460026000846001600160a01b03166001600160a01b031681526020019081526020016000208560200160208101906110f79190615453565b61110760808801606089016158ac565b61111760a0890160808a016158ac565b60075462ffffff600160281b8204811691600160401b9004166001600160a01b03898116908916146133f4565b949350505050565b60026000540361116e5760405162461bcd60e51b8152600401610bd09061585c565b60026000553361117d81613367565b6001600160a01b0381811660008181526002602090815260409182902082516080810184527f00000000000000000000000000000000000000000000000000000000000000008616815291820187815282840194855260075462010000900462ffffff908116606085019081529451638b72b4c760e01b815260048101939093529251861660248301525160448201529251909316606483015251909116608482015273__$2adfba613814486128a81a7b4ccb98752b$__90638b72b4c79060a40160006040518083038186803b15801561125757600080fd5b505af415801561126b573d6000803e3d6000fd5b50505050806001600160a01b03167f7084f5476618d8e60b11ef0d7d3f06914655adb8793e28ff7f018d4c76d505d5836040516112aa91815260200190565b60405180910390a250506001600055565b6001600160a01b0383811660009081526002602052604090819020905163733242af60e11b815260048101919091529083166024820152811515604482015260609073__$20e084fd68fd7ab4ec93efaca84ca46fc4$__9063e664855e90606401600060405180830381865af4158015611339573d6000803e3d6000fd5b505050506040513d6000823e601f3d908101601f191682016040526113619190810190615949565b90505b9392505050565b6001600160a01b0382166000908152600260205260408082209051632de9906b60e11b815273__$d5b0dec45940a7a1291c9da6fe7c8bb2e1$__91635bd320d6916113bb919086906004016159ee565b602060405180830381865af41580156113d8573d6000803e3d6000fd5b505050506040513d601f19601f820116820180604052508101906113649190615893565b6001600160a01b0381166000908152600260205260408082209051631caf045760e31b8152600481019190915273__$d5b0dec45940a7a1291c9da6fe7c8bb2e1$__9063e57822b890602401610c81565b611455613263565b6002600054036114775760405162461bcd60e51b8152600401610bd09061585c565b60026000553361148681613367565b6001600160a01b0381166000908152600260205260409081902090516333a4aff760e21b81526004810191909152600560248201526044810183905273__$2adfba613814486128a81a7b4ccb98752b$__9063ce92bfdc9060640160006040518083038186803b1580156114f957600080fd5b505af415801561150d573d6000803e3d6000fd5b50505050806001600160a01b03167f0880b0e717a57f3b5cbd3fc19396ae3c8cdee5c624c9289477869c38014c8495836040516112aa91815260200190565b6001600160a01b03811660009081526002602052604080822090516367dd27b160e01b8152600481019190915273__$d5b0dec45940a7a1291c9da6fe7c8bb2e1$__906367dd27b190602401610c81565b604080518082018252600080825260208083018290526001600160a01b038616825260029052829020915163195bd60760e31b8152909173__$d5b0dec45940a7a1291c9da6fe7c8bb2e1$__9163cadeb038916115fe9186906004016159ee565b6040805180830381865af415801561161a573d6000803e3d6000fd5b505050506040513d601f19601f820116820180604052508101906113649190615a05565b611646613263565b6002600054036116685760405162461bcd60e51b8152600401610bd09061585c565b6002600055620f424062ffffff8216106116b85760405162461bcd60e51b815260206004820152601160248201527050455f5349523a20746f6f206c6172676560781b6044820152606401610bd0565b60075462ffffff600160281b9091048116908216101561171a5760405162461bcd60e51b815260206004820152601c60248201527f50455f5349523a20736d616c6c6572207468616e206d6d526174696f000000006044820152606401610bd0565b6007805464ffffff000019166201000062ffffff8416908102919091179091556040519081527f04f9c1a24c6543f4b91577d82af28fb7ef6d7b9fe46acd0e5c36ef17073b94e690602001610c24565b611772613263565b61177c6000613541565b565b611786613263565b6002600054036117a85760405162461bcd60e51b8152600401610bd09061585c565b60026000556007805460ff191660ff83169081179091556040519081527fa7b4760b38e2a630f3073fcd5119972cbf81bd50e3761f86534a69661caf811090602001610c24565b6001600160a01b038216600090815260026020526040808220905163af77d70760e01b815273__$d5b0dec45940a7a1291c9da6fe7c8bb2e1$__9163af77d707916113bb919086906004016159ee565b611847613263565b6002600054036118695760405162461bcd60e51b8152600401610bd09061585c565b60026000556118806001600160a01b038316613254565b6118cc5760405162461bcd60e51b815260206004820152601f60248201527f50455f53494d413a206d61726b6574206164647265737320696e76616c6964006044820152606401610bd0565b801561199457306001600160a01b0316826001600160a01b031663d2f7265a6040518163ffffffff1660e01b8152600401602060405180830381865afa15801561191a573d6000803e3d6000fd5b505050506040513d601f19601f8201168201806040525081019061193e9190615a53565b6001600160a01b0316146119945760405162461bcd60e51b815260206004820152601b60248201527f50455f53494d413a20646966666572656e742065786368616e676500000000006044820152606401610bd0565b6001600160a01b038216600081815260096020908152604091829020805460ff191685151590811790915591519182527fd5d4c2e150c76234e0f5d390162d34c5c1e1405df2194cfbd63b12d9521b102791016112aa565b6001600160a01b0382166000908152600260205260408082209051630d832e2160e31b815273__$d5b0dec45940a7a1291c9da6fe7c8bb2e1$__91636c197108916113bb919086906004016159ee565b6001600160a01b0381166000908152600260205260408082206007549151633c7e525f60e01b81526004810191909152600160281b90910462ffffff16602482015273__$d5b0dec45940a7a1291c9da6fe7c8bb2e1$__90633c7e525f906044015b602060405180830381865af4158015611abb573d6000803e3d6000fd5b505050506040513d601f19601f82011682018060405250810190610cc291906158e6565b600080600260005403611b045760405162461bcd60e51b8152600401610bd09061585c565b600260005560a0830135611b17816132bd565b611b276040850160208601615453565b611b30816132ff565b611b45611b406020870187615453565b613367565b6000611c11600282611b5a60208a018a615453565b6001600160a01b03166001600160a01b031681526020019081526020016000206040518060e00160405280896020016020810190611b989190615453565b6001600160a01b0316815260408a81013560208301526060808c0135918301919091526080808c013591830191909152600754600160281b810462ffffff169183019190915260ff1660a082015260c001336001600160a01b0316611c0060208c018c615453565b6001600160a01b0316149052613593565b9050611c236040870160208801615453565b6001600160a01b0316611c396020880188615453565b6001600160a01b03167f6412738c4a8b04483cde318a630d4c268654a7ebd52c9ef2c516e5e8520a4fd88360a00151611c73576000611c75565b335b84516020808701516040808901516060808b01516080808d015185516001600160a01b039a909a168a5296890197909752878401949094528f830135908701529385019390935260a084015260c0830152519081900360e00190a38051602090910151600160005590969095509350505050565b611cf1613263565b600260005403611d135760405162461bcd60e51b8152600401610bd09061585c565b6002600055620f4240611d296020830183615610565b62ffffff1610611d7b5760405162461bcd60e51b815260206004820152601f60248201527f50455f534c52433a20746f6f206c617267652072657761726420726174696f006044820152606401610bd0565b6000611d8d6040830160208401615a80565b61ffff1611611dda5760405162461bcd60e51b815260206004820152601960248201527850455f534c52433a20656d612074696d65206973207a65726f60381b6044820152606401610bd0565b806008611de78282615a9d565b507f1185c4964ca5cd3d88d5dfbc1fb65b84d5533e3354f3b2163e8e1c0f35bca0e19050611e186020830183615610565b611e286040840160208501615a80565b6040805162ffffff909316835261ffff909116602083015201610c24565b6060816001600160401b03811115611e6057611e60615903565b604051908082528060200260200182016040528015611e9357816020015b6060815260200190600190039081611e7e5790505b50905060005b82811015611f3357611f0330858584818110611eb757611eb7615aeb565b9050602002810190611ec99190615b01565b8080601f01602080910402602001604051908101604052809392919081815260200183838082843760009201919091525061395c92505050565b828281518110611f1557611f15615aeb565b60200260200101819052508080611f2b90615b64565b915050611e99565b5092915050565b611f5e60405180606001604052806000815260200160008152602001600081525090565b506001600160a01b03808316600090815260026020818152604080842094861684526001948501825292839020835160608101855281548152948101549185019190915201549082015292915050565b600260005403611fd05760405162461bcd60e51b8152600401610bd09061585c565b600260005533611fdf81613367565b6001600160a01b038116600090815260026020526040808220905163218be9d560e11b815260048101919091526003602482015273__$2adfba613814486128a81a7b4ccb98752b$__90634317d3aa90604401602060405180830381865af415801561204f573d6000803e3d6000fd5b505050506040513d601f19601f820116820180604052508101906120739190615893565b905080156120bf57816001600160a01b03167f02637aab023322fc124131f556858082be212382f69cdec79efddcbfbc5c0205826040516120b691815260200190565b60405180910390a25b7f00000000000000000000000000000000000000000000000000000000000000006001600160a01b03166121fc5782156121335760405162461bcd60e51b815260206004820152601560248201527450455f443a20616d6f756e74206e6f74207a65726f60581b6044820152606401610bd0565b6001600160a01b038216600090815260026020526040908190209051624d1ed560e11b8152600481019190915234602482015273__$2adfba613814486128a81a7b4ccb98752b$__90629a3daa9060440160006040518083038186803b15801561219c57600080fd5b505af41580156121b0573d6000803e3d6000fd5b50505050816001600160a01b03167f2da466a7b24304f47e87fa2e1e5a81b9831ce54fec19055ce277ca2f39ba42c4346040516121ef91815260200190565b60405180910390a261235c565b34156122455760405162461bcd60e51b815260206004820152601860248201527750455f443a206d73672e76616c7565206e6f74207a65726f60401b6044820152606401610bd0565b6001600160a01b0382811660008181526002602090815260409182902082516060810184527f0000000000000000000000000000000000000000000000000000000000000000861681529182018881528284019485529251631faeb67360e31b81526004810191909152905184166024820152905160448201529051909116606482015273__$2adfba613814486128a81a7b4ccb98752b$__9063fd75b3989060840160006040518083038186803b15801561230057600080fd5b505af4158015612314573d6000803e3d6000fd5b50505050816001600160a01b03167f2da466a7b24304f47e87fa2e1e5a81b9831ce54fec19055ce277ca2f39ba42c48460405161235391815260200190565b60405180910390a25b5050600160005550565b61236e613263565b6002600054036123905760405162461bcd60e51b8152600401610bd09061585c565b600260005560075462ffffff62010000909104811690821611156123f65760405162461bcd60e51b815260206004820152601b60248201527f50455f534d523a20626967676572207468616e20696d526174696f00000000006044820152606401610bd0565b60008162ffffff161161243a5760405162461bcd60e51b815260206004820152600c60248201526b50455f534d523a207a65726f60a01b6044820152606401610bd0565b6007805467ffffff00000000001916600160281b62ffffff8416908102919091179091556040519081527ffbd0bf17b9833a130f5baeccbfc586acefc75be8ad5bb114f448e412adc4c05b90602001610c24565b6001600160a01b0382166000908152600260205260408082209051632691409160e01b815273__$d5b0dec45940a7a1291c9da6fe7c8bb2e1$__916326914091916113bb919086906004016159ee565b60006124f06040830160208401615453565b6124f9816132ff565b60006125086020850185615453565b9050600061251c6060860160408701615453565b90506125ed60026000846001600160a01b03166001600160a01b031681526020019081526020016000206040518061010001604052808860200160208101906125659190615453565b6001600160a01b0316815260200161258360808a0160608b016158ac565b1515815260200161259a60a08a0160808b016158ac565b1515815260a0808a0135602083015260c08a0135604083015260075462ffffff600160281b820481166060850152600160401b9091041660808301526001600160a01b0387811690871614910152613981565b95945050505050565b6001600160a01b03811660009081526002602090815260409182902060040180548351818402810184019094528084526060939283018282801561266357602002820191906000526020600020905b81546001600160a01b03168152600190910190602001808311612645575b50505050509050919050565b612677613263565b6002600054036126995760405162461bcd60e51b8152600401610bd09061585c565b600260005561271062ffffff821611156126ea5760405162461bcd60e51b815260206004820152601260248201527150455f535046523a20746f6f206c6172676560701b6044820152606401610bd0565b6007805462ffffff60401b1916600160401b62ffffff8416908102919091179091556040519081527f68c41b7a5c12c4d9cbb99ec284bf647922a75f379a90694e3ad65574f4ff944d90602001610c24565b60008060006002600054036127635760405162461bcd60e51b8152600401610bd09061585c565b600260005560a0840135612776816132bd565b6127836020860186615453565b61278c816132ff565b3361279681613367565b6001600160a01b0381166000908152600260209081526040808320815160e081019092526128239290919081906127cf908d018d615453565b6001600160a01b0316815260208c810135908201526040808d0135908201526060808d0135908201526080808d01359082015260075462ffffff6201000082041660a083015260ff1660c090910152613a72565b6001600160a01b038316600090815260026020908152604082209293509091600101908290612854908c018c615453565b6001600160a01b03168152602080820192909252604001600020915061287c908a018a615453565b82516020808501516040808701516001870154600288015483519687529486019390935290840152606083015260808201526001600160a01b03918216918516907fea3191ffbe2f62bfd724ee8d971b15ff9b7994e3a9169dc4c60443be3e4a43c49060a00160405180910390a35080516020820151604090920151600160005590999198509650945050505050565b60006002600054036129305760405162461bcd60e51b8152600401610bd09061585c565b600260005560c0820135612943816132bd565b6129536040840160208501615453565b61295c816132ff565b61296c611b406020860186615453565b600061297785613de7565b90508061010001516060015164ffffffffff16600014612b9a5760006006816129a66040890160208a01615453565b6001600160a01b03166001600160a01b0316815260200190815260200160002060008760400160208101906129db91906158ac565b15158152602080820192909252604090810160009081206101008601516060015164ffffffffff1682528352818120546001600160a01b031680825260028452828220909450909273__$20e084fd68fd7ab4ec93efaca84ca46fc4$__92635a9813c69291612a4e918c01908c01615453565b612a5e60608c0160408d016158ac565b6007546101008901516040805160e088901b6001600160e01b031916815260048101969096526001600160a01b039094166024860152911515604485015260ff16606484015280516084840152602081015160a48401529081015160c48301526060015164ffffffffff1660e482015261010401602060405180830381865af4158015612aef573d6000803e3d6000fd5b505050506040513d601f19601f82011682018060405250810190612b139190615893565b9050612b256040880160208901615453565b6001600160a01b039081169083167f6a44f7a15d600604cd07ab787ae45c22908a25bcc8a24e951f297a4ff4885ccc612b6460608b0160408c016158ac565b6101008701516020808201516040928301518351941515855291840152908201526060810185905260800160405180910390a350505b6000612bac6040870160208801615453565b6001600160a01b0316639482de1a6040518163ffffffff1660e01b8152600401602060405180830381865afa158015612be9573d6000803e3d6000fd5b505050506040513d601f19601f82011682018060405250810190612c0d9190615893565b90506000612c216040880160208901615453565b6001600160a01b0316638ee8fe5d6040518163ffffffff1660e01b8152600401602060405180830381865afa158015612c5e573d6000803e3d6000fd5b505050506040513d601f19601f82011682018060405250810190612c829190615893565b90508260e0015115612d605733612c9f6040890160208a01615453565b6001600160a01b0316612cb560208a018a615453565b6001600160a01b03167f7c3978559b662b8adf839d43cce2ec6ab7db3fdc995575e4576acc9e0628985d866000015187602001518860400151896060015189898c608001518d60a001518e60c00151604051612d5399989796959493929190988952602089019790975260408801959095526060870193909352608086019190915260a085015260c084015260e08301526101008201526101200190565b60405180910390a4612df6565b612d706040880160208901615453565b6001600160a01b0316612d866020890189615453565b84516020808701516040808901516060808b0151835196875294860193909352908401528201526080810185905260a081018490526001600160a01b0391909116907fe386a40c070a1424ae709b98c27e64993228f777c6294ef7149cf0ee42ef46e89060c00160405180910390a35b612e0660608801604089016158ac565b1515612e186080890160608a016158ac565b151514612e2f578251612e2a90613f5d565b612e3c565b612e3c8360200151613f5d565b6001600055979650505050505050565b6000600260005403612e705760405162461bcd60e51b8152600401610bd09061585c565b60026000556080820135612e83816132bd565b612e906020840184615453565b612e99816132ff565b33612ea381613367565b6001600160a01b038116600090815260026020908152604091829020825160e0810190935273__$20e084fd68fd7ab4ec93efaca84ca46fc4$__9263d34e48d4928190612ef2908b018b615453565b6001600160a01b031681526020018960400135815260200189606001358152602001896020016020810190612f2791906158ac565b1515815260075462ffffff620100008204811660208085019190915260ff808416604080870191909152610100909404811660609586015283516001600160e01b031960e08a901b168152600481019790975285516001600160a01b031660248801529085015160448701529184015160648601529183015115156084850152608083015190911660a484015260a0820151811660c484015260c0909101511660e482015261010401602060405180830381865af4158015612fed573d6000803e3d6000fd5b505050506040513d601f19601f820116820180604052508101906130119190615b7d565b935080600660006130256020890189615453565b6001600160a01b03166001600160a01b03168152602001908152602001600020600087602001602081019061305a91906158ac565b151581526020808201929092526040908101600090812064ffffffffff8916825283522080546001600160a01b0319166001600160a01b0393909316929092179091556130a990860186615453565b6001600160a01b039081169082167f22c125447e6a06158aefb2637c0f7d1a544b0bb331e126582be4a4e70d3e6c886130e86040890160208a016158ac565b6040805191151582528981013560208301526060808b01358383015264ffffffffff8a1690830152519081900360800190a35050600160005550919050565b6001600160a01b0381166000908152600260205260408082206007549151634d3a1f3d60e11b815260048101919091526201000090910462ffffff16602482015273__$d5b0dec45940a7a1291c9da6fe7c8bb2e1$__90639a743e7a90604401611a9e565b613194613263565b6001600160a01b0381166131f95760405162461bcd60e51b815260206004820152602660248201527f4f776e61626c653a206e6577206f776e657220697320746865207a65726f206160448201526564647265737360d01b6064820152608401610bd0565b61320281613541565b50565b6001600160a01b03811660009081526002602052604080822090516210164360e11b8152600481019190915273__$d5b0dec45940a7a1291c9da6fe7c8bb2e1$__9062202c8690602401611a9e565b6001600160a01b03163b151590565b6001546001600160a01b0316331461177c5760405162461bcd60e51b815260206004820181905260248201527f4f776e61626c653a2063616c6c6572206973206e6f7420746865206f776e65726044820152606401610bd0565b804211156132025760405162461bcd60e51b815260206004820152600f60248201526e50455f43443a20746f6f206c61746560881b6044820152606401610bd0565b6001600160a01b03811660009081526009602052604090205460ff166132025760405162461bcd60e51b815260206004820152601a60248201527f50455f434d413a206d61726b6574206e6f7420616c6c6f7765640000000000006044820152606401610bd0565b6001600160a01b038116600090815260026020526040908190206007549151635c02a9e960e01b8152600481019190915260ff909116602482015273__$20e084fd68fd7ab4ec93efaca84ca46fc4$__90635c02a9e99060440160006040518083038186803b1580156133d957600080fd5b505af41580156133ed573d6000803e3d6000fd5b5050505050565b604051633c7e525f60e01b81526004810188905262ffffff84166024820152600090819073__$d5b0dec45940a7a1291c9da6fe7c8bb2e1$__90633c7e525f90604401602060405180830381865af4158015613454573d6000803e3d6000fd5b505050506040513d601f19601f8201168201806040525081019061347891906158e6565b15905082158015613487575080155b15613496576000915050613536565b8362ffffff166000036135245760405163e8fa204f60e01b81528715156004820152861515602482015281151560448201526001600160a01b0389169063e8fa204f90606401602060405180830381865afa1580156134f9573d6000803e3d6000fd5b505050506040513d601f19601f8201168201806040525081019061351d9190615893565b9150613534565b6135318888888785613f86565b91505b505b979650505050505050565b600180546001600160a01b038381166001600160a01b0319831681179093556040519116919082907f8be0079c531659141344cd1fd0a4f28419497f9722a3daafe3b4186f6b6457e090600090a35050565b6135ce6040518060c0016040528060008152602001600081526020016000815260200160008152602001600081526020016000151581525090565b6080820151604051633c7e525f60e01b81526004810185905262ffffff909116602482015273__$d5b0dec45940a7a1291c9da6fe7c8bb2e1$__90633c7e525f90604401602060405180830381865af415801561362f573d6000803e3d6000fd5b505050506040513d601f19601f8201168201806040525081019061365391906158e6565b1560a082015260c08201516136a6578060a001516136a65760405162461bcd60e51b815260206004820152601060248201526f4d4c5f524c3a20656e6f756768206d6d60801b6044820152606401610bd0565b81516001600160a01b039081166000908152600185810160209081526040808420875192880151938101546002820154925163933c797960e01b81526004810195909552602485015260448401919091529293169063933c7979906064016040805180830381865afa158015613720573d6000803e3d6000fd5b505050506040513d601f19601f820116820180604052508101906137449190615b9a565b84604001856060018281525082815250505083600001516001600160a01b0316638ee8fe5d6040518163ffffffff1660e01b8152600401602060405180830381865afa158015613798573d6000803e3d6000fd5b505050506040513d601f19601f820116820180604052508101906137bc9190615893565b84516020860151604051639c8f9f2360e01b815260048101919091529193506001600160a01b03169150639c8f9f239060240160408051808303816000875af115801561380d573d6000803e3d6000fd5b505050506040513d601f19601f820116820180604052508101906138319190615b9a565b60208401528083526040840151111561385c5760405162461bcd60e51b8152600401610bd090615bbe565b8260600151826020015110156138845760405162461bcd60e51b8152600401610bd090615bbe565b61389f613894836000015161404b565b6040840151906140b9565b604083015260208201516138c1906138b69061404b565b6060840151906140b9565b606083015282516001600160a01b0316600090815260018501602090815260409091209084015181546138f3916140c5565b905560006139136139038361404b565b604085015190600160601b6140d1565b61391c90615bf5565b905061394e85856000015185604001518461394486896060015161417590919063ffffffff16565b8960a00151614181565b608084015250909392505050565b60606113648383604051806060016040528060278152602001615e6260279139614272565b60008061399e8484600001518560e001518660a00151600161434d565b90508260c0015162ffffff16600003613a3957825160208401516040808601516060870151915162de853760e31b81526001600160a01b03909416936306f429b8936139f1939092918790600401615c11565b602060405180830381865afa158015613a0e573d6000803e3d6000fd5b505050506040513d601f19601f82011682018060405250810190613a329190615893565b9150613a5f565b613a5b83600001518460200151856040015186606001518760c0015186614570565b5091505b611f33836040015183856080015161477e565b613a9660405180606001604052806000815260200160008152602001600081525090565b81516001600160a01b039081166000908152600185016020526040808220855182516379144ba960e11b815283519295859492169263f2289752926004808401939192918290030181865afa158015613af3573d6000803e3d6000fd5b505050506040513d601f19601f82011682018060405250810190613b179190615b9a565b865160208801516040808a01519051634e6a20ed60e11b8152600481019290925260248201529294509092506001600160a01b031690639cd441da906044016060604051808303816000875af1158015613b75573d6000803e3d6000fd5b505050506040513d601f19601f82011682018060405250810190613b999190615c30565b6040870152602086015280855260608601511115613bf95760405162461bcd60e51b815260206004820152601c60248201527f4d4c5f414c3a20746f6f20736d616c6c206f75747075742062617365000000006044820152606401610bd0565b846080015184602001511015613c515760405162461bcd60e51b815260206004820152601d60248201527f4d4c5f414c3a20746f6f20736d616c6c206f75747075742071756f74650000006044820152606401610bd0565b82546040850151613c63908290614829565b8455604085015185516001860154613c7f928492909187614835565b8460010181905550613ca08186604001518760200151876002015486614835565b6002850155855160c087015160405163724055e760e01b815273__$d5b0dec45940a7a1291c9da6fe7c8bb2e1$__9263724055e792613ce5928c929190600401615c5e565b60006040518083038186803b158015613cfd57600080fd5b505af4158015613d11573d6000803e3d6000fd5b5050505060a0860151604051634d3a1f3d60e11b81526004810189905262ffffff909116602482015273__$d5b0dec45940a7a1291c9da6fe7c8bb2e1$__90639a743e7a90604401602060405180830381865af4158015613d76573d6000803e3d6000fd5b505050506040513d601f19601f82011682018060405250810190613d9a91906158e6565b613ddd5760405162461bcd60e51b81526020600482015260146024820152734d4c5f414c3a206e6f7420656e6f75676820696d60601b6044820152606401610bd0565b5050505092915050565b613def615399565b610cc260026000613e036020860186615453565b6001600160a01b03166001600160a01b0316815260200190815260200160002060026000613e2e3390565b6001600160a01b03166001600160a01b0316815260200190815260200160002060030160036005604051806101600160405280886020016020810190613e749190615453565b6001600160a01b03168152602001613e9260608a0160408b016158ac565b15158152602001613ea960808a0160608b016158ac565b151581526080808a0135602083015260a0808b0135604084015260075462ffffff600160281b82048116606086015262010000820481169385019390935260ff811691840191909152600160401b90041660c082015260e001613f093390565b6001600160a01b0316613f1f60208b018b615453565b6001600160a01b03161481526040805180820190915260085462ffffff811682526301000000900461ffff166020808301919091529091015261487e565b600080821215613f7d57613f78613f7383614aea565b614b48565b610cc2565b610cc282614b48565b60405163e8fa204f60e01b81528415156004820152831515602482015281151560448201526000906001600160a01b0387169063e8fa204f90606401602060405180830381865afa158015613fdf573d6000803e3d6000fd5b505050506040513d601f19601f820116820180604052508101906140039190615893565b9050831561402e57846125ed57614027614020620f424085614b9a565b8290614c00565b90506125ed565b84156125ed57614027614044620f424085614b9a565b8290614c15565b60006001600160ff1b038211156140b55760405162461bcd60e51b815260206004820152602860248201527f53616665436173743a2076616c756520646f65736e27742066697420696e2061604482015267371034b73a191a9b60c11b6064820152608401610bd0565b5090565b60006113648284615c80565b60006113648284615ca8565b600080600085126140e257846140eb565b6140eb85614aea565b905060008085126140fc5784614105565b61410585614aea565b9050600080871280156141185750600086135b8061412e575060008713801561412e5750600086125b61413957600061413c565b60015b9050600061414b848488614c26565b9050816141605761415b8161404b565b614169565b61416981614cd5565b98975050505050505050565b60006113648284615cbb565b6001600160a01b03851660009081526020878152604080832081518083019092528054825260010154918101919091526141bd90868686614ce9565b6001600160a01b038816600090815260208a815260409091208351815592015160019092019190915560038801549091506141f890826140b9565b600388015560405163724055e760e01b815273__$d5b0dec45940a7a1291c9da6fe7c8bb2e1$__9063724055e790614238908a908a908790600401615c5e565b60006040518083038186803b15801561425057600080fd5b505af4158015614264573d6000803e3d6000fd5b505050509695505050505050565b606061427d84613254565b6142d85760405162461bcd60e51b815260206004820152602660248201527f416464726573733a2064656c65676174652063616c6c20746f206e6f6e2d636f6044820152651b9d1c9858dd60d21b6064820152608401610bd0565b600080856001600160a01b0316856040516142f39190615cdb565b600060405180830381855af49150503d806000811461432e576040519150601f19603f3d011682016040523d82523d6000602084013e614333565b606091505b5091509150614343828286614e89565b9695505050505050565b604051633c7e525f60e01b81526004810186905262ffffff8316602482015260009073__$d5b0dec45940a7a1291c9da6fe7c8bb2e1$__90633c7e525f90604401602060405180830381865af41580156143ab573d6000803e3d6000fd5b505050506040513d601f19601f820116820180604052508101906143cf91906158e6565b1590508361441757806144175760405162461bcd60e51b815260206004820152601060248201526f544c5f56543a20656e6f756768206d6d60801b6044820152606401610bd0565b811580156144225750805b156125ed576001600160a01b03851660009081526001870160205260409020541561448f5760405162461bcd60e51b815260206004820181905260248201527f544c5f56543a206e6f206d616b6572207768656e206c69717569646174696f6e6044820152606401610bd0565b6001600160a01b038516600090815260028701602052604090205464ffffffffff16156144fe5760405162461bcd60e51b815260206004820152601e60248201527f544c5f56543a206e6f2061736b207768656e206c69717569646174696f6e00006044820152606401610bd0565b6001600160a01b038516600090815260028088016020526040909120015464ffffffffff16156125ed5760405162461bcd60e51b815260206004820152601e60248201527f544c5f56543a206e6f20626964207768656e206c69717569646174696f6e00006044820152606401610bd0565b60008085156146985786156146105760405162de853760e31b81526001600160a01b038916906306f429b8906145b0908a908a908a908990600401615c11565b602060405180830381865afa1580156145cd573d6000803e3d6000fd5b505050506040513d601f19601f820116820180604052508101906145f19190615893565b91506145fd8285614c15565b905061460982826140c5565b9150614773565b61461a8585614c15565b90506001600160a01b0388166306f429b8888861463789866140c5565b876040518563ffffffff1660e01b81526004016146579493929190615c11565b602060405180830381865afa158015614674573d6000803e3d6000fd5b505050506040513d601f19601f820116820180604052508101906146099190615893565b86156146dc576146bf856146b96146b2620f424088614b9a565b8890614c00565b906140c5565b90506001600160a01b0388166306f429b888886146378986614829565b60405162de853760e31b81526000906001600160a01b038a16906306f429b890614710908b908b908b908a90600401615c11565b602060405180830381865afa15801561472d573d6000803e3d6000fd5b505050506040513d601f19601f820116820180604052508101906147519190615893565b9050614763614020620f424087614b9a565b925061476f83826140c5565b9150505b965096945050505050565b82156147d957808210156147d45760405162461bcd60e51b815260206004820181905260248201527f544c5f56533a20746f6f20736d616c6c206f70706f7369746520616d6f756e746044820152606401610bd0565b505050565b808211156147d45760405162461bcd60e51b815260206004820181905260248201527f544c5f56533a20746f6f206c61726765206f70706f7369746520616d6f756e746044820152606401610bd0565b60006113648284615cf7565b6000806148428787614829565b905061485d61485686600160601b89614c26565b8490614829565b925061353661486d848884614c26565b614878868a85614c26565b90614829565b614886615399565b6148a18683600001518461012001518560a00151600061434d565b151560e080830191825283516001600160a01b03908116600090815260208a8152604091829020548251610100808201855289519095168152828901511515928101929092528288015115159282019290925260608088015190820152608080880151908201528684015160ff1660a08201529186015162ffffff1660c0830152925115159181019190915261493a9088908690614ec2565b610100870152606086015260408501526020840152808352600090819061496090614ffd565b8451614976906149719086906140b9565b614ffd565b6149809190615d0a565b1390508260e0015115614a115780156149db5760405162461bcd60e51b815260206004820152601f60248201527f544c5f4f503a206e6f206f70656e207768656e206c69717569646174696f6e006044820152606401610bd0565b614a018860030188888760a001518861014001516149fc8960200151613f5d565b615025565b60c086015260a085015260808401525b8015614adf5760c0840151604051634d3a1f3d60e11b8152600481018a905262ffffff909116602482015273__$d5b0dec45940a7a1291c9da6fe7c8bb2e1$__90639a743e7a90604401602060405180830381865af4158015614a78573d6000803e3d6000fd5b505050506040513d601f19601f82011682018060405250810190614a9c91906158e6565b614adf5760405162461bcd60e51b8152602060048201526014602482015273544c5f4f503a206e6f7420656e6f75676820696d60601b6044820152606401610bd0565b505095945050505050565b6000600160ff1b8213614b3f5760405162461bcd60e51b815260206004820152601c60248201527f506572704d6174683a20696e76657273696f6e206f766572666c6f77000000006044820152606401610bd0565b610cc282615bf5565b6000808212156140b55760405162461bcd60e51b815260206004820181905260248201527f53616665436173743a2076616c7565206d75737420626520706f7369746976656044820152606401610bd0565b60008262ffffff168262ffffff161115614bf65760405162461bcd60e51b815260206004820152601e60248201527f506572704d6174683a207375627472616374696f6e206f766572666c6f7700006044820152606401610bd0565b6113648284615d8f565b600061136483620f42408462ffffff16614c26565b6000611364838362ffffff16620f42405b6000808060001985870985870292508281108382030391505080600003614c6057838281614c5657614c56615dab565b0492505050611364565b808411614c6c57600080fd5b60008486880960026001871981018816978890046003810283188082028403028082028403028082028403028082028403028082028403029081029092039091026000889003889004909101858311909403939093029303949094049190911702949350505050565b6000614ce08261404b565b610cc290615bf5565b6040805180820190915260008082526020820152600084151580614d0c57508315155b15614de557614d1a84614ffd565b614d2386614ffd565b614d2d9190615d0a565b60001914614d4057508490506000614e80565b614d4985614ffd565b8651614d5490614ffd565b614d5e9190615d0a565b19614de5576000614d6e86613f5d565b90506000614d7f8860000151613f5d565b9050808211614db6576000614da2614d968461404b565b60208b015190846140d1565b9050614dae87826140b9565b935050614de2565b6000614dcc614dc48361404b565b8890856140d1565b60208a0151909150614dde90826140b9565b9350505b50505b614def81846140b9565b8651909150600090614e0190876140b9565b90506000614e3083614e2a87614e248a8d602001516140b990919063ffffffff16565b906140b9565b90614175565b905081158015614e3e575080155b80614e655750614e4d81614ffd565b614e5683614ffd565b614e609190615d0a565b600019145b614e7757876000935093505050614e80565b90835260208301525b94509492505050565b60608315614e98575081611364565b825115614ea85782518084602001fd5b8160405162461bcd60e51b8152600401610bd09190615dc1565b600080600080614ed06153ec565b60c086015160009062ffffff1615614f1557614f0988886000015189602001518a604001518b606001518c60c001518d60e001516150ba565b90945092509050614fa5565b865160208801516040808a015160608b015160e08c015192516380796d5560e01b81526001600160a01b03909516946380796d5594614f5a9490939291600401615c11565b6080604051808303816000875af1158015614f79573d6000803e3d6000fd5b505050506040513d601f19601f82011682018060405250810190614f9d9190615dd4565b805190925090505b614fb8876040015182896080015161477e565b614fd0876020015188604001518960600151846152f3565b8096508197505050614fef898860000151888860008c60a00151614181565b935050939792965093509350565b600080821361501d5760008212615015576000610cc2565b600019610cc2565b600192915050565b600080806150338487614c15565b8551909350615043908490614c15565b915061504f83836140c5565b9050615068876001015483876020015161ffff16615359565b6001890191909155915061508661507e8461404b565b8a5490614175565b895561509c6150948361404b565b8954906140b9565b885586546150aa9082614829565b9096559097909650939450505050565b6000806150c56153ec565b86156151fe578715615169576040516380796d5560e01b81526001600160a01b038a16906380796d5590615103908b908b908b908a90600401615c11565b6080604051808303816000875af1158015615122573d6000803e3d6000fd5b505050506040513d601f19601f820116820180604052508101906151469190615dd4565b8051935090506151568386614c15565b915061516283836140c5565b92506152d6565b6151738686614c15565b91506001600160a01b0389166380796d5589896151908a876140c5565b886040518563ffffffff1660e01b81526004016151b09493929190615c11565b6080604051808303816000875af11580156151cf573d6000803e3d6000fd5b505050506040513d601f19601f820116820180604052508101906151f39190615dd4565b8051935090506152d6565b871561523c5761521f866146b9615218620f424089614b9a565b8990614c00565b91506001600160a01b0389166380796d5589896151908a87614829565b6040516380796d5560e01b81526001600160a01b038a16906380796d559061526e908b908b908b908a90600401615c11565b6080604051808303816000875af115801561528d573d6000803e3d6000fd5b505050506040513d601f19601f820116820180604052508101906152b19190615dd4565b80519091506152c6614020620f424088614b9a565b93506152d284826140c5565b9250505b89546152e29083614829565b909955909890979650945050505050565b600080841561532f57851561531d5761530b84614cd5565b6153148461404b565b91509150614e80565b6153268361404b565b61531485614cd5565b85156153475761533e83614cd5565b6153148561404b565b6153508461404b565b61531484614cd5565b6000806153668585614829565b94506153778562ffffff851661538d565b905061538385826140c5565b9150935093915050565b60006113648284615e3f565b604051806101200160405280600081526020016000815260200160008152602001600081526020016000815260200160008152602001600081526020016000151581526020016153e76153ec565b905290565b6040518060800160405280600081526020016000815260200160008152602001600064ffffffffff1681525090565b60006020828403121561542d57600080fd5b813560ff8116811461136457600080fd5b6001600160a01b038116811461320257600080fd5b60006020828403121561546557600080fd5b81356113648161543e565b60006080828403121561548257600080fd5b50919050565b600060a0828403121561548257600080fd5b600060a082840312156154ac57600080fd5b6113648383615488565b6000602082840312156154c857600080fd5b5035919050565b600080604083850312156154e257600080fd5b82356154ed8161543e565b915060208301356154fd8161543e565b809150509250929050565b801515811461320257600080fd5b64ffffffffff8116811461320257600080fd5b60008060006060848603121561553e57600080fd5b83356155498161543e565b9250602084013561555981615508565b9150604084013561556981615516565b809150509250925092565b60008060006060848603121561558957600080fd5b83356155948161543e565b925060208401356155a48161543e565b9150604084013561556981615508565b6020808252825182820181905260009190848201906040850190845b818110156155f357835164ffffffffff16835292840192918401916001016155d0565b50909695505050505050565b62ffffff8116811461320257600080fd5b60006020828403121561562257600080fd5b8135611364816155ff565b6000806040838503121561564057600080fd5b823561564b8161543e565b915060208301356154fd81615508565b600060c0828403121561548257600080fd5b600060c0828403121561567f57600080fd5b611364838361565b565b60006040828403121561548257600080fd5b600080602083850312156156ae57600080fd5b82356001600160401b03808211156156c557600080fd5b818501915085601f8301126156d957600080fd5b8135818111156156e857600080fd5b8660208260051b85010111156156fd57600080fd5b60209290920196919550909350505050565b60005b8381101561572a578181015183820152602001615712565b50506000910152565b6000815180845261574b81602086016020860161570f565b601f01601f19169290920160200192915050565b6000602080830181845280855180835260408601915060408160051b870101925083870160005b828110156157b457603f198886030184526157a2858351615733565b94509285019290850190600101615786565b5092979650505050505050565b600060e0828403121561548257600080fd5b600060e082840312156157e557600080fd5b61136483836157c1565b6020808252825182820181905260009190848201906040850190845b818110156155f35783516001600160a01b03168352928401929184019160010161580b565b6000806040838503121561584357600080fd5b823561584e8161543e565b946020939093013593505050565b6020808252601f908201527f5265656e7472616e637947756172643a207265656e7472616e742063616c6c00604082015260600190565b6000602082840312156158a557600080fd5b5051919050565b6000602082840312156158be57600080fd5b813561136481615508565b6000602082840312156158db57600080fd5b813561136481615516565b6000602082840312156158f857600080fd5b815161136481615508565b634e487b7160e01b600052604160045260246000fd5b604051601f8201601f191681016001600160401b038111828210171561594157615941615903565b604052919050565b6000602080838503121561595c57600080fd5b82516001600160401b038082111561597357600080fd5b818501915085601f83011261598757600080fd5b81518181111561599957615999615903565b8060051b91506159aa848301615919565b81815291830184019184810190888411156159c457600080fd5b938501935b8385101561416957845192506159de83615516565b82825293850193908501906159c9565b9182526001600160a01b0316602082015260400190565b600060408284031215615a1757600080fd5b604051604081018181106001600160401b0382111715615a3957615a39615903565b604052825181526020928301519281019290925250919050565b600060208284031215615a6557600080fd5b81516113648161543e565b61ffff8116811461320257600080fd5b600060208284031215615a9257600080fd5b813561136481615a70565b8135615aa8816155ff565b62ffffff8116905081548162ffffff1982161783556020840135615acb81615a70565b64ffff0000008160181b168364ffffffffff198416171784555050505050565b634e487b7160e01b600052603260045260246000fd5b6000808335601e19843603018112615b1857600080fd5b8301803591506001600160401b03821115615b3257600080fd5b602001915036819003821315615b4757600080fd5b9250929050565b634e487b7160e01b600052601160045260246000fd5b600060018201615b7657615b76615b4e565b5060010190565b600060208284031215615b8f57600080fd5b815161136481615516565b60008060408385031215615bad57600080fd5b505080516020909101519092909150565b6020808252601c908201527f4d4c5f524c3a20746f6f20736d616c6c206f7574707574206261736500000000604082015260600190565b6000600160ff1b8201615c0a57615c0a615b4e565b5060000390565b9315158452911515602084015260408301521515606082015260800190565b600080600060608486031215615c4557600080fd5b8351925060208401519150604084015190509250925092565b9283526001600160a01b0391909116602083015260ff16604082015260600190565b8082018281126000831280158216821582161715615ca057615ca0615b4e565b505092915050565b81810381811115610cc257610cc2615b4e565b8181036000831280158383131683831282161715611f3357611f33615b4e565b60008251615ced81846020870161570f565b9190910192915050565b80820180821115610cc257610cc2615b4e565b60006001600160ff1b0381841382841380821686840486111615615d3057615d30615b4e565b600160ff1b6000871282811687830589121615615d4f57615d4f615b4e565b60008712925087820587128484161615615d6b57615d6b615b4e565b87850587128184161615615d8157615d81615b4e565b505050929093029392505050565b62ffffff828116828216039080821115611f3357611f33615b4e565b634e487b7160e01b600052601260045260246000fd5b6020815260006113646020830184615733565b600060808284031215615de657600080fd5b604051608081018181106001600160401b0382111715615e0857615e08615903565b80604052508251815260208301516020820152604083015160408201526060830151615e3381615516565b60608201529392505050565b600082615e5c57634e487b7160e01b600052601260045260246000fd5b50049056fe416464726573733a206c6f772d6c6576656c2064656c65676174652063616c6c206661696c6564a264697066735822122008213520beea3475095e8b329a716bbca9a8cc60269e7484e270d8995ef19df464736f6c63430008100033",
  "libraries": {
    "AccountLibrary": "0xfd5CD7D2c8277B855c87D05aCC3343DFFA9CDE1f",
    "MakerOrderBookLibrary": "0xfa559987167994706EeF52E959e7C2d5aB799114",
    "VaultLibrary": "0xf7938AadBB45D27a42676145f423741405D541d2"
  },
  "devdoc": {
    "kind": "dev",
    "methods": {
      "multicall(bytes[])": {
        "details": "Receives and executes a batch of function calls on this contract."
      },
      "owner()": {
        "details": "Returns the address of the current owner."
      },
      "renounceOwnership()": {
        "details": "Leaves the contract without owner. It will not be possible to call `onlyOwner` functions anymore. Can only be called by the current owner. NOTE: Renouncing ownership will leave the contract without an owner, thereby removing any functionality that is only available to the owner."
      },
      "transferOwnership(address)": {
        "details": "Transfers ownership of the contract to a new account (`newOwner`). Can only be called by the current owner."
      }
    },
    "version": 1
  },
  "userdoc": {
    "kind": "user",
    "methods": {},
    "version": 1
  },
  "storageLayout": {
    "storage": [
      {
        "astId": 925,
        "contract": "contracts/test/DebugPerpdexExchange.sol:DebugPerpdexExchange",
        "label": "_status",
        "offset": 0,
        "slot": "0",
        "type": "t_uint256"
      },
      {
        "astId": 550,
        "contract": "contracts/test/DebugPerpdexExchange.sol:DebugPerpdexExchange",
        "label": "_owner",
        "offset": 0,
        "slot": "1",
        "type": "t_address"
      },
      {
        "astId": 6207,
        "contract": "contracts/test/DebugPerpdexExchange.sol:DebugPerpdexExchange",
        "label": "accountInfos",
        "offset": 0,
        "slot": "2",
        "type": "t_mapping(t_address,t_struct(AccountInfo)15485_storage)"
      },
      {
        "astId": 6210,
        "contract": "contracts/test/DebugPerpdexExchange.sol:DebugPerpdexExchange",
        "label": "insuranceFundInfo",
        "offset": 0,
        "slot": "3",
        "type": "t_struct(InsuranceFundInfo)15490_storage"
      },
      {
        "astId": 6213,
        "contract": "contracts/test/DebugPerpdexExchange.sol:DebugPerpdexExchange",
        "label": "protocolInfo",
        "offset": 0,
        "slot": "5",
        "type": "t_struct(ProtocolInfo)15493_storage"
      },
      {
        "astId": 6221,
        "contract": "contracts/test/DebugPerpdexExchange.sol:DebugPerpdexExchange",
        "label": "orderIdToTrader",
        "offset": 0,
        "slot": "6",
        "type": "t_mapping(t_address,t_mapping(t_bool,t_mapping(t_uint40,t_address)))"
      },
      {
        "astId": 6229,
        "contract": "contracts/test/DebugPerpdexExchange.sol:DebugPerpdexExchange",
        "label": "maxMarketsPerAccount",
        "offset": 0,
        "slot": "7",
        "type": "t_uint8"
      },
      {
        "astId": 6232,
        "contract": "contracts/test/DebugPerpdexExchange.sol:DebugPerpdexExchange",
        "label": "maxOrdersPerAccount",
        "offset": 1,
        "slot": "7",
        "type": "t_uint8"
      },
      {
        "astId": 6235,
        "contract": "contracts/test/DebugPerpdexExchange.sol:DebugPerpdexExchange",
        "label": "imRatio",
        "offset": 2,
        "slot": "7",
        "type": "t_uint24"
      },
      {
        "astId": 6238,
        "contract": "contracts/test/DebugPerpdexExchange.sol:DebugPerpdexExchange",
        "label": "mmRatio",
        "offset": 5,
        "slot": "7",
        "type": "t_uint24"
      },
      {
        "astId": 6241,
        "contract": "contracts/test/DebugPerpdexExchange.sol:DebugPerpdexExchange",
        "label": "protocolFeeRatio",
        "offset": 8,
        "slot": "7",
        "type": "t_uint24"
      },
      {
        "astId": 6249,
        "contract": "contracts/test/DebugPerpdexExchange.sol:DebugPerpdexExchange",
        "label": "liquidationRewardConfig",
        "offset": 0,
        "slot": "8",
        "type": "t_struct(LiquidationRewardConfig)15498_storage"
      },
      {
        "astId": 6253,
        "contract": "contracts/test/DebugPerpdexExchange.sol:DebugPerpdexExchange",
        "label": "isMarketAllowed",
        "offset": 0,
        "slot": "9",
        "type": "t_mapping(t_address,t_bool)"
      }
    ],
    "types": {
      "t_address": {
        "encoding": "inplace",
        "label": "address",
        "numberOfBytes": "20"
      },
      "t_array(t_address)dyn_storage": {
        "base": "t_address",
        "encoding": "dynamic_array",
        "label": "address[]",
        "numberOfBytes": "32"
      },
      "t_bool": {
        "encoding": "inplace",
        "label": "bool",
        "numberOfBytes": "1"
      },
      "t_int256": {
        "encoding": "inplace",
        "label": "int256",
        "numberOfBytes": "32"
      },
      "t_mapping(t_address,t_bool)": {
        "encoding": "mapping",
        "key": "t_address",
        "label": "mapping(address => bool)",
        "numberOfBytes": "32",
        "value": "t_bool"
      },
      "t_mapping(t_address,t_mapping(t_bool,t_mapping(t_uint40,t_address)))": {
        "encoding": "mapping",
        "key": "t_address",
        "label": "mapping(address => mapping(bool => mapping(uint40 => address)))",
        "numberOfBytes": "32",
        "value": "t_mapping(t_bool,t_mapping(t_uint40,t_address))"
      },
      "t_mapping(t_address,t_struct(AccountInfo)15485_storage)": {
        "encoding": "mapping",
        "key": "t_address",
        "label": "mapping(address => struct PerpdexStructs.AccountInfo)",
        "numberOfBytes": "32",
        "value": "t_struct(AccountInfo)15485_storage"
      },
      "t_mapping(t_address,t_struct(LimitOrderInfo)15458_storage)": {
        "encoding": "mapping",
        "key": "t_address",
        "label": "mapping(address => struct PerpdexStructs.LimitOrderInfo)",
        "numberOfBytes": "32",
        "value": "t_struct(LimitOrderInfo)15458_storage"
      },
      "t_mapping(t_address,t_struct(MakerInfo)15447_storage)": {
        "encoding": "mapping",
        "key": "t_address",
        "label": "mapping(address => struct PerpdexStructs.MakerInfo)",
        "numberOfBytes": "32",
        "value": "t_struct(MakerInfo)15447_storage"
      },
      "t_mapping(t_address,t_struct(TakerInfo)15440_storage)": {
        "encoding": "mapping",
        "key": "t_address",
        "label": "mapping(address => struct PerpdexStructs.TakerInfo)",
        "numberOfBytes": "32",
        "value": "t_struct(TakerInfo)15440_storage"
      },
      "t_mapping(t_bool,t_mapping(t_uint40,t_address))": {
        "encoding": "mapping",
        "key": "t_bool",
        "label": "mapping(bool => mapping(uint40 => address))",
        "numberOfBytes": "32",
        "value": "t_mapping(t_uint40,t_address)"
      },
      "t_mapping(t_uint40,t_address)": {
        "encoding": "mapping",
        "key": "t_uint40",
        "label": "mapping(uint40 => address)",
        "numberOfBytes": "32",
        "value": "t_address"
      },
      "t_mapping(t_uint40,t_struct(Node)20677_storage)": {
        "encoding": "mapping",
        "key": "t_uint40",
        "label": "mapping(uint40 => struct BokkyPooBahsRedBlackTreeLibrary.Node)",
        "numberOfBytes": "32",
        "value": "t_struct(Node)20677_storage"
      },
      "t_struct(AccountInfo)15485_storage": {
        "encoding": "inplace",
        "label": "struct PerpdexStructs.AccountInfo",
        "members": [
          {
            "astId": 15466,
            "contract": "contracts/test/DebugPerpdexExchange.sol:DebugPerpdexExchange",
            "label": "takerInfos",
            "offset": 0,
            "slot": "0",
            "type": "t_mapping(t_address,t_struct(TakerInfo)15440_storage)"
          },
          {
            "astId": 15471,
            "contract": "contracts/test/DebugPerpdexExchange.sol:DebugPerpdexExchange",
            "label": "makerInfos",
            "offset": 0,
            "slot": "1",
            "type": "t_mapping(t_address,t_struct(MakerInfo)15447_storage)"
          },
          {
            "astId": 15476,
            "contract": "contracts/test/DebugPerpdexExchange.sol:DebugPerpdexExchange",
            "label": "limitOrderInfos",
            "offset": 0,
            "slot": "2",
            "type": "t_mapping(t_address,t_struct(LimitOrderInfo)15458_storage)"
          },
          {
            "astId": 15479,
            "contract": "contracts/test/DebugPerpdexExchange.sol:DebugPerpdexExchange",
            "label": "vaultInfo",
            "offset": 0,
            "slot": "3",
            "type": "t_struct(VaultInfo)15461_storage"
          },
          {
            "astId": 15482,
            "contract": "contracts/test/DebugPerpdexExchange.sol:DebugPerpdexExchange",
            "label": "markets",
            "offset": 0,
            "slot": "4",
            "type": "t_array(t_address)dyn_storage"
          },
          {
            "astId": 15484,
            "contract": "contracts/test/DebugPerpdexExchange.sol:DebugPerpdexExchange",
            "label": "limitOrderCount",
            "offset": 0,
            "slot": "5",
            "type": "t_uint8"
          }
        ],
        "numberOfBytes": "192"
      },
      "t_struct(InsuranceFundInfo)15490_storage": {
        "encoding": "inplace",
        "label": "struct PerpdexStructs.InsuranceFundInfo",
        "members": [
          {
            "astId": 15487,
            "contract": "contracts/test/DebugPerpdexExchange.sol:DebugPerpdexExchange",
            "label": "balance",
            "offset": 0,
            "slot": "0",
            "type": "t_uint256"
          },
          {
            "astId": 15489,
            "contract": "contracts/test/DebugPerpdexExchange.sol:DebugPerpdexExchange",
            "label": "liquidationRewardBalance",
            "offset": 0,
            "slot": "1",
            "type": "t_uint256"
          }
        ],
        "numberOfBytes": "64"
      },
      "t_struct(LimitOrderInfo)15458_storage": {
        "encoding": "inplace",
        "label": "struct PerpdexStructs.LimitOrderInfo",
        "members": [
          {
            "astId": 15450,
            "contract": "contracts/test/DebugPerpdexExchange.sol:DebugPerpdexExchange",
            "label": "ask",
            "offset": 0,
            "slot": "0",
            "type": "t_struct(Tree)20685_storage"
          },
          {
            "astId": 15453,
            "contract": "contracts/test/DebugPerpdexExchange.sol:DebugPerpdexExchange",
            "label": "bid",
            "offset": 0,
            "slot": "2",
            "type": "t_struct(Tree)20685_storage"
          },
          {
            "astId": 15455,
            "contract": "contracts/test/DebugPerpdexExchange.sol:DebugPerpdexExchange",
            "label": "totalBaseAsk",
            "offset": 0,
            "slot": "4",
            "type": "t_uint256"
          },
          {
            "astId": 15457,
            "contract": "contracts/test/DebugPerpdexExchange.sol:DebugPerpdexExchange",
            "label": "totalBaseBid",
            "offset": 0,
            "slot": "5",
            "type": "t_uint256"
          }
        ],
        "numberOfBytes": "192"
      },
      "t_struct(LiquidationRewardConfig)15498_storage": {
        "encoding": "inplace",
        "label": "struct PerpdexStructs.LiquidationRewardConfig",
        "members": [
          {
            "astId": 15495,
            "contract": "contracts/test/DebugPerpdexExchange.sol:DebugPerpdexExchange",
            "label": "rewardRatio",
            "offset": 0,
            "slot": "0",
            "type": "t_uint24"
          },
          {
            "astId": 15497,
            "contract": "contracts/test/DebugPerpdexExchange.sol:DebugPerpdexExchange",
            "label": "smoothEmaTime",
            "offset": 3,
            "slot": "0",
            "type": "t_uint16"
          }
        ],
        "numberOfBytes": "32"
      },
      "t_struct(MakerInfo)15447_storage": {
        "encoding": "inplace",
        "label": "struct PerpdexStructs.MakerInfo",
        "members": [
          {
            "astId": 15442,
            "contract": "contracts/test/DebugPerpdexExchange.sol:DebugPerpdexExchange",
            "label": "liquidity",
            "offset": 0,
            "slot": "0",
            "type": "t_uint256"
          },
          {
            "astId": 15444,
            "contract": "contracts/test/DebugPerpdexExchange.sol:DebugPerpdexExchange",
            "label": "cumBaseSharePerLiquidityX96",
            "offset": 0,
            "slot": "1",
            "type": "t_uint256"
          },
          {
            "astId": 15446,
            "contract": "contracts/test/DebugPerpdexExchange.sol:DebugPerpdexExchange",
            "label": "cumQuotePerLiquidityX96",
            "offset": 0,
            "slot": "2",
            "type": "t_uint256"
          }
        ],
        "numberOfBytes": "96"
      },
      "t_struct(Node)20677_storage": {
        "encoding": "inplace",
        "label": "struct BokkyPooBahsRedBlackTreeLibrary.Node",
        "members": [
          {
            "astId": 20668,
            "contract": "contracts/test/DebugPerpdexExchange.sol:DebugPerpdexExchange",
            "label": "parent",
            "offset": 0,
            "slot": "0",
            "type": "t_uint40"
          },
          {
            "astId": 20670,
            "contract": "contracts/test/DebugPerpdexExchange.sol:DebugPerpdexExchange",
            "label": "left",
            "offset": 5,
            "slot": "0",
            "type": "t_uint40"
          },
          {
            "astId": 20672,
            "contract": "contracts/test/DebugPerpdexExchange.sol:DebugPerpdexExchange",
            "label": "right",
            "offset": 10,
            "slot": "0",
            "type": "t_uint40"
          },
          {
            "astId": 20674,
            "contract": "contracts/test/DebugPerpdexExchange.sol:DebugPerpdexExchange",
            "label": "red",
            "offset": 15,
            "slot": "0",
            "type": "t_bool"
          },
          {
            "astId": 20676,
            "contract": "contracts/test/DebugPerpdexExchange.sol:DebugPerpdexExchange",
            "label": "userData",
            "offset": 16,
            "slot": "0",
            "type": "t_uint128"
          }
        ],
        "numberOfBytes": "32"
      },
      "t_struct(ProtocolInfo)15493_storage": {
        "encoding": "inplace",
        "label": "struct PerpdexStructs.ProtocolInfo",
        "members": [
          {
            "astId": 15492,
            "contract": "contracts/test/DebugPerpdexExchange.sol:DebugPerpdexExchange",
            "label": "protocolFee",
            "offset": 0,
            "slot": "0",
            "type": "t_uint256"
          }
        ],
        "numberOfBytes": "32"
      },
      "t_struct(TakerInfo)15440_storage": {
        "encoding": "inplace",
        "label": "struct PerpdexStructs.TakerInfo",
        "members": [
          {
            "astId": 15437,
            "contract": "contracts/test/DebugPerpdexExchange.sol:DebugPerpdexExchange",
            "label": "baseBalanceShare",
            "offset": 0,
            "slot": "0",
            "type": "t_int256"
          },
          {
            "astId": 15439,
            "contract": "contracts/test/DebugPerpdexExchange.sol:DebugPerpdexExchange",
            "label": "quoteBalance",
            "offset": 0,
            "slot": "1",
            "type": "t_int256"
          }
        ],
        "numberOfBytes": "64"
      },
      "t_struct(Tree)20685_storage": {
        "encoding": "inplace",
        "label": "struct BokkyPooBahsRedBlackTreeLibrary.Tree",
        "members": [
          {
            "astId": 20679,
            "contract": "contracts/test/DebugPerpdexExchange.sol:DebugPerpdexExchange",
            "label": "root",
            "offset": 0,
            "slot": "0",
            "type": "t_uint40"
          },
          {
            "astId": 20684,
            "contract": "contracts/test/DebugPerpdexExchange.sol:DebugPerpdexExchange",
            "label": "nodes",
            "offset": 0,
            "slot": "1",
            "type": "t_mapping(t_uint40,t_struct(Node)20677_storage)"
          }
        ],
        "numberOfBytes": "64"
      },
      "t_struct(VaultInfo)15461_storage": {
        "encoding": "inplace",
        "label": "struct PerpdexStructs.VaultInfo",
        "members": [
          {
            "astId": 15460,
            "contract": "contracts/test/DebugPerpdexExchange.sol:DebugPerpdexExchange",
            "label": "collateralBalance",
            "offset": 0,
            "slot": "0",
            "type": "t_int256"
          }
        ],
        "numberOfBytes": "32"
      },
      "t_uint128": {
        "encoding": "inplace",
        "label": "uint128",
        "numberOfBytes": "16"
      },
      "t_uint16": {
        "encoding": "inplace",
        "label": "uint16",
        "numberOfBytes": "2"
      },
      "t_uint24": {
        "encoding": "inplace",
        "label": "uint24",
        "numberOfBytes": "3"
      },
      "t_uint256": {
        "encoding": "inplace",
        "label": "uint256",
        "numberOfBytes": "32"
      },
      "t_uint40": {
        "encoding": "inplace",
        "label": "uint40",
        "numberOfBytes": "5"
      },
      "t_uint8": {
        "encoding": "inplace",
        "label": "uint8",
        "numberOfBytes": "1"
      }
    }
  }
}