{
  "address": "0xC9BF5892F8047bDf34a7F3A285B0D1F32d4a621f",
  "abi": [
    {
      "inputs": [
        {
          "internalType": "address",
          "name": "settlementTokenArg",
          "type": "address"
        }
      ],
      "stateMutability": "nonpayable",
      "type": "constructor"
    },
    {
      "anonymous": false,
      "inputs": [
        {
          "indexed": true,
          "internalType": "address",
          "name": "trader",
          "type": "address"
        },
        {
          "indexed": false,
          "internalType": "uint256",
          "name": "amount",
          "type": "uint256"
        }
      ],
      "name": "CollateralCompensated",
      "type": "event"
    },
    {
      "anonymous": false,
      "inputs": [
        {
          "indexed": true,
          "internalType": "address",
          "name": "trader",
          "type": "address"
        },
        {
          "indexed": false,
          "internalType": "uint256",
          "name": "amount",
          "type": "uint256"
        }
      ],
      "name": "Deposited",
      "type": "event"
    },
    {
      "anonymous": false,
      "inputs": [
        {
          "indexed": false,
          "internalType": "uint24",
          "name": "value",
          "type": "uint24"
        }
      ],
      "name": "ImRatioChanged",
      "type": "event"
    },
    {
      "anonymous": false,
      "inputs": [
        {
          "indexed": true,
          "internalType": "address",
          "name": "trader",
          "type": "address"
        },
        {
          "indexed": true,
          "internalType": "address",
          "name": "market",
          "type": "address"
        },
        {
          "indexed": true,
          "internalType": "address",
          "name": "liquidator",
          "type": "address"
        },
        {
          "indexed": false,
          "internalType": "bool",
          "name": "isBid",
          "type": "bool"
        },
        {
          "indexed": false,
          "internalType": "uint256",
          "name": "orderId",
          "type": "uint256"
        }
      ],
      "name": "LimitOrderCanceled",
      "type": "event"
    },
    {
      "anonymous": false,
      "inputs": [
        {
          "indexed": true,
          "internalType": "address",
          "name": "trader",
          "type": "address"
        },
        {
          "indexed": true,
          "internalType": "address",
          "name": "market",
          "type": "address"
        },
        {
          "indexed": false,
          "internalType": "bool",
          "name": "isBid",
          "type": "bool"
        },
        {
          "indexed": false,
          "internalType": "uint256",
          "name": "base",
          "type": "uint256"
        },
        {
          "indexed": false,
          "internalType": "uint256",
          "name": "priceX96",
          "type": "uint256"
        },
        {
          "indexed": false,
          "internalType": "uint256",
          "name": "orderId",
          "type": "uint256"
        }
      ],
      "name": "LimitOrderCreated",
      "type": "event"
    },
    {
      "anonymous": false,
      "inputs": [
        {
          "indexed": false,
          "internalType": "uint24",
          "name": "rewardRatio",
          "type": "uint24"
        },
        {
          "indexed": false,
          "internalType": "uint16",
          "name": "smoothEmaTime",
          "type": "uint16"
        }
      ],
      "name": "LiquidationRewardConfigChanged",
      "type": "event"
    },
    {
      "anonymous": false,
      "inputs": [
        {
          "indexed": true,
          "internalType": "address",
          "name": "trader",
          "type": "address"
        },
        {
          "indexed": true,
          "internalType": "address",
          "name": "market",
          "type": "address"
        },
        {
          "indexed": false,
          "internalType": "uint256",
          "name": "base",
          "type": "uint256"
        },
        {
          "indexed": false,
          "internalType": "uint256",
          "name": "quote",
          "type": "uint256"
        },
        {
          "indexed": false,
          "internalType": "uint256",
          "name": "liquidity",
          "type": "uint256"
        },
        {
          "indexed": false,
          "internalType": "uint256",
          "name": "cumBasePerLiquidityX96",
          "type": "uint256"
        },
        {
          "indexed": false,
          "internalType": "uint256",
          "name": "cumQuotePerLiquidityX96",
          "type": "uint256"
        }
      ],
      "name": "LiquidityAdded",
      "type": "event"
    },
    {
      "anonymous": false,
      "inputs": [
        {
          "indexed": true,
          "internalType": "address",
          "name": "trader",
          "type": "address"
        },
        {
          "indexed": true,
          "internalType": "address",
          "name": "market",
          "type": "address"
        },
        {
          "indexed": false,
          "internalType": "address",
          "name": "liquidator",
          "type": "address"
        },
        {
          "indexed": false,
          "internalType": "uint256",
          "name": "base",
          "type": "uint256"
        },
        {
          "indexed": false,
          "internalType": "uint256",
          "name": "quote",
          "type": "uint256"
        },
        {
          "indexed": false,
          "internalType": "uint256",
          "name": "liquidity",
          "type": "uint256"
        },
        {
          "indexed": false,
          "internalType": "int256",
          "name": "takerBase",
          "type": "int256"
        },
        {
          "indexed": false,
          "internalType": "int256",
          "name": "takerQuote",
          "type": "int256"
        },
        {
          "indexed": false,
          "internalType": "int256",
          "name": "realizedPnl",
          "type": "int256"
        }
      ],
      "name": "LiquidityRemoved",
      "type": "event"
    },
    {
      "anonymous": false,
      "inputs": [
        {
          "indexed": true,
          "internalType": "address",
          "name": "market",
          "type": "address"
        },
        {
          "indexed": false,
          "internalType": "enum PerpdexStructs.MarketStatus",
          "name": "status",
          "type": "uint8"
        }
      ],
      "name": "MarketStatusChanged",
      "type": "event"
    },
    {
      "anonymous": false,
      "inputs": [
        {
          "indexed": false,
          "internalType": "uint8",
          "name": "value",
          "type": "uint8"
        }
      ],
      "name": "MaxMarketsPerAccountChanged",
      "type": "event"
    },
    {
      "anonymous": false,
      "inputs": [
        {
          "indexed": false,
          "internalType": "uint8",
          "name": "value",
          "type": "uint8"
        }
      ],
      "name": "MaxOrdersPerAccountChanged",
      "type": "event"
    },
    {
      "anonymous": false,
      "inputs": [
        {
          "indexed": false,
          "internalType": "uint24",
          "name": "value",
          "type": "uint24"
        }
      ],
      "name": "MmRatioChanged",
      "type": "event"
    },
    {
      "anonymous": false,
      "inputs": [
        {
          "indexed": true,
          "internalType": "address",
          "name": "previousOwner",
          "type": "address"
        },
        {
          "indexed": true,
          "internalType": "address",
          "name": "newOwner",
          "type": "address"
        }
      ],
      "name": "OwnershipTransferred",
      "type": "event"
    },
    {
      "anonymous": false,
      "inputs": [
        {
          "indexed": true,
          "internalType": "address",
          "name": "maker",
          "type": "address"
        },
        {
          "indexed": true,
          "internalType": "address",
          "name": "market",
          "type": "address"
        },
        {
          "indexed": false,
          "internalType": "bool",
          "name": "isAsk",
          "type": "bool"
        },
        {
          "indexed": false,
          "internalType": "uint256",
          "name": "basePartial",
          "type": "uint256"
        },
        {
          "indexed": false,
          "internalType": "uint256",
          "name": "quotePartial",
          "type": "uint256"
        },
        {
          "indexed": false,
          "internalType": "int256",
          "name": "partialRealizedPnL",
          "type": "int256"
        }
      ],
      "name": "PartiallyExecuted",
      "type": "event"
    },
    {
      "anonymous": false,
      "inputs": [
        {
          "indexed": true,
          "internalType": "address",
          "name": "trader",
          "type": "address"
        },
        {
          "indexed": true,
          "internalType": "address",
          "name": "market",
          "type": "address"
        },
        {
          "indexed": false,
          "internalType": "int256",
          "name": "base",
          "type": "int256"
        },
        {
          "indexed": false,
          "internalType": "int256",
          "name": "quote",
          "type": "int256"
        },
        {
          "indexed": false,
          "internalType": "int256",
          "name": "realizedPnl",
          "type": "int256"
        },
        {
          "indexed": false,
          "internalType": "uint256",
          "name": "protocolFee",
          "type": "uint256"
        },
        {
          "indexed": false,
          "internalType": "uint256",
          "name": "baseBalancePerShareX96",
          "type": "uint256"
        },
        {
          "indexed": false,
          "internalType": "uint256",
          "name": "sharePriceAfterX96",
          "type": "uint256"
        }
      ],
      "name": "PositionChanged",
      "type": "event"
    },
    {
      "anonymous": false,
      "inputs": [
        {
          "indexed": true,
          "internalType": "address",
          "name": "trader",
          "type": "address"
        },
        {
          "indexed": true,
          "internalType": "address",
          "name": "market",
          "type": "address"
        },
        {
          "indexed": true,
          "internalType": "address",
          "name": "liquidator",
          "type": "address"
        },
        {
          "indexed": false,
          "internalType": "int256",
          "name": "base",
          "type": "int256"
        },
        {
          "indexed": false,
          "internalType": "int256",
          "name": "quote",
          "type": "int256"
        },
        {
          "indexed": false,
          "internalType": "int256",
          "name": "realizedPnl",
          "type": "int256"
        },
        {
          "indexed": false,
          "internalType": "uint256",
          "name": "protocolFee",
          "type": "uint256"
        },
        {
          "indexed": false,
          "internalType": "uint256",
          "name": "baseBalancePerShareX96",
          "type": "uint256"
        },
        {
          "indexed": false,
          "internalType": "uint256",
          "name": "sharePriceAfterX96",
          "type": "uint256"
        },
        {
          "indexed": false,
          "internalType": "uint256",
          "name": "liquidationPenalty",
          "type": "uint256"
        },
        {
          "indexed": false,
          "internalType": "uint256",
          "name": "liquidationReward",
          "type": "uint256"
        },
        {
          "indexed": false,
          "internalType": "uint256",
          "name": "insuranceFundReward",
          "type": "uint256"
        }
      ],
      "name": "PositionLiquidated",
      "type": "event"
    },
    {
      "anonymous": false,
      "inputs": [
        {
          "indexed": false,
          "internalType": "uint24",
          "name": "value",
          "type": "uint24"
        }
      ],
      "name": "ProtocolFeeRatioChanged",
      "type": "event"
    },
    {
      "anonymous": false,
      "inputs": [
        {
          "indexed": true,
          "internalType": "address",
          "name": "trader",
          "type": "address"
        },
        {
          "indexed": false,
          "internalType": "uint256",
          "name": "amount",
          "type": "uint256"
        }
      ],
      "name": "ProtocolFeeTransferred",
      "type": "event"
    },
    {
      "anonymous": false,
      "inputs": [
        {
          "indexed": true,
          "internalType": "address",
          "name": "trader",
          "type": "address"
        },
        {
          "indexed": false,
          "internalType": "uint256",
          "name": "amount",
          "type": "uint256"
        }
      ],
      "name": "Withdrawn",
      "type": "event"
    },
    {
      "inputs": [
        {
          "internalType": "address",
          "name": "",
          "type": "address"
        }
      ],
      "name": "accountInfos",
      "outputs": [
        {
          "components": [
            {
              "internalType": "int256",
              "name": "collateralBalance",
              "type": "int256"
            }
          ],
          "internalType": "struct PerpdexStructs.VaultInfo",
          "name": "vaultInfo",
          "type": "tuple"
        },
        {
          "internalType": "uint8",
          "name": "limitOrderCount",
          "type": "uint8"
        }
      ],
      "stateMutability": "view",
      "type": "function"
    },
    {
      "inputs": [
        {
          "components": [
            {
              "internalType": "address",
              "name": "market",
              "type": "address"
            },
            {
              "internalType": "uint256",
              "name": "base",
              "type": "uint256"
            },
            {
              "internalType": "uint256",
              "name": "quote",
              "type": "uint256"
            },
            {
              "internalType": "uint256",
              "name": "minBase",
              "type": "uint256"
            },
            {
              "internalType": "uint256",
              "name": "minQuote",
              "type": "uint256"
            },
            {
              "internalType": "uint256",
              "name": "deadline",
              "type": "uint256"
            }
          ],
          "internalType": "struct IPerpdexExchange.AddLiquidityParams",
          "name": "params",
          "type": "tuple"
        }
      ],
      "name": "addLiquidity",
      "outputs": [
        {
          "internalType": "uint256",
          "name": "base",
          "type": "uint256"
        },
        {
          "internalType": "uint256",
          "name": "quote",
          "type": "uint256"
        },
        {
          "internalType": "uint256",
          "name": "liquidity",
          "type": "uint256"
        }
      ],
      "stateMutability": "nonpayable",
      "type": "function"
    },
    {
      "inputs": [
        {
          "components": [
            {
              "internalType": "address",
              "name": "market",
              "type": "address"
            },
            {
              "internalType": "bool",
              "name": "isBid",
              "type": "bool"
            },
            {
              "internalType": "uint40",
              "name": "orderId",
              "type": "uint40"
            },
            {
              "internalType": "uint256",
              "name": "deadline",
              "type": "uint256"
            }
          ],
          "internalType": "struct IPerpdexExchange.CancelLimitOrderParams",
          "name": "params",
          "type": "tuple"
        }
      ],
      "name": "cancelLimitOrder",
      "outputs": [],
      "stateMutability": "nonpayable",
      "type": "function"
    },
    {
      "inputs": [
        {
          "internalType": "address",
          "name": "market",
          "type": "address"
        }
      ],
      "name": "closeMarket",
      "outputs": [],
      "stateMutability": "nonpayable",
      "type": "function"
    },
    {
      "inputs": [
        {
          "components": [
            {
              "internalType": "address",
              "name": "market",
              "type": "address"
            },
            {
              "internalType": "bool",
              "name": "isBid",
              "type": "bool"
            },
            {
              "internalType": "uint256",
              "name": "base",
              "type": "uint256"
            },
            {
              "internalType": "uint256",
              "name": "priceX96",
              "type": "uint256"
            },
            {
              "internalType": "uint256",
              "name": "deadline",
              "type": "uint256"
            }
          ],
          "internalType": "struct IPerpdexExchange.CreateLimitOrderParams",
          "name": "params",
          "type": "tuple"
        }
      ],
      "name": "createLimitOrder",
      "outputs": [
        {
          "internalType": "uint40",
          "name": "orderId",
          "type": "uint40"
        }
      ],
      "stateMutability": "nonpayable",
      "type": "function"
    },
    {
      "inputs": [
        {
          "internalType": "uint256",
          "name": "amount",
          "type": "uint256"
        }
      ],
      "name": "deposit",
      "outputs": [],
      "stateMutability": "payable",
      "type": "function"
    },
    {
      "inputs": [
        {
          "internalType": "address",
          "name": "trader",
          "type": "address"
        }
      ],
      "name": "getAccountMarkets",
      "outputs": [
        {
          "internalType": "address[]",
          "name": "",
          "type": "address[]"
        }
      ],
      "stateMutability": "view",
      "type": "function"
    },
    {
      "inputs": [
        {
          "internalType": "address",
          "name": "trader",
          "type": "address"
        }
      ],
      "name": "getCollateralBalance",
      "outputs": [
        {
          "internalType": "int256",
          "name": "",
          "type": "int256"
        }
      ],
      "stateMutability": "view",
      "type": "function"
    },
    {
      "inputs": [
        {
          "internalType": "address",
          "name": "trader",
          "type": "address"
        },
        {
          "internalType": "address",
          "name": "market",
          "type": "address"
        },
        {
          "internalType": "bool",
          "name": "isBid",
          "type": "bool"
        }
      ],
      "name": "getLimitOrderIds",
      "outputs": [
        {
          "internalType": "uint40[]",
          "name": "",
          "type": "uint40[]"
        }
      ],
      "stateMutability": "view",
      "type": "function"
    },
    {
      "inputs": [
        {
          "internalType": "address",
          "name": "trader",
          "type": "address"
        },
        {
          "internalType": "address",
          "name": "market",
          "type": "address"
        }
      ],
      "name": "getLimitOrderInfo",
      "outputs": [
        {
          "internalType": "uint40",
          "name": "askRoot",
          "type": "uint40"
        },
        {
          "internalType": "uint40",
          "name": "bidRoot",
          "type": "uint40"
        },
        {
          "internalType": "uint256",
          "name": "totalBaseAsk",
          "type": "uint256"
        },
        {
          "internalType": "uint256",
          "name": "totalBaseBid",
          "type": "uint256"
        }
      ],
      "stateMutability": "view",
      "type": "function"
    },
    {
      "inputs": [
        {
          "internalType": "address",
          "name": "trader",
          "type": "address"
        },
        {
          "internalType": "address",
          "name": "market",
          "type": "address"
        },
        {
          "internalType": "bool",
          "name": "isBid",
          "type": "bool"
        }
      ],
      "name": "getLimitOrderSummaries",
      "outputs": [
        {
          "components": [
            {
              "internalType": "uint40",
              "name": "orderId",
              "type": "uint40"
            },
            {
              "internalType": "uint256",
              "name": "base",
              "type": "uint256"
            },
            {
              "internalType": "uint256",
              "name": "priceX96",
              "type": "uint256"
            }
          ],
          "internalType": "struct PerpdexStructs.LimitOrderSummary[]",
          "name": "",
          "type": "tuple[]"
        }
      ],
      "stateMutability": "view",
      "type": "function"
    },
    {
      "inputs": [
        {
          "internalType": "address",
          "name": "trader",
          "type": "address"
        },
        {
          "internalType": "address",
          "name": "market",
          "type": "address"
        }
      ],
      "name": "getMakerInfo",
      "outputs": [
        {
          "components": [
            {
              "internalType": "uint256",
              "name": "liquidity",
              "type": "uint256"
            },
            {
              "internalType": "uint256",
              "name": "cumBaseSharePerLiquidityX96",
              "type": "uint256"
            },
            {
              "internalType": "uint256",
              "name": "cumQuotePerLiquidityX96",
              "type": "uint256"
            }
          ],
          "internalType": "struct PerpdexStructs.MakerInfo",
          "name": "",
          "type": "tuple"
        }
      ],
      "stateMutability": "view",
      "type": "function"
    },
    {
      "inputs": [
        {
          "internalType": "address",
          "name": "trader",
          "type": "address"
        },
        {
          "internalType": "address",
          "name": "market",
          "type": "address"
        }
      ],
      "name": "getOpenPositionNotional",
      "outputs": [
        {
          "internalType": "uint256",
          "name": "",
          "type": "uint256"
        }
      ],
      "stateMutability": "view",
      "type": "function"
    },
    {
      "inputs": [
        {
          "internalType": "address",
          "name": "trader",
          "type": "address"
        },
        {
          "internalType": "address",
          "name": "market",
          "type": "address"
        }
      ],
      "name": "getOpenPositionShare",
      "outputs": [
        {
          "internalType": "uint256",
          "name": "",
          "type": "uint256"
        }
      ],
      "stateMutability": "view",
      "type": "function"
    },
    {
      "inputs": [
        {
          "internalType": "address",
          "name": "trader",
          "type": "address"
        },
        {
          "internalType": "address",
          "name": "market",
          "type": "address"
        }
      ],
      "name": "getPositionNotional",
      "outputs": [
        {
          "internalType": "int256",
          "name": "",
          "type": "int256"
        }
      ],
      "stateMutability": "view",
      "type": "function"
    },
    {
      "inputs": [
        {
          "internalType": "address",
          "name": "trader",
          "type": "address"
        },
        {
          "internalType": "address",
          "name": "market",
          "type": "address"
        }
      ],
      "name": "getPositionShare",
      "outputs": [
        {
          "internalType": "int256",
          "name": "",
          "type": "int256"
        }
      ],
      "stateMutability": "view",
      "type": "function"
    },
    {
      "inputs": [
        {
          "internalType": "address",
          "name": "trader",
          "type": "address"
        },
        {
          "internalType": "address",
          "name": "market",
          "type": "address"
        }
      ],
      "name": "getTakerInfo",
      "outputs": [
        {
          "components": [
            {
              "internalType": "int256",
              "name": "baseBalanceShare",
              "type": "int256"
            },
            {
              "internalType": "int256",
              "name": "quoteBalance",
              "type": "int256"
            }
          ],
          "internalType": "struct PerpdexStructs.TakerInfo",
          "name": "",
          "type": "tuple"
        }
      ],
      "stateMutability": "view",
      "type": "function"
    },
    {
      "inputs": [
        {
          "internalType": "address",
          "name": "trader",
          "type": "address"
        },
        {
          "internalType": "address",
          "name": "market",
          "type": "address"
        }
      ],
      "name": "getTakerInfoLazy",
      "outputs": [
        {
          "components": [
            {
              "internalType": "int256",
              "name": "baseBalanceShare",
              "type": "int256"
            },
            {
              "internalType": "int256",
              "name": "quoteBalance",
              "type": "int256"
            }
          ],
          "internalType": "struct PerpdexStructs.TakerInfo",
          "name": "",
          "type": "tuple"
        }
      ],
      "stateMutability": "view",
      "type": "function"
    },
    {
      "inputs": [
        {
          "internalType": "address",
          "name": "trader",
          "type": "address"
        }
      ],
      "name": "getTotalAccountValue",
      "outputs": [
        {
          "internalType": "int256",
          "name": "",
          "type": "int256"
        }
      ],
      "stateMutability": "view",
      "type": "function"
    },
    {
      "inputs": [
        {
          "internalType": "address",
          "name": "trader",
          "type": "address"
        }
      ],
      "name": "getTotalOpenPositionNotional",
      "outputs": [
        {
          "internalType": "uint256",
          "name": "",
          "type": "uint256"
        }
      ],
      "stateMutability": "view",
      "type": "function"
    },
    {
      "inputs": [
        {
          "internalType": "address",
          "name": "trader",
          "type": "address"
        }
      ],
      "name": "getTotalPositionNotional",
      "outputs": [
        {
          "internalType": "uint256",
          "name": "",
          "type": "uint256"
        }
      ],
      "stateMutability": "view",
      "type": "function"
    },
    {
      "inputs": [
        {
          "internalType": "address",
          "name": "trader",
          "type": "address"
        }
      ],
      "name": "hasEnoughInitialMargin",
      "outputs": [
        {
          "internalType": "bool",
          "name": "",
          "type": "bool"
        }
      ],
      "stateMutability": "view",
      "type": "function"
    },
    {
      "inputs": [
        {
          "internalType": "address",
          "name": "trader",
          "type": "address"
        }
      ],
      "name": "hasEnoughMaintenanceMargin",
      "outputs": [
        {
          "internalType": "bool",
          "name": "",
          "type": "bool"
        }
      ],
      "stateMutability": "view",
      "type": "function"
    },
    {
      "inputs": [],
      "name": "imRatio",
      "outputs": [
        {
          "internalType": "uint24",
          "name": "",
          "type": "uint24"
        }
      ],
      "stateMutability": "view",
      "type": "function"
    },
    {
      "inputs": [],
      "name": "insuranceFundInfo",
      "outputs": [
        {
          "internalType": "uint256",
          "name": "balance",
          "type": "uint256"
        },
        {
          "internalType": "uint256",
          "name": "liquidationRewardBalance",
          "type": "uint256"
        }
      ],
      "stateMutability": "view",
      "type": "function"
    },
    {
      "inputs": [
        {
          "internalType": "address",
          "name": "trader",
          "type": "address"
        }
      ],
      "name": "isLiquidationFree",
      "outputs": [
        {
          "internalType": "bool",
          "name": "",
          "type": "bool"
        }
      ],
      "stateMutability": "view",
      "type": "function"
    },
    {
      "inputs": [],
      "name": "liquidationRewardConfig",
      "outputs": [
        {
          "internalType": "uint24",
          "name": "rewardRatio",
          "type": "uint24"
        },
        {
          "internalType": "uint16",
          "name": "smoothEmaTime",
          "type": "uint16"
        }
      ],
      "stateMutability": "view",
      "type": "function"
    },
    {
      "inputs": [
        {
          "internalType": "address",
          "name": "",
          "type": "address"
        }
      ],
      "name": "marketStatuses",
      "outputs": [
        {
          "internalType": "enum PerpdexStructs.MarketStatus",
          "name": "",
          "type": "uint8"
        }
      ],
      "stateMutability": "view",
      "type": "function"
    },
    {
      "inputs": [],
      "name": "maxMarketsPerAccount",
      "outputs": [
        {
          "internalType": "uint8",
          "name": "",
          "type": "uint8"
        }
      ],
      "stateMutability": "view",
      "type": "function"
    },
    {
      "inputs": [],
      "name": "maxOrdersPerAccount",
      "outputs": [
        {
          "internalType": "uint8",
          "name": "",
          "type": "uint8"
        }
      ],
      "stateMutability": "view",
      "type": "function"
    },
    {
      "inputs": [
        {
          "components": [
            {
              "internalType": "address",
              "name": "trader",
              "type": "address"
            },
            {
              "internalType": "address",
              "name": "market",
              "type": "address"
            },
            {
              "internalType": "address",
              "name": "caller",
              "type": "address"
            },
            {
              "internalType": "bool",
              "name": "isBaseToQuote",
              "type": "bool"
            },
            {
              "internalType": "bool",
              "name": "isExactInput",
              "type": "bool"
            }
          ],
          "internalType": "struct IPerpdexExchange.MaxTradeParams",
          "name": "params",
          "type": "tuple"
        }
      ],
      "name": "maxTrade",
      "outputs": [
        {
          "internalType": "uint256",
          "name": "amount",
          "type": "uint256"
        }
      ],
      "stateMutability": "view",
      "type": "function"
    },
    {
      "inputs": [],
      "name": "mmRatio",
      "outputs": [
        {
          "internalType": "uint24",
          "name": "",
          "type": "uint24"
        }
      ],
      "stateMutability": "view",
      "type": "function"
    },
    {
      "inputs": [
        {
          "internalType": "bytes[]",
          "name": "data",
          "type": "bytes[]"
        }
      ],
      "name": "multicall",
      "outputs": [
        {
          "internalType": "bytes[]",
          "name": "results",
          "type": "bytes[]"
        }
      ],
      "stateMutability": "nonpayable",
      "type": "function"
    },
    {
      "inputs": [
        {
          "internalType": "address",
          "name": "",
          "type": "address"
        },
        {
          "internalType": "bool",
          "name": "",
          "type": "bool"
        },
        {
          "internalType": "uint40",
          "name": "",
          "type": "uint40"
        }
      ],
      "name": "orderIdToTrader",
      "outputs": [
        {
          "internalType": "address",
          "name": "",
          "type": "address"
        }
      ],
      "stateMutability": "view",
      "type": "function"
    },
    {
      "inputs": [],
      "name": "owner",
      "outputs": [
        {
          "internalType": "address",
          "name": "",
          "type": "address"
        }
      ],
      "stateMutability": "view",
      "type": "function"
    },
    {
      "inputs": [
        {
          "components": [
            {
              "internalType": "address",
              "name": "trader",
              "type": "address"
            },
            {
              "internalType": "address",
              "name": "market",
              "type": "address"
            },
            {
              "internalType": "address",
              "name": "caller",
              "type": "address"
            },
            {
              "internalType": "bool",
              "name": "isBaseToQuote",
              "type": "bool"
            },
            {
              "internalType": "bool",
              "name": "isExactInput",
              "type": "bool"
            },
            {
              "internalType": "uint256",
              "name": "amount",
              "type": "uint256"
            },
            {
              "internalType": "uint256",
              "name": "oppositeAmountBound",
              "type": "uint256"
            }
          ],
          "internalType": "struct IPerpdexExchange.PreviewTradeParams",
          "name": "params",
          "type": "tuple"
        }
      ],
      "name": "previewTrade",
      "outputs": [
        {
          "internalType": "uint256",
          "name": "oppositeAmount",
          "type": "uint256"
        }
      ],
      "stateMutability": "view",
      "type": "function"
    },
    {
      "inputs": [],
      "name": "protocolFeeRatio",
      "outputs": [
        {
          "internalType": "uint24",
          "name": "",
          "type": "uint24"
        }
      ],
      "stateMutability": "view",
      "type": "function"
    },
    {
      "inputs": [],
      "name": "protocolInfo",
      "outputs": [
        {
          "internalType": "uint256",
          "name": "protocolFee",
          "type": "uint256"
        }
      ],
      "stateMutability": "view",
      "type": "function"
    },
    {
      "inputs": [],
      "name": "quoteDecimals",
      "outputs": [
        {
          "internalType": "uint8",
          "name": "",
          "type": "uint8"
        }
      ],
      "stateMutability": "view",
      "type": "function"
    },
    {
      "inputs": [
        {
          "components": [
            {
              "internalType": "address",
              "name": "trader",
              "type": "address"
            },
            {
              "internalType": "address",
              "name": "market",
              "type": "address"
            },
            {
              "internalType": "uint256",
              "name": "liquidity",
              "type": "uint256"
            },
            {
              "internalType": "uint256",
              "name": "minBase",
              "type": "uint256"
            },
            {
              "internalType": "uint256",
              "name": "minQuote",
              "type": "uint256"
            },
            {
              "internalType": "uint256",
              "name": "deadline",
              "type": "uint256"
            }
          ],
          "internalType": "struct IPerpdexExchange.RemoveLiquidityParams",
          "name": "params",
          "type": "tuple"
        }
      ],
      "name": "removeLiquidity",
      "outputs": [
        {
          "internalType": "uint256",
          "name": "base",
          "type": "uint256"
        },
        {
          "internalType": "uint256",
          "name": "quote",
          "type": "uint256"
        }
      ],
      "stateMutability": "nonpayable",
      "type": "function"
    },
    {
      "inputs": [],
      "name": "renounceOwnership",
      "outputs": [],
      "stateMutability": "nonpayable",
      "type": "function"
    },
    {
      "inputs": [
        {
          "internalType": "address",
          "name": "trader",
          "type": "address"
        },
        {
          "internalType": "int256",
          "name": "balance",
          "type": "int256"
        }
      ],
      "name": "setCollateralBalance",
      "outputs": [],
      "stateMutability": "nonpayable",
      "type": "function"
    },
    {
      "inputs": [
        {
          "internalType": "uint24",
          "name": "value",
          "type": "uint24"
        }
      ],
      "name": "setImRatio",
      "outputs": [],
      "stateMutability": "nonpayable",
      "type": "function"
    },
    {
      "inputs": [
        {
          "components": [
            {
              "internalType": "uint24",
              "name": "rewardRatio",
              "type": "uint24"
            },
            {
              "internalType": "uint16",
              "name": "smoothEmaTime",
              "type": "uint16"
            }
          ],
          "internalType": "struct PerpdexStructs.LiquidationRewardConfig",
          "name": "value",
          "type": "tuple"
        }
      ],
      "name": "setLiquidationRewardConfig",
      "outputs": [],
      "stateMutability": "nonpayable",
      "type": "function"
    },
    {
      "inputs": [
        {
          "internalType": "address",
          "name": "market",
          "type": "address"
        },
        {
          "internalType": "enum PerpdexStructs.MarketStatus",
          "name": "status",
          "type": "uint8"
        }
      ],
      "name": "setMarketStatus",
      "outputs": [],
      "stateMutability": "nonpayable",
      "type": "function"
    },
    {
      "inputs": [
        {
          "internalType": "uint8",
          "name": "value",
          "type": "uint8"
        }
      ],
      "name": "setMaxMarketsPerAccount",
      "outputs": [],
      "stateMutability": "nonpayable",
      "type": "function"
    },
    {
      "inputs": [
        {
          "internalType": "uint8",
          "name": "value",
          "type": "uint8"
        }
      ],
      "name": "setMaxOrdersPerAccount",
      "outputs": [],
      "stateMutability": "nonpayable",
      "type": "function"
    },
    {
      "inputs": [
        {
          "internalType": "uint24",
          "name": "value",
          "type": "uint24"
        }
      ],
      "name": "setMmRatio",
      "outputs": [],
      "stateMutability": "nonpayable",
      "type": "function"
    },
    {
      "inputs": [
        {
          "internalType": "uint24",
          "name": "value",
          "type": "uint24"
        }
      ],
      "name": "setProtocolFeeRatio",
      "outputs": [],
      "stateMutability": "nonpayable",
      "type": "function"
    },
    {
      "inputs": [],
      "name": "settlementToken",
      "outputs": [
        {
          "internalType": "address",
          "name": "",
          "type": "address"
        }
      ],
      "stateMutability": "view",
      "type": "function"
    },
    {
      "inputs": [
        {
          "components": [
            {
              "internalType": "address",
              "name": "trader",
              "type": "address"
            },
            {
              "internalType": "address",
              "name": "market",
              "type": "address"
            },
            {
              "internalType": "bool",
              "name": "isBaseToQuote",
              "type": "bool"
            },
            {
              "internalType": "bool",
              "name": "isExactInput",
              "type": "bool"
            },
            {
              "internalType": "uint256",
              "name": "amount",
              "type": "uint256"
            },
            {
              "internalType": "uint256",
              "name": "oppositeAmountBound",
              "type": "uint256"
            },
            {
              "internalType": "uint256",
              "name": "deadline",
              "type": "uint256"
            }
          ],
          "internalType": "struct IPerpdexExchange.TradeParams",
          "name": "params",
          "type": "tuple"
        }
      ],
      "name": "trade",
      "outputs": [
        {
          "internalType": "uint256",
          "name": "oppositeAmount",
          "type": "uint256"
        }
      ],
      "stateMutability": "nonpayable",
      "type": "function"
    },
    {
      "inputs": [
        {
          "internalType": "address",
          "name": "newOwner",
          "type": "address"
        }
      ],
      "name": "transferOwnership",
      "outputs": [],
      "stateMutability": "nonpayable",
      "type": "function"
    },
    {
      "inputs": [
        {
          "internalType": "uint256",
          "name": "amount",
          "type": "uint256"
        }
      ],
      "name": "transferProtocolFee",
      "outputs": [],
      "stateMutability": "nonpayable",
      "type": "function"
    },
    {
      "inputs": [
        {
          "internalType": "uint256",
          "name": "amount",
          "type": "uint256"
        }
      ],
      "name": "withdraw",
      "outputs": [],
      "stateMutability": "nonpayable",
      "type": "function"
    }
  ],
  "transactionHash": "0xc8b99a5e76bbd671464fe54ff768d7ae3ac3b3527a25f96a0b767d6d85dd18a6",
  "args": [
    "0x0000000000000000000000000000000000000000"
  ],
  "numDeployments": 3,
  "solcInputHash": "bf634fa5fb0fe32291427f66143a7d96",
  "bytecode": "0x6007805466c3500186a028106001600160581b031990911617905560e060405262030d4060a052606460c0526008805464ffffffffff19166364030d401790553480156200004c57600080fd5b50604051620065ad380380620065ad8339810160408190526200006f9162000628565b60408051600080825260208201909252600190915533908290620000938362000229565b6200009e8362000229565b6001600160a01b0382161580620000cf5750620000cf826001600160a01b03166200027b60201b6200345f1760201c565b620001215760405162461bcd60e51b815260206004820152601b60248201527f50455f433a20746f6b656e206164647265737320696e76616c6964000000000060448201526064015b60405180910390fd5b6001600160a01b03821660805260005b81518110156200017d576200016a8282815181106200015457620001546200065a565b602002602001015160016200028a60201b60201c565b620001758162000670565b905062000131565b5046925050600482149050806200019657506201388181145b80620001a25750605181145b80620001ac575080155b80620001ba575062066eeb81145b80620001c65750604581145b80620001d35750617a6981145b620002215760405162461bcd60e51b815260206004820152601360248201527f4450455f433a20746573746e6574206f6e6c7900000000000000000000000000604482015260640162000118565b5050620006d7565b600180546001600160a01b038381166001600160a01b0319831681179093556040519116919082907f8be0079c531659141344cd1fd0a4f28419497f9722a3daafe3b4186f6b6457e090600090a35050565b6001600160a01b03163b151590565b8060028111156200029f576200029f62000698565b6001600160a01b03831660009081526009602052604090205460ff166002811115620002cf57620002cf62000698565b03620002d9575050565b6001816002811115620002f057620002f062000698565b03620004af5762000315826001600160a01b03166200027b60201b6200345f1760201c565b620003635760405162461bcd60e51b815260206004820152601f60248201527f50455f53494d413a206d61726b6574206164647265737320696e76616c696400604482015260640162000118565b306001600160a01b0316826001600160a01b031663d2f7265a6040518163ffffffff1660e01b8152600401602060405180830381865afa158015620003ac573d6000803e3d6000fd5b505050506040513d601f19601f82011682018060405250810190620003d2919062000628565b6001600160a01b0316146200042a5760405162461bcd60e51b815260206004820152601b60248201527f50455f53494d413a20646966666572656e742065786368616e67650000000000604482015260640162000118565b6001600160a01b03821660009081526009602052604081205460ff1660028111156200045a576200045a62000698565b14620004a95760405162461bcd60e51b815260206004820152601660248201527f50455f53494d413a206d61726b657420636c6f73656400000000000000000000604482015260640162000118565b62000520565b6002816002811115620004c657620004c662000698565b03620004d757620004a982620005a4565b60405162461bcd60e51b815260206004820152601760248201527f50455f53494d413a20696e76616c696420737461747573000000000000000000604482015260640162000118565b6001600160a01b0382166000908152600960205260409020805482919060ff1916600183600281111562000558576200055862000698565b0217905550816001600160a01b03167f74254d01f8ce923659c1e8739f33585649bc64b648a0382f22174528e5da382e82604051620005989190620006ae565b60405180910390a25050565b60016001600160a01b03821660009081526009602052604090205460ff166002811115620005d657620005d662000698565b14620006255760405162461bcd60e51b815260206004820152601760248201527f50455f434d4f3a206d61726b6574206e6f74206f70656e000000000000000000604482015260640162000118565b50565b6000602082840312156200063b57600080fd5b81516001600160a01b03811681146200065357600080fd5b9392505050565b634e487b7160e01b600052603260045260246000fd5b6000600182016200069157634e487b7160e01b600052601160045260246000fd5b5060010190565b634e487b7160e01b600052602160045260246000fd5b6020810160038310620006d157634e487b7160e01b600052602160045260246000fd5b91905290565b608051615ea562000708600039600081816106b2015281816112ef015281816121f601526123a10152615ea56000f3fe6080604052600436106102d55760003560e01c80638da5cb5b1161017b578063c9ca7b18116100d7578063e671be1711610085578063e671be1714610b09578063e8c41ef914610b29578063ec6cca8414610b5f578063ef21b7e814610b7f578063f2fde38b14610bbc578063f652b52714610bdc578063fed4063214610bf657600080fd5b8063c9ca7b18146109e7578063ca5b721e14610a07578063cffe855614610a27578063d11102c514610a47578063d1ce35e314610a74578063ddad7e9714610a94578063dfe1cb9214610ace57600080fd5b80639f044f31116101345780639f044f31146108d2578063a616c66c146108f5578063ac3732b41461092a578063ac9650d81461094a578063b53c512514610977578063b6b55f25146109b9578063c66fa8e6146109cc57600080fd5b80638da5cb5b146107e65780638ec992941461080457806393420cf41461082457806394887af71461083b578063996fbf94146108825780639dce9e19146108a257600080fd5b80633a92105111610235578063715018a6116101e3578063715018a61461064857806373f625011461065d5780637a27d9f61461067d5780637b9e618d146106a05780637c88490a146106d457806387cad0bf146106f457806388060d8b1461075457600080fd5b80633a921051146105665780633d46396a146105865780633fd1e2bd146105a65780634b4aa735146105bb5780634ebd6bb4146105db5780635ddd1650146105fb5780636e838bad1461062857600080fd5b80632d67669c116102925780632d67669c146103c05780632e1a7d4d146103e05780632e784343146104005780632f60a151146104845780632fd99bf4146104ba57806331e60ddf1461051957806333ff15771461054657600080fd5b8063030ee0cb146102da5780630674fa41146102fc5780630729e07a1461032f57806318f8c0cd1461034f5780631a8e22e6146103805780632703ee85146103a0575b600080fd5b3480156102e657600080fd5b506102fa6102f536600461521d565b610c16565b005b34801561030857600080fd5b5061031c610317366004615255565b610ca4565b6040519081526020015b60405180910390f35b34801561033b57600080fd5b506102fa61034a366004615272565b610d38565b34801561035b57600080fd5b5060075461036e90610100900460ff1681565b60405160ff9091168152602001610326565b34801561038c57600080fd5b506102fa61039b366004615255565b611078565b3480156103ac57600080fd5b5061031c6103bb366004615255565b61113e565b3480156103cc57600080fd5b5061031c6103db36600461529c565b61118f565b3480156103ec57600080fd5b506102fa6103fb3660046152b8565b611297565b34801561040c57600080fd5b5061046961041b3660046152d1565b604080518082018252600080825260209182018190526001600160a01b0394851681526002825282812093909416845291825291829020825180840190935280548352600101549082015290565b60408051825181526020928301519281019290925201610326565b34801561049057600080fd5b506007546104a69062010000900462ffffff1681565b60405162ffffff9091168152602001610326565b3480156104c657600080fd5b506105016104d536600461532b565b60066020908152600093845260408085208252928452828420905282529020546001600160a01b031681565b6040516001600160a01b039091168152602001610326565b34801561052557600080fd5b50610539610534366004615376565b611406565b60405161032691906153b6565b34801561055257600080fd5b5061031c6105613660046152d1565b6114aa565b34801561057257600080fd5b5061031c610581366004615255565b61153b565b34801561059257600080fd5b506102fa6105a13660046152b8565b61158c565b3480156105b257600080fd5b5061036e601281565b3480156105c757600080fd5b5061031c6105d6366004615255565b61168b565b3480156105e757600080fd5b506104696105f63660046152d1565b6116dc565b34801561060757600080fd5b5061061b610616366004615376565b61177d565b6040516103269190615401565b34801561063457600080fd5b506102fa610643366004615472565b611817565b34801561065457600080fd5b506102fa611943565b34801561066957600080fd5b506102fa61067836600461521d565b611957565b34801561068957600080fd5b506007546104a690600160401b900462ffffff1681565b3480156106ac57600080fd5b506105017f000000000000000000000000000000000000000000000000000000000000000081565b3480156106e057600080fd5b5061031c6106ef3660046152d1565b6119c8565b34801561070057600080fd5b5061073c61070f366004615255565b60026020908152600091825260409182902082519182019092526003820154815260059091015460ff1682565b604080519251835260ff909116602083015201610326565b34801561076057600080fd5b506107bd61076f3660046152d1565b6001600160a01b03918216600090815260026020818152604080842094909516835292810190925291909120805491810154600482015460059092015464ffffffffff938416949390911692565b6040805164ffffffffff9586168152949093166020850152918301526060820152608001610326565b3480156107f257600080fd5b506001546001600160a01b0316610501565b34801561081057600080fd5b506102fa61081f36600461548f565b611a18565b34801561083057600080fd5b5060055461031c9081565b34801561084757600080fd5b506008546108649062ffffff8116906301000000900461ffff1682565b6040805162ffffff909316835261ffff909116602083015201610326565b34801561088e57600080fd5b5061031c61089d3660046152d1565b611a5a565b3480156108ae57600080fd5b506108c26108bd366004615255565b611aaa565b6040519015158152602001610326565b3480156108de57600080fd5b506007546104a690600160281b900462ffffff1681565b34801561090157600080fd5b506109156109103660046154d3565b611b4d565b60408051928352602083019190915201610326565b34801561093657600080fd5b506102fa6109453660046154ef565b611e1e565b34801561095657600080fd5b5061096a610965366004615501565b611f7b565b60405161032691906155c5565b34801561098357600080fd5b506109976109923660046152d1565b61206f565b6040805182518152602080840151908201529181015190820152606001610326565b6102fa6109c73660046152b8565b6120e3565b3480156109d857600080fd5b50600354600454610915919082565b3480156109f357600080fd5b506102fa610a02366004615472565b61249b565b348015610a1357600080fd5b5061031c610a223660046152d1565b6125c3565b348015610a3357600080fd5b5061031c610a42366004615639565b612613565b348015610a5357600080fd5b50610a67610a62366004615255565b61272b565b6040516103269190615655565b348015610a8057600080fd5b506102fa610a8f366004615472565b6127a4565b348015610aa057600080fd5b506102fa610aaf366004615696565b6001600160a01b03909116600090815260026020526040902060030155565b348015610ada57600080fd5b50610aee610ae93660046154d3565b612871565b60408051938452602084019290925290820152606001610326565b348015610b1557600080fd5b5061031c610b24366004615639565b612b17565b348015610b3557600080fd5b50610b49610b4436600461529c565b613057565b60405164ffffffffff9091168152602001610326565b348015610b6b57600080fd5b506108c2610b7a366004615255565b613332565b348015610b8b57600080fd5b50610baf610b9a366004615255565b60096020526000908152604090205460ff1681565b60405161032691906156d8565b348015610bc857600080fd5b506102fa610bd7366004615255565b613397565b348015610be857600080fd5b5060075461036e9060ff1681565b348015610c0257600080fd5b506108c2610c11366004615255565b613410565b610c1e61346e565b600260005403610c495760405162461bcd60e51b8152600401610c4090615700565b60405180910390fd5b60026000556007805461ff00191661010060ff8416908102919091179091556040519081527fa1c52f9241e2609b5e6bd1b508707a109021d174cc16f3b16215c457d4bbddfa906020015b60405180910390a1506001600055565b6001600160a01b038116600090815260026020526040808220905163d73fd34160e01b81526004810191909152736FA1DD7b8A37f278f1FB83Ad47b7E9322f65Ac679063d73fd341906024015b602060405180830381865af4158015610d0e573d6000803e3d6000fd5b505050506040513d601f19601f82011682018060405250810190610d329190615737565b92915050565b600260005403610d5a5760405162461bcd60e51b8152600401610c4090615700565b60026000556060810135610d6d816134c8565b610d7a6020830183615255565b610d838161350a565b6000600681610d956020870187615255565b6001600160a01b03166001600160a01b031681526020019081526020016000206000856020016020810190610dca9190615750565b1515151581526020019081526020016000206000856040016020810190610df1919061576d565b64ffffffffff1681526020810191909152604001600020546001600160a01b0316905080610e5b5760405162461bcd60e51b8152602060048201526017602482015276141157d0d313ce881bdc99195c881b9bdd08195e1a5cdd604a1b6044820152606401610c40565b610e6481613580565b6001600160a01b0381166000908152600260209081526040808320815160c08101909252733FE8D206CDA9892c1cB1ab515895d955A965577B92637ae9aeb292908190610eb3908b018b615255565b6001600160a01b03168152602001610ed160608b0160408c0161576d565b64ffffffffff168152602001896020016020810190610ef09190615750565b15158152600754600160281b900462ffffff166020820152604001336001600160a01b0390811688821614825260075460ff9081166020938401526040805160e088901b6001600160e01b03191681526004810196909652845190921660248601529183015164ffffffffff16604485015282015115156064840152606082015162ffffff1660848401526080820151151560a484015260a0909101511660c482015260e401602060405180830381865af4158015610fb3573d6000803e3d6000fd5b505050506040513d601f19601f82011682018060405250810190610fd7919061578a565b905080610fe5576000610fe7565b335b6001600160a01b0316610ffd6020870187615255565b6001600160a01b039081169084167f4de6bf440f231c89a9a5151794265a35b57c248083faeae83678c9259a7dd12361103c60408a0160208b01615750565b61104c60608b0160408c0161576d565b60408051921515835264ffffffffff90911660208301520160405180910390a450506001600055505050565b60026000540361109a5760405162461bcd60e51b8152600401610c4090615700565b6002600055806110a98161360d565b336110b381613580565b6001600160a01b038116600090815260026020526040908190209051630530e4fd60e41b8152736FA1DD7b8A37f278f1FB83Ad47b7E9322f65Ac679163530e4fd091611104919087906004016157a7565b60006040518083038186803b15801561111c57600080fd5b505af4158015611130573d6000803e3d6000fd5b505060016000555050505050565b6001600160a01b03811660009081526002602052604080822090516344ae957f60e11b81526004810191909152736FA1DD7b8A37f278f1FB83Ad47b7E9322f65Ac679063895d2afe90602401610cf1565b60006001600960006111a76040860160208701615255565b6001600160a01b0316815260208101919091526040016000205460ff1660028111156111d5576111d56156c2565b146111e257506000919050565b60006111f16020840184615255565b905060006112056060850160408601615255565b905061128f60026000846001600160a01b03166001600160a01b031681526020019081526020016000208560200160208101906112429190615255565b6112526080880160608901615750565b61126260a0890160808a01615750565b60075462ffffff600160281b8204811691600160401b9004166001600160a01b0389811690891614613685565b949350505050565b6002600054036112b95760405162461bcd60e51b8152600401610c4090615700565b6002600055336112c881613580565b6001600160a01b0381811660008181526002602090815260409182902082516080810184527f00000000000000000000000000000000000000000000000000000000000000008616815291820187815282840194855260075462010000900462ffffff908116606085019081529451638b72b4c760e01b815260048101939093529251861660248301525160448201529251909316606483015251909116608482015273E0b84bC4e4b1Cdd2CA951641E59fFA57d8BFB6DB90638b72b4c79060a40160006040518083038186803b1580156113a257600080fd5b505af41580156113b6573d6000803e3d6000fd5b50505050806001600160a01b03167f7084f5476618d8e60b11ef0d7d3f06914655adb8793e28ff7f018d4c76d505d5836040516113f591815260200190565b60405180910390a250506001600055565b6001600160a01b03831660009081526002602052604090819020905163733242af60e11b8152606091733FE8D206CDA9892c1cB1ab515895d955A965577B9163e664855e9161145b91879087906004016157be565b600060405180830381865af4158015611478573d6000803e3d6000fd5b505050506040513d6000823e601f3d908101601f191682016040526114a09190810190615870565b90505b9392505050565b6001600160a01b0382166000908152600260205260408082209051632de9906b60e11b8152736FA1DD7b8A37f278f1FB83Ad47b7E9322f65Ac6791635bd320d6916114fa919086906004016157a7565b602060405180830381865af4158015611517573d6000803e3d6000fd5b505050506040513d601f19601f820116820180604052508101906114a39190615737565b6001600160a01b0381166000908152600260205260408082209051631caf045760e31b81526004810191909152736FA1DD7b8A37f278f1FB83Ad47b7E9322f65Ac679063e57822b890602401610cf1565b61159461346e565b6002600054036115b65760405162461bcd60e51b8152600401610c4090615700565b6002600055336115c581613580565b6001600160a01b0381166000908152600260205260409081902090516333a4aff760e21b81526004810191909152600560248201526044810183905273E0b84bC4e4b1Cdd2CA951641E59fFA57d8BFB6DB9063ce92bfdc9060640160006040518083038186803b15801561163857600080fd5b505af415801561164c573d6000803e3d6000fd5b50505050806001600160a01b03167f0880b0e717a57f3b5cbd3fc19396ae3c8cdee5c624c9289477869c38014c8495836040516113f591815260200190565b6001600160a01b03811660009081526002602052604080822090516367dd27b160e01b81526004810191909152736FA1DD7b8A37f278f1FB83Ad47b7E9322f65Ac67906367dd27b190602401610cf1565b604080518082018252600080825260208083018290526001600160a01b038616825260029052829020915163195bd60760e31b81529091736FA1DD7b8A37f278f1FB83Ad47b7E9322f65Ac679163cadeb0389161173d9186906004016157a7565b6040805180830381865af4158015611759573d6000803e3d6000fd5b505050506040513d601f19601f820116820180604052508101906114a39190615903565b6001600160a01b038316600090815260026020526040908190209051632e9e3b9360e11b8152606091733FE8D206CDA9892c1cB1ab515895d955A965577B91635d3c7726916117d291879087906004016157be565b600060405180830381865af41580156117ef573d6000803e3d6000fd5b505050506040513d6000823e601f3d908101601f191682016040526114a09190810190615951565b61181f61346e565b6002600054036118415760405162461bcd60e51b8152600401610c4090615700565b6002600055620f424062ffffff8216106118915760405162461bcd60e51b815260206004820152601160248201527050455f5349523a20746f6f206c6172676560781b6044820152606401610c40565b60075462ffffff600160281b909104811690821610156118f35760405162461bcd60e51b815260206004820152601c60248201527f50455f5349523a20736d616c6c6572207468616e206d6d526174696f000000006044820152606401610c40565b6007805464ffffff000019166201000062ffffff8416908102919091179091556040519081527f04f9c1a24c6543f4b91577d82af28fb7ef6d7b9fe46acd0e5c36ef17073b94e690602001610c94565b61194b61346e565b61195560006137d2565b565b61195f61346e565b6002600054036119815760405162461bcd60e51b8152600401610c4090615700565b60026000556007805460ff191660ff83169081179091556040519081527fa7b4760b38e2a630f3073fcd5119972cbf81bd50e3761f86534a69661caf811090602001610c94565b6001600160a01b038216600090815260026020526040808220905163af77d70760e01b8152736FA1DD7b8A37f278f1FB83Ad47b7E9322f65Ac679163af77d707916114fa919086906004016157a7565b611a2061346e565b600260005403611a425760405162461bcd60e51b8152600401610c4090615700565b6002600055611a518282613824565b50506001600055565b6001600160a01b0382166000908152600260205260408082209051630d832e2160e31b8152736FA1DD7b8A37f278f1FB83Ad47b7E9322f65Ac6791636c197108916114fa919086906004016157a7565b6001600160a01b0381166000908152600260205260408082206007549151633c7e525f60e01b81526004810191909152600160281b90910462ffffff166024820152736FA1DD7b8A37f278f1FB83Ad47b7E9322f65Ac6790633c7e525f906044015b602060405180830381865af4158015611b29573d6000803e3d6000fd5b505050506040513d601f19601f82011682018060405250810190610d32919061578a565b600080600260005403611b725760405162461bcd60e51b8152600401610c4090615700565b600260005560a0830135611b85816134c8565b611b956040850160208601615255565b611b9e8161350a565b611bb3611bae6020870187615255565b613580565b600073126268755195b45136efDE418b0513632bda3eE6639b6bfbdf600283611bdf60208b018b615255565b6001600160a01b03166001600160a01b031681526020019081526020016000206040518060e001604052808a6020016020810190611c1d9190615255565b6001600160a01b0316815260408b81013560208301526060808d0135918301919091526080808d013591830191909152600754600160281b810462ffffff169183019190915260ff1660a082015260c001336001600160a01b0316611c8560208d018d615255565b6001600160a01b03908116919091149091526040805160e086901b6001600160e01b031916815260048101949094528251909116602484015260208201516044840152810151606483015260608101516084830152608081015162ffffff1660a483015260a081015160ff1660c483015260c00151151560e48201526101040160c060405180830381865af4158015611d22573d6000803e3d6000fd5b505050506040513d601f19601f82011682018060405250810190611d469190615a0b565b9050611d586040870160208801615255565b6001600160a01b0316611d6e6020880188615255565b6001600160a01b03167f6412738c4a8b04483cde318a630d4c268654a7ebd52c9ef2c516e5e8520a4fd88360a00151611da8576000611daa565b335b84516020808701516040808901516060808b01516080808d015185516001600160a01b039a909a168a5296890197909752878401949094528f830135908701529385019390935260a084015260c0830152519081900360e00190a38051602090910151600160005590969095509350505050565b611e2661346e565b600260005403611e485760405162461bcd60e51b8152600401610c4090615700565b6002600055620f4240611e5e6020830183615472565b62ffffff1610611eb05760405162461bcd60e51b815260206004820152601f60248201527f50455f534c52433a20746f6f206c617267652072657761726420726174696f006044820152606401610c40565b6000611ec26040830160208401615a9a565b61ffff1611611f0f5760405162461bcd60e51b815260206004820152601960248201527850455f534c52433a20656d612074696d65206973207a65726f60381b6044820152606401610c40565b806008611f1c8282615ab7565b507f1185c4964ca5cd3d88d5dfbc1fb65b84d5533e3354f3b2163e8e1c0f35bca0e19050611f4d6020830183615472565b611f5d6040840160208501615a9a565b6040805162ffffff909316835261ffff909116602083015201610c94565b6060816001600160401b03811115611f9557611f956157df565b604051908082528060200260200182016040528015611fc857816020015b6060815260200190600190039081611fb35790505b50905060005b828110156120685761203830858584818110611fec57611fec615b05565b9050602002810190611ffe9190615b1b565b8080601f016020809104026020016040519081016040528093929190818152602001838380828437600092019190915250613b0092505050565b82828151811061204a5761204a615b05565b6020026020010181905250808061206090615b7e565b915050611fce565b5092915050565b61209360405180606001604052806000815260200160008152602001600081525090565b506001600160a01b03808316600090815260026020818152604080842094861684526001948501825292839020835160608101855281548152948101549185019190915201549082015292915050565b6002600054036121055760405162461bcd60e51b8152600401610c4090615700565b60026000553361211481613580565b6001600160a01b038116600090815260026020526040808220905163218be9d560e11b815260048101919091526003602482015273E0b84bC4e4b1Cdd2CA951641E59fFA57d8BFB6DB90634317d3aa90604401602060405180830381865af4158015612184573d6000803e3d6000fd5b505050506040513d601f19601f820116820180604052508101906121a89190615737565b905080156121f457816001600160a01b03167f02637aab023322fc124131f556858082be212382f69cdec79efddcbfbc5c0205826040516121eb91815260200190565b60405180910390a25b7f00000000000000000000000000000000000000000000000000000000000000006001600160a01b03166123315782156122685760405162461bcd60e51b815260206004820152601560248201527450455f443a20616d6f756e74206e6f74207a65726f60581b6044820152606401610c40565b6001600160a01b038216600090815260026020526040908190209051624d1ed560e11b8152600481019190915234602482015273E0b84bC4e4b1Cdd2CA951641E59fFA57d8BFB6DB90629a3daa9060440160006040518083038186803b1580156122d157600080fd5b505af41580156122e5573d6000803e3d6000fd5b50505050816001600160a01b03167f2da466a7b24304f47e87fa2e1e5a81b9831ce54fec19055ce277ca2f39ba42c43460405161232491815260200190565b60405180910390a2612491565b341561237a5760405162461bcd60e51b815260206004820152601860248201527750455f443a206d73672e76616c7565206e6f74207a65726f60401b6044820152606401610c40565b6001600160a01b0382811660008181526002602090815260409182902082516060810184527f0000000000000000000000000000000000000000000000000000000000000000861681529182018881528284019485529251631faeb67360e31b81526004810191909152905184166024820152905160448201529051909116606482015273E0b84bC4e4b1Cdd2CA951641E59fFA57d8BFB6DB9063fd75b3989060840160006040518083038186803b15801561243557600080fd5b505af4158015612449573d6000803e3d6000fd5b50505050816001600160a01b03167f2da466a7b24304f47e87fa2e1e5a81b9831ce54fec19055ce277ca2f39ba42c48460405161248891815260200190565b60405180910390a25b5050600160005550565b6124a361346e565b6002600054036124c55760405162461bcd60e51b8152600401610c4090615700565b600260005560075462ffffff620100009091048116908216111561252b5760405162461bcd60e51b815260206004820152601b60248201527f50455f534d523a20626967676572207468616e20696d526174696f00000000006044820152606401610c40565b60008162ffffff161161256f5760405162461bcd60e51b815260206004820152600c60248201526b50455f534d523a207a65726f60a01b6044820152606401610c40565b6007805467ffffff00000000001916600160281b62ffffff8416908102919091179091556040519081527ffbd0bf17b9833a130f5baeccbfc586acefc75be8ad5bb114f448e412adc4c05b90602001610c94565b6001600160a01b0382166000908152600260205260408082209051632691409160e01b8152736FA1DD7b8A37f278f1FB83Ad47b7E9322f65Ac67916326914091916114fa919086906004016157a7565b60006126256040830160208401615255565b61262e8161350a565b600061263d6020850185615255565b905060006126516060860160408701615255565b905061272260026000846001600160a01b03166001600160a01b0316815260200190815260200160002060405180610100016040528088602001602081019061269a9190615255565b6001600160a01b031681526020016126b860808a0160608b01615750565b151581526020016126cf60a08a0160808b01615750565b1515815260a0808a0135602083015260c08a0135604083015260075462ffffff600160281b820481166060850152600160401b9091041660808301526001600160a01b0387811690871614910152613b25565b95945050505050565b6001600160a01b03811660009081526002602090815260409182902060040180548351818402810184019094528084526060939283018282801561279857602002820191906000526020600020905b81546001600160a01b0316815260019091019060200180831161277a575b50505050509050919050565b6127ac61346e565b6002600054036127ce5760405162461bcd60e51b8152600401610c4090615700565b600260005561271062ffffff8216111561281f5760405162461bcd60e51b815260206004820152601260248201527150455f535046523a20746f6f206c6172676560701b6044820152606401610c40565b6007805462ffffff60401b1916600160401b62ffffff8416908102919091179091556040519081527f68c41b7a5c12c4d9cbb99ec284bf647922a75f379a90694e3ad65574f4ff944d90602001610c94565b60008060006002600054036128985760405162461bcd60e51b8152600401610c4090615700565b600260005560a08401356128ab816134c8565b6128b86020860186615255565b6128c18161350a565b336128cb81613580565b6001600160a01b0381166000908152600260209081526040808320815160e0810190925273126268755195b45136efDE418b0513632bda3eE6926360e361e09290819061291a908e018e615255565b6001600160a01b0316815260208d810135908201526040808e0135818301526060808f0135908301526080808f01359083015260075462ffffff6201000082041660a084015260ff1660c090920191909152516001600160e01b031960e085901b1681526129ed92919060040160006101008201905083825260018060a01b038351166020830152602083015160408301526040830151606083015260608301516080830152608083015160a083015262ffffff60a08401511660c083015260ff60c08401511660e08301529392505050565b606060405180830381865af4158015612a0a573d6000803e3d6000fd5b505050506040513d601f19601f82011682018060405250810190612a2e9190615b97565b6001600160a01b038316600090815260026020908152604082209293509091600101908290612a5f908c018c615255565b6001600160a01b031681526020808201929092526040016000209150612a87908a018a615255565b82516020808501516040808701516001870154600288015483519687529486019390935290840152606083015260808201526001600160a01b03918216918516907fea3191ffbe2f62bfd724ee8d971b15ff9b7994e3a9169dc4c60443be3e4a43c49060a00160405180910390a35080516020820151604090920151600160005590999198509650945050505050565b6000600260005403612b3b5760405162461bcd60e51b8152600401610c4090615700565b600260005560c0820135612b4e816134c8565b612b5e6040840160208501615255565b612b678161350a565b612b77611bae6020860186615255565b6000612b8285613c16565b90508061010001516060015164ffffffffff16600014612da5576000600681612bb16040890160208a01615255565b6001600160a01b03166001600160a01b031681526020019081526020016000206000876040016020810190612be69190615750565b15158152602080820192909252604090810160009081206101008601516060015164ffffffffff1682528352818120546001600160a01b0316808252600284528282209094509092733FE8D206CDA9892c1cB1ab515895d955A965577B92635a9813c69291612c59918c01908c01615255565b612c6960608c0160408d01615750565b6007546101008901516040805160e088901b6001600160e01b031916815260048101969096526001600160a01b039094166024860152911515604485015260ff16606484015280516084840152602081015160a48401529081015160c48301526060015164ffffffffff1660e482015261010401602060405180830381865af4158015612cfa573d6000803e3d6000fd5b505050506040513d601f19601f82011682018060405250810190612d1e9190615737565b9050612d306040880160208901615255565b6001600160a01b039081169083167f6a44f7a15d600604cd07ab787ae45c22908a25bcc8a24e951f297a4ff4885ccc612d6f60608b0160408c01615750565b6101008701516020808201516040928301518351941515855291840152908201526060810185905260800160405180910390a350505b6000612db76040870160208801615255565b6001600160a01b0316639482de1a6040518163ffffffff1660e01b8152600401602060405180830381865afa158015612df4573d6000803e3d6000fd5b505050506040513d601f19601f82011682018060405250810190612e189190615737565b90506000612e2c6040880160208901615255565b6001600160a01b0316638ee8fe5d6040518163ffffffff1660e01b8152600401602060405180830381865afa158015612e69573d6000803e3d6000fd5b505050506040513d601f19601f82011682018060405250810190612e8d9190615737565b90508260e0015115612f6b5733612eaa6040890160208a01615255565b6001600160a01b0316612ec060208a018a615255565b6001600160a01b03167f7c3978559b662b8adf839d43cce2ec6ab7db3fdc995575e4576acc9e0628985d866000015187602001518860400151896060015189898c608001518d60a001518e60c00151604051612f5e99989796959493929190988952602089019790975260408801959095526060870193909352608086019190915260a085015260c084015260e08301526101008201526101200190565b60405180910390a4613001565b612f7b6040880160208901615255565b6001600160a01b0316612f916020890189615255565b84516020808701516040808901516060808b0151835196875294860193909352908401528201526080810185905260a081018490526001600160a01b0391909116907fe386a40c070a1424ae709b98c27e64993228f777c6294ef7149cf0ee42ef46e89060c00160405180910390a35b6130116060880160408901615750565b15156130236080890160608a01615750565b15151461303a57825161303590613d8c565b613047565b6130478360200151613d8c565b6001600055979650505050505050565b600060026000540361307b5760405162461bcd60e51b8152600401610c4090615700565b6002600055608082013561308e816134c8565b61309b6020840184615255565b6130a48161350a565b336130ae81613580565b6001600160a01b038116600090815260026020908152604091829020825160e08101909352733FE8D206CDA9892c1cB1ab515895d955A965577B9263d34e48d49281906130fd908b018b615255565b6001600160a01b0316815260200189604001358152602001896060013581526020018960200160208101906131329190615750565b1515815260075462ffffff620100008204811660208085019190915260ff808416604080870191909152610100909404811660609586015283516001600160e01b031960e08a901b168152600481019790975285516001600160a01b031660248801529085015160448701529184015160648601529183015115156084850152608083015190911660a484015260a0820151811660c484015260c0909101511660e482015261010401602060405180830381865af41580156131f8573d6000803e3d6000fd5b505050506040513d601f19601f8201168201806040525081019061321c9190615bf2565b935080600660006132306020890189615255565b6001600160a01b03166001600160a01b0316815260200190815260200160002060008760200160208101906132659190615750565b151581526020808201929092526040908101600090812064ffffffffff8916825283522080546001600160a01b0319166001600160a01b0393909316929092179091556132b490860186615255565b6001600160a01b039081169082167f22c125447e6a06158aefb2637c0f7d1a544b0bb331e126582be4a4e70d3e6c886132f36040890160208a01615750565b6040805191151582528981013560208301526060808b01358383015264ffffffffff8a1690830152519081900360800190a35050600160005550919050565b6001600160a01b0381166000908152600260205260408082206007549151634d3a1f3d60e11b815260048101919091526201000090910462ffffff166024820152736FA1DD7b8A37f278f1FB83Ad47b7E9322f65Ac6790639a743e7a90604401611b0c565b61339f61346e565b6001600160a01b0381166134045760405162461bcd60e51b815260206004820152602660248201527f4f776e61626c653a206e6577206f776e657220697320746865207a65726f206160448201526564647265737360d01b6064820152608401610c40565b61340d816137d2565b50565b6001600160a01b03811660009081526002602052604080822090516210164360e11b81526004810191909152736FA1DD7b8A37f278f1FB83Ad47b7E9322f65Ac679062202c8690602401611b0c565b6001600160a01b03163b151590565b6001546001600160a01b031633146119555760405162461bcd60e51b815260206004820181905260248201527f4f776e61626c653a2063616c6c6572206973206e6f7420746865206f776e65726044820152606401610c40565b8042111561340d5760405162461bcd60e51b815260206004820152600f60248201526e50455f43443a20746f6f206c61746560881b6044820152606401610c40565b60016001600160a01b03821660009081526009602052604090205460ff166002811115613539576135396156c2565b1461340d5760405162461bcd60e51b81526020600482015260176024820152762822afa1a6a79d1036b0b935b2ba103737ba1037b832b760491b6044820152606401610c40565b6001600160a01b038116600090815260026020526040908190206007549151635c02a9e960e01b8152600481019190915260ff9091166024820152733FE8D206CDA9892c1cB1ab515895d955A965577B90635c02a9e99060440160006040518083038186803b1580156135f257600080fd5b505af4158015613606573d6000803e3d6000fd5b5050505050565b60026001600160a01b03821660009081526009602052604090205460ff16600281111561363c5761363c6156c2565b1461340d5760405162461bcd60e51b8152602060048201526019602482015278141157d0d350ce881b585c9ad95d081b9bdd0818db1bdcd959603a1b6044820152606401610c40565b604051633c7e525f60e01b81526004810188905262ffffff841660248201526000908190736FA1DD7b8A37f278f1FB83Ad47b7E9322f65Ac6790633c7e525f90604401602060405180830381865af41580156136e5573d6000803e3d6000fd5b505050506040513d601f19601f82011682018060405250810190613709919061578a565b15905082158015613718575080155b156137275760009150506137c7565b8362ffffff166000036137b55760405163e8fa204f60e01b81528715156004820152861515602482015281151560448201526001600160a01b0389169063e8fa204f90606401602060405180830381865afa15801561378a573d6000803e3d6000fd5b505050506040513d601f19601f820116820180604052508101906137ae9190615737565b91506137c5565b6137c28888888785613db5565b91505b505b979650505050505050565b600180546001600160a01b038381166001600160a01b0319831681179093556040519116919082907f8be0079c531659141344cd1fd0a4f28419497f9722a3daafe3b4186f6b6457e090600090a35050565b806002811115613836576138366156c2565b6001600160a01b03831660009081526009602052604090205460ff166002811115613863576138636156c2565b0361386c575050565b6001816002811115613880576138806156c2565b03613a1d57613897826001600160a01b031661345f565b6138e35760405162461bcd60e51b815260206004820152601f60248201527f50455f53494d413a206d61726b6574206164647265737320696e76616c6964006044820152606401610c40565b306001600160a01b0316826001600160a01b031663d2f7265a6040518163ffffffff1660e01b8152600401602060405180830381865afa15801561392b573d6000803e3d6000fd5b505050506040513d601f19601f8201168201806040525081019061394f9190615c0f565b6001600160a01b0316146139a55760405162461bcd60e51b815260206004820152601b60248201527f50455f53494d413a20646966666572656e742065786368616e676500000000006044820152606401610c40565b6001600160a01b03821660009081526009602052604081205460ff1660028111156139d2576139d26156c2565b14613a185760405162461bcd60e51b8152602060048201526016602482015275141157d4d253504e881b585c9ad95d0818db1bdcd95960521b6044820152606401610c40565b613a81565b6002816002811115613a3157613a316156c2565b03613a3f57613a188261350a565b60405162461bcd60e51b815260206004820152601760248201527650455f53494d413a20696e76616c69642073746174757360481b6044820152606401610c40565b6001600160a01b0382166000908152600960205260409020805482919060ff19166001836002811115613ab657613ab66156c2565b0217905550816001600160a01b03167f74254d01f8ce923659c1e8739f33585649bc64b648a0382f22174528e5da382e82604051613af491906156d8565b60405180910390a25050565b60606114a38383604051806060016040528060278152602001615e4960279139613e7a565b600080613b428484600001518560e001518660a001516001613f55565b90508260c0015162ffffff16600003613bdd57825160208401516040808601516060870151915162de853760e31b81526001600160a01b03909416936306f429b893613b95939092918790600401615c2c565b602060405180830381865afa158015613bb2573d6000803e3d6000fd5b505050506040513d601f19601f82011682018060405250810190613bd69190615737565b9150613c03565b613bff83600001518460200151856040015186606001518760c0015186614178565b5091505b6120688360400151838560800151614386565b613c1e61519b565b610d3260026000613c326020860186615255565b6001600160a01b03166001600160a01b0316815260200190815260200160002060026000613c5d3390565b6001600160a01b03166001600160a01b0316815260200190815260200160002060030160036005604051806101600160405280886020016020810190613ca39190615255565b6001600160a01b03168152602001613cc160608a0160408b01615750565b15158152602001613cd860808a0160608b01615750565b151581526080808a0135602083015260a0808b0135604084015260075462ffffff600160281b82048116606086015262010000820481169385019390935260ff811691840191909152600160401b90041660c082015260e001613d383390565b6001600160a01b0316613d4e60208b018b615255565b6001600160a01b03161481526040805180820190915260085462ffffff811682526301000000900461ffff1660208083019190915290910152614431565b600080821215613dac57613da7613da28361469d565b6146fb565b610d32565b610d32826146fb565b60405163e8fa204f60e01b81528415156004820152831515602482015281151560448201526000906001600160a01b0387169063e8fa204f90606401602060405180830381865afa158015613e0e573d6000803e3d6000fd5b505050506040513d601f19601f82011682018060405250810190613e329190615737565b90508315613e5d578461272257613e56613e4f620f424085614751565b82906147b7565b9050612722565b841561272257613e56613e73620f424085614751565b82906147cc565b6060613e858461345f565b613ee05760405162461bcd60e51b815260206004820152602660248201527f416464726573733a2064656c65676174652063616c6c20746f206e6f6e2d636f6044820152651b9d1c9858dd60d21b6064820152608401610c40565b600080856001600160a01b031685604051613efb9190615c4b565b600060405180830381855af49150503d8060008114613f36576040519150601f19603f3d011682016040523d82523d6000602084013e613f3b565b606091505b5091509150613f4b8282866147e1565b9695505050505050565b604051633c7e525f60e01b81526004810186905262ffffff83166024820152600090736FA1DD7b8A37f278f1FB83Ad47b7E9322f65Ac6790633c7e525f90604401602060405180830381865af4158015613fb3573d6000803e3d6000fd5b505050506040513d601f19601f82011682018060405250810190613fd7919061578a565b1590508361401f578061401f5760405162461bcd60e51b815260206004820152601060248201526f544c5f56543a20656e6f756768206d6d60801b6044820152606401610c40565b8115801561402a5750805b15612722576001600160a01b0385166000908152600187016020526040902054156140975760405162461bcd60e51b815260206004820181905260248201527f544c5f56543a206e6f206d616b6572207768656e206c69717569646174696f6e6044820152606401610c40565b6001600160a01b038516600090815260028701602052604090205464ffffffffff16156141065760405162461bcd60e51b815260206004820152601e60248201527f544c5f56543a206e6f2061736b207768656e206c69717569646174696f6e00006044820152606401610c40565b6001600160a01b038516600090815260028088016020526040909120015464ffffffffff16156127225760405162461bcd60e51b815260206004820152601e60248201527f544c5f56543a206e6f20626964207768656e206c69717569646174696f6e00006044820152606401610c40565b60008085156142a05786156142185760405162de853760e31b81526001600160a01b038916906306f429b8906141b8908a908a908a908990600401615c2c565b602060405180830381865afa1580156141d5573d6000803e3d6000fd5b505050506040513d601f19601f820116820180604052508101906141f99190615737565b915061420582856147cc565b9050614211828261481a565b915061437b565b61422285856147cc565b90506001600160a01b0388166306f429b8888861423f898661481a565b876040518563ffffffff1660e01b815260040161425f9493929190615c2c565b602060405180830381865afa15801561427c573d6000803e3d6000fd5b505050506040513d601f19601f820116820180604052508101906142119190615737565b86156142e4576142c7856142c16142ba620f424088614751565b88906147b7565b9061481a565b90506001600160a01b0388166306f429b8888861423f8986614826565b60405162de853760e31b81526000906001600160a01b038a16906306f429b890614318908b908b908b908a90600401615c2c565b602060405180830381865afa158015614335573d6000803e3d6000fd5b505050506040513d601f19601f820116820180604052508101906143599190615737565b905061436b613e4f620f424087614751565b9250614377838261481a565b9150505b965096945050505050565b82156143e157808210156143dc5760405162461bcd60e51b815260206004820181905260248201527f544c5f56533a20746f6f20736d616c6c206f70706f7369746520616d6f756e746044820152606401610c40565b505050565b808211156143dc5760405162461bcd60e51b815260206004820181905260248201527f544c5f56533a20746f6f206c61726765206f70706f7369746520616d6f756e746044820152606401610c40565b61443961519b565b6144548683600001518461012001518560a001516000613f55565b151560e080830191825283516001600160a01b03908116600090815260208a8152604091829020548251610100808201855289519095168152828901511515928101929092528288015115159282019290925260608088015190820152608080880151908201528684015160ff1660a08201529186015162ffffff1660c083015292511515918101919091526144ed9088908690614832565b61010087015260608601526040850152602084015280835260009081906145139061496d565b845161452990614524908690614995565b61496d565b6145339190615c67565b1390508260e00151156145c457801561458e5760405162461bcd60e51b815260206004820152601f60248201527f544c5f4f503a206e6f206f70656e207768656e206c69717569646174696f6e006044820152606401610c40565b6145b48860030188888760a001518861014001516145af8960200151613d8c565b6149a1565b60c086015260a085015260808401525b80156146925760c0840151604051634d3a1f3d60e11b8152600481018a905262ffffff9091166024820152736FA1DD7b8A37f278f1FB83Ad47b7E9322f65Ac6790639a743e7a90604401602060405180830381865af415801561462b573d6000803e3d6000fd5b505050506040513d601f19601f8201168201806040525081019061464f919061578a565b6146925760405162461bcd60e51b8152602060048201526014602482015273544c5f4f503a206e6f7420656e6f75676820696d60601b6044820152606401610c40565b505095945050505050565b6000600160ff1b82136146f25760405162461bcd60e51b815260206004820152601c60248201527f506572704d6174683a20696e76657273696f6e206f766572666c6f77000000006044820152606401610c40565b610d3282615cec565b60008082121561474d5760405162461bcd60e51b815260206004820181905260248201527f53616665436173743a2076616c7565206d75737420626520706f7369746976656044820152606401610c40565b5090565b60008262ffffff168262ffffff1611156147ad5760405162461bcd60e51b815260206004820152601e60248201527f506572704d6174683a207375627472616374696f6e206f766572666c6f7700006044820152606401610c40565b6114a38284615d08565b60006114a383620f42408462ffffff16614a36565b60006114a3838362ffffff16620f4240614a36565b606083156147f05750816114a3565b8251156148005782518084602001fd5b8160405162461bcd60e51b8152600401610c409190615d24565b60006114a38284615d37565b60006114a38284615d4a565b6000806000806148406151ee565b60c086015160009062ffffff16156148855761487988886000015189602001518a604001518b606001518c60c001518d60e00151614ae5565b90945092509050614915565b865160208801516040808a015160608b015160e08c015192516380796d5560e01b81526001600160a01b03909516946380796d55946148ca9490939291600401615c2c565b6080604051808303816000875af11580156148e9573d6000803e3d6000fd5b505050506040513d601f19601f8201168201806040525081019061490d9190615d5d565b805190925090505b6149288760400151828960800151614386565b61494087602001518860400151896060015184614d1e565b809650819750505061495f898860000151888860008c60a00151614d8d565b935050939792965093509350565b600080821361498d5760008212614985576000610d32565b600019610d32565b600192915050565b60006114a38284615dc8565b600080806149af84876147cc565b85519093506149bf9084906147cc565b91506149cb838361481a565b90506149e4876001015483876020015161ffff16614e8e565b60018901919091559150614a026149fa84614ec2565b8a5490614f2c565b8955614a18614a1083614ec2565b895490614995565b88558654614a269082614826565b9096559097909650939450505050565b6000808060001985870985870292508281108382030391505080600003614a7057838281614a6657614a66615df0565b04925050506114a3565b808411614a7c57600080fd5b60008486880960026001871981018816978890046003810283188082028403028082028403028082028403028082028403028082028403029081029092039091026000889003889004909101858311909403939093029303949094049190911702949350505050565b600080614af06151ee565b8615614c29578715614b94576040516380796d5560e01b81526001600160a01b038a16906380796d5590614b2e908b908b908b908a90600401615c2c565b6080604051808303816000875af1158015614b4d573d6000803e3d6000fd5b505050506040513d601f19601f82011682018060405250810190614b719190615d5d565b805193509050614b8183866147cc565b9150614b8d838361481a565b9250614d01565b614b9e86866147cc565b91506001600160a01b0389166380796d558989614bbb8a8761481a565b886040518563ffffffff1660e01b8152600401614bdb9493929190615c2c565b6080604051808303816000875af1158015614bfa573d6000803e3d6000fd5b505050506040513d601f19601f82011682018060405250810190614c1e9190615d5d565b805193509050614d01565b8715614c6757614c4a866142c1614c43620f424089614751565b89906147b7565b91506001600160a01b0389166380796d558989614bbb8a87614826565b6040516380796d5560e01b81526001600160a01b038a16906380796d5590614c99908b908b908b908a90600401615c2c565b6080604051808303816000875af1158015614cb8573d6000803e3d6000fd5b505050506040513d601f19601f82011682018060405250810190614cdc9190615d5d565b8051909150614cf1613e4f620f424088614751565b9350614cfd848261481a565b9250505b8954614d0d9083614826565b909955909890979650945050505050565b6000808415614d5a578515614d4857614d3684614f38565b614d3f84614ec2565b91509150614d84565b614d5183614ec2565b614d3f85614f38565b8515614d7257614d6983614f38565b614d3f85614ec2565b614d7b84614ec2565b614d3f84614f38565b94509492505050565b6001600160a01b0385166000908152602087815260408083208151808301909252805482526001015491810191909152614dc990868686614f4c565b6001600160a01b038816600090815260208a81526040909120835181559201516001909201919091556003880154909150614e049082614995565b600388015560405163724055e760e01b8152600481018890526001600160a01b038716602482015260ff83166044820152736FA1DD7b8A37f278f1FB83Ad47b7E9322f65Ac679063724055e79060640160006040518083038186803b158015614e6c57600080fd5b505af4158015614e80573d6000803e3d6000fd5b505050509695505050505050565b600080614e9b8585614826565b9450614eac8562ffffff85166150eb565b9050614eb8858261481a565b9150935093915050565b60006001600160ff1b0382111561474d5760405162461bcd60e51b815260206004820152602860248201527f53616665436173743a2076616c756520646f65736e27742066697420696e2061604482015267371034b73a191a9b60c11b6064820152608401610c40565b60006114a38284615e06565b6000614f4382614ec2565b610d3290615cec565b6040805180820190915260008082526020820152600084151580614f6f57508315155b1561504857614f7d8461496d565b614f868661496d565b614f909190615c67565b60001914614fa357508490506000614d84565b614fac8561496d565b8651614fb79061496d565b614fc19190615c67565b19615048576000614fd186613d8c565b90506000614fe28860000151613d8c565b9050808211615019576000615005614ff984614ec2565b60208b015190846150f7565b90506150118782614995565b935050615045565b600061502f61502783614ec2565b8890856150f7565b60208a01519091506150419082614995565b9350505b50505b6150528184614995565b86519091506000906150649087614995565b905060006150938361508d876150878a8d6020015161499590919063ffffffff16565b90614995565b90614f2c565b9050811580156150a1575080155b806150c857506150b08161496d565b6150b98361496d565b6150c39190615c67565b600019145b6150da57876000935093505050614d84565b908352602083015294509492505050565b60006114a38284615e26565b600080600085126151085784615111565b6151118561469d565b90506000808512615122578461512b565b61512b8561469d565b90506000808712801561513e5750600086135b8061515457506000871380156151545750600086125b61515f576000615162565b60015b90506000615171848488614a36565b9050816151865761518181614ec2565b61518f565b61518f81614f38565b98975050505050505050565b604051806101200160405280600081526020016000815260200160008152602001600081526020016000815260200160008152602001600081526020016000151581526020016151e96151ee565b905290565b6040518060800160405280600081526020016000815260200160008152602001600064ffffffffff1681525090565b60006020828403121561522f57600080fd5b813560ff811681146114a357600080fd5b6001600160a01b038116811461340d57600080fd5b60006020828403121561526757600080fd5b81356114a381615240565b60006080828403121561528457600080fd5b50919050565b600060a0828403121561528457600080fd5b600060a082840312156152ae57600080fd5b6114a3838361528a565b6000602082840312156152ca57600080fd5b5035919050565b600080604083850312156152e457600080fd5b82356152ef81615240565b915060208301356152ff81615240565b809150509250929050565b801515811461340d57600080fd5b64ffffffffff8116811461340d57600080fd5b60008060006060848603121561534057600080fd5b833561534b81615240565b9250602084013561535b8161530a565b9150604084013561536b81615318565b809150509250925092565b60008060006060848603121561538b57600080fd5b833561539681615240565b925060208401356153a681615240565b9150604084013561536b8161530a565b6020808252825182820181905260009190848201906040850190845b818110156153f557835164ffffffffff16835292840192918401916001016153d2565b50909695505050505050565b602080825282518282018190526000919060409081850190868401855b82811015615454578151805164ffffffffff1685528681015187860152850151858501526060909301929085019060010161541e565b5091979650505050505050565b62ffffff8116811461340d57600080fd5b60006020828403121561548457600080fd5b81356114a381615461565b600080604083850312156154a257600080fd5b82356154ad81615240565b91506020830135600381106152ff57600080fd5b600060c0828403121561528457600080fd5b600060c082840312156154e557600080fd5b6114a383836154c1565b60006040828403121561528457600080fd5b6000806020838503121561551457600080fd5b82356001600160401b038082111561552b57600080fd5b818501915085601f83011261553f57600080fd5b81358181111561554e57600080fd5b8660208260051b850101111561556357600080fd5b60209290920196919550909350505050565b60005b83811015615590578181015183820152602001615578565b50506000910152565b600081518084526155b1816020860160208601615575565b601f01601f19169290920160200192915050565b6000602080830181845280855180835260408601915060408160051b870101925083870160005b8281101561561a57603f19888603018452615608858351615599565b945092850192908501906001016155ec565b5092979650505050505050565b600060e0828403121561528457600080fd5b600060e0828403121561564b57600080fd5b6114a38383615627565b6020808252825182820181905260009190848201906040850190845b818110156153f55783516001600160a01b031683529284019291840191600101615671565b600080604083850312156156a957600080fd5b82356156b481615240565b946020939093013593505050565b634e487b7160e01b600052602160045260246000fd5b60208101600383106156fa57634e487b7160e01b600052602160045260246000fd5b91905290565b6020808252601f908201527f5265656e7472616e637947756172643a207265656e7472616e742063616c6c00604082015260600190565b60006020828403121561574957600080fd5b5051919050565b60006020828403121561576257600080fd5b81356114a38161530a565b60006020828403121561577f57600080fd5b81356114a381615318565b60006020828403121561579c57600080fd5b81516114a38161530a565b9182526001600160a01b0316602082015260400190565b9283526001600160a01b039190911660208301521515604082015260600190565b634e487b7160e01b600052604160045260246000fd5b604051606081016001600160401b0381118282101715615817576158176157df565b60405290565b604051601f8201601f191681016001600160401b0381118282101715615845576158456157df565b604052919050565b60006001600160401b03821115615866576158666157df565b5060051b60200190565b6000602080838503121561588357600080fd5b82516001600160401b0381111561589957600080fd5b8301601f810185136158aa57600080fd5b80516158bd6158b88261584d565b61581d565b81815260059190911b820183019083810190878311156158dc57600080fd5b928401925b828410156137c75783516158f481615318565b825292840192908401906158e1565b60006040828403121561591557600080fd5b604051604081018181106001600160401b0382111715615937576159376157df565b604052825181526020928301519281019290925250919050565b6000602080838503121561596457600080fd5b82516001600160401b0381111561597a57600080fd5b8301601f8101851361598b57600080fd5b80516159996158b88261584d565b818152606091820283018401918482019190888411156159b857600080fd5b938501935b838510156137c55780858a0312156159d55760008081fd5b6159dd6157f5565b85516159e881615318565b8152858701518782015260408087015190820152835293840193918501916159bd565b600060c08284031215615a1d57600080fd5b60405160c081018181106001600160401b0382111715615a3f57615a3f6157df565b8060405250825181526020830151602082015260408301516040820152606083015160608201526080830151608082015260a0830151615a7e8161530a565b60a08201529392505050565b61ffff8116811461340d57600080fd5b600060208284031215615aac57600080fd5b81356114a381615a8a565b8135615ac281615461565b62ffffff8116905081548162ffffff1982161783556020840135615ae581615a8a565b64ffff0000008160181b168364ffffffffff198416171784555050505050565b634e487b7160e01b600052603260045260246000fd5b6000808335601e19843603018112615b3257600080fd5b8301803591506001600160401b03821115615b4c57600080fd5b602001915036819003821315615b6157600080fd5b9250929050565b634e487b7160e01b600052601160045260246000fd5b600060018201615b9057615b90615b68565b5060010190565b600060608284031215615ba957600080fd5b604051606081018181106001600160401b0382111715615bcb57615bcb6157df565b80604052508251815260208301516020820152604083015160408201528091505092915050565b600060208284031215615c0457600080fd5b81516114a381615318565b600060208284031215615c2157600080fd5b81516114a381615240565b9315158452911515602084015260408301521515606082015260800190565b60008251615c5d818460208701615575565b9190910192915050565b60006001600160ff1b0381841382841380821686840486111615615c8d57615c8d615b68565b600160ff1b6000871282811687830589121615615cac57615cac615b68565b60008712925087820587128484161615615cc857615cc8615b68565b87850587128184161615615cde57615cde615b68565b505050929093029392505050565b6000600160ff1b8201615d0157615d01615b68565b5060000390565b62ffffff82811682821603908082111561206857612068615b68565b6020815260006114a36020830184615599565b81810381811115610d3257610d32615b68565b80820180821115610d3257610d32615b68565b600060808284031215615d6f57600080fd5b604051608081018181106001600160401b0382111715615d9157615d916157df565b80604052508251815260208301516020820152604083015160408201526060830151615dbc81615318565b60608201529392505050565b8082018281126000831280158216821582161715615de857615de8615b68565b505092915050565b634e487b7160e01b600052601260045260246000fd5b818103600083128015838313168383128216171561206857612068615b68565b600082615e4357634e487b7160e01b600052601260045260246000fd5b50049056fe416464726573733a206c6f772d6c6576656c2064656c65676174652063616c6c206661696c6564a2646970667358221220dd5a48f6348377dc45c8271bfc0134ab0e95ddb06fea93962ce362a377496aec64736f6c63430008100033",
  "deployedBytecode": "0x6080604052600436106102d55760003560e01c80638da5cb5b1161017b578063c9ca7b18116100d7578063e671be1711610085578063e671be1714610b09578063e8c41ef914610b29578063ec6cca8414610b5f578063ef21b7e814610b7f578063f2fde38b14610bbc578063f652b52714610bdc578063fed4063214610bf657600080fd5b8063c9ca7b18146109e7578063ca5b721e14610a07578063cffe855614610a27578063d11102c514610a47578063d1ce35e314610a74578063ddad7e9714610a94578063dfe1cb9214610ace57600080fd5b80639f044f31116101345780639f044f31146108d2578063a616c66c146108f5578063ac3732b41461092a578063ac9650d81461094a578063b53c512514610977578063b6b55f25146109b9578063c66fa8e6146109cc57600080fd5b80638da5cb5b146107e65780638ec992941461080457806393420cf41461082457806394887af71461083b578063996fbf94146108825780639dce9e19146108a257600080fd5b80633a92105111610235578063715018a6116101e3578063715018a61461064857806373f625011461065d5780637a27d9f61461067d5780637b9e618d146106a05780637c88490a146106d457806387cad0bf146106f457806388060d8b1461075457600080fd5b80633a921051146105665780633d46396a146105865780633fd1e2bd146105a65780634b4aa735146105bb5780634ebd6bb4146105db5780635ddd1650146105fb5780636e838bad1461062857600080fd5b80632d67669c116102925780632d67669c146103c05780632e1a7d4d146103e05780632e784343146104005780632f60a151146104845780632fd99bf4146104ba57806331e60ddf1461051957806333ff15771461054657600080fd5b8063030ee0cb146102da5780630674fa41146102fc5780630729e07a1461032f57806318f8c0cd1461034f5780631a8e22e6146103805780632703ee85146103a0575b600080fd5b3480156102e657600080fd5b506102fa6102f536600461521d565b610c16565b005b34801561030857600080fd5b5061031c610317366004615255565b610ca4565b6040519081526020015b60405180910390f35b34801561033b57600080fd5b506102fa61034a366004615272565b610d38565b34801561035b57600080fd5b5060075461036e90610100900460ff1681565b60405160ff9091168152602001610326565b34801561038c57600080fd5b506102fa61039b366004615255565b611078565b3480156103ac57600080fd5b5061031c6103bb366004615255565b61113e565b3480156103cc57600080fd5b5061031c6103db36600461529c565b61118f565b3480156103ec57600080fd5b506102fa6103fb3660046152b8565b611297565b34801561040c57600080fd5b5061046961041b3660046152d1565b604080518082018252600080825260209182018190526001600160a01b0394851681526002825282812093909416845291825291829020825180840190935280548352600101549082015290565b60408051825181526020928301519281019290925201610326565b34801561049057600080fd5b506007546104a69062010000900462ffffff1681565b60405162ffffff9091168152602001610326565b3480156104c657600080fd5b506105016104d536600461532b565b60066020908152600093845260408085208252928452828420905282529020546001600160a01b031681565b6040516001600160a01b039091168152602001610326565b34801561052557600080fd5b50610539610534366004615376565b611406565b60405161032691906153b6565b34801561055257600080fd5b5061031c6105613660046152d1565b6114aa565b34801561057257600080fd5b5061031c610581366004615255565b61153b565b34801561059257600080fd5b506102fa6105a13660046152b8565b61158c565b3480156105b257600080fd5b5061036e601281565b3480156105c757600080fd5b5061031c6105d6366004615255565b61168b565b3480156105e757600080fd5b506104696105f63660046152d1565b6116dc565b34801561060757600080fd5b5061061b610616366004615376565b61177d565b6040516103269190615401565b34801561063457600080fd5b506102fa610643366004615472565b611817565b34801561065457600080fd5b506102fa611943565b34801561066957600080fd5b506102fa61067836600461521d565b611957565b34801561068957600080fd5b506007546104a690600160401b900462ffffff1681565b3480156106ac57600080fd5b506105017f000000000000000000000000000000000000000000000000000000000000000081565b3480156106e057600080fd5b5061031c6106ef3660046152d1565b6119c8565b34801561070057600080fd5b5061073c61070f366004615255565b60026020908152600091825260409182902082519182019092526003820154815260059091015460ff1682565b604080519251835260ff909116602083015201610326565b34801561076057600080fd5b506107bd61076f3660046152d1565b6001600160a01b03918216600090815260026020818152604080842094909516835292810190925291909120805491810154600482015460059092015464ffffffffff938416949390911692565b6040805164ffffffffff9586168152949093166020850152918301526060820152608001610326565b3480156107f257600080fd5b506001546001600160a01b0316610501565b34801561081057600080fd5b506102fa61081f36600461548f565b611a18565b34801561083057600080fd5b5060055461031c9081565b34801561084757600080fd5b506008546108649062ffffff8116906301000000900461ffff1682565b6040805162ffffff909316835261ffff909116602083015201610326565b34801561088e57600080fd5b5061031c61089d3660046152d1565b611a5a565b3480156108ae57600080fd5b506108c26108bd366004615255565b611aaa565b6040519015158152602001610326565b3480156108de57600080fd5b506007546104a690600160281b900462ffffff1681565b34801561090157600080fd5b506109156109103660046154d3565b611b4d565b60408051928352602083019190915201610326565b34801561093657600080fd5b506102fa6109453660046154ef565b611e1e565b34801561095657600080fd5b5061096a610965366004615501565b611f7b565b60405161032691906155c5565b34801561098357600080fd5b506109976109923660046152d1565b61206f565b6040805182518152602080840151908201529181015190820152606001610326565b6102fa6109c73660046152b8565b6120e3565b3480156109d857600080fd5b50600354600454610915919082565b3480156109f357600080fd5b506102fa610a02366004615472565b61249b565b348015610a1357600080fd5b5061031c610a223660046152d1565b6125c3565b348015610a3357600080fd5b5061031c610a42366004615639565b612613565b348015610a5357600080fd5b50610a67610a62366004615255565b61272b565b6040516103269190615655565b348015610a8057600080fd5b506102fa610a8f366004615472565b6127a4565b348015610aa057600080fd5b506102fa610aaf366004615696565b6001600160a01b03909116600090815260026020526040902060030155565b348015610ada57600080fd5b50610aee610ae93660046154d3565b612871565b60408051938452602084019290925290820152606001610326565b348015610b1557600080fd5b5061031c610b24366004615639565b612b17565b348015610b3557600080fd5b50610b49610b4436600461529c565b613057565b60405164ffffffffff9091168152602001610326565b348015610b6b57600080fd5b506108c2610b7a366004615255565b613332565b348015610b8b57600080fd5b50610baf610b9a366004615255565b60096020526000908152604090205460ff1681565b60405161032691906156d8565b348015610bc857600080fd5b506102fa610bd7366004615255565b613397565b348015610be857600080fd5b5060075461036e9060ff1681565b348015610c0257600080fd5b506108c2610c11366004615255565b613410565b610c1e61346e565b600260005403610c495760405162461bcd60e51b8152600401610c4090615700565b60405180910390fd5b60026000556007805461ff00191661010060ff8416908102919091179091556040519081527fa1c52f9241e2609b5e6bd1b508707a109021d174cc16f3b16215c457d4bbddfa906020015b60405180910390a1506001600055565b6001600160a01b038116600090815260026020526040808220905163d73fd34160e01b8152600481019190915273__$d5b0dec45940a7a1291c9da6fe7c8bb2e1$__9063d73fd341906024015b602060405180830381865af4158015610d0e573d6000803e3d6000fd5b505050506040513d601f19601f82011682018060405250810190610d329190615737565b92915050565b600260005403610d5a5760405162461bcd60e51b8152600401610c4090615700565b60026000556060810135610d6d816134c8565b610d7a6020830183615255565b610d838161350a565b6000600681610d956020870187615255565b6001600160a01b03166001600160a01b031681526020019081526020016000206000856020016020810190610dca9190615750565b1515151581526020019081526020016000206000856040016020810190610df1919061576d565b64ffffffffff1681526020810191909152604001600020546001600160a01b0316905080610e5b5760405162461bcd60e51b8152602060048201526017602482015276141157d0d313ce881bdc99195c881b9bdd08195e1a5cdd604a1b6044820152606401610c40565b610e6481613580565b6001600160a01b0381166000908152600260209081526040808320815160c0810190925273__$20e084fd68fd7ab4ec93efaca84ca46fc4$__92637ae9aeb292908190610eb3908b018b615255565b6001600160a01b03168152602001610ed160608b0160408c0161576d565b64ffffffffff168152602001896020016020810190610ef09190615750565b15158152600754600160281b900462ffffff166020820152604001336001600160a01b0390811688821614825260075460ff9081166020938401526040805160e088901b6001600160e01b03191681526004810196909652845190921660248601529183015164ffffffffff16604485015282015115156064840152606082015162ffffff1660848401526080820151151560a484015260a0909101511660c482015260e401602060405180830381865af4158015610fb3573d6000803e3d6000fd5b505050506040513d601f19601f82011682018060405250810190610fd7919061578a565b905080610fe5576000610fe7565b335b6001600160a01b0316610ffd6020870187615255565b6001600160a01b039081169084167f4de6bf440f231c89a9a5151794265a35b57c248083faeae83678c9259a7dd12361103c60408a0160208b01615750565b61104c60608b0160408c0161576d565b60408051921515835264ffffffffff90911660208301520160405180910390a450506001600055505050565b60026000540361109a5760405162461bcd60e51b8152600401610c4090615700565b6002600055806110a98161360d565b336110b381613580565b6001600160a01b038116600090815260026020526040908190209051630530e4fd60e41b815273__$d5b0dec45940a7a1291c9da6fe7c8bb2e1$__9163530e4fd091611104919087906004016157a7565b60006040518083038186803b15801561111c57600080fd5b505af4158015611130573d6000803e3d6000fd5b505060016000555050505050565b6001600160a01b03811660009081526002602052604080822090516344ae957f60e11b8152600481019190915273__$d5b0dec45940a7a1291c9da6fe7c8bb2e1$__9063895d2afe90602401610cf1565b60006001600960006111a76040860160208701615255565b6001600160a01b0316815260208101919091526040016000205460ff1660028111156111d5576111d56156c2565b146111e257506000919050565b60006111f16020840184615255565b905060006112056060850160408601615255565b905061128f60026000846001600160a01b03166001600160a01b031681526020019081526020016000208560200160208101906112429190615255565b6112526080880160608901615750565b61126260a0890160808a01615750565b60075462ffffff600160281b8204811691600160401b9004166001600160a01b0389811690891614613685565b949350505050565b6002600054036112b95760405162461bcd60e51b8152600401610c4090615700565b6002600055336112c881613580565b6001600160a01b0381811660008181526002602090815260409182902082516080810184527f00000000000000000000000000000000000000000000000000000000000000008616815291820187815282840194855260075462010000900462ffffff908116606085019081529451638b72b4c760e01b815260048101939093529251861660248301525160448201529251909316606483015251909116608482015273__$2adfba613814486128a81a7b4ccb98752b$__90638b72b4c79060a40160006040518083038186803b1580156113a257600080fd5b505af41580156113b6573d6000803e3d6000fd5b50505050806001600160a01b03167f7084f5476618d8e60b11ef0d7d3f06914655adb8793e28ff7f018d4c76d505d5836040516113f591815260200190565b60405180910390a250506001600055565b6001600160a01b03831660009081526002602052604090819020905163733242af60e11b815260609173__$20e084fd68fd7ab4ec93efaca84ca46fc4$__9163e664855e9161145b91879087906004016157be565b600060405180830381865af4158015611478573d6000803e3d6000fd5b505050506040513d6000823e601f3d908101601f191682016040526114a09190810190615870565b90505b9392505050565b6001600160a01b0382166000908152600260205260408082209051632de9906b60e11b815273__$d5b0dec45940a7a1291c9da6fe7c8bb2e1$__91635bd320d6916114fa919086906004016157a7565b602060405180830381865af4158015611517573d6000803e3d6000fd5b505050506040513d601f19601f820116820180604052508101906114a39190615737565b6001600160a01b0381166000908152600260205260408082209051631caf045760e31b8152600481019190915273__$d5b0dec45940a7a1291c9da6fe7c8bb2e1$__9063e57822b890602401610cf1565b61159461346e565b6002600054036115b65760405162461bcd60e51b8152600401610c4090615700565b6002600055336115c581613580565b6001600160a01b0381166000908152600260205260409081902090516333a4aff760e21b81526004810191909152600560248201526044810183905273__$2adfba613814486128a81a7b4ccb98752b$__9063ce92bfdc9060640160006040518083038186803b15801561163857600080fd5b505af415801561164c573d6000803e3d6000fd5b50505050806001600160a01b03167f0880b0e717a57f3b5cbd3fc19396ae3c8cdee5c624c9289477869c38014c8495836040516113f591815260200190565b6001600160a01b03811660009081526002602052604080822090516367dd27b160e01b8152600481019190915273__$d5b0dec45940a7a1291c9da6fe7c8bb2e1$__906367dd27b190602401610cf1565b604080518082018252600080825260208083018290526001600160a01b038616825260029052829020915163195bd60760e31b8152909173__$d5b0dec45940a7a1291c9da6fe7c8bb2e1$__9163cadeb0389161173d9186906004016157a7565b6040805180830381865af4158015611759573d6000803e3d6000fd5b505050506040513d601f19601f820116820180604052508101906114a39190615903565b6001600160a01b038316600090815260026020526040908190209051632e9e3b9360e11b815260609173__$20e084fd68fd7ab4ec93efaca84ca46fc4$__91635d3c7726916117d291879087906004016157be565b600060405180830381865af41580156117ef573d6000803e3d6000fd5b505050506040513d6000823e601f3d908101601f191682016040526114a09190810190615951565b61181f61346e565b6002600054036118415760405162461bcd60e51b8152600401610c4090615700565b6002600055620f424062ffffff8216106118915760405162461bcd60e51b815260206004820152601160248201527050455f5349523a20746f6f206c6172676560781b6044820152606401610c40565b60075462ffffff600160281b909104811690821610156118f35760405162461bcd60e51b815260206004820152601c60248201527f50455f5349523a20736d616c6c6572207468616e206d6d526174696f000000006044820152606401610c40565b6007805464ffffff000019166201000062ffffff8416908102919091179091556040519081527f04f9c1a24c6543f4b91577d82af28fb7ef6d7b9fe46acd0e5c36ef17073b94e690602001610c94565b61194b61346e565b61195560006137d2565b565b61195f61346e565b6002600054036119815760405162461bcd60e51b8152600401610c4090615700565b60026000556007805460ff191660ff83169081179091556040519081527fa7b4760b38e2a630f3073fcd5119972cbf81bd50e3761f86534a69661caf811090602001610c94565b6001600160a01b038216600090815260026020526040808220905163af77d70760e01b815273__$d5b0dec45940a7a1291c9da6fe7c8bb2e1$__9163af77d707916114fa919086906004016157a7565b611a2061346e565b600260005403611a425760405162461bcd60e51b8152600401610c4090615700565b6002600055611a518282613824565b50506001600055565b6001600160a01b0382166000908152600260205260408082209051630d832e2160e31b815273__$d5b0dec45940a7a1291c9da6fe7c8bb2e1$__91636c197108916114fa919086906004016157a7565b6001600160a01b0381166000908152600260205260408082206007549151633c7e525f60e01b81526004810191909152600160281b90910462ffffff16602482015273__$d5b0dec45940a7a1291c9da6fe7c8bb2e1$__90633c7e525f906044015b602060405180830381865af4158015611b29573d6000803e3d6000fd5b505050506040513d601f19601f82011682018060405250810190610d32919061578a565b600080600260005403611b725760405162461bcd60e51b8152600401610c4090615700565b600260005560a0830135611b85816134c8565b611b956040850160208601615255565b611b9e8161350a565b611bb3611bae6020870187615255565b613580565b600073__$0d082d4f68cd76e21bd5ff3b4c3f93bd83$__639b6bfbdf600283611bdf60208b018b615255565b6001600160a01b03166001600160a01b031681526020019081526020016000206040518060e001604052808a6020016020810190611c1d9190615255565b6001600160a01b0316815260408b81013560208301526060808d0135918301919091526080808d013591830191909152600754600160281b810462ffffff169183019190915260ff1660a082015260c001336001600160a01b0316611c8560208d018d615255565b6001600160a01b03908116919091149091526040805160e086901b6001600160e01b031916815260048101949094528251909116602484015260208201516044840152810151606483015260608101516084830152608081015162ffffff1660a483015260a081015160ff1660c483015260c00151151560e48201526101040160c060405180830381865af4158015611d22573d6000803e3d6000fd5b505050506040513d601f19601f82011682018060405250810190611d469190615a0b565b9050611d586040870160208801615255565b6001600160a01b0316611d6e6020880188615255565b6001600160a01b03167f6412738c4a8b04483cde318a630d4c268654a7ebd52c9ef2c516e5e8520a4fd88360a00151611da8576000611daa565b335b84516020808701516040808901516060808b01516080808d015185516001600160a01b039a909a168a5296890197909752878401949094528f830135908701529385019390935260a084015260c0830152519081900360e00190a38051602090910151600160005590969095509350505050565b611e2661346e565b600260005403611e485760405162461bcd60e51b8152600401610c4090615700565b6002600055620f4240611e5e6020830183615472565b62ffffff1610611eb05760405162461bcd60e51b815260206004820152601f60248201527f50455f534c52433a20746f6f206c617267652072657761726420726174696f006044820152606401610c40565b6000611ec26040830160208401615a9a565b61ffff1611611f0f5760405162461bcd60e51b815260206004820152601960248201527850455f534c52433a20656d612074696d65206973207a65726f60381b6044820152606401610c40565b806008611f1c8282615ab7565b507f1185c4964ca5cd3d88d5dfbc1fb65b84d5533e3354f3b2163e8e1c0f35bca0e19050611f4d6020830183615472565b611f5d6040840160208501615a9a565b6040805162ffffff909316835261ffff909116602083015201610c94565b6060816001600160401b03811115611f9557611f956157df565b604051908082528060200260200182016040528015611fc857816020015b6060815260200190600190039081611fb35790505b50905060005b828110156120685761203830858584818110611fec57611fec615b05565b9050602002810190611ffe9190615b1b565b8080601f016020809104026020016040519081016040528093929190818152602001838380828437600092019190915250613b0092505050565b82828151811061204a5761204a615b05565b6020026020010181905250808061206090615b7e565b915050611fce565b5092915050565b61209360405180606001604052806000815260200160008152602001600081525090565b506001600160a01b03808316600090815260026020818152604080842094861684526001948501825292839020835160608101855281548152948101549185019190915201549082015292915050565b6002600054036121055760405162461bcd60e51b8152600401610c4090615700565b60026000553361211481613580565b6001600160a01b038116600090815260026020526040808220905163218be9d560e11b815260048101919091526003602482015273__$2adfba613814486128a81a7b4ccb98752b$__90634317d3aa90604401602060405180830381865af4158015612184573d6000803e3d6000fd5b505050506040513d601f19601f820116820180604052508101906121a89190615737565b905080156121f457816001600160a01b03167f02637aab023322fc124131f556858082be212382f69cdec79efddcbfbc5c0205826040516121eb91815260200190565b60405180910390a25b7f00000000000000000000000000000000000000000000000000000000000000006001600160a01b03166123315782156122685760405162461bcd60e51b815260206004820152601560248201527450455f443a20616d6f756e74206e6f74207a65726f60581b6044820152606401610c40565b6001600160a01b038216600090815260026020526040908190209051624d1ed560e11b8152600481019190915234602482015273__$2adfba613814486128a81a7b4ccb98752b$__90629a3daa9060440160006040518083038186803b1580156122d157600080fd5b505af41580156122e5573d6000803e3d6000fd5b50505050816001600160a01b03167f2da466a7b24304f47e87fa2e1e5a81b9831ce54fec19055ce277ca2f39ba42c43460405161232491815260200190565b60405180910390a2612491565b341561237a5760405162461bcd60e51b815260206004820152601860248201527750455f443a206d73672e76616c7565206e6f74207a65726f60401b6044820152606401610c40565b6001600160a01b0382811660008181526002602090815260409182902082516060810184527f0000000000000000000000000000000000000000000000000000000000000000861681529182018881528284019485529251631faeb67360e31b81526004810191909152905184166024820152905160448201529051909116606482015273__$2adfba613814486128a81a7b4ccb98752b$__9063fd75b3989060840160006040518083038186803b15801561243557600080fd5b505af4158015612449573d6000803e3d6000fd5b50505050816001600160a01b03167f2da466a7b24304f47e87fa2e1e5a81b9831ce54fec19055ce277ca2f39ba42c48460405161248891815260200190565b60405180910390a25b5050600160005550565b6124a361346e565b6002600054036124c55760405162461bcd60e51b8152600401610c4090615700565b600260005560075462ffffff620100009091048116908216111561252b5760405162461bcd60e51b815260206004820152601b60248201527f50455f534d523a20626967676572207468616e20696d526174696f00000000006044820152606401610c40565b60008162ffffff161161256f5760405162461bcd60e51b815260206004820152600c60248201526b50455f534d523a207a65726f60a01b6044820152606401610c40565b6007805467ffffff00000000001916600160281b62ffffff8416908102919091179091556040519081527ffbd0bf17b9833a130f5baeccbfc586acefc75be8ad5bb114f448e412adc4c05b90602001610c94565b6001600160a01b0382166000908152600260205260408082209051632691409160e01b815273__$d5b0dec45940a7a1291c9da6fe7c8bb2e1$__916326914091916114fa919086906004016157a7565b60006126256040830160208401615255565b61262e8161350a565b600061263d6020850185615255565b905060006126516060860160408701615255565b905061272260026000846001600160a01b03166001600160a01b0316815260200190815260200160002060405180610100016040528088602001602081019061269a9190615255565b6001600160a01b031681526020016126b860808a0160608b01615750565b151581526020016126cf60a08a0160808b01615750565b1515815260a0808a0135602083015260c08a0135604083015260075462ffffff600160281b820481166060850152600160401b9091041660808301526001600160a01b0387811690871614910152613b25565b95945050505050565b6001600160a01b03811660009081526002602090815260409182902060040180548351818402810184019094528084526060939283018282801561279857602002820191906000526020600020905b81546001600160a01b0316815260019091019060200180831161277a575b50505050509050919050565b6127ac61346e565b6002600054036127ce5760405162461bcd60e51b8152600401610c4090615700565b600260005561271062ffffff8216111561281f5760405162461bcd60e51b815260206004820152601260248201527150455f535046523a20746f6f206c6172676560701b6044820152606401610c40565b6007805462ffffff60401b1916600160401b62ffffff8416908102919091179091556040519081527f68c41b7a5c12c4d9cbb99ec284bf647922a75f379a90694e3ad65574f4ff944d90602001610c94565b60008060006002600054036128985760405162461bcd60e51b8152600401610c4090615700565b600260005560a08401356128ab816134c8565b6128b86020860186615255565b6128c18161350a565b336128cb81613580565b6001600160a01b0381166000908152600260209081526040808320815160e0810190925273__$0d082d4f68cd76e21bd5ff3b4c3f93bd83$__926360e361e09290819061291a908e018e615255565b6001600160a01b0316815260208d810135908201526040808e0135818301526060808f0135908301526080808f01359083015260075462ffffff6201000082041660a084015260ff1660c090920191909152516001600160e01b031960e085901b1681526129ed92919060040160006101008201905083825260018060a01b038351166020830152602083015160408301526040830151606083015260608301516080830152608083015160a083015262ffffff60a08401511660c083015260ff60c08401511660e08301529392505050565b606060405180830381865af4158015612a0a573d6000803e3d6000fd5b505050506040513d601f19601f82011682018060405250810190612a2e9190615b97565b6001600160a01b038316600090815260026020908152604082209293509091600101908290612a5f908c018c615255565b6001600160a01b031681526020808201929092526040016000209150612a87908a018a615255565b82516020808501516040808701516001870154600288015483519687529486019390935290840152606083015260808201526001600160a01b03918216918516907fea3191ffbe2f62bfd724ee8d971b15ff9b7994e3a9169dc4c60443be3e4a43c49060a00160405180910390a35080516020820151604090920151600160005590999198509650945050505050565b6000600260005403612b3b5760405162461bcd60e51b8152600401610c4090615700565b600260005560c0820135612b4e816134c8565b612b5e6040840160208501615255565b612b678161350a565b612b77611bae6020860186615255565b6000612b8285613c16565b90508061010001516060015164ffffffffff16600014612da5576000600681612bb16040890160208a01615255565b6001600160a01b03166001600160a01b031681526020019081526020016000206000876040016020810190612be69190615750565b15158152602080820192909252604090810160009081206101008601516060015164ffffffffff1682528352818120546001600160a01b031680825260028452828220909450909273__$20e084fd68fd7ab4ec93efaca84ca46fc4$__92635a9813c69291612c59918c01908c01615255565b612c6960608c0160408d01615750565b6007546101008901516040805160e088901b6001600160e01b031916815260048101969096526001600160a01b039094166024860152911515604485015260ff16606484015280516084840152602081015160a48401529081015160c48301526060015164ffffffffff1660e482015261010401602060405180830381865af4158015612cfa573d6000803e3d6000fd5b505050506040513d601f19601f82011682018060405250810190612d1e9190615737565b9050612d306040880160208901615255565b6001600160a01b039081169083167f6a44f7a15d600604cd07ab787ae45c22908a25bcc8a24e951f297a4ff4885ccc612d6f60608b0160408c01615750565b6101008701516020808201516040928301518351941515855291840152908201526060810185905260800160405180910390a350505b6000612db76040870160208801615255565b6001600160a01b0316639482de1a6040518163ffffffff1660e01b8152600401602060405180830381865afa158015612df4573d6000803e3d6000fd5b505050506040513d601f19601f82011682018060405250810190612e189190615737565b90506000612e2c6040880160208901615255565b6001600160a01b0316638ee8fe5d6040518163ffffffff1660e01b8152600401602060405180830381865afa158015612e69573d6000803e3d6000fd5b505050506040513d601f19601f82011682018060405250810190612e8d9190615737565b90508260e0015115612f6b5733612eaa6040890160208a01615255565b6001600160a01b0316612ec060208a018a615255565b6001600160a01b03167f7c3978559b662b8adf839d43cce2ec6ab7db3fdc995575e4576acc9e0628985d866000015187602001518860400151896060015189898c608001518d60a001518e60c00151604051612f5e99989796959493929190988952602089019790975260408801959095526060870193909352608086019190915260a085015260c084015260e08301526101008201526101200190565b60405180910390a4613001565b612f7b6040880160208901615255565b6001600160a01b0316612f916020890189615255565b84516020808701516040808901516060808b0151835196875294860193909352908401528201526080810185905260a081018490526001600160a01b0391909116907fe386a40c070a1424ae709b98c27e64993228f777c6294ef7149cf0ee42ef46e89060c00160405180910390a35b6130116060880160408901615750565b15156130236080890160608a01615750565b15151461303a57825161303590613d8c565b613047565b6130478360200151613d8c565b6001600055979650505050505050565b600060026000540361307b5760405162461bcd60e51b8152600401610c4090615700565b6002600055608082013561308e816134c8565b61309b6020840184615255565b6130a48161350a565b336130ae81613580565b6001600160a01b038116600090815260026020908152604091829020825160e0810190935273__$20e084fd68fd7ab4ec93efaca84ca46fc4$__9263d34e48d49281906130fd908b018b615255565b6001600160a01b0316815260200189604001358152602001896060013581526020018960200160208101906131329190615750565b1515815260075462ffffff620100008204811660208085019190915260ff808416604080870191909152610100909404811660609586015283516001600160e01b031960e08a901b168152600481019790975285516001600160a01b031660248801529085015160448701529184015160648601529183015115156084850152608083015190911660a484015260a0820151811660c484015260c0909101511660e482015261010401602060405180830381865af41580156131f8573d6000803e3d6000fd5b505050506040513d601f19601f8201168201806040525081019061321c9190615bf2565b935080600660006132306020890189615255565b6001600160a01b03166001600160a01b0316815260200190815260200160002060008760200160208101906132659190615750565b151581526020808201929092526040908101600090812064ffffffffff8916825283522080546001600160a01b0319166001600160a01b0393909316929092179091556132b490860186615255565b6001600160a01b039081169082167f22c125447e6a06158aefb2637c0f7d1a544b0bb331e126582be4a4e70d3e6c886132f36040890160208a01615750565b6040805191151582528981013560208301526060808b01358383015264ffffffffff8a1690830152519081900360800190a35050600160005550919050565b6001600160a01b0381166000908152600260205260408082206007549151634d3a1f3d60e11b815260048101919091526201000090910462ffffff16602482015273__$d5b0dec45940a7a1291c9da6fe7c8bb2e1$__90639a743e7a90604401611b0c565b61339f61346e565b6001600160a01b0381166134045760405162461bcd60e51b815260206004820152602660248201527f4f776e61626c653a206e6577206f776e657220697320746865207a65726f206160448201526564647265737360d01b6064820152608401610c40565b61340d816137d2565b50565b6001600160a01b03811660009081526002602052604080822090516210164360e11b8152600481019190915273__$d5b0dec45940a7a1291c9da6fe7c8bb2e1$__9062202c8690602401611b0c565b6001600160a01b03163b151590565b6001546001600160a01b031633146119555760405162461bcd60e51b815260206004820181905260248201527f4f776e61626c653a2063616c6c6572206973206e6f7420746865206f776e65726044820152606401610c40565b8042111561340d5760405162461bcd60e51b815260206004820152600f60248201526e50455f43443a20746f6f206c61746560881b6044820152606401610c40565b60016001600160a01b03821660009081526009602052604090205460ff166002811115613539576135396156c2565b1461340d5760405162461bcd60e51b81526020600482015260176024820152762822afa1a6a79d1036b0b935b2ba103737ba1037b832b760491b6044820152606401610c40565b6001600160a01b038116600090815260026020526040908190206007549151635c02a9e960e01b8152600481019190915260ff909116602482015273__$20e084fd68fd7ab4ec93efaca84ca46fc4$__90635c02a9e99060440160006040518083038186803b1580156135f257600080fd5b505af4158015613606573d6000803e3d6000fd5b5050505050565b60026001600160a01b03821660009081526009602052604090205460ff16600281111561363c5761363c6156c2565b1461340d5760405162461bcd60e51b8152602060048201526019602482015278141157d0d350ce881b585c9ad95d081b9bdd0818db1bdcd959603a1b6044820152606401610c40565b604051633c7e525f60e01b81526004810188905262ffffff84166024820152600090819073__$d5b0dec45940a7a1291c9da6fe7c8bb2e1$__90633c7e525f90604401602060405180830381865af41580156136e5573d6000803e3d6000fd5b505050506040513d601f19601f82011682018060405250810190613709919061578a565b15905082158015613718575080155b156137275760009150506137c7565b8362ffffff166000036137b55760405163e8fa204f60e01b81528715156004820152861515602482015281151560448201526001600160a01b0389169063e8fa204f90606401602060405180830381865afa15801561378a573d6000803e3d6000fd5b505050506040513d601f19601f820116820180604052508101906137ae9190615737565b91506137c5565b6137c28888888785613db5565b91505b505b979650505050505050565b600180546001600160a01b038381166001600160a01b0319831681179093556040519116919082907f8be0079c531659141344cd1fd0a4f28419497f9722a3daafe3b4186f6b6457e090600090a35050565b806002811115613836576138366156c2565b6001600160a01b03831660009081526009602052604090205460ff166002811115613863576138636156c2565b0361386c575050565b6001816002811115613880576138806156c2565b03613a1d57613897826001600160a01b031661345f565b6138e35760405162461bcd60e51b815260206004820152601f60248201527f50455f53494d413a206d61726b6574206164647265737320696e76616c6964006044820152606401610c40565b306001600160a01b0316826001600160a01b031663d2f7265a6040518163ffffffff1660e01b8152600401602060405180830381865afa15801561392b573d6000803e3d6000fd5b505050506040513d601f19601f8201168201806040525081019061394f9190615c0f565b6001600160a01b0316146139a55760405162461bcd60e51b815260206004820152601b60248201527f50455f53494d413a20646966666572656e742065786368616e676500000000006044820152606401610c40565b6001600160a01b03821660009081526009602052604081205460ff1660028111156139d2576139d26156c2565b14613a185760405162461bcd60e51b8152602060048201526016602482015275141157d4d253504e881b585c9ad95d0818db1bdcd95960521b6044820152606401610c40565b613a81565b6002816002811115613a3157613a316156c2565b03613a3f57613a188261350a565b60405162461bcd60e51b815260206004820152601760248201527650455f53494d413a20696e76616c69642073746174757360481b6044820152606401610c40565b6001600160a01b0382166000908152600960205260409020805482919060ff19166001836002811115613ab657613ab66156c2565b0217905550816001600160a01b03167f74254d01f8ce923659c1e8739f33585649bc64b648a0382f22174528e5da382e82604051613af491906156d8565b60405180910390a25050565b60606114a38383604051806060016040528060278152602001615e4960279139613e7a565b600080613b428484600001518560e001518660a001516001613f55565b90508260c0015162ffffff16600003613bdd57825160208401516040808601516060870151915162de853760e31b81526001600160a01b03909416936306f429b893613b95939092918790600401615c2c565b602060405180830381865afa158015613bb2573d6000803e3d6000fd5b505050506040513d601f19601f82011682018060405250810190613bd69190615737565b9150613c03565b613bff83600001518460200151856040015186606001518760c0015186614178565b5091505b6120688360400151838560800151614386565b613c1e61519b565b610d3260026000613c326020860186615255565b6001600160a01b03166001600160a01b0316815260200190815260200160002060026000613c5d3390565b6001600160a01b03166001600160a01b0316815260200190815260200160002060030160036005604051806101600160405280886020016020810190613ca39190615255565b6001600160a01b03168152602001613cc160608a0160408b01615750565b15158152602001613cd860808a0160608b01615750565b151581526080808a0135602083015260a0808b0135604084015260075462ffffff600160281b82048116606086015262010000820481169385019390935260ff811691840191909152600160401b90041660c082015260e001613d383390565b6001600160a01b0316613d4e60208b018b615255565b6001600160a01b03161481526040805180820190915260085462ffffff811682526301000000900461ffff1660208083019190915290910152614431565b600080821215613dac57613da7613da28361469d565b6146fb565b610d32565b610d32826146fb565b60405163e8fa204f60e01b81528415156004820152831515602482015281151560448201526000906001600160a01b0387169063e8fa204f90606401602060405180830381865afa158015613e0e573d6000803e3d6000fd5b505050506040513d601f19601f82011682018060405250810190613e329190615737565b90508315613e5d578461272257613e56613e4f620f424085614751565b82906147b7565b9050612722565b841561272257613e56613e73620f424085614751565b82906147cc565b6060613e858461345f565b613ee05760405162461bcd60e51b815260206004820152602660248201527f416464726573733a2064656c65676174652063616c6c20746f206e6f6e2d636f6044820152651b9d1c9858dd60d21b6064820152608401610c40565b600080856001600160a01b031685604051613efb9190615c4b565b600060405180830381855af49150503d8060008114613f36576040519150601f19603f3d011682016040523d82523d6000602084013e613f3b565b606091505b5091509150613f4b8282866147e1565b9695505050505050565b604051633c7e525f60e01b81526004810186905262ffffff8316602482015260009073__$d5b0dec45940a7a1291c9da6fe7c8bb2e1$__90633c7e525f90604401602060405180830381865af4158015613fb3573d6000803e3d6000fd5b505050506040513d601f19601f82011682018060405250810190613fd7919061578a565b1590508361401f578061401f5760405162461bcd60e51b815260206004820152601060248201526f544c5f56543a20656e6f756768206d6d60801b6044820152606401610c40565b8115801561402a5750805b15612722576001600160a01b0385166000908152600187016020526040902054156140975760405162461bcd60e51b815260206004820181905260248201527f544c5f56543a206e6f206d616b6572207768656e206c69717569646174696f6e6044820152606401610c40565b6001600160a01b038516600090815260028701602052604090205464ffffffffff16156141065760405162461bcd60e51b815260206004820152601e60248201527f544c5f56543a206e6f2061736b207768656e206c69717569646174696f6e00006044820152606401610c40565b6001600160a01b038516600090815260028088016020526040909120015464ffffffffff16156127225760405162461bcd60e51b815260206004820152601e60248201527f544c5f56543a206e6f20626964207768656e206c69717569646174696f6e00006044820152606401610c40565b60008085156142a05786156142185760405162de853760e31b81526001600160a01b038916906306f429b8906141b8908a908a908a908990600401615c2c565b602060405180830381865afa1580156141d5573d6000803e3d6000fd5b505050506040513d601f19601f820116820180604052508101906141f99190615737565b915061420582856147cc565b9050614211828261481a565b915061437b565b61422285856147cc565b90506001600160a01b0388166306f429b8888861423f898661481a565b876040518563ffffffff1660e01b815260040161425f9493929190615c2c565b602060405180830381865afa15801561427c573d6000803e3d6000fd5b505050506040513d601f19601f820116820180604052508101906142119190615737565b86156142e4576142c7856142c16142ba620f424088614751565b88906147b7565b9061481a565b90506001600160a01b0388166306f429b8888861423f8986614826565b60405162de853760e31b81526000906001600160a01b038a16906306f429b890614318908b908b908b908a90600401615c2c565b602060405180830381865afa158015614335573d6000803e3d6000fd5b505050506040513d601f19601f820116820180604052508101906143599190615737565b905061436b613e4f620f424087614751565b9250614377838261481a565b9150505b965096945050505050565b82156143e157808210156143dc5760405162461bcd60e51b815260206004820181905260248201527f544c5f56533a20746f6f20736d616c6c206f70706f7369746520616d6f756e746044820152606401610c40565b505050565b808211156143dc5760405162461bcd60e51b815260206004820181905260248201527f544c5f56533a20746f6f206c61726765206f70706f7369746520616d6f756e746044820152606401610c40565b61443961519b565b6144548683600001518461012001518560a001516000613f55565b151560e080830191825283516001600160a01b03908116600090815260208a8152604091829020548251610100808201855289519095168152828901511515928101929092528288015115159282019290925260608088015190820152608080880151908201528684015160ff1660a08201529186015162ffffff1660c083015292511515918101919091526144ed9088908690614832565b61010087015260608601526040850152602084015280835260009081906145139061496d565b845161452990614524908690614995565b61496d565b6145339190615c67565b1390508260e00151156145c457801561458e5760405162461bcd60e51b815260206004820152601f60248201527f544c5f4f503a206e6f206f70656e207768656e206c69717569646174696f6e006044820152606401610c40565b6145b48860030188888760a001518861014001516145af8960200151613d8c565b6149a1565b60c086015260a085015260808401525b80156146925760c0840151604051634d3a1f3d60e11b8152600481018a905262ffffff909116602482015273__$d5b0dec45940a7a1291c9da6fe7c8bb2e1$__90639a743e7a90604401602060405180830381865af415801561462b573d6000803e3d6000fd5b505050506040513d601f19601f8201168201806040525081019061464f919061578a565b6146925760405162461bcd60e51b8152602060048201526014602482015273544c5f4f503a206e6f7420656e6f75676820696d60601b6044820152606401610c40565b505095945050505050565b6000600160ff1b82136146f25760405162461bcd60e51b815260206004820152601c60248201527f506572704d6174683a20696e76657273696f6e206f766572666c6f77000000006044820152606401610c40565b610d3282615cec565b60008082121561474d5760405162461bcd60e51b815260206004820181905260248201527f53616665436173743a2076616c7565206d75737420626520706f7369746976656044820152606401610c40565b5090565b60008262ffffff168262ffffff1611156147ad5760405162461bcd60e51b815260206004820152601e60248201527f506572704d6174683a207375627472616374696f6e206f766572666c6f7700006044820152606401610c40565b6114a38284615d08565b60006114a383620f42408462ffffff16614a36565b60006114a3838362ffffff16620f4240614a36565b606083156147f05750816114a3565b8251156148005782518084602001fd5b8160405162461bcd60e51b8152600401610c409190615d24565b60006114a38284615d37565b60006114a38284615d4a565b6000806000806148406151ee565b60c086015160009062ffffff16156148855761487988886000015189602001518a604001518b606001518c60c001518d60e00151614ae5565b90945092509050614915565b865160208801516040808a015160608b015160e08c015192516380796d5560e01b81526001600160a01b03909516946380796d55946148ca9490939291600401615c2c565b6080604051808303816000875af11580156148e9573d6000803e3d6000fd5b505050506040513d601f19601f8201168201806040525081019061490d9190615d5d565b805190925090505b6149288760400151828960800151614386565b61494087602001518860400151896060015184614d1e565b809650819750505061495f898860000151888860008c60a00151614d8d565b935050939792965093509350565b600080821361498d5760008212614985576000610d32565b600019610d32565b600192915050565b60006114a38284615dc8565b600080806149af84876147cc565b85519093506149bf9084906147cc565b91506149cb838361481a565b90506149e4876001015483876020015161ffff16614e8e565b60018901919091559150614a026149fa84614ec2565b8a5490614f2c565b8955614a18614a1083614ec2565b895490614995565b88558654614a269082614826565b9096559097909650939450505050565b6000808060001985870985870292508281108382030391505080600003614a7057838281614a6657614a66615df0565b04925050506114a3565b808411614a7c57600080fd5b60008486880960026001871981018816978890046003810283188082028403028082028403028082028403028082028403028082028403029081029092039091026000889003889004909101858311909403939093029303949094049190911702949350505050565b600080614af06151ee565b8615614c29578715614b94576040516380796d5560e01b81526001600160a01b038a16906380796d5590614b2e908b908b908b908a90600401615c2c565b6080604051808303816000875af1158015614b4d573d6000803e3d6000fd5b505050506040513d601f19601f82011682018060405250810190614b719190615d5d565b805193509050614b8183866147cc565b9150614b8d838361481a565b9250614d01565b614b9e86866147cc565b91506001600160a01b0389166380796d558989614bbb8a8761481a565b886040518563ffffffff1660e01b8152600401614bdb9493929190615c2c565b6080604051808303816000875af1158015614bfa573d6000803e3d6000fd5b505050506040513d601f19601f82011682018060405250810190614c1e9190615d5d565b805193509050614d01565b8715614c6757614c4a866142c1614c43620f424089614751565b89906147b7565b91506001600160a01b0389166380796d558989614bbb8a87614826565b6040516380796d5560e01b81526001600160a01b038a16906380796d5590614c99908b908b908b908a90600401615c2c565b6080604051808303816000875af1158015614cb8573d6000803e3d6000fd5b505050506040513d601f19601f82011682018060405250810190614cdc9190615d5d565b8051909150614cf1613e4f620f424088614751565b9350614cfd848261481a565b9250505b8954614d0d9083614826565b909955909890979650945050505050565b6000808415614d5a578515614d4857614d3684614f38565b614d3f84614ec2565b91509150614d84565b614d5183614ec2565b614d3f85614f38565b8515614d7257614d6983614f38565b614d3f85614ec2565b614d7b84614ec2565b614d3f84614f38565b94509492505050565b6001600160a01b0385166000908152602087815260408083208151808301909252805482526001015491810191909152614dc990868686614f4c565b6001600160a01b038816600090815260208a81526040909120835181559201516001909201919091556003880154909150614e049082614995565b600388015560405163724055e760e01b8152600481018890526001600160a01b038716602482015260ff8316604482015273__$d5b0dec45940a7a1291c9da6fe7c8bb2e1$__9063724055e79060640160006040518083038186803b158015614e6c57600080fd5b505af4158015614e80573d6000803e3d6000fd5b505050509695505050505050565b600080614e9b8585614826565b9450614eac8562ffffff85166150eb565b9050614eb8858261481a565b9150935093915050565b60006001600160ff1b0382111561474d5760405162461bcd60e51b815260206004820152602860248201527f53616665436173743a2076616c756520646f65736e27742066697420696e2061604482015267371034b73a191a9b60c11b6064820152608401610c40565b60006114a38284615e06565b6000614f4382614ec2565b610d3290615cec565b6040805180820190915260008082526020820152600084151580614f6f57508315155b1561504857614f7d8461496d565b614f868661496d565b614f909190615c67565b60001914614fa357508490506000614d84565b614fac8561496d565b8651614fb79061496d565b614fc19190615c67565b19615048576000614fd186613d8c565b90506000614fe28860000151613d8c565b9050808211615019576000615005614ff984614ec2565b60208b015190846150f7565b90506150118782614995565b935050615045565b600061502f61502783614ec2565b8890856150f7565b60208a01519091506150419082614995565b9350505b50505b6150528184614995565b86519091506000906150649087614995565b905060006150938361508d876150878a8d6020015161499590919063ffffffff16565b90614995565b90614f2c565b9050811580156150a1575080155b806150c857506150b08161496d565b6150b98361496d565b6150c39190615c67565b600019145b6150da57876000935093505050614d84565b908352602083015294509492505050565b60006114a38284615e26565b600080600085126151085784615111565b6151118561469d565b90506000808512615122578461512b565b61512b8561469d565b90506000808712801561513e5750600086135b8061515457506000871380156151545750600086125b61515f576000615162565b60015b90506000615171848488614a36565b9050816151865761518181614ec2565b61518f565b61518f81614f38565b98975050505050505050565b604051806101200160405280600081526020016000815260200160008152602001600081526020016000815260200160008152602001600081526020016000151581526020016151e96151ee565b905290565b6040518060800160405280600081526020016000815260200160008152602001600064ffffffffff1681525090565b60006020828403121561522f57600080fd5b813560ff811681146114a357600080fd5b6001600160a01b038116811461340d57600080fd5b60006020828403121561526757600080fd5b81356114a381615240565b60006080828403121561528457600080fd5b50919050565b600060a0828403121561528457600080fd5b600060a082840312156152ae57600080fd5b6114a3838361528a565b6000602082840312156152ca57600080fd5b5035919050565b600080604083850312156152e457600080fd5b82356152ef81615240565b915060208301356152ff81615240565b809150509250929050565b801515811461340d57600080fd5b64ffffffffff8116811461340d57600080fd5b60008060006060848603121561534057600080fd5b833561534b81615240565b9250602084013561535b8161530a565b9150604084013561536b81615318565b809150509250925092565b60008060006060848603121561538b57600080fd5b833561539681615240565b925060208401356153a681615240565b9150604084013561536b8161530a565b6020808252825182820181905260009190848201906040850190845b818110156153f557835164ffffffffff16835292840192918401916001016153d2565b50909695505050505050565b602080825282518282018190526000919060409081850190868401855b82811015615454578151805164ffffffffff1685528681015187860152850151858501526060909301929085019060010161541e565b5091979650505050505050565b62ffffff8116811461340d57600080fd5b60006020828403121561548457600080fd5b81356114a381615461565b600080604083850312156154a257600080fd5b82356154ad81615240565b91506020830135600381106152ff57600080fd5b600060c0828403121561528457600080fd5b600060c082840312156154e557600080fd5b6114a383836154c1565b60006040828403121561528457600080fd5b6000806020838503121561551457600080fd5b82356001600160401b038082111561552b57600080fd5b818501915085601f83011261553f57600080fd5b81358181111561554e57600080fd5b8660208260051b850101111561556357600080fd5b60209290920196919550909350505050565b60005b83811015615590578181015183820152602001615578565b50506000910152565b600081518084526155b1816020860160208601615575565b601f01601f19169290920160200192915050565b6000602080830181845280855180835260408601915060408160051b870101925083870160005b8281101561561a57603f19888603018452615608858351615599565b945092850192908501906001016155ec565b5092979650505050505050565b600060e0828403121561528457600080fd5b600060e0828403121561564b57600080fd5b6114a38383615627565b6020808252825182820181905260009190848201906040850190845b818110156153f55783516001600160a01b031683529284019291840191600101615671565b600080604083850312156156a957600080fd5b82356156b481615240565b946020939093013593505050565b634e487b7160e01b600052602160045260246000fd5b60208101600383106156fa57634e487b7160e01b600052602160045260246000fd5b91905290565b6020808252601f908201527f5265656e7472616e637947756172643a207265656e7472616e742063616c6c00604082015260600190565b60006020828403121561574957600080fd5b5051919050565b60006020828403121561576257600080fd5b81356114a38161530a565b60006020828403121561577f57600080fd5b81356114a381615318565b60006020828403121561579c57600080fd5b81516114a38161530a565b9182526001600160a01b0316602082015260400190565b9283526001600160a01b039190911660208301521515604082015260600190565b634e487b7160e01b600052604160045260246000fd5b604051606081016001600160401b0381118282101715615817576158176157df565b60405290565b604051601f8201601f191681016001600160401b0381118282101715615845576158456157df565b604052919050565b60006001600160401b03821115615866576158666157df565b5060051b60200190565b6000602080838503121561588357600080fd5b82516001600160401b0381111561589957600080fd5b8301601f810185136158aa57600080fd5b80516158bd6158b88261584d565b61581d565b81815260059190911b820183019083810190878311156158dc57600080fd5b928401925b828410156137c75783516158f481615318565b825292840192908401906158e1565b60006040828403121561591557600080fd5b604051604081018181106001600160401b0382111715615937576159376157df565b604052825181526020928301519281019290925250919050565b6000602080838503121561596457600080fd5b82516001600160401b0381111561597a57600080fd5b8301601f8101851361598b57600080fd5b80516159996158b88261584d565b818152606091820283018401918482019190888411156159b857600080fd5b938501935b838510156137c55780858a0312156159d55760008081fd5b6159dd6157f5565b85516159e881615318565b8152858701518782015260408087015190820152835293840193918501916159bd565b600060c08284031215615a1d57600080fd5b60405160c081018181106001600160401b0382111715615a3f57615a3f6157df565b8060405250825181526020830151602082015260408301516040820152606083015160608201526080830151608082015260a0830151615a7e8161530a565b60a08201529392505050565b61ffff8116811461340d57600080fd5b600060208284031215615aac57600080fd5b81356114a381615a8a565b8135615ac281615461565b62ffffff8116905081548162ffffff1982161783556020840135615ae581615a8a565b64ffff0000008160181b168364ffffffffff198416171784555050505050565b634e487b7160e01b600052603260045260246000fd5b6000808335601e19843603018112615b3257600080fd5b8301803591506001600160401b03821115615b4c57600080fd5b602001915036819003821315615b6157600080fd5b9250929050565b634e487b7160e01b600052601160045260246000fd5b600060018201615b9057615b90615b68565b5060010190565b600060608284031215615ba957600080fd5b604051606081018181106001600160401b0382111715615bcb57615bcb6157df565b80604052508251815260208301516020820152604083015160408201528091505092915050565b600060208284031215615c0457600080fd5b81516114a381615318565b600060208284031215615c2157600080fd5b81516114a381615240565b9315158452911515602084015260408301521515606082015260800190565b60008251615c5d818460208701615575565b9190910192915050565b60006001600160ff1b0381841382841380821686840486111615615c8d57615c8d615b68565b600160ff1b6000871282811687830589121615615cac57615cac615b68565b60008712925087820587128484161615615cc857615cc8615b68565b87850587128184161615615cde57615cde615b68565b505050929093029392505050565b6000600160ff1b8201615d0157615d01615b68565b5060000390565b62ffffff82811682821603908082111561206857612068615b68565b6020815260006114a36020830184615599565b81810381811115610d3257610d32615b68565b80820180821115610d3257610d32615b68565b600060808284031215615d6f57600080fd5b604051608081018181106001600160401b0382111715615d9157615d916157df565b80604052508251815260208301516020820152604083015160408201526060830151615dbc81615318565b60608201529392505050565b8082018281126000831280158216821582161715615de857615de8615b68565b505092915050565b634e487b7160e01b600052601260045260246000fd5b818103600083128015838313168383128216171561206857612068615b68565b600082615e4357634e487b7160e01b600052601260045260246000fd5b50049056fe416464726573733a206c6f772d6c6576656c2064656c65676174652063616c6c206661696c6564a2646970667358221220dd5a48f6348377dc45c8271bfc0134ab0e95ddb06fea93962ce362a377496aec64736f6c63430008100033",
  "libraries": {
    "AccountLibrary": "0x6FA1DD7b8A37f278f1FB83Ad47b7E9322f65Ac67",
    "MakerLibrary": "0x126268755195b45136efDE418b0513632bda3eE6",
    "MakerOrderBookLibrary": "0x3FE8D206CDA9892c1cB1ab515895d955A965577B",
    "VaultLibrary": "0xE0b84bC4e4b1Cdd2CA951641E59fFA57d8BFB6DB"
  },
  "devdoc": {
    "kind": "dev",
    "methods": {
      "multicall(bytes[])": {
        "details": "Receives and executes a batch of function calls on this contract."
      },
      "owner()": {
        "details": "Returns the address of the current owner."
      },
      "renounceOwnership()": {
        "details": "Leaves the contract without owner. It will not be possible to call `onlyOwner` functions anymore. Can only be called by the current owner. NOTE: Renouncing ownership will leave the contract without an owner, thereby removing any functionality that is only available to the owner."
      },
      "transferOwnership(address)": {
        "details": "Transfers ownership of the contract to a new account (`newOwner`). Can only be called by the current owner."
      }
    },
    "version": 1
  },
  "userdoc": {
    "kind": "user",
    "methods": {},
    "version": 1
  },
  "storageLayout": {
    "storage": [
      {
        "astId": 925,
        "contract": "contracts/test/DebugPerpdexExchange.sol:DebugPerpdexExchange",
        "label": "_status",
        "offset": 0,
        "slot": "0",
        "type": "t_uint256"
      },
      {
        "astId": 550,
        "contract": "contracts/test/DebugPerpdexExchange.sol:DebugPerpdexExchange",
        "label": "_owner",
        "offset": 0,
        "slot": "1",
        "type": "t_address"
      },
      {
        "astId": 6207,
        "contract": "contracts/test/DebugPerpdexExchange.sol:DebugPerpdexExchange",
        "label": "accountInfos",
        "offset": 0,
        "slot": "2",
        "type": "t_mapping(t_address,t_struct(AccountInfo)15960_storage)"
      },
      {
        "astId": 6210,
        "contract": "contracts/test/DebugPerpdexExchange.sol:DebugPerpdexExchange",
        "label": "insuranceFundInfo",
        "offset": 0,
        "slot": "3",
        "type": "t_struct(InsuranceFundInfo)15965_storage"
      },
      {
        "astId": 6213,
        "contract": "contracts/test/DebugPerpdexExchange.sol:DebugPerpdexExchange",
        "label": "protocolInfo",
        "offset": 0,
        "slot": "5",
        "type": "t_struct(ProtocolInfo)15968_storage"
      },
      {
        "astId": 6221,
        "contract": "contracts/test/DebugPerpdexExchange.sol:DebugPerpdexExchange",
        "label": "orderIdToTrader",
        "offset": 0,
        "slot": "6",
        "type": "t_mapping(t_address,t_mapping(t_bool,t_mapping(t_uint40,t_address)))"
      },
      {
        "astId": 6229,
        "contract": "contracts/test/DebugPerpdexExchange.sol:DebugPerpdexExchange",
        "label": "maxMarketsPerAccount",
        "offset": 0,
        "slot": "7",
        "type": "t_uint8"
      },
      {
        "astId": 6232,
        "contract": "contracts/test/DebugPerpdexExchange.sol:DebugPerpdexExchange",
        "label": "maxOrdersPerAccount",
        "offset": 1,
        "slot": "7",
        "type": "t_uint8"
      },
      {
        "astId": 6235,
        "contract": "contracts/test/DebugPerpdexExchange.sol:DebugPerpdexExchange",
        "label": "imRatio",
        "offset": 2,
        "slot": "7",
        "type": "t_uint24"
      },
      {
        "astId": 6238,
        "contract": "contracts/test/DebugPerpdexExchange.sol:DebugPerpdexExchange",
        "label": "mmRatio",
        "offset": 5,
        "slot": "7",
        "type": "t_uint24"
      },
      {
        "astId": 6241,
        "contract": "contracts/test/DebugPerpdexExchange.sol:DebugPerpdexExchange",
        "label": "protocolFeeRatio",
        "offset": 8,
        "slot": "7",
        "type": "t_uint24"
      },
      {
        "astId": 6249,
        "contract": "contracts/test/DebugPerpdexExchange.sol:DebugPerpdexExchange",
        "label": "liquidationRewardConfig",
        "offset": 0,
        "slot": "8",
        "type": "t_struct(LiquidationRewardConfig)15973_storage"
      },
      {
        "astId": 6254,
        "contract": "contracts/test/DebugPerpdexExchange.sol:DebugPerpdexExchange",
        "label": "marketStatuses",
        "offset": 0,
        "slot": "9",
        "type": "t_mapping(t_address,t_enum(MarketStatus)15910)"
      }
    ],
    "types": {
      "t_address": {
        "encoding": "inplace",
        "label": "address",
        "numberOfBytes": "20"
      },
      "t_array(t_address)dyn_storage": {
        "base": "t_address",
        "encoding": "dynamic_array",
        "label": "address[]",
        "numberOfBytes": "32"
      },
      "t_bool": {
        "encoding": "inplace",
        "label": "bool",
        "numberOfBytes": "1"
      },
      "t_enum(MarketStatus)15910": {
        "encoding": "inplace",
        "label": "enum PerpdexStructs.MarketStatus",
        "numberOfBytes": "1"
      },
      "t_int256": {
        "encoding": "inplace",
        "label": "int256",
        "numberOfBytes": "32"
      },
      "t_mapping(t_address,t_enum(MarketStatus)15910)": {
        "encoding": "mapping",
        "key": "t_address",
        "label": "mapping(address => enum PerpdexStructs.MarketStatus)",
        "numberOfBytes": "32",
        "value": "t_enum(MarketStatus)15910"
      },
      "t_mapping(t_address,t_mapping(t_bool,t_mapping(t_uint40,t_address)))": {
        "encoding": "mapping",
        "key": "t_address",
        "label": "mapping(address => mapping(bool => mapping(uint40 => address)))",
        "numberOfBytes": "32",
        "value": "t_mapping(t_bool,t_mapping(t_uint40,t_address))"
      },
      "t_mapping(t_address,t_struct(AccountInfo)15960_storage)": {
        "encoding": "mapping",
        "key": "t_address",
        "label": "mapping(address => struct PerpdexStructs.AccountInfo)",
        "numberOfBytes": "32",
        "value": "t_struct(AccountInfo)15960_storage"
      },
      "t_mapping(t_address,t_struct(LimitOrderInfo)15933_storage)": {
        "encoding": "mapping",
        "key": "t_address",
        "label": "mapping(address => struct PerpdexStructs.LimitOrderInfo)",
        "numberOfBytes": "32",
        "value": "t_struct(LimitOrderInfo)15933_storage"
      },
      "t_mapping(t_address,t_struct(MakerInfo)15922_storage)": {
        "encoding": "mapping",
        "key": "t_address",
        "label": "mapping(address => struct PerpdexStructs.MakerInfo)",
        "numberOfBytes": "32",
        "value": "t_struct(MakerInfo)15922_storage"
      },
      "t_mapping(t_address,t_struct(TakerInfo)15915_storage)": {
        "encoding": "mapping",
        "key": "t_address",
        "label": "mapping(address => struct PerpdexStructs.TakerInfo)",
        "numberOfBytes": "32",
        "value": "t_struct(TakerInfo)15915_storage"
      },
      "t_mapping(t_bool,t_mapping(t_uint40,t_address))": {
        "encoding": "mapping",
        "key": "t_bool",
        "label": "mapping(bool => mapping(uint40 => address))",
        "numberOfBytes": "32",
        "value": "t_mapping(t_uint40,t_address)"
      },
      "t_mapping(t_uint40,t_address)": {
        "encoding": "mapping",
        "key": "t_uint40",
        "label": "mapping(uint40 => address)",
        "numberOfBytes": "32",
        "value": "t_address"
      },
      "t_mapping(t_uint40,t_struct(Node)21176_storage)": {
        "encoding": "mapping",
        "key": "t_uint40",
        "label": "mapping(uint40 => struct BokkyPooBahsRedBlackTreeLibrary.Node)",
        "numberOfBytes": "32",
        "value": "t_struct(Node)21176_storage"
      },
      "t_struct(AccountInfo)15960_storage": {
        "encoding": "inplace",
        "label": "struct PerpdexStructs.AccountInfo",
        "members": [
          {
            "astId": 15941,
            "contract": "contracts/test/DebugPerpdexExchange.sol:DebugPerpdexExchange",
            "label": "takerInfos",
            "offset": 0,
            "slot": "0",
            "type": "t_mapping(t_address,t_struct(TakerInfo)15915_storage)"
          },
          {
            "astId": 15946,
            "contract": "contracts/test/DebugPerpdexExchange.sol:DebugPerpdexExchange",
            "label": "makerInfos",
            "offset": 0,
            "slot": "1",
            "type": "t_mapping(t_address,t_struct(MakerInfo)15922_storage)"
          },
          {
            "astId": 15951,
            "contract": "contracts/test/DebugPerpdexExchange.sol:DebugPerpdexExchange",
            "label": "limitOrderInfos",
            "offset": 0,
            "slot": "2",
            "type": "t_mapping(t_address,t_struct(LimitOrderInfo)15933_storage)"
          },
          {
            "astId": 15954,
            "contract": "contracts/test/DebugPerpdexExchange.sol:DebugPerpdexExchange",
            "label": "vaultInfo",
            "offset": 0,
            "slot": "3",
            "type": "t_struct(VaultInfo)15936_storage"
          },
          {
            "astId": 15957,
            "contract": "contracts/test/DebugPerpdexExchange.sol:DebugPerpdexExchange",
            "label": "markets",
            "offset": 0,
            "slot": "4",
            "type": "t_array(t_address)dyn_storage"
          },
          {
            "astId": 15959,
            "contract": "contracts/test/DebugPerpdexExchange.sol:DebugPerpdexExchange",
            "label": "limitOrderCount",
            "offset": 0,
            "slot": "5",
            "type": "t_uint8"
          }
        ],
        "numberOfBytes": "192"
      },
      "t_struct(InsuranceFundInfo)15965_storage": {
        "encoding": "inplace",
        "label": "struct PerpdexStructs.InsuranceFundInfo",
        "members": [
          {
            "astId": 15962,
            "contract": "contracts/test/DebugPerpdexExchange.sol:DebugPerpdexExchange",
            "label": "balance",
            "offset": 0,
            "slot": "0",
            "type": "t_uint256"
          },
          {
            "astId": 15964,
            "contract": "contracts/test/DebugPerpdexExchange.sol:DebugPerpdexExchange",
            "label": "liquidationRewardBalance",
            "offset": 0,
            "slot": "1",
            "type": "t_uint256"
          }
        ],
        "numberOfBytes": "64"
      },
      "t_struct(LimitOrderInfo)15933_storage": {
        "encoding": "inplace",
        "label": "struct PerpdexStructs.LimitOrderInfo",
        "members": [
          {
            "astId": 15925,
            "contract": "contracts/test/DebugPerpdexExchange.sol:DebugPerpdexExchange",
            "label": "ask",
            "offset": 0,
            "slot": "0",
            "type": "t_struct(Tree)21184_storage"
          },
          {
            "astId": 15928,
            "contract": "contracts/test/DebugPerpdexExchange.sol:DebugPerpdexExchange",
            "label": "bid",
            "offset": 0,
            "slot": "2",
            "type": "t_struct(Tree)21184_storage"
          },
          {
            "astId": 15930,
            "contract": "contracts/test/DebugPerpdexExchange.sol:DebugPerpdexExchange",
            "label": "totalBaseAsk",
            "offset": 0,
            "slot": "4",
            "type": "t_uint256"
          },
          {
            "astId": 15932,
            "contract": "contracts/test/DebugPerpdexExchange.sol:DebugPerpdexExchange",
            "label": "totalBaseBid",
            "offset": 0,
            "slot": "5",
            "type": "t_uint256"
          }
        ],
        "numberOfBytes": "192"
      },
      "t_struct(LiquidationRewardConfig)15973_storage": {
        "encoding": "inplace",
        "label": "struct PerpdexStructs.LiquidationRewardConfig",
        "members": [
          {
            "astId": 15970,
            "contract": "contracts/test/DebugPerpdexExchange.sol:DebugPerpdexExchange",
            "label": "rewardRatio",
            "offset": 0,
            "slot": "0",
            "type": "t_uint24"
          },
          {
            "astId": 15972,
            "contract": "contracts/test/DebugPerpdexExchange.sol:DebugPerpdexExchange",
            "label": "smoothEmaTime",
            "offset": 3,
            "slot": "0",
            "type": "t_uint16"
          }
        ],
        "numberOfBytes": "32"
      },
      "t_struct(MakerInfo)15922_storage": {
        "encoding": "inplace",
        "label": "struct PerpdexStructs.MakerInfo",
        "members": [
          {
            "astId": 15917,
            "contract": "contracts/test/DebugPerpdexExchange.sol:DebugPerpdexExchange",
            "label": "liquidity",
            "offset": 0,
            "slot": "0",
            "type": "t_uint256"
          },
          {
            "astId": 15919,
            "contract": "contracts/test/DebugPerpdexExchange.sol:DebugPerpdexExchange",
            "label": "cumBaseSharePerLiquidityX96",
            "offset": 0,
            "slot": "1",
            "type": "t_uint256"
          },
          {
            "astId": 15921,
            "contract": "contracts/test/DebugPerpdexExchange.sol:DebugPerpdexExchange",
            "label": "cumQuotePerLiquidityX96",
            "offset": 0,
            "slot": "2",
            "type": "t_uint256"
          }
        ],
        "numberOfBytes": "96"
      },
      "t_struct(Node)21176_storage": {
        "encoding": "inplace",
        "label": "struct BokkyPooBahsRedBlackTreeLibrary.Node",
        "members": [
          {
            "astId": 21167,
            "contract": "contracts/test/DebugPerpdexExchange.sol:DebugPerpdexExchange",
            "label": "parent",
            "offset": 0,
            "slot": "0",
            "type": "t_uint40"
          },
          {
            "astId": 21169,
            "contract": "contracts/test/DebugPerpdexExchange.sol:DebugPerpdexExchange",
            "label": "left",
            "offset": 5,
            "slot": "0",
            "type": "t_uint40"
          },
          {
            "astId": 21171,
            "contract": "contracts/test/DebugPerpdexExchange.sol:DebugPerpdexExchange",
            "label": "right",
            "offset": 10,
            "slot": "0",
            "type": "t_uint40"
          },
          {
            "astId": 21173,
            "contract": "contracts/test/DebugPerpdexExchange.sol:DebugPerpdexExchange",
            "label": "red",
            "offset": 15,
            "slot": "0",
            "type": "t_bool"
          },
          {
            "astId": 21175,
            "contract": "contracts/test/DebugPerpdexExchange.sol:DebugPerpdexExchange",
            "label": "userData",
            "offset": 16,
            "slot": "0",
            "type": "t_uint128"
          }
        ],
        "numberOfBytes": "32"
      },
      "t_struct(ProtocolInfo)15968_storage": {
        "encoding": "inplace",
        "label": "struct PerpdexStructs.ProtocolInfo",
        "members": [
          {
            "astId": 15967,
            "contract": "contracts/test/DebugPerpdexExchange.sol:DebugPerpdexExchange",
            "label": "protocolFee",
            "offset": 0,
            "slot": "0",
            "type": "t_uint256"
          }
        ],
        "numberOfBytes": "32"
      },
      "t_struct(TakerInfo)15915_storage": {
        "encoding": "inplace",
        "label": "struct PerpdexStructs.TakerInfo",
        "members": [
          {
            "astId": 15912,
            "contract": "contracts/test/DebugPerpdexExchange.sol:DebugPerpdexExchange",
            "label": "baseBalanceShare",
            "offset": 0,
            "slot": "0",
            "type": "t_int256"
          },
          {
            "astId": 15914,
            "contract": "contracts/test/DebugPerpdexExchange.sol:DebugPerpdexExchange",
            "label": "quoteBalance",
            "offset": 0,
            "slot": "1",
            "type": "t_int256"
          }
        ],
        "numberOfBytes": "64"
      },
      "t_struct(Tree)21184_storage": {
        "encoding": "inplace",
        "label": "struct BokkyPooBahsRedBlackTreeLibrary.Tree",
        "members": [
          {
            "astId": 21178,
            "contract": "contracts/test/DebugPerpdexExchange.sol:DebugPerpdexExchange",
            "label": "root",
            "offset": 0,
            "slot": "0",
            "type": "t_uint40"
          },
          {
            "astId": 21183,
            "contract": "contracts/test/DebugPerpdexExchange.sol:DebugPerpdexExchange",
            "label": "nodes",
            "offset": 0,
            "slot": "1",
            "type": "t_mapping(t_uint40,t_struct(Node)21176_storage)"
          }
        ],
        "numberOfBytes": "64"
      },
      "t_struct(VaultInfo)15936_storage": {
        "encoding": "inplace",
        "label": "struct PerpdexStructs.VaultInfo",
        "members": [
          {
            "astId": 15935,
            "contract": "contracts/test/DebugPerpdexExchange.sol:DebugPerpdexExchange",
            "label": "collateralBalance",
            "offset": 0,
            "slot": "0",
            "type": "t_int256"
          }
        ],
        "numberOfBytes": "32"
      },
      "t_uint128": {
        "encoding": "inplace",
        "label": "uint128",
        "numberOfBytes": "16"
      },
      "t_uint16": {
        "encoding": "inplace",
        "label": "uint16",
        "numberOfBytes": "2"
      },
      "t_uint24": {
        "encoding": "inplace",
        "label": "uint24",
        "numberOfBytes": "3"
      },
      "t_uint256": {
        "encoding": "inplace",
        "label": "uint256",
        "numberOfBytes": "32"
      },
      "t_uint40": {
        "encoding": "inplace",
        "label": "uint40",
        "numberOfBytes": "5"
      },
      "t_uint8": {
        "encoding": "inplace",
        "label": "uint8",
        "numberOfBytes": "1"
      }
    }
  }
}