{
  "address": "0x55c64113E49c7Fbc4Ee99a7bE32F42630CB1e468",
  "abi": [
    {
      "inputs": [
        {
          "internalType": "address",
          "name": "ownerArg",
          "type": "address"
        },
        {
          "internalType": "string",
          "name": "symbolArg",
          "type": "string"
        },
        {
          "internalType": "address",
          "name": "exchangeArg",
          "type": "address"
        },
        {
          "internalType": "address",
          "name": "priceFeedBaseArg",
          "type": "address"
        },
        {
          "internalType": "address",
          "name": "priceFeedQuoteArg",
          "type": "address"
        }
      ],
      "stateMutability": "nonpayable",
      "type": "constructor"
    },
    {
      "anonymous": false,
      "inputs": [
        {
          "indexed": false,
          "internalType": "uint32",
          "name": "value",
          "type": "uint32"
        }
      ],
      "name": "FundingMaxElapsedSecChanged",
      "type": "event"
    },
    {
      "anonymous": false,
      "inputs": [
        {
          "indexed": false,
          "internalType": "uint24",
          "name": "value",
          "type": "uint24"
        }
      ],
      "name": "FundingMaxPremiumRatioChanged",
      "type": "event"
    },
    {
      "anonymous": false,
      "inputs": [
        {
          "indexed": false,
          "internalType": "int256",
          "name": "fundingRateX96",
          "type": "int256"
        },
        {
          "indexed": false,
          "internalType": "uint32",
          "name": "elapsedSec",
          "type": "uint32"
        },
        {
          "indexed": false,
          "internalType": "int256",
          "name": "premiumX96",
          "type": "int256"
        },
        {
          "indexed": false,
          "internalType": "uint256",
          "name": "markPriceX96",
          "type": "uint256"
        },
        {
          "indexed": false,
          "internalType": "uint256",
          "name": "cumBasePerLiquidityX96",
          "type": "uint256"
        },
        {
          "indexed": false,
          "internalType": "uint256",
          "name": "cumQuotePerLiquidityX96",
          "type": "uint256"
        }
      ],
      "name": "FundingPaid",
      "type": "event"
    },
    {
      "anonymous": false,
      "inputs": [
        {
          "indexed": false,
          "internalType": "uint32",
          "name": "value",
          "type": "uint32"
        }
      ],
      "name": "FundingRolloverSecChanged",
      "type": "event"
    },
    {
      "anonymous": false,
      "inputs": [
        {
          "indexed": false,
          "internalType": "bool",
          "name": "isBid",
          "type": "bool"
        },
        {
          "indexed": false,
          "internalType": "uint256",
          "name": "orderId",
          "type": "uint256"
        }
      ],
      "name": "LimitOrderCanceled",
      "type": "event"
    },
    {
      "anonymous": false,
      "inputs": [
        {
          "indexed": false,
          "internalType": "bool",
          "name": "isBid",
          "type": "bool"
        },
        {
          "indexed": false,
          "internalType": "uint256",
          "name": "base",
          "type": "uint256"
        },
        {
          "indexed": false,
          "internalType": "uint256",
          "name": "priceX96",
          "type": "uint256"
        },
        {
          "indexed": false,
          "internalType": "uint256",
          "name": "orderId",
          "type": "uint256"
        }
      ],
      "name": "LimitOrderCreated",
      "type": "event"
    },
    {
      "anonymous": false,
      "inputs": [
        {
          "indexed": false,
          "internalType": "uint256",
          "name": "base",
          "type": "uint256"
        },
        {
          "indexed": false,
          "internalType": "uint256",
          "name": "quote",
          "type": "uint256"
        },
        {
          "indexed": false,
          "internalType": "uint256",
          "name": "liquidity",
          "type": "uint256"
        }
      ],
      "name": "LiquidityAdded",
      "type": "event"
    },
    {
      "anonymous": false,
      "inputs": [
        {
          "indexed": false,
          "internalType": "uint256",
          "name": "base",
          "type": "uint256"
        },
        {
          "indexed": false,
          "internalType": "uint256",
          "name": "quote",
          "type": "uint256"
        },
        {
          "indexed": false,
          "internalType": "uint256",
          "name": "liquidity",
          "type": "uint256"
        }
      ],
      "name": "LiquidityRemoved",
      "type": "event"
    },
    {
      "anonymous": false,
      "inputs": [
        {
          "indexed": true,
          "internalType": "address",
          "name": "previousOwner",
          "type": "address"
        },
        {
          "indexed": true,
          "internalType": "address",
          "name": "newOwner",
          "type": "address"
        }
      ],
      "name": "OwnershipTransferred",
      "type": "event"
    },
    {
      "anonymous": false,
      "inputs": [
        {
          "indexed": false,
          "internalType": "uint24",
          "name": "fixedFeeRatio",
          "type": "uint24"
        },
        {
          "indexed": false,
          "internalType": "uint24",
          "name": "atrFeeRatio",
          "type": "uint24"
        },
        {
          "indexed": false,
          "internalType": "uint32",
          "name": "atrEmaBlocks",
          "type": "uint32"
        }
      ],
      "name": "PoolFeeConfigChanged",
      "type": "event"
    },
    {
      "anonymous": false,
      "inputs": [
        {
          "indexed": false,
          "internalType": "uint24",
          "name": "normalOrderRatio",
          "type": "uint24"
        },
        {
          "indexed": false,
          "internalType": "uint24",
          "name": "liquidationRatio",
          "type": "uint24"
        },
        {
          "indexed": false,
          "internalType": "uint24",
          "name": "emaNormalOrderRatio",
          "type": "uint24"
        },
        {
          "indexed": false,
          "internalType": "uint24",
          "name": "emaLiquidationRatio",
          "type": "uint24"
        },
        {
          "indexed": false,
          "internalType": "uint32",
          "name": "emaSec",
          "type": "uint32"
        }
      ],
      "name": "PriceLimitConfigChanged",
      "type": "event"
    },
    {
      "anonymous": false,
      "inputs": [
        {
          "indexed": false,
          "internalType": "bool",
          "name": "isBaseToQuote",
          "type": "bool"
        },
        {
          "indexed": false,
          "internalType": "bool",
          "name": "isExactInput",
          "type": "bool"
        },
        {
          "indexed": false,
          "internalType": "uint256",
          "name": "amount",
          "type": "uint256"
        },
        {
          "indexed": false,
          "internalType": "uint256",
          "name": "oppositeAmount",
          "type": "uint256"
        },
        {
          "indexed": false,
          "internalType": "uint40",
          "name": "fullLastOrderId",
          "type": "uint40"
        },
        {
          "indexed": false,
          "internalType": "uint40",
          "name": "partialOrderId",
          "type": "uint40"
        },
        {
          "indexed": false,
          "internalType": "uint256",
          "name": "basePartial",
          "type": "uint256"
        },
        {
          "indexed": false,
          "internalType": "uint256",
          "name": "quotePartial",
          "type": "uint256"
        }
      ],
      "name": "Swapped",
      "type": "event"
    },
    {
      "inputs": [
        {
          "internalType": "uint256",
          "name": "baseShare",
          "type": "uint256"
        },
        {
          "internalType": "uint256",
          "name": "quoteBalance",
          "type": "uint256"
        }
      ],
      "name": "addLiquidity",
      "outputs": [
        {
          "internalType": "uint256",
          "name": "base",
          "type": "uint256"
        },
        {
          "internalType": "uint256",
          "name": "quote",
          "type": "uint256"
        },
        {
          "internalType": "uint256",
          "name": "liquidity",
          "type": "uint256"
        }
      ],
      "stateMutability": "nonpayable",
      "type": "function"
    },
    {
      "inputs": [],
      "name": "baseBalancePerShareX96",
      "outputs": [
        {
          "internalType": "uint256",
          "name": "",
          "type": "uint256"
        }
      ],
      "stateMutability": "view",
      "type": "function"
    },
    {
      "inputs": [
        {
          "internalType": "bool",
          "name": "isBid",
          "type": "bool"
        },
        {
          "internalType": "uint40",
          "name": "orderId",
          "type": "uint40"
        }
      ],
      "name": "cancelLimitOrder",
      "outputs": [],
      "stateMutability": "nonpayable",
      "type": "function"
    },
    {
      "inputs": [
        {
          "internalType": "bool",
          "name": "isBid",
          "type": "bool"
        },
        {
          "internalType": "uint256",
          "name": "base",
          "type": "uint256"
        },
        {
          "internalType": "uint256",
          "name": "priceX96",
          "type": "uint256"
        }
      ],
      "name": "createLimitOrder",
      "outputs": [
        {
          "internalType": "uint40",
          "name": "orderId",
          "type": "uint40"
        }
      ],
      "stateMutability": "nonpayable",
      "type": "function"
    },
    {
      "inputs": [],
      "name": "exchange",
      "outputs": [
        {
          "internalType": "address",
          "name": "",
          "type": "address"
        }
      ],
      "stateMutability": "view",
      "type": "function"
    },
    {
      "inputs": [],
      "name": "feeRatio",
      "outputs": [
        {
          "internalType": "uint24",
          "name": "",
          "type": "uint24"
        }
      ],
      "stateMutability": "view",
      "type": "function"
    },
    {
      "inputs": [],
      "name": "fundingInfo",
      "outputs": [
        {
          "internalType": "uint256",
          "name": "prevIndexPriceBase",
          "type": "uint256"
        },
        {
          "internalType": "uint256",
          "name": "prevIndexPriceQuote",
          "type": "uint256"
        },
        {
          "internalType": "uint256",
          "name": "prevIndexPriceTimestamp",
          "type": "uint256"
        }
      ],
      "stateMutability": "view",
      "type": "function"
    },
    {
      "inputs": [],
      "name": "fundingMaxElapsedSec",
      "outputs": [
        {
          "internalType": "uint32",
          "name": "",
          "type": "uint32"
        }
      ],
      "stateMutability": "view",
      "type": "function"
    },
    {
      "inputs": [],
      "name": "fundingMaxPremiumRatio",
      "outputs": [
        {
          "internalType": "uint24",
          "name": "",
          "type": "uint24"
        }
      ],
      "stateMutability": "view",
      "type": "function"
    },
    {
      "inputs": [],
      "name": "fundingRolloverSec",
      "outputs": [
        {
          "internalType": "uint32",
          "name": "",
          "type": "uint32"
        }
      ],
      "stateMutability": "view",
      "type": "function"
    },
    {
      "inputs": [],
      "name": "getAskPriceX96",
      "outputs": [
        {
          "internalType": "uint256",
          "name": "result",
          "type": "uint256"
        }
      ],
      "stateMutability": "view",
      "type": "function"
    },
    {
      "inputs": [],
      "name": "getBidPriceX96",
      "outputs": [
        {
          "internalType": "uint256",
          "name": "result",
          "type": "uint256"
        }
      ],
      "stateMutability": "view",
      "type": "function"
    },
    {
      "inputs": [],
      "name": "getCumDeleveragedPerLiquidityX96",
      "outputs": [
        {
          "internalType": "uint256",
          "name": "",
          "type": "uint256"
        },
        {
          "internalType": "uint256",
          "name": "",
          "type": "uint256"
        }
      ],
      "stateMutability": "view",
      "type": "function"
    },
    {
      "inputs": [
        {
          "internalType": "bool",
          "name": "isBid",
          "type": "bool"
        },
        {
          "internalType": "uint40",
          "name": "orderId",
          "type": "uint40"
        }
      ],
      "name": "getLimitOrderExecution",
      "outputs": [
        {
          "internalType": "uint48",
          "name": "executionId",
          "type": "uint48"
        },
        {
          "internalType": "uint256",
          "name": "executedBase",
          "type": "uint256"
        },
        {
          "internalType": "uint256",
          "name": "executedQuote",
          "type": "uint256"
        }
      ],
      "stateMutability": "view",
      "type": "function"
    },
    {
      "inputs": [
        {
          "internalType": "bool",
          "name": "isBid",
          "type": "bool"
        },
        {
          "internalType": "uint40",
          "name": "orderId",
          "type": "uint40"
        }
      ],
      "name": "getLimitOrderInfo",
      "outputs": [
        {
          "internalType": "uint256",
          "name": "base",
          "type": "uint256"
        },
        {
          "internalType": "uint256",
          "name": "priceX96",
          "type": "uint256"
        }
      ],
      "stateMutability": "view",
      "type": "function"
    },
    {
      "inputs": [
        {
          "internalType": "uint256",
          "name": "liquidity",
          "type": "uint256"
        },
        {
          "internalType": "uint256",
          "name": "cumBasePerLiquidityX96",
          "type": "uint256"
        },
        {
          "internalType": "uint256",
          "name": "cumQuotePerLiquidityX96",
          "type": "uint256"
        }
      ],
      "name": "getLiquidityDeleveraged",
      "outputs": [
        {
          "internalType": "int256",
          "name": "",
          "type": "int256"
        },
        {
          "internalType": "int256",
          "name": "",
          "type": "int256"
        }
      ],
      "stateMutability": "view",
      "type": "function"
    },
    {
      "inputs": [
        {
          "internalType": "uint256",
          "name": "liquidity",
          "type": "uint256"
        }
      ],
      "name": "getLiquidityValue",
      "outputs": [
        {
          "internalType": "uint256",
          "name": "",
          "type": "uint256"
        },
        {
          "internalType": "uint256",
          "name": "",
          "type": "uint256"
        }
      ],
      "stateMutability": "view",
      "type": "function"
    },
    {
      "inputs": [],
      "name": "getMarkPriceX96",
      "outputs": [
        {
          "internalType": "uint256",
          "name": "",
          "type": "uint256"
        }
      ],
      "stateMutability": "view",
      "type": "function"
    },
    {
      "inputs": [],
      "name": "getShareMarkPriceX96",
      "outputs": [
        {
          "internalType": "uint256",
          "name": "",
          "type": "uint256"
        }
      ],
      "stateMutability": "view",
      "type": "function"
    },
    {
      "inputs": [
        {
          "internalType": "bool",
          "name": "isBaseToQuote",
          "type": "bool"
        },
        {
          "internalType": "bool",
          "name": "isExactInput",
          "type": "bool"
        },
        {
          "internalType": "bool",
          "name": "isLiquidation",
          "type": "bool"
        }
      ],
      "name": "maxSwap",
      "outputs": [
        {
          "internalType": "uint256",
          "name": "amount",
          "type": "uint256"
        }
      ],
      "stateMutability": "view",
      "type": "function"
    },
    {
      "inputs": [
        {
          "internalType": "bool",
          "name": "isBaseToQuote",
          "type": "bool"
        },
        {
          "internalType": "bool",
          "name": "isExactInput",
          "type": "bool"
        },
        {
          "internalType": "uint256",
          "name": "sharePriceX96",
          "type": "uint256"
        }
      ],
      "name": "maxSwapByPrice",
      "outputs": [
        {
          "internalType": "uint256",
          "name": "amount",
          "type": "uint256"
        }
      ],
      "stateMutability": "view",
      "type": "function"
    },
    {
      "inputs": [
        {
          "internalType": "bytes[]",
          "name": "data",
          "type": "bytes[]"
        }
      ],
      "name": "multicall",
      "outputs": [
        {
          "internalType": "bytes[]",
          "name": "results",
          "type": "bytes[]"
        }
      ],
      "stateMutability": "nonpayable",
      "type": "function"
    },
    {
      "inputs": [],
      "name": "owner",
      "outputs": [
        {
          "internalType": "address",
          "name": "",
          "type": "address"
        }
      ],
      "stateMutability": "view",
      "type": "function"
    },
    {
      "inputs": [],
      "name": "poolFeeConfig",
      "outputs": [
        {
          "internalType": "uint24",
          "name": "fixedFeeRatio",
          "type": "uint24"
        },
        {
          "internalType": "uint24",
          "name": "atrFeeRatio",
          "type": "uint24"
        },
        {
          "internalType": "uint32",
          "name": "atrEmaBlocks",
          "type": "uint32"
        }
      ],
      "stateMutability": "view",
      "type": "function"
    },
    {
      "inputs": [],
      "name": "poolFeeInfo",
      "outputs": [
        {
          "internalType": "uint256",
          "name": "atrX96",
          "type": "uint256"
        },
        {
          "internalType": "uint256",
          "name": "referenceTimestamp",
          "type": "uint256"
        },
        {
          "internalType": "uint256",
          "name": "currentHighX96",
          "type": "uint256"
        },
        {
          "internalType": "uint256",
          "name": "currentLowX96",
          "type": "uint256"
        }
      ],
      "stateMutability": "view",
      "type": "function"
    },
    {
      "inputs": [],
      "name": "poolInfo",
      "outputs": [
        {
          "internalType": "uint256",
          "name": "base",
          "type": "uint256"
        },
        {
          "internalType": "uint256",
          "name": "quote",
          "type": "uint256"
        },
        {
          "internalType": "uint256",
          "name": "totalLiquidity",
          "type": "uint256"
        },
        {
          "internalType": "uint256",
          "name": "cumBasePerLiquidityX96",
          "type": "uint256"
        },
        {
          "internalType": "uint256",
          "name": "cumQuotePerLiquidityX96",
          "type": "uint256"
        },
        {
          "internalType": "uint256",
          "name": "baseBalancePerShareX96",
          "type": "uint256"
        }
      ],
      "stateMutability": "view",
      "type": "function"
    },
    {
      "inputs": [
        {
          "internalType": "bool",
          "name": "isBaseToQuote",
          "type": "bool"
        },
        {
          "internalType": "bool",
          "name": "isExactInput",
          "type": "bool"
        },
        {
          "internalType": "uint256",
          "name": "amount",
          "type": "uint256"
        },
        {
          "internalType": "bool",
          "name": "isLiquidation",
          "type": "bool"
        }
      ],
      "name": "previewSwap",
      "outputs": [
        {
          "internalType": "uint256",
          "name": "oppositeAmount",
          "type": "uint256"
        }
      ],
      "stateMutability": "view",
      "type": "function"
    },
    {
      "inputs": [],
      "name": "priceFeedBase",
      "outputs": [
        {
          "internalType": "address",
          "name": "",
          "type": "address"
        }
      ],
      "stateMutability": "view",
      "type": "function"
    },
    {
      "inputs": [],
      "name": "priceFeedQuote",
      "outputs": [
        {
          "internalType": "address",
          "name": "",
          "type": "address"
        }
      ],
      "stateMutability": "view",
      "type": "function"
    },
    {
      "inputs": [],
      "name": "priceLimitConfig",
      "outputs": [
        {
          "internalType": "uint24",
          "name": "normalOrderRatio",
          "type": "uint24"
        },
        {
          "internalType": "uint24",
          "name": "liquidationRatio",
          "type": "uint24"
        },
        {
          "internalType": "uint24",
          "name": "emaNormalOrderRatio",
          "type": "uint24"
        },
        {
          "internalType": "uint24",
          "name": "emaLiquidationRatio",
          "type": "uint24"
        },
        {
          "internalType": "uint32",
          "name": "emaSec",
          "type": "uint32"
        }
      ],
      "stateMutability": "view",
      "type": "function"
    },
    {
      "inputs": [],
      "name": "priceLimitInfo",
      "outputs": [
        {
          "internalType": "uint256",
          "name": "referencePrice",
          "type": "uint256"
        },
        {
          "internalType": "uint256",
          "name": "referenceTimestamp",
          "type": "uint256"
        },
        {
          "internalType": "uint256",
          "name": "emaPrice",
          "type": "uint256"
        }
      ],
      "stateMutability": "view",
      "type": "function"
    },
    {
      "inputs": [
        {
          "internalType": "uint256",
          "name": "liquidity",
          "type": "uint256"
        }
      ],
      "name": "removeLiquidity",
      "outputs": [
        {
          "internalType": "uint256",
          "name": "base",
          "type": "uint256"
        },
        {
          "internalType": "uint256",
          "name": "quote",
          "type": "uint256"
        }
      ],
      "stateMutability": "nonpayable",
      "type": "function"
    },
    {
      "inputs": [],
      "name": "renounceOwnership",
      "outputs": [],
      "stateMutability": "nonpayable",
      "type": "function"
    },
    {
      "inputs": [
        {
          "internalType": "uint32",
          "name": "value",
          "type": "uint32"
        }
      ],
      "name": "setFundingMaxElapsedSec",
      "outputs": [],
      "stateMutability": "nonpayable",
      "type": "function"
    },
    {
      "inputs": [
        {
          "internalType": "uint24",
          "name": "value",
          "type": "uint24"
        }
      ],
      "name": "setFundingMaxPremiumRatio",
      "outputs": [],
      "stateMutability": "nonpayable",
      "type": "function"
    },
    {
      "inputs": [
        {
          "internalType": "uint32",
          "name": "value",
          "type": "uint32"
        }
      ],
      "name": "setFundingRolloverSec",
      "outputs": [],
      "stateMutability": "nonpayable",
      "type": "function"
    },
    {
      "inputs": [
        {
          "components": [
            {
              "internalType": "uint24",
              "name": "fixedFeeRatio",
              "type": "uint24"
            },
            {
              "internalType": "uint24",
              "name": "atrFeeRatio",
              "type": "uint24"
            },
            {
              "internalType": "uint32",
              "name": "atrEmaBlocks",
              "type": "uint32"
            }
          ],
          "internalType": "struct MarketStructs.PoolFeeConfig",
          "name": "value",
          "type": "tuple"
        }
      ],
      "name": "setPoolFeeConfig",
      "outputs": [],
      "stateMutability": "nonpayable",
      "type": "function"
    },
    {
      "inputs": [
        {
          "components": [
            {
              "internalType": "uint24",
              "name": "normalOrderRatio",
              "type": "uint24"
            },
            {
              "internalType": "uint24",
              "name": "liquidationRatio",
              "type": "uint24"
            },
            {
              "internalType": "uint24",
              "name": "emaNormalOrderRatio",
              "type": "uint24"
            },
            {
              "internalType": "uint24",
              "name": "emaLiquidationRatio",
              "type": "uint24"
            },
            {
              "internalType": "uint32",
              "name": "emaSec",
              "type": "uint32"
            }
          ],
          "internalType": "struct MarketStructs.PriceLimitConfig",
          "name": "value",
          "type": "tuple"
        }
      ],
      "name": "setPriceLimitConfig",
      "outputs": [],
      "stateMutability": "nonpayable",
      "type": "function"
    },
    {
      "inputs": [
        {
          "internalType": "bool",
          "name": "isBaseToQuote",
          "type": "bool"
        },
        {
          "internalType": "bool",
          "name": "isExactInput",
          "type": "bool"
        },
        {
          "internalType": "uint256",
          "name": "amount",
          "type": "uint256"
        },
        {
          "internalType": "bool",
          "name": "isLiquidation",
          "type": "bool"
        }
      ],
      "name": "swap",
      "outputs": [
        {
          "components": [
            {
              "internalType": "uint256",
              "name": "oppositeAmount",
              "type": "uint256"
            },
            {
              "internalType": "uint256",
              "name": "basePartial",
              "type": "uint256"
            },
            {
              "internalType": "uint256",
              "name": "quotePartial",
              "type": "uint256"
            },
            {
              "internalType": "uint40",
              "name": "partialOrderId",
              "type": "uint40"
            }
          ],
          "internalType": "struct IPerpdexMarketMinimum.SwapResponse",
          "name": "response",
          "type": "tuple"
        }
      ],
      "stateMutability": "nonpayable",
      "type": "function"
    },
    {
      "inputs": [],
      "name": "symbol",
      "outputs": [
        {
          "internalType": "string",
          "name": "",
          "type": "string"
        }
      ],
      "stateMutability": "view",
      "type": "function"
    },
    {
      "inputs": [
        {
          "internalType": "address",
          "name": "newOwner",
          "type": "address"
        }
      ],
      "name": "transferOwnership",
      "outputs": [],
      "stateMutability": "nonpayable",
      "type": "function"
    }
  ],
  "transactionHash": "0x4d80abb8cc71d45779ea11479904d1162ce487caaa54d21c0fa6dc1a4255aa4f",
  "args": [
    "0x4B78eCe4AA1be3495713199380635537C5fB2326",
    "USD",
    "0xa615f6507391A96dF3718aa780644f08cd075DC7",
    "0x0000000000000000000000000000000000000000",
    "0xf485d7478cCeA7ff7FDbE78957E73216CADBaC60"
  ],
  "numDeployments": 4,
  "solcInputHash": "8e1f2cd84e41fd63abad5a8df21317af",
  "bytecode": "0x601d80546001600160581b031916690151800001518000271017905561c35060e052620186a06101005262030d40610120526203d0906101405261012c61016052601e80546001600160801b0319166d012c03d090030d400186a000c3501790556101e0604052600061018052623d09006101a05260106101c052601f80546001600160501b03191666103d0900000000179055348015620000a057600080fd5b50604051620064a5380380620064a5833981016040819052620000c391620002f5565b6001600055620000d33362000242565b620000de8562000242565b6001600160a01b03821615806200010f57506200010f826001600160a01b03166200029460201b62001b521760201c565b620001615760405162461bcd60e51b815260206004820152601d60248201527f504d5f433a2062617365207072696365206665656420696e76616c696400000060448201526064015b60405180910390fd5b6001600160a01b038116158062000192575062000192816001600160a01b03166200029460201b62001b521760201c565b620001e05760405162461bcd60e51b815260206004820152601e60248201527f504d5f433a2071756f7465207072696365206665656420696e76616c69640000604482015260640162000158565b6002620001ee8582620004a5565b506001600160a01b0383811660805282811660a052811660c052620002206009620002a3602090811b62001b6117901c565b620002376003620002ac60201b62001b6a1760201c565b505050505062000571565b600180546001600160a01b038381166001600160a01b0319831681179093556040519116919082907f8be0079c531659141344cd1fd0a4f28419497f9722a3daafe3b4186f6b6457e090600090a35050565b6001600160a01b03163b151590565b42600290910155565b6c01000000000000000000000000600590910155565b80516001600160a01b0381168114620002da57600080fd5b919050565b634e487b7160e01b600052604160045260246000fd5b600080600080600060a086880312156200030e57600080fd5b6200031986620002c2565b602087810151919650906001600160401b03808211156200033957600080fd5b818901915089601f8301126200034e57600080fd5b815181811115620003635762000363620002df565b604051601f8201601f19908116603f011681019083821181831017156200038e576200038e620002df565b816040528281528c86848701011115620003a757600080fd5b600093505b82841015620003cb5784840186015181850187015292850192620003ac565b6000868483010152809950505050505050620003ea60408701620002c2565b9250620003fa60608701620002c2565b91506200040a60808701620002c2565b90509295509295909350565b600181811c908216806200042b57607f821691505b6020821081036200044c57634e487b7160e01b600052602260045260246000fd5b50919050565b601f821115620004a057600081815260208120601f850160051c810160208610156200047b5750805b601f850160051c820191505b818110156200049c5782815560010162000487565b5050505b505050565b81516001600160401b03811115620004c157620004c1620002df565b620004d981620004d2845462000416565b8462000452565b602080601f831160018114620005115760008415620004f85750858301515b600019600386901b1c1916600185901b1785556200049c565b600085815260208120601f198616915b82811015620005425788860151825594840194600190910190840162000521565b5085821015620005615787850151600019600388901b60f8161c191681555b5050505050600190811b01905550565b60805160a05160c051615ee1620005c460003960008181610283015281816114b801526128e60152600081816105460152818161149701526128c10152600081816106a901526122d10152615ee16000f3fe608060405234801561001057600080fd5b50600436106102535760003560e01c806380796d55116101465780639d67bf03116100c3578063dba4915311610087578063dba49153146106cb578063e7a49931146106dd578063e801c4d8146106f0578063e8fa204f146106f8578063f22897521461070b578063f2fde38b1461071657600080fd5b80639d67bf0314610604578063a4edcfc114610617578063ac9650d81461064d578063c9ca629b1461066d578063d2f7265a146106a457600080fd5b8063933c79791161010a578063933c7979146105ae5780639482de1a146105c157806395d89b41146105c95780639c8f9f23146105de5780639cd441da146105f157600080fd5b806380796d55146104f4578063823f2b041461054157806385aaa397146105685780638da5cb5b146105955780638ee8fe5d146105a657600080fd5b806356f55170116101d45780637452fadd116101985780637452fadd1461049c57806374f25689146104a45780637640482f146104b75780637661ce13146104ca578063796c20b7146104e157600080fd5b806356f55170146103be5780635a2f3d09146103e75780636346f32e1461043257806366a61ffb14610481578063715018a61461049457600080fd5b8063220e89ce1161021b578063220e89ce1461035057806323c8346a146103585780632724ebb01461036b5780633aa3e6501461039357806341744dd4146103b657600080fd5b806306f429b8146102585780630e06e4d01461027e578063125b9d27146102bd578063186f181e146102d25780631b520a02146102fe575b600080fd5b61026b6102663660046154ee565b610729565b6040519081526020015b60405180910390f35b6102a57f000000000000000000000000000000000000000000000000000000000000000081565b6040516001600160a01b039091168152602001610275565b6102d06102cb36600461553b565b610870565b005b601d546102e990600160381b900463ffffffff1681565b60405163ffffffff9091168152602001610275565b601f546103289062ffffff808216916301000000810490911690600160301b900463ffffffff1683565b6040805162ffffff948516815293909216602084015263ffffffff1690820152606001610275565b61026b6109fb565b6102d0610366366004615560565b610aac565b61037e610379366004615560565b610b9e565b60408051928352602083019190915201610275565b601d546103a29062ffffff1681565b60405162ffffff9091168152602001610275565b6103a2610c37565b6103d16103cc366004615597565b610cad565b60405164ffffffffff9091168152602001610275565b60035460045460055460065460075460085461040595949392919086565b604080519687526020870195909552938501929092526060840152608083015260a082015260c001610275565b601e546104709062ffffff8082169163010000008104821691600160301b8204811691600160481b810490911690600160601b900463ffffffff1685565b6040516102759594939291906155ca565b61026b61048f3660046155fe565b610e70565b6102d0610e88565b61026b610e9c565b6102d06104b236600461564b565b610ec2565b61037e6104c5366004615668565b610f85565b601d546102e9906301000000900463ffffffff1681565b6102d06104ef366004615693565b610f9c565b6105076105023660046154ee565b6110ba565b604051610275919081518152602080830151908201526040808301519082015260609182015164ffffffffff169181019190915260800190565b6102a57f000000000000000000000000000000000000000000000000000000000000000081565b600c54600d54600e5461057a92919083565b60408051938452602084019290925290820152606001610275565b6001546001600160a01b03166102a5565b61026b6112df565b61037e6105bc3660046156b0565b611301565b60085461026b565b6105d1611327565b604051610275919061572c565b61037e6105ec366004615668565b6113b5565b61057a6105ff36600461573f565b611453565b6102d0610612366004615693565b611555565b601954601a54601b54601c5461062d9392919084565b604080519485526020850193909352918301526060820152608001610275565b61066061065b366004615761565b611627565b60405161027591906157d6565b61068061067b366004615560565b61171d565b6040805165ffffffffffff9094168452602084019290925290820152606001610275565b6102a57f000000000000000000000000000000000000000000000000000000000000000081565b600954600a54600b5461057a92919083565b6102d06106eb366004615838565b6117bb565b61026b611a1d565b61026b61070636600461584a565b611aca565b60065460075461037e565b6102d061072436600461588d565b611ad9565b6000806107398686856000611b77565b5090508084111561078b5760405162461bcd60e51b8152602060048201526017602482015276141357d414ce881d1bdbc81b185c99d948185b5bdd5b9d604a1b60448201526064015b60405180910390fd5b60006107cc8761079c57600f61079f565b60135b604080516080810182528a1515815289151560208201529081018890526008546060820152611cc9611cf0565b600354600454604080516080810182528b151581528a1515602082015293945061080f939081016107fb610c37565b62ffffff168152855160209091015261218b565b925086151586151514801590610844578160600151826020015161083391906158cc565b61083d90856158cc565b9350610865565b8160800151826040015161085891906158cc565b61086290856158cc565b93505b505050949350505050565b610878612251565b60026000540361089a5760405162461bcd60e51b8152600401610782906158df565b600260005561c3506108af602083018361564b565b62ffffff1611156109025760405162461bcd60e51b815260206004820152601c60248201527f504d5f535046433a2066697865642066656520746f6f206c61726765000000006044820152606401610782565b6127106109156060830160408401615693565b63ffffffff1611156109695760405162461bcd60e51b815260206004820152601f60248201527f504d5f535046433a2061747220656d6120626c6f636b7320746f6f20626967006044820152606401610782565b80601f6109768282615916565b507f269f7c0d124741a5574762c75c64c04ad89fa3e91ec86aa3be1b9b6d6d08668790506109a7602083018361564b565b6109b7604084016020850161564b565b6109c76060850160408601615693565b6040805162ffffff948516815293909216602084015263ffffffff16908201526060015b60405180910390a1506001600055565b6000610a15610a08610e9c565b610a10610c37565b6122ab565b604051632e45552560e21b8152600f600482015290915060009073C91bD33af94343d14e313602345d901819F3959d9063b915549490602401602060405180830381865af4158015610a6b573d6000803e3d6000fd5b505050506040513d601f19601f82011682018060405250810190610a8f9190615992565b90508015801590610a9f57508181105b15610aa8578091505b5090565b610ab46122cf565b600260005403610ad65760405162461bcd60e51b8152600401610782906158df565b6002600055604051632ec0b78b60e11b8152600f6004820152821515602482015264ffffffffff8216604482015273C91bD33af94343d14e313602345d901819F3959d90635d816f169060640160006040518083038186803b158015610b3b57600080fd5b505af4158015610b4f573d6000803e3d6000fd5b505060408051851515815264ffffffffff851660208201527ff61aa5333bf001aa89f4bfa6ccaf123eec86eada7fd1c6c366227102507f89cd935001905060405180910390a150506001600055565b6040516302ea3f0960e01b8152600f6004820152821515602482015264ffffffffff82166044820152600090819073C91bD33af94343d14e313602345d901819F3959d906302ea3f09906064016040805180830381865af4158015610c07573d6000803e3d6000fd5b505050506040513d601f19601f82011682018060405250810190610c2b91906159ab565b915091505b9250929050565b601e54600090610ca890610ca390610c569060029062ffffff166159e5565b60408051606081018252601f5462ffffff80821683526301000000820481166020840152600160301b90910463ffffffff1692820192909252911690610c9e90601990612347565b612385565b61239b565b905090565b6000610cb76122cf565b600260005403610cd95760405162461bcd60e51b8152600401610782906158df565b60026000558315610d3857610cec6109fb565b821115610d335760405162461bcd60e51b8152602060048201526015602482015274141357d0d313ce881c1bdcdd081bdb9b1e48189a59605a1b6044820152606401610782565b610d87565b610d40611a1d565b821015610d875760405162461bcd60e51b8152602060048201526015602482015274504d5f434c4f3a20706f7374206f6e6c792061736b60581b6044820152606401610782565b6040516383818a6f60e01b8152600f60048201528415156024820152604481018490526064810183905273C91bD33af94343d14e313602345d901819F3959d906383818a6f90608401602060405180830381865af4158015610ded573d6000803e3d6000fd5b505050506040513d601f19601f82011682018060405250810190610e119190615a07565b6040805186151581526020810186905290810184905264ffffffffff821660608201529091507f7f6ce27b6803b5b961a441dac0f55de214751acfb64178849efb01fdb71c620b9060800160405180910390a160016000559392505050565b6000610e7f8484600085611b77565b50949350505050565b610e90612251565b610e9a60006123ff565b565b6003546000908103610eae5750600090565b600354600454600854610ca8929190612451565b610eca612251565b600260005403610eec5760405162461bcd60e51b8152600401610782906158df565b6002600055620186a062ffffff82161115610f3f5760405162461bcd60e51b8152602060048201526013602482015272504d5f53464d50523a20746f6f206c6172676560681b6044820152606401610782565b601d805462ffffff191662ffffff83169081179091556040519081527f55647f4dd43ac173f04e53a506df46454012316d82fb04a9c1dbd8e0f21f8f76906020016109eb565b600080610f9360038461246b565b91509150915091565b610fa4612251565b600260005403610fc65760405162461bcd60e51b8152600401610782906158df565b600260005562093a8063ffffffff821611156110195760405162461bcd60e51b8152602060048201526012602482015271504d5f534652533a20746f6f206c6172676560701b6044820152606401610782565b610e108163ffffffff1610156110665760405162461bcd60e51b8152602060048201526012602482015271141357d4d19494ce881d1bdbc81cdb585b1b60721b6044820152606401610782565b601d805463ffffffff60381b1916600160381b63ffffffff8416908102919091179091556040519081527fa703b265f29064a106acd6473c258e009bff9ac0bfd63b6f5ca4b712a25c8516906020016109eb565b6110ec6040518060800160405280600081526020016000815260200160008152602001600064ffffffffff1681525090565b6110f46122cf565b6002600054036111165760405162461bcd60e51b8152600401610782906158df565b600260009081558061112a87878684611b77565b91509150818511156111775760405162461bcd60e51b8152602060048201526016602482015275141357d4ce881d1bdbc81b185c99d948185b5bdd5b9d60521b6044820152606401610782565b60006111816112df565b905060006111bf600f60405180608001604052808c151581526020018b151581526020018a8152602001600360050154815250611cc96124946124d0565b90506040518060800160405280826000015181526020018260200151815260200182604001518152602001826060015164ffffffffff1681525094506112246019601f60000160069054906101000a900463ffffffff168461121f6112df565b612807565b61122f600c84612879565b7f4af368bb319fb6132e4a959e88a5bd0ebed952b65925f8503bb497d99de64b20898989886000015185608001518a606001518b602001518c604001516040516112bd989796959493929190971515885295151560208801526040870194909452606086019290925264ffffffffff90811660808601521660a084015260c083015260e08201526101000190565b60405180910390a16112cd6128a3565b50506001600055509095945050505050565b60035460009081036112f15750600090565b600354600454610ca891906129db565b60008061131a60038001546003600401548787876129ec565b915091505b935093915050565b6002805461133490615a24565b80601f016020809104026020016040519081016040528092919081815260200182805461136090615a24565b80156113ad5780601f10611382576101008083540402835291602001916113ad565b820191906000526020600020905b81548152906001019060200180831161139057829003601f168201915b505050505081565b6000806113c06122cf565b6002600054036113e25760405162461bcd60e51b8152600401610782906158df565b6002600055604080516020810190915283815261140190600390612a5a565b604080518381526020810183905290810186905291935091507f0bb89aa54ed6940a7e7167bd262b2400d63945045ceff1a52a05f2601ed215f19060600160405180910390a160016000559092909150565b60008060006114606122cf565b6002600054036114825760405162461bcd60e51b8152600401610782906158df565b6002600090815560055490036114de576114de7f00000000000000000000000000000000000000000000000000000000000000007f00000000000000000000000000000000000000000000000000000000000000008787612b71565b6114fd6003604051806040016040528088815260200187815250612d85565b604080518481526020810184905290810182905292955090935091507fd7f28048575eead8851d024ead087913957dfb4fd1a02b4d1573f5352a5a2be39060600160405180910390a160016000819055509250925092565b61155d612251565b60026000540361157f5760405162461bcd60e51b8152600401610782906158df565b600260005562093a8063ffffffff821611156115d35760405162461bcd60e51b8152602060048201526013602482015272504d5f53464d45533a20746f6f206c6172676560681b6044820152606401610782565b601d805466ffffffff0000001916630100000063ffffffff8416908102919091179091556040519081527f5b18da8898c1e492e6bc631eec59d143ebba7f31ca794b668f0bfa9b0d989293906020016109eb565b60608167ffffffffffffffff81111561164257611642615a58565b60405190808252806020026020018201604052801561167557816020015b60608152602001906001900390816116605790505b50905060005b82811015611715576116e53085858481811061169957611699615a6e565b90506020028101906116ab9190615a84565b8080601f016020809104026020016040519081016040528093929190818152602001838380828437600092019190915250612f4f92505050565b8282815181106116f7576116f7615a6e565b6020026020010181905250808061170d90615acb565b91505061167b565b505b92915050565b6040516399d5040960e01b8152600f6004820152821515602482015264ffffffffff821660448201526000908190819073C91bD33af94343d14e313602345d901819F3959d906399d5040990606401606060405180830381865af4158015611789573d6000803e3d6000fd5b505050506040513d601f19601f820116820180604052508101906117ad9190615ae4565b9250925092505b9250925092565b6117c3612251565b6002600054036117e55760405162461bcd60e51b8152600401610782906158df565b60026000556207a1206117fe604083016020840161564b565b62ffffff1611156118515760405162461bcd60e51b815260206004820152601e60248201527f50455f53504c433a20746f6f206c61726765206c69717569646174696f6e00006044820152606401610782565b611861604082016020830161564b565b62ffffff16611873602083018361564b565b62ffffff1611156118b95760405162461bcd60e51b815260206004820152601060248201526f141157d4d41310ce881a5b9d985b1a5960821b6044820152606401610782565b620f42406118cd608083016060840161564b565b62ffffff161061191f5760405162461bcd60e51b815260206004820152601a60248201527f50455f53504c433a20656d6120746f6f206c61726765206c69710000000000006044820152606401610782565b61192f608082016060830161564b565b62ffffff16611944606083016040840161564b565b62ffffff16111561198e5760405162461bcd60e51b8152602060048201526014602482015273141157d4d41310ce88195b58481a5b9d985b1a5960621b6044820152606401610782565b80601e61199b8282615b26565b507fbe7eee05a638b28e8473a6f87ae310d3123f8a2a7561ce96e140f76125f7461290506119cc602083018361564b565b6119dc604084016020850161564b565b6119ec606085016040860161564b565b6119fc608086016060870161564b565b611a0c60a0870160808801615693565b6040516109eb9594939291906155ca565b6000611a37611a2a610e9c565b611a32610c37565b612f74565b604051632e45552560e21b81526013600482015290915060009073C91bD33af94343d14e313602345d901819F3959d9063b915549490602401602060405180830381865af4158015611a8d573d6000803e3d6000fd5b505050506040513d601f19601f82011682018060405250810190611ab19190615992565b90508015801590610a9f575081811115610aa857919050565b6000610e7f8484846000611b77565b611ae1612251565b6001600160a01b038116611b465760405162461bcd60e51b815260206004820152602660248201527f4f776e61626c653a206e6577206f776e657220697320746865207a65726f206160448201526564647265737360d01b6064820152608401610782565b611b4f816123ff565b50565b6001600160a01b03163b151590565b42600290910155565b600160601b600590910155565b6000611b9d60405180606001604052806000815260200160008152602001600081525090565b600554600003611bb05760009150611cc0565b82600003611bee576000611bc26112df565b9050611bd1600c601e83612f90565b9150611bea82600001518360400151601e888b1561305c565b9350505b600354600454611c0991908888611c03610c37565b8861310a565b915073C91bD33af94343d14e313602345d901819F3959d63b2041ed987611c3157600f611c34565b60135b60085460405160e084901b6001600160e01b031916815260048101929092528915156024830152881515604483015260648201879052608482015260a401602060405180830381865af4158015611c8f573d6000803e3d6000fd5b505050506040513d601f19601f82011682018060405250810190611cb39190615992565b611cbd90836158cc565b91505b94509492505050565b600354600454600091611ce6918686611ce0610c37565b8761310a565b90505b9392505050565b611d3e6040518060e001604052806000815260200160008152602001600081526020016000815260200160008152602001600064ffffffffff168152602001600064ffffffffff1681525090565b602083015183518554911515901515149064ffffffffff166000805b64ffffffffff83161561213e57611dcd60405180610120016040528060006001600160801b031681526020016000815260200160008152602001600064ffffffffff168152602001600064ffffffffff168152602001600081526020016000815260200160008152602001600081525090565b64ffffffffff8416600090815260018a016020526040902054600160801b90046001600160801b03168082526060890151611e0d9190600160601b613279565b60208083018290528951908a0151611e289263ffffffff8b16565b60408083019190915264ffffffffff80861660008181526001808e01602081815286842054600160281b8104871660608a01908152958552918152600160501b909104851660808801529251909316815260028d01909152919091200154611e9090846158cc565b60a0820152606081015164ffffffffff1660009081526002808b0160205260409091200154611ebf90836158cc565b60c0820152604081015160009086611ee857611ee38360c001518b60600151613328565b611eee565b8260a001515b611ef891906158cc565b905080896040015111611f3b57816060015164ffffffffff16600003611f2f57611f228a86613339565b64ffffffffff1660a08801525b50606001519250611d5a565b608082015164ffffffffff908116600090815260028c016020526040808220600190810154938916835291200154611f739190615c0b565b611f7d90856158cc565b60e0830152608082015164ffffffffff90811660009081526002808d01602052604080832082015493891683529091200154611fb99190615c0b565b611fc390846158cc565b610100830152604082015160009087611fee57611fe98461010001518c60600151613328565b611ff4565b8360e001515b611ffe91906158cc565b9050808a604001511015612101576040830151885260a0830151602089015260c083015160608b01516120319190613328565b6040890152861561207157818a6040015161204c9190615c0b565b6060890181905260208401516120679190600160601b613279565b60808901526120d4565b818a604001516120819190615c0b565b60808901819052602084015161209d9190600160601b90613279565b6060890181905264ffffffffff8716600090815260028d0160205260409020546120ce9190610c9e90600190615c0b565b60608901525b6120de8b87613339565b64ffffffffff90811660a08a01529590951660c088015250611ce9945050505050565b8260e0015194508261010001519350826080015164ffffffffff166000036121315764ffffffffff861660a08901525b5050608001519250611d5a565b602085018290526060870151612155908290613328565b60408601528361216957846040015161216f565b84602001515b876040015161217e9190615c0b565b8552505050509392505050565b60008061219f620f42408460400151613462565b90508260200151156121fa5760608301516000906121bd90836134c8565b8451909150156121e2576121db85826121d689826134dd565b613279565b92506121f4565b6121f186826121d688826134dd565b92505b50612249565b82511561222457606083015161221d90869061221687826134e9565b60016134f5565b915061223c565b606083015161223990859061221688826134e9565b91505b6122468282613546565b91505b509392505050565b6001546001600160a01b03163314610e9a5760405162461bcd60e51b815260206004820181905260248201527f4f776e61626c653a2063616c6c6572206973206e6f7420746865206f776e65726044820152606401610782565b6000806122bb620f424084613462565b90506122c7848261355d565b949350505050565b7f00000000000000000000000000000000000000000000000000000000000000006001600160a01b03163314610e9a5760405162461bcd60e51b815260206004820152601d60248201527f504d5f4f453a2063616c6c6572206973206e6f742065786368616e67650000006044820152606401610782565b600080612358848460400151613572565b90506122c7836000015162ffffff1661237f856020015162ffffff1684600160601b613279565b906134dd565b60008183106123945781611ce9565b5090919050565b600062ffffff821115610aa85760405162461bcd60e51b815260206004820152602660248201527f53616665436173743a2076616c756520646f65736e27742066697420696e203260448201526534206269747360d01b6064820152608401610782565b600180546001600160a01b038381166001600160a01b0319831681179093556040519116919082907f8be0079c531659141344cd1fd0a4f28419497f9722a3daafe3b4186f6b6457e090600090a35050565b6000611ce661246085856129db565b600160601b84613279565b6000806124818385600001548660020154613279565b610c2b8486600101548760020154613279565b6000611ce660036040518060800160405280871515815260200186151581526020016124be610c37565b62ffffff1681526020018590526135ef565b6125106040518060a00160405280600081526020016000815260200160008152602001600064ffffffffff168152602001600064ffffffffff1681525090565b835160009061251f5785612524565b856004015b90506000612533828787611cf0565b8051909150156125685785516020870151825161255592919063ffffffff8816565b835184906125649083906158cc565b9052505b60208601518651151590151514600061257e8990565b90508260a0015164ffffffffff1660001461267c57600889018054600191906000906125b390849065ffffffffffff16615c1e565b82546101009290920a65ffffffffffff818102199093169183160217909155604080516020808201835260608d0151825260088e0154909316600090815260098e01909352912090519055508751156126255760a083015161262090859061363061364361365386613667565b61263f565b60a083015161263f90859061378c61379b6137a886613667565b8161264e578260200151612654565b82604001515b855186906126639083906158cc565b90525060a083015164ffffffffff1660808601526126c0565b60208301511561269e5760405162461bcd60e51b815260040161078290615c3d565b6040830151156126c05760405162461bcd60e51b815260040161078290615c3d565b60c083015164ffffffffff16156127b757606083015160c084015164ffffffffff16600090815260028601602052604081208054909190612702908490615c0b565b909155505060c083015164ffffffffff1660009081526002850160205260409020546127405760405162461bcd60e51b815260040161078290615c3d565b6127668360c0015189600001516127595761379b61275d565b6136435b869190846137b4565b8161277557826060015161277b565b82608001515b8551869061278a9083906158cc565b90525060608084015160208701526080840151604087015260c084015164ffffffffff16908601526127fb565b6060830151156127d95760405162461bcd60e51b815260040161078290615c3d565b6080830151156127fb5760405162461bcd60e51b815260040161078290615c3d565b50505050949350505050565b600184015442908111612840576128228560020154836137fc565b600286015560038501546128369083612385565b6003860155612872565b600185018190556128518585613572565b855561285d83836137fc565b600286015561286c8383612385565b60038601555b5050505050565b8060200151600003612889575050565b805182556020810151600183015560400151600290910155565b60006128ad610e9c565b6040805160c0810182526001600160a01b037f0000000000000000000000000000000000000000000000000000000000000000811682527f0000000000000000000000000000000000000000000000000000000000000000166020820152908101829052601d5462ffffff8116606083015263ffffffff6301000000820481166080840152600160381b9091041660a0820152909150600090819081906129569060099061380c565b9250925092508260000361296a5750505050565b6129756003846139a8565b6006546007546040805186815263ffffffff8616602082015290810184905260608101879052608081019290925260a08201527f318daee0b48d1f6a0542d8cdd35e2593d88c4fb01708f4781609494206d070519060c00160405180910390a150505050565b6000611ce982600160601b85613279565b6000806000612a0c6129fd86613aac565b612a068a613aac565b90613b16565b90506000612a1c6129fd86613aac565b9050612a3782600160601b612a308a613aac565b9190613b22565b612a4982600160601b612a308b613aac565b9350935050505b9550959350505050565b81546001830154600284015483516000938493909290918490612a7e908584613279565b90506000612a9188600001518585613279565b9050600082118015612aa35750600081115b612ae75760405162461bcd60e51b8152602060048201526015602482015274504c5f524c3a206f7574707574206973207a65726f60581b6044820152606401610782565b612af185836134e9565b8955612afd84826134e9565b60018a01558751600090612b129085906134e9565b90506103e8811015612b5d5760405162461bcd60e51b8152602060048201526014602482015273504c5f524c3a206d696e206c697175696469747960601b6044820152606401610782565b60028a015590955093505050509250929050565b6000612b7c85613bc6565b90506000612b8985613bc6565b905060008211612bdb5760405162461bcd60e51b815260206004820152601b60248201527f464c5f56494c503a20696e76616c6964206261736520707269636500000000006044820152606401610782565b60008111612c2b5760405162461bcd60e51b815260206004820152601c60248201527f464c5f56494c503a20696e76616c69642071756f7465207072696365000000006044820152606401610782565b6000612c3687613c8c565b90506000612c4387613c8c565b9050604d60ff83161115612c995760405162461bcd60e51b815260206004820152601e60248201527f464c5f56494c503a20696e76616c6964206261736520646563696d616c7300006044820152606401610782565b604d60ff82161115612ced5760405162461bcd60e51b815260206004820152601f60248201527f464c5f56494c503a20696e76616c69642071756f746520646563696d616c73006044820152606401610782565b6000612cfe86600160601b89613279565b90506000612d0f8484888886613d52565b9050612d22600160601b620186a06134c8565b612d2b82613dd2565b1115612d795760405162461bcd60e51b815260206004820152601b60248201527f464c5f56494c503a20746f6f206661722066726f6d20696e64657800000000006044820152606401610782565b50505050505050505050565b60008060008085600201549050600081600003612e5b5760208601518651600091612db891612db391613df6565b613e02565b9050612dc6816103e86134e9565b875190925015801590612ddd575060008760200151115b8015612de95750600082115b612e355760405162461bcd60e51b815260206004820152601d60248201527f504c5f414c3a20696e697469616c206c6971756964697479207a65726f0000006044820152606401610782565b8651808955602088015160018a0181905560028a01929092559550935091506117b49050565b8654600188015487516020890151600091612e7b91610c9e908686613279565b90506000612e968a60200151610c9e8c600001518688613279565b9050612eb1612ea6838887613279565b610c9e838987613279565b9450600082118015612ec35750600081115b8015612ecf5750600085115b612f135760405162461bcd60e51b8152602060048201526015602482015274504c5f414c3a206c6971756964697479207a65726f60581b6044820152606401610782565b612f1d84836134dd565b8b55612f2983826134dd565b60018c0155612f3886866134dd565b60028c015590975095509193505050509250925092565b6060611ce98383604051806060016040528060278152602001615e8560279139613f68565b600080612f84620f424084613462565b90506122c78482614039565b612fb460405180606001604052806000815260200160008152602001600081525090565b60018401544290808211612fd75750508354815260028401546040820152611ce9565b6000612fe383836134e9565b8754909150600003612ffb576040840185905261304b565b855463ffffffff600160601b90910481169060009061301e90849084906134dd16565b905061304361302e888584613279565b61237f8b600201548563ffffffff1685613279565b604087015250505b505082825260208201529392505050565b6000806130898461307357855462ffffff16613082565b85546301000000900462ffffff165b88906134c8565b905060006130bd856130a8578654600160301b900462ffffff16613082565b86548890600160481b900462ffffff166134c8565b905083156130e5576130dc6130d289846134dd565b610c9e89846134dd565b92505050613101565b6130dc6130f289846134e9565b6130fc89846134e9565b6137fc565b95945050505050565b60008061311a620f424085613462565b905060006131288989613df6565b905086156131bc57600061314b8361314584600160601b89613279565b906134c8565b905060006131598b80613df6565b905080821161316f57600094505050505061326f565b600061317b83836134e9565b9050600061319361318c8e886134c8565b8e906134dd565b90506131b16131a2828861355d565b6131ac848961355d565b614050565b96505050505061322f565b60006131d1836131458488600160601b613279565b905060006131df8a80613df6565b90508082116131f557600094505050505061326f565b600061320183836134e9565b905060006132196132128d886134c8565b8d906134dd565b90506132286131a2828861355d565b9650505050505b8561326c57613269898960405180608001604052808b151581526020016001151581526020018962ffffff1681526020018781525061218b565b92505b50505b9695505050505050565b60008080600019858709858702925082811083820303915050806000036132b3578382816132a9576132a96159cf565b0492505050611ce9565b8084116132bf57600080fd5b60008486880960026001871981018816978890046003810283188082028403028082028403028082028403028082028403028082028403029081029092039091026000889003889004909101858311909403939093029303949094049190911702949350505050565b6000611ce98383600160601b613279565b600064ffffffffff82166133895760405162461bcd60e51b81526020600482015260176024820152765242544c5f503a2074617267657420697320656d70747960481b6044820152606401610782565b64ffffffffff8281166000908152600185016020526040902054600160281b900416156133e45764ffffffffff80831660009081526001850160205260409020546133dd918591600160281b90041661407c565b9050611717565b5064ffffffffff8082166000908152600184016020526040902054165b64ffffffffff81161580159061343a575064ffffffffff8181166000908152600185016020526040902054600160281b90048116908316145b156117175764ffffffffff808216600090815260018501602052604090205491925016613401565b60008262ffffff168262ffffff1611156134be5760405162461bcd60e51b815260206004820152601e60248201527f506572704d6174683a207375627472616374696f6e206f766572666c6f7700006044820152606401610782565b611ce98284615c62565b6000611ce9838362ffffff16620f4240613279565b6000611ce982846158cc565b6000611ce98284615c0b565b600080613503868686613279565b9050600183600281111561351957613519615c7e565b148015613536575060008480613531576135316159cf565b868809115b156131015761326f6001826158cc565b6000611ce983620f42408462ffffff1660016134f5565b6000611ce983620f42408462ffffff16613279565b6000826003015460000361358857506000611717565b60006135af600160601b6135a98660020154600160601b8860030154613279565b906134e9565b905060006135be846001615c94565b63ffffffff1690506131016135dc82846140d690919063ffffffff16565b865461237f9063ffffffff881685613279565b6000613604836000015484600101548461218b565b8251602084015185546001870154606087015194955061362494866140e2565b60018501559092555090565b6000816122466004820160018787614164565b6000816122c760048201856141f9565b80613662600482018285614308565b505050565b64ffffffffff85166136b35760405162461bcd60e51b81526020600482015260156024820152745242544c5f524c3a206b657920697320656d70747960581b6044820152606401610782565b6136bd8686614349565b6137025760405162461bcd60e51b81526020600482015260166024820152751490951317d4930e881ad95e481b9bdd08195e1a5cdd60521b6044820152606401610782565b6040805160808082018352885464ffffffffff908116835288166020830152918101919091526060810182905261373d908790868686614394565b50865464ffffffffff91821664ffffffffff19918216811789556000908152600189016020526040808220805490931690925597549091168752909520805460ff60781b191690555050505050565b60008161224681838787614164565b6000816122c781856141f9565b80613662818085614308565b64ffffffffff8316156137f6576137cf83828463ffffffff16565b6137f65764ffffffffff9283166000908152600185016020526040902054909216916137b4565b50505050565b6000818310156123945781611ce9565b600080600080429050600061382e8760020154836134e990919063ffffffff16565b90508060000361384a57600080600094509450945050506117b4565b60006138598760000151613bc6565b9050600061386a8860200151613bc6565b9050600061387b8960000151613c8c565b9050600061388c8a60200151613c8c565b8b54909150841480156138a25750828b60010154145b806138ab575083155b806138b4575082155b806138c25750604d60ff8316115b806138d05750604d60ff8216115b156138eb5760008060009850985098505050505050506117b4565b6138ff858b6080015163ffffffff16612385565b945061390a856145c2565b975061391d828286868e60400151613d52565b9650600061394461393f8c60600151600160601b6134c890919063ffffffff16565b613aac565b9050613962613953828a614627565b61395c83615cb1565b90614636565b975061398b61397087613aac565b8c60a0015163ffffffff168a613b229092919063ffffffff16565b948c55505050600189015560028801929092555092509250925092565b806000036139b4575050565b60006139bf82613dd2565b90506000821315613a2257600183015460006139e08284600160601b613279565b90506139ec82826134e9565b8560010181905550613a15613a0a82600160601b8860020154613279565b6004870154906134dd565b600486015550613a749050565b82546000613a3982846121d6600160601b826134dd565b9050613a4582826134e9565b85556002850154613a6c90613a61908390600160601b90613279565b6003870154906134dd565b600386015550505b613a9f8360050154613a95613a9085612a06600160601b613aac565b614646565b600160601b613279565b8360050181905550505050565b60006001600160ff1b03821115610aa85760405162461bcd60e51b815260206004820152602860248201527f53616665436173743a2076616c756520646f65736e27742066697420696e2061604482015267371034b73a191a9b60c11b6064820152608401610782565b6000611ce98284615ccd565b60008060008512613b335784613b3c565b613b3c85614698565b90506000808512613b4d5784613b56565b613b5685614698565b905060008087128015613b695750600086135b80613b7f5750600087138015613b7f5750600086125b613b8a576000613b8d565b60015b90506000613b9c848488613279565b905081613bb157613bac81613aac565b613bba565b613bba816146f6565b98975050505050505050565b60006001600160a01b038216613bde57506001919050565b60408051600481526024810182526020810180516001600160e01b0316634c6afee560e11b179052905160009081906001600160a01b03861690613c23908590615ced565b600060405180830381855afa9150503d8060008114613c5e576040519150601f19603f3d011682016040523d82523d6000602084013e613c63565b606091505b509150915081613c7857506000949350505050565b808060200190518101906131019190615992565b60006001600160a01b038216613ca457506000919050565b60408051600481526024810182526020810180516001600160e01b031663313ce56760e01b179052905160009081906001600160a01b03861690613ce9908590615ced565b600060405180830381855afa9150503d8060008114613d24576040519150601f19603f3d011682016040523d82523d6000602084013e613d29565b606091505b509150915081613d3e575060ff949350505050565b808060200190518101906131019190615d09565b60008160ff8716151580613d67575084600114155b15613d8457613d8181613d7b89600a615e10565b87613279565b90505b60ff8616151580613d96575083600114155b15613dae57613dab81856121d689600a615e10565b90505b613dc7613dbe600160601b613aac565b612a0683613aac565b979650505050505050565b600080821215613ded57613de8613a9083614698565b611717565b61171782614646565b6000611ce98284615e1f565b600081600003613e1457506000919050565b600182608081901c15613e2c5760409190911b9060801c5b604081901c15613e415760209190911b9060401c5b602081901c15613e565760109190911b9060201c5b601081901c15613e6b5760089190911b9060101c5b600881901c15613e805760049190911b9060081c5b600481901c15613e955760029190911b9060041c5b600281901c15613ea757600182901b91505b6001828581613eb857613eb86159cf565b048301901c91506001828581613ed057613ed06159cf565b048301901c91506001828581613ee857613ee86159cf565b048301901c91506001828581613f0057613f006159cf565b048301901c91506001828581613f1857613f186159cf565b048301901c91506001828581613f3057613f306159cf565b048301901c91506001828581613f4857613f486159cf565b048301901c91506122c782838681613f6257613f626159cf565b04612385565b6060613f7384611b52565b613fce5760405162461bcd60e51b815260206004820152602660248201527f416464726573733a2064656c65676174652063616c6c20746f206e6f6e2d636f6044820152651b9d1c9858dd60d21b6064820152608401610782565b600080856001600160a01b031685604051613fe99190615ced565b600060405180830381855af49150503d8060008114614024576040519150601f19603f3d011682016040523d82523d6000602084013e614029565b606091505b509150915061326f82828661470a565b6000611ce9838362ffffff16620f424060016134f5565b6000611ce96002614076856135a9612db361406c886004613df6565b61237f8a80613df6565b906140d6565b60005b64ffffffffff8281166000908152600185016020526040902054600160501b900416156140d05764ffffffffff9182166000908152600184016020526040902054600160501b90049091169061407f565b50919050565b6000611ce98284615e3e565b600080861561412457871561410e576140fb86856134dd565b915061410785846134e9565b9050614159565b61411886846134e9565b915061410785856134dd565b87156141405761413486846134dd565b915061410785856134e9565b61414a86856134e9565b915061415685846134dd565b90505b965096945050505050565b64ffffffffff828116600090815260018601602052604080822054928416825281205490916001600160801b03600160801b9182900481169291909104168082036141c3578364ffffffffff168564ffffffffff1610925050506122c7565b856141e257806001600160801b0316826001600160801b031610613dc7565b6001600160801b0390811691161195945050505050565b64ffffffffff808216600090815260028085016020818152604080852060018082015495820154818b01855283882054959094529054600160501b85048816808852838820830154600160281b9096049098168088529287209091015495969495929491939192879261426b916158cc565b61427591906158cc565b905060006142838989614743565b64ffffffffff80851660009081526002808d016020526040808320820154938916835290912001546142b591906158cc565b6142bf91906158cc565b905085821480156142cf57508481145b9650866142fc5764ffffffffff881660009081526002808b01602052604090912060018101849055018190555b50505050505092915050565b60089091015464ffffffffff909116600090815260029092016020526040909120600301805465ffffffffffff191665ffffffffffff909216919091179055565b600064ffffffffff821615801590611ce95750825464ffffffffff83811691161480611ce957505064ffffffffff908116600090815260019290920160205260409091205416151590565b8351600090819064ffffffffff166143b55750506040840151600090612a50565b855164ffffffffff166000908152600188016020526040902054600160781b900460ff166143e45760016143e7565b60005b866040018181516143f89190615e52565b60ff169052508551602087015164ffffffffff9182169116036144605761442b866000015187606001518563ffffffff16565b5050835164ffffffffff9081166000908152600187016020526040908190205490860151600160501b90910490911690612a50565b61447b8660200151876000015188606001518863ffffffff16565b1561453f5760408051608081018252875164ffffffffff908116600090815260018b01602090815284822054600160281b900483168452808b0151909216918301919091528883015160ff16928201929092526060808901519082015281906144e8908a90898989614394565b895164ffffffffff808216600090815260018e0160205260409081902054908d015160608e0151959750939550614534948e94889493600160501b909304909216918c9188919061478a565b935093505050612a50565b614555866000015187606001518563ffffffff16565b60408051608081018252875164ffffffffff908116600090815260018b0160209081529084902054600160501b900482168352808a0151909116908201528782015160ff1691810191909152606080880151908201526145b9908890878787614394565b91509150612a50565b600063ffffffff821115610aa85760405162461bcd60e51b815260206004820152602660248201527f53616665436173743a2076616c756520646f65736e27742066697420696e203360448201526532206269747360d01b6064820152608401610782565b60008183126123945781611ce9565b6000818312156123945781611ce9565b600080821215610aa85760405162461bcd60e51b815260206004820181905260248201527f53616665436173743a2076616c7565206d75737420626520706f7369746976656044820152606401610782565b6000600160ff1b82136146ed5760405162461bcd60e51b815260206004820152601c60248201527f506572704d6174683a20696e76657273696f6e206f766572666c6f77000000006044820152606401610782565b61171782615cb1565b600061470182613aac565b61171790615cb1565b60608315614719575081611ce9565b8251156147295782518084602001fd5b8160405162461bcd60e51b8152600401610782919061572c565b64ffffffffff8116600090815260018301602090815260408083205460028601909252822054600160801b9091046001600160801b0316906122c79082600160601b613279565b6000808360ff168560ff16111561488e576147ed8a6040518060c001604052808c64ffffffffff1681526020018b64ffffffffff1681526020018a64ffffffffff1681526020018860ff1681526020018760ff1681526020018681525088614a7e565b5064ffffffffff8116600090815260018c016020526040902054909250859150600160781b900460ff168015614852575064ffffffffff828116600090815260018c01602052604080822054600160501b900490921681522054600160781b900460ff165b156148895764ffffffffff821660009081526001808c016020526040909120805460ff60781b191690556148869082615e6b565b90505b614a71565b8360ff168560ff161015614985576148ee8a6040518060c001604052808c64ffffffffff1681526020018b64ffffffffff1681526020018a64ffffffffff1681526020018860ff1681526020018760ff1681526020018681525088614d74565b64ffffffffff8116600090815260018c016020526040902054909250849150600160781b900460ff168015614852575064ffffffffff828116600090815260018c01602052604080822054600160281b900490921681522054600160781b900460ff16156148895764ffffffffff821660009081526001808c016020526040909120805460ff60781b191690556148869082615e6b565b64ffffffffff8916600090815260018b016020526040812054600160781b900460ff161580156149d5575064ffffffffff8816600090815260018c016020526040902054600160781b900460ff16155b64ffffffffff8a8116600090815260018e016020526040902080546fff0000000000ffffffffff00000000001916600160781b8415150264ffffffffff60281b191617600160281b8e8416021764ffffffffff60501b1916600160501b928c16929092029190911790559050614a4f898563ffffffff8a16565b508881614a5d576001614a60565b60005b614a6a9088615e6b565b9093509150505b9850989650505050505050565b815164ffffffffff1660009081526001840160205260408120548190600160781b900460ff16158015614abe5750836080015160ff16846060015160ff16145b15614b70576020808501805164ffffffffff9081166000908152600189019093526040808420805460ff60781b1916600160781b17905587518351831685528185208054918416600160281b0264ffffffffff60281b19909216919091179055808801518351831685529320805493909116600160501b0264ffffffffff60501b19909316929092179091555160a0850151614b5e919063ffffffff8616565b5050506020820151606083015161131f565b6040805160c081018252855164ffffffffff908116600090815260018901602081815285832054600160501b900484168552808a0151841681860152898601518416858701528951909316825290915291822054614c199188916060820190600160781b900460ff16614be4576001614be7565b60005b8960600151614bf69190615e52565b60ff168152602001886080015160ff1681526020018860a0015181525086614a7e565b50855164ffffffffff9081166000908152600189016020526040808220805464ffffffffff60501b1916600160501b868616021790558851909216815220805464ffffffffff19169055855160a0870151919250614c7a9163ffffffff8716565b50845164ffffffffff166000908152600187016020526040902054600160781b900460ff16158015614ccb575064ffffffffff81166000908152600187016020526040902054600160781b900460ff165b8015614d06575064ffffffffff818116600090815260018801602052604080822054600160501b900490921681522054600160781b900460ff165b15614d615764ffffffffff808216600090815260018801602052604080822054600160501b9004909216815220805460ff60781b19169055845160a0860151614d529188918790615132565b6060850151909250905061131f565b5050825160609093015192949293505050565b60408281015164ffffffffff1660009081526001850160205290812054600160781b900460ff16158015614db55750826080015160ff16836060015160ff16145b15614eea576020808401805164ffffffffff9081166000908152600188019093526040808420805460ff60781b1916600160781b17905586518351831685528185208054918416600160281b0264ffffffffff60281b19909216919091179055808701519251821684529092208054918316600160501b0264ffffffffff60501b1990921691909117905583511615614e7f57602083810151845164ffffffffff9081166000908152600188019093526040909220805464ffffffffff1916929091169190911790555b604083015164ffffffffff1615614ec85760208381015160408086015164ffffffffff9081166000908152600189019094529220805464ffffffffff1916929091169190911790555b614ede83602001518460a001518463ffffffff16565b50506020820151611ce9565b6040805160c081018252845164ffffffffff908116825260208087015182168184015286840180518316600090815260018a0180845286822054600160281b90048516868801526060808b015160ff908116918801919091529251909416815292909152928120549092614f9c92889290916080830191600160781b900416614f74576001614f77565b60005b8860800151614f869190615e52565b60ff1681526020018760a0015181525085614d74565b6040858101805164ffffffffff908116600090815260018a01602052838120805464ffffffffff60281b1916600160281b878516908102919091179091559251909116815291909120805464ffffffffff191690559091501561502d5760408481015164ffffffffff83811660009081526001890160205292909220805464ffffffffff1916929091169190911790555b61504384604001518560a001518563ffffffff16565b5060408481015164ffffffffff166000908152600187016020522054600160781b900460ff16158015615095575064ffffffffff81166000908152600186016020526040902054600160781b900460ff165b80156150d0575064ffffffffff818116600090815260018701602052604080822054600160281b900490921681522054600160781b900460ff165b156151265764ffffffffff808216600090815260018701602052604080822054600160281b90049092168152819020805460ff60781b1916905584015160a085015161511f9187918690615312565b9050611ce9565b50505060400151919050565b64ffffffffff80841660008181526001870160205260408082208054600160501b80820487168086529385205495909452600160281b909404851692830264ffffffffff60501b19851617905592919091169080156151b85764ffffffffff81811660009081526001890160205260409020805464ffffffffff19169188169190911790555b64ffffffffff83811660009081526001890160205260409020805464ffffffffff1916918416918217905561520157865464ffffffffff191664ffffffffff84161787556152a0565b64ffffffffff8083166000908152600189016020526040902054600160281b90048116908716036152685764ffffffffff808316600090815260018901602052604090208054918516600160281b0264ffffffffff60281b199092169190911790556152a0565b64ffffffffff808316600090815260018901602052604090208054918516600160501b0264ffffffffff60501b199092169190911790555b64ffffffffff838116600081815260018a016020526040808220805464ffffffffff60281b1916600160281b958c1695860217905592815291909120805464ffffffffff191690911790556152f9868563ffffffff8816565b5061530883858763ffffffff16565b5050505050505050565b64ffffffffff80841660008181526001870160205260408082208054600160281b80820487168086529385205495909452600160501b909404851692830264ffffffffff60281b19851617905592919091169080156153985764ffffffffff81811660009081526001890160205260409020805464ffffffffff19169188169190911790555b64ffffffffff83811660009081526001890160205260409020805464ffffffffff191691841691821790556153e157865464ffffffffff191664ffffffffff8416178755615480565b64ffffffffff8083166000908152600189016020526040902054600160501b90048116908716036154485764ffffffffff808316600090815260018901602052604090208054918516600160501b0264ffffffffff60501b19909216919091179055615480565b64ffffffffff808316600090815260018901602052604090208054918516600160281b0264ffffffffff60281b199092169190911790555b64ffffffffff838116600081815260018a016020526040808220805464ffffffffff60501b1916600160501b958c1695860217905592815291909120805464ffffffffff191690911790556152f9868563ffffffff8816565b803580151581146154e957600080fd5b919050565b6000806000806080858703121561550457600080fd5b61550d856154d9565b935061551b602086016154d9565b925060408501359150615530606086016154d9565b905092959194509250565b6000606082840312156140d057600080fd5b64ffffffffff81168114611b4f57600080fd5b6000806040838503121561557357600080fd5b61557c836154d9565b9150602083013561558c8161554d565b809150509250929050565b6000806000606084860312156155ac57600080fd5b6155b5846154d9565b95602085013595506040909401359392505050565b62ffffff958616815293851660208501529184166040840152909216606082015263ffffffff909116608082015260a00190565b60008060006060848603121561561357600080fd5b61561c846154d9565b925061562a602085016154d9565b9150604084013590509250925092565b62ffffff81168114611b4f57600080fd5b60006020828403121561565d57600080fd5b8135611ce98161563a565b60006020828403121561567a57600080fd5b5035919050565b63ffffffff81168114611b4f57600080fd5b6000602082840312156156a557600080fd5b8135611ce981615681565b6000806000606084860312156156c557600080fd5b505081359360208301359350604090920135919050565b60005b838110156156f75781810151838201526020016156df565b50506000910152565b600081518084526157188160208601602086016156dc565b601f01601f19169290920160200192915050565b602081526000611ce96020830184615700565b6000806040838503121561575257600080fd5b50508035926020909101359150565b6000806020838503121561577457600080fd5b823567ffffffffffffffff8082111561578c57600080fd5b818501915085601f8301126157a057600080fd5b8135818111156157af57600080fd5b8660208260051b85010111156157c457600080fd5b60209290920196919550909350505050565b6000602080830181845280855180835260408601915060408160051b870101925083870160005b8281101561582b57603f19888603018452615819858351615700565b945092850192908501906001016157fd565b5092979650505050505050565b600060a082840312156140d057600080fd5b60008060006060848603121561585f57600080fd5b615868846154d9565b9250615876602085016154d9565b9150615884604085016154d9565b90509250925092565b60006020828403121561589f57600080fd5b81356001600160a01b0381168114611ce957600080fd5b634e487b7160e01b600052601160045260246000fd5b80820180821115611717576117176158b6565b6020808252601f908201527f5265656e7472616e637947756172643a207265656e7472616e742063616c6c00604082015260600190565b81356159218161563a565b815462ffffff191662ffffff82161782555060208201356159418161563a565b815465ffffff0000001916601882901b65ffffff0000001617825550604082013561596b81615681565b815469ffffffff000000000000191660309190911b69ffffffff0000000000001617905550565b6000602082840312156159a457600080fd5b5051919050565b600080604083850312156159be57600080fd5b505080516020909101519092909150565b634e487b7160e01b600052601260045260246000fd5b600062ffffff808416806159fb576159fb6159cf565b92169190910492915050565b600060208284031215615a1957600080fd5b8151611ce98161554d565b600181811c90821680615a3857607f821691505b6020821081036140d057634e487b7160e01b600052602260045260246000fd5b634e487b7160e01b600052604160045260246000fd5b634e487b7160e01b600052603260045260246000fd5b6000808335601e19843603018112615a9b57600080fd5b83018035915067ffffffffffffffff821115615ab657600080fd5b602001915036819003821315610c3057600080fd5b600060018201615add57615add6158b6565b5060010190565b600080600060608486031215615af957600080fd5b835165ffffffffffff81168114615b0f57600080fd5b602085015160409095015190969495509392505050565b8135615b318161563a565b815462ffffff191662ffffff8216178255506020820135615b518161563a565b815465ffffff0000001916601882901b65ffffff00000016178255506040820135615b7b8161563a565b815462ffffff60301b8260301b1691508162ffffff60301b1982161783556060840135615ba78161563a565b62ffffff60481b60489190911b166bffffffffffff0000000000001982168317811784556080850135615bd981615681565b6fffffffffffffffffffff00000000000019929092169092179190911760609190911b63ffffffff60601b1617905550565b81810381811115611717576117176158b6565b65ffffffffffff818116838216019080821115611715576117156158b6565b6020808252600b908201526a3732bb32b91037b1b1bab960a91b604082015260600190565b62ffffff828116828216039080821115611715576117156158b6565b634e487b7160e01b600052602160045260246000fd5b63ffffffff818116838216019080821115611715576117156158b6565b6000600160ff1b8201615cc657615cc66158b6565b5060000390565b8181036000831280158383131683831282161715611715576117156158b6565b60008251615cff8184602087016156dc565b9190910192915050565b600060208284031215615d1b57600080fd5b815160ff81168114611ce957600080fd5b600181815b80851115615d67578160001904821115615d4d57615d4d6158b6565b80851615615d5a57918102915b93841c9390800290615d31565b509250929050565b600082615d7e57506001611717565b81615d8b57506000611717565b8160018114615da15760028114615dab57615dc7565b6001915050611717565b60ff841115615dbc57615dbc6158b6565b50506001821b611717565b5060208310610133831016604e8410600b8410161715615dea575081810a611717565b615df48383615d2c565b8060001904821115615e0857615e086158b6565b029392505050565b6000611ce960ff841683615d6f565b6000816000190483118215151615615e3957615e396158b6565b500290565b600082615e4d57615e4d6159cf565b500490565b60ff8281168282160390811115611717576117176158b6565b60ff8181168382160190811115611717576117176158b656fe416464726573733a206c6f772d6c6576656c2064656c65676174652063616c6c206661696c6564a2646970667358221220d91107cdd6af7be5b37983d2b5a3a6e978b029d9abe3424f9cf9c22926b1a80c64736f6c63430008100033",
  "deployedBytecode": "0x608060405234801561001057600080fd5b50600436106102535760003560e01c806380796d55116101465780639d67bf03116100c3578063dba4915311610087578063dba49153146106cb578063e7a49931146106dd578063e801c4d8146106f0578063e8fa204f146106f8578063f22897521461070b578063f2fde38b1461071657600080fd5b80639d67bf0314610604578063a4edcfc114610617578063ac9650d81461064d578063c9ca629b1461066d578063d2f7265a146106a457600080fd5b8063933c79791161010a578063933c7979146105ae5780639482de1a146105c157806395d89b41146105c95780639c8f9f23146105de5780639cd441da146105f157600080fd5b806380796d55146104f4578063823f2b041461054157806385aaa397146105685780638da5cb5b146105955780638ee8fe5d146105a657600080fd5b806356f55170116101d45780637452fadd116101985780637452fadd1461049c57806374f25689146104a45780637640482f146104b75780637661ce13146104ca578063796c20b7146104e157600080fd5b806356f55170146103be5780635a2f3d09146103e75780636346f32e1461043257806366a61ffb14610481578063715018a61461049457600080fd5b8063220e89ce1161021b578063220e89ce1461035057806323c8346a146103585780632724ebb01461036b5780633aa3e6501461039357806341744dd4146103b657600080fd5b806306f429b8146102585780630e06e4d01461027e578063125b9d27146102bd578063186f181e146102d25780631b520a02146102fe575b600080fd5b61026b6102663660046154ee565b610729565b6040519081526020015b60405180910390f35b6102a57f000000000000000000000000000000000000000000000000000000000000000081565b6040516001600160a01b039091168152602001610275565b6102d06102cb36600461553b565b610870565b005b601d546102e990600160381b900463ffffffff1681565b60405163ffffffff9091168152602001610275565b601f546103289062ffffff808216916301000000810490911690600160301b900463ffffffff1683565b6040805162ffffff948516815293909216602084015263ffffffff1690820152606001610275565b61026b6109fb565b6102d0610366366004615560565b610aac565b61037e610379366004615560565b610b9e565b60408051928352602083019190915201610275565b601d546103a29062ffffff1681565b60405162ffffff9091168152602001610275565b6103a2610c37565b6103d16103cc366004615597565b610cad565b60405164ffffffffff9091168152602001610275565b60035460045460055460065460075460085461040595949392919086565b604080519687526020870195909552938501929092526060840152608083015260a082015260c001610275565b601e546104709062ffffff8082169163010000008104821691600160301b8204811691600160481b810490911690600160601b900463ffffffff1685565b6040516102759594939291906155ca565b61026b61048f3660046155fe565b610e70565b6102d0610e88565b61026b610e9c565b6102d06104b236600461564b565b610ec2565b61037e6104c5366004615668565b610f85565b601d546102e9906301000000900463ffffffff1681565b6102d06104ef366004615693565b610f9c565b6105076105023660046154ee565b6110ba565b604051610275919081518152602080830151908201526040808301519082015260609182015164ffffffffff169181019190915260800190565b6102a57f000000000000000000000000000000000000000000000000000000000000000081565b600c54600d54600e5461057a92919083565b60408051938452602084019290925290820152606001610275565b6001546001600160a01b03166102a5565b61026b6112df565b61037e6105bc3660046156b0565b611301565b60085461026b565b6105d1611327565b604051610275919061572c565b61037e6105ec366004615668565b6113b5565b61057a6105ff36600461573f565b611453565b6102d0610612366004615693565b611555565b601954601a54601b54601c5461062d9392919084565b604080519485526020850193909352918301526060820152608001610275565b61066061065b366004615761565b611627565b60405161027591906157d6565b61068061067b366004615560565b61171d565b6040805165ffffffffffff9094168452602084019290925290820152606001610275565b6102a57f000000000000000000000000000000000000000000000000000000000000000081565b600954600a54600b5461057a92919083565b6102d06106eb366004615838565b6117bb565b61026b611a1d565b61026b61070636600461584a565b611aca565b60065460075461037e565b6102d061072436600461588d565b611ad9565b6000806107398686856000611b77565b5090508084111561078b5760405162461bcd60e51b8152602060048201526017602482015276141357d414ce881d1bdbc81b185c99d948185b5bdd5b9d604a1b60448201526064015b60405180910390fd5b60006107cc8761079c57600f61079f565b60135b604080516080810182528a1515815289151560208201529081018890526008546060820152611cc9611cf0565b600354600454604080516080810182528b151581528a1515602082015293945061080f939081016107fb610c37565b62ffffff168152855160209091015261218b565b925086151586151514801590610844578160600151826020015161083391906158cc565b61083d90856158cc565b9350610865565b8160800151826040015161085891906158cc565b61086290856158cc565b93505b505050949350505050565b610878612251565b60026000540361089a5760405162461bcd60e51b8152600401610782906158df565b600260005561c3506108af602083018361564b565b62ffffff1611156109025760405162461bcd60e51b815260206004820152601c60248201527f504d5f535046433a2066697865642066656520746f6f206c61726765000000006044820152606401610782565b6127106109156060830160408401615693565b63ffffffff1611156109695760405162461bcd60e51b815260206004820152601f60248201527f504d5f535046433a2061747220656d6120626c6f636b7320746f6f20626967006044820152606401610782565b80601f6109768282615916565b507f269f7c0d124741a5574762c75c64c04ad89fa3e91ec86aa3be1b9b6d6d08668790506109a7602083018361564b565b6109b7604084016020850161564b565b6109c76060850160408601615693565b6040805162ffffff948516815293909216602084015263ffffffff16908201526060015b60405180910390a1506001600055565b6000610a15610a08610e9c565b610a10610c37565b6122ab565b604051632e45552560e21b8152600f600482015290915060009073__$52dce10bb0994e0b74d4a2856cc70476a1$__9063b915549490602401602060405180830381865af4158015610a6b573d6000803e3d6000fd5b505050506040513d601f19601f82011682018060405250810190610a8f9190615992565b90508015801590610a9f57508181105b15610aa8578091505b5090565b610ab46122cf565b600260005403610ad65760405162461bcd60e51b8152600401610782906158df565b6002600055604051632ec0b78b60e11b8152600f6004820152821515602482015264ffffffffff8216604482015273__$52dce10bb0994e0b74d4a2856cc70476a1$__90635d816f169060640160006040518083038186803b158015610b3b57600080fd5b505af4158015610b4f573d6000803e3d6000fd5b505060408051851515815264ffffffffff851660208201527ff61aa5333bf001aa89f4bfa6ccaf123eec86eada7fd1c6c366227102507f89cd935001905060405180910390a150506001600055565b6040516302ea3f0960e01b8152600f6004820152821515602482015264ffffffffff82166044820152600090819073__$52dce10bb0994e0b74d4a2856cc70476a1$__906302ea3f09906064016040805180830381865af4158015610c07573d6000803e3d6000fd5b505050506040513d601f19601f82011682018060405250810190610c2b91906159ab565b915091505b9250929050565b601e54600090610ca890610ca390610c569060029062ffffff166159e5565b60408051606081018252601f5462ffffff80821683526301000000820481166020840152600160301b90910463ffffffff1692820192909252911690610c9e90601990612347565b612385565b61239b565b905090565b6000610cb76122cf565b600260005403610cd95760405162461bcd60e51b8152600401610782906158df565b60026000558315610d3857610cec6109fb565b821115610d335760405162461bcd60e51b8152602060048201526015602482015274141357d0d313ce881c1bdcdd081bdb9b1e48189a59605a1b6044820152606401610782565b610d87565b610d40611a1d565b821015610d875760405162461bcd60e51b8152602060048201526015602482015274504d5f434c4f3a20706f7374206f6e6c792061736b60581b6044820152606401610782565b6040516383818a6f60e01b8152600f60048201528415156024820152604481018490526064810183905273__$52dce10bb0994e0b74d4a2856cc70476a1$__906383818a6f90608401602060405180830381865af4158015610ded573d6000803e3d6000fd5b505050506040513d601f19601f82011682018060405250810190610e119190615a07565b6040805186151581526020810186905290810184905264ffffffffff821660608201529091507f7f6ce27b6803b5b961a441dac0f55de214751acfb64178849efb01fdb71c620b9060800160405180910390a160016000559392505050565b6000610e7f8484600085611b77565b50949350505050565b610e90612251565b610e9a60006123ff565b565b6003546000908103610eae5750600090565b600354600454600854610ca8929190612451565b610eca612251565b600260005403610eec5760405162461bcd60e51b8152600401610782906158df565b6002600055620186a062ffffff82161115610f3f5760405162461bcd60e51b8152602060048201526013602482015272504d5f53464d50523a20746f6f206c6172676560681b6044820152606401610782565b601d805462ffffff191662ffffff83169081179091556040519081527f55647f4dd43ac173f04e53a506df46454012316d82fb04a9c1dbd8e0f21f8f76906020016109eb565b600080610f9360038461246b565b91509150915091565b610fa4612251565b600260005403610fc65760405162461bcd60e51b8152600401610782906158df565b600260005562093a8063ffffffff821611156110195760405162461bcd60e51b8152602060048201526012602482015271504d5f534652533a20746f6f206c6172676560701b6044820152606401610782565b610e108163ffffffff1610156110665760405162461bcd60e51b8152602060048201526012602482015271141357d4d19494ce881d1bdbc81cdb585b1b60721b6044820152606401610782565b601d805463ffffffff60381b1916600160381b63ffffffff8416908102919091179091556040519081527fa703b265f29064a106acd6473c258e009bff9ac0bfd63b6f5ca4b712a25c8516906020016109eb565b6110ec6040518060800160405280600081526020016000815260200160008152602001600064ffffffffff1681525090565b6110f46122cf565b6002600054036111165760405162461bcd60e51b8152600401610782906158df565b600260009081558061112a87878684611b77565b91509150818511156111775760405162461bcd60e51b8152602060048201526016602482015275141357d4ce881d1bdbc81b185c99d948185b5bdd5b9d60521b6044820152606401610782565b60006111816112df565b905060006111bf600f60405180608001604052808c151581526020018b151581526020018a8152602001600360050154815250611cc96124946124d0565b90506040518060800160405280826000015181526020018260200151815260200182604001518152602001826060015164ffffffffff1681525094506112246019601f60000160069054906101000a900463ffffffff168461121f6112df565b612807565b61122f600c84612879565b7f4af368bb319fb6132e4a959e88a5bd0ebed952b65925f8503bb497d99de64b20898989886000015185608001518a606001518b602001518c604001516040516112bd989796959493929190971515885295151560208801526040870194909452606086019290925264ffffffffff90811660808601521660a084015260c083015260e08201526101000190565b60405180910390a16112cd6128a3565b50506001600055509095945050505050565b60035460009081036112f15750600090565b600354600454610ca891906129db565b60008061131a60038001546003600401548787876129ec565b915091505b935093915050565b6002805461133490615a24565b80601f016020809104026020016040519081016040528092919081815260200182805461136090615a24565b80156113ad5780601f10611382576101008083540402835291602001916113ad565b820191906000526020600020905b81548152906001019060200180831161139057829003601f168201915b505050505081565b6000806113c06122cf565b6002600054036113e25760405162461bcd60e51b8152600401610782906158df565b6002600055604080516020810190915283815261140190600390612a5a565b604080518381526020810183905290810186905291935091507f0bb89aa54ed6940a7e7167bd262b2400d63945045ceff1a52a05f2601ed215f19060600160405180910390a160016000559092909150565b60008060006114606122cf565b6002600054036114825760405162461bcd60e51b8152600401610782906158df565b6002600090815560055490036114de576114de7f00000000000000000000000000000000000000000000000000000000000000007f00000000000000000000000000000000000000000000000000000000000000008787612b71565b6114fd6003604051806040016040528088815260200187815250612d85565b604080518481526020810184905290810182905292955090935091507fd7f28048575eead8851d024ead087913957dfb4fd1a02b4d1573f5352a5a2be39060600160405180910390a160016000819055509250925092565b61155d612251565b60026000540361157f5760405162461bcd60e51b8152600401610782906158df565b600260005562093a8063ffffffff821611156115d35760405162461bcd60e51b8152602060048201526013602482015272504d5f53464d45533a20746f6f206c6172676560681b6044820152606401610782565b601d805466ffffffff0000001916630100000063ffffffff8416908102919091179091556040519081527f5b18da8898c1e492e6bc631eec59d143ebba7f31ca794b668f0bfa9b0d989293906020016109eb565b60608167ffffffffffffffff81111561164257611642615a58565b60405190808252806020026020018201604052801561167557816020015b60608152602001906001900390816116605790505b50905060005b82811015611715576116e53085858481811061169957611699615a6e565b90506020028101906116ab9190615a84565b8080601f016020809104026020016040519081016040528093929190818152602001838380828437600092019190915250612f4f92505050565b8282815181106116f7576116f7615a6e565b6020026020010181905250808061170d90615acb565b91505061167b565b505b92915050565b6040516399d5040960e01b8152600f6004820152821515602482015264ffffffffff821660448201526000908190819073__$52dce10bb0994e0b74d4a2856cc70476a1$__906399d5040990606401606060405180830381865af4158015611789573d6000803e3d6000fd5b505050506040513d601f19601f820116820180604052508101906117ad9190615ae4565b9250925092505b9250925092565b6117c3612251565b6002600054036117e55760405162461bcd60e51b8152600401610782906158df565b60026000556207a1206117fe604083016020840161564b565b62ffffff1611156118515760405162461bcd60e51b815260206004820152601e60248201527f50455f53504c433a20746f6f206c61726765206c69717569646174696f6e00006044820152606401610782565b611861604082016020830161564b565b62ffffff16611873602083018361564b565b62ffffff1611156118b95760405162461bcd60e51b815260206004820152601060248201526f141157d4d41310ce881a5b9d985b1a5960821b6044820152606401610782565b620f42406118cd608083016060840161564b565b62ffffff161061191f5760405162461bcd60e51b815260206004820152601a60248201527f50455f53504c433a20656d6120746f6f206c61726765206c69710000000000006044820152606401610782565b61192f608082016060830161564b565b62ffffff16611944606083016040840161564b565b62ffffff16111561198e5760405162461bcd60e51b8152602060048201526014602482015273141157d4d41310ce88195b58481a5b9d985b1a5960621b6044820152606401610782565b80601e61199b8282615b26565b507fbe7eee05a638b28e8473a6f87ae310d3123f8a2a7561ce96e140f76125f7461290506119cc602083018361564b565b6119dc604084016020850161564b565b6119ec606085016040860161564b565b6119fc608086016060870161564b565b611a0c60a0870160808801615693565b6040516109eb9594939291906155ca565b6000611a37611a2a610e9c565b611a32610c37565b612f74565b604051632e45552560e21b81526013600482015290915060009073__$52dce10bb0994e0b74d4a2856cc70476a1$__9063b915549490602401602060405180830381865af4158015611a8d573d6000803e3d6000fd5b505050506040513d601f19601f82011682018060405250810190611ab19190615992565b90508015801590610a9f575081811115610aa857919050565b6000610e7f8484846000611b77565b611ae1612251565b6001600160a01b038116611b465760405162461bcd60e51b815260206004820152602660248201527f4f776e61626c653a206e6577206f776e657220697320746865207a65726f206160448201526564647265737360d01b6064820152608401610782565b611b4f816123ff565b50565b6001600160a01b03163b151590565b42600290910155565b600160601b600590910155565b6000611b9d60405180606001604052806000815260200160008152602001600081525090565b600554600003611bb05760009150611cc0565b82600003611bee576000611bc26112df565b9050611bd1600c601e83612f90565b9150611bea82600001518360400151601e888b1561305c565b9350505b600354600454611c0991908888611c03610c37565b8861310a565b915073__$52dce10bb0994e0b74d4a2856cc70476a1$__63b2041ed987611c3157600f611c34565b60135b60085460405160e084901b6001600160e01b031916815260048101929092528915156024830152881515604483015260648201879052608482015260a401602060405180830381865af4158015611c8f573d6000803e3d6000fd5b505050506040513d601f19601f82011682018060405250810190611cb39190615992565b611cbd90836158cc565b91505b94509492505050565b600354600454600091611ce6918686611ce0610c37565b8761310a565b90505b9392505050565b611d3e6040518060e001604052806000815260200160008152602001600081526020016000815260200160008152602001600064ffffffffff168152602001600064ffffffffff1681525090565b602083015183518554911515901515149064ffffffffff166000805b64ffffffffff83161561213e57611dcd60405180610120016040528060006001600160801b031681526020016000815260200160008152602001600064ffffffffff168152602001600064ffffffffff168152602001600081526020016000815260200160008152602001600081525090565b64ffffffffff8416600090815260018a016020526040902054600160801b90046001600160801b03168082526060890151611e0d9190600160601b613279565b60208083018290528951908a0151611e289263ffffffff8b16565b60408083019190915264ffffffffff80861660008181526001808e01602081815286842054600160281b8104871660608a01908152958552918152600160501b909104851660808801529251909316815260028d01909152919091200154611e9090846158cc565b60a0820152606081015164ffffffffff1660009081526002808b0160205260409091200154611ebf90836158cc565b60c0820152604081015160009086611ee857611ee38360c001518b60600151613328565b611eee565b8260a001515b611ef891906158cc565b905080896040015111611f3b57816060015164ffffffffff16600003611f2f57611f228a86613339565b64ffffffffff1660a08801525b50606001519250611d5a565b608082015164ffffffffff908116600090815260028c016020526040808220600190810154938916835291200154611f739190615c0b565b611f7d90856158cc565b60e0830152608082015164ffffffffff90811660009081526002808d01602052604080832082015493891683529091200154611fb99190615c0b565b611fc390846158cc565b610100830152604082015160009087611fee57611fe98461010001518c60600151613328565b611ff4565b8360e001515b611ffe91906158cc565b9050808a604001511015612101576040830151885260a0830151602089015260c083015160608b01516120319190613328565b6040890152861561207157818a6040015161204c9190615c0b565b6060890181905260208401516120679190600160601b613279565b60808901526120d4565b818a604001516120819190615c0b565b60808901819052602084015161209d9190600160601b90613279565b6060890181905264ffffffffff8716600090815260028d0160205260409020546120ce9190610c9e90600190615c0b565b60608901525b6120de8b87613339565b64ffffffffff90811660a08a01529590951660c088015250611ce9945050505050565b8260e0015194508261010001519350826080015164ffffffffff166000036121315764ffffffffff861660a08901525b5050608001519250611d5a565b602085018290526060870151612155908290613328565b60408601528361216957846040015161216f565b84602001515b876040015161217e9190615c0b565b8552505050509392505050565b60008061219f620f42408460400151613462565b90508260200151156121fa5760608301516000906121bd90836134c8565b8451909150156121e2576121db85826121d689826134dd565b613279565b92506121f4565b6121f186826121d688826134dd565b92505b50612249565b82511561222457606083015161221d90869061221687826134e9565b60016134f5565b915061223c565b606083015161223990859061221688826134e9565b91505b6122468282613546565b91505b509392505050565b6001546001600160a01b03163314610e9a5760405162461bcd60e51b815260206004820181905260248201527f4f776e61626c653a2063616c6c6572206973206e6f7420746865206f776e65726044820152606401610782565b6000806122bb620f424084613462565b90506122c7848261355d565b949350505050565b7f00000000000000000000000000000000000000000000000000000000000000006001600160a01b03163314610e9a5760405162461bcd60e51b815260206004820152601d60248201527f504d5f4f453a2063616c6c6572206973206e6f742065786368616e67650000006044820152606401610782565b600080612358848460400151613572565b90506122c7836000015162ffffff1661237f856020015162ffffff1684600160601b613279565b906134dd565b60008183106123945781611ce9565b5090919050565b600062ffffff821115610aa85760405162461bcd60e51b815260206004820152602660248201527f53616665436173743a2076616c756520646f65736e27742066697420696e203260448201526534206269747360d01b6064820152608401610782565b600180546001600160a01b038381166001600160a01b0319831681179093556040519116919082907f8be0079c531659141344cd1fd0a4f28419497f9722a3daafe3b4186f6b6457e090600090a35050565b6000611ce661246085856129db565b600160601b84613279565b6000806124818385600001548660020154613279565b610c2b8486600101548760020154613279565b6000611ce660036040518060800160405280871515815260200186151581526020016124be610c37565b62ffffff1681526020018590526135ef565b6125106040518060a00160405280600081526020016000815260200160008152602001600064ffffffffff168152602001600064ffffffffff1681525090565b835160009061251f5785612524565b856004015b90506000612533828787611cf0565b8051909150156125685785516020870151825161255592919063ffffffff8816565b835184906125649083906158cc565b9052505b60208601518651151590151514600061257e8990565b90508260a0015164ffffffffff1660001461267c57600889018054600191906000906125b390849065ffffffffffff16615c1e565b82546101009290920a65ffffffffffff818102199093169183160217909155604080516020808201835260608d0151825260088e0154909316600090815260098e01909352912090519055508751156126255760a083015161262090859061363061364361365386613667565b61263f565b60a083015161263f90859061378c61379b6137a886613667565b8161264e578260200151612654565b82604001515b855186906126639083906158cc565b90525060a083015164ffffffffff1660808601526126c0565b60208301511561269e5760405162461bcd60e51b815260040161078290615c3d565b6040830151156126c05760405162461bcd60e51b815260040161078290615c3d565b60c083015164ffffffffff16156127b757606083015160c084015164ffffffffff16600090815260028601602052604081208054909190612702908490615c0b565b909155505060c083015164ffffffffff1660009081526002850160205260409020546127405760405162461bcd60e51b815260040161078290615c3d565b6127668360c0015189600001516127595761379b61275d565b6136435b869190846137b4565b8161277557826060015161277b565b82608001515b8551869061278a9083906158cc565b90525060608084015160208701526080840151604087015260c084015164ffffffffff16908601526127fb565b6060830151156127d95760405162461bcd60e51b815260040161078290615c3d565b6080830151156127fb5760405162461bcd60e51b815260040161078290615c3d565b50505050949350505050565b600184015442908111612840576128228560020154836137fc565b600286015560038501546128369083612385565b6003860155612872565b600185018190556128518585613572565b855561285d83836137fc565b600286015561286c8383612385565b60038601555b5050505050565b8060200151600003612889575050565b805182556020810151600183015560400151600290910155565b60006128ad610e9c565b6040805160c0810182526001600160a01b037f0000000000000000000000000000000000000000000000000000000000000000811682527f0000000000000000000000000000000000000000000000000000000000000000166020820152908101829052601d5462ffffff8116606083015263ffffffff6301000000820481166080840152600160381b9091041660a0820152909150600090819081906129569060099061380c565b9250925092508260000361296a5750505050565b6129756003846139a8565b6006546007546040805186815263ffffffff8616602082015290810184905260608101879052608081019290925260a08201527f318daee0b48d1f6a0542d8cdd35e2593d88c4fb01708f4781609494206d070519060c00160405180910390a150505050565b6000611ce982600160601b85613279565b6000806000612a0c6129fd86613aac565b612a068a613aac565b90613b16565b90506000612a1c6129fd86613aac565b9050612a3782600160601b612a308a613aac565b9190613b22565b612a4982600160601b612a308b613aac565b9350935050505b9550959350505050565b81546001830154600284015483516000938493909290918490612a7e908584613279565b90506000612a9188600001518585613279565b9050600082118015612aa35750600081115b612ae75760405162461bcd60e51b8152602060048201526015602482015274504c5f524c3a206f7574707574206973207a65726f60581b6044820152606401610782565b612af185836134e9565b8955612afd84826134e9565b60018a01558751600090612b129085906134e9565b90506103e8811015612b5d5760405162461bcd60e51b8152602060048201526014602482015273504c5f524c3a206d696e206c697175696469747960601b6044820152606401610782565b60028a015590955093505050509250929050565b6000612b7c85613bc6565b90506000612b8985613bc6565b905060008211612bdb5760405162461bcd60e51b815260206004820152601b60248201527f464c5f56494c503a20696e76616c6964206261736520707269636500000000006044820152606401610782565b60008111612c2b5760405162461bcd60e51b815260206004820152601c60248201527f464c5f56494c503a20696e76616c69642071756f7465207072696365000000006044820152606401610782565b6000612c3687613c8c565b90506000612c4387613c8c565b9050604d60ff83161115612c995760405162461bcd60e51b815260206004820152601e60248201527f464c5f56494c503a20696e76616c6964206261736520646563696d616c7300006044820152606401610782565b604d60ff82161115612ced5760405162461bcd60e51b815260206004820152601f60248201527f464c5f56494c503a20696e76616c69642071756f746520646563696d616c73006044820152606401610782565b6000612cfe86600160601b89613279565b90506000612d0f8484888886613d52565b9050612d22600160601b620186a06134c8565b612d2b82613dd2565b1115612d795760405162461bcd60e51b815260206004820152601b60248201527f464c5f56494c503a20746f6f206661722066726f6d20696e64657800000000006044820152606401610782565b50505050505050505050565b60008060008085600201549050600081600003612e5b5760208601518651600091612db891612db391613df6565b613e02565b9050612dc6816103e86134e9565b875190925015801590612ddd575060008760200151115b8015612de95750600082115b612e355760405162461bcd60e51b815260206004820152601d60248201527f504c5f414c3a20696e697469616c206c6971756964697479207a65726f0000006044820152606401610782565b8651808955602088015160018a0181905560028a01929092559550935091506117b49050565b8654600188015487516020890151600091612e7b91610c9e908686613279565b90506000612e968a60200151610c9e8c600001518688613279565b9050612eb1612ea6838887613279565b610c9e838987613279565b9450600082118015612ec35750600081115b8015612ecf5750600085115b612f135760405162461bcd60e51b8152602060048201526015602482015274504c5f414c3a206c6971756964697479207a65726f60581b6044820152606401610782565b612f1d84836134dd565b8b55612f2983826134dd565b60018c0155612f3886866134dd565b60028c015590975095509193505050509250925092565b6060611ce98383604051806060016040528060278152602001615e8560279139613f68565b600080612f84620f424084613462565b90506122c78482614039565b612fb460405180606001604052806000815260200160008152602001600081525090565b60018401544290808211612fd75750508354815260028401546040820152611ce9565b6000612fe383836134e9565b8754909150600003612ffb576040840185905261304b565b855463ffffffff600160601b90910481169060009061301e90849084906134dd16565b905061304361302e888584613279565b61237f8b600201548563ffffffff1685613279565b604087015250505b505082825260208201529392505050565b6000806130898461307357855462ffffff16613082565b85546301000000900462ffffff165b88906134c8565b905060006130bd856130a8578654600160301b900462ffffff16613082565b86548890600160481b900462ffffff166134c8565b905083156130e5576130dc6130d289846134dd565b610c9e89846134dd565b92505050613101565b6130dc6130f289846134e9565b6130fc89846134e9565b6137fc565b95945050505050565b60008061311a620f424085613462565b905060006131288989613df6565b905086156131bc57600061314b8361314584600160601b89613279565b906134c8565b905060006131598b80613df6565b905080821161316f57600094505050505061326f565b600061317b83836134e9565b9050600061319361318c8e886134c8565b8e906134dd565b90506131b16131a2828861355d565b6131ac848961355d565b614050565b96505050505061322f565b60006131d1836131458488600160601b613279565b905060006131df8a80613df6565b90508082116131f557600094505050505061326f565b600061320183836134e9565b905060006132196132128d886134c8565b8d906134dd565b90506132286131a2828861355d565b9650505050505b8561326c57613269898960405180608001604052808b151581526020016001151581526020018962ffffff1681526020018781525061218b565b92505b50505b9695505050505050565b60008080600019858709858702925082811083820303915050806000036132b3578382816132a9576132a96159cf565b0492505050611ce9565b8084116132bf57600080fd5b60008486880960026001871981018816978890046003810283188082028403028082028403028082028403028082028403028082028403029081029092039091026000889003889004909101858311909403939093029303949094049190911702949350505050565b6000611ce98383600160601b613279565b600064ffffffffff82166133895760405162461bcd60e51b81526020600482015260176024820152765242544c5f503a2074617267657420697320656d70747960481b6044820152606401610782565b64ffffffffff8281166000908152600185016020526040902054600160281b900416156133e45764ffffffffff80831660009081526001850160205260409020546133dd918591600160281b90041661407c565b9050611717565b5064ffffffffff8082166000908152600184016020526040902054165b64ffffffffff81161580159061343a575064ffffffffff8181166000908152600185016020526040902054600160281b90048116908316145b156117175764ffffffffff808216600090815260018501602052604090205491925016613401565b60008262ffffff168262ffffff1611156134be5760405162461bcd60e51b815260206004820152601e60248201527f506572704d6174683a207375627472616374696f6e206f766572666c6f7700006044820152606401610782565b611ce98284615c62565b6000611ce9838362ffffff16620f4240613279565b6000611ce982846158cc565b6000611ce98284615c0b565b600080613503868686613279565b9050600183600281111561351957613519615c7e565b148015613536575060008480613531576135316159cf565b868809115b156131015761326f6001826158cc565b6000611ce983620f42408462ffffff1660016134f5565b6000611ce983620f42408462ffffff16613279565b6000826003015460000361358857506000611717565b60006135af600160601b6135a98660020154600160601b8860030154613279565b906134e9565b905060006135be846001615c94565b63ffffffff1690506131016135dc82846140d690919063ffffffff16565b865461237f9063ffffffff881685613279565b6000613604836000015484600101548461218b565b8251602084015185546001870154606087015194955061362494866140e2565b60018501559092555090565b6000816122466004820160018787614164565b6000816122c760048201856141f9565b80613662600482018285614308565b505050565b64ffffffffff85166136b35760405162461bcd60e51b81526020600482015260156024820152745242544c5f524c3a206b657920697320656d70747960581b6044820152606401610782565b6136bd8686614349565b6137025760405162461bcd60e51b81526020600482015260166024820152751490951317d4930e881ad95e481b9bdd08195e1a5cdd60521b6044820152606401610782565b6040805160808082018352885464ffffffffff908116835288166020830152918101919091526060810182905261373d908790868686614394565b50865464ffffffffff91821664ffffffffff19918216811789556000908152600189016020526040808220805490931690925597549091168752909520805460ff60781b191690555050505050565b60008161224681838787614164565b6000816122c781856141f9565b80613662818085614308565b64ffffffffff8316156137f6576137cf83828463ffffffff16565b6137f65764ffffffffff9283166000908152600185016020526040902054909216916137b4565b50505050565b6000818310156123945781611ce9565b600080600080429050600061382e8760020154836134e990919063ffffffff16565b90508060000361384a57600080600094509450945050506117b4565b60006138598760000151613bc6565b9050600061386a8860200151613bc6565b9050600061387b8960000151613c8c565b9050600061388c8a60200151613c8c565b8b54909150841480156138a25750828b60010154145b806138ab575083155b806138b4575082155b806138c25750604d60ff8316115b806138d05750604d60ff8216115b156138eb5760008060009850985098505050505050506117b4565b6138ff858b6080015163ffffffff16612385565b945061390a856145c2565b975061391d828286868e60400151613d52565b9650600061394461393f8c60600151600160601b6134c890919063ffffffff16565b613aac565b9050613962613953828a614627565b61395c83615cb1565b90614636565b975061398b61397087613aac565b8c60a0015163ffffffff168a613b229092919063ffffffff16565b948c55505050600189015560028801929092555092509250925092565b806000036139b4575050565b60006139bf82613dd2565b90506000821315613a2257600183015460006139e08284600160601b613279565b90506139ec82826134e9565b8560010181905550613a15613a0a82600160601b8860020154613279565b6004870154906134dd565b600486015550613a749050565b82546000613a3982846121d6600160601b826134dd565b9050613a4582826134e9565b85556002850154613a6c90613a61908390600160601b90613279565b6003870154906134dd565b600386015550505b613a9f8360050154613a95613a9085612a06600160601b613aac565b614646565b600160601b613279565b8360050181905550505050565b60006001600160ff1b03821115610aa85760405162461bcd60e51b815260206004820152602860248201527f53616665436173743a2076616c756520646f65736e27742066697420696e2061604482015267371034b73a191a9b60c11b6064820152608401610782565b6000611ce98284615ccd565b60008060008512613b335784613b3c565b613b3c85614698565b90506000808512613b4d5784613b56565b613b5685614698565b905060008087128015613b695750600086135b80613b7f5750600087138015613b7f5750600086125b613b8a576000613b8d565b60015b90506000613b9c848488613279565b905081613bb157613bac81613aac565b613bba565b613bba816146f6565b98975050505050505050565b60006001600160a01b038216613bde57506001919050565b60408051600481526024810182526020810180516001600160e01b0316634c6afee560e11b179052905160009081906001600160a01b03861690613c23908590615ced565b600060405180830381855afa9150503d8060008114613c5e576040519150601f19603f3d011682016040523d82523d6000602084013e613c63565b606091505b509150915081613c7857506000949350505050565b808060200190518101906131019190615992565b60006001600160a01b038216613ca457506000919050565b60408051600481526024810182526020810180516001600160e01b031663313ce56760e01b179052905160009081906001600160a01b03861690613ce9908590615ced565b600060405180830381855afa9150503d8060008114613d24576040519150601f19603f3d011682016040523d82523d6000602084013e613d29565b606091505b509150915081613d3e575060ff949350505050565b808060200190518101906131019190615d09565b60008160ff8716151580613d67575084600114155b15613d8457613d8181613d7b89600a615e10565b87613279565b90505b60ff8616151580613d96575083600114155b15613dae57613dab81856121d689600a615e10565b90505b613dc7613dbe600160601b613aac565b612a0683613aac565b979650505050505050565b600080821215613ded57613de8613a9083614698565b611717565b61171782614646565b6000611ce98284615e1f565b600081600003613e1457506000919050565b600182608081901c15613e2c5760409190911b9060801c5b604081901c15613e415760209190911b9060401c5b602081901c15613e565760109190911b9060201c5b601081901c15613e6b5760089190911b9060101c5b600881901c15613e805760049190911b9060081c5b600481901c15613e955760029190911b9060041c5b600281901c15613ea757600182901b91505b6001828581613eb857613eb86159cf565b048301901c91506001828581613ed057613ed06159cf565b048301901c91506001828581613ee857613ee86159cf565b048301901c91506001828581613f0057613f006159cf565b048301901c91506001828581613f1857613f186159cf565b048301901c91506001828581613f3057613f306159cf565b048301901c91506001828581613f4857613f486159cf565b048301901c91506122c782838681613f6257613f626159cf565b04612385565b6060613f7384611b52565b613fce5760405162461bcd60e51b815260206004820152602660248201527f416464726573733a2064656c65676174652063616c6c20746f206e6f6e2d636f6044820152651b9d1c9858dd60d21b6064820152608401610782565b600080856001600160a01b031685604051613fe99190615ced565b600060405180830381855af49150503d8060008114614024576040519150601f19603f3d011682016040523d82523d6000602084013e614029565b606091505b509150915061326f82828661470a565b6000611ce9838362ffffff16620f424060016134f5565b6000611ce96002614076856135a9612db361406c886004613df6565b61237f8a80613df6565b906140d6565b60005b64ffffffffff8281166000908152600185016020526040902054600160501b900416156140d05764ffffffffff9182166000908152600184016020526040902054600160501b90049091169061407f565b50919050565b6000611ce98284615e3e565b600080861561412457871561410e576140fb86856134dd565b915061410785846134e9565b9050614159565b61411886846134e9565b915061410785856134dd565b87156141405761413486846134dd565b915061410785856134e9565b61414a86856134e9565b915061415685846134dd565b90505b965096945050505050565b64ffffffffff828116600090815260018601602052604080822054928416825281205490916001600160801b03600160801b9182900481169291909104168082036141c3578364ffffffffff168564ffffffffff1610925050506122c7565b856141e257806001600160801b0316826001600160801b031610613dc7565b6001600160801b0390811691161195945050505050565b64ffffffffff808216600090815260028085016020818152604080852060018082015495820154818b01855283882054959094529054600160501b85048816808852838820830154600160281b9096049098168088529287209091015495969495929491939192879261426b916158cc565b61427591906158cc565b905060006142838989614743565b64ffffffffff80851660009081526002808d016020526040808320820154938916835290912001546142b591906158cc565b6142bf91906158cc565b905085821480156142cf57508481145b9650866142fc5764ffffffffff881660009081526002808b01602052604090912060018101849055018190555b50505050505092915050565b60089091015464ffffffffff909116600090815260029092016020526040909120600301805465ffffffffffff191665ffffffffffff909216919091179055565b600064ffffffffff821615801590611ce95750825464ffffffffff83811691161480611ce957505064ffffffffff908116600090815260019290920160205260409091205416151590565b8351600090819064ffffffffff166143b55750506040840151600090612a50565b855164ffffffffff166000908152600188016020526040902054600160781b900460ff166143e45760016143e7565b60005b866040018181516143f89190615e52565b60ff169052508551602087015164ffffffffff9182169116036144605761442b866000015187606001518563ffffffff16565b5050835164ffffffffff9081166000908152600187016020526040908190205490860151600160501b90910490911690612a50565b61447b8660200151876000015188606001518863ffffffff16565b1561453f5760408051608081018252875164ffffffffff908116600090815260018b01602090815284822054600160281b900483168452808b0151909216918301919091528883015160ff16928201929092526060808901519082015281906144e8908a90898989614394565b895164ffffffffff808216600090815260018e0160205260409081902054908d015160608e0151959750939550614534948e94889493600160501b909304909216918c9188919061478a565b935093505050612a50565b614555866000015187606001518563ffffffff16565b60408051608081018252875164ffffffffff908116600090815260018b0160209081529084902054600160501b900482168352808a0151909116908201528782015160ff1691810191909152606080880151908201526145b9908890878787614394565b91509150612a50565b600063ffffffff821115610aa85760405162461bcd60e51b815260206004820152602660248201527f53616665436173743a2076616c756520646f65736e27742066697420696e203360448201526532206269747360d01b6064820152608401610782565b60008183126123945781611ce9565b6000818312156123945781611ce9565b600080821215610aa85760405162461bcd60e51b815260206004820181905260248201527f53616665436173743a2076616c7565206d75737420626520706f7369746976656044820152606401610782565b6000600160ff1b82136146ed5760405162461bcd60e51b815260206004820152601c60248201527f506572704d6174683a20696e76657273696f6e206f766572666c6f77000000006044820152606401610782565b61171782615cb1565b600061470182613aac565b61171790615cb1565b60608315614719575081611ce9565b8251156147295782518084602001fd5b8160405162461bcd60e51b8152600401610782919061572c565b64ffffffffff8116600090815260018301602090815260408083205460028601909252822054600160801b9091046001600160801b0316906122c79082600160601b613279565b6000808360ff168560ff16111561488e576147ed8a6040518060c001604052808c64ffffffffff1681526020018b64ffffffffff1681526020018a64ffffffffff1681526020018860ff1681526020018760ff1681526020018681525088614a7e565b5064ffffffffff8116600090815260018c016020526040902054909250859150600160781b900460ff168015614852575064ffffffffff828116600090815260018c01602052604080822054600160501b900490921681522054600160781b900460ff165b156148895764ffffffffff821660009081526001808c016020526040909120805460ff60781b191690556148869082615e6b565b90505b614a71565b8360ff168560ff161015614985576148ee8a6040518060c001604052808c64ffffffffff1681526020018b64ffffffffff1681526020018a64ffffffffff1681526020018860ff1681526020018760ff1681526020018681525088614d74565b64ffffffffff8116600090815260018c016020526040902054909250849150600160781b900460ff168015614852575064ffffffffff828116600090815260018c01602052604080822054600160281b900490921681522054600160781b900460ff16156148895764ffffffffff821660009081526001808c016020526040909120805460ff60781b191690556148869082615e6b565b64ffffffffff8916600090815260018b016020526040812054600160781b900460ff161580156149d5575064ffffffffff8816600090815260018c016020526040902054600160781b900460ff16155b64ffffffffff8a8116600090815260018e016020526040902080546fff0000000000ffffffffff00000000001916600160781b8415150264ffffffffff60281b191617600160281b8e8416021764ffffffffff60501b1916600160501b928c16929092029190911790559050614a4f898563ffffffff8a16565b508881614a5d576001614a60565b60005b614a6a9088615e6b565b9093509150505b9850989650505050505050565b815164ffffffffff1660009081526001840160205260408120548190600160781b900460ff16158015614abe5750836080015160ff16846060015160ff16145b15614b70576020808501805164ffffffffff9081166000908152600189019093526040808420805460ff60781b1916600160781b17905587518351831685528185208054918416600160281b0264ffffffffff60281b19909216919091179055808801518351831685529320805493909116600160501b0264ffffffffff60501b19909316929092179091555160a0850151614b5e919063ffffffff8616565b5050506020820151606083015161131f565b6040805160c081018252855164ffffffffff908116600090815260018901602081815285832054600160501b900484168552808a0151841681860152898601518416858701528951909316825290915291822054614c199188916060820190600160781b900460ff16614be4576001614be7565b60005b8960600151614bf69190615e52565b60ff168152602001886080015160ff1681526020018860a0015181525086614a7e565b50855164ffffffffff9081166000908152600189016020526040808220805464ffffffffff60501b1916600160501b868616021790558851909216815220805464ffffffffff19169055855160a0870151919250614c7a9163ffffffff8716565b50845164ffffffffff166000908152600187016020526040902054600160781b900460ff16158015614ccb575064ffffffffff81166000908152600187016020526040902054600160781b900460ff165b8015614d06575064ffffffffff818116600090815260018801602052604080822054600160501b900490921681522054600160781b900460ff165b15614d615764ffffffffff808216600090815260018801602052604080822054600160501b9004909216815220805460ff60781b19169055845160a0860151614d529188918790615132565b6060850151909250905061131f565b5050825160609093015192949293505050565b60408281015164ffffffffff1660009081526001850160205290812054600160781b900460ff16158015614db55750826080015160ff16836060015160ff16145b15614eea576020808401805164ffffffffff9081166000908152600188019093526040808420805460ff60781b1916600160781b17905586518351831685528185208054918416600160281b0264ffffffffff60281b19909216919091179055808701519251821684529092208054918316600160501b0264ffffffffff60501b1990921691909117905583511615614e7f57602083810151845164ffffffffff9081166000908152600188019093526040909220805464ffffffffff1916929091169190911790555b604083015164ffffffffff1615614ec85760208381015160408086015164ffffffffff9081166000908152600189019094529220805464ffffffffff1916929091169190911790555b614ede83602001518460a001518463ffffffff16565b50506020820151611ce9565b6040805160c081018252845164ffffffffff908116825260208087015182168184015286840180518316600090815260018a0180845286822054600160281b90048516868801526060808b015160ff908116918801919091529251909416815292909152928120549092614f9c92889290916080830191600160781b900416614f74576001614f77565b60005b8860800151614f869190615e52565b60ff1681526020018760a0015181525085614d74565b6040858101805164ffffffffff908116600090815260018a01602052838120805464ffffffffff60281b1916600160281b878516908102919091179091559251909116815291909120805464ffffffffff191690559091501561502d5760408481015164ffffffffff83811660009081526001890160205292909220805464ffffffffff1916929091169190911790555b61504384604001518560a001518563ffffffff16565b5060408481015164ffffffffff166000908152600187016020522054600160781b900460ff16158015615095575064ffffffffff81166000908152600186016020526040902054600160781b900460ff165b80156150d0575064ffffffffff818116600090815260018701602052604080822054600160281b900490921681522054600160781b900460ff165b156151265764ffffffffff808216600090815260018701602052604080822054600160281b90049092168152819020805460ff60781b1916905584015160a085015161511f9187918690615312565b9050611ce9565b50505060400151919050565b64ffffffffff80841660008181526001870160205260408082208054600160501b80820487168086529385205495909452600160281b909404851692830264ffffffffff60501b19851617905592919091169080156151b85764ffffffffff81811660009081526001890160205260409020805464ffffffffff19169188169190911790555b64ffffffffff83811660009081526001890160205260409020805464ffffffffff1916918416918217905561520157865464ffffffffff191664ffffffffff84161787556152a0565b64ffffffffff8083166000908152600189016020526040902054600160281b90048116908716036152685764ffffffffff808316600090815260018901602052604090208054918516600160281b0264ffffffffff60281b199092169190911790556152a0565b64ffffffffff808316600090815260018901602052604090208054918516600160501b0264ffffffffff60501b199092169190911790555b64ffffffffff838116600081815260018a016020526040808220805464ffffffffff60281b1916600160281b958c1695860217905592815291909120805464ffffffffff191690911790556152f9868563ffffffff8816565b5061530883858763ffffffff16565b5050505050505050565b64ffffffffff80841660008181526001870160205260408082208054600160281b80820487168086529385205495909452600160501b909404851692830264ffffffffff60281b19851617905592919091169080156153985764ffffffffff81811660009081526001890160205260409020805464ffffffffff19169188169190911790555b64ffffffffff83811660009081526001890160205260409020805464ffffffffff191691841691821790556153e157865464ffffffffff191664ffffffffff8416178755615480565b64ffffffffff8083166000908152600189016020526040902054600160501b90048116908716036154485764ffffffffff808316600090815260018901602052604090208054918516600160501b0264ffffffffff60501b19909216919091179055615480565b64ffffffffff808316600090815260018901602052604090208054918516600160281b0264ffffffffff60281b199092169190911790555b64ffffffffff838116600081815260018a016020526040808220805464ffffffffff60501b1916600160501b958c1695860217905592815291909120805464ffffffffff191690911790556152f9868563ffffffff8816565b803580151581146154e957600080fd5b919050565b6000806000806080858703121561550457600080fd5b61550d856154d9565b935061551b602086016154d9565b925060408501359150615530606086016154d9565b905092959194509250565b6000606082840312156140d057600080fd5b64ffffffffff81168114611b4f57600080fd5b6000806040838503121561557357600080fd5b61557c836154d9565b9150602083013561558c8161554d565b809150509250929050565b6000806000606084860312156155ac57600080fd5b6155b5846154d9565b95602085013595506040909401359392505050565b62ffffff958616815293851660208501529184166040840152909216606082015263ffffffff909116608082015260a00190565b60008060006060848603121561561357600080fd5b61561c846154d9565b925061562a602085016154d9565b9150604084013590509250925092565b62ffffff81168114611b4f57600080fd5b60006020828403121561565d57600080fd5b8135611ce98161563a565b60006020828403121561567a57600080fd5b5035919050565b63ffffffff81168114611b4f57600080fd5b6000602082840312156156a557600080fd5b8135611ce981615681565b6000806000606084860312156156c557600080fd5b505081359360208301359350604090920135919050565b60005b838110156156f75781810151838201526020016156df565b50506000910152565b600081518084526157188160208601602086016156dc565b601f01601f19169290920160200192915050565b602081526000611ce96020830184615700565b6000806040838503121561575257600080fd5b50508035926020909101359150565b6000806020838503121561577457600080fd5b823567ffffffffffffffff8082111561578c57600080fd5b818501915085601f8301126157a057600080fd5b8135818111156157af57600080fd5b8660208260051b85010111156157c457600080fd5b60209290920196919550909350505050565b6000602080830181845280855180835260408601915060408160051b870101925083870160005b8281101561582b57603f19888603018452615819858351615700565b945092850192908501906001016157fd565b5092979650505050505050565b600060a082840312156140d057600080fd5b60008060006060848603121561585f57600080fd5b615868846154d9565b9250615876602085016154d9565b9150615884604085016154d9565b90509250925092565b60006020828403121561589f57600080fd5b81356001600160a01b0381168114611ce957600080fd5b634e487b7160e01b600052601160045260246000fd5b80820180821115611717576117176158b6565b6020808252601f908201527f5265656e7472616e637947756172643a207265656e7472616e742063616c6c00604082015260600190565b81356159218161563a565b815462ffffff191662ffffff82161782555060208201356159418161563a565b815465ffffff0000001916601882901b65ffffff0000001617825550604082013561596b81615681565b815469ffffffff000000000000191660309190911b69ffffffff0000000000001617905550565b6000602082840312156159a457600080fd5b5051919050565b600080604083850312156159be57600080fd5b505080516020909101519092909150565b634e487b7160e01b600052601260045260246000fd5b600062ffffff808416806159fb576159fb6159cf565b92169190910492915050565b600060208284031215615a1957600080fd5b8151611ce98161554d565b600181811c90821680615a3857607f821691505b6020821081036140d057634e487b7160e01b600052602260045260246000fd5b634e487b7160e01b600052604160045260246000fd5b634e487b7160e01b600052603260045260246000fd5b6000808335601e19843603018112615a9b57600080fd5b83018035915067ffffffffffffffff821115615ab657600080fd5b602001915036819003821315610c3057600080fd5b600060018201615add57615add6158b6565b5060010190565b600080600060608486031215615af957600080fd5b835165ffffffffffff81168114615b0f57600080fd5b602085015160409095015190969495509392505050565b8135615b318161563a565b815462ffffff191662ffffff8216178255506020820135615b518161563a565b815465ffffff0000001916601882901b65ffffff00000016178255506040820135615b7b8161563a565b815462ffffff60301b8260301b1691508162ffffff60301b1982161783556060840135615ba78161563a565b62ffffff60481b60489190911b166bffffffffffff0000000000001982168317811784556080850135615bd981615681565b6fffffffffffffffffffff00000000000019929092169092179190911760609190911b63ffffffff60601b1617905550565b81810381811115611717576117176158b6565b65ffffffffffff818116838216019080821115611715576117156158b6565b6020808252600b908201526a3732bb32b91037b1b1bab960a91b604082015260600190565b62ffffff828116828216039080821115611715576117156158b6565b634e487b7160e01b600052602160045260246000fd5b63ffffffff818116838216019080821115611715576117156158b6565b6000600160ff1b8201615cc657615cc66158b6565b5060000390565b8181036000831280158383131683831282161715611715576117156158b6565b60008251615cff8184602087016156dc565b9190910192915050565b600060208284031215615d1b57600080fd5b815160ff81168114611ce957600080fd5b600181815b80851115615d67578160001904821115615d4d57615d4d6158b6565b80851615615d5a57918102915b93841c9390800290615d31565b509250929050565b600082615d7e57506001611717565b81615d8b57506000611717565b8160018114615da15760028114615dab57615dc7565b6001915050611717565b60ff841115615dbc57615dbc6158b6565b50506001821b611717565b5060208310610133831016604e8410600b8410161715615dea575081810a611717565b615df48383615d2c565b8060001904821115615e0857615e086158b6565b029392505050565b6000611ce960ff841683615d6f565b6000816000190483118215151615615e3957615e396158b6565b500290565b600082615e4d57615e4d6159cf565b500490565b60ff8281168282160390811115611717576117176158b6565b60ff8181168382160190811115611717576117176158b656fe416464726573733a206c6f772d6c6576656c2064656c65676174652063616c6c206661696c6564a2646970667358221220d91107cdd6af7be5b37983d2b5a3a6e978b029d9abe3424f9cf9c22926b1a80c64736f6c63430008100033",
  "libraries": {
    "OrderBookLibrary": "0xC91bD33af94343d14e313602345d901819F3959d"
  },
  "devdoc": {
    "kind": "dev",
    "methods": {
      "multicall(bytes[])": {
        "details": "Receives and executes a batch of function calls on this contract."
      },
      "owner()": {
        "details": "Returns the address of the current owner."
      },
      "renounceOwnership()": {
        "details": "Leaves the contract without owner. It will not be possible to call `onlyOwner` functions anymore. Can only be called by the current owner. NOTE: Renouncing ownership will leave the contract without an owner, thereby removing any functionality that is only available to the owner."
      },
      "transferOwnership(address)": {
        "details": "Transfers ownership of the contract to a new account (`newOwner`). Can only be called by the current owner."
      }
    },
    "version": 1
  },
  "userdoc": {
    "kind": "user",
    "methods": {},
    "version": 1
  },
  "storageLayout": {
    "storage": [
      {
        "astId": 925,
        "contract": "contracts/PerpdexMarket.sol:PerpdexMarket",
        "label": "_status",
        "offset": 0,
        "slot": "0",
        "type": "t_uint256"
      },
      {
        "astId": 550,
        "contract": "contracts/PerpdexMarket.sol:PerpdexMarket",
        "label": "_owner",
        "offset": 0,
        "slot": "1",
        "type": "t_address"
      },
      {
        "astId": 7941,
        "contract": "contracts/PerpdexMarket.sol:PerpdexMarket",
        "label": "symbol",
        "offset": 0,
        "slot": "2",
        "type": "t_string_storage"
      },
      {
        "astId": 7950,
        "contract": "contracts/PerpdexMarket.sol:PerpdexMarket",
        "label": "poolInfo",
        "offset": 0,
        "slot": "3",
        "type": "t_struct(PoolInfo)13683_storage"
      },
      {
        "astId": 7953,
        "contract": "contracts/PerpdexMarket.sol:PerpdexMarket",
        "label": "fundingInfo",
        "offset": 0,
        "slot": "9",
        "type": "t_struct(FundingInfo)13670_storage"
      },
      {
        "astId": 7956,
        "contract": "contracts/PerpdexMarket.sol:PerpdexMarket",
        "label": "priceLimitInfo",
        "offset": 0,
        "slot": "12",
        "type": "t_struct(PriceLimitInfo)13690_storage"
      },
      {
        "astId": 7959,
        "contract": "contracts/PerpdexMarket.sol:PerpdexMarket",
        "label": "_orderBookInfo",
        "offset": 0,
        "slot": "15",
        "type": "t_struct(OrderBookInfo)13738_storage"
      },
      {
        "astId": 7962,
        "contract": "contracts/PerpdexMarket.sol:PerpdexMarket",
        "label": "poolFeeInfo",
        "offset": 0,
        "slot": "25",
        "type": "t_struct(PoolFeeInfo)13747_storage"
      },
      {
        "astId": 7965,
        "contract": "contracts/PerpdexMarket.sol:PerpdexMarket",
        "label": "fundingMaxPremiumRatio",
        "offset": 0,
        "slot": "29",
        "type": "t_uint24"
      },
      {
        "astId": 7968,
        "contract": "contracts/PerpdexMarket.sol:PerpdexMarket",
        "label": "fundingMaxElapsedSec",
        "offset": 3,
        "slot": "29",
        "type": "t_uint32"
      },
      {
        "astId": 7971,
        "contract": "contracts/PerpdexMarket.sol:PerpdexMarket",
        "label": "fundingRolloverSec",
        "offset": 7,
        "slot": "29",
        "type": "t_uint32"
      },
      {
        "astId": 7982,
        "contract": "contracts/PerpdexMarket.sol:PerpdexMarket",
        "label": "priceLimitConfig",
        "offset": 0,
        "slot": "30",
        "type": "t_struct(PriceLimitConfig)13701_storage"
      },
      {
        "astId": 7991,
        "contract": "contracts/PerpdexMarket.sol:PerpdexMarket",
        "label": "poolFeeConfig",
        "offset": 0,
        "slot": "31",
        "type": "t_struct(PoolFeeConfig)13754_storage"
      }
    ],
    "types": {
      "t_address": {
        "encoding": "inplace",
        "label": "address",
        "numberOfBytes": "20"
      },
      "t_bool": {
        "encoding": "inplace",
        "label": "bool",
        "numberOfBytes": "1"
      },
      "t_mapping(t_uint40,t_struct(Node)21176_storage)": {
        "encoding": "mapping",
        "key": "t_uint40",
        "label": "mapping(uint40 => struct BokkyPooBahsRedBlackTreeLibrary.Node)",
        "numberOfBytes": "32",
        "value": "t_struct(Node)21176_storage"
      },
      "t_mapping(t_uint40,t_struct(OrderInfo)13710_storage)": {
        "encoding": "mapping",
        "key": "t_uint40",
        "label": "mapping(uint40 => struct MarketStructs.OrderInfo)",
        "numberOfBytes": "32",
        "value": "t_struct(OrderInfo)13710_storage"
      },
      "t_mapping(t_uint48,t_struct(ExecutionInfo)13724_storage)": {
        "encoding": "mapping",
        "key": "t_uint48",
        "label": "mapping(uint48 => struct MarketStructs.ExecutionInfo)",
        "numberOfBytes": "32",
        "value": "t_struct(ExecutionInfo)13724_storage"
      },
      "t_string_storage": {
        "encoding": "bytes",
        "label": "string",
        "numberOfBytes": "32"
      },
      "t_struct(ExecutionInfo)13724_storage": {
        "encoding": "inplace",
        "label": "struct MarketStructs.ExecutionInfo",
        "members": [
          {
            "astId": 13723,
            "contract": "contracts/PerpdexMarket.sol:PerpdexMarket",
            "label": "baseBalancePerShareX96",
            "offset": 0,
            "slot": "0",
            "type": "t_uint256"
          }
        ],
        "numberOfBytes": "32"
      },
      "t_struct(FundingInfo)13670_storage": {
        "encoding": "inplace",
        "label": "struct MarketStructs.FundingInfo",
        "members": [
          {
            "astId": 13665,
            "contract": "contracts/PerpdexMarket.sol:PerpdexMarket",
            "label": "prevIndexPriceBase",
            "offset": 0,
            "slot": "0",
            "type": "t_uint256"
          },
          {
            "astId": 13667,
            "contract": "contracts/PerpdexMarket.sol:PerpdexMarket",
            "label": "prevIndexPriceQuote",
            "offset": 0,
            "slot": "1",
            "type": "t_uint256"
          },
          {
            "astId": 13669,
            "contract": "contracts/PerpdexMarket.sol:PerpdexMarket",
            "label": "prevIndexPriceTimestamp",
            "offset": 0,
            "slot": "2",
            "type": "t_uint256"
          }
        ],
        "numberOfBytes": "96"
      },
      "t_struct(Node)21176_storage": {
        "encoding": "inplace",
        "label": "struct BokkyPooBahsRedBlackTreeLibrary.Node",
        "members": [
          {
            "astId": 21167,
            "contract": "contracts/PerpdexMarket.sol:PerpdexMarket",
            "label": "parent",
            "offset": 0,
            "slot": "0",
            "type": "t_uint40"
          },
          {
            "astId": 21169,
            "contract": "contracts/PerpdexMarket.sol:PerpdexMarket",
            "label": "left",
            "offset": 5,
            "slot": "0",
            "type": "t_uint40"
          },
          {
            "astId": 21171,
            "contract": "contracts/PerpdexMarket.sol:PerpdexMarket",
            "label": "right",
            "offset": 10,
            "slot": "0",
            "type": "t_uint40"
          },
          {
            "astId": 21173,
            "contract": "contracts/PerpdexMarket.sol:PerpdexMarket",
            "label": "red",
            "offset": 15,
            "slot": "0",
            "type": "t_bool"
          },
          {
            "astId": 21175,
            "contract": "contracts/PerpdexMarket.sol:PerpdexMarket",
            "label": "userData",
            "offset": 16,
            "slot": "0",
            "type": "t_uint128"
          }
        ],
        "numberOfBytes": "32"
      },
      "t_struct(OrderBookInfo)13738_storage": {
        "encoding": "inplace",
        "label": "struct MarketStructs.OrderBookInfo",
        "members": [
          {
            "astId": 13727,
            "contract": "contracts/PerpdexMarket.sol:PerpdexMarket",
            "label": "ask",
            "offset": 0,
            "slot": "0",
            "type": "t_struct(OrderBookSideInfo)13721_storage"
          },
          {
            "astId": 13730,
            "contract": "contracts/PerpdexMarket.sol:PerpdexMarket",
            "label": "bid",
            "offset": 0,
            "slot": "4",
            "type": "t_struct(OrderBookSideInfo)13721_storage"
          },
          {
            "astId": 13732,
            "contract": "contracts/PerpdexMarket.sol:PerpdexMarket",
            "label": "seqExecutionId",
            "offset": 0,
            "slot": "8",
            "type": "t_uint48"
          },
          {
            "astId": 13737,
            "contract": "contracts/PerpdexMarket.sol:PerpdexMarket",
            "label": "executionInfos",
            "offset": 0,
            "slot": "9",
            "type": "t_mapping(t_uint48,t_struct(ExecutionInfo)13724_storage)"
          }
        ],
        "numberOfBytes": "320"
      },
      "t_struct(OrderBookSideInfo)13721_storage": {
        "encoding": "inplace",
        "label": "struct MarketStructs.OrderBookSideInfo",
        "members": [
          {
            "astId": 13713,
            "contract": "contracts/PerpdexMarket.sol:PerpdexMarket",
            "label": "tree",
            "offset": 0,
            "slot": "0",
            "type": "t_struct(Tree)21184_storage"
          },
          {
            "astId": 13718,
            "contract": "contracts/PerpdexMarket.sol:PerpdexMarket",
            "label": "orderInfos",
            "offset": 0,
            "slot": "2",
            "type": "t_mapping(t_uint40,t_struct(OrderInfo)13710_storage)"
          },
          {
            "astId": 13720,
            "contract": "contracts/PerpdexMarket.sol:PerpdexMarket",
            "label": "seqKey",
            "offset": 0,
            "slot": "3",
            "type": "t_uint40"
          }
        ],
        "numberOfBytes": "128"
      },
      "t_struct(OrderInfo)13710_storage": {
        "encoding": "inplace",
        "label": "struct MarketStructs.OrderInfo",
        "members": [
          {
            "astId": 13703,
            "contract": "contracts/PerpdexMarket.sol:PerpdexMarket",
            "label": "base",
            "offset": 0,
            "slot": "0",
            "type": "t_uint256"
          },
          {
            "astId": 13705,
            "contract": "contracts/PerpdexMarket.sol:PerpdexMarket",
            "label": "baseSum",
            "offset": 0,
            "slot": "1",
            "type": "t_uint256"
          },
          {
            "astId": 13707,
            "contract": "contracts/PerpdexMarket.sol:PerpdexMarket",
            "label": "quoteSum",
            "offset": 0,
            "slot": "2",
            "type": "t_uint256"
          },
          {
            "astId": 13709,
            "contract": "contracts/PerpdexMarket.sol:PerpdexMarket",
            "label": "executionId",
            "offset": 0,
            "slot": "3",
            "type": "t_uint48"
          }
        ],
        "numberOfBytes": "128"
      },
      "t_struct(PoolFeeConfig)13754_storage": {
        "encoding": "inplace",
        "label": "struct MarketStructs.PoolFeeConfig",
        "members": [
          {
            "astId": 13749,
            "contract": "contracts/PerpdexMarket.sol:PerpdexMarket",
            "label": "fixedFeeRatio",
            "offset": 0,
            "slot": "0",
            "type": "t_uint24"
          },
          {
            "astId": 13751,
            "contract": "contracts/PerpdexMarket.sol:PerpdexMarket",
            "label": "atrFeeRatio",
            "offset": 3,
            "slot": "0",
            "type": "t_uint24"
          },
          {
            "astId": 13753,
            "contract": "contracts/PerpdexMarket.sol:PerpdexMarket",
            "label": "atrEmaBlocks",
            "offset": 6,
            "slot": "0",
            "type": "t_uint32"
          }
        ],
        "numberOfBytes": "32"
      },
      "t_struct(PoolFeeInfo)13747_storage": {
        "encoding": "inplace",
        "label": "struct MarketStructs.PoolFeeInfo",
        "members": [
          {
            "astId": 13740,
            "contract": "contracts/PerpdexMarket.sol:PerpdexMarket",
            "label": "atrX96",
            "offset": 0,
            "slot": "0",
            "type": "t_uint256"
          },
          {
            "astId": 13742,
            "contract": "contracts/PerpdexMarket.sol:PerpdexMarket",
            "label": "referenceTimestamp",
            "offset": 0,
            "slot": "1",
            "type": "t_uint256"
          },
          {
            "astId": 13744,
            "contract": "contracts/PerpdexMarket.sol:PerpdexMarket",
            "label": "currentHighX96",
            "offset": 0,
            "slot": "2",
            "type": "t_uint256"
          },
          {
            "astId": 13746,
            "contract": "contracts/PerpdexMarket.sol:PerpdexMarket",
            "label": "currentLowX96",
            "offset": 0,
            "slot": "3",
            "type": "t_uint256"
          }
        ],
        "numberOfBytes": "128"
      },
      "t_struct(PoolInfo)13683_storage": {
        "encoding": "inplace",
        "label": "struct MarketStructs.PoolInfo",
        "members": [
          {
            "astId": 13672,
            "contract": "contracts/PerpdexMarket.sol:PerpdexMarket",
            "label": "base",
            "offset": 0,
            "slot": "0",
            "type": "t_uint256"
          },
          {
            "astId": 13674,
            "contract": "contracts/PerpdexMarket.sol:PerpdexMarket",
            "label": "quote",
            "offset": 0,
            "slot": "1",
            "type": "t_uint256"
          },
          {
            "astId": 13676,
            "contract": "contracts/PerpdexMarket.sol:PerpdexMarket",
            "label": "totalLiquidity",
            "offset": 0,
            "slot": "2",
            "type": "t_uint256"
          },
          {
            "astId": 13678,
            "contract": "contracts/PerpdexMarket.sol:PerpdexMarket",
            "label": "cumBasePerLiquidityX96",
            "offset": 0,
            "slot": "3",
            "type": "t_uint256"
          },
          {
            "astId": 13680,
            "contract": "contracts/PerpdexMarket.sol:PerpdexMarket",
            "label": "cumQuotePerLiquidityX96",
            "offset": 0,
            "slot": "4",
            "type": "t_uint256"
          },
          {
            "astId": 13682,
            "contract": "contracts/PerpdexMarket.sol:PerpdexMarket",
            "label": "baseBalancePerShareX96",
            "offset": 0,
            "slot": "5",
            "type": "t_uint256"
          }
        ],
        "numberOfBytes": "192"
      },
      "t_struct(PriceLimitConfig)13701_storage": {
        "encoding": "inplace",
        "label": "struct MarketStructs.PriceLimitConfig",
        "members": [
          {
            "astId": 13692,
            "contract": "contracts/PerpdexMarket.sol:PerpdexMarket",
            "label": "normalOrderRatio",
            "offset": 0,
            "slot": "0",
            "type": "t_uint24"
          },
          {
            "astId": 13694,
            "contract": "contracts/PerpdexMarket.sol:PerpdexMarket",
            "label": "liquidationRatio",
            "offset": 3,
            "slot": "0",
            "type": "t_uint24"
          },
          {
            "astId": 13696,
            "contract": "contracts/PerpdexMarket.sol:PerpdexMarket",
            "label": "emaNormalOrderRatio",
            "offset": 6,
            "slot": "0",
            "type": "t_uint24"
          },
          {
            "astId": 13698,
            "contract": "contracts/PerpdexMarket.sol:PerpdexMarket",
            "label": "emaLiquidationRatio",
            "offset": 9,
            "slot": "0",
            "type": "t_uint24"
          },
          {
            "astId": 13700,
            "contract": "contracts/PerpdexMarket.sol:PerpdexMarket",
            "label": "emaSec",
            "offset": 12,
            "slot": "0",
            "type": "t_uint32"
          }
        ],
        "numberOfBytes": "32"
      },
      "t_struct(PriceLimitInfo)13690_storage": {
        "encoding": "inplace",
        "label": "struct MarketStructs.PriceLimitInfo",
        "members": [
          {
            "astId": 13685,
            "contract": "contracts/PerpdexMarket.sol:PerpdexMarket",
            "label": "referencePrice",
            "offset": 0,
            "slot": "0",
            "type": "t_uint256"
          },
          {
            "astId": 13687,
            "contract": "contracts/PerpdexMarket.sol:PerpdexMarket",
            "label": "referenceTimestamp",
            "offset": 0,
            "slot": "1",
            "type": "t_uint256"
          },
          {
            "astId": 13689,
            "contract": "contracts/PerpdexMarket.sol:PerpdexMarket",
            "label": "emaPrice",
            "offset": 0,
            "slot": "2",
            "type": "t_uint256"
          }
        ],
        "numberOfBytes": "96"
      },
      "t_struct(Tree)21184_storage": {
        "encoding": "inplace",
        "label": "struct BokkyPooBahsRedBlackTreeLibrary.Tree",
        "members": [
          {
            "astId": 21178,
            "contract": "contracts/PerpdexMarket.sol:PerpdexMarket",
            "label": "root",
            "offset": 0,
            "slot": "0",
            "type": "t_uint40"
          },
          {
            "astId": 21183,
            "contract": "contracts/PerpdexMarket.sol:PerpdexMarket",
            "label": "nodes",
            "offset": 0,
            "slot": "1",
            "type": "t_mapping(t_uint40,t_struct(Node)21176_storage)"
          }
        ],
        "numberOfBytes": "64"
      },
      "t_uint128": {
        "encoding": "inplace",
        "label": "uint128",
        "numberOfBytes": "16"
      },
      "t_uint24": {
        "encoding": "inplace",
        "label": "uint24",
        "numberOfBytes": "3"
      },
      "t_uint256": {
        "encoding": "inplace",
        "label": "uint256",
        "numberOfBytes": "32"
      },
      "t_uint32": {
        "encoding": "inplace",
        "label": "uint32",
        "numberOfBytes": "4"
      },
      "t_uint40": {
        "encoding": "inplace",
        "label": "uint40",
        "numberOfBytes": "5"
      },
      "t_uint48": {
        "encoding": "inplace",
        "label": "uint48",
        "numberOfBytes": "6"
      }
    }
  }
}