{
  "address": "0xc93b56fa0B4c62E4b04d62d1A94Fb6F9A7518e99",
  "abi": [
    {
      "inputs": [
        {
          "internalType": "string",
          "name": "symbolArg",
          "type": "string"
        },
        {
          "internalType": "address",
          "name": "exchangeArg",
          "type": "address"
        },
        {
          "internalType": "address",
          "name": "priceFeedBaseArg",
          "type": "address"
        },
        {
          "internalType": "address",
          "name": "priceFeedQuoteArg",
          "type": "address"
        }
      ],
      "stateMutability": "nonpayable",
      "type": "constructor"
    },
    {
      "anonymous": false,
      "inputs": [
        {
          "indexed": false,
          "internalType": "uint32",
          "name": "value",
          "type": "uint32"
        }
      ],
      "name": "FundingMaxElapsedSecChanged",
      "type": "event"
    },
    {
      "anonymous": false,
      "inputs": [
        {
          "indexed": false,
          "internalType": "uint24",
          "name": "value",
          "type": "uint24"
        }
      ],
      "name": "FundingMaxPremiumRatioChanged",
      "type": "event"
    },
    {
      "anonymous": false,
      "inputs": [
        {
          "indexed": false,
          "internalType": "int256",
          "name": "fundingRateX96",
          "type": "int256"
        },
        {
          "indexed": false,
          "internalType": "uint32",
          "name": "elapsedSec",
          "type": "uint32"
        },
        {
          "indexed": false,
          "internalType": "int256",
          "name": "premiumX96",
          "type": "int256"
        },
        {
          "indexed": false,
          "internalType": "uint256",
          "name": "markPriceX96",
          "type": "uint256"
        },
        {
          "indexed": false,
          "internalType": "uint256",
          "name": "cumBasePerLiquidityX96",
          "type": "uint256"
        },
        {
          "indexed": false,
          "internalType": "uint256",
          "name": "cumQuotePerLiquidityX96",
          "type": "uint256"
        }
      ],
      "name": "FundingPaid",
      "type": "event"
    },
    {
      "anonymous": false,
      "inputs": [
        {
          "indexed": false,
          "internalType": "uint32",
          "name": "value",
          "type": "uint32"
        }
      ],
      "name": "FundingRolloverSecChanged",
      "type": "event"
    },
    {
      "anonymous": false,
      "inputs": [
        {
          "indexed": false,
          "internalType": "bool",
          "name": "isBid",
          "type": "bool"
        },
        {
          "indexed": false,
          "internalType": "uint256",
          "name": "orderId",
          "type": "uint256"
        }
      ],
      "name": "LimitOrderCanceled",
      "type": "event"
    },
    {
      "anonymous": false,
      "inputs": [
        {
          "indexed": false,
          "internalType": "bool",
          "name": "isBid",
          "type": "bool"
        },
        {
          "indexed": false,
          "internalType": "uint256",
          "name": "base",
          "type": "uint256"
        },
        {
          "indexed": false,
          "internalType": "uint256",
          "name": "priceX96",
          "type": "uint256"
        },
        {
          "indexed": false,
          "internalType": "uint256",
          "name": "orderId",
          "type": "uint256"
        }
      ],
      "name": "LimitOrderCreated",
      "type": "event"
    },
    {
      "anonymous": false,
      "inputs": [
        {
          "indexed": false,
          "internalType": "uint256",
          "name": "base",
          "type": "uint256"
        },
        {
          "indexed": false,
          "internalType": "uint256",
          "name": "quote",
          "type": "uint256"
        },
        {
          "indexed": false,
          "internalType": "uint256",
          "name": "liquidity",
          "type": "uint256"
        }
      ],
      "name": "LiquidityAdded",
      "type": "event"
    },
    {
      "anonymous": false,
      "inputs": [
        {
          "indexed": false,
          "internalType": "uint256",
          "name": "base",
          "type": "uint256"
        },
        {
          "indexed": false,
          "internalType": "uint256",
          "name": "quote",
          "type": "uint256"
        },
        {
          "indexed": false,
          "internalType": "uint256",
          "name": "liquidity",
          "type": "uint256"
        }
      ],
      "name": "LiquidityRemoved",
      "type": "event"
    },
    {
      "anonymous": false,
      "inputs": [
        {
          "indexed": true,
          "internalType": "address",
          "name": "previousOwner",
          "type": "address"
        },
        {
          "indexed": true,
          "internalType": "address",
          "name": "newOwner",
          "type": "address"
        }
      ],
      "name": "OwnershipTransferred",
      "type": "event"
    },
    {
      "anonymous": false,
      "inputs": [
        {
          "indexed": false,
          "internalType": "uint24",
          "name": "fixedFeeRatio",
          "type": "uint24"
        },
        {
          "indexed": false,
          "internalType": "uint24",
          "name": "atrFeeRatio",
          "type": "uint24"
        },
        {
          "indexed": false,
          "internalType": "uint32",
          "name": "atrEmaBlocks",
          "type": "uint32"
        }
      ],
      "name": "PoolFeeConfigChanged",
      "type": "event"
    },
    {
      "anonymous": false,
      "inputs": [
        {
          "indexed": false,
          "internalType": "uint24",
          "name": "normalOrderRatio",
          "type": "uint24"
        },
        {
          "indexed": false,
          "internalType": "uint24",
          "name": "liquidationRatio",
          "type": "uint24"
        },
        {
          "indexed": false,
          "internalType": "uint24",
          "name": "emaNormalOrderRatio",
          "type": "uint24"
        },
        {
          "indexed": false,
          "internalType": "uint24",
          "name": "emaLiquidationRatio",
          "type": "uint24"
        },
        {
          "indexed": false,
          "internalType": "uint32",
          "name": "emaSec",
          "type": "uint32"
        }
      ],
      "name": "PriceLimitConfigChanged",
      "type": "event"
    },
    {
      "anonymous": false,
      "inputs": [
        {
          "indexed": false,
          "internalType": "bool",
          "name": "isBaseToQuote",
          "type": "bool"
        },
        {
          "indexed": false,
          "internalType": "bool",
          "name": "isExactInput",
          "type": "bool"
        },
        {
          "indexed": false,
          "internalType": "uint256",
          "name": "amount",
          "type": "uint256"
        },
        {
          "indexed": false,
          "internalType": "uint256",
          "name": "oppositeAmount",
          "type": "uint256"
        },
        {
          "indexed": false,
          "internalType": "uint40",
          "name": "fullLastOrderId",
          "type": "uint40"
        },
        {
          "indexed": false,
          "internalType": "uint40",
          "name": "partialOrderId",
          "type": "uint40"
        },
        {
          "indexed": false,
          "internalType": "uint256",
          "name": "basePartial",
          "type": "uint256"
        },
        {
          "indexed": false,
          "internalType": "uint256",
          "name": "quotePartial",
          "type": "uint256"
        }
      ],
      "name": "Swapped",
      "type": "event"
    },
    {
      "inputs": [
        {
          "internalType": "uint256",
          "name": "baseShare",
          "type": "uint256"
        },
        {
          "internalType": "uint256",
          "name": "quoteBalance",
          "type": "uint256"
        }
      ],
      "name": "addLiquidity",
      "outputs": [
        {
          "internalType": "uint256",
          "name": "base",
          "type": "uint256"
        },
        {
          "internalType": "uint256",
          "name": "quote",
          "type": "uint256"
        },
        {
          "internalType": "uint256",
          "name": "liquidity",
          "type": "uint256"
        }
      ],
      "stateMutability": "nonpayable",
      "type": "function"
    },
    {
      "inputs": [],
      "name": "baseBalancePerShareX96",
      "outputs": [
        {
          "internalType": "uint256",
          "name": "",
          "type": "uint256"
        }
      ],
      "stateMutability": "view",
      "type": "function"
    },
    {
      "inputs": [
        {
          "internalType": "bool",
          "name": "isBid",
          "type": "bool"
        },
        {
          "internalType": "uint40",
          "name": "orderId",
          "type": "uint40"
        }
      ],
      "name": "cancelLimitOrder",
      "outputs": [],
      "stateMutability": "nonpayable",
      "type": "function"
    },
    {
      "inputs": [
        {
          "internalType": "bool",
          "name": "isBid",
          "type": "bool"
        },
        {
          "internalType": "uint256",
          "name": "base",
          "type": "uint256"
        },
        {
          "internalType": "uint256",
          "name": "priceX96",
          "type": "uint256"
        }
      ],
      "name": "createLimitOrder",
      "outputs": [
        {
          "internalType": "uint40",
          "name": "orderId",
          "type": "uint40"
        }
      ],
      "stateMutability": "nonpayable",
      "type": "function"
    },
    {
      "inputs": [],
      "name": "exchange",
      "outputs": [
        {
          "internalType": "address",
          "name": "",
          "type": "address"
        }
      ],
      "stateMutability": "view",
      "type": "function"
    },
    {
      "inputs": [],
      "name": "feeRatio",
      "outputs": [
        {
          "internalType": "uint24",
          "name": "",
          "type": "uint24"
        }
      ],
      "stateMutability": "view",
      "type": "function"
    },
    {
      "inputs": [],
      "name": "fundingInfo",
      "outputs": [
        {
          "internalType": "uint256",
          "name": "prevIndexPriceBase",
          "type": "uint256"
        },
        {
          "internalType": "uint256",
          "name": "prevIndexPriceQuote",
          "type": "uint256"
        },
        {
          "internalType": "uint256",
          "name": "prevIndexPriceTimestamp",
          "type": "uint256"
        }
      ],
      "stateMutability": "view",
      "type": "function"
    },
    {
      "inputs": [],
      "name": "fundingMaxElapsedSec",
      "outputs": [
        {
          "internalType": "uint32",
          "name": "",
          "type": "uint32"
        }
      ],
      "stateMutability": "view",
      "type": "function"
    },
    {
      "inputs": [],
      "name": "fundingMaxPremiumRatio",
      "outputs": [
        {
          "internalType": "uint24",
          "name": "",
          "type": "uint24"
        }
      ],
      "stateMutability": "view",
      "type": "function"
    },
    {
      "inputs": [],
      "name": "fundingRolloverSec",
      "outputs": [
        {
          "internalType": "uint32",
          "name": "",
          "type": "uint32"
        }
      ],
      "stateMutability": "view",
      "type": "function"
    },
    {
      "inputs": [],
      "name": "getAskPriceX96",
      "outputs": [
        {
          "internalType": "uint256",
          "name": "result",
          "type": "uint256"
        }
      ],
      "stateMutability": "view",
      "type": "function"
    },
    {
      "inputs": [],
      "name": "getBidPriceX96",
      "outputs": [
        {
          "internalType": "uint256",
          "name": "result",
          "type": "uint256"
        }
      ],
      "stateMutability": "view",
      "type": "function"
    },
    {
      "inputs": [],
      "name": "getCumDeleveragedPerLiquidityX96",
      "outputs": [
        {
          "internalType": "uint256",
          "name": "",
          "type": "uint256"
        },
        {
          "internalType": "uint256",
          "name": "",
          "type": "uint256"
        }
      ],
      "stateMutability": "view",
      "type": "function"
    },
    {
      "inputs": [
        {
          "internalType": "bool",
          "name": "isBid",
          "type": "bool"
        },
        {
          "internalType": "uint40",
          "name": "orderId",
          "type": "uint40"
        }
      ],
      "name": "getLimitOrderExecution",
      "outputs": [
        {
          "internalType": "uint256",
          "name": "executionId",
          "type": "uint256"
        },
        {
          "internalType": "uint256",
          "name": "executedBase",
          "type": "uint256"
        },
        {
          "internalType": "uint256",
          "name": "executedQuote",
          "type": "uint256"
        }
      ],
      "stateMutability": "view",
      "type": "function"
    },
    {
      "inputs": [
        {
          "internalType": "bool",
          "name": "isBid",
          "type": "bool"
        },
        {
          "internalType": "uint40",
          "name": "orderId",
          "type": "uint40"
        }
      ],
      "name": "getLimitOrderInfo",
      "outputs": [
        {
          "internalType": "uint256",
          "name": "base",
          "type": "uint256"
        },
        {
          "internalType": "uint256",
          "name": "priceX96",
          "type": "uint256"
        }
      ],
      "stateMutability": "view",
      "type": "function"
    },
    {
      "inputs": [
        {
          "internalType": "uint256",
          "name": "liquidity",
          "type": "uint256"
        },
        {
          "internalType": "uint256",
          "name": "cumBasePerLiquidityX96",
          "type": "uint256"
        },
        {
          "internalType": "uint256",
          "name": "cumQuotePerLiquidityX96",
          "type": "uint256"
        }
      ],
      "name": "getLiquidityDeleveraged",
      "outputs": [
        {
          "internalType": "int256",
          "name": "",
          "type": "int256"
        },
        {
          "internalType": "int256",
          "name": "",
          "type": "int256"
        }
      ],
      "stateMutability": "view",
      "type": "function"
    },
    {
      "inputs": [
        {
          "internalType": "uint256",
          "name": "liquidity",
          "type": "uint256"
        }
      ],
      "name": "getLiquidityValue",
      "outputs": [
        {
          "internalType": "uint256",
          "name": "",
          "type": "uint256"
        },
        {
          "internalType": "uint256",
          "name": "",
          "type": "uint256"
        }
      ],
      "stateMutability": "view",
      "type": "function"
    },
    {
      "inputs": [],
      "name": "getMarkPriceX96",
      "outputs": [
        {
          "internalType": "uint256",
          "name": "",
          "type": "uint256"
        }
      ],
      "stateMutability": "view",
      "type": "function"
    },
    {
      "inputs": [],
      "name": "getShareMarkPriceX96",
      "outputs": [
        {
          "internalType": "uint256",
          "name": "",
          "type": "uint256"
        }
      ],
      "stateMutability": "view",
      "type": "function"
    },
    {
      "inputs": [
        {
          "internalType": "bool",
          "name": "isBaseToQuote",
          "type": "bool"
        },
        {
          "internalType": "bool",
          "name": "isExactInput",
          "type": "bool"
        },
        {
          "internalType": "bool",
          "name": "isLiquidation",
          "type": "bool"
        }
      ],
      "name": "maxSwap",
      "outputs": [
        {
          "internalType": "uint256",
          "name": "amount",
          "type": "uint256"
        }
      ],
      "stateMutability": "view",
      "type": "function"
    },
    {
      "inputs": [
        {
          "internalType": "bool",
          "name": "isBaseToQuote",
          "type": "bool"
        },
        {
          "internalType": "bool",
          "name": "isExactInput",
          "type": "bool"
        },
        {
          "internalType": "uint256",
          "name": "sharePriceX96",
          "type": "uint256"
        }
      ],
      "name": "maxSwapByPrice",
      "outputs": [
        {
          "internalType": "uint256",
          "name": "amount",
          "type": "uint256"
        }
      ],
      "stateMutability": "view",
      "type": "function"
    },
    {
      "inputs": [
        {
          "internalType": "bytes[]",
          "name": "data",
          "type": "bytes[]"
        }
      ],
      "name": "multicall",
      "outputs": [
        {
          "internalType": "bytes[]",
          "name": "results",
          "type": "bytes[]"
        }
      ],
      "stateMutability": "nonpayable",
      "type": "function"
    },
    {
      "inputs": [],
      "name": "owner",
      "outputs": [
        {
          "internalType": "address",
          "name": "",
          "type": "address"
        }
      ],
      "stateMutability": "view",
      "type": "function"
    },
    {
      "inputs": [],
      "name": "poolFeeConfig",
      "outputs": [
        {
          "internalType": "uint24",
          "name": "fixedFeeRatio",
          "type": "uint24"
        },
        {
          "internalType": "uint24",
          "name": "atrFeeRatio",
          "type": "uint24"
        },
        {
          "internalType": "uint32",
          "name": "atrEmaBlocks",
          "type": "uint32"
        }
      ],
      "stateMutability": "view",
      "type": "function"
    },
    {
      "inputs": [],
      "name": "poolFeeInfo",
      "outputs": [
        {
          "internalType": "uint256",
          "name": "atrX96",
          "type": "uint256"
        },
        {
          "internalType": "uint256",
          "name": "referenceTimestamp",
          "type": "uint256"
        },
        {
          "internalType": "uint256",
          "name": "currentHighX96",
          "type": "uint256"
        },
        {
          "internalType": "uint256",
          "name": "currentLowX96",
          "type": "uint256"
        }
      ],
      "stateMutability": "view",
      "type": "function"
    },
    {
      "inputs": [],
      "name": "poolInfo",
      "outputs": [
        {
          "internalType": "uint256",
          "name": "base",
          "type": "uint256"
        },
        {
          "internalType": "uint256",
          "name": "quote",
          "type": "uint256"
        },
        {
          "internalType": "uint256",
          "name": "totalLiquidity",
          "type": "uint256"
        },
        {
          "internalType": "uint256",
          "name": "cumBasePerLiquidityX96",
          "type": "uint256"
        },
        {
          "internalType": "uint256",
          "name": "cumQuotePerLiquidityX96",
          "type": "uint256"
        },
        {
          "internalType": "uint256",
          "name": "baseBalancePerShareX96",
          "type": "uint256"
        }
      ],
      "stateMutability": "view",
      "type": "function"
    },
    {
      "inputs": [
        {
          "internalType": "bool",
          "name": "isBaseToQuote",
          "type": "bool"
        },
        {
          "internalType": "bool",
          "name": "isExactInput",
          "type": "bool"
        },
        {
          "internalType": "uint256",
          "name": "amount",
          "type": "uint256"
        },
        {
          "internalType": "bool",
          "name": "isLiquidation",
          "type": "bool"
        }
      ],
      "name": "previewSwap",
      "outputs": [
        {
          "internalType": "uint256",
          "name": "oppositeAmount",
          "type": "uint256"
        }
      ],
      "stateMutability": "view",
      "type": "function"
    },
    {
      "inputs": [],
      "name": "priceFeedBase",
      "outputs": [
        {
          "internalType": "address",
          "name": "",
          "type": "address"
        }
      ],
      "stateMutability": "view",
      "type": "function"
    },
    {
      "inputs": [],
      "name": "priceFeedQuote",
      "outputs": [
        {
          "internalType": "address",
          "name": "",
          "type": "address"
        }
      ],
      "stateMutability": "view",
      "type": "function"
    },
    {
      "inputs": [],
      "name": "priceLimitConfig",
      "outputs": [
        {
          "internalType": "uint24",
          "name": "normalOrderRatio",
          "type": "uint24"
        },
        {
          "internalType": "uint24",
          "name": "liquidationRatio",
          "type": "uint24"
        },
        {
          "internalType": "uint24",
          "name": "emaNormalOrderRatio",
          "type": "uint24"
        },
        {
          "internalType": "uint24",
          "name": "emaLiquidationRatio",
          "type": "uint24"
        },
        {
          "internalType": "uint32",
          "name": "emaSec",
          "type": "uint32"
        }
      ],
      "stateMutability": "view",
      "type": "function"
    },
    {
      "inputs": [],
      "name": "priceLimitInfo",
      "outputs": [
        {
          "internalType": "uint256",
          "name": "referencePrice",
          "type": "uint256"
        },
        {
          "internalType": "uint256",
          "name": "referenceTimestamp",
          "type": "uint256"
        },
        {
          "internalType": "uint256",
          "name": "emaPrice",
          "type": "uint256"
        }
      ],
      "stateMutability": "view",
      "type": "function"
    },
    {
      "inputs": [
        {
          "internalType": "uint256",
          "name": "liquidity",
          "type": "uint256"
        }
      ],
      "name": "removeLiquidity",
      "outputs": [
        {
          "internalType": "uint256",
          "name": "base",
          "type": "uint256"
        },
        {
          "internalType": "uint256",
          "name": "quote",
          "type": "uint256"
        }
      ],
      "stateMutability": "nonpayable",
      "type": "function"
    },
    {
      "inputs": [],
      "name": "renounceOwnership",
      "outputs": [],
      "stateMutability": "nonpayable",
      "type": "function"
    },
    {
      "inputs": [
        {
          "internalType": "uint32",
          "name": "value",
          "type": "uint32"
        }
      ],
      "name": "setFundingMaxElapsedSec",
      "outputs": [],
      "stateMutability": "nonpayable",
      "type": "function"
    },
    {
      "inputs": [
        {
          "internalType": "uint24",
          "name": "value",
          "type": "uint24"
        }
      ],
      "name": "setFundingMaxPremiumRatio",
      "outputs": [],
      "stateMutability": "nonpayable",
      "type": "function"
    },
    {
      "inputs": [
        {
          "internalType": "uint32",
          "name": "value",
          "type": "uint32"
        }
      ],
      "name": "setFundingRolloverSec",
      "outputs": [],
      "stateMutability": "nonpayable",
      "type": "function"
    },
    {
      "inputs": [
        {
          "components": [
            {
              "internalType": "uint24",
              "name": "fixedFeeRatio",
              "type": "uint24"
            },
            {
              "internalType": "uint24",
              "name": "atrFeeRatio",
              "type": "uint24"
            },
            {
              "internalType": "uint32",
              "name": "atrEmaBlocks",
              "type": "uint32"
            }
          ],
          "internalType": "struct MarketStructs.PoolFeeConfig",
          "name": "value",
          "type": "tuple"
        }
      ],
      "name": "setPoolFeeConfig",
      "outputs": [],
      "stateMutability": "nonpayable",
      "type": "function"
    },
    {
      "inputs": [
        {
          "components": [
            {
              "internalType": "uint24",
              "name": "normalOrderRatio",
              "type": "uint24"
            },
            {
              "internalType": "uint24",
              "name": "liquidationRatio",
              "type": "uint24"
            },
            {
              "internalType": "uint24",
              "name": "emaNormalOrderRatio",
              "type": "uint24"
            },
            {
              "internalType": "uint24",
              "name": "emaLiquidationRatio",
              "type": "uint24"
            },
            {
              "internalType": "uint32",
              "name": "emaSec",
              "type": "uint32"
            }
          ],
          "internalType": "struct MarketStructs.PriceLimitConfig",
          "name": "value",
          "type": "tuple"
        }
      ],
      "name": "setPriceLimitConfig",
      "outputs": [],
      "stateMutability": "nonpayable",
      "type": "function"
    },
    {
      "inputs": [
        {
          "internalType": "bool",
          "name": "isBaseToQuote",
          "type": "bool"
        },
        {
          "internalType": "bool",
          "name": "isExactInput",
          "type": "bool"
        },
        {
          "internalType": "uint256",
          "name": "amount",
          "type": "uint256"
        },
        {
          "internalType": "bool",
          "name": "isLiquidation",
          "type": "bool"
        }
      ],
      "name": "swap",
      "outputs": [
        {
          "components": [
            {
              "internalType": "uint256",
              "name": "oppositeAmount",
              "type": "uint256"
            },
            {
              "internalType": "uint256",
              "name": "basePartial",
              "type": "uint256"
            },
            {
              "internalType": "uint256",
              "name": "quotePartial",
              "type": "uint256"
            },
            {
              "internalType": "uint40",
              "name": "partialOrderId",
              "type": "uint40"
            }
          ],
          "internalType": "struct IPerpdexMarketMinimum.SwapResponse",
          "name": "response",
          "type": "tuple"
        }
      ],
      "stateMutability": "nonpayable",
      "type": "function"
    },
    {
      "inputs": [],
      "name": "symbol",
      "outputs": [
        {
          "internalType": "string",
          "name": "",
          "type": "string"
        }
      ],
      "stateMutability": "view",
      "type": "function"
    },
    {
      "inputs": [
        {
          "internalType": "address",
          "name": "newOwner",
          "type": "address"
        }
      ],
      "name": "transferOwnership",
      "outputs": [],
      "stateMutability": "nonpayable",
      "type": "function"
    }
  ],
  "transactionHash": "0x43809c473cb1662b10f339795ede39c71feb6d22cd1a6541834196c3874c0551",
  "args": [
    "USD",
    "0x6bD9e001970838eA992C579BB4b65E3a2AA8a31A",
    "0x0000000000000000000000000000000000000000",
    "0xf485d7478cCeA7ff7FDbE78957E73216CADBaC60"
  ],
  "numDeployments": 2,
  "solcInputHash": "61b0f5571c4803a51ab476ac1676a8de",
  "bytecode": "0x601d80546001600160581b031916690151800001518000271017905561c35060e052620186a06101005262030d40610120526203d0906101405261012c61016052601e80546001600160801b0319166d012c03d090030d400186a000c3501790556101e0604052600061018052623d09006101a05260106101c052601f80546001600160501b03191666103d0900000000179055348015620000a057600080fd5b506040516200646b3803806200646b833981016040819052620000c391620002e9565b6001600055620000d33362000236565b6001600160a01b038216158062000104575062000104826001600160a01b03166200028860201b62001b381760201c565b620001565760405162461bcd60e51b815260206004820152601d60248201527f504d5f433a2062617365207072696365206665656420696e76616c696400000060448201526064015b60405180910390fd5b6001600160a01b038116158062000187575062000187816001600160a01b03166200028860201b62001b381760201c565b620001d55760405162461bcd60e51b815260206004820152601e60248201527f504d5f433a2071756f7465207072696365206665656420696e76616c6964000060448201526064016200014d565b6002620001e3858262000485565b506001600160a01b0383811660805282811660a052811660c05262000215600962000297602090811b62001b4717901c565b6200022c6003620002a060201b62001b501760201c565b5050505062000551565b600180546001600160a01b038381166001600160a01b0319831681179093556040519116919082907f8be0079c531659141344cd1fd0a4f28419497f9722a3daafe3b4186f6b6457e090600090a35050565b6001600160a01b03163b151590565b42600290910155565b6c01000000000000000000000000600590910155565b634e487b7160e01b600052604160045260246000fd5b80516001600160a01b0381168114620002e457600080fd5b919050565b600080600080608085870312156200030057600080fd5b84516001600160401b03808211156200031857600080fd5b818701915087601f8301126200032d57600080fd5b815181811115620003425762000342620002b6565b604051601f8201601f19908116603f011681019083821181831017156200036d576200036d620002b6565b81604052828152602093508a848487010111156200038a57600080fd5b600091505b82821015620003ae57848201840151818301850152908301906200038f565b6000848483010152809850505050620003c9818801620002cc565b94505050620003db60408601620002cc565b9150620003eb60608601620002cc565b905092959194509250565b600181811c908216806200040b57607f821691505b6020821081036200042c57634e487b7160e01b600052602260045260246000fd5b50919050565b601f8211156200048057600081815260208120601f850160051c810160208610156200045b5750805b601f850160051c820191505b818110156200047c5782815560010162000467565b5050505b505050565b81516001600160401b03811115620004a157620004a1620002b6565b620004b981620004b28454620003f6565b8462000432565b602080601f831160018114620004f15760008415620004d85750858301515b600019600386901b1c1916600185901b1785556200047c565b600085815260208120601f198616915b82811015620005225788860151825594840194600190910190840162000501565b5085821015620005415787850151600019600388901b60f8161c191681555b5050505050600190811b01905550565b60805160a05160c051615ec7620005a4600039600081816102830152818161149401526128cc0152600081816105460152818161147301526128a701526000818161068501526122b70152615ec76000f3fe608060405234801561001057600080fd5b50600436106102535760003560e01c806380796d55116101465780639d67bf03116100c3578063dba4915311610087578063dba49153146106a7578063e7a49931146106b9578063e801c4d8146106cc578063e8fa204f146106d4578063f2289752146106e7578063f2fde38b146106f257600080fd5b80639d67bf0314610604578063a4edcfc114610617578063ac9650d81461064d578063c9ca629b1461066d578063d2f7265a1461068057600080fd5b8063933c79791161010a578063933c7979146105ae5780639482de1a146105c157806395d89b41146105c95780639c8f9f23146105de5780639cd441da146105f157600080fd5b806380796d55146104f4578063823f2b041461054157806385aaa397146105685780638da5cb5b146105955780638ee8fe5d146105a657600080fd5b806356f55170116101d45780637452fadd116101985780637452fadd1461049c57806374f25689146104a45780637640482f146104b75780637661ce13146104ca578063796c20b7146104e157600080fd5b806356f55170146103be5780635a2f3d09146103e75780636346f32e1461043257806366a61ffb14610481578063715018a61461049457600080fd5b8063220e89ce1161021b578063220e89ce1461035057806323c8346a146103585780632724ebb01461036b5780633aa3e6501461039357806341744dd4146103b657600080fd5b806306f429b8146102585780630e06e4d01461027e578063125b9d27146102bd578063186f181e146102d25780631b520a02146102fe575b600080fd5b61026b6102663660046154d4565b610705565b6040519081526020015b60405180910390f35b6102a57f000000000000000000000000000000000000000000000000000000000000000081565b6040516001600160a01b039091168152602001610275565b6102d06102cb366004615521565b61084c565b005b601d546102e990600160381b900463ffffffff1681565b60405163ffffffff9091168152602001610275565b601f546103289062ffffff808216916301000000810490911690600160301b900463ffffffff1683565b6040805162ffffff948516815293909216602084015263ffffffff1690820152606001610275565b61026b6109d7565b6102d0610366366004615546565b610a88565b61037e610379366004615546565b610b7a565b60408051928352602083019190915201610275565b601d546103a29062ffffff1681565b60405162ffffff9091168152602001610275565b6103a2610c13565b6103d16103cc36600461557d565b610c89565b60405164ffffffffff9091168152602001610275565b60035460045460055460065460075460085461040595949392919086565b604080519687526020870195909552938501929092526060840152608083015260a082015260c001610275565b601e546104709062ffffff8082169163010000008104821691600160301b8204811691600160481b810490911690600160601b900463ffffffff1685565b6040516102759594939291906155b0565b61026b61048f3660046155e4565b610e4c565b6102d0610e64565b61026b610e78565b6102d06104b2366004615631565b610e9e565b61037e6104c536600461564e565b610f61565b601d546102e9906301000000900463ffffffff1681565b6102d06104ef366004615679565b610f78565b6105076105023660046154d4565b611096565b604051610275919081518152602080830151908201526040808301519082015260609182015164ffffffffff169181019190915260800190565b6102a57f000000000000000000000000000000000000000000000000000000000000000081565b600c54600d54600e5461057a92919083565b60408051938452602084019290925290820152606001610275565b6001546001600160a01b03166102a5565b61026b6112bb565b61037e6105bc366004615696565b6112dd565b60085461026b565b6105d1611303565b6040516102759190615712565b61037e6105ec36600461564e565b611391565b61057a6105ff366004615725565b61142f565b6102d0610612366004615679565b611531565b601954601a54601b54601c5461062d9392919084565b604080519485526020850193909352918301526060820152608001610275565b61066061065b366004615747565b611603565b60405161027591906157bc565b61057a61067b366004615546565b6116f9565b6102a57f000000000000000000000000000000000000000000000000000000000000000081565b600954600a54600b5461057a92919083565b6102d06106c736600461581e565b6117a1565b61026b611a03565b61026b6106e2366004615830565b611ab0565b60065460075461037e565b6102d0610700366004615873565b611abf565b6000806107158686856000611b5d565b509050808411156107675760405162461bcd60e51b8152602060048201526017602482015276141357d414ce881d1bdbc81b185c99d948185b5bdd5b9d604a1b60448201526064015b60405180910390fd5b60006107a88761077857600f61077b565b60135b604080516080810182528a1515815289151560208201529081018890526008546060820152611caf611cd6565b600354600454604080516080810182528b151581528a151560208201529394506107eb939081016107d7610c13565b62ffffff1681528551602090910152612171565b925086151586151514801590610820578160600151826020015161080f91906158b2565b61081990856158b2565b9350610841565b8160800151826040015161083491906158b2565b61083e90856158b2565b93505b505050949350505050565b610854612237565b6002600054036108765760405162461bcd60e51b815260040161075e906158c5565b600260005561c35061088b6020830183615631565b62ffffff1611156108de5760405162461bcd60e51b815260206004820152601c60248201527f504d5f535046433a2066697865642066656520746f6f206c6172676500000000604482015260640161075e565b6127106108f16060830160408401615679565b63ffffffff1611156109455760405162461bcd60e51b815260206004820152601f60248201527f504d5f535046433a2061747220656d6120626c6f636b7320746f6f2062696700604482015260640161075e565b80601f61095282826158fc565b507f269f7c0d124741a5574762c75c64c04ad89fa3e91ec86aa3be1b9b6d6d08668790506109836020830183615631565b6109936040840160208501615631565b6109a36060850160408601615679565b6040805162ffffff948516815293909216602084015263ffffffff16908201526060015b60405180910390a1506001600055565b60006109f16109e4610e78565b6109ec610c13565b612291565b604051632e45552560e21b8152600f600482015290915060009073C91bD33af94343d14e313602345d901819F3959d9063b915549490602401602060405180830381865af4158015610a47573d6000803e3d6000fd5b505050506040513d601f19601f82011682018060405250810190610a6b9190615978565b90508015801590610a7b57508181105b15610a84578091505b5090565b610a906122b5565b600260005403610ab25760405162461bcd60e51b815260040161075e906158c5565b6002600055604051632ec0b78b60e11b8152600f6004820152821515602482015264ffffffffff8216604482015273C91bD33af94343d14e313602345d901819F3959d90635d816f169060640160006040518083038186803b158015610b1757600080fd5b505af4158015610b2b573d6000803e3d6000fd5b505060408051851515815264ffffffffff851660208201527ff61aa5333bf001aa89f4bfa6ccaf123eec86eada7fd1c6c366227102507f89cd935001905060405180910390a150506001600055565b6040516302ea3f0960e01b8152600f6004820152821515602482015264ffffffffff82166044820152600090819073C91bD33af94343d14e313602345d901819F3959d906302ea3f09906064016040805180830381865af4158015610be3573d6000803e3d6000fd5b505050506040513d601f19601f82011682018060405250810190610c079190615991565b915091505b9250929050565b601e54600090610c8490610c7f90610c329060029062ffffff166159cb565b60408051606081018252601f5462ffffff80821683526301000000820481166020840152600160301b90910463ffffffff1692820192909252911690610c7a9060199061232d565b61236b565b612381565b905090565b6000610c936122b5565b600260005403610cb55760405162461bcd60e51b815260040161075e906158c5565b60026000558315610d1457610cc86109d7565b821115610d0f5760405162461bcd60e51b8152602060048201526015602482015274141357d0d313ce881c1bdcdd081bdb9b1e48189a59605a1b604482015260640161075e565b610d63565b610d1c611a03565b821015610d635760405162461bcd60e51b8152602060048201526015602482015274504d5f434c4f3a20706f7374206f6e6c792061736b60581b604482015260640161075e565b6040516383818a6f60e01b8152600f60048201528415156024820152604481018490526064810183905273C91bD33af94343d14e313602345d901819F3959d906383818a6f90608401602060405180830381865af4158015610dc9573d6000803e3d6000fd5b505050506040513d601f19601f82011682018060405250810190610ded91906159ed565b6040805186151581526020810186905290810184905264ffffffffff821660608201529091507f7f6ce27b6803b5b961a441dac0f55de214751acfb64178849efb01fdb71c620b9060800160405180910390a160016000559392505050565b6000610e5b8484600085611b5d565b50949350505050565b610e6c612237565b610e7660006123e5565b565b6003546000908103610e8a5750600090565b600354600454600854610c84929190612437565b610ea6612237565b600260005403610ec85760405162461bcd60e51b815260040161075e906158c5565b6002600055620186a062ffffff82161115610f1b5760405162461bcd60e51b8152602060048201526013602482015272504d5f53464d50523a20746f6f206c6172676560681b604482015260640161075e565b601d805462ffffff191662ffffff83169081179091556040519081527f55647f4dd43ac173f04e53a506df46454012316d82fb04a9c1dbd8e0f21f8f76906020016109c7565b600080610f6f600384612451565b91509150915091565b610f80612237565b600260005403610fa25760405162461bcd60e51b815260040161075e906158c5565b600260005562093a8063ffffffff82161115610ff55760405162461bcd60e51b8152602060048201526012602482015271504d5f534652533a20746f6f206c6172676560701b604482015260640161075e565b610e108163ffffffff1610156110425760405162461bcd60e51b8152602060048201526012602482015271141357d4d19494ce881d1bdbc81cdb585b1b60721b604482015260640161075e565b601d805463ffffffff60381b1916600160381b63ffffffff8416908102919091179091556040519081527fa703b265f29064a106acd6473c258e009bff9ac0bfd63b6f5ca4b712a25c8516906020016109c7565b6110c86040518060800160405280600081526020016000815260200160008152602001600064ffffffffff1681525090565b6110d06122b5565b6002600054036110f25760405162461bcd60e51b815260040161075e906158c5565b600260009081558061110687878684611b5d565b91509150818511156111535760405162461bcd60e51b8152602060048201526016602482015275141357d4ce881d1bdbc81b185c99d948185b5bdd5b9d60521b604482015260640161075e565b600061115d6112bb565b9050600061119b600f60405180608001604052808c151581526020018b151581526020018a8152602001600360050154815250611caf61247a6124b6565b90506040518060800160405280826000015181526020018260200151815260200182604001518152602001826060015164ffffffffff1681525094506112006019601f60000160069054906101000a900463ffffffff16846111fb6112bb565b6127ed565b61120b600c8461285f565b7f4af368bb319fb6132e4a959e88a5bd0ebed952b65925f8503bb497d99de64b20898989886000015185608001518a606001518b602001518c60400151604051611299989796959493929190971515885295151560208801526040870194909452606086019290925264ffffffffff90811660808601521660a084015260c083015260e08201526101000190565b60405180910390a16112a9612889565b50506001600055509095945050505050565b60035460009081036112cd5750600090565b600354600454610c8491906129c1565b6000806112f660038001546003600401548787876129d2565b915091505b935093915050565b6002805461131090615a0a565b80601f016020809104026020016040519081016040528092919081815260200182805461133c90615a0a565b80156113895780601f1061135e57610100808354040283529160200191611389565b820191906000526020600020905b81548152906001019060200180831161136c57829003601f168201915b505050505081565b60008061139c6122b5565b6002600054036113be5760405162461bcd60e51b815260040161075e906158c5565b600260005560408051602081019091528381526113dd90600390612a40565b604080518381526020810183905290810186905291935091507f0bb89aa54ed6940a7e7167bd262b2400d63945045ceff1a52a05f2601ed215f19060600160405180910390a160016000559092909150565b600080600061143c6122b5565b60026000540361145e5760405162461bcd60e51b815260040161075e906158c5565b6002600090815560055490036114ba576114ba7f00000000000000000000000000000000000000000000000000000000000000007f00000000000000000000000000000000000000000000000000000000000000008787612b57565b6114d96003604051806040016040528088815260200187815250612d6b565b604080518481526020810184905290810182905292955090935091507fd7f28048575eead8851d024ead087913957dfb4fd1a02b4d1573f5352a5a2be39060600160405180910390a160016000819055509250925092565b611539612237565b60026000540361155b5760405162461bcd60e51b815260040161075e906158c5565b600260005562093a8063ffffffff821611156115af5760405162461bcd60e51b8152602060048201526013602482015272504d5f53464d45533a20746f6f206c6172676560681b604482015260640161075e565b601d805466ffffffff0000001916630100000063ffffffff8416908102919091179091556040519081527f5b18da8898c1e492e6bc631eec59d143ebba7f31ca794b668f0bfa9b0d989293906020016109c7565b60608167ffffffffffffffff81111561161e5761161e615a3e565b60405190808252806020026020018201604052801561165157816020015b606081526020019060019003908161163c5790505b50905060005b828110156116f1576116c13085858481811061167557611675615a54565b90506020028101906116879190615a6a565b8080601f016020809104026020016040519081016040528093929190818152602001838380828437600092019190915250612f3592505050565b8282815181106116d3576116d3615a54565b602002602001018190525080806116e990615ab1565b915050611657565b505b92915050565b6040516399d5040960e01b8152600f6004820152821515602482015264ffffffffff821660448201526000908190819073C91bD33af94343d14e313602345d901819F3959d906399d5040990606401606060405180830381865af4158015611765573d6000803e3d6000fd5b505050506040513d601f19601f820116820180604052508101906117899190615aca565b65ffffffffffff9092169450925090505b9250925092565b6117a9612237565b6002600054036117cb5760405162461bcd60e51b815260040161075e906158c5565b60026000556207a1206117e46040830160208401615631565b62ffffff1611156118375760405162461bcd60e51b815260206004820152601e60248201527f50455f53504c433a20746f6f206c61726765206c69717569646174696f6e0000604482015260640161075e565b6118476040820160208301615631565b62ffffff166118596020830183615631565b62ffffff16111561189f5760405162461bcd60e51b815260206004820152601060248201526f141157d4d41310ce881a5b9d985b1a5960821b604482015260640161075e565b620f42406118b36080830160608401615631565b62ffffff16106119055760405162461bcd60e51b815260206004820152601a60248201527f50455f53504c433a20656d6120746f6f206c61726765206c6971000000000000604482015260640161075e565b6119156080820160608301615631565b62ffffff1661192a6060830160408401615631565b62ffffff1611156119745760405162461bcd60e51b8152602060048201526014602482015273141157d4d41310ce88195b58481a5b9d985b1a5960621b604482015260640161075e565b80601e6119818282615b0c565b507fbe7eee05a638b28e8473a6f87ae310d3123f8a2a7561ce96e140f76125f7461290506119b26020830183615631565b6119c26040840160208501615631565b6119d26060850160408601615631565b6119e26080860160608701615631565b6119f260a0870160808801615679565b6040516109c79594939291906155b0565b6000611a1d611a10610e78565b611a18610c13565b612f5a565b604051632e45552560e21b81526013600482015290915060009073C91bD33af94343d14e313602345d901819F3959d9063b915549490602401602060405180830381865af4158015611a73573d6000803e3d6000fd5b505050506040513d601f19601f82011682018060405250810190611a979190615978565b90508015801590610a7b575081811115610a8457919050565b6000610e5b8484846000611b5d565b611ac7612237565b6001600160a01b038116611b2c5760405162461bcd60e51b815260206004820152602660248201527f4f776e61626c653a206e6577206f776e657220697320746865207a65726f206160448201526564647265737360d01b606482015260840161075e565b611b35816123e5565b50565b6001600160a01b03163b151590565b42600290910155565b600160601b600590910155565b6000611b8360405180606001604052806000815260200160008152602001600081525090565b600554600003611b965760009150611ca6565b82600003611bd4576000611ba86112bb565b9050611bb7600c601e83612f76565b9150611bd082600001518360400151601e888b15613042565b9350505b600354600454611bef91908888611be9610c13565b886130f0565b915073C91bD33af94343d14e313602345d901819F3959d63b2041ed987611c1757600f611c1a565b60135b60085460405160e084901b6001600160e01b031916815260048101929092528915156024830152881515604483015260648201879052608482015260a401602060405180830381865af4158015611c75573d6000803e3d6000fd5b505050506040513d601f19601f82011682018060405250810190611c999190615978565b611ca390836158b2565b91505b94509492505050565b600354600454600091611ccc918686611cc6610c13565b876130f0565b90505b9392505050565b611d246040518060e001604052806000815260200160008152602001600081526020016000815260200160008152602001600064ffffffffff168152602001600064ffffffffff1681525090565b602083015183518554911515901515149064ffffffffff166000805b64ffffffffff83161561212457611db360405180610120016040528060006001600160801b031681526020016000815260200160008152602001600064ffffffffff168152602001600064ffffffffff168152602001600081526020016000815260200160008152602001600081525090565b64ffffffffff8416600090815260018a016020526040902054600160801b90046001600160801b03168082526060890151611df39190600160601b61325f565b60208083018290528951908a0151611e0e9263ffffffff8b16565b60408083019190915264ffffffffff80861660008181526001808e01602081815286842054600160281b8104871660608a01908152958552918152600160501b909104851660808801529251909316815260028d01909152919091200154611e7690846158b2565b60a0820152606081015164ffffffffff1660009081526002808b0160205260409091200154611ea590836158b2565b60c0820152604081015160009086611ece57611ec98360c001518b6060015161330e565b611ed4565b8260a001515b611ede91906158b2565b905080896040015111611f2157816060015164ffffffffff16600003611f1557611f088a8661331f565b64ffffffffff1660a08801525b50606001519250611d40565b608082015164ffffffffff908116600090815260028c016020526040808220600190810154938916835291200154611f599190615bf1565b611f6390856158b2565b60e0830152608082015164ffffffffff90811660009081526002808d01602052604080832082015493891683529091200154611f9f9190615bf1565b611fa990846158b2565b610100830152604082015160009087611fd457611fcf8461010001518c6060015161330e565b611fda565b8360e001515b611fe491906158b2565b9050808a6040015110156120e7576040830151885260a0830151602089015260c083015160608b0151612017919061330e565b6040890152861561205757818a604001516120329190615bf1565b60608901819052602084015161204d9190600160601b61325f565b60808901526120ba565b818a604001516120679190615bf1565b6080890181905260208401516120839190600160601b9061325f565b6060890181905264ffffffffff8716600090815260028d0160205260409020546120b49190610c7a90600190615bf1565b60608901525b6120c48b8761331f565b64ffffffffff90811660a08a01529590951660c088015250611ccf945050505050565b8260e0015194508261010001519350826080015164ffffffffff166000036121175764ffffffffff861660a08901525b5050608001519250611d40565b60208501829052606087015161213b90829061330e565b60408601528361214f578460400151612155565b84602001515b87604001516121649190615bf1565b8552505050509392505050565b600080612185620f42408460400151613448565b90508260200151156121e05760608301516000906121a390836134ae565b8451909150156121c8576121c185826121bc89826134c3565b61325f565b92506121da565b6121d786826121bc88826134c3565b92505b5061222f565b82511561220a5760608301516122039086906121fc87826134cf565b60016134db565b9150612222565b606083015161221f9085906121fc88826134cf565b91505b61222c828261352c565b91505b509392505050565b6001546001600160a01b03163314610e765760405162461bcd60e51b815260206004820181905260248201527f4f776e61626c653a2063616c6c6572206973206e6f7420746865206f776e6572604482015260640161075e565b6000806122a1620f424084613448565b90506122ad8482613543565b949350505050565b7f00000000000000000000000000000000000000000000000000000000000000006001600160a01b03163314610e765760405162461bcd60e51b815260206004820152601d60248201527f504d5f4f453a2063616c6c6572206973206e6f742065786368616e6765000000604482015260640161075e565b60008061233e848460400151613558565b90506122ad836000015162ffffff16612365856020015162ffffff1684600160601b61325f565b906134c3565b600081831061237a5781611ccf565b5090919050565b600062ffffff821115610a845760405162461bcd60e51b815260206004820152602660248201527f53616665436173743a2076616c756520646f65736e27742066697420696e203260448201526534206269747360d01b606482015260840161075e565b600180546001600160a01b038381166001600160a01b0319831681179093556040519116919082907f8be0079c531659141344cd1fd0a4f28419497f9722a3daafe3b4186f6b6457e090600090a35050565b6000611ccc61244685856129c1565b600160601b8461325f565b600080612467838560000154866002015461325f565b610c07848660010154876002015461325f565b6000611ccc60036040518060800160405280871515815260200186151581526020016124a4610c13565b62ffffff1681526020018590526135d5565b6124f66040518060a00160405280600081526020016000815260200160008152602001600064ffffffffff168152602001600064ffffffffff1681525090565b8351600090612505578561250a565b856004015b90506000612519828787611cd6565b80519091501561254e5785516020870151825161253b92919063ffffffff8816565b8351849061254a9083906158b2565b9052505b6020860151865115159015151460006125648990565b90508260a0015164ffffffffff16600014612662576008890180546001919060009061259990849065ffffffffffff16615c04565b82546101009290920a65ffffffffffff818102199093169183160217909155604080516020808201835260608d0151825260088e0154909316600090815260098e019093529120905190555087511561260b5760a08301516126069085906136166136296136398661364d565b612625565b60a083015161262590859061377261378161378e8661364d565b8161263457826020015161263a565b82604001515b855186906126499083906158b2565b90525060a083015164ffffffffff1660808601526126a6565b6020830151156126845760405162461bcd60e51b815260040161075e90615c23565b6040830151156126a65760405162461bcd60e51b815260040161075e90615c23565b60c083015164ffffffffff161561279d57606083015160c084015164ffffffffff166000908152600286016020526040812080549091906126e8908490615bf1565b909155505060c083015164ffffffffff1660009081526002850160205260409020546127265760405162461bcd60e51b815260040161075e90615c23565b61274c8360c00151896000015161273f57613781612743565b6136295b8691908461379a565b8161275b578260600151612761565b82608001515b855186906127709083906158b2565b90525060608084015160208701526080840151604087015260c084015164ffffffffff16908601526127e1565b6060830151156127bf5760405162461bcd60e51b815260040161075e90615c23565b6080830151156127e15760405162461bcd60e51b815260040161075e90615c23565b50505050949350505050565b600184015442908111612826576128088560020154836137e2565b6002860155600385015461281c908361236b565b6003860155612858565b600185018190556128378585613558565b855561284383836137e2565b6002860155612852838361236b565b60038601555b5050505050565b806020015160000361286f575050565b805182556020810151600183015560400151600290910155565b6000612893610e78565b6040805160c0810182526001600160a01b037f0000000000000000000000000000000000000000000000000000000000000000811682527f0000000000000000000000000000000000000000000000000000000000000000166020820152908101829052601d5462ffffff8116606083015263ffffffff6301000000820481166080840152600160381b9091041660a08201529091506000908190819061293c906009906137f2565b925092509250826000036129505750505050565b61295b60038461398e565b6006546007546040805186815263ffffffff8616602082015290810184905260608101879052608081019290925260a08201527f318daee0b48d1f6a0542d8cdd35e2593d88c4fb01708f4781609494206d070519060c00160405180910390a150505050565b6000611ccf82600160601b8561325f565b60008060006129f26129e386613a92565b6129ec8a613a92565b90613afc565b90506000612a026129e386613a92565b9050612a1d82600160601b612a168a613a92565b9190613b08565b612a2f82600160601b612a168b613a92565b9350935050505b9550959350505050565b81546001830154600284015483516000938493909290918490612a6490858461325f565b90506000612a778860000151858561325f565b9050600082118015612a895750600081115b612acd5760405162461bcd60e51b8152602060048201526015602482015274504c5f524c3a206f7574707574206973207a65726f60581b604482015260640161075e565b612ad785836134cf565b8955612ae384826134cf565b60018a01558751600090612af89085906134cf565b90506103e8811015612b435760405162461bcd60e51b8152602060048201526014602482015273504c5f524c3a206d696e206c697175696469747960601b604482015260640161075e565b60028a015590955093505050509250929050565b6000612b6285613bac565b90506000612b6f85613bac565b905060008211612bc15760405162461bcd60e51b815260206004820152601b60248201527f464c5f56494c503a20696e76616c696420626173652070726963650000000000604482015260640161075e565b60008111612c115760405162461bcd60e51b815260206004820152601c60248201527f464c5f56494c503a20696e76616c69642071756f746520707269636500000000604482015260640161075e565b6000612c1c87613c72565b90506000612c2987613c72565b9050604d60ff83161115612c7f5760405162461bcd60e51b815260206004820152601e60248201527f464c5f56494c503a20696e76616c6964206261736520646563696d616c730000604482015260640161075e565b604d60ff82161115612cd35760405162461bcd60e51b815260206004820152601f60248201527f464c5f56494c503a20696e76616c69642071756f746520646563696d616c7300604482015260640161075e565b6000612ce486600160601b8961325f565b90506000612cf58484888886613d38565b9050612d08600160601b620186a06134ae565b612d1182613db8565b1115612d5f5760405162461bcd60e51b815260206004820152601b60248201527f464c5f56494c503a20746f6f206661722066726f6d20696e6465780000000000604482015260640161075e565b50505050505050505050565b60008060008085600201549050600081600003612e415760208601518651600091612d9e91612d9991613ddc565b613de8565b9050612dac816103e86134cf565b875190925015801590612dc3575060008760200151115b8015612dcf5750600082115b612e1b5760405162461bcd60e51b815260206004820152601d60248201527f504c5f414c3a20696e697469616c206c6971756964697479207a65726f000000604482015260640161075e565b8651808955602088015160018a0181905560028a019290925595509350915061179a9050565b8654600188015487516020890151600091612e6191610c7a90868661325f565b90506000612e7c8a60200151610c7a8c60000151868861325f565b9050612e97612e8c83888761325f565b610c7a83898761325f565b9450600082118015612ea95750600081115b8015612eb55750600085115b612ef95760405162461bcd60e51b8152602060048201526015602482015274504c5f414c3a206c6971756964697479207a65726f60581b604482015260640161075e565b612f0384836134c3565b8b55612f0f83826134c3565b60018c0155612f1e86866134c3565b60028c015590975095509193505050509250925092565b6060611ccf8383604051806060016040528060278152602001615e6b60279139613f4e565b600080612f6a620f424084613448565b90506122ad848261401f565b612f9a60405180606001604052806000815260200160008152602001600081525090565b60018401544290808211612fbd5750508354815260028401546040820152611ccf565b6000612fc983836134cf565b8754909150600003612fe15760408401859052613031565b855463ffffffff600160601b90910481169060009061300490849084906134c316565b905061302961301488858461325f565b6123658b600201548563ffffffff168561325f565b604087015250505b505082825260208201529392505050565b60008061306f8461305957855462ffffff16613068565b85546301000000900462ffffff165b88906134ae565b905060006130a38561308e578654600160301b900462ffffff16613068565b86548890600160481b900462ffffff166134ae565b905083156130cb576130c26130b889846134c3565b610c7a89846134c3565b925050506130e7565b6130c26130d889846134cf565b6130e289846134cf565b6137e2565b95945050505050565b600080613100620f424085613448565b9050600061310e8989613ddc565b905086156131a25760006131318361312b84600160601b8961325f565b906134ae565b9050600061313f8b80613ddc565b9050808211613155576000945050505050613255565b600061316183836134cf565b905060006131796131728e886134ae565b8e906134c3565b90506131976131888288613543565b6131928489613543565b614036565b965050505050613215565b60006131b78361312b8488600160601b61325f565b905060006131c58a80613ddc565b90508082116131db576000945050505050613255565b60006131e783836134cf565b905060006131ff6131f88d886134ae565b8d906134c3565b905061320e6131888288613543565b9650505050505b856132525761324f898960405180608001604052808b151581526020016001151581526020018962ffffff16815260200187815250612171565b92505b50505b9695505050505050565b60008080600019858709858702925082811083820303915050806000036132995783828161328f5761328f6159b5565b0492505050611ccf565b8084116132a557600080fd5b60008486880960026001871981018816978890046003810283188082028403028082028403028082028403028082028403028082028403029081029092039091026000889003889004909101858311909403939093029303949094049190911702949350505050565b6000611ccf8383600160601b61325f565b600064ffffffffff821661336f5760405162461bcd60e51b81526020600482015260176024820152765242544c5f503a2074617267657420697320656d70747960481b604482015260640161075e565b64ffffffffff8281166000908152600185016020526040902054600160281b900416156133ca5764ffffffffff80831660009081526001850160205260409020546133c3918591600160281b900416614062565b90506116f3565b5064ffffffffff8082166000908152600184016020526040902054165b64ffffffffff811615801590613420575064ffffffffff8181166000908152600185016020526040902054600160281b90048116908316145b156116f35764ffffffffff8082166000908152600185016020526040902054919250166133e7565b60008262ffffff168262ffffff1611156134a45760405162461bcd60e51b815260206004820152601e60248201527f506572704d6174683a207375627472616374696f6e206f766572666c6f770000604482015260640161075e565b611ccf8284615c48565b6000611ccf838362ffffff16620f424061325f565b6000611ccf82846158b2565b6000611ccf8284615bf1565b6000806134e986868661325f565b905060018360028111156134ff576134ff615c64565b14801561351c575060008480613517576135176159b5565b868809115b156130e7576132556001826158b2565b6000611ccf83620f42408462ffffff1660016134db565b6000611ccf83620f42408462ffffff1661325f565b6000826003015460000361356e575060006116f3565b6000613595600160601b61358f8660020154600160601b886003015461325f565b906134cf565b905060006135a4846001615c7a565b63ffffffff1690506130e76135c282846140bc90919063ffffffff16565b86546123659063ffffffff88168561325f565b60006135ea8360000154846001015484612171565b8251602084015185546001870154606087015194955061360a94866140c8565b60018501559092555090565b60008161222c600482016001878761414a565b6000816122ad60048201856141df565b806136486004820182856142ee565b505050565b64ffffffffff85166136995760405162461bcd60e51b81526020600482015260156024820152745242544c5f524c3a206b657920697320656d70747960581b604482015260640161075e565b6136a3868661432f565b6136e85760405162461bcd60e51b81526020600482015260166024820152751490951317d4930e881ad95e481b9bdd08195e1a5cdd60521b604482015260640161075e565b6040805160808082018352885464ffffffffff908116835288166020830152918101919091526060810182905261372390879086868661437a565b50865464ffffffffff91821664ffffffffff19918216811789556000908152600189016020526040808220805490931690925597549091168752909520805460ff60781b191690555050505050565b60008161222c8183878761414a565b6000816122ad81856141df565b806136488180856142ee565b64ffffffffff8316156137dc576137b583828463ffffffff16565b6137dc5764ffffffffff92831660009081526001850160205260409020549092169161379a565b50505050565b60008183101561237a5781611ccf565b60008060008042905060006138148760020154836134cf90919063ffffffff16565b905080600003613830576000806000945094509450505061179a565b600061383f8760000151613bac565b905060006138508860200151613bac565b905060006138618960000151613c72565b905060006138728a60200151613c72565b8b54909150841480156138885750828b60010154145b80613891575083155b8061389a575082155b806138a85750604d60ff8316115b806138b65750604d60ff8216115b156138d157600080600098509850985050505050505061179a565b6138e5858b6080015163ffffffff1661236b565b94506138f0856145a8565b9750613903828286868e60400151613d38565b9650600061392a6139258c60600151600160601b6134ae90919063ffffffff16565b613a92565b9050613948613939828a61460d565b61394283615c97565b9061461c565b975061397161395687613a92565b8c60a0015163ffffffff168a613b089092919063ffffffff16565b948c55505050600189015560028801929092555092509250925092565b8060000361399a575050565b60006139a582613db8565b90506000821315613a0857600183015460006139c68284600160601b61325f565b90506139d282826134cf565b85600101819055506139fb6139f082600160601b886002015461325f565b6004870154906134c3565b600486015550613a5a9050565b82546000613a1f82846121bc600160601b826134c3565b9050613a2b82826134cf565b85556002850154613a5290613a47908390600160601b9061325f565b6003870154906134c3565b600386015550505b613a858360050154613a7b613a76856129ec600160601b613a92565b61462c565b600160601b61325f565b8360050181905550505050565b60006001600160ff1b03821115610a845760405162461bcd60e51b815260206004820152602860248201527f53616665436173743a2076616c756520646f65736e27742066697420696e2061604482015267371034b73a191a9b60c11b606482015260840161075e565b6000611ccf8284615cb3565b60008060008512613b195784613b22565b613b228561467e565b90506000808512613b335784613b3c565b613b3c8561467e565b905060008087128015613b4f5750600086135b80613b655750600087138015613b655750600086125b613b70576000613b73565b60015b90506000613b8284848861325f565b905081613b9757613b9281613a92565b613ba0565b613ba0816146dc565b98975050505050505050565b60006001600160a01b038216613bc457506001919050565b60408051600481526024810182526020810180516001600160e01b0316634c6afee560e11b179052905160009081906001600160a01b03861690613c09908590615cd3565b600060405180830381855afa9150503d8060008114613c44576040519150601f19603f3d011682016040523d82523d6000602084013e613c49565b606091505b509150915081613c5e57506000949350505050565b808060200190518101906130e79190615978565b60006001600160a01b038216613c8a57506000919050565b60408051600481526024810182526020810180516001600160e01b031663313ce56760e01b179052905160009081906001600160a01b03861690613ccf908590615cd3565b600060405180830381855afa9150503d8060008114613d0a576040519150601f19603f3d011682016040523d82523d6000602084013e613d0f565b606091505b509150915081613d24575060ff949350505050565b808060200190518101906130e79190615cef565b60008160ff8716151580613d4d575084600114155b15613d6a57613d6781613d6189600a615df6565b8761325f565b90505b60ff8616151580613d7c575083600114155b15613d9457613d9181856121bc89600a615df6565b90505b613dad613da4600160601b613a92565b6129ec83613a92565b979650505050505050565b600080821215613dd357613dce613a768361467e565b6116f3565b6116f38261462c565b6000611ccf8284615e05565b600081600003613dfa57506000919050565b600182608081901c15613e125760409190911b9060801c5b604081901c15613e275760209190911b9060401c5b602081901c15613e3c5760109190911b9060201c5b601081901c15613e515760089190911b9060101c5b600881901c15613e665760049190911b9060081c5b600481901c15613e7b5760029190911b9060041c5b600281901c15613e8d57600182901b91505b6001828581613e9e57613e9e6159b5565b048301901c91506001828581613eb657613eb66159b5565b048301901c91506001828581613ece57613ece6159b5565b048301901c91506001828581613ee657613ee66159b5565b048301901c91506001828581613efe57613efe6159b5565b048301901c91506001828581613f1657613f166159b5565b048301901c91506001828581613f2e57613f2e6159b5565b048301901c91506122ad82838681613f4857613f486159b5565b0461236b565b6060613f5984611b38565b613fb45760405162461bcd60e51b815260206004820152602660248201527f416464726573733a2064656c65676174652063616c6c20746f206e6f6e2d636f6044820152651b9d1c9858dd60d21b606482015260840161075e565b600080856001600160a01b031685604051613fcf9190615cd3565b600060405180830381855af49150503d806000811461400a576040519150601f19603f3d011682016040523d82523d6000602084013e61400f565b606091505b50915091506132558282866146f0565b6000611ccf838362ffffff16620f424060016134db565b6000611ccf600261405c8561358f612d99614052886004613ddc565b6123658a80613ddc565b906140bc565b60005b64ffffffffff8281166000908152600185016020526040902054600160501b900416156140b65764ffffffffff9182166000908152600184016020526040902054600160501b900490911690614065565b50919050565b6000611ccf8284615e24565b600080861561410a5787156140f4576140e186856134c3565b91506140ed85846134cf565b905061413f565b6140fe86846134cf565b91506140ed85856134c3565b87156141265761411a86846134c3565b91506140ed85856134cf565b61413086856134cf565b915061413c85846134c3565b90505b965096945050505050565b64ffffffffff828116600090815260018601602052604080822054928416825281205490916001600160801b03600160801b9182900481169291909104168082036141a9578364ffffffffff168564ffffffffff1610925050506122ad565b856141c857806001600160801b0316826001600160801b031610613dad565b6001600160801b0390811691161195945050505050565b64ffffffffff808216600090815260028085016020818152604080852060018082015495820154818b01855283882054959094529054600160501b85048816808852838820830154600160281b90960490981680885292872090910154959694959294919391928792614251916158b2565b61425b91906158b2565b905060006142698989614729565b64ffffffffff80851660009081526002808d0160205260408083208201549389168352909120015461429b91906158b2565b6142a591906158b2565b905085821480156142b557508481145b9650866142e25764ffffffffff881660009081526002808b01602052604090912060018101849055018190555b50505050505092915050565b60089091015464ffffffffff909116600090815260029092016020526040909120600301805465ffffffffffff191665ffffffffffff909216919091179055565b600064ffffffffff821615801590611ccf5750825464ffffffffff83811691161480611ccf57505064ffffffffff908116600090815260019290920160205260409091205416151590565b8351600090819064ffffffffff1661439b5750506040840151600090612a36565b855164ffffffffff166000908152600188016020526040902054600160781b900460ff166143ca5760016143cd565b60005b866040018181516143de9190615e38565b60ff169052508551602087015164ffffffffff91821691160361444657614411866000015187606001518563ffffffff16565b5050835164ffffffffff9081166000908152600187016020526040908190205490860151600160501b90910490911690612a36565b6144618660200151876000015188606001518863ffffffff16565b156145255760408051608081018252875164ffffffffff908116600090815260018b01602090815284822054600160281b900483168452808b0151909216918301919091528883015160ff16928201929092526060808901519082015281906144ce908a9089898961437a565b895164ffffffffff808216600090815260018e0160205260409081902054908d015160608e015195975093955061451a948e94889493600160501b909304909216918c91889190614770565b935093505050612a36565b61453b866000015187606001518563ffffffff16565b60408051608081018252875164ffffffffff908116600090815260018b0160209081529084902054600160501b900482168352808a0151909116908201528782015160ff16918101919091526060808801519082015261459f90889087878761437a565b91509150612a36565b600063ffffffff821115610a845760405162461bcd60e51b815260206004820152602660248201527f53616665436173743a2076616c756520646f65736e27742066697420696e203360448201526532206269747360d01b606482015260840161075e565b600081831261237a5781611ccf565b60008183121561237a5781611ccf565b600080821215610a845760405162461bcd60e51b815260206004820181905260248201527f53616665436173743a2076616c7565206d75737420626520706f736974697665604482015260640161075e565b6000600160ff1b82136146d35760405162461bcd60e51b815260206004820152601c60248201527f506572704d6174683a20696e76657273696f6e206f766572666c6f7700000000604482015260640161075e565b6116f382615c97565b60006146e782613a92565b6116f390615c97565b606083156146ff575081611ccf565b82511561470f5782518084602001fd5b8160405162461bcd60e51b815260040161075e9190615712565b64ffffffffff8116600090815260018301602090815260408083205460028601909252822054600160801b9091046001600160801b0316906122ad9082600160601b61325f565b6000808360ff168560ff161115614874576147d38a6040518060c001604052808c64ffffffffff1681526020018b64ffffffffff1681526020018a64ffffffffff1681526020018860ff1681526020018760ff1681526020018681525088614a64565b5064ffffffffff8116600090815260018c016020526040902054909250859150600160781b900460ff168015614838575064ffffffffff828116600090815260018c01602052604080822054600160501b900490921681522054600160781b900460ff165b1561486f5764ffffffffff821660009081526001808c016020526040909120805460ff60781b1916905561486c9082615e51565b90505b614a57565b8360ff168560ff16101561496b576148d48a6040518060c001604052808c64ffffffffff1681526020018b64ffffffffff1681526020018a64ffffffffff1681526020018860ff1681526020018760ff1681526020018681525088614d5a565b64ffffffffff8116600090815260018c016020526040902054909250849150600160781b900460ff168015614838575064ffffffffff828116600090815260018c01602052604080822054600160281b900490921681522054600160781b900460ff161561486f5764ffffffffff821660009081526001808c016020526040909120805460ff60781b1916905561486c9082615e51565b64ffffffffff8916600090815260018b016020526040812054600160781b900460ff161580156149bb575064ffffffffff8816600090815260018c016020526040902054600160781b900460ff16155b64ffffffffff8a8116600090815260018e016020526040902080546fff0000000000ffffffffff00000000001916600160781b8415150264ffffffffff60281b191617600160281b8e8416021764ffffffffff60501b1916600160501b928c16929092029190911790559050614a35898563ffffffff8a16565b508881614a43576001614a46565b60005b614a509088615e51565b9093509150505b9850989650505050505050565b815164ffffffffff1660009081526001840160205260408120548190600160781b900460ff16158015614aa45750836080015160ff16846060015160ff16145b15614b56576020808501805164ffffffffff9081166000908152600189019093526040808420805460ff60781b1916600160781b17905587518351831685528185208054918416600160281b0264ffffffffff60281b19909216919091179055808801518351831685529320805493909116600160501b0264ffffffffff60501b19909316929092179091555160a0850151614b44919063ffffffff8616565b505050602082015160608301516112fb565b6040805160c081018252855164ffffffffff908116600090815260018901602081815285832054600160501b900484168552808a0151841681860152898601518416858701528951909316825290915291822054614bff9188916060820190600160781b900460ff16614bca576001614bcd565b60005b8960600151614bdc9190615e38565b60ff168152602001886080015160ff1681526020018860a0015181525086614a64565b50855164ffffffffff9081166000908152600189016020526040808220805464ffffffffff60501b1916600160501b868616021790558851909216815220805464ffffffffff19169055855160a0870151919250614c609163ffffffff8716565b50845164ffffffffff166000908152600187016020526040902054600160781b900460ff16158015614cb1575064ffffffffff81166000908152600187016020526040902054600160781b900460ff165b8015614cec575064ffffffffff818116600090815260018801602052604080822054600160501b900490921681522054600160781b900460ff165b15614d475764ffffffffff808216600090815260018801602052604080822054600160501b9004909216815220805460ff60781b19169055845160a0860151614d389188918790615118565b606085015190925090506112fb565b5050825160609093015192949293505050565b60408281015164ffffffffff1660009081526001850160205290812054600160781b900460ff16158015614d9b5750826080015160ff16836060015160ff16145b15614ed0576020808401805164ffffffffff9081166000908152600188019093526040808420805460ff60781b1916600160781b17905586518351831685528185208054918416600160281b0264ffffffffff60281b19909216919091179055808701519251821684529092208054918316600160501b0264ffffffffff60501b1990921691909117905583511615614e6557602083810151845164ffffffffff9081166000908152600188019093526040909220805464ffffffffff1916929091169190911790555b604083015164ffffffffff1615614eae5760208381015160408086015164ffffffffff9081166000908152600189019094529220805464ffffffffff1916929091169190911790555b614ec483602001518460a001518463ffffffff16565b50506020820151611ccf565b6040805160c081018252845164ffffffffff908116825260208087015182168184015286840180518316600090815260018a0180845286822054600160281b90048516868801526060808b015160ff908116918801919091529251909416815292909152928120549092614f8292889290916080830191600160781b900416614f5a576001614f5d565b60005b8860800151614f6c9190615e38565b60ff1681526020018760a0015181525085614d5a565b6040858101805164ffffffffff908116600090815260018a01602052838120805464ffffffffff60281b1916600160281b878516908102919091179091559251909116815291909120805464ffffffffff19169055909150156150135760408481015164ffffffffff83811660009081526001890160205292909220805464ffffffffff1916929091169190911790555b61502984604001518560a001518563ffffffff16565b5060408481015164ffffffffff166000908152600187016020522054600160781b900460ff1615801561507b575064ffffffffff81166000908152600186016020526040902054600160781b900460ff165b80156150b6575064ffffffffff818116600090815260018701602052604080822054600160281b900490921681522054600160781b900460ff165b1561510c5764ffffffffff808216600090815260018701602052604080822054600160281b90049092168152819020805460ff60781b1916905584015160a085015161510591879186906152f8565b9050611ccf565b50505060400151919050565b64ffffffffff80841660008181526001870160205260408082208054600160501b80820487168086529385205495909452600160281b909404851692830264ffffffffff60501b198516179055929190911690801561519e5764ffffffffff81811660009081526001890160205260409020805464ffffffffff19169188169190911790555b64ffffffffff83811660009081526001890160205260409020805464ffffffffff191691841691821790556151e757865464ffffffffff191664ffffffffff8416178755615286565b64ffffffffff8083166000908152600189016020526040902054600160281b900481169087160361524e5764ffffffffff808316600090815260018901602052604090208054918516600160281b0264ffffffffff60281b19909216919091179055615286565b64ffffffffff808316600090815260018901602052604090208054918516600160501b0264ffffffffff60501b199092169190911790555b64ffffffffff838116600081815260018a016020526040808220805464ffffffffff60281b1916600160281b958c1695860217905592815291909120805464ffffffffff191690911790556152df868563ffffffff8816565b506152ee83858763ffffffff16565b5050505050505050565b64ffffffffff80841660008181526001870160205260408082208054600160281b80820487168086529385205495909452600160501b909404851692830264ffffffffff60281b198516179055929190911690801561537e5764ffffffffff81811660009081526001890160205260409020805464ffffffffff19169188169190911790555b64ffffffffff83811660009081526001890160205260409020805464ffffffffff191691841691821790556153c757865464ffffffffff191664ffffffffff8416178755615466565b64ffffffffff8083166000908152600189016020526040902054600160501b900481169087160361542e5764ffffffffff808316600090815260018901602052604090208054918516600160501b0264ffffffffff60501b19909216919091179055615466565b64ffffffffff808316600090815260018901602052604090208054918516600160281b0264ffffffffff60281b199092169190911790555b64ffffffffff838116600081815260018a016020526040808220805464ffffffffff60501b1916600160501b958c1695860217905592815291909120805464ffffffffff191690911790556152df868563ffffffff8816565b803580151581146154cf57600080fd5b919050565b600080600080608085870312156154ea57600080fd5b6154f3856154bf565b9350615501602086016154bf565b925060408501359150615516606086016154bf565b905092959194509250565b6000606082840312156140b657600080fd5b64ffffffffff81168114611b3557600080fd5b6000806040838503121561555957600080fd5b615562836154bf565b9150602083013561557281615533565b809150509250929050565b60008060006060848603121561559257600080fd5b61559b846154bf565b95602085013595506040909401359392505050565b62ffffff958616815293851660208501529184166040840152909216606082015263ffffffff909116608082015260a00190565b6000806000606084860312156155f957600080fd5b615602846154bf565b9250615610602085016154bf565b9150604084013590509250925092565b62ffffff81168114611b3557600080fd5b60006020828403121561564357600080fd5b8135611ccf81615620565b60006020828403121561566057600080fd5b5035919050565b63ffffffff81168114611b3557600080fd5b60006020828403121561568b57600080fd5b8135611ccf81615667565b6000806000606084860312156156ab57600080fd5b505081359360208301359350604090920135919050565b60005b838110156156dd5781810151838201526020016156c5565b50506000910152565b600081518084526156fe8160208601602086016156c2565b601f01601f19169290920160200192915050565b602081526000611ccf60208301846156e6565b6000806040838503121561573857600080fd5b50508035926020909101359150565b6000806020838503121561575a57600080fd5b823567ffffffffffffffff8082111561577257600080fd5b818501915085601f83011261578657600080fd5b81358181111561579557600080fd5b8660208260051b85010111156157aa57600080fd5b60209290920196919550909350505050565b6000602080830181845280855180835260408601915060408160051b870101925083870160005b8281101561581157603f198886030184526157ff8583516156e6565b945092850192908501906001016157e3565b5092979650505050505050565b600060a082840312156140b657600080fd5b60008060006060848603121561584557600080fd5b61584e846154bf565b925061585c602085016154bf565b915061586a604085016154bf565b90509250925092565b60006020828403121561588557600080fd5b81356001600160a01b0381168114611ccf57600080fd5b634e487b7160e01b600052601160045260246000fd5b808201808211156116f3576116f361589c565b6020808252601f908201527f5265656e7472616e637947756172643a207265656e7472616e742063616c6c00604082015260600190565b813561590781615620565b815462ffffff191662ffffff821617825550602082013561592781615620565b815465ffffff0000001916601882901b65ffffff0000001617825550604082013561595181615667565b815469ffffffff000000000000191660309190911b69ffffffff0000000000001617905550565b60006020828403121561598a57600080fd5b5051919050565b600080604083850312156159a457600080fd5b505080516020909101519092909150565b634e487b7160e01b600052601260045260246000fd5b600062ffffff808416806159e1576159e16159b5565b92169190910492915050565b6000602082840312156159ff57600080fd5b8151611ccf81615533565b600181811c90821680615a1e57607f821691505b6020821081036140b657634e487b7160e01b600052602260045260246000fd5b634e487b7160e01b600052604160045260246000fd5b634e487b7160e01b600052603260045260246000fd5b6000808335601e19843603018112615a8157600080fd5b83018035915067ffffffffffffffff821115615a9c57600080fd5b602001915036819003821315610c0c57600080fd5b600060018201615ac357615ac361589c565b5060010190565b600080600060608486031215615adf57600080fd5b835165ffffffffffff81168114615af557600080fd5b602085015160409095015190969495509392505050565b8135615b1781615620565b815462ffffff191662ffffff8216178255506020820135615b3781615620565b815465ffffff0000001916601882901b65ffffff00000016178255506040820135615b6181615620565b815462ffffff60301b8260301b1691508162ffffff60301b1982161783556060840135615b8d81615620565b62ffffff60481b60489190911b166bffffffffffff0000000000001982168317811784556080850135615bbf81615667565b6fffffffffffffffffffff00000000000019929092169092179190911760609190911b63ffffffff60601b1617905550565b818103818111156116f3576116f361589c565b65ffffffffffff8181168382160190808211156116f1576116f161589c565b6020808252600b908201526a3732bb32b91037b1b1bab960a91b604082015260600190565b62ffffff8281168282160390808211156116f1576116f161589c565b634e487b7160e01b600052602160045260246000fd5b63ffffffff8181168382160190808211156116f1576116f161589c565b6000600160ff1b8201615cac57615cac61589c565b5060000390565b81810360008312801583831316838312821617156116f1576116f161589c565b60008251615ce58184602087016156c2565b9190910192915050565b600060208284031215615d0157600080fd5b815160ff81168114611ccf57600080fd5b600181815b80851115615d4d578160001904821115615d3357615d3361589c565b80851615615d4057918102915b93841c9390800290615d17565b509250929050565b600082615d64575060016116f3565b81615d71575060006116f3565b8160018114615d875760028114615d9157615dad565b60019150506116f3565b60ff841115615da257615da261589c565b50506001821b6116f3565b5060208310610133831016604e8410600b8410161715615dd0575081810a6116f3565b615dda8383615d12565b8060001904821115615dee57615dee61589c565b029392505050565b6000611ccf60ff841683615d55565b6000816000190483118215151615615e1f57615e1f61589c565b500290565b600082615e3357615e336159b5565b500490565b60ff82811682821603908111156116f3576116f361589c565b60ff81811683821601908111156116f3576116f361589c56fe416464726573733a206c6f772d6c6576656c2064656c65676174652063616c6c206661696c6564a264697066735822122016b53443987350ff9d102e004dbd0424e00e4df8758302be74394b36f30ba96a64736f6c63430008100033",
  "deployedBytecode": "0x608060405234801561001057600080fd5b50600436106102535760003560e01c806380796d55116101465780639d67bf03116100c3578063dba4915311610087578063dba49153146106a7578063e7a49931146106b9578063e801c4d8146106cc578063e8fa204f146106d4578063f2289752146106e7578063f2fde38b146106f257600080fd5b80639d67bf0314610604578063a4edcfc114610617578063ac9650d81461064d578063c9ca629b1461066d578063d2f7265a1461068057600080fd5b8063933c79791161010a578063933c7979146105ae5780639482de1a146105c157806395d89b41146105c95780639c8f9f23146105de5780639cd441da146105f157600080fd5b806380796d55146104f4578063823f2b041461054157806385aaa397146105685780638da5cb5b146105955780638ee8fe5d146105a657600080fd5b806356f55170116101d45780637452fadd116101985780637452fadd1461049c57806374f25689146104a45780637640482f146104b75780637661ce13146104ca578063796c20b7146104e157600080fd5b806356f55170146103be5780635a2f3d09146103e75780636346f32e1461043257806366a61ffb14610481578063715018a61461049457600080fd5b8063220e89ce1161021b578063220e89ce1461035057806323c8346a146103585780632724ebb01461036b5780633aa3e6501461039357806341744dd4146103b657600080fd5b806306f429b8146102585780630e06e4d01461027e578063125b9d27146102bd578063186f181e146102d25780631b520a02146102fe575b600080fd5b61026b6102663660046154d4565b610705565b6040519081526020015b60405180910390f35b6102a57f000000000000000000000000000000000000000000000000000000000000000081565b6040516001600160a01b039091168152602001610275565b6102d06102cb366004615521565b61084c565b005b601d546102e990600160381b900463ffffffff1681565b60405163ffffffff9091168152602001610275565b601f546103289062ffffff808216916301000000810490911690600160301b900463ffffffff1683565b6040805162ffffff948516815293909216602084015263ffffffff1690820152606001610275565b61026b6109d7565b6102d0610366366004615546565b610a88565b61037e610379366004615546565b610b7a565b60408051928352602083019190915201610275565b601d546103a29062ffffff1681565b60405162ffffff9091168152602001610275565b6103a2610c13565b6103d16103cc36600461557d565b610c89565b60405164ffffffffff9091168152602001610275565b60035460045460055460065460075460085461040595949392919086565b604080519687526020870195909552938501929092526060840152608083015260a082015260c001610275565b601e546104709062ffffff8082169163010000008104821691600160301b8204811691600160481b810490911690600160601b900463ffffffff1685565b6040516102759594939291906155b0565b61026b61048f3660046155e4565b610e4c565b6102d0610e64565b61026b610e78565b6102d06104b2366004615631565b610e9e565b61037e6104c536600461564e565b610f61565b601d546102e9906301000000900463ffffffff1681565b6102d06104ef366004615679565b610f78565b6105076105023660046154d4565b611096565b604051610275919081518152602080830151908201526040808301519082015260609182015164ffffffffff169181019190915260800190565b6102a57f000000000000000000000000000000000000000000000000000000000000000081565b600c54600d54600e5461057a92919083565b60408051938452602084019290925290820152606001610275565b6001546001600160a01b03166102a5565b61026b6112bb565b61037e6105bc366004615696565b6112dd565b60085461026b565b6105d1611303565b6040516102759190615712565b61037e6105ec36600461564e565b611391565b61057a6105ff366004615725565b61142f565b6102d0610612366004615679565b611531565b601954601a54601b54601c5461062d9392919084565b604080519485526020850193909352918301526060820152608001610275565b61066061065b366004615747565b611603565b60405161027591906157bc565b61057a61067b366004615546565b6116f9565b6102a57f000000000000000000000000000000000000000000000000000000000000000081565b600954600a54600b5461057a92919083565b6102d06106c736600461581e565b6117a1565b61026b611a03565b61026b6106e2366004615830565b611ab0565b60065460075461037e565b6102d0610700366004615873565b611abf565b6000806107158686856000611b5d565b509050808411156107675760405162461bcd60e51b8152602060048201526017602482015276141357d414ce881d1bdbc81b185c99d948185b5bdd5b9d604a1b60448201526064015b60405180910390fd5b60006107a88761077857600f61077b565b60135b604080516080810182528a1515815289151560208201529081018890526008546060820152611caf611cd6565b600354600454604080516080810182528b151581528a151560208201529394506107eb939081016107d7610c13565b62ffffff1681528551602090910152612171565b925086151586151514801590610820578160600151826020015161080f91906158b2565b61081990856158b2565b9350610841565b8160800151826040015161083491906158b2565b61083e90856158b2565b93505b505050949350505050565b610854612237565b6002600054036108765760405162461bcd60e51b815260040161075e906158c5565b600260005561c35061088b6020830183615631565b62ffffff1611156108de5760405162461bcd60e51b815260206004820152601c60248201527f504d5f535046433a2066697865642066656520746f6f206c6172676500000000604482015260640161075e565b6127106108f16060830160408401615679565b63ffffffff1611156109455760405162461bcd60e51b815260206004820152601f60248201527f504d5f535046433a2061747220656d6120626c6f636b7320746f6f2062696700604482015260640161075e565b80601f61095282826158fc565b507f269f7c0d124741a5574762c75c64c04ad89fa3e91ec86aa3be1b9b6d6d08668790506109836020830183615631565b6109936040840160208501615631565b6109a36060850160408601615679565b6040805162ffffff948516815293909216602084015263ffffffff16908201526060015b60405180910390a1506001600055565b60006109f16109e4610e78565b6109ec610c13565b612291565b604051632e45552560e21b8152600f600482015290915060009073__$52dce10bb0994e0b74d4a2856cc70476a1$__9063b915549490602401602060405180830381865af4158015610a47573d6000803e3d6000fd5b505050506040513d601f19601f82011682018060405250810190610a6b9190615978565b90508015801590610a7b57508181105b15610a84578091505b5090565b610a906122b5565b600260005403610ab25760405162461bcd60e51b815260040161075e906158c5565b6002600055604051632ec0b78b60e11b8152600f6004820152821515602482015264ffffffffff8216604482015273__$52dce10bb0994e0b74d4a2856cc70476a1$__90635d816f169060640160006040518083038186803b158015610b1757600080fd5b505af4158015610b2b573d6000803e3d6000fd5b505060408051851515815264ffffffffff851660208201527ff61aa5333bf001aa89f4bfa6ccaf123eec86eada7fd1c6c366227102507f89cd935001905060405180910390a150506001600055565b6040516302ea3f0960e01b8152600f6004820152821515602482015264ffffffffff82166044820152600090819073__$52dce10bb0994e0b74d4a2856cc70476a1$__906302ea3f09906064016040805180830381865af4158015610be3573d6000803e3d6000fd5b505050506040513d601f19601f82011682018060405250810190610c079190615991565b915091505b9250929050565b601e54600090610c8490610c7f90610c329060029062ffffff166159cb565b60408051606081018252601f5462ffffff80821683526301000000820481166020840152600160301b90910463ffffffff1692820192909252911690610c7a9060199061232d565b61236b565b612381565b905090565b6000610c936122b5565b600260005403610cb55760405162461bcd60e51b815260040161075e906158c5565b60026000558315610d1457610cc86109d7565b821115610d0f5760405162461bcd60e51b8152602060048201526015602482015274141357d0d313ce881c1bdcdd081bdb9b1e48189a59605a1b604482015260640161075e565b610d63565b610d1c611a03565b821015610d635760405162461bcd60e51b8152602060048201526015602482015274504d5f434c4f3a20706f7374206f6e6c792061736b60581b604482015260640161075e565b6040516383818a6f60e01b8152600f60048201528415156024820152604481018490526064810183905273__$52dce10bb0994e0b74d4a2856cc70476a1$__906383818a6f90608401602060405180830381865af4158015610dc9573d6000803e3d6000fd5b505050506040513d601f19601f82011682018060405250810190610ded91906159ed565b6040805186151581526020810186905290810184905264ffffffffff821660608201529091507f7f6ce27b6803b5b961a441dac0f55de214751acfb64178849efb01fdb71c620b9060800160405180910390a160016000559392505050565b6000610e5b8484600085611b5d565b50949350505050565b610e6c612237565b610e7660006123e5565b565b6003546000908103610e8a5750600090565b600354600454600854610c84929190612437565b610ea6612237565b600260005403610ec85760405162461bcd60e51b815260040161075e906158c5565b6002600055620186a062ffffff82161115610f1b5760405162461bcd60e51b8152602060048201526013602482015272504d5f53464d50523a20746f6f206c6172676560681b604482015260640161075e565b601d805462ffffff191662ffffff83169081179091556040519081527f55647f4dd43ac173f04e53a506df46454012316d82fb04a9c1dbd8e0f21f8f76906020016109c7565b600080610f6f600384612451565b91509150915091565b610f80612237565b600260005403610fa25760405162461bcd60e51b815260040161075e906158c5565b600260005562093a8063ffffffff82161115610ff55760405162461bcd60e51b8152602060048201526012602482015271504d5f534652533a20746f6f206c6172676560701b604482015260640161075e565b610e108163ffffffff1610156110425760405162461bcd60e51b8152602060048201526012602482015271141357d4d19494ce881d1bdbc81cdb585b1b60721b604482015260640161075e565b601d805463ffffffff60381b1916600160381b63ffffffff8416908102919091179091556040519081527fa703b265f29064a106acd6473c258e009bff9ac0bfd63b6f5ca4b712a25c8516906020016109c7565b6110c86040518060800160405280600081526020016000815260200160008152602001600064ffffffffff1681525090565b6110d06122b5565b6002600054036110f25760405162461bcd60e51b815260040161075e906158c5565b600260009081558061110687878684611b5d565b91509150818511156111535760405162461bcd60e51b8152602060048201526016602482015275141357d4ce881d1bdbc81b185c99d948185b5bdd5b9d60521b604482015260640161075e565b600061115d6112bb565b9050600061119b600f60405180608001604052808c151581526020018b151581526020018a8152602001600360050154815250611caf61247a6124b6565b90506040518060800160405280826000015181526020018260200151815260200182604001518152602001826060015164ffffffffff1681525094506112006019601f60000160069054906101000a900463ffffffff16846111fb6112bb565b6127ed565b61120b600c8461285f565b7f4af368bb319fb6132e4a959e88a5bd0ebed952b65925f8503bb497d99de64b20898989886000015185608001518a606001518b602001518c60400151604051611299989796959493929190971515885295151560208801526040870194909452606086019290925264ffffffffff90811660808601521660a084015260c083015260e08201526101000190565b60405180910390a16112a9612889565b50506001600055509095945050505050565b60035460009081036112cd5750600090565b600354600454610c8491906129c1565b6000806112f660038001546003600401548787876129d2565b915091505b935093915050565b6002805461131090615a0a565b80601f016020809104026020016040519081016040528092919081815260200182805461133c90615a0a565b80156113895780601f1061135e57610100808354040283529160200191611389565b820191906000526020600020905b81548152906001019060200180831161136c57829003601f168201915b505050505081565b60008061139c6122b5565b6002600054036113be5760405162461bcd60e51b815260040161075e906158c5565b600260005560408051602081019091528381526113dd90600390612a40565b604080518381526020810183905290810186905291935091507f0bb89aa54ed6940a7e7167bd262b2400d63945045ceff1a52a05f2601ed215f19060600160405180910390a160016000559092909150565b600080600061143c6122b5565b60026000540361145e5760405162461bcd60e51b815260040161075e906158c5565b6002600090815560055490036114ba576114ba7f00000000000000000000000000000000000000000000000000000000000000007f00000000000000000000000000000000000000000000000000000000000000008787612b57565b6114d96003604051806040016040528088815260200187815250612d6b565b604080518481526020810184905290810182905292955090935091507fd7f28048575eead8851d024ead087913957dfb4fd1a02b4d1573f5352a5a2be39060600160405180910390a160016000819055509250925092565b611539612237565b60026000540361155b5760405162461bcd60e51b815260040161075e906158c5565b600260005562093a8063ffffffff821611156115af5760405162461bcd60e51b8152602060048201526013602482015272504d5f53464d45533a20746f6f206c6172676560681b604482015260640161075e565b601d805466ffffffff0000001916630100000063ffffffff8416908102919091179091556040519081527f5b18da8898c1e492e6bc631eec59d143ebba7f31ca794b668f0bfa9b0d989293906020016109c7565b60608167ffffffffffffffff81111561161e5761161e615a3e565b60405190808252806020026020018201604052801561165157816020015b606081526020019060019003908161163c5790505b50905060005b828110156116f1576116c13085858481811061167557611675615a54565b90506020028101906116879190615a6a565b8080601f016020809104026020016040519081016040528093929190818152602001838380828437600092019190915250612f3592505050565b8282815181106116d3576116d3615a54565b602002602001018190525080806116e990615ab1565b915050611657565b505b92915050565b6040516399d5040960e01b8152600f6004820152821515602482015264ffffffffff821660448201526000908190819073__$52dce10bb0994e0b74d4a2856cc70476a1$__906399d5040990606401606060405180830381865af4158015611765573d6000803e3d6000fd5b505050506040513d601f19601f820116820180604052508101906117899190615aca565b65ffffffffffff9092169450925090505b9250925092565b6117a9612237565b6002600054036117cb5760405162461bcd60e51b815260040161075e906158c5565b60026000556207a1206117e46040830160208401615631565b62ffffff1611156118375760405162461bcd60e51b815260206004820152601e60248201527f50455f53504c433a20746f6f206c61726765206c69717569646174696f6e0000604482015260640161075e565b6118476040820160208301615631565b62ffffff166118596020830183615631565b62ffffff16111561189f5760405162461bcd60e51b815260206004820152601060248201526f141157d4d41310ce881a5b9d985b1a5960821b604482015260640161075e565b620f42406118b36080830160608401615631565b62ffffff16106119055760405162461bcd60e51b815260206004820152601a60248201527f50455f53504c433a20656d6120746f6f206c61726765206c6971000000000000604482015260640161075e565b6119156080820160608301615631565b62ffffff1661192a6060830160408401615631565b62ffffff1611156119745760405162461bcd60e51b8152602060048201526014602482015273141157d4d41310ce88195b58481a5b9d985b1a5960621b604482015260640161075e565b80601e6119818282615b0c565b507fbe7eee05a638b28e8473a6f87ae310d3123f8a2a7561ce96e140f76125f7461290506119b26020830183615631565b6119c26040840160208501615631565b6119d26060850160408601615631565b6119e26080860160608701615631565b6119f260a0870160808801615679565b6040516109c79594939291906155b0565b6000611a1d611a10610e78565b611a18610c13565b612f5a565b604051632e45552560e21b81526013600482015290915060009073__$52dce10bb0994e0b74d4a2856cc70476a1$__9063b915549490602401602060405180830381865af4158015611a73573d6000803e3d6000fd5b505050506040513d601f19601f82011682018060405250810190611a979190615978565b90508015801590610a7b575081811115610a8457919050565b6000610e5b8484846000611b5d565b611ac7612237565b6001600160a01b038116611b2c5760405162461bcd60e51b815260206004820152602660248201527f4f776e61626c653a206e6577206f776e657220697320746865207a65726f206160448201526564647265737360d01b606482015260840161075e565b611b35816123e5565b50565b6001600160a01b03163b151590565b42600290910155565b600160601b600590910155565b6000611b8360405180606001604052806000815260200160008152602001600081525090565b600554600003611b965760009150611ca6565b82600003611bd4576000611ba86112bb565b9050611bb7600c601e83612f76565b9150611bd082600001518360400151601e888b15613042565b9350505b600354600454611bef91908888611be9610c13565b886130f0565b915073__$52dce10bb0994e0b74d4a2856cc70476a1$__63b2041ed987611c1757600f611c1a565b60135b60085460405160e084901b6001600160e01b031916815260048101929092528915156024830152881515604483015260648201879052608482015260a401602060405180830381865af4158015611c75573d6000803e3d6000fd5b505050506040513d601f19601f82011682018060405250810190611c999190615978565b611ca390836158b2565b91505b94509492505050565b600354600454600091611ccc918686611cc6610c13565b876130f0565b90505b9392505050565b611d246040518060e001604052806000815260200160008152602001600081526020016000815260200160008152602001600064ffffffffff168152602001600064ffffffffff1681525090565b602083015183518554911515901515149064ffffffffff166000805b64ffffffffff83161561212457611db360405180610120016040528060006001600160801b031681526020016000815260200160008152602001600064ffffffffff168152602001600064ffffffffff168152602001600081526020016000815260200160008152602001600081525090565b64ffffffffff8416600090815260018a016020526040902054600160801b90046001600160801b03168082526060890151611df39190600160601b61325f565b60208083018290528951908a0151611e0e9263ffffffff8b16565b60408083019190915264ffffffffff80861660008181526001808e01602081815286842054600160281b8104871660608a01908152958552918152600160501b909104851660808801529251909316815260028d01909152919091200154611e7690846158b2565b60a0820152606081015164ffffffffff1660009081526002808b0160205260409091200154611ea590836158b2565b60c0820152604081015160009086611ece57611ec98360c001518b6060015161330e565b611ed4565b8260a001515b611ede91906158b2565b905080896040015111611f2157816060015164ffffffffff16600003611f1557611f088a8661331f565b64ffffffffff1660a08801525b50606001519250611d40565b608082015164ffffffffff908116600090815260028c016020526040808220600190810154938916835291200154611f599190615bf1565b611f6390856158b2565b60e0830152608082015164ffffffffff90811660009081526002808d01602052604080832082015493891683529091200154611f9f9190615bf1565b611fa990846158b2565b610100830152604082015160009087611fd457611fcf8461010001518c6060015161330e565b611fda565b8360e001515b611fe491906158b2565b9050808a6040015110156120e7576040830151885260a0830151602089015260c083015160608b0151612017919061330e565b6040890152861561205757818a604001516120329190615bf1565b60608901819052602084015161204d9190600160601b61325f565b60808901526120ba565b818a604001516120679190615bf1565b6080890181905260208401516120839190600160601b9061325f565b6060890181905264ffffffffff8716600090815260028d0160205260409020546120b49190610c7a90600190615bf1565b60608901525b6120c48b8761331f565b64ffffffffff90811660a08a01529590951660c088015250611ccf945050505050565b8260e0015194508261010001519350826080015164ffffffffff166000036121175764ffffffffff861660a08901525b5050608001519250611d40565b60208501829052606087015161213b90829061330e565b60408601528361214f578460400151612155565b84602001515b87604001516121649190615bf1565b8552505050509392505050565b600080612185620f42408460400151613448565b90508260200151156121e05760608301516000906121a390836134ae565b8451909150156121c8576121c185826121bc89826134c3565b61325f565b92506121da565b6121d786826121bc88826134c3565b92505b5061222f565b82511561220a5760608301516122039086906121fc87826134cf565b60016134db565b9150612222565b606083015161221f9085906121fc88826134cf565b91505b61222c828261352c565b91505b509392505050565b6001546001600160a01b03163314610e765760405162461bcd60e51b815260206004820181905260248201527f4f776e61626c653a2063616c6c6572206973206e6f7420746865206f776e6572604482015260640161075e565b6000806122a1620f424084613448565b90506122ad8482613543565b949350505050565b7f00000000000000000000000000000000000000000000000000000000000000006001600160a01b03163314610e765760405162461bcd60e51b815260206004820152601d60248201527f504d5f4f453a2063616c6c6572206973206e6f742065786368616e6765000000604482015260640161075e565b60008061233e848460400151613558565b90506122ad836000015162ffffff16612365856020015162ffffff1684600160601b61325f565b906134c3565b600081831061237a5781611ccf565b5090919050565b600062ffffff821115610a845760405162461bcd60e51b815260206004820152602660248201527f53616665436173743a2076616c756520646f65736e27742066697420696e203260448201526534206269747360d01b606482015260840161075e565b600180546001600160a01b038381166001600160a01b0319831681179093556040519116919082907f8be0079c531659141344cd1fd0a4f28419497f9722a3daafe3b4186f6b6457e090600090a35050565b6000611ccc61244685856129c1565b600160601b8461325f565b600080612467838560000154866002015461325f565b610c07848660010154876002015461325f565b6000611ccc60036040518060800160405280871515815260200186151581526020016124a4610c13565b62ffffff1681526020018590526135d5565b6124f66040518060a00160405280600081526020016000815260200160008152602001600064ffffffffff168152602001600064ffffffffff1681525090565b8351600090612505578561250a565b856004015b90506000612519828787611cd6565b80519091501561254e5785516020870151825161253b92919063ffffffff8816565b8351849061254a9083906158b2565b9052505b6020860151865115159015151460006125648990565b90508260a0015164ffffffffff16600014612662576008890180546001919060009061259990849065ffffffffffff16615c04565b82546101009290920a65ffffffffffff818102199093169183160217909155604080516020808201835260608d0151825260088e0154909316600090815260098e019093529120905190555087511561260b5760a08301516126069085906136166136296136398661364d565b612625565b60a083015161262590859061377261378161378e8661364d565b8161263457826020015161263a565b82604001515b855186906126499083906158b2565b90525060a083015164ffffffffff1660808601526126a6565b6020830151156126845760405162461bcd60e51b815260040161075e90615c23565b6040830151156126a65760405162461bcd60e51b815260040161075e90615c23565b60c083015164ffffffffff161561279d57606083015160c084015164ffffffffff166000908152600286016020526040812080549091906126e8908490615bf1565b909155505060c083015164ffffffffff1660009081526002850160205260409020546127265760405162461bcd60e51b815260040161075e90615c23565b61274c8360c00151896000015161273f57613781612743565b6136295b8691908461379a565b8161275b578260600151612761565b82608001515b855186906127709083906158b2565b90525060608084015160208701526080840151604087015260c084015164ffffffffff16908601526127e1565b6060830151156127bf5760405162461bcd60e51b815260040161075e90615c23565b6080830151156127e15760405162461bcd60e51b815260040161075e90615c23565b50505050949350505050565b600184015442908111612826576128088560020154836137e2565b6002860155600385015461281c908361236b565b6003860155612858565b600185018190556128378585613558565b855561284383836137e2565b6002860155612852838361236b565b60038601555b5050505050565b806020015160000361286f575050565b805182556020810151600183015560400151600290910155565b6000612893610e78565b6040805160c0810182526001600160a01b037f0000000000000000000000000000000000000000000000000000000000000000811682527f0000000000000000000000000000000000000000000000000000000000000000166020820152908101829052601d5462ffffff8116606083015263ffffffff6301000000820481166080840152600160381b9091041660a08201529091506000908190819061293c906009906137f2565b925092509250826000036129505750505050565b61295b60038461398e565b6006546007546040805186815263ffffffff8616602082015290810184905260608101879052608081019290925260a08201527f318daee0b48d1f6a0542d8cdd35e2593d88c4fb01708f4781609494206d070519060c00160405180910390a150505050565b6000611ccf82600160601b8561325f565b60008060006129f26129e386613a92565b6129ec8a613a92565b90613afc565b90506000612a026129e386613a92565b9050612a1d82600160601b612a168a613a92565b9190613b08565b612a2f82600160601b612a168b613a92565b9350935050505b9550959350505050565b81546001830154600284015483516000938493909290918490612a6490858461325f565b90506000612a778860000151858561325f565b9050600082118015612a895750600081115b612acd5760405162461bcd60e51b8152602060048201526015602482015274504c5f524c3a206f7574707574206973207a65726f60581b604482015260640161075e565b612ad785836134cf565b8955612ae384826134cf565b60018a01558751600090612af89085906134cf565b90506103e8811015612b435760405162461bcd60e51b8152602060048201526014602482015273504c5f524c3a206d696e206c697175696469747960601b604482015260640161075e565b60028a015590955093505050509250929050565b6000612b6285613bac565b90506000612b6f85613bac565b905060008211612bc15760405162461bcd60e51b815260206004820152601b60248201527f464c5f56494c503a20696e76616c696420626173652070726963650000000000604482015260640161075e565b60008111612c115760405162461bcd60e51b815260206004820152601c60248201527f464c5f56494c503a20696e76616c69642071756f746520707269636500000000604482015260640161075e565b6000612c1c87613c72565b90506000612c2987613c72565b9050604d60ff83161115612c7f5760405162461bcd60e51b815260206004820152601e60248201527f464c5f56494c503a20696e76616c6964206261736520646563696d616c730000604482015260640161075e565b604d60ff82161115612cd35760405162461bcd60e51b815260206004820152601f60248201527f464c5f56494c503a20696e76616c69642071756f746520646563696d616c7300604482015260640161075e565b6000612ce486600160601b8961325f565b90506000612cf58484888886613d38565b9050612d08600160601b620186a06134ae565b612d1182613db8565b1115612d5f5760405162461bcd60e51b815260206004820152601b60248201527f464c5f56494c503a20746f6f206661722066726f6d20696e6465780000000000604482015260640161075e565b50505050505050505050565b60008060008085600201549050600081600003612e415760208601518651600091612d9e91612d9991613ddc565b613de8565b9050612dac816103e86134cf565b875190925015801590612dc3575060008760200151115b8015612dcf5750600082115b612e1b5760405162461bcd60e51b815260206004820152601d60248201527f504c5f414c3a20696e697469616c206c6971756964697479207a65726f000000604482015260640161075e565b8651808955602088015160018a0181905560028a019290925595509350915061179a9050565b8654600188015487516020890151600091612e6191610c7a90868661325f565b90506000612e7c8a60200151610c7a8c60000151868861325f565b9050612e97612e8c83888761325f565b610c7a83898761325f565b9450600082118015612ea95750600081115b8015612eb55750600085115b612ef95760405162461bcd60e51b8152602060048201526015602482015274504c5f414c3a206c6971756964697479207a65726f60581b604482015260640161075e565b612f0384836134c3565b8b55612f0f83826134c3565b60018c0155612f1e86866134c3565b60028c015590975095509193505050509250925092565b6060611ccf8383604051806060016040528060278152602001615e6b60279139613f4e565b600080612f6a620f424084613448565b90506122ad848261401f565b612f9a60405180606001604052806000815260200160008152602001600081525090565b60018401544290808211612fbd5750508354815260028401546040820152611ccf565b6000612fc983836134cf565b8754909150600003612fe15760408401859052613031565b855463ffffffff600160601b90910481169060009061300490849084906134c316565b905061302961301488858461325f565b6123658b600201548563ffffffff168561325f565b604087015250505b505082825260208201529392505050565b60008061306f8461305957855462ffffff16613068565b85546301000000900462ffffff165b88906134ae565b905060006130a38561308e578654600160301b900462ffffff16613068565b86548890600160481b900462ffffff166134ae565b905083156130cb576130c26130b889846134c3565b610c7a89846134c3565b925050506130e7565b6130c26130d889846134cf565b6130e289846134cf565b6137e2565b95945050505050565b600080613100620f424085613448565b9050600061310e8989613ddc565b905086156131a25760006131318361312b84600160601b8961325f565b906134ae565b9050600061313f8b80613ddc565b9050808211613155576000945050505050613255565b600061316183836134cf565b905060006131796131728e886134ae565b8e906134c3565b90506131976131888288613543565b6131928489613543565b614036565b965050505050613215565b60006131b78361312b8488600160601b61325f565b905060006131c58a80613ddc565b90508082116131db576000945050505050613255565b60006131e783836134cf565b905060006131ff6131f88d886134ae565b8d906134c3565b905061320e6131888288613543565b9650505050505b856132525761324f898960405180608001604052808b151581526020016001151581526020018962ffffff16815260200187815250612171565b92505b50505b9695505050505050565b60008080600019858709858702925082811083820303915050806000036132995783828161328f5761328f6159b5565b0492505050611ccf565b8084116132a557600080fd5b60008486880960026001871981018816978890046003810283188082028403028082028403028082028403028082028403028082028403029081029092039091026000889003889004909101858311909403939093029303949094049190911702949350505050565b6000611ccf8383600160601b61325f565b600064ffffffffff821661336f5760405162461bcd60e51b81526020600482015260176024820152765242544c5f503a2074617267657420697320656d70747960481b604482015260640161075e565b64ffffffffff8281166000908152600185016020526040902054600160281b900416156133ca5764ffffffffff80831660009081526001850160205260409020546133c3918591600160281b900416614062565b90506116f3565b5064ffffffffff8082166000908152600184016020526040902054165b64ffffffffff811615801590613420575064ffffffffff8181166000908152600185016020526040902054600160281b90048116908316145b156116f35764ffffffffff8082166000908152600185016020526040902054919250166133e7565b60008262ffffff168262ffffff1611156134a45760405162461bcd60e51b815260206004820152601e60248201527f506572704d6174683a207375627472616374696f6e206f766572666c6f770000604482015260640161075e565b611ccf8284615c48565b6000611ccf838362ffffff16620f424061325f565b6000611ccf82846158b2565b6000611ccf8284615bf1565b6000806134e986868661325f565b905060018360028111156134ff576134ff615c64565b14801561351c575060008480613517576135176159b5565b868809115b156130e7576132556001826158b2565b6000611ccf83620f42408462ffffff1660016134db565b6000611ccf83620f42408462ffffff1661325f565b6000826003015460000361356e575060006116f3565b6000613595600160601b61358f8660020154600160601b886003015461325f565b906134cf565b905060006135a4846001615c7a565b63ffffffff1690506130e76135c282846140bc90919063ffffffff16565b86546123659063ffffffff88168561325f565b60006135ea8360000154846001015484612171565b8251602084015185546001870154606087015194955061360a94866140c8565b60018501559092555090565b60008161222c600482016001878761414a565b6000816122ad60048201856141df565b806136486004820182856142ee565b505050565b64ffffffffff85166136995760405162461bcd60e51b81526020600482015260156024820152745242544c5f524c3a206b657920697320656d70747960581b604482015260640161075e565b6136a3868661432f565b6136e85760405162461bcd60e51b81526020600482015260166024820152751490951317d4930e881ad95e481b9bdd08195e1a5cdd60521b604482015260640161075e565b6040805160808082018352885464ffffffffff908116835288166020830152918101919091526060810182905261372390879086868661437a565b50865464ffffffffff91821664ffffffffff19918216811789556000908152600189016020526040808220805490931690925597549091168752909520805460ff60781b191690555050505050565b60008161222c8183878761414a565b6000816122ad81856141df565b806136488180856142ee565b64ffffffffff8316156137dc576137b583828463ffffffff16565b6137dc5764ffffffffff92831660009081526001850160205260409020549092169161379a565b50505050565b60008183101561237a5781611ccf565b60008060008042905060006138148760020154836134cf90919063ffffffff16565b905080600003613830576000806000945094509450505061179a565b600061383f8760000151613bac565b905060006138508860200151613bac565b905060006138618960000151613c72565b905060006138728a60200151613c72565b8b54909150841480156138885750828b60010154145b80613891575083155b8061389a575082155b806138a85750604d60ff8316115b806138b65750604d60ff8216115b156138d157600080600098509850985050505050505061179a565b6138e5858b6080015163ffffffff1661236b565b94506138f0856145a8565b9750613903828286868e60400151613d38565b9650600061392a6139258c60600151600160601b6134ae90919063ffffffff16565b613a92565b9050613948613939828a61460d565b61394283615c97565b9061461c565b975061397161395687613a92565b8c60a0015163ffffffff168a613b089092919063ffffffff16565b948c55505050600189015560028801929092555092509250925092565b8060000361399a575050565b60006139a582613db8565b90506000821315613a0857600183015460006139c68284600160601b61325f565b90506139d282826134cf565b85600101819055506139fb6139f082600160601b886002015461325f565b6004870154906134c3565b600486015550613a5a9050565b82546000613a1f82846121bc600160601b826134c3565b9050613a2b82826134cf565b85556002850154613a5290613a47908390600160601b9061325f565b6003870154906134c3565b600386015550505b613a858360050154613a7b613a76856129ec600160601b613a92565b61462c565b600160601b61325f565b8360050181905550505050565b60006001600160ff1b03821115610a845760405162461bcd60e51b815260206004820152602860248201527f53616665436173743a2076616c756520646f65736e27742066697420696e2061604482015267371034b73a191a9b60c11b606482015260840161075e565b6000611ccf8284615cb3565b60008060008512613b195784613b22565b613b228561467e565b90506000808512613b335784613b3c565b613b3c8561467e565b905060008087128015613b4f5750600086135b80613b655750600087138015613b655750600086125b613b70576000613b73565b60015b90506000613b8284848861325f565b905081613b9757613b9281613a92565b613ba0565b613ba0816146dc565b98975050505050505050565b60006001600160a01b038216613bc457506001919050565b60408051600481526024810182526020810180516001600160e01b0316634c6afee560e11b179052905160009081906001600160a01b03861690613c09908590615cd3565b600060405180830381855afa9150503d8060008114613c44576040519150601f19603f3d011682016040523d82523d6000602084013e613c49565b606091505b509150915081613c5e57506000949350505050565b808060200190518101906130e79190615978565b60006001600160a01b038216613c8a57506000919050565b60408051600481526024810182526020810180516001600160e01b031663313ce56760e01b179052905160009081906001600160a01b03861690613ccf908590615cd3565b600060405180830381855afa9150503d8060008114613d0a576040519150601f19603f3d011682016040523d82523d6000602084013e613d0f565b606091505b509150915081613d24575060ff949350505050565b808060200190518101906130e79190615cef565b60008160ff8716151580613d4d575084600114155b15613d6a57613d6781613d6189600a615df6565b8761325f565b90505b60ff8616151580613d7c575083600114155b15613d9457613d9181856121bc89600a615df6565b90505b613dad613da4600160601b613a92565b6129ec83613a92565b979650505050505050565b600080821215613dd357613dce613a768361467e565b6116f3565b6116f38261462c565b6000611ccf8284615e05565b600081600003613dfa57506000919050565b600182608081901c15613e125760409190911b9060801c5b604081901c15613e275760209190911b9060401c5b602081901c15613e3c5760109190911b9060201c5b601081901c15613e515760089190911b9060101c5b600881901c15613e665760049190911b9060081c5b600481901c15613e7b5760029190911b9060041c5b600281901c15613e8d57600182901b91505b6001828581613e9e57613e9e6159b5565b048301901c91506001828581613eb657613eb66159b5565b048301901c91506001828581613ece57613ece6159b5565b048301901c91506001828581613ee657613ee66159b5565b048301901c91506001828581613efe57613efe6159b5565b048301901c91506001828581613f1657613f166159b5565b048301901c91506001828581613f2e57613f2e6159b5565b048301901c91506122ad82838681613f4857613f486159b5565b0461236b565b6060613f5984611b38565b613fb45760405162461bcd60e51b815260206004820152602660248201527f416464726573733a2064656c65676174652063616c6c20746f206e6f6e2d636f6044820152651b9d1c9858dd60d21b606482015260840161075e565b600080856001600160a01b031685604051613fcf9190615cd3565b600060405180830381855af49150503d806000811461400a576040519150601f19603f3d011682016040523d82523d6000602084013e61400f565b606091505b50915091506132558282866146f0565b6000611ccf838362ffffff16620f424060016134db565b6000611ccf600261405c8561358f612d99614052886004613ddc565b6123658a80613ddc565b906140bc565b60005b64ffffffffff8281166000908152600185016020526040902054600160501b900416156140b65764ffffffffff9182166000908152600184016020526040902054600160501b900490911690614065565b50919050565b6000611ccf8284615e24565b600080861561410a5787156140f4576140e186856134c3565b91506140ed85846134cf565b905061413f565b6140fe86846134cf565b91506140ed85856134c3565b87156141265761411a86846134c3565b91506140ed85856134cf565b61413086856134cf565b915061413c85846134c3565b90505b965096945050505050565b64ffffffffff828116600090815260018601602052604080822054928416825281205490916001600160801b03600160801b9182900481169291909104168082036141a9578364ffffffffff168564ffffffffff1610925050506122ad565b856141c857806001600160801b0316826001600160801b031610613dad565b6001600160801b0390811691161195945050505050565b64ffffffffff808216600090815260028085016020818152604080852060018082015495820154818b01855283882054959094529054600160501b85048816808852838820830154600160281b90960490981680885292872090910154959694959294919391928792614251916158b2565b61425b91906158b2565b905060006142698989614729565b64ffffffffff80851660009081526002808d0160205260408083208201549389168352909120015461429b91906158b2565b6142a591906158b2565b905085821480156142b557508481145b9650866142e25764ffffffffff881660009081526002808b01602052604090912060018101849055018190555b50505050505092915050565b60089091015464ffffffffff909116600090815260029092016020526040909120600301805465ffffffffffff191665ffffffffffff909216919091179055565b600064ffffffffff821615801590611ccf5750825464ffffffffff83811691161480611ccf57505064ffffffffff908116600090815260019290920160205260409091205416151590565b8351600090819064ffffffffff1661439b5750506040840151600090612a36565b855164ffffffffff166000908152600188016020526040902054600160781b900460ff166143ca5760016143cd565b60005b866040018181516143de9190615e38565b60ff169052508551602087015164ffffffffff91821691160361444657614411866000015187606001518563ffffffff16565b5050835164ffffffffff9081166000908152600187016020526040908190205490860151600160501b90910490911690612a36565b6144618660200151876000015188606001518863ffffffff16565b156145255760408051608081018252875164ffffffffff908116600090815260018b01602090815284822054600160281b900483168452808b0151909216918301919091528883015160ff16928201929092526060808901519082015281906144ce908a9089898961437a565b895164ffffffffff808216600090815260018e0160205260409081902054908d015160608e015195975093955061451a948e94889493600160501b909304909216918c91889190614770565b935093505050612a36565b61453b866000015187606001518563ffffffff16565b60408051608081018252875164ffffffffff908116600090815260018b0160209081529084902054600160501b900482168352808a0151909116908201528782015160ff16918101919091526060808801519082015261459f90889087878761437a565b91509150612a36565b600063ffffffff821115610a845760405162461bcd60e51b815260206004820152602660248201527f53616665436173743a2076616c756520646f65736e27742066697420696e203360448201526532206269747360d01b606482015260840161075e565b600081831261237a5781611ccf565b60008183121561237a5781611ccf565b600080821215610a845760405162461bcd60e51b815260206004820181905260248201527f53616665436173743a2076616c7565206d75737420626520706f736974697665604482015260640161075e565b6000600160ff1b82136146d35760405162461bcd60e51b815260206004820152601c60248201527f506572704d6174683a20696e76657273696f6e206f766572666c6f7700000000604482015260640161075e565b6116f382615c97565b60006146e782613a92565b6116f390615c97565b606083156146ff575081611ccf565b82511561470f5782518084602001fd5b8160405162461bcd60e51b815260040161075e9190615712565b64ffffffffff8116600090815260018301602090815260408083205460028601909252822054600160801b9091046001600160801b0316906122ad9082600160601b61325f565b6000808360ff168560ff161115614874576147d38a6040518060c001604052808c64ffffffffff1681526020018b64ffffffffff1681526020018a64ffffffffff1681526020018860ff1681526020018760ff1681526020018681525088614a64565b5064ffffffffff8116600090815260018c016020526040902054909250859150600160781b900460ff168015614838575064ffffffffff828116600090815260018c01602052604080822054600160501b900490921681522054600160781b900460ff165b1561486f5764ffffffffff821660009081526001808c016020526040909120805460ff60781b1916905561486c9082615e51565b90505b614a57565b8360ff168560ff16101561496b576148d48a6040518060c001604052808c64ffffffffff1681526020018b64ffffffffff1681526020018a64ffffffffff1681526020018860ff1681526020018760ff1681526020018681525088614d5a565b64ffffffffff8116600090815260018c016020526040902054909250849150600160781b900460ff168015614838575064ffffffffff828116600090815260018c01602052604080822054600160281b900490921681522054600160781b900460ff161561486f5764ffffffffff821660009081526001808c016020526040909120805460ff60781b1916905561486c9082615e51565b64ffffffffff8916600090815260018b016020526040812054600160781b900460ff161580156149bb575064ffffffffff8816600090815260018c016020526040902054600160781b900460ff16155b64ffffffffff8a8116600090815260018e016020526040902080546fff0000000000ffffffffff00000000001916600160781b8415150264ffffffffff60281b191617600160281b8e8416021764ffffffffff60501b1916600160501b928c16929092029190911790559050614a35898563ffffffff8a16565b508881614a43576001614a46565b60005b614a509088615e51565b9093509150505b9850989650505050505050565b815164ffffffffff1660009081526001840160205260408120548190600160781b900460ff16158015614aa45750836080015160ff16846060015160ff16145b15614b56576020808501805164ffffffffff9081166000908152600189019093526040808420805460ff60781b1916600160781b17905587518351831685528185208054918416600160281b0264ffffffffff60281b19909216919091179055808801518351831685529320805493909116600160501b0264ffffffffff60501b19909316929092179091555160a0850151614b44919063ffffffff8616565b505050602082015160608301516112fb565b6040805160c081018252855164ffffffffff908116600090815260018901602081815285832054600160501b900484168552808a0151841681860152898601518416858701528951909316825290915291822054614bff9188916060820190600160781b900460ff16614bca576001614bcd565b60005b8960600151614bdc9190615e38565b60ff168152602001886080015160ff1681526020018860a0015181525086614a64565b50855164ffffffffff9081166000908152600189016020526040808220805464ffffffffff60501b1916600160501b868616021790558851909216815220805464ffffffffff19169055855160a0870151919250614c609163ffffffff8716565b50845164ffffffffff166000908152600187016020526040902054600160781b900460ff16158015614cb1575064ffffffffff81166000908152600187016020526040902054600160781b900460ff165b8015614cec575064ffffffffff818116600090815260018801602052604080822054600160501b900490921681522054600160781b900460ff165b15614d475764ffffffffff808216600090815260018801602052604080822054600160501b9004909216815220805460ff60781b19169055845160a0860151614d389188918790615118565b606085015190925090506112fb565b5050825160609093015192949293505050565b60408281015164ffffffffff1660009081526001850160205290812054600160781b900460ff16158015614d9b5750826080015160ff16836060015160ff16145b15614ed0576020808401805164ffffffffff9081166000908152600188019093526040808420805460ff60781b1916600160781b17905586518351831685528185208054918416600160281b0264ffffffffff60281b19909216919091179055808701519251821684529092208054918316600160501b0264ffffffffff60501b1990921691909117905583511615614e6557602083810151845164ffffffffff9081166000908152600188019093526040909220805464ffffffffff1916929091169190911790555b604083015164ffffffffff1615614eae5760208381015160408086015164ffffffffff9081166000908152600189019094529220805464ffffffffff1916929091169190911790555b614ec483602001518460a001518463ffffffff16565b50506020820151611ccf565b6040805160c081018252845164ffffffffff908116825260208087015182168184015286840180518316600090815260018a0180845286822054600160281b90048516868801526060808b015160ff908116918801919091529251909416815292909152928120549092614f8292889290916080830191600160781b900416614f5a576001614f5d565b60005b8860800151614f6c9190615e38565b60ff1681526020018760a0015181525085614d5a565b6040858101805164ffffffffff908116600090815260018a01602052838120805464ffffffffff60281b1916600160281b878516908102919091179091559251909116815291909120805464ffffffffff19169055909150156150135760408481015164ffffffffff83811660009081526001890160205292909220805464ffffffffff1916929091169190911790555b61502984604001518560a001518563ffffffff16565b5060408481015164ffffffffff166000908152600187016020522054600160781b900460ff1615801561507b575064ffffffffff81166000908152600186016020526040902054600160781b900460ff165b80156150b6575064ffffffffff818116600090815260018701602052604080822054600160281b900490921681522054600160781b900460ff165b1561510c5764ffffffffff808216600090815260018701602052604080822054600160281b90049092168152819020805460ff60781b1916905584015160a085015161510591879186906152f8565b9050611ccf565b50505060400151919050565b64ffffffffff80841660008181526001870160205260408082208054600160501b80820487168086529385205495909452600160281b909404851692830264ffffffffff60501b198516179055929190911690801561519e5764ffffffffff81811660009081526001890160205260409020805464ffffffffff19169188169190911790555b64ffffffffff83811660009081526001890160205260409020805464ffffffffff191691841691821790556151e757865464ffffffffff191664ffffffffff8416178755615286565b64ffffffffff8083166000908152600189016020526040902054600160281b900481169087160361524e5764ffffffffff808316600090815260018901602052604090208054918516600160281b0264ffffffffff60281b19909216919091179055615286565b64ffffffffff808316600090815260018901602052604090208054918516600160501b0264ffffffffff60501b199092169190911790555b64ffffffffff838116600081815260018a016020526040808220805464ffffffffff60281b1916600160281b958c1695860217905592815291909120805464ffffffffff191690911790556152df868563ffffffff8816565b506152ee83858763ffffffff16565b5050505050505050565b64ffffffffff80841660008181526001870160205260408082208054600160281b80820487168086529385205495909452600160501b909404851692830264ffffffffff60281b198516179055929190911690801561537e5764ffffffffff81811660009081526001890160205260409020805464ffffffffff19169188169190911790555b64ffffffffff83811660009081526001890160205260409020805464ffffffffff191691841691821790556153c757865464ffffffffff191664ffffffffff8416178755615466565b64ffffffffff8083166000908152600189016020526040902054600160501b900481169087160361542e5764ffffffffff808316600090815260018901602052604090208054918516600160501b0264ffffffffff60501b19909216919091179055615466565b64ffffffffff808316600090815260018901602052604090208054918516600160281b0264ffffffffff60281b199092169190911790555b64ffffffffff838116600081815260018a016020526040808220805464ffffffffff60501b1916600160501b958c1695860217905592815291909120805464ffffffffff191690911790556152df868563ffffffff8816565b803580151581146154cf57600080fd5b919050565b600080600080608085870312156154ea57600080fd5b6154f3856154bf565b9350615501602086016154bf565b925060408501359150615516606086016154bf565b905092959194509250565b6000606082840312156140b657600080fd5b64ffffffffff81168114611b3557600080fd5b6000806040838503121561555957600080fd5b615562836154bf565b9150602083013561557281615533565b809150509250929050565b60008060006060848603121561559257600080fd5b61559b846154bf565b95602085013595506040909401359392505050565b62ffffff958616815293851660208501529184166040840152909216606082015263ffffffff909116608082015260a00190565b6000806000606084860312156155f957600080fd5b615602846154bf565b9250615610602085016154bf565b9150604084013590509250925092565b62ffffff81168114611b3557600080fd5b60006020828403121561564357600080fd5b8135611ccf81615620565b60006020828403121561566057600080fd5b5035919050565b63ffffffff81168114611b3557600080fd5b60006020828403121561568b57600080fd5b8135611ccf81615667565b6000806000606084860312156156ab57600080fd5b505081359360208301359350604090920135919050565b60005b838110156156dd5781810151838201526020016156c5565b50506000910152565b600081518084526156fe8160208601602086016156c2565b601f01601f19169290920160200192915050565b602081526000611ccf60208301846156e6565b6000806040838503121561573857600080fd5b50508035926020909101359150565b6000806020838503121561575a57600080fd5b823567ffffffffffffffff8082111561577257600080fd5b818501915085601f83011261578657600080fd5b81358181111561579557600080fd5b8660208260051b85010111156157aa57600080fd5b60209290920196919550909350505050565b6000602080830181845280855180835260408601915060408160051b870101925083870160005b8281101561581157603f198886030184526157ff8583516156e6565b945092850192908501906001016157e3565b5092979650505050505050565b600060a082840312156140b657600080fd5b60008060006060848603121561584557600080fd5b61584e846154bf565b925061585c602085016154bf565b915061586a604085016154bf565b90509250925092565b60006020828403121561588557600080fd5b81356001600160a01b0381168114611ccf57600080fd5b634e487b7160e01b600052601160045260246000fd5b808201808211156116f3576116f361589c565b6020808252601f908201527f5265656e7472616e637947756172643a207265656e7472616e742063616c6c00604082015260600190565b813561590781615620565b815462ffffff191662ffffff821617825550602082013561592781615620565b815465ffffff0000001916601882901b65ffffff0000001617825550604082013561595181615667565b815469ffffffff000000000000191660309190911b69ffffffff0000000000001617905550565b60006020828403121561598a57600080fd5b5051919050565b600080604083850312156159a457600080fd5b505080516020909101519092909150565b634e487b7160e01b600052601260045260246000fd5b600062ffffff808416806159e1576159e16159b5565b92169190910492915050565b6000602082840312156159ff57600080fd5b8151611ccf81615533565b600181811c90821680615a1e57607f821691505b6020821081036140b657634e487b7160e01b600052602260045260246000fd5b634e487b7160e01b600052604160045260246000fd5b634e487b7160e01b600052603260045260246000fd5b6000808335601e19843603018112615a8157600080fd5b83018035915067ffffffffffffffff821115615a9c57600080fd5b602001915036819003821315610c0c57600080fd5b600060018201615ac357615ac361589c565b5060010190565b600080600060608486031215615adf57600080fd5b835165ffffffffffff81168114615af557600080fd5b602085015160409095015190969495509392505050565b8135615b1781615620565b815462ffffff191662ffffff8216178255506020820135615b3781615620565b815465ffffff0000001916601882901b65ffffff00000016178255506040820135615b6181615620565b815462ffffff60301b8260301b1691508162ffffff60301b1982161783556060840135615b8d81615620565b62ffffff60481b60489190911b166bffffffffffff0000000000001982168317811784556080850135615bbf81615667565b6fffffffffffffffffffff00000000000019929092169092179190911760609190911b63ffffffff60601b1617905550565b818103818111156116f3576116f361589c565b65ffffffffffff8181168382160190808211156116f1576116f161589c565b6020808252600b908201526a3732bb32b91037b1b1bab960a91b604082015260600190565b62ffffff8281168282160390808211156116f1576116f161589c565b634e487b7160e01b600052602160045260246000fd5b63ffffffff8181168382160190808211156116f1576116f161589c565b6000600160ff1b8201615cac57615cac61589c565b5060000390565b81810360008312801583831316838312821617156116f1576116f161589c565b60008251615ce58184602087016156c2565b9190910192915050565b600060208284031215615d0157600080fd5b815160ff81168114611ccf57600080fd5b600181815b80851115615d4d578160001904821115615d3357615d3361589c565b80851615615d4057918102915b93841c9390800290615d17565b509250929050565b600082615d64575060016116f3565b81615d71575060006116f3565b8160018114615d875760028114615d9157615dad565b60019150506116f3565b60ff841115615da257615da261589c565b50506001821b6116f3565b5060208310610133831016604e8410600b8410161715615dd0575081810a6116f3565b615dda8383615d12565b8060001904821115615dee57615dee61589c565b029392505050565b6000611ccf60ff841683615d55565b6000816000190483118215151615615e1f57615e1f61589c565b500290565b600082615e3357615e336159b5565b500490565b60ff82811682821603908111156116f3576116f361589c565b60ff81811683821601908111156116f3576116f361589c56fe416464726573733a206c6f772d6c6576656c2064656c65676174652063616c6c206661696c6564a264697066735822122016b53443987350ff9d102e004dbd0424e00e4df8758302be74394b36f30ba96a64736f6c63430008100033",
  "libraries": {
    "OrderBookLibrary": "0xC91bD33af94343d14e313602345d901819F3959d"
  },
  "devdoc": {
    "kind": "dev",
    "methods": {
      "multicall(bytes[])": {
        "details": "Receives and executes a batch of function calls on this contract."
      },
      "owner()": {
        "details": "Returns the address of the current owner."
      },
      "renounceOwnership()": {
        "details": "Leaves the contract without owner. It will not be possible to call `onlyOwner` functions anymore. Can only be called by the current owner. NOTE: Renouncing ownership will leave the contract without an owner, thereby removing any functionality that is only available to the owner."
      },
      "transferOwnership(address)": {
        "details": "Transfers ownership of the contract to a new account (`newOwner`). Can only be called by the current owner."
      }
    },
    "version": 1
  },
  "userdoc": {
    "kind": "user",
    "methods": {},
    "version": 1
  },
  "storageLayout": {
    "storage": [
      {
        "astId": 925,
        "contract": "contracts/PerpdexMarket.sol:PerpdexMarket",
        "label": "_status",
        "offset": 0,
        "slot": "0",
        "type": "t_uint256"
      },
      {
        "astId": 550,
        "contract": "contracts/PerpdexMarket.sol:PerpdexMarket",
        "label": "_owner",
        "offset": 0,
        "slot": "1",
        "type": "t_address"
      },
      {
        "astId": 7769,
        "contract": "contracts/PerpdexMarket.sol:PerpdexMarket",
        "label": "symbol",
        "offset": 0,
        "slot": "2",
        "type": "t_string_storage"
      },
      {
        "astId": 7778,
        "contract": "contracts/PerpdexMarket.sol:PerpdexMarket",
        "label": "poolInfo",
        "offset": 0,
        "slot": "3",
        "type": "t_struct(PoolInfo)13212_storage"
      },
      {
        "astId": 7781,
        "contract": "contracts/PerpdexMarket.sol:PerpdexMarket",
        "label": "fundingInfo",
        "offset": 0,
        "slot": "9",
        "type": "t_struct(FundingInfo)13199_storage"
      },
      {
        "astId": 7784,
        "contract": "contracts/PerpdexMarket.sol:PerpdexMarket",
        "label": "priceLimitInfo",
        "offset": 0,
        "slot": "12",
        "type": "t_struct(PriceLimitInfo)13219_storage"
      },
      {
        "astId": 7787,
        "contract": "contracts/PerpdexMarket.sol:PerpdexMarket",
        "label": "_orderBookInfo",
        "offset": 0,
        "slot": "15",
        "type": "t_struct(OrderBookInfo)13267_storage"
      },
      {
        "astId": 7790,
        "contract": "contracts/PerpdexMarket.sol:PerpdexMarket",
        "label": "poolFeeInfo",
        "offset": 0,
        "slot": "25",
        "type": "t_struct(PoolFeeInfo)13276_storage"
      },
      {
        "astId": 7793,
        "contract": "contracts/PerpdexMarket.sol:PerpdexMarket",
        "label": "fundingMaxPremiumRatio",
        "offset": 0,
        "slot": "29",
        "type": "t_uint24"
      },
      {
        "astId": 7796,
        "contract": "contracts/PerpdexMarket.sol:PerpdexMarket",
        "label": "fundingMaxElapsedSec",
        "offset": 3,
        "slot": "29",
        "type": "t_uint32"
      },
      {
        "astId": 7799,
        "contract": "contracts/PerpdexMarket.sol:PerpdexMarket",
        "label": "fundingRolloverSec",
        "offset": 7,
        "slot": "29",
        "type": "t_uint32"
      },
      {
        "astId": 7810,
        "contract": "contracts/PerpdexMarket.sol:PerpdexMarket",
        "label": "priceLimitConfig",
        "offset": 0,
        "slot": "30",
        "type": "t_struct(PriceLimitConfig)13230_storage"
      },
      {
        "astId": 7819,
        "contract": "contracts/PerpdexMarket.sol:PerpdexMarket",
        "label": "poolFeeConfig",
        "offset": 0,
        "slot": "31",
        "type": "t_struct(PoolFeeConfig)13283_storage"
      }
    ],
    "types": {
      "t_address": {
        "encoding": "inplace",
        "label": "address",
        "numberOfBytes": "20"
      },
      "t_bool": {
        "encoding": "inplace",
        "label": "bool",
        "numberOfBytes": "1"
      },
      "t_mapping(t_uint40,t_struct(Node)20677_storage)": {
        "encoding": "mapping",
        "key": "t_uint40",
        "label": "mapping(uint40 => struct BokkyPooBahsRedBlackTreeLibrary.Node)",
        "numberOfBytes": "32",
        "value": "t_struct(Node)20677_storage"
      },
      "t_mapping(t_uint40,t_struct(OrderInfo)13239_storage)": {
        "encoding": "mapping",
        "key": "t_uint40",
        "label": "mapping(uint40 => struct MarketStructs.OrderInfo)",
        "numberOfBytes": "32",
        "value": "t_struct(OrderInfo)13239_storage"
      },
      "t_mapping(t_uint48,t_struct(ExecutionInfo)13253_storage)": {
        "encoding": "mapping",
        "key": "t_uint48",
        "label": "mapping(uint48 => struct MarketStructs.ExecutionInfo)",
        "numberOfBytes": "32",
        "value": "t_struct(ExecutionInfo)13253_storage"
      },
      "t_string_storage": {
        "encoding": "bytes",
        "label": "string",
        "numberOfBytes": "32"
      },
      "t_struct(ExecutionInfo)13253_storage": {
        "encoding": "inplace",
        "label": "struct MarketStructs.ExecutionInfo",
        "members": [
          {
            "astId": 13252,
            "contract": "contracts/PerpdexMarket.sol:PerpdexMarket",
            "label": "baseBalancePerShareX96",
            "offset": 0,
            "slot": "0",
            "type": "t_uint256"
          }
        ],
        "numberOfBytes": "32"
      },
      "t_struct(FundingInfo)13199_storage": {
        "encoding": "inplace",
        "label": "struct MarketStructs.FundingInfo",
        "members": [
          {
            "astId": 13194,
            "contract": "contracts/PerpdexMarket.sol:PerpdexMarket",
            "label": "prevIndexPriceBase",
            "offset": 0,
            "slot": "0",
            "type": "t_uint256"
          },
          {
            "astId": 13196,
            "contract": "contracts/PerpdexMarket.sol:PerpdexMarket",
            "label": "prevIndexPriceQuote",
            "offset": 0,
            "slot": "1",
            "type": "t_uint256"
          },
          {
            "astId": 13198,
            "contract": "contracts/PerpdexMarket.sol:PerpdexMarket",
            "label": "prevIndexPriceTimestamp",
            "offset": 0,
            "slot": "2",
            "type": "t_uint256"
          }
        ],
        "numberOfBytes": "96"
      },
      "t_struct(Node)20677_storage": {
        "encoding": "inplace",
        "label": "struct BokkyPooBahsRedBlackTreeLibrary.Node",
        "members": [
          {
            "astId": 20668,
            "contract": "contracts/PerpdexMarket.sol:PerpdexMarket",
            "label": "parent",
            "offset": 0,
            "slot": "0",
            "type": "t_uint40"
          },
          {
            "astId": 20670,
            "contract": "contracts/PerpdexMarket.sol:PerpdexMarket",
            "label": "left",
            "offset": 5,
            "slot": "0",
            "type": "t_uint40"
          },
          {
            "astId": 20672,
            "contract": "contracts/PerpdexMarket.sol:PerpdexMarket",
            "label": "right",
            "offset": 10,
            "slot": "0",
            "type": "t_uint40"
          },
          {
            "astId": 20674,
            "contract": "contracts/PerpdexMarket.sol:PerpdexMarket",
            "label": "red",
            "offset": 15,
            "slot": "0",
            "type": "t_bool"
          },
          {
            "astId": 20676,
            "contract": "contracts/PerpdexMarket.sol:PerpdexMarket",
            "label": "userData",
            "offset": 16,
            "slot": "0",
            "type": "t_uint128"
          }
        ],
        "numberOfBytes": "32"
      },
      "t_struct(OrderBookInfo)13267_storage": {
        "encoding": "inplace",
        "label": "struct MarketStructs.OrderBookInfo",
        "members": [
          {
            "astId": 13256,
            "contract": "contracts/PerpdexMarket.sol:PerpdexMarket",
            "label": "ask",
            "offset": 0,
            "slot": "0",
            "type": "t_struct(OrderBookSideInfo)13250_storage"
          },
          {
            "astId": 13259,
            "contract": "contracts/PerpdexMarket.sol:PerpdexMarket",
            "label": "bid",
            "offset": 0,
            "slot": "4",
            "type": "t_struct(OrderBookSideInfo)13250_storage"
          },
          {
            "astId": 13261,
            "contract": "contracts/PerpdexMarket.sol:PerpdexMarket",
            "label": "seqExecutionId",
            "offset": 0,
            "slot": "8",
            "type": "t_uint48"
          },
          {
            "astId": 13266,
            "contract": "contracts/PerpdexMarket.sol:PerpdexMarket",
            "label": "executionInfos",
            "offset": 0,
            "slot": "9",
            "type": "t_mapping(t_uint48,t_struct(ExecutionInfo)13253_storage)"
          }
        ],
        "numberOfBytes": "320"
      },
      "t_struct(OrderBookSideInfo)13250_storage": {
        "encoding": "inplace",
        "label": "struct MarketStructs.OrderBookSideInfo",
        "members": [
          {
            "astId": 13242,
            "contract": "contracts/PerpdexMarket.sol:PerpdexMarket",
            "label": "tree",
            "offset": 0,
            "slot": "0",
            "type": "t_struct(Tree)20685_storage"
          },
          {
            "astId": 13247,
            "contract": "contracts/PerpdexMarket.sol:PerpdexMarket",
            "label": "orderInfos",
            "offset": 0,
            "slot": "2",
            "type": "t_mapping(t_uint40,t_struct(OrderInfo)13239_storage)"
          },
          {
            "astId": 13249,
            "contract": "contracts/PerpdexMarket.sol:PerpdexMarket",
            "label": "seqKey",
            "offset": 0,
            "slot": "3",
            "type": "t_uint40"
          }
        ],
        "numberOfBytes": "128"
      },
      "t_struct(OrderInfo)13239_storage": {
        "encoding": "inplace",
        "label": "struct MarketStructs.OrderInfo",
        "members": [
          {
            "astId": 13232,
            "contract": "contracts/PerpdexMarket.sol:PerpdexMarket",
            "label": "base",
            "offset": 0,
            "slot": "0",
            "type": "t_uint256"
          },
          {
            "astId": 13234,
            "contract": "contracts/PerpdexMarket.sol:PerpdexMarket",
            "label": "baseSum",
            "offset": 0,
            "slot": "1",
            "type": "t_uint256"
          },
          {
            "astId": 13236,
            "contract": "contracts/PerpdexMarket.sol:PerpdexMarket",
            "label": "quoteSum",
            "offset": 0,
            "slot": "2",
            "type": "t_uint256"
          },
          {
            "astId": 13238,
            "contract": "contracts/PerpdexMarket.sol:PerpdexMarket",
            "label": "executionId",
            "offset": 0,
            "slot": "3",
            "type": "t_uint48"
          }
        ],
        "numberOfBytes": "128"
      },
      "t_struct(PoolFeeConfig)13283_storage": {
        "encoding": "inplace",
        "label": "struct MarketStructs.PoolFeeConfig",
        "members": [
          {
            "astId": 13278,
            "contract": "contracts/PerpdexMarket.sol:PerpdexMarket",
            "label": "fixedFeeRatio",
            "offset": 0,
            "slot": "0",
            "type": "t_uint24"
          },
          {
            "astId": 13280,
            "contract": "contracts/PerpdexMarket.sol:PerpdexMarket",
            "label": "atrFeeRatio",
            "offset": 3,
            "slot": "0",
            "type": "t_uint24"
          },
          {
            "astId": 13282,
            "contract": "contracts/PerpdexMarket.sol:PerpdexMarket",
            "label": "atrEmaBlocks",
            "offset": 6,
            "slot": "0",
            "type": "t_uint32"
          }
        ],
        "numberOfBytes": "32"
      },
      "t_struct(PoolFeeInfo)13276_storage": {
        "encoding": "inplace",
        "label": "struct MarketStructs.PoolFeeInfo",
        "members": [
          {
            "astId": 13269,
            "contract": "contracts/PerpdexMarket.sol:PerpdexMarket",
            "label": "atrX96",
            "offset": 0,
            "slot": "0",
            "type": "t_uint256"
          },
          {
            "astId": 13271,
            "contract": "contracts/PerpdexMarket.sol:PerpdexMarket",
            "label": "referenceTimestamp",
            "offset": 0,
            "slot": "1",
            "type": "t_uint256"
          },
          {
            "astId": 13273,
            "contract": "contracts/PerpdexMarket.sol:PerpdexMarket",
            "label": "currentHighX96",
            "offset": 0,
            "slot": "2",
            "type": "t_uint256"
          },
          {
            "astId": 13275,
            "contract": "contracts/PerpdexMarket.sol:PerpdexMarket",
            "label": "currentLowX96",
            "offset": 0,
            "slot": "3",
            "type": "t_uint256"
          }
        ],
        "numberOfBytes": "128"
      },
      "t_struct(PoolInfo)13212_storage": {
        "encoding": "inplace",
        "label": "struct MarketStructs.PoolInfo",
        "members": [
          {
            "astId": 13201,
            "contract": "contracts/PerpdexMarket.sol:PerpdexMarket",
            "label": "base",
            "offset": 0,
            "slot": "0",
            "type": "t_uint256"
          },
          {
            "astId": 13203,
            "contract": "contracts/PerpdexMarket.sol:PerpdexMarket",
            "label": "quote",
            "offset": 0,
            "slot": "1",
            "type": "t_uint256"
          },
          {
            "astId": 13205,
            "contract": "contracts/PerpdexMarket.sol:PerpdexMarket",
            "label": "totalLiquidity",
            "offset": 0,
            "slot": "2",
            "type": "t_uint256"
          },
          {
            "astId": 13207,
            "contract": "contracts/PerpdexMarket.sol:PerpdexMarket",
            "label": "cumBasePerLiquidityX96",
            "offset": 0,
            "slot": "3",
            "type": "t_uint256"
          },
          {
            "astId": 13209,
            "contract": "contracts/PerpdexMarket.sol:PerpdexMarket",
            "label": "cumQuotePerLiquidityX96",
            "offset": 0,
            "slot": "4",
            "type": "t_uint256"
          },
          {
            "astId": 13211,
            "contract": "contracts/PerpdexMarket.sol:PerpdexMarket",
            "label": "baseBalancePerShareX96",
            "offset": 0,
            "slot": "5",
            "type": "t_uint256"
          }
        ],
        "numberOfBytes": "192"
      },
      "t_struct(PriceLimitConfig)13230_storage": {
        "encoding": "inplace",
        "label": "struct MarketStructs.PriceLimitConfig",
        "members": [
          {
            "astId": 13221,
            "contract": "contracts/PerpdexMarket.sol:PerpdexMarket",
            "label": "normalOrderRatio",
            "offset": 0,
            "slot": "0",
            "type": "t_uint24"
          },
          {
            "astId": 13223,
            "contract": "contracts/PerpdexMarket.sol:PerpdexMarket",
            "label": "liquidationRatio",
            "offset": 3,
            "slot": "0",
            "type": "t_uint24"
          },
          {
            "astId": 13225,
            "contract": "contracts/PerpdexMarket.sol:PerpdexMarket",
            "label": "emaNormalOrderRatio",
            "offset": 6,
            "slot": "0",
            "type": "t_uint24"
          },
          {
            "astId": 13227,
            "contract": "contracts/PerpdexMarket.sol:PerpdexMarket",
            "label": "emaLiquidationRatio",
            "offset": 9,
            "slot": "0",
            "type": "t_uint24"
          },
          {
            "astId": 13229,
            "contract": "contracts/PerpdexMarket.sol:PerpdexMarket",
            "label": "emaSec",
            "offset": 12,
            "slot": "0",
            "type": "t_uint32"
          }
        ],
        "numberOfBytes": "32"
      },
      "t_struct(PriceLimitInfo)13219_storage": {
        "encoding": "inplace",
        "label": "struct MarketStructs.PriceLimitInfo",
        "members": [
          {
            "astId": 13214,
            "contract": "contracts/PerpdexMarket.sol:PerpdexMarket",
            "label": "referencePrice",
            "offset": 0,
            "slot": "0",
            "type": "t_uint256"
          },
          {
            "astId": 13216,
            "contract": "contracts/PerpdexMarket.sol:PerpdexMarket",
            "label": "referenceTimestamp",
            "offset": 0,
            "slot": "1",
            "type": "t_uint256"
          },
          {
            "astId": 13218,
            "contract": "contracts/PerpdexMarket.sol:PerpdexMarket",
            "label": "emaPrice",
            "offset": 0,
            "slot": "2",
            "type": "t_uint256"
          }
        ],
        "numberOfBytes": "96"
      },
      "t_struct(Tree)20685_storage": {
        "encoding": "inplace",
        "label": "struct BokkyPooBahsRedBlackTreeLibrary.Tree",
        "members": [
          {
            "astId": 20679,
            "contract": "contracts/PerpdexMarket.sol:PerpdexMarket",
            "label": "root",
            "offset": 0,
            "slot": "0",
            "type": "t_uint40"
          },
          {
            "astId": 20684,
            "contract": "contracts/PerpdexMarket.sol:PerpdexMarket",
            "label": "nodes",
            "offset": 0,
            "slot": "1",
            "type": "t_mapping(t_uint40,t_struct(Node)20677_storage)"
          }
        ],
        "numberOfBytes": "64"
      },
      "t_uint128": {
        "encoding": "inplace",
        "label": "uint128",
        "numberOfBytes": "16"
      },
      "t_uint24": {
        "encoding": "inplace",
        "label": "uint24",
        "numberOfBytes": "3"
      },
      "t_uint256": {
        "encoding": "inplace",
        "label": "uint256",
        "numberOfBytes": "32"
      },
      "t_uint32": {
        "encoding": "inplace",
        "label": "uint32",
        "numberOfBytes": "4"
      },
      "t_uint40": {
        "encoding": "inplace",
        "label": "uint40",
        "numberOfBytes": "5"
      },
      "t_uint48": {
        "encoding": "inplace",
        "label": "uint48",
        "numberOfBytes": "6"
      }
    }
  }
}