{
  "address": "0x2a421AbB158121F8e04EA0Ca3B083adB28Cda14A",
  "abi": [
    {
      "inputs": [
        {
          "internalType": "address",
          "name": "settlementTokenArg",
          "type": "address"
        }
      ],
      "stateMutability": "nonpayable",
      "type": "constructor"
    },
    {
      "anonymous": false,
      "inputs": [
        {
          "indexed": true,
          "internalType": "address",
          "name": "trader",
          "type": "address"
        },
        {
          "indexed": false,
          "internalType": "uint256",
          "name": "amount",
          "type": "uint256"
        }
      ],
      "name": "CollateralCompensated",
      "type": "event"
    },
    {
      "anonymous": false,
      "inputs": [
        {
          "indexed": true,
          "internalType": "address",
          "name": "trader",
          "type": "address"
        },
        {
          "indexed": false,
          "internalType": "uint256",
          "name": "amount",
          "type": "uint256"
        }
      ],
      "name": "Deposited",
      "type": "event"
    },
    {
      "anonymous": false,
      "inputs": [
        {
          "indexed": false,
          "internalType": "uint24",
          "name": "value",
          "type": "uint24"
        }
      ],
      "name": "ImRatioChanged",
      "type": "event"
    },
    {
      "anonymous": false,
      "inputs": [
        {
          "indexed": true,
          "internalType": "address",
          "name": "trader",
          "type": "address"
        },
        {
          "indexed": true,
          "internalType": "address",
          "name": "market",
          "type": "address"
        },
        {
          "indexed": true,
          "internalType": "address",
          "name": "liquidator",
          "type": "address"
        },
        {
          "indexed": false,
          "internalType": "bool",
          "name": "isBid",
          "type": "bool"
        },
        {
          "indexed": false,
          "internalType": "uint256",
          "name": "orderId",
          "type": "uint256"
        }
      ],
      "name": "LimitOrderCanceled",
      "type": "event"
    },
    {
      "anonymous": false,
      "inputs": [
        {
          "indexed": true,
          "internalType": "address",
          "name": "trader",
          "type": "address"
        },
        {
          "indexed": true,
          "internalType": "address",
          "name": "market",
          "type": "address"
        },
        {
          "indexed": false,
          "internalType": "bool",
          "name": "isBid",
          "type": "bool"
        },
        {
          "indexed": false,
          "internalType": "uint256",
          "name": "base",
          "type": "uint256"
        },
        {
          "indexed": false,
          "internalType": "uint256",
          "name": "priceX96",
          "type": "uint256"
        },
        {
          "indexed": false,
          "internalType": "enum PerpdexStructs.LimitOrderType",
          "name": "limitOrderType",
          "type": "uint8"
        },
        {
          "indexed": false,
          "internalType": "uint256",
          "name": "orderId",
          "type": "uint256"
        },
        {
          "indexed": false,
          "internalType": "uint256",
          "name": "baseTaker",
          "type": "uint256"
        }
      ],
      "name": "LimitOrderCreated",
      "type": "event"
    },
    {
      "anonymous": false,
      "inputs": [
        {
          "indexed": true,
          "internalType": "address",
          "name": "trader",
          "type": "address"
        },
        {
          "indexed": true,
          "internalType": "address",
          "name": "market",
          "type": "address"
        },
        {
          "indexed": false,
          "internalType": "int256",
          "name": "base",
          "type": "int256"
        },
        {
          "indexed": false,
          "internalType": "int256",
          "name": "quote",
          "type": "int256"
        },
        {
          "indexed": false,
          "internalType": "int256",
          "name": "realizedPnl",
          "type": "int256"
        }
      ],
      "name": "LimitOrderSettled",
      "type": "event"
    },
    {
      "anonymous": false,
      "inputs": [
        {
          "indexed": false,
          "internalType": "uint24",
          "name": "rewardRatio",
          "type": "uint24"
        },
        {
          "indexed": false,
          "internalType": "uint16",
          "name": "smoothEmaTime",
          "type": "uint16"
        }
      ],
      "name": "LiquidationRewardConfigChanged",
      "type": "event"
    },
    {
      "anonymous": false,
      "inputs": [
        {
          "indexed": true,
          "internalType": "address",
          "name": "trader",
          "type": "address"
        },
        {
          "indexed": true,
          "internalType": "address",
          "name": "market",
          "type": "address"
        },
        {
          "indexed": false,
          "internalType": "uint256",
          "name": "base",
          "type": "uint256"
        },
        {
          "indexed": false,
          "internalType": "uint256",
          "name": "quote",
          "type": "uint256"
        },
        {
          "indexed": false,
          "internalType": "uint256",
          "name": "liquidity",
          "type": "uint256"
        },
        {
          "indexed": false,
          "internalType": "uint256",
          "name": "cumBasePerLiquidityX96",
          "type": "uint256"
        },
        {
          "indexed": false,
          "internalType": "uint256",
          "name": "cumQuotePerLiquidityX96",
          "type": "uint256"
        }
      ],
      "name": "LiquidityAdded",
      "type": "event"
    },
    {
      "anonymous": false,
      "inputs": [
        {
          "indexed": true,
          "internalType": "address",
          "name": "trader",
          "type": "address"
        },
        {
          "indexed": true,
          "internalType": "address",
          "name": "market",
          "type": "address"
        },
        {
          "indexed": false,
          "internalType": "address",
          "name": "liquidator",
          "type": "address"
        },
        {
          "indexed": false,
          "internalType": "uint256",
          "name": "base",
          "type": "uint256"
        },
        {
          "indexed": false,
          "internalType": "uint256",
          "name": "quote",
          "type": "uint256"
        },
        {
          "indexed": false,
          "internalType": "uint256",
          "name": "liquidity",
          "type": "uint256"
        },
        {
          "indexed": false,
          "internalType": "int256",
          "name": "takerBase",
          "type": "int256"
        },
        {
          "indexed": false,
          "internalType": "int256",
          "name": "takerQuote",
          "type": "int256"
        },
        {
          "indexed": false,
          "internalType": "int256",
          "name": "realizedPnl",
          "type": "int256"
        }
      ],
      "name": "LiquidityRemoved",
      "type": "event"
    },
    {
      "anonymous": false,
      "inputs": [
        {
          "indexed": true,
          "internalType": "address",
          "name": "market",
          "type": "address"
        },
        {
          "indexed": false,
          "internalType": "enum PerpdexStructs.MarketStatus",
          "name": "status",
          "type": "uint8"
        }
      ],
      "name": "MarketStatusChanged",
      "type": "event"
    },
    {
      "anonymous": false,
      "inputs": [
        {
          "indexed": false,
          "internalType": "uint8",
          "name": "value",
          "type": "uint8"
        }
      ],
      "name": "MaxMarketsPerAccountChanged",
      "type": "event"
    },
    {
      "anonymous": false,
      "inputs": [
        {
          "indexed": false,
          "internalType": "uint8",
          "name": "value",
          "type": "uint8"
        }
      ],
      "name": "MaxOrdersPerAccountChanged",
      "type": "event"
    },
    {
      "anonymous": false,
      "inputs": [
        {
          "indexed": false,
          "internalType": "uint24",
          "name": "value",
          "type": "uint24"
        }
      ],
      "name": "MmRatioChanged",
      "type": "event"
    },
    {
      "anonymous": false,
      "inputs": [
        {
          "indexed": true,
          "internalType": "address",
          "name": "previousOwner",
          "type": "address"
        },
        {
          "indexed": true,
          "internalType": "address",
          "name": "newOwner",
          "type": "address"
        }
      ],
      "name": "OwnershipTransferred",
      "type": "event"
    },
    {
      "anonymous": false,
      "inputs": [
        {
          "indexed": true,
          "internalType": "address",
          "name": "maker",
          "type": "address"
        },
        {
          "indexed": true,
          "internalType": "address",
          "name": "market",
          "type": "address"
        },
        {
          "indexed": false,
          "internalType": "bool",
          "name": "isBid",
          "type": "bool"
        },
        {
          "indexed": false,
          "internalType": "uint256",
          "name": "basePartial",
          "type": "uint256"
        },
        {
          "indexed": false,
          "internalType": "uint256",
          "name": "quotePartial",
          "type": "uint256"
        },
        {
          "indexed": false,
          "internalType": "int256",
          "name": "partialRealizedPnl",
          "type": "int256"
        }
      ],
      "name": "PartiallyExecuted",
      "type": "event"
    },
    {
      "anonymous": false,
      "inputs": [
        {
          "indexed": true,
          "internalType": "address",
          "name": "trader",
          "type": "address"
        },
        {
          "indexed": true,
          "internalType": "address",
          "name": "market",
          "type": "address"
        },
        {
          "indexed": false,
          "internalType": "int256",
          "name": "base",
          "type": "int256"
        },
        {
          "indexed": false,
          "internalType": "int256",
          "name": "quote",
          "type": "int256"
        },
        {
          "indexed": false,
          "internalType": "int256",
          "name": "realizedPnl",
          "type": "int256"
        },
        {
          "indexed": false,
          "internalType": "uint256",
          "name": "protocolFee",
          "type": "uint256"
        },
        {
          "indexed": false,
          "internalType": "uint256",
          "name": "baseBalancePerShareX96",
          "type": "uint256"
        },
        {
          "indexed": false,
          "internalType": "uint256",
          "name": "sharePriceAfterX96",
          "type": "uint256"
        }
      ],
      "name": "PositionChanged",
      "type": "event"
    },
    {
      "anonymous": false,
      "inputs": [
        {
          "indexed": true,
          "internalType": "address",
          "name": "trader",
          "type": "address"
        },
        {
          "indexed": true,
          "internalType": "address",
          "name": "market",
          "type": "address"
        },
        {
          "indexed": true,
          "internalType": "address",
          "name": "liquidator",
          "type": "address"
        },
        {
          "indexed": false,
          "internalType": "int256",
          "name": "base",
          "type": "int256"
        },
        {
          "indexed": false,
          "internalType": "int256",
          "name": "quote",
          "type": "int256"
        },
        {
          "indexed": false,
          "internalType": "int256",
          "name": "realizedPnl",
          "type": "int256"
        },
        {
          "indexed": false,
          "internalType": "uint256",
          "name": "protocolFee",
          "type": "uint256"
        },
        {
          "indexed": false,
          "internalType": "uint256",
          "name": "baseBalancePerShareX96",
          "type": "uint256"
        },
        {
          "indexed": false,
          "internalType": "uint256",
          "name": "sharePriceAfterX96",
          "type": "uint256"
        },
        {
          "indexed": false,
          "internalType": "uint256",
          "name": "liquidationPenalty",
          "type": "uint256"
        },
        {
          "indexed": false,
          "internalType": "uint256",
          "name": "liquidationReward",
          "type": "uint256"
        },
        {
          "indexed": false,
          "internalType": "uint256",
          "name": "insuranceFundReward",
          "type": "uint256"
        }
      ],
      "name": "PositionLiquidated",
      "type": "event"
    },
    {
      "anonymous": false,
      "inputs": [
        {
          "indexed": false,
          "internalType": "uint24",
          "name": "value",
          "type": "uint24"
        }
      ],
      "name": "ProtocolFeeRatioChanged",
      "type": "event"
    },
    {
      "anonymous": false,
      "inputs": [
        {
          "indexed": true,
          "internalType": "address",
          "name": "trader",
          "type": "address"
        },
        {
          "indexed": false,
          "internalType": "uint256",
          "name": "amount",
          "type": "uint256"
        }
      ],
      "name": "ProtocolFeeTransferred",
      "type": "event"
    },
    {
      "anonymous": false,
      "inputs": [
        {
          "indexed": true,
          "internalType": "address",
          "name": "trader",
          "type": "address"
        },
        {
          "indexed": false,
          "internalType": "uint256",
          "name": "amount",
          "type": "uint256"
        }
      ],
      "name": "Withdrawn",
      "type": "event"
    },
    {
      "inputs": [
        {
          "internalType": "address",
          "name": "",
          "type": "address"
        }
      ],
      "name": "accountInfos",
      "outputs": [
        {
          "components": [
            {
              "internalType": "int256",
              "name": "collateralBalance",
              "type": "int256"
            }
          ],
          "internalType": "struct PerpdexStructs.VaultInfo",
          "name": "vaultInfo",
          "type": "tuple"
        },
        {
          "internalType": "uint8",
          "name": "limitOrderCount",
          "type": "uint8"
        }
      ],
      "stateMutability": "view",
      "type": "function"
    },
    {
      "inputs": [
        {
          "components": [
            {
              "internalType": "address",
              "name": "market",
              "type": "address"
            },
            {
              "internalType": "uint256",
              "name": "base",
              "type": "uint256"
            },
            {
              "internalType": "uint256",
              "name": "quote",
              "type": "uint256"
            },
            {
              "internalType": "uint256",
              "name": "minBase",
              "type": "uint256"
            },
            {
              "internalType": "uint256",
              "name": "minQuote",
              "type": "uint256"
            },
            {
              "internalType": "uint256",
              "name": "deadline",
              "type": "uint256"
            }
          ],
          "internalType": "struct IPerpdexExchange.AddLiquidityParams",
          "name": "params",
          "type": "tuple"
        }
      ],
      "name": "addLiquidity",
      "outputs": [
        {
          "internalType": "uint256",
          "name": "base",
          "type": "uint256"
        },
        {
          "internalType": "uint256",
          "name": "quote",
          "type": "uint256"
        },
        {
          "internalType": "uint256",
          "name": "liquidity",
          "type": "uint256"
        }
      ],
      "stateMutability": "nonpayable",
      "type": "function"
    },
    {
      "inputs": [
        {
          "components": [
            {
              "internalType": "address",
              "name": "market",
              "type": "address"
            },
            {
              "internalType": "bool",
              "name": "isBid",
              "type": "bool"
            },
            {
              "internalType": "uint40",
              "name": "orderId",
              "type": "uint40"
            },
            {
              "internalType": "uint256",
              "name": "deadline",
              "type": "uint256"
            }
          ],
          "internalType": "struct IPerpdexExchange.CancelLimitOrderParams",
          "name": "params",
          "type": "tuple"
        }
      ],
      "name": "cancelLimitOrder",
      "outputs": [],
      "stateMutability": "nonpayable",
      "type": "function"
    },
    {
      "inputs": [
        {
          "internalType": "address",
          "name": "market",
          "type": "address"
        }
      ],
      "name": "closeMarket",
      "outputs": [],
      "stateMutability": "nonpayable",
      "type": "function"
    },
    {
      "inputs": [
        {
          "components": [
            {
              "internalType": "address",
              "name": "market",
              "type": "address"
            },
            {
              "internalType": "bool",
              "name": "isBid",
              "type": "bool"
            },
            {
              "internalType": "uint256",
              "name": "base",
              "type": "uint256"
            },
            {
              "internalType": "uint256",
              "name": "priceX96",
              "type": "uint256"
            },
            {
              "internalType": "uint256",
              "name": "deadline",
              "type": "uint256"
            },
            {
              "internalType": "enum PerpdexStructs.LimitOrderType",
              "name": "limitOrderType",
              "type": "uint8"
            }
          ],
          "internalType": "struct IPerpdexExchange.CreateLimitOrderParams",
          "name": "params",
          "type": "tuple"
        }
      ],
      "name": "createLimitOrder",
      "outputs": [
        {
          "internalType": "uint40",
          "name": "orderId",
          "type": "uint40"
        },
        {
          "internalType": "uint256",
          "name": "baseTaker",
          "type": "uint256"
        },
        {
          "internalType": "uint256",
          "name": "quoteTaker",
          "type": "uint256"
        }
      ],
      "stateMutability": "nonpayable",
      "type": "function"
    },
    {
      "inputs": [
        {
          "internalType": "uint256",
          "name": "amount",
          "type": "uint256"
        }
      ],
      "name": "deposit",
      "outputs": [],
      "stateMutability": "payable",
      "type": "function"
    },
    {
      "inputs": [
        {
          "internalType": "address",
          "name": "trader",
          "type": "address"
        }
      ],
      "name": "getAccountMarkets",
      "outputs": [
        {
          "internalType": "address[]",
          "name": "",
          "type": "address[]"
        }
      ],
      "stateMutability": "view",
      "type": "function"
    },
    {
      "inputs": [
        {
          "internalType": "address",
          "name": "trader",
          "type": "address"
        }
      ],
      "name": "getCollateralBalance",
      "outputs": [
        {
          "internalType": "int256",
          "name": "",
          "type": "int256"
        }
      ],
      "stateMutability": "view",
      "type": "function"
    },
    {
      "inputs": [
        {
          "internalType": "address",
          "name": "trader",
          "type": "address"
        },
        {
          "internalType": "address",
          "name": "market",
          "type": "address"
        },
        {
          "internalType": "bool",
          "name": "isBid",
          "type": "bool"
        }
      ],
      "name": "getLimitOrderIds",
      "outputs": [
        {
          "internalType": "uint40[]",
          "name": "",
          "type": "uint40[]"
        }
      ],
      "stateMutability": "view",
      "type": "function"
    },
    {
      "inputs": [
        {
          "internalType": "address",
          "name": "trader",
          "type": "address"
        },
        {
          "internalType": "address",
          "name": "market",
          "type": "address"
        }
      ],
      "name": "getLimitOrderInfo",
      "outputs": [
        {
          "internalType": "uint40",
          "name": "askRoot",
          "type": "uint40"
        },
        {
          "internalType": "uint40",
          "name": "bidRoot",
          "type": "uint40"
        },
        {
          "internalType": "uint256",
          "name": "totalBaseAsk",
          "type": "uint256"
        },
        {
          "internalType": "uint256",
          "name": "totalBaseBid",
          "type": "uint256"
        }
      ],
      "stateMutability": "view",
      "type": "function"
    },
    {
      "inputs": [
        {
          "internalType": "address",
          "name": "trader",
          "type": "address"
        },
        {
          "internalType": "address",
          "name": "market",
          "type": "address"
        },
        {
          "internalType": "bool",
          "name": "isBid",
          "type": "bool"
        }
      ],
      "name": "getLimitOrderSummaries",
      "outputs": [
        {
          "components": [
            {
              "internalType": "uint40",
              "name": "orderId",
              "type": "uint40"
            },
            {
              "internalType": "uint256",
              "name": "base",
              "type": "uint256"
            },
            {
              "internalType": "uint256",
              "name": "priceX96",
              "type": "uint256"
            }
          ],
          "internalType": "struct PerpdexStructs.LimitOrderSummary[]",
          "name": "",
          "type": "tuple[]"
        }
      ],
      "stateMutability": "view",
      "type": "function"
    },
    {
      "inputs": [
        {
          "internalType": "address",
          "name": "trader",
          "type": "address"
        },
        {
          "internalType": "address",
          "name": "market",
          "type": "address"
        }
      ],
      "name": "getMakerInfo",
      "outputs": [
        {
          "components": [
            {
              "internalType": "uint256",
              "name": "liquidity",
              "type": "uint256"
            },
            {
              "internalType": "uint256",
              "name": "cumBaseSharePerLiquidityX96",
              "type": "uint256"
            },
            {
              "internalType": "uint256",
              "name": "cumQuotePerLiquidityX96",
              "type": "uint256"
            }
          ],
          "internalType": "struct PerpdexStructs.MakerInfo",
          "name": "",
          "type": "tuple"
        }
      ],
      "stateMutability": "view",
      "type": "function"
    },
    {
      "inputs": [
        {
          "internalType": "address",
          "name": "trader",
          "type": "address"
        },
        {
          "internalType": "address",
          "name": "market",
          "type": "address"
        }
      ],
      "name": "getOpenPositionNotional",
      "outputs": [
        {
          "internalType": "uint256",
          "name": "",
          "type": "uint256"
        }
      ],
      "stateMutability": "view",
      "type": "function"
    },
    {
      "inputs": [
        {
          "internalType": "address",
          "name": "trader",
          "type": "address"
        },
        {
          "internalType": "address",
          "name": "market",
          "type": "address"
        }
      ],
      "name": "getOpenPositionShare",
      "outputs": [
        {
          "internalType": "uint256",
          "name": "",
          "type": "uint256"
        }
      ],
      "stateMutability": "view",
      "type": "function"
    },
    {
      "inputs": [
        {
          "internalType": "address",
          "name": "trader",
          "type": "address"
        },
        {
          "internalType": "address",
          "name": "market",
          "type": "address"
        }
      ],
      "name": "getPositionNotional",
      "outputs": [
        {
          "internalType": "int256",
          "name": "",
          "type": "int256"
        }
      ],
      "stateMutability": "view",
      "type": "function"
    },
    {
      "inputs": [
        {
          "internalType": "address",
          "name": "trader",
          "type": "address"
        },
        {
          "internalType": "address",
          "name": "market",
          "type": "address"
        }
      ],
      "name": "getPositionShare",
      "outputs": [
        {
          "internalType": "int256",
          "name": "",
          "type": "int256"
        }
      ],
      "stateMutability": "view",
      "type": "function"
    },
    {
      "inputs": [
        {
          "internalType": "address",
          "name": "trader",
          "type": "address"
        },
        {
          "internalType": "address",
          "name": "market",
          "type": "address"
        }
      ],
      "name": "getTakerInfo",
      "outputs": [
        {
          "components": [
            {
              "internalType": "int256",
              "name": "baseBalanceShare",
              "type": "int256"
            },
            {
              "internalType": "int256",
              "name": "quoteBalance",
              "type": "int256"
            }
          ],
          "internalType": "struct PerpdexStructs.TakerInfo",
          "name": "",
          "type": "tuple"
        }
      ],
      "stateMutability": "view",
      "type": "function"
    },
    {
      "inputs": [
        {
          "internalType": "address",
          "name": "trader",
          "type": "address"
        },
        {
          "internalType": "address",
          "name": "market",
          "type": "address"
        }
      ],
      "name": "getTakerInfoLazy",
      "outputs": [
        {
          "components": [
            {
              "internalType": "int256",
              "name": "baseBalanceShare",
              "type": "int256"
            },
            {
              "internalType": "int256",
              "name": "quoteBalance",
              "type": "int256"
            }
          ],
          "internalType": "struct PerpdexStructs.TakerInfo",
          "name": "",
          "type": "tuple"
        }
      ],
      "stateMutability": "view",
      "type": "function"
    },
    {
      "inputs": [
        {
          "internalType": "address",
          "name": "trader",
          "type": "address"
        }
      ],
      "name": "getTotalAccountValue",
      "outputs": [
        {
          "internalType": "int256",
          "name": "",
          "type": "int256"
        }
      ],
      "stateMutability": "view",
      "type": "function"
    },
    {
      "inputs": [
        {
          "internalType": "address",
          "name": "trader",
          "type": "address"
        }
      ],
      "name": "getTotalOpenPositionNotional",
      "outputs": [
        {
          "internalType": "uint256",
          "name": "",
          "type": "uint256"
        }
      ],
      "stateMutability": "view",
      "type": "function"
    },
    {
      "inputs": [
        {
          "internalType": "address",
          "name": "trader",
          "type": "address"
        }
      ],
      "name": "getTotalPositionNotional",
      "outputs": [
        {
          "internalType": "uint256",
          "name": "",
          "type": "uint256"
        }
      ],
      "stateMutability": "view",
      "type": "function"
    },
    {
      "inputs": [
        {
          "internalType": "address",
          "name": "trader",
          "type": "address"
        }
      ],
      "name": "hasEnoughInitialMargin",
      "outputs": [
        {
          "internalType": "bool",
          "name": "",
          "type": "bool"
        }
      ],
      "stateMutability": "view",
      "type": "function"
    },
    {
      "inputs": [
        {
          "internalType": "address",
          "name": "trader",
          "type": "address"
        }
      ],
      "name": "hasEnoughMaintenanceMargin",
      "outputs": [
        {
          "internalType": "bool",
          "name": "",
          "type": "bool"
        }
      ],
      "stateMutability": "view",
      "type": "function"
    },
    {
      "inputs": [],
      "name": "imRatio",
      "outputs": [
        {
          "internalType": "uint24",
          "name": "",
          "type": "uint24"
        }
      ],
      "stateMutability": "view",
      "type": "function"
    },
    {
      "inputs": [],
      "name": "insuranceFundInfo",
      "outputs": [
        {
          "internalType": "uint256",
          "name": "balance",
          "type": "uint256"
        },
        {
          "internalType": "uint256",
          "name": "liquidationRewardBalance",
          "type": "uint256"
        }
      ],
      "stateMutability": "view",
      "type": "function"
    },
    {
      "inputs": [
        {
          "internalType": "address",
          "name": "trader",
          "type": "address"
        }
      ],
      "name": "isLiquidationFree",
      "outputs": [
        {
          "internalType": "bool",
          "name": "",
          "type": "bool"
        }
      ],
      "stateMutability": "view",
      "type": "function"
    },
    {
      "inputs": [],
      "name": "liquidationRewardConfig",
      "outputs": [
        {
          "internalType": "uint24",
          "name": "rewardRatio",
          "type": "uint24"
        },
        {
          "internalType": "uint16",
          "name": "smoothEmaTime",
          "type": "uint16"
        }
      ],
      "stateMutability": "view",
      "type": "function"
    },
    {
      "inputs": [
        {
          "internalType": "address",
          "name": "",
          "type": "address"
        }
      ],
      "name": "marketStatuses",
      "outputs": [
        {
          "internalType": "enum PerpdexStructs.MarketStatus",
          "name": "",
          "type": "uint8"
        }
      ],
      "stateMutability": "view",
      "type": "function"
    },
    {
      "inputs": [],
      "name": "maxMarketsPerAccount",
      "outputs": [
        {
          "internalType": "uint8",
          "name": "",
          "type": "uint8"
        }
      ],
      "stateMutability": "view",
      "type": "function"
    },
    {
      "inputs": [],
      "name": "maxOrdersPerAccount",
      "outputs": [
        {
          "internalType": "uint8",
          "name": "",
          "type": "uint8"
        }
      ],
      "stateMutability": "view",
      "type": "function"
    },
    {
      "inputs": [
        {
          "components": [
            {
              "internalType": "address",
              "name": "trader",
              "type": "address"
            },
            {
              "internalType": "address",
              "name": "market",
              "type": "address"
            },
            {
              "internalType": "address",
              "name": "caller",
              "type": "address"
            },
            {
              "internalType": "bool",
              "name": "isBaseToQuote",
              "type": "bool"
            },
            {
              "internalType": "bool",
              "name": "isExactInput",
              "type": "bool"
            }
          ],
          "internalType": "struct IPerpdexExchange.MaxTradeParams",
          "name": "params",
          "type": "tuple"
        }
      ],
      "name": "maxTrade",
      "outputs": [
        {
          "internalType": "uint256",
          "name": "amount",
          "type": "uint256"
        }
      ],
      "stateMutability": "view",
      "type": "function"
    },
    {
      "inputs": [],
      "name": "mmRatio",
      "outputs": [
        {
          "internalType": "uint24",
          "name": "",
          "type": "uint24"
        }
      ],
      "stateMutability": "view",
      "type": "function"
    },
    {
      "inputs": [
        {
          "internalType": "bytes[]",
          "name": "data",
          "type": "bytes[]"
        }
      ],
      "name": "multicall",
      "outputs": [
        {
          "internalType": "bytes[]",
          "name": "results",
          "type": "bytes[]"
        }
      ],
      "stateMutability": "nonpayable",
      "type": "function"
    },
    {
      "inputs": [
        {
          "internalType": "address",
          "name": "",
          "type": "address"
        },
        {
          "internalType": "bool",
          "name": "",
          "type": "bool"
        },
        {
          "internalType": "uint40",
          "name": "",
          "type": "uint40"
        }
      ],
      "name": "orderIdToTrader",
      "outputs": [
        {
          "internalType": "address",
          "name": "",
          "type": "address"
        }
      ],
      "stateMutability": "view",
      "type": "function"
    },
    {
      "inputs": [],
      "name": "owner",
      "outputs": [
        {
          "internalType": "address",
          "name": "",
          "type": "address"
        }
      ],
      "stateMutability": "view",
      "type": "function"
    },
    {
      "inputs": [
        {
          "components": [
            {
              "internalType": "address",
              "name": "trader",
              "type": "address"
            },
            {
              "internalType": "address",
              "name": "market",
              "type": "address"
            },
            {
              "internalType": "address",
              "name": "caller",
              "type": "address"
            },
            {
              "internalType": "bool",
              "name": "isBaseToQuote",
              "type": "bool"
            },
            {
              "internalType": "bool",
              "name": "isExactInput",
              "type": "bool"
            },
            {
              "internalType": "uint256",
              "name": "amount",
              "type": "uint256"
            },
            {
              "internalType": "uint256",
              "name": "oppositeAmountBound",
              "type": "uint256"
            }
          ],
          "internalType": "struct IPerpdexExchange.PreviewTradeParams",
          "name": "params",
          "type": "tuple"
        }
      ],
      "name": "previewTrade",
      "outputs": [
        {
          "internalType": "uint256",
          "name": "oppositeAmount",
          "type": "uint256"
        }
      ],
      "stateMutability": "view",
      "type": "function"
    },
    {
      "inputs": [],
      "name": "protocolFeeRatio",
      "outputs": [
        {
          "internalType": "uint24",
          "name": "",
          "type": "uint24"
        }
      ],
      "stateMutability": "view",
      "type": "function"
    },
    {
      "inputs": [],
      "name": "protocolInfo",
      "outputs": [
        {
          "internalType": "uint256",
          "name": "protocolFee",
          "type": "uint256"
        }
      ],
      "stateMutability": "view",
      "type": "function"
    },
    {
      "inputs": [],
      "name": "quoteDecimals",
      "outputs": [
        {
          "internalType": "uint8",
          "name": "",
          "type": "uint8"
        }
      ],
      "stateMutability": "view",
      "type": "function"
    },
    {
      "inputs": [
        {
          "components": [
            {
              "internalType": "address",
              "name": "trader",
              "type": "address"
            },
            {
              "internalType": "address",
              "name": "market",
              "type": "address"
            },
            {
              "internalType": "uint256",
              "name": "liquidity",
              "type": "uint256"
            },
            {
              "internalType": "uint256",
              "name": "minBase",
              "type": "uint256"
            },
            {
              "internalType": "uint256",
              "name": "minQuote",
              "type": "uint256"
            },
            {
              "internalType": "uint256",
              "name": "deadline",
              "type": "uint256"
            }
          ],
          "internalType": "struct IPerpdexExchange.RemoveLiquidityParams",
          "name": "params",
          "type": "tuple"
        }
      ],
      "name": "removeLiquidity",
      "outputs": [
        {
          "internalType": "uint256",
          "name": "base",
          "type": "uint256"
        },
        {
          "internalType": "uint256",
          "name": "quote",
          "type": "uint256"
        }
      ],
      "stateMutability": "nonpayable",
      "type": "function"
    },
    {
      "inputs": [],
      "name": "renounceOwnership",
      "outputs": [],
      "stateMutability": "nonpayable",
      "type": "function"
    },
    {
      "inputs": [
        {
          "internalType": "address",
          "name": "trader",
          "type": "address"
        },
        {
          "internalType": "int256",
          "name": "balance",
          "type": "int256"
        }
      ],
      "name": "setCollateralBalance",
      "outputs": [],
      "stateMutability": "nonpayable",
      "type": "function"
    },
    {
      "inputs": [
        {
          "internalType": "uint24",
          "name": "value",
          "type": "uint24"
        }
      ],
      "name": "setImRatio",
      "outputs": [],
      "stateMutability": "nonpayable",
      "type": "function"
    },
    {
      "inputs": [
        {
          "components": [
            {
              "internalType": "uint24",
              "name": "rewardRatio",
              "type": "uint24"
            },
            {
              "internalType": "uint16",
              "name": "smoothEmaTime",
              "type": "uint16"
            }
          ],
          "internalType": "struct PerpdexStructs.LiquidationRewardConfig",
          "name": "value",
          "type": "tuple"
        }
      ],
      "name": "setLiquidationRewardConfig",
      "outputs": [],
      "stateMutability": "nonpayable",
      "type": "function"
    },
    {
      "inputs": [
        {
          "internalType": "address",
          "name": "market",
          "type": "address"
        },
        {
          "internalType": "enum PerpdexStructs.MarketStatus",
          "name": "status",
          "type": "uint8"
        }
      ],
      "name": "setMarketStatus",
      "outputs": [],
      "stateMutability": "nonpayable",
      "type": "function"
    },
    {
      "inputs": [
        {
          "internalType": "uint8",
          "name": "value",
          "type": "uint8"
        }
      ],
      "name": "setMaxMarketsPerAccount",
      "outputs": [],
      "stateMutability": "nonpayable",
      "type": "function"
    },
    {
      "inputs": [
        {
          "internalType": "uint8",
          "name": "value",
          "type": "uint8"
        }
      ],
      "name": "setMaxOrdersPerAccount",
      "outputs": [],
      "stateMutability": "nonpayable",
      "type": "function"
    },
    {
      "inputs": [
        {
          "internalType": "uint24",
          "name": "value",
          "type": "uint24"
        }
      ],
      "name": "setMmRatio",
      "outputs": [],
      "stateMutability": "nonpayable",
      "type": "function"
    },
    {
      "inputs": [
        {
          "internalType": "uint24",
          "name": "value",
          "type": "uint24"
        }
      ],
      "name": "setProtocolFeeRatio",
      "outputs": [],
      "stateMutability": "nonpayable",
      "type": "function"
    },
    {
      "inputs": [],
      "name": "settlementToken",
      "outputs": [
        {
          "internalType": "address",
          "name": "",
          "type": "address"
        }
      ],
      "stateMutability": "view",
      "type": "function"
    },
    {
      "inputs": [
        {
          "components": [
            {
              "internalType": "address",
              "name": "trader",
              "type": "address"
            },
            {
              "internalType": "address",
              "name": "market",
              "type": "address"
            },
            {
              "internalType": "bool",
              "name": "isBaseToQuote",
              "type": "bool"
            },
            {
              "internalType": "bool",
              "name": "isExactInput",
              "type": "bool"
            },
            {
              "internalType": "uint256",
              "name": "amount",
              "type": "uint256"
            },
            {
              "internalType": "uint256",
              "name": "oppositeAmountBound",
              "type": "uint256"
            },
            {
              "internalType": "uint256",
              "name": "deadline",
              "type": "uint256"
            }
          ],
          "internalType": "struct IPerpdexExchange.TradeParams",
          "name": "params",
          "type": "tuple"
        }
      ],
      "name": "trade",
      "outputs": [
        {
          "internalType": "uint256",
          "name": "oppositeAmount",
          "type": "uint256"
        }
      ],
      "stateMutability": "nonpayable",
      "type": "function"
    },
    {
      "inputs": [
        {
          "internalType": "address",
          "name": "newOwner",
          "type": "address"
        }
      ],
      "name": "transferOwnership",
      "outputs": [],
      "stateMutability": "nonpayable",
      "type": "function"
    },
    {
      "inputs": [
        {
          "internalType": "uint256",
          "name": "amount",
          "type": "uint256"
        }
      ],
      "name": "transferProtocolFee",
      "outputs": [],
      "stateMutability": "nonpayable",
      "type": "function"
    },
    {
      "inputs": [
        {
          "internalType": "uint256",
          "name": "amount",
          "type": "uint256"
        }
      ],
      "name": "withdraw",
      "outputs": [],
      "stateMutability": "nonpayable",
      "type": "function"
    }
  ],
  "transactionHash": "0x6d33a3cfc32ffffc5fceb4a6c9705c49fb048531598c402eaae44d905d6957f0",
  "args": [
    "0x0000000000000000000000000000000000000000"
  ],
  "numDeployments": 5,
  "solcInputHash": "ede8775c668a867b5b3500032ff6d979",
  "bytecode": "0x6007805466c3500186a028106001600160581b031990911617905560e060405262030d4060a052606460c0526008805464ffffffffff19166364030d401790553480156200004c57600080fd5b50604051620066f5380380620066f58339810160408190526200006f9162000628565b60408051600080825260208201909252600190915533908290620000938362000229565b6200009e8362000229565b6001600160a01b0382161580620000cf5750620000cf826001600160a01b03166200027b60201b620031421760201c565b620001215760405162461bcd60e51b815260206004820152601b60248201527f50455f433a20746f6b656e206164647265737320696e76616c6964000000000060448201526064015b60405180910390fd5b6001600160a01b03821660805260005b81518110156200017d576200016a8282815181106200015457620001546200065a565b602002602001015160016200028a60201b60201c565b620001758162000670565b905062000131565b5046925050600482149050806200019657506201388181145b80620001a25750605181145b80620001ac575080155b80620001ba575062066eeb81145b80620001c65750604581145b80620001d35750617a6981145b620002215760405162461bcd60e51b815260206004820152601360248201527f4450455f433a20746573746e6574206f6e6c7900000000000000000000000000604482015260640162000118565b5050620006d7565b600180546001600160a01b038381166001600160a01b0319831681179093556040519116919082907f8be0079c531659141344cd1fd0a4f28419497f9722a3daafe3b4186f6b6457e090600090a35050565b6001600160a01b03163b151590565b8060028111156200029f576200029f62000698565b6001600160a01b03831660009081526009602052604090205460ff166002811115620002cf57620002cf62000698565b03620002d9575050565b6001816002811115620002f057620002f062000698565b03620004af5762000315826001600160a01b03166200027b60201b620031421760201c565b620003635760405162461bcd60e51b815260206004820152601f60248201527f50455f53494d413a206d61726b6574206164647265737320696e76616c696400604482015260640162000118565b306001600160a01b0316826001600160a01b031663d2f7265a6040518163ffffffff1660e01b8152600401602060405180830381865afa158015620003ac573d6000803e3d6000fd5b505050506040513d601f19601f82011682018060405250810190620003d2919062000628565b6001600160a01b0316146200042a5760405162461bcd60e51b815260206004820152601b60248201527f50455f53494d413a20646966666572656e742065786368616e67650000000000604482015260640162000118565b6001600160a01b03821660009081526009602052604081205460ff1660028111156200045a576200045a62000698565b14620004a95760405162461bcd60e51b815260206004820152601660248201527f50455f53494d413a206d61726b657420636c6f73656400000000000000000000604482015260640162000118565b62000520565b6002816002811115620004c657620004c662000698565b03620004d757620004a982620005a4565b60405162461bcd60e51b815260206004820152601760248201527f50455f53494d413a20696e76616c696420737461747573000000000000000000604482015260640162000118565b6001600160a01b0382166000908152600960205260409020805482919060ff1916600183600281111562000558576200055862000698565b0217905550816001600160a01b03167f74254d01f8ce923659c1e8739f33585649bc64b648a0382f22174528e5da382e82604051620005989190620006ae565b60405180910390a25050565b60016001600160a01b03821660009081526009602052604090205460ff166002811115620005d657620005d662000698565b14620006255760405162461bcd60e51b815260206004820152601760248201527f50455f434d4f3a206d61726b6574206e6f74206f70656e000000000000000000604482015260640162000118565b50565b6000602082840312156200063b57600080fd5b81516001600160a01b03811681146200065357600080fd5b9392505050565b634e487b7160e01b600052603260045260246000fd5b6000600182016200069157634e487b7160e01b600052601160045260246000fd5b5060010190565b634e487b7160e01b600052602160045260246000fd5b6020810160038310620006d157634e487b7160e01b600052602160045260246000fd5b91905290565b608051615fed62000708600039600081816106b2015281816112a50152818161220701526123b70152615fed6000f3fe6080604052600436106102d55760003560e01c80638da5cb5b1161017b578063c9ca7b18116100d7578063e671be1711610085578063e671be1714610b09578063ec6cca8414610b29578063ef21b7e814610b49578063f0e9ea9614610b86578063f2fde38b14610bc9578063f652b52714610be9578063fed4063214610c0357600080fd5b8063c9ca7b18146109e7578063ca5b721e14610a07578063cffe855614610a27578063d11102c514610a47578063d1ce35e314610a74578063ddad7e9714610a94578063dfe1cb9214610ace57600080fd5b80639f044f31116101345780639f044f31146108d2578063a616c66c146108f5578063ac3732b41461092a578063ac9650d81461094a578063b53c512514610977578063b6b55f25146109b9578063c66fa8e6146109cc57600080fd5b80638da5cb5b146107e65780638ec992941461080457806393420cf41461082457806394887af71461083b578063996fbf94146108825780639dce9e19146108a257600080fd5b80633a92105111610235578063715018a6116101e3578063715018a61461064857806373f625011461065d5780637a27d9f61461067d5780637b9e618d146106a05780637c88490a146106d457806387cad0bf146106f457806388060d8b1461075457600080fd5b80633a921051146105665780633d46396a146105865780633fd1e2bd146105a65780634b4aa735146105bb5780634ebd6bb4146105db5780635ddd1650146105fb5780636e838bad1461062857600080fd5b80632d67669c116102925780632d67669c146103c05780632e1a7d4d146103e05780632e784343146104005780632f60a151146104845780632fd99bf4146104ba57806331e60ddf1461051957806333ff15771461054657600080fd5b8063030ee0cb146102da5780630674fa41146102fc5780630729e07a1461032f57806318f8c0cd1461034f5780631a8e22e6146103805780632703ee85146103a0575b600080fd5b3480156102e657600080fd5b506102fa6102f53660046151bf565b610c23565b005b34801561030857600080fd5b5061031c6103173660046151f7565b610cb1565b6040519081526020015b60405180910390f35b34801561033b57600080fd5b506102fa61034a366004615214565b610d45565b34801561035b57600080fd5b5060075461036e90610100900460ff1681565b60405160ff9091168152602001610326565b34801561038c57600080fd5b506102fa61039b3660046151f7565b611085565b3480156103ac57600080fd5b5061031c6103bb3660046151f7565b611150565b3480156103cc57600080fd5b5061031c6103db3660046152a8565b6111a1565b3480156103ec57600080fd5b506102fa6103fb36600461533f565b61124d565b34801561040c57600080fd5b5061046961041b366004615358565b604080518082018252600080825260209182018190526001600160a01b0394851681526002825282812093909416845291825291829020825180840190935280548352600101549082015290565b60408051825181526020928301519281019290925201610326565b34801561049057600080fd5b506007546104a69062010000900462ffffff1681565b60405162ffffff9091168152602001610326565b3480156104c657600080fd5b506105016104d53660046153a4565b60066020908152600093845260408085208252928452828420905282529020546001600160a01b031681565b6040516001600160a01b039091168152602001610326565b34801561052557600080fd5b506105396105343660046153ef565b6113bc565b604051610326919061542f565b34801561055257600080fd5b5061031c610561366004615358565b61146c565b34801561057257600080fd5b5061031c6105813660046151f7565b61150f565b34801561059257600080fd5b506102fa6105a136600461533f565b611560565b3480156105b257600080fd5b5061036e601281565b3480156105c757600080fd5b5061031c6105d63660046151f7565b61165f565b3480156105e757600080fd5b506104696105f6366004615358565b6116b0565b34801561060757600080fd5b5061061b6106163660046153ef565b61175a565b604051610326919061547a565b34801561063457600080fd5b506102fa6106433660046154eb565b611800565b34801561065457600080fd5b506102fa61192c565b34801561066957600080fd5b506102fa6106783660046151bf565b611940565b34801561068957600080fd5b506007546104a690600160401b900462ffffff1681565b3480156106ac57600080fd5b506105017f000000000000000000000000000000000000000000000000000000000000000081565b3480156106e057600080fd5b5061031c6106ef366004615358565b6119b1565b34801561070057600080fd5b5061073c61070f3660046151f7565b60026020908152600091825260409182902082519182019092526003820154815260059091015460ff1682565b604080519251835260ff909116602083015201610326565b34801561076057600080fd5b506107bd61076f366004615358565b6001600160a01b03918216600090815260026020818152604080842094909516835292810190925291909120805491810154600482015460059092015464ffffffffff938416949390911692565b6040805164ffffffffff9586168152949093166020850152918301526060820152608001610326565b3480156107f257600080fd5b506001546001600160a01b0316610501565b34801561081057600080fd5b506102fa61081f366004615515565b611a13565b34801561083057600080fd5b5060055461031c9081565b34801561084757600080fd5b506008546108649062ffffff8116906301000000900461ffff1682565b6040805162ffffff909316835261ffff909116602083015201610326565b34801561088e57600080fd5b5061031c61089d366004615358565b611a55565b3480156108ae57600080fd5b506108c26108bd3660046151f7565b611ab7565b6040519015158152602001610326565b3480156108de57600080fd5b506007546104a690600160281b900462ffffff1681565b34801561090157600080fd5b50610915610910366004615555565b611b5a565b60408051928352602083019190915201610326565b34801561093657600080fd5b506102fa610945366004615571565b611e2b565b34801561095657600080fd5b5061096a610965366004615583565b611f8c565b6040516103269190615647565b34801561098357600080fd5b50610997610992366004615358565b612080565b6040805182518152602080840151908201529181015190820152606001610326565b6102fa6109c736600461533f565b6120f4565b3480156109d857600080fd5b50600354600454610915919082565b3480156109f357600080fd5b506102fa610a023660046154eb565b6124b1565b348015610a1357600080fd5b5061031c610a22366004615358565b6125d9565b348015610a3357600080fd5b5061031c610a423660046156bb565b61263b565b348015610a5357600080fd5b50610a67610a623660046151f7565b612753565b60405161032691906156d7565b348015610a8057600080fd5b506102fa610a8f3660046154eb565b6127cc565b348015610aa057600080fd5b506102fa610aaf366004615718565b6001600160a01b03909116600090815260026020526040902060030155565b348015610ada57600080fd5b50610aee610ae9366004615555565b61289e565b60408051938452602084019290925290820152606001610326565b348015610b1557600080fd5b5061031c610b243660046156bb565b612b49565b348015610b3557600080fd5b506108c2610b443660046151f7565b612bbd565b348015610b5557600080fd5b50610b79610b643660046151f7565b60096020526000908152604090205460ff1681565b6040516103269190615778565b348015610b9257600080fd5b50610ba6610ba1366004615555565b612c22565b6040805164ffffffffff9094168452602084019290925290820152606001610326565b348015610bd557600080fd5b506102fa610be43660046151f7565b61307a565b348015610bf557600080fd5b5060075461036e9060ff1681565b348015610c0f57600080fd5b506108c2610c1e3660046151f7565b6130f3565b610c2b613151565b600260005403610c565760405162461bcd60e51b8152600401610c4d9061578b565b60405180910390fd5b60026000556007805461ff00191661010060ff8416908102919091179091556040519081527fa1c52f9241e2609b5e6bd1b508707a109021d174cc16f3b16215c457d4bbddfa906020015b60405180910390a1506001600055565b6001600160a01b038116600090815260026020526040808220905163d73fd34160e01b81526004810191909152734e365c6E629d08E48dD5e6bAE2BA55BF0Bf95f779063d73fd341906024015b602060405180830381865af4158015610d1b573d6000803e3d6000fd5b505050506040513d601f19601f82011682018060405250810190610d3f91906157c2565b92915050565b600260005403610d675760405162461bcd60e51b8152600401610c4d9061578b565b60026000556060810135610d7a816131ab565b610d8760208301836151f7565b610d90816131ed565b6000600681610da260208701876151f7565b6001600160a01b03166001600160a01b031681526020019081526020016000206000856020016020810190610dd791906157db565b1515151581526020019081526020016000206000856040016020810190610dfe91906157f8565b64ffffffffff1681526020810191909152604001600020546001600160a01b0316905080610e685760405162461bcd60e51b8152602060048201526017602482015276141157d0d313ce881bdc99195c881b9bdd08195e1a5cdd604a1b6044820152606401610c4d565b610e7181613263565b6001600160a01b0381166000908152600260209081526040808320815160c0810190925273e5302D9086511023Cd13b23220Ef1Ea5395F99EC92637ae9aeb292908190610ec0908b018b6151f7565b6001600160a01b03168152602001610ede60608b0160408c016157f8565b64ffffffffff168152602001896020016020810190610efd91906157db565b15158152600754600160281b900462ffffff166020820152604001336001600160a01b0390811688821614825260075460ff9081166020938401526040805160e088901b6001600160e01b03191681526004810196909652845190921660248601529183015164ffffffffff16604485015282015115156064840152606082015162ffffff1660848401526080820151151560a484015260a0909101511660c482015260e401602060405180830381865af4158015610fc0573d6000803e3d6000fd5b505050506040513d601f19601f82011682018060405250810190610fe49190615815565b905080610ff2576000610ff4565b335b6001600160a01b031661100a60208701876151f7565b6001600160a01b039081169084167f4de6bf440f231c89a9a5151794265a35b57c248083faeae83678c9259a7dd12361104960408a0160208b016157db565b61105960608b0160408c016157f8565b60408051921515835264ffffffffff90911660208301520160405180910390a450506001600055505050565b6002600054036110a75760405162461bcd60e51b8152600401610c4d9061578b565b6002600055806110b6816132cc565b336110c081613263565b6001600160a01b03818116600090815260026020526040908190209051630530e4fd60e41b815260048101919091529084166024820152734e365c6E629d08E48dD5e6bAE2BA55BF0Bf95f779063530e4fd09060440160006040518083038186803b15801561112e57600080fd5b505af4158015611142573d6000803e3d6000fd5b505060016000555050505050565b6001600160a01b03811660009081526002602052604080822090516344ae957f60e11b81526004810191909152734e365c6E629d08E48dD5e6bAE2BA55BF0Bf95f779063895d2afe90602401610cfe565b600060016020808401516001600160a01b031660009081526009909152604090205460ff1660028111156111d7576111d7615744565b146111e457506000919050565b81516040808401516001600160a01b038084166000818152600260209081529490209387015160608801516080890151600754959661124596909593949293919262ffffff600160281b8304811693600160401b9093041691891614613348565b949350505050565b60026000540361126f5760405162461bcd60e51b8152600401610c4d9061578b565b60026000553361127e81613263565b6001600160a01b0381811660008181526002602090815260409182902082516080810184527f00000000000000000000000000000000000000000000000000000000000000008616815291820187815282840194855260075462010000900462ffffff908116606085019081529451638b72b4c760e01b815260048101939093529251861660248301525160448201529251909316606483015251909116608482015273B8065D806ebbbBB0941E8e2789F09f1B477497bb90638b72b4c79060a40160006040518083038186803b15801561135857600080fd5b505af415801561136c573d6000803e3d6000fd5b50505050806001600160a01b03167f7084f5476618d8e60b11ef0d7d3f06914655adb8793e28ff7f018d4c76d505d5836040516113ab91815260200190565b60405180910390a250506001600055565b6001600160a01b0383811660009081526002602052604090819020905163733242af60e11b815260048101919091529083166024820152811515604482015260609073e5302D9086511023Cd13b23220Ef1Ea5395F99EC9063e664855e90606401600060405180830381865af415801561143a573d6000803e3d6000fd5b505050506040513d6000823e601f3d908101601f191682016040526114629190810190615855565b90505b9392505050565b6001600160a01b0382166000908152600260205260408082209051632de9906b60e11b8152734e365c6E629d08E48dD5e6bAE2BA55BF0Bf95f7791635bd320d6916114ce919086906004019182526001600160a01b0316602082015260400190565b602060405180830381865af41580156114eb573d6000803e3d6000fd5b505050506040513d601f19601f8201168201806040525081019061146591906157c2565b6001600160a01b0381166000908152600260205260408082209051631caf045760e31b81526004810191909152734e365c6E629d08E48dD5e6bAE2BA55BF0Bf95f779063e57822b890602401610cfe565b611568613151565b60026000540361158a5760405162461bcd60e51b8152600401610c4d9061578b565b60026000553361159981613263565b6001600160a01b0381166000908152600260205260409081902090516333a4aff760e21b81526004810191909152600560248201526044810183905273B8065D806ebbbBB0941E8e2789F09f1B477497bb9063ce92bfdc9060640160006040518083038186803b15801561160c57600080fd5b505af4158015611620573d6000803e3d6000fd5b50505050806001600160a01b03167f0880b0e717a57f3b5cbd3fc19396ae3c8cdee5c624c9289477869c38014c8495836040516113ab91815260200190565b6001600160a01b03811660009081526002602052604080822090516367dd27b160e01b81526004810191909152734e365c6E629d08E48dD5e6bAE2BA55BF0Bf95f77906367dd27b190602401610cfe565b60408051808201909152600080825260208201526001600160a01b0383811660009081526002602052604090819020905163195bd60760e31b815260048101919091529083166024820152734e365c6E629d08E48dD5e6bAE2BA55BF0Bf95f779063cadeb038906044016040805180830381865af4158015611736573d6000803e3d6000fd5b505050506040513d601f19601f8201168201806040525081019061146591906158e8565b6001600160a01b03838116600090815260026020526040908190209051632e9e3b9360e11b815260048101919091529083166024820152811515604482015260609073e5302D9086511023Cd13b23220Ef1Ea5395F99EC90635d3c772690606401600060405180830381865af41580156117d8573d6000803e3d6000fd5b505050506040513d6000823e601f3d908101601f191682016040526114629190810190615936565b611808613151565b60026000540361182a5760405162461bcd60e51b8152600401610c4d9061578b565b6002600055620f424062ffffff82161061187a5760405162461bcd60e51b815260206004820152601160248201527050455f5349523a20746f6f206c6172676560781b6044820152606401610c4d565b60075462ffffff600160281b909104811690821610156118dc5760405162461bcd60e51b815260206004820152601c60248201527f50455f5349523a20736d616c6c6572207468616e206d6d526174696f000000006044820152606401610c4d565b6007805464ffffff000019166201000062ffffff8416908102919091179091556040519081527f04f9c1a24c6543f4b91577d82af28fb7ef6d7b9fe46acd0e5c36ef17073b94e690602001610ca1565b611934613151565b61193e6000613495565b565b611948613151565b60026000540361196a5760405162461bcd60e51b8152600401610c4d9061578b565b60026000556007805460ff191660ff83169081179091556040519081527fa7b4760b38e2a630f3073fcd5119972cbf81bd50e3761f86534a69661caf811090602001610ca1565b6001600160a01b038216600090815260026020526040808220905163af77d70760e01b8152734e365c6E629d08E48dD5e6bAE2BA55BF0Bf95f779163af77d707916114ce919086906004019182526001600160a01b0316602082015260400190565b611a1b613151565b600260005403611a3d5760405162461bcd60e51b8152600401610c4d9061578b565b6002600055611a4c82826134e7565b50506001600055565b6001600160a01b0382166000908152600260205260408082209051630d832e2160e31b8152734e365c6E629d08E48dD5e6bAE2BA55BF0Bf95f7791636c197108916114ce919086906004019182526001600160a01b0316602082015260400190565b6001600160a01b0381166000908152600260205260408082206007549151633c7e525f60e01b81526004810191909152600160281b90910462ffffff166024820152734e365c6E629d08E48dD5e6bAE2BA55BF0Bf95f7790633c7e525f906044015b602060405180830381865af4158015611b36573d6000803e3d6000fd5b505050506040513d601f19601f82011682018060405250810190610d3f9190615815565b600080600260005403611b7f5760405162461bcd60e51b8152600401610c4d9061578b565b600260005560a0830135611b92816131ab565b611ba260408501602086016151f7565b611bab816131ed565b611bc0611bbb60208701876151f7565b613263565b600073c5a60D8Ef87e146e3F82f0231F1A98735992d821639b6bfbdf600283611bec60208b018b6151f7565b6001600160a01b03166001600160a01b031681526020019081526020016000206040518060e001604052808a6020016020810190611c2a91906151f7565b6001600160a01b0316815260408b81013560208301526060808d0135918301919091526080808d013591830191909152600754600160281b810462ffffff169183019190915260ff1660a082015260c001336001600160a01b0316611c9260208d018d6151f7565b6001600160a01b03908116919091149091526040805160e086901b6001600160e01b031916815260048101949094528251909116602484015260208201516044840152810151606483015260608101516084830152608081015162ffffff1660a483015260a081015160ff1660c483015260c00151151560e48201526101040160c060405180830381865af4158015611d2f573d6000803e3d6000fd5b505050506040513d601f19601f82011682018060405250810190611d5391906159f0565b9050611d6560408701602088016151f7565b6001600160a01b0316611d7b60208801886151f7565b6001600160a01b03167f6412738c4a8b04483cde318a630d4c268654a7ebd52c9ef2c516e5e8520a4fd88360a00151611db5576000611db7565b335b84516020808701516040808901516060808b01516080808d015185516001600160a01b039a909a168a5296890197909752878401949094528f830135908701529385019390935260a084015260c0830152519081900360e00190a38051602090910151600160005590969095509350505050565b611e33613151565b600260005403611e555760405162461bcd60e51b8152600401610c4d9061578b565b6002600055620f4240611e6b60208301836154eb565b62ffffff1610611ebd5760405162461bcd60e51b815260206004820152601f60248201527f50455f534c52433a20746f6f206c617267652072657761726420726174696f006044820152606401610c4d565b6000611ecf6040830160208401615a7f565b61ffff1611611f205760405162461bcd60e51b815260206004820152601960248201527f50455f534c52433a20656d612074696d65206973207a65726f000000000000006044820152606401610c4d565b806008611f2d8282615a9c565b507f1185c4964ca5cd3d88d5dfbc1fb65b84d5533e3354f3b2163e8e1c0f35bca0e19050611f5e60208301836154eb565b611f6e6040840160208501615a7f565b6040805162ffffff909316835261ffff909116602083015201610ca1565b6060816001600160401b03811115611fa657611fa661522c565b604051908082528060200260200182016040528015611fd957816020015b6060815260200190600190039081611fc45790505b50905060005b828110156120795761204930858584818110611ffd57611ffd615aea565b905060200281019061200f9190615b00565b8080601f0160208091040260200160405190810160405280939291908181526020018383808284376000920191909152506137bc92505050565b82828151811061205b5761205b615aea565b6020026020010181905250808061207190615b63565b915050611fdf565b5092915050565b6120a460405180606001604052806000815260200160008152602001600081525090565b506001600160a01b03808316600090815260026020818152604080842094861684526001948501825292839020835160608101855281548152948101549185019190915201549082015292915050565b6002600054036121165760405162461bcd60e51b8152600401610c4d9061578b565b60026000553361212581613263565b6001600160a01b038116600090815260026020526040808220905163218be9d560e11b815260048101919091526003602482015273B8065D806ebbbBB0941E8e2789F09f1B477497bb90634317d3aa90604401602060405180830381865af4158015612195573d6000803e3d6000fd5b505050506040513d601f19601f820116820180604052508101906121b991906157c2565b9050801561220557816001600160a01b03167f02637aab023322fc124131f556858082be212382f69cdec79efddcbfbc5c0205826040516121fc91815260200190565b60405180910390a25b7f00000000000000000000000000000000000000000000000000000000000000006001600160a01b03166123425782156122795760405162461bcd60e51b815260206004820152601560248201527450455f443a20616d6f756e74206e6f74207a65726f60581b6044820152606401610c4d565b6001600160a01b038216600090815260026020526040908190209051624d1ed560e11b8152600481019190915234602482015273B8065D806ebbbBB0941E8e2789F09f1B477497bb90629a3daa9060440160006040518083038186803b1580156122e257600080fd5b505af41580156122f6573d6000803e3d6000fd5b50505050816001600160a01b03167f2da466a7b24304f47e87fa2e1e5a81b9831ce54fec19055ce277ca2f39ba42c43460405161233591815260200190565b60405180910390a26124a7565b34156123905760405162461bcd60e51b815260206004820152601860248201527f50455f443a206d73672e76616c7565206e6f74207a65726f00000000000000006044820152606401610c4d565b6001600160a01b0382811660008181526002602090815260409182902082516060810184527f0000000000000000000000000000000000000000000000000000000000000000861681529182018881528284019485529251631faeb67360e31b81526004810191909152905184166024820152905160448201529051909116606482015273B8065D806ebbbBB0941E8e2789F09f1B477497bb9063fd75b3989060840160006040518083038186803b15801561244b57600080fd5b505af415801561245f573d6000803e3d6000fd5b50505050816001600160a01b03167f2da466a7b24304f47e87fa2e1e5a81b9831ce54fec19055ce277ca2f39ba42c48460405161249e91815260200190565b60405180910390a25b5050600160005550565b6124b9613151565b6002600054036124db5760405162461bcd60e51b8152600401610c4d9061578b565b600260005560075462ffffff62010000909104811690821611156125415760405162461bcd60e51b815260206004820152601b60248201527f50455f534d523a20626967676572207468616e20696d526174696f00000000006044820152606401610c4d565b60008162ffffff16116125855760405162461bcd60e51b815260206004820152600c60248201526b50455f534d523a207a65726f60a01b6044820152606401610c4d565b6007805467ffffff00000000001916600160281b62ffffff8416908102919091179091556040519081527ffbd0bf17b9833a130f5baeccbfc586acefc75be8ad5bb114f448e412adc4c05b90602001610ca1565b6001600160a01b0382166000908152600260205260408082209051632691409160e01b8152734e365c6E629d08E48dD5e6bAE2BA55BF0Bf95f77916326914091916114ce919086906004019182526001600160a01b0316602082015260400190565b600061264d60408301602084016151f7565b612656816131ed565b600061266560208501856151f7565b9050600061267960608601604087016151f7565b905061274a60026000846001600160a01b03166001600160a01b031681526020019081526020016000206040518061010001604052808860200160208101906126c291906151f7565b6001600160a01b031681526020016126e060808a0160608b016157db565b151581526020016126f760a08a0160808b016157db565b1515815260a0808a0135602083015260c08a0135604083015260075462ffffff600160281b820481166060850152600160401b9091041660808301526001600160a01b03878116908716149101526137e1565b95945050505050565b6001600160a01b0381166000908152600260209081526040918290206004018054835181840281018401909452808452606093928301828280156127c057602002820191906000526020600020905b81546001600160a01b031681526001909101906020018083116127a2575b50505050509050919050565b6127d4613151565b6002600054036127f65760405162461bcd60e51b8152600401610c4d9061578b565b600260005561271062ffffff821611156128475760405162461bcd60e51b815260206004820152601260248201527150455f535046523a20746f6f206c6172676560701b6044820152606401610c4d565b600780546affffff00000000000000001916600160401b62ffffff8416908102919091179091556040519081527f68c41b7a5c12c4d9cbb99ec284bf647922a75f379a90694e3ad65574f4ff944d90602001610ca1565b60008060006002600054036128c55760405162461bcd60e51b8152600401610c4d9061578b565b600260005560a08401356128d8816131ab565b6128e560208601866151f7565b6128ee816131ed565b336128f881613263565b6001600160a01b0381166000908152600260209081526040808320815160e0810190925273c5a60D8Ef87e146e3F82f0231F1A98735992d821926360e361e092908190612947908e018e6151f7565b6001600160a01b0316815260208d810135908201526040808e0135818301526060808f0135908301526080808f01359083015260075462ffffff6201000082041660a084015260ff1660c090920191909152516001600160e01b031960e085901b168152612a1a92919060040160006101008201905083825260018060a01b038351166020830152602083015160408301526040830151606083015260608301516080830152608083015160a083015262ffffff60a08401511660c083015260ff60c08401511660e08301529392505050565b606060405180830381865af4158015612a37573d6000803e3d6000fd5b505050506040513d601f19601f82011682018060405250810190612a5b9190615b7c565b6001600160a01b038316600090815260026020908152604082209293509091600101908290612a8c908c018c6151f7565b6001600160a01b031681526020808201929092526040016000209150612ab4908a018a6151f7565b82516020808501516040808701516001870154600288015483519687529486019390935290840152606083015260808201526001600160a01b03918216918516907fea3191ffbe2f62bfd724ee8d971b15ff9b7994e3a9169dc4c60443be3e4a43c49060a00160405180910390a38160000151826020015183604001519750975097505050505b505060016000559193909250565b6000600260005403612b6d5760405162461bcd60e51b8152600401610c4d9061578b565b600260005560c0820135612b80816131ab565b612b9060408401602085016151f7565b612b99816131ed565b612bb0612bab36869003860186615bb8565b6138e0565b6001600055949350505050565b6001600160a01b0381166000908152600260205260408082206007549151634d3a1f3d60e11b815260048101919091526201000090910462ffffff166024820152734e365c6E629d08E48dD5e6bAE2BA55BF0Bf95f7790639a743e7a90604401611b19565b6000806000600260005403612c495760405162461bcd60e51b8152600401610c4d9061578b565b60026000556080840135612c5c816131ab565b612c6960208601866151f7565b612c72816131ed565b336001612c8560c0890160a08a01615c5f565b6002811115612c9657612c96615744565b14612dcd576000612cad6040890160208a016157db565b1590506000612cbf60208a018a6151f7565b6040516366a61ffb60e01b815283151560048201819052602482015260608b013560448201526001600160a01b0391909116906366a61ffb90606401602060405180830381865afa158015612d18573d6000803e3d6000fd5b505050506040513d601f19601f82011682018060405250810190612d3c91906157c2565b9050612d4c818a60400135613d2c565b96508615612dca57612dc76040518060e00160405280856001600160a01b031681526020018b6000016020810190612d8491906151f7565b6001600160a01b031681526020018415158152602001841515815260200189815260200184612db557600019612db8565b60005b815260200160008152506138e0565b95505b50505b8487604001351480612dff57506002612dec60c0890160a08a01615c5f565b6002811115612dfd57612dfd615744565b145b15612e0e576000955050612b3b565b612e1781613263565b6001600160a01b0381166000908152600260209081526040918290208251610100810190935273e5302D9086511023Cd13b23220Ef1Ea5395F99EC9263d34e48d4928190612e67908d018d6151f7565b6001600160a01b03168152602001612e838a60408e0135615c7c565b81526020018b6060013581526020018b6020016020810190612ea591906157db565b1515815260075462ffffff62010000820416602083015260ff80821660408401526101009091041660608201526080016000612ee760c08e0160a08f01615c5f565b6002811115612ef857612ef8615744565b1490526040516001600160e01b031960e085901b168152612f1d929190600401615c8f565b602060405180830381865af4158015612f3a573d6000803e3d6000fd5b505050506040513d601f19601f82011682018060405250810190612f5e9190615d11565b95508060066000612f7260208b018b6151f7565b6001600160a01b03166001600160a01b031681526020019081526020016000206000896020016020810190612fa791906157db565b151581526020808201929092526040908101600090812064ffffffffff8b16825283522080546001600160a01b0319166001600160a01b039390931692909217909155612ff6908801886151f7565b6001600160a01b039081169082167f8ee9f54c945bff2a9eeec6044c0cf26c827fe5f224920cc0f9b82f8f5c9537af61303560408b0160208c016157db565b60408b013560608c013561304f60c08e0160a08f01615c5f565b8c8c60405161306396959493929190615d2e565b60405180910390a350505060016000559193909250565b613082613151565b6001600160a01b0381166130e75760405162461bcd60e51b815260206004820152602660248201527f4f776e61626c653a206e6577206f776e657220697320746865207a65726f206160448201526564647265737360d01b6064820152608401610c4d565b6130f081613495565b50565b6001600160a01b03811660009081526002602052604080822090516210164360e11b81526004810191909152734e365c6E629d08E48dD5e6bAE2BA55BF0Bf95f779062202c8690602401611b19565b6001600160a01b03163b151590565b6001546001600160a01b0316331461193e5760405162461bcd60e51b815260206004820181905260248201527f4f776e61626c653a2063616c6c6572206973206e6f7420746865206f776e65726044820152606401610c4d565b804211156130f05760405162461bcd60e51b815260206004820152600f60248201526e50455f43443a20746f6f206c61746560881b6044820152606401610c4d565b60016001600160a01b03821660009081526009602052604090205460ff16600281111561321c5761321c615744565b146130f05760405162461bcd60e51b81526020600482015260176024820152762822afa1a6a79d1036b0b935b2ba103737ba1037b832b760491b6044820152606401610c4d565b6001600160a01b038116600090815260026020526040902060040180545b80156132c75761329081615d72565b90506132c2838383815481106132a8576132a8615aea565b6000918252602090912001546001600160a01b0316613d42565b613281565b505050565b60026001600160a01b03821660009081526009602052604090205460ff1660028111156132fb576132fb615744565b146130f05760405162461bcd60e51b815260206004820152601960248201527f50455f434d433a206d61726b6574206e6f7420636c6f736564000000000000006044820152606401610c4d565b604051633c7e525f60e01b81526004810188905262ffffff841660248201526000908190734e365c6E629d08E48dD5e6bAE2BA55BF0Bf95f7790633c7e525f90604401602060405180830381865af41580156133a8573d6000803e3d6000fd5b505050506040513d601f19601f820116820180604052508101906133cc9190615815565b159050821580156133db575080155b156133ea57600091505061348a565b8362ffffff166000036134785760405163e8fa204f60e01b81528715156004820152861515602482015281151560448201526001600160a01b0389169063e8fa204f90606401602060405180830381865afa15801561344d573d6000803e3d6000fd5b505050506040513d601f19601f8201168201806040525081019061347191906157c2565b9150613488565b6134858888888785613e6b565b91505b505b979650505050505050565b600180546001600160a01b038381166001600160a01b0319831681179093556040519116919082907f8be0079c531659141344cd1fd0a4f28419497f9722a3daafe3b4186f6b6457e090600090a35050565b8060028111156134f9576134f9615744565b6001600160a01b03831660009081526009602052604090205460ff16600281111561352657613526615744565b0361352f575050565b600181600281111561354357613543615744565b036136d9576001600160a01b0382163b61359f5760405162461bcd60e51b815260206004820152601f60248201527f50455f53494d413a206d61726b6574206164647265737320696e76616c6964006044820152606401610c4d565b306001600160a01b0316826001600160a01b031663d2f7265a6040518163ffffffff1660e01b8152600401602060405180830381865afa1580156135e7573d6000803e3d6000fd5b505050506040513d601f19601f8201168201806040525081019061360b9190615d89565b6001600160a01b0316146136615760405162461bcd60e51b815260206004820152601b60248201527f50455f53494d413a20646966666572656e742065786368616e676500000000006044820152606401610c4d565b6001600160a01b03821660009081526009602052604081205460ff16600281111561368e5761368e615744565b146136d45760405162461bcd60e51b8152602060048201526016602482015275141157d4d253504e881b585c9ad95d0818db1bdcd95960521b6044820152606401610c4d565b61373d565b60028160028111156136ed576136ed615744565b036136fb576136d4826131ed565b60405162461bcd60e51b815260206004820152601760248201527650455f53494d413a20696e76616c69642073746174757360481b6044820152606401610c4d565b6001600160a01b0382166000908152600960205260409020805482919060ff1916600183600281111561377257613772615744565b0217905550816001600160a01b03167f74254d01f8ce923659c1e8739f33585649bc64b648a0382f22174528e5da382e826040516137b09190615778565b60405180910390a25050565b60606114658383604051806060016040528060278152602001615f9160279139613f30565b6000806137fe8484600001518560e001518660a00151600161400d565b90508260c0015162ffffff166000036138a757825160208401516040808601516060870151915162de853760e31b8152921515600484015215156024830152604482015282151560648201526001600160a01b03909116906306f429b890608401602060405180830381865afa15801561387c573d6000803e3d6000fd5b505050506040513d601f19601f820116820180604052508101906138a091906157c2565b91506138cd565b6138c983600001518460200151856040015186606001518760c0015186614230565b5091505b612079836040015183856080015161446e565b60006138ef8260000151613263565b60006138fa83614514565b90508061010001516060015164ffffffffff16600014613adb57602080840180516001600160a01b039081166000908152600684526040808220818901511515835285528082206101008701516060015164ffffffffff1683529094529290922054905191169061396c908290613d42565b6001600160a01b03818116600090815260026020908152604080832088830151898301516007546101008a01518551632d4c09e360e11b815260048101959095529290971660248401521515604483015260ff9095166064820152845160848201529184015160a483015283015160c482015260609092015164ffffffffff1660e48301529073e5302D9086511023Cd13b23220Ef1Ea5395F99EC90635a9813c69061010401602060405180830381865af4158015613a2f573d6000803e3d6000fd5b505050506040513d601f19601f82011682018060405250810190613a5391906157c2565b905084602001516001600160a01b0316826001600160a01b03167f6a44f7a15d600604cd07ab787ae45c22908a25bcc8a24e951f297a4ff4885ccc8760400151866101000151602001518761010001516040015186604051613ad09493929190931515845260208401929092526040830152606082015260800190565b60405180910390a350505b600083602001516001600160a01b0316639482de1a6040518163ffffffff1660e01b8152600401602060405180830381865afa158015613b1f573d6000803e3d6000fd5b505050506040513d601f19601f82011682018060405250810190613b4391906157c2565b9050600084602001516001600160a01b0316638ee8fe5d6040518163ffffffff1660e01b8152600401602060405180830381865afa158015613b89573d6000803e3d6000fd5b505050506040513d601f19601f82011682018060405250810190613bad91906157c2565b90508260e0015115613c8157336001600160a01b031685602001516001600160a01b031686600001516001600160a01b03167f7c3978559b662b8adf839d43cce2ec6ab7db3fdc995575e4576acc9e0628985d866000015187602001518860400151896060015189898c608001518d60a001518e60c00151604051613c7499989796959493929190988952602089019790975260408801959095526060870193909352608086019190915260a085015260c084015260e08301526101008201526101200190565b60405180910390a4613cfc565b60208086015186518551868401516040808901516060808b0151835195865297850193909352908301528101939093526080830185905260a083018490526001600160a01b03918216929116907fe386a40c070a1424ae709b98c27e64993228f777c6294ef7149cf0ee42ef46e89060c00160405180910390a35b846040015115158560600151151514613d1f578251613d1a9061460b565b61274a565b61274a836020015161460b565b6000818310613d3b5781611465565b5090919050565b6001600160a01b038281166000908152600260205260408082206007549151637bb8754b60e11b81526004810191909152928416602484015260ff1660448301529073e5302D9086511023Cd13b23220Ef1Ea5395F99EC9063f770ea9690606401606060405180830381865af4158015613dc0573d6000803e3d6000fd5b505050506040513d601f19601f82011682018060405250810190613de49190615b7c565b8051909150151580613df95750602081015115155b80613e075750604081015115155b156132c75780516020808301516040808501518151948552928401919091528201526001600160a01b0380841691908516907f6b5fa0b84481e8650541048bcfc70b68c11e1e8234750aa74d18c8e98ac9a2ba9060600160405180910390a3505050565b60405163e8fa204f60e01b81528415156004820152831515602482015281151560448201526000906001600160a01b0387169063e8fa204f90606401602060405180830381865afa158015613ec4573d6000803e3d6000fd5b505050506040513d601f19601f82011682018060405250810190613ee891906157c2565b90508315613f13578461274a57613f0c613f05620f424085614634565b829061469a565b905061274a565b841561274a57613f0c613f29620f424085614634565b82906146af565b60606001600160a01b0384163b613f985760405162461bcd60e51b815260206004820152602660248201527f416464726573733a2064656c65676174652063616c6c20746f206e6f6e2d636f6044820152651b9d1c9858dd60d21b6064820152608401610c4d565b600080856001600160a01b031685604051613fb39190615da6565b600060405180830381855af49150503d8060008114613fee576040519150601f19603f3d011682016040523d82523d6000602084013e613ff3565b606091505b50915091506140038282866146c4565b9695505050505050565b604051633c7e525f60e01b81526004810186905262ffffff83166024820152600090734e365c6E629d08E48dD5e6bAE2BA55BF0Bf95f7790633c7e525f90604401602060405180830381865af415801561406b573d6000803e3d6000fd5b505050506040513d601f19601f8201168201806040525081019061408f9190615815565b159050836140d757806140d75760405162461bcd60e51b815260206004820152601060248201526f544c5f56543a20656e6f756768206d6d60801b6044820152606401610c4d565b811580156140e25750805b1561274a576001600160a01b03851660009081526001870160205260409020541561414f5760405162461bcd60e51b815260206004820181905260248201527f544c5f56543a206e6f206d616b6572207768656e206c69717569646174696f6e6044820152606401610c4d565b6001600160a01b038516600090815260028701602052604090205464ffffffffff16156141be5760405162461bcd60e51b815260206004820152601e60248201527f544c5f56543a206e6f2061736b207768656e206c69717569646174696f6e00006044820152606401610c4d565b6001600160a01b038516600090815260028088016020526040909120015464ffffffffff161561274a5760405162461bcd60e51b815260206004820152601e60248201527f544c5f56543a206e6f20626964207768656e206c69717569646174696f6e00006044820152606401610c4d565b600080851561437a5786156142de5760405162de853760e31b8152871515600482015286151560248201526044810186905283151560648201526001600160a01b038916906306f429b890608401602060405180830381865afa15801561429b573d6000803e3d6000fd5b505050506040513d601f19601f820116820180604052508101906142bf91906157c2565b91506142cb82856146af565b90506142d782826146fd565b9150614463565b6142e885856146af565b90506001600160a01b0388166306f429b8888861430589866146fd565b6040516001600160e01b031960e086901b1681529215156004840152901515602483015260448201528515156064820152608401602060405180830381865afa158015614356573d6000803e3d6000fd5b505050506040513d601f19601f820116820180604052508101906142d791906157c2565b86156143be576143a18561439b614394620f424088614634565b889061469a565b906146fd565b90506001600160a01b0388166306f429b888886143058986614709565b60405162de853760e31b8152871515600482015286151560248201526044810186905283151560648201526000906001600160a01b038a16906306f429b890608401602060405180830381865afa15801561441d573d6000803e3d6000fd5b505050506040513d601f19601f8201168201806040525081019061444191906157c2565b9050614453613f05620f424087614634565b925061445f83826146fd565b9150505b965096945050505050565b82156144c457808210156132c75760405162461bcd60e51b815260206004820181905260248201527f544c5f56533a20746f6f20736d616c6c206f70706f7369746520616d6f756e746044820152606401610c4d565b808211156132c75760405162461bcd60e51b815260206004820181905260248201527f544c5f56533a20746f6f206c61726765206f70706f7369746520616d6f756e746044820152606401610c4d565b61451c61513d565b81516001600160a01b03908116600090815260026020908152604080832033808552938290208251610160810184528489015187168152838901511515818601526060808a01511515828601526080808b01519183019190915260a0808b01519183019190915260075462ffffff600160281b8204811692840192909252620100008104821660c084015260ff811660e0840152600160401b90048116610100830152895190971690951461012086015282518084019093526008549586168352630100000090950461ffff1692820192909252610140830152610d3f92909160039182019190600590614715565b60008082121561462b5761462661462183614981565b6149df565b610d3f565b610d3f826149df565b60008262ffffff168262ffffff1611156146905760405162461bcd60e51b815260206004820152601e60248201527f506572704d6174683a207375627472616374696f6e206f766572666c6f7700006044820152606401610c4d565b6114658284615dc2565b600061146583620f42408462ffffff16614a35565b6000611465838362ffffff16620f4240614a35565b606083156146d3575081611465565b8251156146e35782518084602001fd5b8160405162461bcd60e51b8152600401610c4d9190615dde565b60006114658284615c7c565b60006114658284615df1565b61471d61513d565b6147388683600001518461012001518560a00151600061400d565b151560e080830191825283516001600160a01b03908116600090815260208a8152604091829020548251610100808201855289519095168152828901511515928101929092528288015115159282019290925260608088015190820152608080880151908201528684015160ff1660a08201529186015162ffffff1660c083015292511515918101919091526147d19088908690614ae4565b61010087015260608601526040850152602084015280835260009081906147f790614cbc565b845161480d90614808908690614ce4565b614cbc565b6148179190615e04565b1390508260e00151156148a85780156148725760405162461bcd60e51b815260206004820152601f60248201527f544c5f4f503a206e6f206f70656e207768656e206c69717569646174696f6e006044820152606401610c4d565b6148988860030188888760a00151886101400151614893896020015161460b565b614cf0565b60c086015260a085015260808401525b80156149765760c0840151604051634d3a1f3d60e11b8152600481018a905262ffffff9091166024820152734e365c6E629d08E48dD5e6bAE2BA55BF0Bf95f7790639a743e7a90604401602060405180830381865af415801561490f573d6000803e3d6000fd5b505050506040513d601f19601f820116820180604052508101906149339190615815565b6149765760405162461bcd60e51b8152602060048201526014602482015273544c5f4f503a206e6f7420656e6f75676820696d60601b6044820152606401610c4d565b505095945050505050565b6000600160ff1b82136149d65760405162461bcd60e51b815260206004820152601c60248201527f506572704d6174683a20696e76657273696f6e206f766572666c6f77000000006044820152606401610c4d565b610d3f82615e89565b600080821215614a315760405162461bcd60e51b815260206004820181905260248201527f53616665436173743a2076616c7565206d75737420626520706f7369746976656044820152606401610c4d565b5090565b6000808060001985870985870292508281108382030391505080600003614a6f57838281614a6557614a65615ea5565b0492505050611465565b808411614a7b57600080fd5b60008486880960026001871981018816978890046003810283188082028403028082028403028082028403028082028403028082028403029081029092039091026000889003889004909101858311909403939093029303949094049190911702949350505050565b600080600080614af2615190565b60c086015160009062ffffff1615614b3757614b2b88886000015189602001518a604001518b606001518c60c001518d60e00151614da7565b90945092509050614bd6565b865160208801516040808a015160608b015160e08c015192516380796d5560e01b8152931515600485015290151560248401526044830152151560648201526001600160a01b03909116906380796d55906084016080604051808303816000875af1158015614baa573d6000803e3d6000fd5b505050506040513d601f19601f82011682018060405250810190614bce9190615ebb565b805190925090505b614be9876040015182896080015161446e565b614c0187602001518860400151896060015184615010565b885160a08a01516040516397ec610160e01b8152600481018e90526001600160a01b03909216602483015260448201849052606482018390526000608483015260ff1660a48201529197509550734e365c6E629d08E48dD5e6bAE2BA55BF0Bf95f77906397ec61019060c401602060405180830381865af4158015614c8a573d6000803e3d6000fd5b505050506040513d601f19601f82011682018060405250810190614cae91906157c2565b935050939792965093509350565b6000808213614cdc5760008212614cd4576000610d3f565b600019610d3f565b600192915050565b60006114658284615f26565b60008080614cfe84876146af565b8551909350614d0e9084906146af565b9150614d1a83836146fd565b9050614d33876001015483876020015161ffff1661507f565b60018901919091559150614d46836150b3565b896000016000828254614d599190615f4e565b90915550614d689050826150b3565b886000016000828254614d7b9190615f26565b9091555050865481908890600090614d94908490615df1565b9250508190555096509650969350505050565b600080614db2615190565b8615614f0d578715614e64576040516380796d5560e01b8152881515600482015287151560248201526044810187905284151560648201526001600160a01b038a16906380796d55906084016080604051808303816000875af1158015614e1d573d6000803e3d6000fd5b505050506040513d601f19601f82011682018060405250810190614e419190615ebb565b805193509050614e5183866146af565b9150614e5d83836146fd565b9250614ff3565b614e6e86866146af565b91506001600160a01b0389166380796d558989614e8b8a876146fd565b6040516001600160e01b031960e086901b16815292151560048401529015156024830152604482015286151560648201526084016080604051808303816000875af1158015614ede573d6000803e3d6000fd5b505050506040513d601f19601f82011682018060405250810190614f029190615ebb565b805193509050614ff3565b8715614f4b57614f2e8661439b614f27620f424089614634565b899061469a565b91506001600160a01b0389166380796d558989614e8b8a87614709565b6040516380796d5560e01b8152881515600482015287151560248201526044810187905284151560648201526001600160a01b038a16906380796d55906084016080604051808303816000875af1158015614faa573d6000803e3d6000fd5b505050506040513d601f19601f82011682018060405250810190614fce9190615ebb565b8051909150614fe3613f05620f424088614634565b9350614fef84826146fd565b9250505b8954614fff9083614709565b909955909890979650945050505050565b600080841561504c57851561503a576150288461511d565b615031846150b3565b91509150615076565b615043836150b3565b6150318561511d565b85156150645761505b8361511d565b615031856150b3565b61506d846150b3565b6150318461511d565b94509492505050565b60008061508c8585614709565b945061509d8562ffffff8516615131565b90506150a985826146fd565b9150935093915050565b60006001600160ff1b03821115614a315760405162461bcd60e51b815260206004820152602860248201527f53616665436173743a2076616c756520646f65736e27742066697420696e2061604482015267371034b73a191a9b60c11b6064820152608401610c4d565b6000615128826150b3565b610d3f90615e89565b60006114658284615f6e565b6040518061012001604052806000815260200160008152602001600081526020016000815260200160008152602001600081526020016000815260200160001515815260200161518b615190565b905290565b6040518060800160405280600081526020016000815260200160008152602001600064ffffffffff1681525090565b6000602082840312156151d157600080fd5b813560ff8116811461146557600080fd5b6001600160a01b03811681146130f057600080fd5b60006020828403121561520957600080fd5b8135611465816151e2565b60006080828403121561522657600080fd5b50919050565b634e487b7160e01b600052604160045260246000fd5b604051606081016001600160401b03811182821017156152645761526461522c565b60405290565b604051601f8201601f191681016001600160401b03811182821017156152925761529261522c565b604052919050565b80151581146130f057600080fd5b600060a082840312156152ba57600080fd5b60405160a081018181106001600160401b03821117156152dc576152dc61522c565b60405282356152ea816151e2565b815260208301356152fa816151e2565b6020820152604083013561530d816151e2565b604082015260608301356153208161529a565b606082015260808301356153338161529a565b60808201529392505050565b60006020828403121561535157600080fd5b5035919050565b6000806040838503121561536b57600080fd5b8235615376816151e2565b91506020830135615386816151e2565b809150509250929050565b64ffffffffff811681146130f057600080fd5b6000806000606084860312156153b957600080fd5b83356153c4816151e2565b925060208401356153d48161529a565b915060408401356153e481615391565b809150509250925092565b60008060006060848603121561540457600080fd5b833561540f816151e2565b9250602084013561541f816151e2565b915060408401356153e48161529a565b6020808252825182820181905260009190848201906040850190845b8181101561546e57835164ffffffffff168352928401929184019160010161544b565b50909695505050505050565b602080825282518282018190526000919060409081850190868401855b828110156154cd578151805164ffffffffff16855286810151878601528501518585015260609093019290850190600101615497565b5091979650505050505050565b62ffffff811681146130f057600080fd5b6000602082840312156154fd57600080fd5b8135611465816154da565b600381106130f057600080fd5b6000806040838503121561552857600080fd5b8235615533816151e2565b9150602083013561538681615508565b600060c0828403121561522657600080fd5b600060c0828403121561556757600080fd5b6114658383615543565b60006040828403121561522657600080fd5b6000806020838503121561559657600080fd5b82356001600160401b03808211156155ad57600080fd5b818501915085601f8301126155c157600080fd5b8135818111156155d057600080fd5b8660208260051b85010111156155e557600080fd5b60209290920196919550909350505050565b60005b838110156156125781810151838201526020016155fa565b50506000910152565b600081518084526156338160208601602086016155f7565b601f01601f19169290920160200192915050565b6000602080830181845280855180835260408601915060408160051b870101925083870160005b8281101561569c57603f1988860301845261568a85835161561b565b9450928501929085019060010161566e565b5092979650505050505050565b600060e0828403121561522657600080fd5b600060e082840312156156cd57600080fd5b61146583836156a9565b6020808252825182820181905260009190848201906040850190845b8181101561546e5783516001600160a01b0316835292840192918401916001016156f3565b6000806040838503121561572b57600080fd5b8235615736816151e2565b946020939093013593505050565b634e487b7160e01b600052602160045260246000fd5b600381106130f057634e487b7160e01b600052602160045260246000fd5b602081016157858361575a565b91905290565b6020808252601f908201527f5265656e7472616e637947756172643a207265656e7472616e742063616c6c00604082015260600190565b6000602082840312156157d457600080fd5b5051919050565b6000602082840312156157ed57600080fd5b81356114658161529a565b60006020828403121561580a57600080fd5b813561146581615391565b60006020828403121561582757600080fd5b81516114658161529a565b60006001600160401b0382111561584b5761584b61522c565b5060051b60200190565b6000602080838503121561586857600080fd5b82516001600160401b0381111561587e57600080fd5b8301601f8101851361588f57600080fd5b80516158a261589d82615832565b61526a565b81815260059190911b820183019083810190878311156158c157600080fd5b928401925b8284101561348a5783516158d981615391565b825292840192908401906158c6565b6000604082840312156158fa57600080fd5b604051604081018181106001600160401b038211171561591c5761591c61522c565b604052825181526020928301519281019290925250919050565b6000602080838503121561594957600080fd5b82516001600160401b0381111561595f57600080fd5b8301601f8101851361597057600080fd5b805161597e61589d82615832565b8181526060918202830184019184820191908884111561599d57600080fd5b938501935b838510156134885780858a0312156159ba5760008081fd5b6159c2615242565b85516159cd81615391565b8152858701518782015260408087015190820152835293840193918501916159a2565b600060c08284031215615a0257600080fd5b60405160c081018181106001600160401b0382111715615a2457615a2461522c565b8060405250825181526020830151602082015260408301516040820152606083015160608201526080830151608082015260a0830151615a638161529a565b60a08201529392505050565b61ffff811681146130f057600080fd5b600060208284031215615a9157600080fd5b813561146581615a6f565b8135615aa7816154da565b62ffffff8116905081548162ffffff1982161783556020840135615aca81615a6f565b64ffff0000008160181b168364ffffffffff198416171784555050505050565b634e487b7160e01b600052603260045260246000fd5b6000808335601e19843603018112615b1757600080fd5b8301803591506001600160401b03821115615b3157600080fd5b602001915036819003821315615b4657600080fd5b9250929050565b634e487b7160e01b600052601160045260246000fd5b600060018201615b7557615b75615b4d565b5060010190565b600060608284031215615b8e57600080fd5b615b96615242565b8251815260208301516020820152604083015160408201528091505092915050565b600060e08284031215615bca57600080fd5b60405160e081018181106001600160401b0382111715615bec57615bec61522c565b6040528235615bfa816151e2565b81526020830135615c0a816151e2565b60208201526040830135615c1d8161529a565b60408201526060830135615c308161529a565b806060830152506080830135608082015260a083013560a082015260c083013560c08201528091505092915050565b600060208284031215615c7157600080fd5b813561146581615508565b81810381811115610d3f57610d3f615b4d565b60006101208201905083825260018060a01b038351166020830152602083015160408301526040830151606083015260608301511515608083015262ffffff60808401511660a083015260a0830151615ced60c084018260ff169052565b5060c083015160ff1660e08381019190915290920151151561010090910152919050565b600060208284031215615d2357600080fd5b815161146581615391565b8615158152602081018690526040810185905260c08101615d4e8561575a565b84606083015264ffffffffff841660808301528260a0830152979650505050505050565b600081615d8157615d81615b4d565b506000190190565b600060208284031215615d9b57600080fd5b8151611465816151e2565b60008251615db88184602087016155f7565b9190910192915050565b62ffffff82811682821603908082111561207957612079615b4d565b602081526000611465602083018461561b565b80820180821115610d3f57610d3f615b4d565b60006001600160ff1b0381841382841380821686840486111615615e2a57615e2a615b4d565b600160ff1b6000871282811687830589121615615e4957615e49615b4d565b60008712925087820587128484161615615e6557615e65615b4d565b87850587128184161615615e7b57615e7b615b4d565b505050929093029392505050565b6000600160ff1b8201615e9e57615e9e615b4d565b5060000390565b634e487b7160e01b600052601260045260246000fd5b600060808284031215615ecd57600080fd5b604051608081018181106001600160401b0382111715615eef57615eef61522c565b80604052508251815260208301516020820152604083015160408201526060830151615f1a81615391565b60608201529392505050565b8082018281126000831280158216821582161715615f4657615f46615b4d565b505092915050565b818103600083128015838313168383128216171561207957612079615b4d565b600082615f8b57634e487b7160e01b600052601260045260246000fd5b50049056fe416464726573733a206c6f772d6c6576656c2064656c65676174652063616c6c206661696c6564a2646970667358221220ab16b6962ae1744c53e9c41da2b8b7774e5717064e6ea9e484f4752915a174b864736f6c63430008100033",
  "deployedBytecode": "0x6080604052600436106102d55760003560e01c80638da5cb5b1161017b578063c9ca7b18116100d7578063e671be1711610085578063e671be1714610b09578063ec6cca8414610b29578063ef21b7e814610b49578063f0e9ea9614610b86578063f2fde38b14610bc9578063f652b52714610be9578063fed4063214610c0357600080fd5b8063c9ca7b18146109e7578063ca5b721e14610a07578063cffe855614610a27578063d11102c514610a47578063d1ce35e314610a74578063ddad7e9714610a94578063dfe1cb9214610ace57600080fd5b80639f044f31116101345780639f044f31146108d2578063a616c66c146108f5578063ac3732b41461092a578063ac9650d81461094a578063b53c512514610977578063b6b55f25146109b9578063c66fa8e6146109cc57600080fd5b80638da5cb5b146107e65780638ec992941461080457806393420cf41461082457806394887af71461083b578063996fbf94146108825780639dce9e19146108a257600080fd5b80633a92105111610235578063715018a6116101e3578063715018a61461064857806373f625011461065d5780637a27d9f61461067d5780637b9e618d146106a05780637c88490a146106d457806387cad0bf146106f457806388060d8b1461075457600080fd5b80633a921051146105665780633d46396a146105865780633fd1e2bd146105a65780634b4aa735146105bb5780634ebd6bb4146105db5780635ddd1650146105fb5780636e838bad1461062857600080fd5b80632d67669c116102925780632d67669c146103c05780632e1a7d4d146103e05780632e784343146104005780632f60a151146104845780632fd99bf4146104ba57806331e60ddf1461051957806333ff15771461054657600080fd5b8063030ee0cb146102da5780630674fa41146102fc5780630729e07a1461032f57806318f8c0cd1461034f5780631a8e22e6146103805780632703ee85146103a0575b600080fd5b3480156102e657600080fd5b506102fa6102f53660046151bf565b610c23565b005b34801561030857600080fd5b5061031c6103173660046151f7565b610cb1565b6040519081526020015b60405180910390f35b34801561033b57600080fd5b506102fa61034a366004615214565b610d45565b34801561035b57600080fd5b5060075461036e90610100900460ff1681565b60405160ff9091168152602001610326565b34801561038c57600080fd5b506102fa61039b3660046151f7565b611085565b3480156103ac57600080fd5b5061031c6103bb3660046151f7565b611150565b3480156103cc57600080fd5b5061031c6103db3660046152a8565b6111a1565b3480156103ec57600080fd5b506102fa6103fb36600461533f565b61124d565b34801561040c57600080fd5b5061046961041b366004615358565b604080518082018252600080825260209182018190526001600160a01b0394851681526002825282812093909416845291825291829020825180840190935280548352600101549082015290565b60408051825181526020928301519281019290925201610326565b34801561049057600080fd5b506007546104a69062010000900462ffffff1681565b60405162ffffff9091168152602001610326565b3480156104c657600080fd5b506105016104d53660046153a4565b60066020908152600093845260408085208252928452828420905282529020546001600160a01b031681565b6040516001600160a01b039091168152602001610326565b34801561052557600080fd5b506105396105343660046153ef565b6113bc565b604051610326919061542f565b34801561055257600080fd5b5061031c610561366004615358565b61146c565b34801561057257600080fd5b5061031c6105813660046151f7565b61150f565b34801561059257600080fd5b506102fa6105a136600461533f565b611560565b3480156105b257600080fd5b5061036e601281565b3480156105c757600080fd5b5061031c6105d63660046151f7565b61165f565b3480156105e757600080fd5b506104696105f6366004615358565b6116b0565b34801561060757600080fd5b5061061b6106163660046153ef565b61175a565b604051610326919061547a565b34801561063457600080fd5b506102fa6106433660046154eb565b611800565b34801561065457600080fd5b506102fa61192c565b34801561066957600080fd5b506102fa6106783660046151bf565b611940565b34801561068957600080fd5b506007546104a690600160401b900462ffffff1681565b3480156106ac57600080fd5b506105017f000000000000000000000000000000000000000000000000000000000000000081565b3480156106e057600080fd5b5061031c6106ef366004615358565b6119b1565b34801561070057600080fd5b5061073c61070f3660046151f7565b60026020908152600091825260409182902082519182019092526003820154815260059091015460ff1682565b604080519251835260ff909116602083015201610326565b34801561076057600080fd5b506107bd61076f366004615358565b6001600160a01b03918216600090815260026020818152604080842094909516835292810190925291909120805491810154600482015460059092015464ffffffffff938416949390911692565b6040805164ffffffffff9586168152949093166020850152918301526060820152608001610326565b3480156107f257600080fd5b506001546001600160a01b0316610501565b34801561081057600080fd5b506102fa61081f366004615515565b611a13565b34801561083057600080fd5b5060055461031c9081565b34801561084757600080fd5b506008546108649062ffffff8116906301000000900461ffff1682565b6040805162ffffff909316835261ffff909116602083015201610326565b34801561088e57600080fd5b5061031c61089d366004615358565b611a55565b3480156108ae57600080fd5b506108c26108bd3660046151f7565b611ab7565b6040519015158152602001610326565b3480156108de57600080fd5b506007546104a690600160281b900462ffffff1681565b34801561090157600080fd5b50610915610910366004615555565b611b5a565b60408051928352602083019190915201610326565b34801561093657600080fd5b506102fa610945366004615571565b611e2b565b34801561095657600080fd5b5061096a610965366004615583565b611f8c565b6040516103269190615647565b34801561098357600080fd5b50610997610992366004615358565b612080565b6040805182518152602080840151908201529181015190820152606001610326565b6102fa6109c736600461533f565b6120f4565b3480156109d857600080fd5b50600354600454610915919082565b3480156109f357600080fd5b506102fa610a023660046154eb565b6124b1565b348015610a1357600080fd5b5061031c610a22366004615358565b6125d9565b348015610a3357600080fd5b5061031c610a423660046156bb565b61263b565b348015610a5357600080fd5b50610a67610a623660046151f7565b612753565b60405161032691906156d7565b348015610a8057600080fd5b506102fa610a8f3660046154eb565b6127cc565b348015610aa057600080fd5b506102fa610aaf366004615718565b6001600160a01b03909116600090815260026020526040902060030155565b348015610ada57600080fd5b50610aee610ae9366004615555565b61289e565b60408051938452602084019290925290820152606001610326565b348015610b1557600080fd5b5061031c610b243660046156bb565b612b49565b348015610b3557600080fd5b506108c2610b443660046151f7565b612bbd565b348015610b5557600080fd5b50610b79610b643660046151f7565b60096020526000908152604090205460ff1681565b6040516103269190615778565b348015610b9257600080fd5b50610ba6610ba1366004615555565b612c22565b6040805164ffffffffff9094168452602084019290925290820152606001610326565b348015610bd557600080fd5b506102fa610be43660046151f7565b61307a565b348015610bf557600080fd5b5060075461036e9060ff1681565b348015610c0f57600080fd5b506108c2610c1e3660046151f7565b6130f3565b610c2b613151565b600260005403610c565760405162461bcd60e51b8152600401610c4d9061578b565b60405180910390fd5b60026000556007805461ff00191661010060ff8416908102919091179091556040519081527fa1c52f9241e2609b5e6bd1b508707a109021d174cc16f3b16215c457d4bbddfa906020015b60405180910390a1506001600055565b6001600160a01b038116600090815260026020526040808220905163d73fd34160e01b8152600481019190915273__$d5b0dec45940a7a1291c9da6fe7c8bb2e1$__9063d73fd341906024015b602060405180830381865af4158015610d1b573d6000803e3d6000fd5b505050506040513d601f19601f82011682018060405250810190610d3f91906157c2565b92915050565b600260005403610d675760405162461bcd60e51b8152600401610c4d9061578b565b60026000556060810135610d7a816131ab565b610d8760208301836151f7565b610d90816131ed565b6000600681610da260208701876151f7565b6001600160a01b03166001600160a01b031681526020019081526020016000206000856020016020810190610dd791906157db565b1515151581526020019081526020016000206000856040016020810190610dfe91906157f8565b64ffffffffff1681526020810191909152604001600020546001600160a01b0316905080610e685760405162461bcd60e51b8152602060048201526017602482015276141157d0d313ce881bdc99195c881b9bdd08195e1a5cdd604a1b6044820152606401610c4d565b610e7181613263565b6001600160a01b0381166000908152600260209081526040808320815160c0810190925273__$20e084fd68fd7ab4ec93efaca84ca46fc4$__92637ae9aeb292908190610ec0908b018b6151f7565b6001600160a01b03168152602001610ede60608b0160408c016157f8565b64ffffffffff168152602001896020016020810190610efd91906157db565b15158152600754600160281b900462ffffff166020820152604001336001600160a01b0390811688821614825260075460ff9081166020938401526040805160e088901b6001600160e01b03191681526004810196909652845190921660248601529183015164ffffffffff16604485015282015115156064840152606082015162ffffff1660848401526080820151151560a484015260a0909101511660c482015260e401602060405180830381865af4158015610fc0573d6000803e3d6000fd5b505050506040513d601f19601f82011682018060405250810190610fe49190615815565b905080610ff2576000610ff4565b335b6001600160a01b031661100a60208701876151f7565b6001600160a01b039081169084167f4de6bf440f231c89a9a5151794265a35b57c248083faeae83678c9259a7dd12361104960408a0160208b016157db565b61105960608b0160408c016157f8565b60408051921515835264ffffffffff90911660208301520160405180910390a450506001600055505050565b6002600054036110a75760405162461bcd60e51b8152600401610c4d9061578b565b6002600055806110b6816132cc565b336110c081613263565b6001600160a01b03818116600090815260026020526040908190209051630530e4fd60e41b81526004810191909152908416602482015273__$d5b0dec45940a7a1291c9da6fe7c8bb2e1$__9063530e4fd09060440160006040518083038186803b15801561112e57600080fd5b505af4158015611142573d6000803e3d6000fd5b505060016000555050505050565b6001600160a01b03811660009081526002602052604080822090516344ae957f60e11b8152600481019190915273__$d5b0dec45940a7a1291c9da6fe7c8bb2e1$__9063895d2afe90602401610cfe565b600060016020808401516001600160a01b031660009081526009909152604090205460ff1660028111156111d7576111d7615744565b146111e457506000919050565b81516040808401516001600160a01b038084166000818152600260209081529490209387015160608801516080890151600754959661124596909593949293919262ffffff600160281b8304811693600160401b9093041691891614613348565b949350505050565b60026000540361126f5760405162461bcd60e51b8152600401610c4d9061578b565b60026000553361127e81613263565b6001600160a01b0381811660008181526002602090815260409182902082516080810184527f00000000000000000000000000000000000000000000000000000000000000008616815291820187815282840194855260075462010000900462ffffff908116606085019081529451638b72b4c760e01b815260048101939093529251861660248301525160448201529251909316606483015251909116608482015273__$2adfba613814486128a81a7b4ccb98752b$__90638b72b4c79060a40160006040518083038186803b15801561135857600080fd5b505af415801561136c573d6000803e3d6000fd5b50505050806001600160a01b03167f7084f5476618d8e60b11ef0d7d3f06914655adb8793e28ff7f018d4c76d505d5836040516113ab91815260200190565b60405180910390a250506001600055565b6001600160a01b0383811660009081526002602052604090819020905163733242af60e11b815260048101919091529083166024820152811515604482015260609073__$20e084fd68fd7ab4ec93efaca84ca46fc4$__9063e664855e90606401600060405180830381865af415801561143a573d6000803e3d6000fd5b505050506040513d6000823e601f3d908101601f191682016040526114629190810190615855565b90505b9392505050565b6001600160a01b0382166000908152600260205260408082209051632de9906b60e11b815273__$d5b0dec45940a7a1291c9da6fe7c8bb2e1$__91635bd320d6916114ce919086906004019182526001600160a01b0316602082015260400190565b602060405180830381865af41580156114eb573d6000803e3d6000fd5b505050506040513d601f19601f8201168201806040525081019061146591906157c2565b6001600160a01b0381166000908152600260205260408082209051631caf045760e31b8152600481019190915273__$d5b0dec45940a7a1291c9da6fe7c8bb2e1$__9063e57822b890602401610cfe565b611568613151565b60026000540361158a5760405162461bcd60e51b8152600401610c4d9061578b565b60026000553361159981613263565b6001600160a01b0381166000908152600260205260409081902090516333a4aff760e21b81526004810191909152600560248201526044810183905273__$2adfba613814486128a81a7b4ccb98752b$__9063ce92bfdc9060640160006040518083038186803b15801561160c57600080fd5b505af4158015611620573d6000803e3d6000fd5b50505050806001600160a01b03167f0880b0e717a57f3b5cbd3fc19396ae3c8cdee5c624c9289477869c38014c8495836040516113ab91815260200190565b6001600160a01b03811660009081526002602052604080822090516367dd27b160e01b8152600481019190915273__$d5b0dec45940a7a1291c9da6fe7c8bb2e1$__906367dd27b190602401610cfe565b60408051808201909152600080825260208201526001600160a01b0383811660009081526002602052604090819020905163195bd60760e31b81526004810191909152908316602482015273__$d5b0dec45940a7a1291c9da6fe7c8bb2e1$__9063cadeb038906044016040805180830381865af4158015611736573d6000803e3d6000fd5b505050506040513d601f19601f8201168201806040525081019061146591906158e8565b6001600160a01b03838116600090815260026020526040908190209051632e9e3b9360e11b815260048101919091529083166024820152811515604482015260609073__$20e084fd68fd7ab4ec93efaca84ca46fc4$__90635d3c772690606401600060405180830381865af41580156117d8573d6000803e3d6000fd5b505050506040513d6000823e601f3d908101601f191682016040526114629190810190615936565b611808613151565b60026000540361182a5760405162461bcd60e51b8152600401610c4d9061578b565b6002600055620f424062ffffff82161061187a5760405162461bcd60e51b815260206004820152601160248201527050455f5349523a20746f6f206c6172676560781b6044820152606401610c4d565b60075462ffffff600160281b909104811690821610156118dc5760405162461bcd60e51b815260206004820152601c60248201527f50455f5349523a20736d616c6c6572207468616e206d6d526174696f000000006044820152606401610c4d565b6007805464ffffff000019166201000062ffffff8416908102919091179091556040519081527f04f9c1a24c6543f4b91577d82af28fb7ef6d7b9fe46acd0e5c36ef17073b94e690602001610ca1565b611934613151565b61193e6000613495565b565b611948613151565b60026000540361196a5760405162461bcd60e51b8152600401610c4d9061578b565b60026000556007805460ff191660ff83169081179091556040519081527fa7b4760b38e2a630f3073fcd5119972cbf81bd50e3761f86534a69661caf811090602001610ca1565b6001600160a01b038216600090815260026020526040808220905163af77d70760e01b815273__$d5b0dec45940a7a1291c9da6fe7c8bb2e1$__9163af77d707916114ce919086906004019182526001600160a01b0316602082015260400190565b611a1b613151565b600260005403611a3d5760405162461bcd60e51b8152600401610c4d9061578b565b6002600055611a4c82826134e7565b50506001600055565b6001600160a01b0382166000908152600260205260408082209051630d832e2160e31b815273__$d5b0dec45940a7a1291c9da6fe7c8bb2e1$__91636c197108916114ce919086906004019182526001600160a01b0316602082015260400190565b6001600160a01b0381166000908152600260205260408082206007549151633c7e525f60e01b81526004810191909152600160281b90910462ffffff16602482015273__$d5b0dec45940a7a1291c9da6fe7c8bb2e1$__90633c7e525f906044015b602060405180830381865af4158015611b36573d6000803e3d6000fd5b505050506040513d601f19601f82011682018060405250810190610d3f9190615815565b600080600260005403611b7f5760405162461bcd60e51b8152600401610c4d9061578b565b600260005560a0830135611b92816131ab565b611ba260408501602086016151f7565b611bab816131ed565b611bc0611bbb60208701876151f7565b613263565b600073__$0d082d4f68cd76e21bd5ff3b4c3f93bd83$__639b6bfbdf600283611bec60208b018b6151f7565b6001600160a01b03166001600160a01b031681526020019081526020016000206040518060e001604052808a6020016020810190611c2a91906151f7565b6001600160a01b0316815260408b81013560208301526060808d0135918301919091526080808d013591830191909152600754600160281b810462ffffff169183019190915260ff1660a082015260c001336001600160a01b0316611c9260208d018d6151f7565b6001600160a01b03908116919091149091526040805160e086901b6001600160e01b031916815260048101949094528251909116602484015260208201516044840152810151606483015260608101516084830152608081015162ffffff1660a483015260a081015160ff1660c483015260c00151151560e48201526101040160c060405180830381865af4158015611d2f573d6000803e3d6000fd5b505050506040513d601f19601f82011682018060405250810190611d5391906159f0565b9050611d6560408701602088016151f7565b6001600160a01b0316611d7b60208801886151f7565b6001600160a01b03167f6412738c4a8b04483cde318a630d4c268654a7ebd52c9ef2c516e5e8520a4fd88360a00151611db5576000611db7565b335b84516020808701516040808901516060808b01516080808d015185516001600160a01b039a909a168a5296890197909752878401949094528f830135908701529385019390935260a084015260c0830152519081900360e00190a38051602090910151600160005590969095509350505050565b611e33613151565b600260005403611e555760405162461bcd60e51b8152600401610c4d9061578b565b6002600055620f4240611e6b60208301836154eb565b62ffffff1610611ebd5760405162461bcd60e51b815260206004820152601f60248201527f50455f534c52433a20746f6f206c617267652072657761726420726174696f006044820152606401610c4d565b6000611ecf6040830160208401615a7f565b61ffff1611611f205760405162461bcd60e51b815260206004820152601960248201527f50455f534c52433a20656d612074696d65206973207a65726f000000000000006044820152606401610c4d565b806008611f2d8282615a9c565b507f1185c4964ca5cd3d88d5dfbc1fb65b84d5533e3354f3b2163e8e1c0f35bca0e19050611f5e60208301836154eb565b611f6e6040840160208501615a7f565b6040805162ffffff909316835261ffff909116602083015201610ca1565b6060816001600160401b03811115611fa657611fa661522c565b604051908082528060200260200182016040528015611fd957816020015b6060815260200190600190039081611fc45790505b50905060005b828110156120795761204930858584818110611ffd57611ffd615aea565b905060200281019061200f9190615b00565b8080601f0160208091040260200160405190810160405280939291908181526020018383808284376000920191909152506137bc92505050565b82828151811061205b5761205b615aea565b6020026020010181905250808061207190615b63565b915050611fdf565b5092915050565b6120a460405180606001604052806000815260200160008152602001600081525090565b506001600160a01b03808316600090815260026020818152604080842094861684526001948501825292839020835160608101855281548152948101549185019190915201549082015292915050565b6002600054036121165760405162461bcd60e51b8152600401610c4d9061578b565b60026000553361212581613263565b6001600160a01b038116600090815260026020526040808220905163218be9d560e11b815260048101919091526003602482015273__$2adfba613814486128a81a7b4ccb98752b$__90634317d3aa90604401602060405180830381865af4158015612195573d6000803e3d6000fd5b505050506040513d601f19601f820116820180604052508101906121b991906157c2565b9050801561220557816001600160a01b03167f02637aab023322fc124131f556858082be212382f69cdec79efddcbfbc5c0205826040516121fc91815260200190565b60405180910390a25b7f00000000000000000000000000000000000000000000000000000000000000006001600160a01b03166123425782156122795760405162461bcd60e51b815260206004820152601560248201527450455f443a20616d6f756e74206e6f74207a65726f60581b6044820152606401610c4d565b6001600160a01b038216600090815260026020526040908190209051624d1ed560e11b8152600481019190915234602482015273__$2adfba613814486128a81a7b4ccb98752b$__90629a3daa9060440160006040518083038186803b1580156122e257600080fd5b505af41580156122f6573d6000803e3d6000fd5b50505050816001600160a01b03167f2da466a7b24304f47e87fa2e1e5a81b9831ce54fec19055ce277ca2f39ba42c43460405161233591815260200190565b60405180910390a26124a7565b34156123905760405162461bcd60e51b815260206004820152601860248201527f50455f443a206d73672e76616c7565206e6f74207a65726f00000000000000006044820152606401610c4d565b6001600160a01b0382811660008181526002602090815260409182902082516060810184527f0000000000000000000000000000000000000000000000000000000000000000861681529182018881528284019485529251631faeb67360e31b81526004810191909152905184166024820152905160448201529051909116606482015273__$2adfba613814486128a81a7b4ccb98752b$__9063fd75b3989060840160006040518083038186803b15801561244b57600080fd5b505af415801561245f573d6000803e3d6000fd5b50505050816001600160a01b03167f2da466a7b24304f47e87fa2e1e5a81b9831ce54fec19055ce277ca2f39ba42c48460405161249e91815260200190565b60405180910390a25b5050600160005550565b6124b9613151565b6002600054036124db5760405162461bcd60e51b8152600401610c4d9061578b565b600260005560075462ffffff62010000909104811690821611156125415760405162461bcd60e51b815260206004820152601b60248201527f50455f534d523a20626967676572207468616e20696d526174696f00000000006044820152606401610c4d565b60008162ffffff16116125855760405162461bcd60e51b815260206004820152600c60248201526b50455f534d523a207a65726f60a01b6044820152606401610c4d565b6007805467ffffff00000000001916600160281b62ffffff8416908102919091179091556040519081527ffbd0bf17b9833a130f5baeccbfc586acefc75be8ad5bb114f448e412adc4c05b90602001610ca1565b6001600160a01b0382166000908152600260205260408082209051632691409160e01b815273__$d5b0dec45940a7a1291c9da6fe7c8bb2e1$__916326914091916114ce919086906004019182526001600160a01b0316602082015260400190565b600061264d60408301602084016151f7565b612656816131ed565b600061266560208501856151f7565b9050600061267960608601604087016151f7565b905061274a60026000846001600160a01b03166001600160a01b031681526020019081526020016000206040518061010001604052808860200160208101906126c291906151f7565b6001600160a01b031681526020016126e060808a0160608b016157db565b151581526020016126f760a08a0160808b016157db565b1515815260a0808a0135602083015260c08a0135604083015260075462ffffff600160281b820481166060850152600160401b9091041660808301526001600160a01b03878116908716149101526137e1565b95945050505050565b6001600160a01b0381166000908152600260209081526040918290206004018054835181840281018401909452808452606093928301828280156127c057602002820191906000526020600020905b81546001600160a01b031681526001909101906020018083116127a2575b50505050509050919050565b6127d4613151565b6002600054036127f65760405162461bcd60e51b8152600401610c4d9061578b565b600260005561271062ffffff821611156128475760405162461bcd60e51b815260206004820152601260248201527150455f535046523a20746f6f206c6172676560701b6044820152606401610c4d565b600780546affffff00000000000000001916600160401b62ffffff8416908102919091179091556040519081527f68c41b7a5c12c4d9cbb99ec284bf647922a75f379a90694e3ad65574f4ff944d90602001610ca1565b60008060006002600054036128c55760405162461bcd60e51b8152600401610c4d9061578b565b600260005560a08401356128d8816131ab565b6128e560208601866151f7565b6128ee816131ed565b336128f881613263565b6001600160a01b0381166000908152600260209081526040808320815160e0810190925273__$0d082d4f68cd76e21bd5ff3b4c3f93bd83$__926360e361e092908190612947908e018e6151f7565b6001600160a01b0316815260208d810135908201526040808e0135818301526060808f0135908301526080808f01359083015260075462ffffff6201000082041660a084015260ff1660c090920191909152516001600160e01b031960e085901b168152612a1a92919060040160006101008201905083825260018060a01b038351166020830152602083015160408301526040830151606083015260608301516080830152608083015160a083015262ffffff60a08401511660c083015260ff60c08401511660e08301529392505050565b606060405180830381865af4158015612a37573d6000803e3d6000fd5b505050506040513d601f19601f82011682018060405250810190612a5b9190615b7c565b6001600160a01b038316600090815260026020908152604082209293509091600101908290612a8c908c018c6151f7565b6001600160a01b031681526020808201929092526040016000209150612ab4908a018a6151f7565b82516020808501516040808701516001870154600288015483519687529486019390935290840152606083015260808201526001600160a01b03918216918516907fea3191ffbe2f62bfd724ee8d971b15ff9b7994e3a9169dc4c60443be3e4a43c49060a00160405180910390a38160000151826020015183604001519750975097505050505b505060016000559193909250565b6000600260005403612b6d5760405162461bcd60e51b8152600401610c4d9061578b565b600260005560c0820135612b80816131ab565b612b9060408401602085016151f7565b612b99816131ed565b612bb0612bab36869003860186615bb8565b6138e0565b6001600055949350505050565b6001600160a01b0381166000908152600260205260408082206007549151634d3a1f3d60e11b815260048101919091526201000090910462ffffff16602482015273__$d5b0dec45940a7a1291c9da6fe7c8bb2e1$__90639a743e7a90604401611b19565b6000806000600260005403612c495760405162461bcd60e51b8152600401610c4d9061578b565b60026000556080840135612c5c816131ab565b612c6960208601866151f7565b612c72816131ed565b336001612c8560c0890160a08a01615c5f565b6002811115612c9657612c96615744565b14612dcd576000612cad6040890160208a016157db565b1590506000612cbf60208a018a6151f7565b6040516366a61ffb60e01b815283151560048201819052602482015260608b013560448201526001600160a01b0391909116906366a61ffb90606401602060405180830381865afa158015612d18573d6000803e3d6000fd5b505050506040513d601f19601f82011682018060405250810190612d3c91906157c2565b9050612d4c818a60400135613d2c565b96508615612dca57612dc76040518060e00160405280856001600160a01b031681526020018b6000016020810190612d8491906151f7565b6001600160a01b031681526020018415158152602001841515815260200189815260200184612db557600019612db8565b60005b815260200160008152506138e0565b95505b50505b8487604001351480612dff57506002612dec60c0890160a08a01615c5f565b6002811115612dfd57612dfd615744565b145b15612e0e576000955050612b3b565b612e1781613263565b6001600160a01b0381166000908152600260209081526040918290208251610100810190935273__$20e084fd68fd7ab4ec93efaca84ca46fc4$__9263d34e48d4928190612e67908d018d6151f7565b6001600160a01b03168152602001612e838a60408e0135615c7c565b81526020018b6060013581526020018b6020016020810190612ea591906157db565b1515815260075462ffffff62010000820416602083015260ff80821660408401526101009091041660608201526080016000612ee760c08e0160a08f01615c5f565b6002811115612ef857612ef8615744565b1490526040516001600160e01b031960e085901b168152612f1d929190600401615c8f565b602060405180830381865af4158015612f3a573d6000803e3d6000fd5b505050506040513d601f19601f82011682018060405250810190612f5e9190615d11565b95508060066000612f7260208b018b6151f7565b6001600160a01b03166001600160a01b031681526020019081526020016000206000896020016020810190612fa791906157db565b151581526020808201929092526040908101600090812064ffffffffff8b16825283522080546001600160a01b0319166001600160a01b039390931692909217909155612ff6908801886151f7565b6001600160a01b039081169082167f8ee9f54c945bff2a9eeec6044c0cf26c827fe5f224920cc0f9b82f8f5c9537af61303560408b0160208c016157db565b60408b013560608c013561304f60c08e0160a08f01615c5f565b8c8c60405161306396959493929190615d2e565b60405180910390a350505060016000559193909250565b613082613151565b6001600160a01b0381166130e75760405162461bcd60e51b815260206004820152602660248201527f4f776e61626c653a206e6577206f776e657220697320746865207a65726f206160448201526564647265737360d01b6064820152608401610c4d565b6130f081613495565b50565b6001600160a01b03811660009081526002602052604080822090516210164360e11b8152600481019190915273__$d5b0dec45940a7a1291c9da6fe7c8bb2e1$__9062202c8690602401611b19565b6001600160a01b03163b151590565b6001546001600160a01b0316331461193e5760405162461bcd60e51b815260206004820181905260248201527f4f776e61626c653a2063616c6c6572206973206e6f7420746865206f776e65726044820152606401610c4d565b804211156130f05760405162461bcd60e51b815260206004820152600f60248201526e50455f43443a20746f6f206c61746560881b6044820152606401610c4d565b60016001600160a01b03821660009081526009602052604090205460ff16600281111561321c5761321c615744565b146130f05760405162461bcd60e51b81526020600482015260176024820152762822afa1a6a79d1036b0b935b2ba103737ba1037b832b760491b6044820152606401610c4d565b6001600160a01b038116600090815260026020526040902060040180545b80156132c75761329081615d72565b90506132c2838383815481106132a8576132a8615aea565b6000918252602090912001546001600160a01b0316613d42565b613281565b505050565b60026001600160a01b03821660009081526009602052604090205460ff1660028111156132fb576132fb615744565b146130f05760405162461bcd60e51b815260206004820152601960248201527f50455f434d433a206d61726b6574206e6f7420636c6f736564000000000000006044820152606401610c4d565b604051633c7e525f60e01b81526004810188905262ffffff84166024820152600090819073__$d5b0dec45940a7a1291c9da6fe7c8bb2e1$__90633c7e525f90604401602060405180830381865af41580156133a8573d6000803e3d6000fd5b505050506040513d601f19601f820116820180604052508101906133cc9190615815565b159050821580156133db575080155b156133ea57600091505061348a565b8362ffffff166000036134785760405163e8fa204f60e01b81528715156004820152861515602482015281151560448201526001600160a01b0389169063e8fa204f90606401602060405180830381865afa15801561344d573d6000803e3d6000fd5b505050506040513d601f19601f8201168201806040525081019061347191906157c2565b9150613488565b6134858888888785613e6b565b91505b505b979650505050505050565b600180546001600160a01b038381166001600160a01b0319831681179093556040519116919082907f8be0079c531659141344cd1fd0a4f28419497f9722a3daafe3b4186f6b6457e090600090a35050565b8060028111156134f9576134f9615744565b6001600160a01b03831660009081526009602052604090205460ff16600281111561352657613526615744565b0361352f575050565b600181600281111561354357613543615744565b036136d9576001600160a01b0382163b61359f5760405162461bcd60e51b815260206004820152601f60248201527f50455f53494d413a206d61726b6574206164647265737320696e76616c6964006044820152606401610c4d565b306001600160a01b0316826001600160a01b031663d2f7265a6040518163ffffffff1660e01b8152600401602060405180830381865afa1580156135e7573d6000803e3d6000fd5b505050506040513d601f19601f8201168201806040525081019061360b9190615d89565b6001600160a01b0316146136615760405162461bcd60e51b815260206004820152601b60248201527f50455f53494d413a20646966666572656e742065786368616e676500000000006044820152606401610c4d565b6001600160a01b03821660009081526009602052604081205460ff16600281111561368e5761368e615744565b146136d45760405162461bcd60e51b8152602060048201526016602482015275141157d4d253504e881b585c9ad95d0818db1bdcd95960521b6044820152606401610c4d565b61373d565b60028160028111156136ed576136ed615744565b036136fb576136d4826131ed565b60405162461bcd60e51b815260206004820152601760248201527650455f53494d413a20696e76616c69642073746174757360481b6044820152606401610c4d565b6001600160a01b0382166000908152600960205260409020805482919060ff1916600183600281111561377257613772615744565b0217905550816001600160a01b03167f74254d01f8ce923659c1e8739f33585649bc64b648a0382f22174528e5da382e826040516137b09190615778565b60405180910390a25050565b60606114658383604051806060016040528060278152602001615f9160279139613f30565b6000806137fe8484600001518560e001518660a00151600161400d565b90508260c0015162ffffff166000036138a757825160208401516040808601516060870151915162de853760e31b8152921515600484015215156024830152604482015282151560648201526001600160a01b03909116906306f429b890608401602060405180830381865afa15801561387c573d6000803e3d6000fd5b505050506040513d601f19601f820116820180604052508101906138a091906157c2565b91506138cd565b6138c983600001518460200151856040015186606001518760c0015186614230565b5091505b612079836040015183856080015161446e565b60006138ef8260000151613263565b60006138fa83614514565b90508061010001516060015164ffffffffff16600014613adb57602080840180516001600160a01b039081166000908152600684526040808220818901511515835285528082206101008701516060015164ffffffffff1683529094529290922054905191169061396c908290613d42565b6001600160a01b03818116600090815260026020908152604080832088830151898301516007546101008a01518551632d4c09e360e11b815260048101959095529290971660248401521515604483015260ff9095166064820152845160848201529184015160a483015283015160c482015260609092015164ffffffffff1660e48301529073__$20e084fd68fd7ab4ec93efaca84ca46fc4$__90635a9813c69061010401602060405180830381865af4158015613a2f573d6000803e3d6000fd5b505050506040513d601f19601f82011682018060405250810190613a5391906157c2565b905084602001516001600160a01b0316826001600160a01b03167f6a44f7a15d600604cd07ab787ae45c22908a25bcc8a24e951f297a4ff4885ccc8760400151866101000151602001518761010001516040015186604051613ad09493929190931515845260208401929092526040830152606082015260800190565b60405180910390a350505b600083602001516001600160a01b0316639482de1a6040518163ffffffff1660e01b8152600401602060405180830381865afa158015613b1f573d6000803e3d6000fd5b505050506040513d601f19601f82011682018060405250810190613b4391906157c2565b9050600084602001516001600160a01b0316638ee8fe5d6040518163ffffffff1660e01b8152600401602060405180830381865afa158015613b89573d6000803e3d6000fd5b505050506040513d601f19601f82011682018060405250810190613bad91906157c2565b90508260e0015115613c8157336001600160a01b031685602001516001600160a01b031686600001516001600160a01b03167f7c3978559b662b8adf839d43cce2ec6ab7db3fdc995575e4576acc9e0628985d866000015187602001518860400151896060015189898c608001518d60a001518e60c00151604051613c7499989796959493929190988952602089019790975260408801959095526060870193909352608086019190915260a085015260c084015260e08301526101008201526101200190565b60405180910390a4613cfc565b60208086015186518551868401516040808901516060808b0151835195865297850193909352908301528101939093526080830185905260a083018490526001600160a01b03918216929116907fe386a40c070a1424ae709b98c27e64993228f777c6294ef7149cf0ee42ef46e89060c00160405180910390a35b846040015115158560600151151514613d1f578251613d1a9061460b565b61274a565b61274a836020015161460b565b6000818310613d3b5781611465565b5090919050565b6001600160a01b038281166000908152600260205260408082206007549151637bb8754b60e11b81526004810191909152928416602484015260ff1660448301529073__$20e084fd68fd7ab4ec93efaca84ca46fc4$__9063f770ea9690606401606060405180830381865af4158015613dc0573d6000803e3d6000fd5b505050506040513d601f19601f82011682018060405250810190613de49190615b7c565b8051909150151580613df95750602081015115155b80613e075750604081015115155b156132c75780516020808301516040808501518151948552928401919091528201526001600160a01b0380841691908516907f6b5fa0b84481e8650541048bcfc70b68c11e1e8234750aa74d18c8e98ac9a2ba9060600160405180910390a3505050565b60405163e8fa204f60e01b81528415156004820152831515602482015281151560448201526000906001600160a01b0387169063e8fa204f90606401602060405180830381865afa158015613ec4573d6000803e3d6000fd5b505050506040513d601f19601f82011682018060405250810190613ee891906157c2565b90508315613f13578461274a57613f0c613f05620f424085614634565b829061469a565b905061274a565b841561274a57613f0c613f29620f424085614634565b82906146af565b60606001600160a01b0384163b613f985760405162461bcd60e51b815260206004820152602660248201527f416464726573733a2064656c65676174652063616c6c20746f206e6f6e2d636f6044820152651b9d1c9858dd60d21b6064820152608401610c4d565b600080856001600160a01b031685604051613fb39190615da6565b600060405180830381855af49150503d8060008114613fee576040519150601f19603f3d011682016040523d82523d6000602084013e613ff3565b606091505b50915091506140038282866146c4565b9695505050505050565b604051633c7e525f60e01b81526004810186905262ffffff8316602482015260009073__$d5b0dec45940a7a1291c9da6fe7c8bb2e1$__90633c7e525f90604401602060405180830381865af415801561406b573d6000803e3d6000fd5b505050506040513d601f19601f8201168201806040525081019061408f9190615815565b159050836140d757806140d75760405162461bcd60e51b815260206004820152601060248201526f544c5f56543a20656e6f756768206d6d60801b6044820152606401610c4d565b811580156140e25750805b1561274a576001600160a01b03851660009081526001870160205260409020541561414f5760405162461bcd60e51b815260206004820181905260248201527f544c5f56543a206e6f206d616b6572207768656e206c69717569646174696f6e6044820152606401610c4d565b6001600160a01b038516600090815260028701602052604090205464ffffffffff16156141be5760405162461bcd60e51b815260206004820152601e60248201527f544c5f56543a206e6f2061736b207768656e206c69717569646174696f6e00006044820152606401610c4d565b6001600160a01b038516600090815260028088016020526040909120015464ffffffffff161561274a5760405162461bcd60e51b815260206004820152601e60248201527f544c5f56543a206e6f20626964207768656e206c69717569646174696f6e00006044820152606401610c4d565b600080851561437a5786156142de5760405162de853760e31b8152871515600482015286151560248201526044810186905283151560648201526001600160a01b038916906306f429b890608401602060405180830381865afa15801561429b573d6000803e3d6000fd5b505050506040513d601f19601f820116820180604052508101906142bf91906157c2565b91506142cb82856146af565b90506142d782826146fd565b9150614463565b6142e885856146af565b90506001600160a01b0388166306f429b8888861430589866146fd565b6040516001600160e01b031960e086901b1681529215156004840152901515602483015260448201528515156064820152608401602060405180830381865afa158015614356573d6000803e3d6000fd5b505050506040513d601f19601f820116820180604052508101906142d791906157c2565b86156143be576143a18561439b614394620f424088614634565b889061469a565b906146fd565b90506001600160a01b0388166306f429b888886143058986614709565b60405162de853760e31b8152871515600482015286151560248201526044810186905283151560648201526000906001600160a01b038a16906306f429b890608401602060405180830381865afa15801561441d573d6000803e3d6000fd5b505050506040513d601f19601f8201168201806040525081019061444191906157c2565b9050614453613f05620f424087614634565b925061445f83826146fd565b9150505b965096945050505050565b82156144c457808210156132c75760405162461bcd60e51b815260206004820181905260248201527f544c5f56533a20746f6f20736d616c6c206f70706f7369746520616d6f756e746044820152606401610c4d565b808211156132c75760405162461bcd60e51b815260206004820181905260248201527f544c5f56533a20746f6f206c61726765206f70706f7369746520616d6f756e746044820152606401610c4d565b61451c61513d565b81516001600160a01b03908116600090815260026020908152604080832033808552938290208251610160810184528489015187168152838901511515818601526060808a01511515828601526080808b01519183019190915260a0808b01519183019190915260075462ffffff600160281b8204811692840192909252620100008104821660c084015260ff811660e0840152600160401b90048116610100830152895190971690951461012086015282518084019093526008549586168352630100000090950461ffff1692820192909252610140830152610d3f92909160039182019190600590614715565b60008082121561462b5761462661462183614981565b6149df565b610d3f565b610d3f826149df565b60008262ffffff168262ffffff1611156146905760405162461bcd60e51b815260206004820152601e60248201527f506572704d6174683a207375627472616374696f6e206f766572666c6f7700006044820152606401610c4d565b6114658284615dc2565b600061146583620f42408462ffffff16614a35565b6000611465838362ffffff16620f4240614a35565b606083156146d3575081611465565b8251156146e35782518084602001fd5b8160405162461bcd60e51b8152600401610c4d9190615dde565b60006114658284615c7c565b60006114658284615df1565b61471d61513d565b6147388683600001518461012001518560a00151600061400d565b151560e080830191825283516001600160a01b03908116600090815260208a8152604091829020548251610100808201855289519095168152828901511515928101929092528288015115159282019290925260608088015190820152608080880151908201528684015160ff1660a08201529186015162ffffff1660c083015292511515918101919091526147d19088908690614ae4565b61010087015260608601526040850152602084015280835260009081906147f790614cbc565b845161480d90614808908690614ce4565b614cbc565b6148179190615e04565b1390508260e00151156148a85780156148725760405162461bcd60e51b815260206004820152601f60248201527f544c5f4f503a206e6f206f70656e207768656e206c69717569646174696f6e006044820152606401610c4d565b6148988860030188888760a00151886101400151614893896020015161460b565b614cf0565b60c086015260a085015260808401525b80156149765760c0840151604051634d3a1f3d60e11b8152600481018a905262ffffff909116602482015273__$d5b0dec45940a7a1291c9da6fe7c8bb2e1$__90639a743e7a90604401602060405180830381865af415801561490f573d6000803e3d6000fd5b505050506040513d601f19601f820116820180604052508101906149339190615815565b6149765760405162461bcd60e51b8152602060048201526014602482015273544c5f4f503a206e6f7420656e6f75676820696d60601b6044820152606401610c4d565b505095945050505050565b6000600160ff1b82136149d65760405162461bcd60e51b815260206004820152601c60248201527f506572704d6174683a20696e76657273696f6e206f766572666c6f77000000006044820152606401610c4d565b610d3f82615e89565b600080821215614a315760405162461bcd60e51b815260206004820181905260248201527f53616665436173743a2076616c7565206d75737420626520706f7369746976656044820152606401610c4d565b5090565b6000808060001985870985870292508281108382030391505080600003614a6f57838281614a6557614a65615ea5565b0492505050611465565b808411614a7b57600080fd5b60008486880960026001871981018816978890046003810283188082028403028082028403028082028403028082028403028082028403029081029092039091026000889003889004909101858311909403939093029303949094049190911702949350505050565b600080600080614af2615190565b60c086015160009062ffffff1615614b3757614b2b88886000015189602001518a604001518b606001518c60c001518d60e00151614da7565b90945092509050614bd6565b865160208801516040808a015160608b015160e08c015192516380796d5560e01b8152931515600485015290151560248401526044830152151560648201526001600160a01b03909116906380796d55906084016080604051808303816000875af1158015614baa573d6000803e3d6000fd5b505050506040513d601f19601f82011682018060405250810190614bce9190615ebb565b805190925090505b614be9876040015182896080015161446e565b614c0187602001518860400151896060015184615010565b885160a08a01516040516397ec610160e01b8152600481018e90526001600160a01b03909216602483015260448201849052606482018390526000608483015260ff1660a4820152919750955073__$d5b0dec45940a7a1291c9da6fe7c8bb2e1$__906397ec61019060c401602060405180830381865af4158015614c8a573d6000803e3d6000fd5b505050506040513d601f19601f82011682018060405250810190614cae91906157c2565b935050939792965093509350565b6000808213614cdc5760008212614cd4576000610d3f565b600019610d3f565b600192915050565b60006114658284615f26565b60008080614cfe84876146af565b8551909350614d0e9084906146af565b9150614d1a83836146fd565b9050614d33876001015483876020015161ffff1661507f565b60018901919091559150614d46836150b3565b896000016000828254614d599190615f4e565b90915550614d689050826150b3565b886000016000828254614d7b9190615f26565b9091555050865481908890600090614d94908490615df1565b9250508190555096509650969350505050565b600080614db2615190565b8615614f0d578715614e64576040516380796d5560e01b8152881515600482015287151560248201526044810187905284151560648201526001600160a01b038a16906380796d55906084016080604051808303816000875af1158015614e1d573d6000803e3d6000fd5b505050506040513d601f19601f82011682018060405250810190614e419190615ebb565b805193509050614e5183866146af565b9150614e5d83836146fd565b9250614ff3565b614e6e86866146af565b91506001600160a01b0389166380796d558989614e8b8a876146fd565b6040516001600160e01b031960e086901b16815292151560048401529015156024830152604482015286151560648201526084016080604051808303816000875af1158015614ede573d6000803e3d6000fd5b505050506040513d601f19601f82011682018060405250810190614f029190615ebb565b805193509050614ff3565b8715614f4b57614f2e8661439b614f27620f424089614634565b899061469a565b91506001600160a01b0389166380796d558989614e8b8a87614709565b6040516380796d5560e01b8152881515600482015287151560248201526044810187905284151560648201526001600160a01b038a16906380796d55906084016080604051808303816000875af1158015614faa573d6000803e3d6000fd5b505050506040513d601f19601f82011682018060405250810190614fce9190615ebb565b8051909150614fe3613f05620f424088614634565b9350614fef84826146fd565b9250505b8954614fff9083614709565b909955909890979650945050505050565b600080841561504c57851561503a576150288461511d565b615031846150b3565b91509150615076565b615043836150b3565b6150318561511d565b85156150645761505b8361511d565b615031856150b3565b61506d846150b3565b6150318461511d565b94509492505050565b60008061508c8585614709565b945061509d8562ffffff8516615131565b90506150a985826146fd565b9150935093915050565b60006001600160ff1b03821115614a315760405162461bcd60e51b815260206004820152602860248201527f53616665436173743a2076616c756520646f65736e27742066697420696e2061604482015267371034b73a191a9b60c11b6064820152608401610c4d565b6000615128826150b3565b610d3f90615e89565b60006114658284615f6e565b6040518061012001604052806000815260200160008152602001600081526020016000815260200160008152602001600081526020016000815260200160001515815260200161518b615190565b905290565b6040518060800160405280600081526020016000815260200160008152602001600064ffffffffff1681525090565b6000602082840312156151d157600080fd5b813560ff8116811461146557600080fd5b6001600160a01b03811681146130f057600080fd5b60006020828403121561520957600080fd5b8135611465816151e2565b60006080828403121561522657600080fd5b50919050565b634e487b7160e01b600052604160045260246000fd5b604051606081016001600160401b03811182821017156152645761526461522c565b60405290565b604051601f8201601f191681016001600160401b03811182821017156152925761529261522c565b604052919050565b80151581146130f057600080fd5b600060a082840312156152ba57600080fd5b60405160a081018181106001600160401b03821117156152dc576152dc61522c565b60405282356152ea816151e2565b815260208301356152fa816151e2565b6020820152604083013561530d816151e2565b604082015260608301356153208161529a565b606082015260808301356153338161529a565b60808201529392505050565b60006020828403121561535157600080fd5b5035919050565b6000806040838503121561536b57600080fd5b8235615376816151e2565b91506020830135615386816151e2565b809150509250929050565b64ffffffffff811681146130f057600080fd5b6000806000606084860312156153b957600080fd5b83356153c4816151e2565b925060208401356153d48161529a565b915060408401356153e481615391565b809150509250925092565b60008060006060848603121561540457600080fd5b833561540f816151e2565b9250602084013561541f816151e2565b915060408401356153e48161529a565b6020808252825182820181905260009190848201906040850190845b8181101561546e57835164ffffffffff168352928401929184019160010161544b565b50909695505050505050565b602080825282518282018190526000919060409081850190868401855b828110156154cd578151805164ffffffffff16855286810151878601528501518585015260609093019290850190600101615497565b5091979650505050505050565b62ffffff811681146130f057600080fd5b6000602082840312156154fd57600080fd5b8135611465816154da565b600381106130f057600080fd5b6000806040838503121561552857600080fd5b8235615533816151e2565b9150602083013561538681615508565b600060c0828403121561522657600080fd5b600060c0828403121561556757600080fd5b6114658383615543565b60006040828403121561522657600080fd5b6000806020838503121561559657600080fd5b82356001600160401b03808211156155ad57600080fd5b818501915085601f8301126155c157600080fd5b8135818111156155d057600080fd5b8660208260051b85010111156155e557600080fd5b60209290920196919550909350505050565b60005b838110156156125781810151838201526020016155fa565b50506000910152565b600081518084526156338160208601602086016155f7565b601f01601f19169290920160200192915050565b6000602080830181845280855180835260408601915060408160051b870101925083870160005b8281101561569c57603f1988860301845261568a85835161561b565b9450928501929085019060010161566e565b5092979650505050505050565b600060e0828403121561522657600080fd5b600060e082840312156156cd57600080fd5b61146583836156a9565b6020808252825182820181905260009190848201906040850190845b8181101561546e5783516001600160a01b0316835292840192918401916001016156f3565b6000806040838503121561572b57600080fd5b8235615736816151e2565b946020939093013593505050565b634e487b7160e01b600052602160045260246000fd5b600381106130f057634e487b7160e01b600052602160045260246000fd5b602081016157858361575a565b91905290565b6020808252601f908201527f5265656e7472616e637947756172643a207265656e7472616e742063616c6c00604082015260600190565b6000602082840312156157d457600080fd5b5051919050565b6000602082840312156157ed57600080fd5b81356114658161529a565b60006020828403121561580a57600080fd5b813561146581615391565b60006020828403121561582757600080fd5b81516114658161529a565b60006001600160401b0382111561584b5761584b61522c565b5060051b60200190565b6000602080838503121561586857600080fd5b82516001600160401b0381111561587e57600080fd5b8301601f8101851361588f57600080fd5b80516158a261589d82615832565b61526a565b81815260059190911b820183019083810190878311156158c157600080fd5b928401925b8284101561348a5783516158d981615391565b825292840192908401906158c6565b6000604082840312156158fa57600080fd5b604051604081018181106001600160401b038211171561591c5761591c61522c565b604052825181526020928301519281019290925250919050565b6000602080838503121561594957600080fd5b82516001600160401b0381111561595f57600080fd5b8301601f8101851361597057600080fd5b805161597e61589d82615832565b8181526060918202830184019184820191908884111561599d57600080fd5b938501935b838510156134885780858a0312156159ba5760008081fd5b6159c2615242565b85516159cd81615391565b8152858701518782015260408087015190820152835293840193918501916159a2565b600060c08284031215615a0257600080fd5b60405160c081018181106001600160401b0382111715615a2457615a2461522c565b8060405250825181526020830151602082015260408301516040820152606083015160608201526080830151608082015260a0830151615a638161529a565b60a08201529392505050565b61ffff811681146130f057600080fd5b600060208284031215615a9157600080fd5b813561146581615a6f565b8135615aa7816154da565b62ffffff8116905081548162ffffff1982161783556020840135615aca81615a6f565b64ffff0000008160181b168364ffffffffff198416171784555050505050565b634e487b7160e01b600052603260045260246000fd5b6000808335601e19843603018112615b1757600080fd5b8301803591506001600160401b03821115615b3157600080fd5b602001915036819003821315615b4657600080fd5b9250929050565b634e487b7160e01b600052601160045260246000fd5b600060018201615b7557615b75615b4d565b5060010190565b600060608284031215615b8e57600080fd5b615b96615242565b8251815260208301516020820152604083015160408201528091505092915050565b600060e08284031215615bca57600080fd5b60405160e081018181106001600160401b0382111715615bec57615bec61522c565b6040528235615bfa816151e2565b81526020830135615c0a816151e2565b60208201526040830135615c1d8161529a565b60408201526060830135615c308161529a565b806060830152506080830135608082015260a083013560a082015260c083013560c08201528091505092915050565b600060208284031215615c7157600080fd5b813561146581615508565b81810381811115610d3f57610d3f615b4d565b60006101208201905083825260018060a01b038351166020830152602083015160408301526040830151606083015260608301511515608083015262ffffff60808401511660a083015260a0830151615ced60c084018260ff169052565b5060c083015160ff1660e08381019190915290920151151561010090910152919050565b600060208284031215615d2357600080fd5b815161146581615391565b8615158152602081018690526040810185905260c08101615d4e8561575a565b84606083015264ffffffffff841660808301528260a0830152979650505050505050565b600081615d8157615d81615b4d565b506000190190565b600060208284031215615d9b57600080fd5b8151611465816151e2565b60008251615db88184602087016155f7565b9190910192915050565b62ffffff82811682821603908082111561207957612079615b4d565b602081526000611465602083018461561b565b80820180821115610d3f57610d3f615b4d565b60006001600160ff1b0381841382841380821686840486111615615e2a57615e2a615b4d565b600160ff1b6000871282811687830589121615615e4957615e49615b4d565b60008712925087820587128484161615615e6557615e65615b4d565b87850587128184161615615e7b57615e7b615b4d565b505050929093029392505050565b6000600160ff1b8201615e9e57615e9e615b4d565b5060000390565b634e487b7160e01b600052601260045260246000fd5b600060808284031215615ecd57600080fd5b604051608081018181106001600160401b0382111715615eef57615eef61522c565b80604052508251815260208301516020820152604083015160408201526060830151615f1a81615391565b60608201529392505050565b8082018281126000831280158216821582161715615f4657615f46615b4d565b505092915050565b818103600083128015838313168383128216171561207957612079615b4d565b600082615f8b57634e487b7160e01b600052601260045260246000fd5b50049056fe416464726573733a206c6f772d6c6576656c2064656c65676174652063616c6c206661696c6564a2646970667358221220ab16b6962ae1744c53e9c41da2b8b7774e5717064e6ea9e484f4752915a174b864736f6c63430008100033",
  "libraries": {
    "AccountLibrary": "0x4e365c6E629d08E48dD5e6bAE2BA55BF0Bf95f77",
    "MakerLibrary": "0xc5a60D8Ef87e146e3F82f0231F1A98735992d821",
    "MakerOrderBookLibrary": "0xe5302D9086511023Cd13b23220Ef1Ea5395F99EC",
    "VaultLibrary": "0xB8065D806ebbbBB0941E8e2789F09f1B477497bb"
  },
  "devdoc": {
    "kind": "dev",
    "methods": {
      "multicall(bytes[])": {
        "details": "Receives and executes a batch of function calls on this contract."
      },
      "owner()": {
        "details": "Returns the address of the current owner."
      },
      "renounceOwnership()": {
        "details": "Leaves the contract without owner. It will not be possible to call `onlyOwner` functions anymore. Can only be called by the current owner. NOTE: Renouncing ownership will leave the contract without an owner, thereby removing any functionality that is only available to the owner."
      },
      "transferOwnership(address)": {
        "details": "Transfers ownership of the contract to a new account (`newOwner`). Can only be called by the current owner."
      }
    },
    "version": 1
  },
  "userdoc": {
    "kind": "user",
    "methods": {},
    "version": 1
  },
  "storageLayout": {
    "storage": [
      {
        "astId": 925,
        "contract": "contracts/test/DebugPerpdexExchange.sol:DebugPerpdexExchange",
        "label": "_status",
        "offset": 0,
        "slot": "0",
        "type": "t_uint256"
      },
      {
        "astId": 550,
        "contract": "contracts/test/DebugPerpdexExchange.sol:DebugPerpdexExchange",
        "label": "_owner",
        "offset": 0,
        "slot": "1",
        "type": "t_address"
      },
      {
        "astId": 6209,
        "contract": "contracts/test/DebugPerpdexExchange.sol:DebugPerpdexExchange",
        "label": "accountInfos",
        "offset": 0,
        "slot": "2",
        "type": "t_mapping(t_address,t_struct(AccountInfo)16909_storage)"
      },
      {
        "astId": 6212,
        "contract": "contracts/test/DebugPerpdexExchange.sol:DebugPerpdexExchange",
        "label": "insuranceFundInfo",
        "offset": 0,
        "slot": "3",
        "type": "t_struct(InsuranceFundInfo)16914_storage"
      },
      {
        "astId": 6215,
        "contract": "contracts/test/DebugPerpdexExchange.sol:DebugPerpdexExchange",
        "label": "protocolInfo",
        "offset": 0,
        "slot": "5",
        "type": "t_struct(ProtocolInfo)16917_storage"
      },
      {
        "astId": 6223,
        "contract": "contracts/test/DebugPerpdexExchange.sol:DebugPerpdexExchange",
        "label": "orderIdToTrader",
        "offset": 0,
        "slot": "6",
        "type": "t_mapping(t_address,t_mapping(t_bool,t_mapping(t_uint40,t_address)))"
      },
      {
        "astId": 6231,
        "contract": "contracts/test/DebugPerpdexExchange.sol:DebugPerpdexExchange",
        "label": "maxMarketsPerAccount",
        "offset": 0,
        "slot": "7",
        "type": "t_uint8"
      },
      {
        "astId": 6234,
        "contract": "contracts/test/DebugPerpdexExchange.sol:DebugPerpdexExchange",
        "label": "maxOrdersPerAccount",
        "offset": 1,
        "slot": "7",
        "type": "t_uint8"
      },
      {
        "astId": 6237,
        "contract": "contracts/test/DebugPerpdexExchange.sol:DebugPerpdexExchange",
        "label": "imRatio",
        "offset": 2,
        "slot": "7",
        "type": "t_uint24"
      },
      {
        "astId": 6240,
        "contract": "contracts/test/DebugPerpdexExchange.sol:DebugPerpdexExchange",
        "label": "mmRatio",
        "offset": 5,
        "slot": "7",
        "type": "t_uint24"
      },
      {
        "astId": 6243,
        "contract": "contracts/test/DebugPerpdexExchange.sol:DebugPerpdexExchange",
        "label": "protocolFeeRatio",
        "offset": 8,
        "slot": "7",
        "type": "t_uint24"
      },
      {
        "astId": 6251,
        "contract": "contracts/test/DebugPerpdexExchange.sol:DebugPerpdexExchange",
        "label": "liquidationRewardConfig",
        "offset": 0,
        "slot": "8",
        "type": "t_struct(LiquidationRewardConfig)16922_storage"
      },
      {
        "astId": 6256,
        "contract": "contracts/test/DebugPerpdexExchange.sol:DebugPerpdexExchange",
        "label": "marketStatuses",
        "offset": 0,
        "slot": "9",
        "type": "t_mapping(t_address,t_enum(MarketStatus)16859)"
      }
    ],
    "types": {
      "t_address": {
        "encoding": "inplace",
        "label": "address",
        "numberOfBytes": "20"
      },
      "t_array(t_address)dyn_storage": {
        "base": "t_address",
        "encoding": "dynamic_array",
        "label": "address[]",
        "numberOfBytes": "32"
      },
      "t_bool": {
        "encoding": "inplace",
        "label": "bool",
        "numberOfBytes": "1"
      },
      "t_enum(MarketStatus)16859": {
        "encoding": "inplace",
        "label": "enum PerpdexStructs.MarketStatus",
        "numberOfBytes": "1"
      },
      "t_int256": {
        "encoding": "inplace",
        "label": "int256",
        "numberOfBytes": "32"
      },
      "t_mapping(t_address,t_enum(MarketStatus)16859)": {
        "encoding": "mapping",
        "key": "t_address",
        "label": "mapping(address => enum PerpdexStructs.MarketStatus)",
        "numberOfBytes": "32",
        "value": "t_enum(MarketStatus)16859"
      },
      "t_mapping(t_address,t_mapping(t_bool,t_mapping(t_uint40,t_address)))": {
        "encoding": "mapping",
        "key": "t_address",
        "label": "mapping(address => mapping(bool => mapping(uint40 => address)))",
        "numberOfBytes": "32",
        "value": "t_mapping(t_bool,t_mapping(t_uint40,t_address))"
      },
      "t_mapping(t_address,t_struct(AccountInfo)16909_storage)": {
        "encoding": "mapping",
        "key": "t_address",
        "label": "mapping(address => struct PerpdexStructs.AccountInfo)",
        "numberOfBytes": "32",
        "value": "t_struct(AccountInfo)16909_storage"
      },
      "t_mapping(t_address,t_struct(LimitOrderInfo)16882_storage)": {
        "encoding": "mapping",
        "key": "t_address",
        "label": "mapping(address => struct PerpdexStructs.LimitOrderInfo)",
        "numberOfBytes": "32",
        "value": "t_struct(LimitOrderInfo)16882_storage"
      },
      "t_mapping(t_address,t_struct(MakerInfo)16871_storage)": {
        "encoding": "mapping",
        "key": "t_address",
        "label": "mapping(address => struct PerpdexStructs.MakerInfo)",
        "numberOfBytes": "32",
        "value": "t_struct(MakerInfo)16871_storage"
      },
      "t_mapping(t_address,t_struct(TakerInfo)16864_storage)": {
        "encoding": "mapping",
        "key": "t_address",
        "label": "mapping(address => struct PerpdexStructs.TakerInfo)",
        "numberOfBytes": "32",
        "value": "t_struct(TakerInfo)16864_storage"
      },
      "t_mapping(t_bool,t_mapping(t_uint40,t_address))": {
        "encoding": "mapping",
        "key": "t_bool",
        "label": "mapping(bool => mapping(uint40 => address))",
        "numberOfBytes": "32",
        "value": "t_mapping(t_uint40,t_address)"
      },
      "t_mapping(t_uint40,t_address)": {
        "encoding": "mapping",
        "key": "t_uint40",
        "label": "mapping(uint40 => address)",
        "numberOfBytes": "32",
        "value": "t_address"
      },
      "t_mapping(t_uint40,t_struct(Node)22036_storage)": {
        "encoding": "mapping",
        "key": "t_uint40",
        "label": "mapping(uint40 => struct BokkyPooBahsRedBlackTreeLibrary.Node)",
        "numberOfBytes": "32",
        "value": "t_struct(Node)22036_storage"
      },
      "t_struct(AccountInfo)16909_storage": {
        "encoding": "inplace",
        "label": "struct PerpdexStructs.AccountInfo",
        "members": [
          {
            "astId": 16890,
            "contract": "contracts/test/DebugPerpdexExchange.sol:DebugPerpdexExchange",
            "label": "takerInfos",
            "offset": 0,
            "slot": "0",
            "type": "t_mapping(t_address,t_struct(TakerInfo)16864_storage)"
          },
          {
            "astId": 16895,
            "contract": "contracts/test/DebugPerpdexExchange.sol:DebugPerpdexExchange",
            "label": "makerInfos",
            "offset": 0,
            "slot": "1",
            "type": "t_mapping(t_address,t_struct(MakerInfo)16871_storage)"
          },
          {
            "astId": 16900,
            "contract": "contracts/test/DebugPerpdexExchange.sol:DebugPerpdexExchange",
            "label": "limitOrderInfos",
            "offset": 0,
            "slot": "2",
            "type": "t_mapping(t_address,t_struct(LimitOrderInfo)16882_storage)"
          },
          {
            "astId": 16903,
            "contract": "contracts/test/DebugPerpdexExchange.sol:DebugPerpdexExchange",
            "label": "vaultInfo",
            "offset": 0,
            "slot": "3",
            "type": "t_struct(VaultInfo)16885_storage"
          },
          {
            "astId": 16906,
            "contract": "contracts/test/DebugPerpdexExchange.sol:DebugPerpdexExchange",
            "label": "markets",
            "offset": 0,
            "slot": "4",
            "type": "t_array(t_address)dyn_storage"
          },
          {
            "astId": 16908,
            "contract": "contracts/test/DebugPerpdexExchange.sol:DebugPerpdexExchange",
            "label": "limitOrderCount",
            "offset": 0,
            "slot": "5",
            "type": "t_uint8"
          }
        ],
        "numberOfBytes": "192"
      },
      "t_struct(InsuranceFundInfo)16914_storage": {
        "encoding": "inplace",
        "label": "struct PerpdexStructs.InsuranceFundInfo",
        "members": [
          {
            "astId": 16911,
            "contract": "contracts/test/DebugPerpdexExchange.sol:DebugPerpdexExchange",
            "label": "balance",
            "offset": 0,
            "slot": "0",
            "type": "t_uint256"
          },
          {
            "astId": 16913,
            "contract": "contracts/test/DebugPerpdexExchange.sol:DebugPerpdexExchange",
            "label": "liquidationRewardBalance",
            "offset": 0,
            "slot": "1",
            "type": "t_uint256"
          }
        ],
        "numberOfBytes": "64"
      },
      "t_struct(LimitOrderInfo)16882_storage": {
        "encoding": "inplace",
        "label": "struct PerpdexStructs.LimitOrderInfo",
        "members": [
          {
            "astId": 16874,
            "contract": "contracts/test/DebugPerpdexExchange.sol:DebugPerpdexExchange",
            "label": "ask",
            "offset": 0,
            "slot": "0",
            "type": "t_struct(Tree)22044_storage"
          },
          {
            "astId": 16877,
            "contract": "contracts/test/DebugPerpdexExchange.sol:DebugPerpdexExchange",
            "label": "bid",
            "offset": 0,
            "slot": "2",
            "type": "t_struct(Tree)22044_storage"
          },
          {
            "astId": 16879,
            "contract": "contracts/test/DebugPerpdexExchange.sol:DebugPerpdexExchange",
            "label": "totalBaseAsk",
            "offset": 0,
            "slot": "4",
            "type": "t_uint256"
          },
          {
            "astId": 16881,
            "contract": "contracts/test/DebugPerpdexExchange.sol:DebugPerpdexExchange",
            "label": "totalBaseBid",
            "offset": 0,
            "slot": "5",
            "type": "t_uint256"
          }
        ],
        "numberOfBytes": "192"
      },
      "t_struct(LiquidationRewardConfig)16922_storage": {
        "encoding": "inplace",
        "label": "struct PerpdexStructs.LiquidationRewardConfig",
        "members": [
          {
            "astId": 16919,
            "contract": "contracts/test/DebugPerpdexExchange.sol:DebugPerpdexExchange",
            "label": "rewardRatio",
            "offset": 0,
            "slot": "0",
            "type": "t_uint24"
          },
          {
            "astId": 16921,
            "contract": "contracts/test/DebugPerpdexExchange.sol:DebugPerpdexExchange",
            "label": "smoothEmaTime",
            "offset": 3,
            "slot": "0",
            "type": "t_uint16"
          }
        ],
        "numberOfBytes": "32"
      },
      "t_struct(MakerInfo)16871_storage": {
        "encoding": "inplace",
        "label": "struct PerpdexStructs.MakerInfo",
        "members": [
          {
            "astId": 16866,
            "contract": "contracts/test/DebugPerpdexExchange.sol:DebugPerpdexExchange",
            "label": "liquidity",
            "offset": 0,
            "slot": "0",
            "type": "t_uint256"
          },
          {
            "astId": 16868,
            "contract": "contracts/test/DebugPerpdexExchange.sol:DebugPerpdexExchange",
            "label": "cumBaseSharePerLiquidityX96",
            "offset": 0,
            "slot": "1",
            "type": "t_uint256"
          },
          {
            "astId": 16870,
            "contract": "contracts/test/DebugPerpdexExchange.sol:DebugPerpdexExchange",
            "label": "cumQuotePerLiquidityX96",
            "offset": 0,
            "slot": "2",
            "type": "t_uint256"
          }
        ],
        "numberOfBytes": "96"
      },
      "t_struct(Node)22036_storage": {
        "encoding": "inplace",
        "label": "struct BokkyPooBahsRedBlackTreeLibrary.Node",
        "members": [
          {
            "astId": 22027,
            "contract": "contracts/test/DebugPerpdexExchange.sol:DebugPerpdexExchange",
            "label": "parent",
            "offset": 0,
            "slot": "0",
            "type": "t_uint40"
          },
          {
            "astId": 22029,
            "contract": "contracts/test/DebugPerpdexExchange.sol:DebugPerpdexExchange",
            "label": "left",
            "offset": 5,
            "slot": "0",
            "type": "t_uint40"
          },
          {
            "astId": 22031,
            "contract": "contracts/test/DebugPerpdexExchange.sol:DebugPerpdexExchange",
            "label": "right",
            "offset": 10,
            "slot": "0",
            "type": "t_uint40"
          },
          {
            "astId": 22033,
            "contract": "contracts/test/DebugPerpdexExchange.sol:DebugPerpdexExchange",
            "label": "red",
            "offset": 15,
            "slot": "0",
            "type": "t_bool"
          },
          {
            "astId": 22035,
            "contract": "contracts/test/DebugPerpdexExchange.sol:DebugPerpdexExchange",
            "label": "userData",
            "offset": 16,
            "slot": "0",
            "type": "t_uint128"
          }
        ],
        "numberOfBytes": "32"
      },
      "t_struct(ProtocolInfo)16917_storage": {
        "encoding": "inplace",
        "label": "struct PerpdexStructs.ProtocolInfo",
        "members": [
          {
            "astId": 16916,
            "contract": "contracts/test/DebugPerpdexExchange.sol:DebugPerpdexExchange",
            "label": "protocolFee",
            "offset": 0,
            "slot": "0",
            "type": "t_uint256"
          }
        ],
        "numberOfBytes": "32"
      },
      "t_struct(TakerInfo)16864_storage": {
        "encoding": "inplace",
        "label": "struct PerpdexStructs.TakerInfo",
        "members": [
          {
            "astId": 16861,
            "contract": "contracts/test/DebugPerpdexExchange.sol:DebugPerpdexExchange",
            "label": "baseBalanceShare",
            "offset": 0,
            "slot": "0",
            "type": "t_int256"
          },
          {
            "astId": 16863,
            "contract": "contracts/test/DebugPerpdexExchange.sol:DebugPerpdexExchange",
            "label": "quoteBalance",
            "offset": 0,
            "slot": "1",
            "type": "t_int256"
          }
        ],
        "numberOfBytes": "64"
      },
      "t_struct(Tree)22044_storage": {
        "encoding": "inplace",
        "label": "struct BokkyPooBahsRedBlackTreeLibrary.Tree",
        "members": [
          {
            "astId": 22038,
            "contract": "contracts/test/DebugPerpdexExchange.sol:DebugPerpdexExchange",
            "label": "root",
            "offset": 0,
            "slot": "0",
            "type": "t_uint40"
          },
          {
            "astId": 22043,
            "contract": "contracts/test/DebugPerpdexExchange.sol:DebugPerpdexExchange",
            "label": "nodes",
            "offset": 0,
            "slot": "1",
            "type": "t_mapping(t_uint40,t_struct(Node)22036_storage)"
          }
        ],
        "numberOfBytes": "64"
      },
      "t_struct(VaultInfo)16885_storage": {
        "encoding": "inplace",
        "label": "struct PerpdexStructs.VaultInfo",
        "members": [
          {
            "astId": 16884,
            "contract": "contracts/test/DebugPerpdexExchange.sol:DebugPerpdexExchange",
            "label": "collateralBalance",
            "offset": 0,
            "slot": "0",
            "type": "t_int256"
          }
        ],
        "numberOfBytes": "32"
      },
      "t_uint128": {
        "encoding": "inplace",
        "label": "uint128",
        "numberOfBytes": "16"
      },
      "t_uint16": {
        "encoding": "inplace",
        "label": "uint16",
        "numberOfBytes": "2"
      },
      "t_uint24": {
        "encoding": "inplace",
        "label": "uint24",
        "numberOfBytes": "3"
      },
      "t_uint256": {
        "encoding": "inplace",
        "label": "uint256",
        "numberOfBytes": "32"
      },
      "t_uint40": {
        "encoding": "inplace",
        "label": "uint40",
        "numberOfBytes": "5"
      },
      "t_uint8": {
        "encoding": "inplace",
        "label": "uint8",
        "numberOfBytes": "1"
      }
    }
  }
}