{
  "address": "0xe684e53C73b0A74B9be339690390ad194E54aF0c",
  "abi": [
    {
      "inputs": [
        {
          "internalType": "string",
          "name": "symbolArg",
          "type": "string"
        },
        {
          "internalType": "address",
          "name": "exchangeArg",
          "type": "address"
        },
        {
          "internalType": "address",
          "name": "priceFeedBaseArg",
          "type": "address"
        },
        {
          "internalType": "address",
          "name": "priceFeedQuoteArg",
          "type": "address"
        }
      ],
      "stateMutability": "nonpayable",
      "type": "constructor"
    },
    {
      "inputs": [
        {
          "internalType": "uint256",
          "name": "prod1",
          "type": "uint256"
        },
        {
          "internalType": "uint256",
          "name": "denominator",
          "type": "uint256"
        }
      ],
      "name": "PRBMath__MulDivOverflow",
      "type": "error"
    },
    {
      "anonymous": false,
      "inputs": [
        {
          "indexed": false,
          "internalType": "uint32",
          "name": "value",
          "type": "uint32"
        }
      ],
      "name": "FundingMaxElapsedSecChanged",
      "type": "event"
    },
    {
      "anonymous": false,
      "inputs": [
        {
          "indexed": false,
          "internalType": "uint24",
          "name": "value",
          "type": "uint24"
        }
      ],
      "name": "FundingMaxPremiumRatioChanged",
      "type": "event"
    },
    {
      "anonymous": false,
      "inputs": [
        {
          "indexed": false,
          "internalType": "int256",
          "name": "fundingRateX96",
          "type": "int256"
        },
        {
          "indexed": false,
          "internalType": "uint32",
          "name": "elapsedSec",
          "type": "uint32"
        },
        {
          "indexed": false,
          "internalType": "int256",
          "name": "premiumX96",
          "type": "int256"
        },
        {
          "indexed": false,
          "internalType": "uint256",
          "name": "markPriceX96",
          "type": "uint256"
        },
        {
          "indexed": false,
          "internalType": "uint256",
          "name": "cumBasePerLiquidityX96",
          "type": "uint256"
        },
        {
          "indexed": false,
          "internalType": "uint256",
          "name": "cumQuotePerLiquidityX96",
          "type": "uint256"
        }
      ],
      "name": "FundingPaid",
      "type": "event"
    },
    {
      "anonymous": false,
      "inputs": [
        {
          "indexed": false,
          "internalType": "uint32",
          "name": "value",
          "type": "uint32"
        }
      ],
      "name": "FundingRolloverSecChanged",
      "type": "event"
    },
    {
      "anonymous": false,
      "inputs": [
        {
          "indexed": false,
          "internalType": "uint256",
          "name": "base",
          "type": "uint256"
        },
        {
          "indexed": false,
          "internalType": "uint256",
          "name": "quote",
          "type": "uint256"
        },
        {
          "indexed": false,
          "internalType": "uint256",
          "name": "liquidity",
          "type": "uint256"
        }
      ],
      "name": "LiquidityAdded",
      "type": "event"
    },
    {
      "anonymous": false,
      "inputs": [
        {
          "indexed": false,
          "internalType": "uint256",
          "name": "base",
          "type": "uint256"
        },
        {
          "indexed": false,
          "internalType": "uint256",
          "name": "quote",
          "type": "uint256"
        },
        {
          "indexed": false,
          "internalType": "uint256",
          "name": "liquidity",
          "type": "uint256"
        }
      ],
      "name": "LiquidityRemoved",
      "type": "event"
    },
    {
      "anonymous": false,
      "inputs": [
        {
          "indexed": true,
          "internalType": "address",
          "name": "previousOwner",
          "type": "address"
        },
        {
          "indexed": true,
          "internalType": "address",
          "name": "newOwner",
          "type": "address"
        }
      ],
      "name": "OwnershipTransferred",
      "type": "event"
    },
    {
      "anonymous": false,
      "inputs": [
        {
          "indexed": false,
          "internalType": "uint24",
          "name": "value",
          "type": "uint24"
        }
      ],
      "name": "PoolFeeRatioChanged",
      "type": "event"
    },
    {
      "anonymous": false,
      "inputs": [
        {
          "indexed": false,
          "internalType": "uint24",
          "name": "normalOrderRatio",
          "type": "uint24"
        },
        {
          "indexed": false,
          "internalType": "uint24",
          "name": "liquidationRatio",
          "type": "uint24"
        },
        {
          "indexed": false,
          "internalType": "uint24",
          "name": "emaNormalOrderRatio",
          "type": "uint24"
        },
        {
          "indexed": false,
          "internalType": "uint24",
          "name": "emaLiquidationRatio",
          "type": "uint24"
        },
        {
          "indexed": false,
          "internalType": "uint32",
          "name": "emaSec",
          "type": "uint32"
        }
      ],
      "name": "PriceLimitConfigChanged",
      "type": "event"
    },
    {
      "anonymous": false,
      "inputs": [
        {
          "indexed": false,
          "internalType": "bool",
          "name": "isBaseToQuote",
          "type": "bool"
        },
        {
          "indexed": false,
          "internalType": "bool",
          "name": "isExactInput",
          "type": "bool"
        },
        {
          "indexed": false,
          "internalType": "uint256",
          "name": "amount",
          "type": "uint256"
        },
        {
          "indexed": false,
          "internalType": "uint256",
          "name": "oppositeAmount",
          "type": "uint256"
        }
      ],
      "name": "Swapped",
      "type": "event"
    },
    {
      "inputs": [
        {
          "internalType": "uint256",
          "name": "baseShare",
          "type": "uint256"
        },
        {
          "internalType": "uint256",
          "name": "quoteBalance",
          "type": "uint256"
        }
      ],
      "name": "addLiquidity",
      "outputs": [
        {
          "internalType": "uint256",
          "name": "base",
          "type": "uint256"
        },
        {
          "internalType": "uint256",
          "name": "quote",
          "type": "uint256"
        },
        {
          "internalType": "uint256",
          "name": "liquidity",
          "type": "uint256"
        }
      ],
      "stateMutability": "nonpayable",
      "type": "function"
    },
    {
      "inputs": [],
      "name": "baseBalancePerShareX96",
      "outputs": [
        {
          "internalType": "uint256",
          "name": "",
          "type": "uint256"
        }
      ],
      "stateMutability": "view",
      "type": "function"
    },
    {
      "inputs": [],
      "name": "exchange",
      "outputs": [
        {
          "internalType": "address",
          "name": "",
          "type": "address"
        }
      ],
      "stateMutability": "view",
      "type": "function"
    },
    {
      "inputs": [],
      "name": "fundingInfo",
      "outputs": [
        {
          "internalType": "uint256",
          "name": "prevIndexPriceBase",
          "type": "uint256"
        },
        {
          "internalType": "uint256",
          "name": "prevIndexPriceQuote",
          "type": "uint256"
        },
        {
          "internalType": "uint256",
          "name": "prevIndexPriceTimestamp",
          "type": "uint256"
        }
      ],
      "stateMutability": "view",
      "type": "function"
    },
    {
      "inputs": [],
      "name": "fundingMaxElapsedSec",
      "outputs": [
        {
          "internalType": "uint32",
          "name": "",
          "type": "uint32"
        }
      ],
      "stateMutability": "view",
      "type": "function"
    },
    {
      "inputs": [],
      "name": "fundingMaxPremiumRatio",
      "outputs": [
        {
          "internalType": "uint24",
          "name": "",
          "type": "uint24"
        }
      ],
      "stateMutability": "view",
      "type": "function"
    },
    {
      "inputs": [],
      "name": "fundingRolloverSec",
      "outputs": [
        {
          "internalType": "uint32",
          "name": "",
          "type": "uint32"
        }
      ],
      "stateMutability": "view",
      "type": "function"
    },
    {
      "inputs": [],
      "name": "getCumDeleveragedPerLiquidityX96",
      "outputs": [
        {
          "internalType": "uint256",
          "name": "",
          "type": "uint256"
        },
        {
          "internalType": "uint256",
          "name": "",
          "type": "uint256"
        }
      ],
      "stateMutability": "view",
      "type": "function"
    },
    {
      "inputs": [
        {
          "internalType": "uint256",
          "name": "liquidity",
          "type": "uint256"
        },
        {
          "internalType": "uint256",
          "name": "cumBasePerLiquidityX96",
          "type": "uint256"
        },
        {
          "internalType": "uint256",
          "name": "cumQuotePerLiquidityX96",
          "type": "uint256"
        }
      ],
      "name": "getLiquidityDeleveraged",
      "outputs": [
        {
          "internalType": "int256",
          "name": "",
          "type": "int256"
        },
        {
          "internalType": "int256",
          "name": "",
          "type": "int256"
        }
      ],
      "stateMutability": "view",
      "type": "function"
    },
    {
      "inputs": [
        {
          "internalType": "uint256",
          "name": "liquidity",
          "type": "uint256"
        }
      ],
      "name": "getLiquidityValue",
      "outputs": [
        {
          "internalType": "uint256",
          "name": "",
          "type": "uint256"
        },
        {
          "internalType": "uint256",
          "name": "",
          "type": "uint256"
        }
      ],
      "stateMutability": "view",
      "type": "function"
    },
    {
      "inputs": [],
      "name": "getMarkPriceX96",
      "outputs": [
        {
          "internalType": "uint256",
          "name": "",
          "type": "uint256"
        }
      ],
      "stateMutability": "view",
      "type": "function"
    },
    {
      "inputs": [],
      "name": "getShareMarkPriceX96",
      "outputs": [
        {
          "internalType": "uint256",
          "name": "",
          "type": "uint256"
        }
      ],
      "stateMutability": "view",
      "type": "function"
    },
    {
      "inputs": [
        {
          "internalType": "bool",
          "name": "isBaseToQuote",
          "type": "bool"
        },
        {
          "internalType": "bool",
          "name": "isExactInput",
          "type": "bool"
        },
        {
          "internalType": "bool",
          "name": "isLiquidation",
          "type": "bool"
        }
      ],
      "name": "maxSwap",
      "outputs": [
        {
          "internalType": "uint256",
          "name": "amount",
          "type": "uint256"
        }
      ],
      "stateMutability": "view",
      "type": "function"
    },
    {
      "inputs": [],
      "name": "owner",
      "outputs": [
        {
          "internalType": "address",
          "name": "",
          "type": "address"
        }
      ],
      "stateMutability": "view",
      "type": "function"
    },
    {
      "inputs": [],
      "name": "poolFeeRatio",
      "outputs": [
        {
          "internalType": "uint24",
          "name": "",
          "type": "uint24"
        }
      ],
      "stateMutability": "view",
      "type": "function"
    },
    {
      "inputs": [],
      "name": "poolInfo",
      "outputs": [
        {
          "internalType": "uint256",
          "name": "base",
          "type": "uint256"
        },
        {
          "internalType": "uint256",
          "name": "quote",
          "type": "uint256"
        },
        {
          "internalType": "uint256",
          "name": "totalLiquidity",
          "type": "uint256"
        },
        {
          "internalType": "uint256",
          "name": "cumBasePerLiquidityX96",
          "type": "uint256"
        },
        {
          "internalType": "uint256",
          "name": "cumQuotePerLiquidityX96",
          "type": "uint256"
        },
        {
          "internalType": "uint256",
          "name": "baseBalancePerShareX96",
          "type": "uint256"
        }
      ],
      "stateMutability": "view",
      "type": "function"
    },
    {
      "inputs": [
        {
          "internalType": "bool",
          "name": "isBaseToQuote",
          "type": "bool"
        },
        {
          "internalType": "bool",
          "name": "isExactInput",
          "type": "bool"
        },
        {
          "internalType": "uint256",
          "name": "amount",
          "type": "uint256"
        },
        {
          "internalType": "bool",
          "name": "isLiquidation",
          "type": "bool"
        }
      ],
      "name": "previewSwap",
      "outputs": [
        {
          "internalType": "uint256",
          "name": "oppositeAmount",
          "type": "uint256"
        }
      ],
      "stateMutability": "view",
      "type": "function"
    },
    {
      "inputs": [],
      "name": "priceFeedBase",
      "outputs": [
        {
          "internalType": "address",
          "name": "",
          "type": "address"
        }
      ],
      "stateMutability": "view",
      "type": "function"
    },
    {
      "inputs": [],
      "name": "priceFeedQuote",
      "outputs": [
        {
          "internalType": "address",
          "name": "",
          "type": "address"
        }
      ],
      "stateMutability": "view",
      "type": "function"
    },
    {
      "inputs": [],
      "name": "priceLimitConfig",
      "outputs": [
        {
          "internalType": "uint24",
          "name": "normalOrderRatio",
          "type": "uint24"
        },
        {
          "internalType": "uint24",
          "name": "liquidationRatio",
          "type": "uint24"
        },
        {
          "internalType": "uint24",
          "name": "emaNormalOrderRatio",
          "type": "uint24"
        },
        {
          "internalType": "uint24",
          "name": "emaLiquidationRatio",
          "type": "uint24"
        },
        {
          "internalType": "uint32",
          "name": "emaSec",
          "type": "uint32"
        }
      ],
      "stateMutability": "view",
      "type": "function"
    },
    {
      "inputs": [],
      "name": "priceLimitInfo",
      "outputs": [
        {
          "internalType": "uint256",
          "name": "referencePrice",
          "type": "uint256"
        },
        {
          "internalType": "uint256",
          "name": "referenceTimestamp",
          "type": "uint256"
        },
        {
          "internalType": "uint256",
          "name": "emaPrice",
          "type": "uint256"
        }
      ],
      "stateMutability": "view",
      "type": "function"
    },
    {
      "inputs": [
        {
          "internalType": "uint256",
          "name": "liquidity",
          "type": "uint256"
        }
      ],
      "name": "removeLiquidity",
      "outputs": [
        {
          "internalType": "uint256",
          "name": "base",
          "type": "uint256"
        },
        {
          "internalType": "uint256",
          "name": "quote",
          "type": "uint256"
        }
      ],
      "stateMutability": "nonpayable",
      "type": "function"
    },
    {
      "inputs": [],
      "name": "renounceOwnership",
      "outputs": [],
      "stateMutability": "nonpayable",
      "type": "function"
    },
    {
      "inputs": [
        {
          "internalType": "uint32",
          "name": "value",
          "type": "uint32"
        }
      ],
      "name": "setFundingMaxElapsedSec",
      "outputs": [],
      "stateMutability": "nonpayable",
      "type": "function"
    },
    {
      "inputs": [
        {
          "internalType": "uint24",
          "name": "value",
          "type": "uint24"
        }
      ],
      "name": "setFundingMaxPremiumRatio",
      "outputs": [],
      "stateMutability": "nonpayable",
      "type": "function"
    },
    {
      "inputs": [
        {
          "internalType": "uint32",
          "name": "value",
          "type": "uint32"
        }
      ],
      "name": "setFundingRolloverSec",
      "outputs": [],
      "stateMutability": "nonpayable",
      "type": "function"
    },
    {
      "inputs": [
        {
          "internalType": "uint24",
          "name": "value",
          "type": "uint24"
        }
      ],
      "name": "setPoolFeeRatio",
      "outputs": [],
      "stateMutability": "nonpayable",
      "type": "function"
    },
    {
      "inputs": [
        {
          "components": [
            {
              "internalType": "uint24",
              "name": "normalOrderRatio",
              "type": "uint24"
            },
            {
              "internalType": "uint24",
              "name": "liquidationRatio",
              "type": "uint24"
            },
            {
              "internalType": "uint24",
              "name": "emaNormalOrderRatio",
              "type": "uint24"
            },
            {
              "internalType": "uint24",
              "name": "emaLiquidationRatio",
              "type": "uint24"
            },
            {
              "internalType": "uint32",
              "name": "emaSec",
              "type": "uint32"
            }
          ],
          "internalType": "struct MarketStructs.PriceLimitConfig",
          "name": "value",
          "type": "tuple"
        }
      ],
      "name": "setPriceLimitConfig",
      "outputs": [],
      "stateMutability": "nonpayable",
      "type": "function"
    },
    {
      "inputs": [
        {
          "internalType": "bool",
          "name": "isBaseToQuote",
          "type": "bool"
        },
        {
          "internalType": "bool",
          "name": "isExactInput",
          "type": "bool"
        },
        {
          "internalType": "uint256",
          "name": "amount",
          "type": "uint256"
        },
        {
          "internalType": "bool",
          "name": "isLiquidation",
          "type": "bool"
        }
      ],
      "name": "swap",
      "outputs": [
        {
          "internalType": "uint256",
          "name": "oppositeAmount",
          "type": "uint256"
        }
      ],
      "stateMutability": "nonpayable",
      "type": "function"
    },
    {
      "inputs": [],
      "name": "symbol",
      "outputs": [
        {
          "internalType": "string",
          "name": "",
          "type": "string"
        }
      ],
      "stateMutability": "view",
      "type": "function"
    },
    {
      "inputs": [
        {
          "internalType": "address",
          "name": "newOwner",
          "type": "address"
        }
      ],
      "name": "transferOwnership",
      "outputs": [],
      "stateMutability": "nonpayable",
      "type": "function"
    }
  ],
  "transactionHash": "0x946ef16672217a6cada97f4ad2b6f78047676abcfab308f8b72cbe02c338ce2b",
  "args": [
    "USD",
    "0x495aD0f509850e6eCa8f38562443193187ccBa63",
    "0x0000000000000000000000000000000000000000",
    "0x6cC3F06C9e10EfbD9221C71Eab22c806FFCd4890"
  ],
  "numDeployments": 1,
  "solcInputHash": "525a5a90e570aab37451167197547b32",
  "bytecode": "0x600f80546001600160701b0319166c01518000015180002710000bb817905561018060405261c35060e052620186a06101005262030d40610120526203d0906101405261012c61016052601080546001600160801b0319166d012c03d090030d400186a000c3501790553480156200007657600080fd5b50604051620034053803806200340583398101604081905262000099916200036c565b6001600055620000a93362000213565b6001600160a01b0382161580620000da5750620000da826001600160a01b03166200026560201b620010fb1760201c565b6200012c5760405162461bcd60e51b815260206004820152601d60248201527f504d5f433a2062617365207072696365206665656420696e76616c696400000060448201526064015b60405180910390fd5b6001600160a01b03811615806200015d57506200015d816001600160a01b03166200026560201b620010fb1760201c565b620001ab5760405162461bcd60e51b815260206004820152601e60248201527f504d5f433a2071756f7465207072696365206665656420696e76616c69640000604482015260640162000123565b8351620001c090600290602087019062000293565b506001600160a01b0383811660805282811660a052811660c052620001f2600962000274602090811b6200110a17901c565b6200020960036200027d60201b620011131760201c565b50505050620004bf565b600180546001600160a01b038381166001600160a01b0319831681179093556040519116919082907f8be0079c531659141344cd1fd0a4f28419497f9722a3daafe3b4186f6b6457e090600090a35050565b6001600160a01b03163b151590565b42600290910155565b6c01000000000000000000000000600590910155565b828054620002a19062000482565b90600052602060002090601f016020900481019282620002c5576000855562000310565b82601f10620002e057805160ff191683800117855562000310565b8280016001018555821562000310579182015b8281111562000310578251825591602001919060010190620002f3565b506200031e92915062000322565b5090565b5b808211156200031e576000815560010162000323565b634e487b7160e01b600052604160045260246000fd5b80516001600160a01b03811681146200036757600080fd5b919050565b600080600080608085870312156200038357600080fd5b84516001600160401b03808211156200039b57600080fd5b818701915087601f830112620003b057600080fd5b815181811115620003c557620003c562000339565b604051601f8201601f19908116603f01168101908382118183101715620003f057620003f062000339565b81604052828152602093508a848487010111156200040d57600080fd5b600091505b8282101562000431578482018401518183018501529083019062000412565b82821115620004435760008484830101525b9750620004559150508782016200034f565b9450505062000467604086016200034f565b915062000477606086016200034f565b905092959194509250565b600181811c908216806200049757607f821691505b60208210811415620004b957634e487b7160e01b600052602260045260246000fd5b50919050565b60805160a05160c051612ee562000520600039600081816101ea01528181610c8e015261146f0152600081816103a101528181610c6d015261144a015260008181610486015281816108c101528181610b0b0152610bf30152612ee56000f3fe608060405234801561001057600080fd5b50600436106101a55760003560e01c806385aaa397116100ef5780639cd441da116100925780639cd441da1461045b5780639d67bf031461046e578063d2f7265a14610481578063dba49153146104a8578063e7a49931146104ba578063e8fa204f146104cd578063f2289752146104e0578063f2fde38b146104eb57600080fd5b806385aaa397146103c357806388e27dfb146103f05780638da5cb5b146103ff5780638ee8fe5d14610410578063933c7979146104185780639482de1a1461042b57806395d89b41146104335780639c8f9f231461044857600080fd5b8063715018a611610157578063715018a6146103145780637452fadd1461031c57806374f25689146103245780637640482f146103375780637661ce131461035f578063796c20b71461037657806380796d5514610389578063823f2b041461039c57600080fd5b806301e0df12146101aa57806306f429b8146101bf5780630e06e4d0146101e5578063186f181e146102245780633aa3e650146102505780635a2f3d091461027a5780636346f32e146102c5575b600080fd5b6101bd6101b836600461286c565b6104fe565b005b6101d26101cd366004612899565b6105d5565b6040519081526020015b60405180910390f35b61020c7f000000000000000000000000000000000000000000000000000000000000000081565b6040516001600160a01b0390911681526020016101dc565b600f5461023b90600160501b900463ffffffff1681565b60405163ffffffff90911681526020016101dc565b600f54610266906301000000900462ffffff1681565b60405162ffffff90911681526020016101dc565b60035460045460055460065460075460085461029895949392919086565b604080519687526020870195909552938501929092526060840152608083015260a082015260c0016101dc565b6010546103039062ffffff8082169163010000008104821691600160301b8204811691600160481b810490911690600160601b900463ffffffff1685565b6040516101dc9594939291906128e6565b6101bd61067a565b6101d261068e565b6101bd61033236600461286c565b6106b7565b61034a61034536600461291a565b610787565b604080519283526020830191909152016101dc565b600f5461023b90600160301b900463ffffffff1681565b6101bd610384366004612945565b61079e565b6101d2610397366004612899565b6108bd565b61020c7f000000000000000000000000000000000000000000000000000000000000000081565b600c54600d54600e546103d592919083565b604080519384526020840192909252908201526060016101dc565b600f546102669062ffffff1681565b6001546001600160a01b031661020c565b6101d2610a32565b61034a610426366004612962565b610a52565b6008546101d2565b61043b610a78565b6040516101dc91906129be565b61034a61045636600461291a565b610b06565b6103d56104693660046129f1565b610bed565b6101bd61047c366004612945565b610d33565b61020c7f000000000000000000000000000000000000000000000000000000000000000081565b600954600a54600b546103d592919083565b6101bd6104c8366004612a13565b610e09565b6101d26104db366004612a25565b61106c565b60065460075461034a565b6101bd6104f9366004612a68565b611082565b610506611120565b600260005414156105325760405162461bcd60e51b815260040161052990612a91565b60405180910390fd5b600260005561c35062ffffff821611156105835760405162461bcd60e51b8152602060048201526012602482015271504d5f535046523a20746f6f206c6172676560701b6044820152606401610529565b600f805462ffffff191662ffffff83169081179091556040519081527ff02c81debd01d238f7814ac27bec8a7970b5271dc47842a419737b1ae313ca0f906020015b60405180910390a1506001600055565b6000806105e386868561117a565b509050808411156106305760405162461bcd60e51b8152602060048201526017602482015276141357d414ce881d1bdbc81b185c99d948185b5bdd5b9d604a1b6044820152606401610529565b6003546004546040805160808101825289151581528815156020820152600f5462ffffff169181019190915260608101879052610670929190600061120f565b9695505050505050565b610682611120565b61068c6000611318565b565b60035460009061069e5750600090565b6003546004546008546106b292919061136a565b905090565b6106bf611120565b600260005414156106e25760405162461bcd60e51b815260040161052990612a91565b6002600055620186a062ffffff821611156107355760405162461bcd60e51b8152602060048201526013602482015272504d5f53464d50523a20746f6f206c6172676560681b6044820152606401610529565b600f805465ffffff0000001916630100000062ffffff8416908102919091179091556040519081527f55647f4dd43ac173f04e53a506df46454012316d82fb04a9c1dbd8e0f21f8f76906020016105c5565b60008061079560038461138e565b91509150915091565b6107a6611120565b600260005414156107c95760405162461bcd60e51b815260040161052990612a91565b600260005562093a8063ffffffff8216111561081c5760405162461bcd60e51b8152602060048201526012602482015271504d5f534652533a20746f6f206c6172676560701b6044820152606401610529565b610e108163ffffffff1610156108695760405162461bcd60e51b8152602060048201526012602482015271141357d4d19494ce881d1bdbc81cdb585b1b60721b6044820152606401610529565b600f805463ffffffff60501b1916600160501b63ffffffff8416908102919091179091556040519081527fa703b265f29064a106acd6473c258e009bff9ac0bfd63b6f5ca4b712a25c8516906020016105c5565b60007f00000000000000000000000000000000000000000000000000000000000000006001600160a01b031633146109075760405162461bcd60e51b815260040161052990612ac8565b6002600054141561092a5760405162461bcd60e51b815260040161052990612a91565b600260009081558061093d87878661117a565b915091508185111561098a5760405162461bcd60e51b8152602060048201526016602482015275141357d4ce881d1bdbc81b185c99d948185b5bdd5b9d60521b6044820152606401610529565b6040805160808101825288151581528715156020820152600f5462ffffff1691810191909152606081018690526109c3906003906113c2565b92506109d0600c82611405565b6040805188151581528715156020820152908101869052606081018490527fdedf81f778c63a97f5a04bfeae9e0e04f18d283b04d930ea7b6af78b6eb50b769060800160405180910390a1610a2361142c565b50506001600055949350505050565b600354600090610a425750600090565b6003546004546106b2919061156b565b600080610a6b6003800154600360040154878787611585565b915091505b935093915050565b60028054610a8590612aff565b80601f0160208091040260200160405190810160405280929190818152602001828054610ab190612aff565b8015610afe5780601f10610ad357610100808354040283529160200191610afe565b820191906000526020600020905b815481529060010190602001808311610ae157829003601f168201915b505050505081565b6000807f00000000000000000000000000000000000000000000000000000000000000006001600160a01b03163314610b515760405162461bcd60e51b815260040161052990612ac8565b60026000541415610b745760405162461bcd60e51b815260040161052990612a91565b60026000556040805160208101909152838152610b93906003906115f2565b604080518381526020810183905290810186905291935091507f0bb89aa54ed6940a7e7167bd262b2400d63945045ceff1a52a05f2601ed215f19060600160405180910390a1610be161142c565b60016000559092909150565b600080807f00000000000000000000000000000000000000000000000000000000000000006001600160a01b03163314610c395760405162461bcd60e51b815260040161052990612ac8565b60026000541415610c5c5760405162461bcd60e51b815260040161052990612a91565b6002600055600554610cb457610cb47f00000000000000000000000000000000000000000000000000000000000000007f00000000000000000000000000000000000000000000000000000000000000008787611709565b610cd3600360405180604001604052808881526020018781525061191d565b604080518481526020810184905290810182905292955090935091507fd7f28048575eead8851d024ead087913957dfb4fd1a02b4d1573f5352a5a2be39060600160405180910390a1610d2461142c565b60016000819055509250925092565b610d3b611120565b60026000541415610d5e5760405162461bcd60e51b815260040161052990612a91565b600260005562093a8063ffffffff82161115610db25760405162461bcd60e51b8152602060048201526013602482015272504d5f53464d45533a20746f6f206c6172676560681b6044820152606401610529565b600f805469ffffffff0000000000001916600160301b63ffffffff8416908102919091179091556040519081527f5b18da8898c1e492e6bc631eec59d143ebba7f31ca794b668f0bfa9b0d989293906020016105c5565b610e11611120565b60026000541415610e345760405162461bcd60e51b815260040161052990612a91565b60026000556207a120610e4d604083016020840161286c565b62ffffff161115610ea05760405162461bcd60e51b815260206004820152601e60248201527f50455f53504c433a20746f6f206c61726765206c69717569646174696f6e00006044820152606401610529565b610eb0604082016020830161286c565b62ffffff16610ec2602083018361286c565b62ffffff161115610f085760405162461bcd60e51b815260206004820152601060248201526f141157d4d41310ce881a5b9d985b1a5960821b6044820152606401610529565b620f4240610f1c608083016060840161286c565b62ffffff1610610f6e5760405162461bcd60e51b815260206004820152601a60248201527f50455f53504c433a20656d6120746f6f206c61726765206c69710000000000006044820152606401610529565b610f7e608082016060830161286c565b62ffffff16610f93606083016040840161286c565b62ffffff161115610fdd5760405162461bcd60e51b8152602060048201526014602482015273141157d4d41310ce88195b58481a5b9d985b1a5960621b6044820152606401610529565b806010610fea8282612b41565b507fbe7eee05a638b28e8473a6f87ae310d3123f8a2a7561ce96e140f76125f74612905061101b602083018361286c565b61102b604084016020850161286c565b61103b606085016040860161286c565b61104b608086016060870161286c565b61105b60a0870160808801612945565b6040516105c59594939291906128e6565b600061107984848461117a565b50949350505050565b61108a611120565b6001600160a01b0381166110ef5760405162461bcd60e51b815260206004820152602660248201527f4f776e61626c653a206e6577206f776e657220697320746865207a65726f206160448201526564647265737360d01b6064820152608401610529565b6110f881611318565b50565b6001600160a01b03163b151590565b42600290910155565b600160601b600590910155565b6001546001600160a01b0316331461068c5760405162461bcd60e51b815260206004820181905260248201527f4f776e61626c653a2063616c6c6572206973206e6f7420746865206f776e65726044820152606401610529565b60006111a060405180606001604052806000815260200160008152602001600081525090565b6005546111b05760009150610a70565b60006111ba610a32565b90506111c9600c601083611ae8565b915060006111e4836000015184604001516010888b15611bb7565b600354600454600f54929350611203928a908a9062ffffff1686611c65565b93505050935093915050565b600080611223620f42408560400151611dc7565b905083602001511561127e5760608401516000906112419083611e2d565b8551909150156112665761125f868261125a8a82611e42565b611e4e565b9250611278565b611275878261125a8982611e42565b92505b506112cb565b8351156112a657606084015161129f90879061129a8882611f1c565b611f28565b91506112be565b60608401516112bb90869061129a8982611f1c565b91505b6112c88282611f9f565b91505b8261107957600082116110795760405162461bcd60e51b8152602060048201526015602482015274504c5f53443a206f7574707574206973207a65726f60581b6044820152606401610529565b600180546001600160a01b038381166001600160a01b0319831681179093556040519116919082907f8be0079c531659141344cd1fd0a4f28419497f9722a3daafe3b4186f6b6457e090600090a35050565b6000611384611379858561156b565b600160601b84611e4e565b90505b9392505050565b6000806113a48385600001548660020154611e4e565b6113b78486600101548760020154611e4e565b915091509250929050565b60006113d98360000154846001015484600061120f565b825160208401518554600187015460608701519495506113f99486611fb4565b60018501559092555090565b6020810151611412575050565b805182556020810151600183015560400151600290910155565b600061143661068e565b6040805160c0810182526001600160a01b037f0000000000000000000000000000000000000000000000000000000000000000811682527f0000000000000000000000000000000000000000000000000000000000000000166020820152908101829052600f5462ffffff6301000000820416606083015263ffffffff600160301b820481166080840152600160501b9091041660a0820152909150600090819081906114e590600990612036565b92509250925082600014156114fa5750505050565b6115056003846121cf565b6006546007546040805186815263ffffffff8616602082015290810184905260608101879052608081019290925260a08201527f318daee0b48d1f6a0542d8cdd35e2593d88c4fb01708f4781609494206d070519060c00160405180910390a150505050565b600061157c82600160601b85611e4e565b90505b92915050565b60008060006115a5611596866122d0565b61159f8a6122d0565b9061233e565b905060006115b5611596866122d0565b90506115d082600160601b6115c98a6122d0565b919061234a565b6115e282600160601b6115c98b6122d0565b9350935050509550959350505050565b81546001830154600284015483516000938493909290918490611616908584611e4e565b9050600061162988600001518585611e4e565b905060008211801561163b5750600081115b61167f5760405162461bcd60e51b8152602060048201526015602482015274504c5f524c3a206f7574707574206973207a65726f60581b6044820152606401610529565b6116898583611f1c565b89556116958482611f1c565b60018a015587516000906116aa908590611f1c565b90506103e88110156116f55760405162461bcd60e51b8152602060048201526014602482015273504c5f524c3a206d696e206c697175696469747960601b6044820152606401610529565b60028a015590955093505050509250929050565b6000611714856123ee565b90506000611721856123ee565b9050600082116117735760405162461bcd60e51b815260206004820152601b60248201527f464c5f56494c503a20696e76616c6964206261736520707269636500000000006044820152606401610529565b600081116117c35760405162461bcd60e51b815260206004820152601c60248201527f464c5f56494c503a20696e76616c69642071756f7465207072696365000000006044820152606401610529565b60006117ce876124b4565b905060006117db876124b4565b9050604d60ff831611156118315760405162461bcd60e51b815260206004820152601e60248201527f464c5f56494c503a20696e76616c6964206261736520646563696d616c7300006044820152606401610529565b604d60ff821611156118855760405162461bcd60e51b815260206004820152601f60248201527f464c5f56494c503a20696e76616c69642071756f746520646563696d616c73006044820152606401610529565b600061189686600160601b89611e4e565b905060006118a7848488888661257a565b90506118ba600160601b620186a0611e2d565b6118c3826125fa565b11156119115760405162461bcd60e51b815260206004820152601b60248201527f464c5f56494c503a20746f6f206661722066726f6d20696e64657800000000006044820152606401610529565b50505050505050505050565b60028201546000908190819081816119ee576020860151865160009161194b916119469161261e565b61262a565b9050611959816103e8611f1c565b875190925015801590611970575060008760200151115b801561197c5750600082115b6119c85760405162461bcd60e51b815260206004820152601d60248201527f504c5f414c3a20696e697469616c206c6971756964697479207a65726f0000006044820152606401610529565b8651808955602088015160018a0181905560028a0192909255955093509150611ae19050565b8654600188015487516020890151600091611a1391611a0e908686611e4e565b61269a565b90506000611a2e8a60200151611a0e8c600001518688611e4e565b9050611a49611a3e838887611e4e565b611a0e838987611e4e565b9450600082118015611a5b5750600081115b8015611a675750600085115b611aab5760405162461bcd60e51b8152602060048201526015602482015274504c5f414c3a206c6971756964697479207a65726f60581b6044820152606401610529565b611ab58483611e42565b8b55611ac18382611e42565b60018c0155611ad08686611e42565b60028c015590975095509193505050505b9250925092565b611b0c60405180606001604052806000815260200160008152602001600081525090565b60018401544290808211611b2f5750508354815260028401546040820152611387565b6000611b3b8383611f1c565b8754909150611b505760408401859052611ba6565b855463ffffffff600160601b909104811690600090611b739084908490611e4216565b9050611b9e611b83888584611e4e565b611b988b600201548563ffffffff1685611e4e565b90611e42565b604087015250505b505082825260208201529392505050565b600080611be484611bce57855462ffffff16611bdd565b85546301000000900462ffffff165b8890611e2d565b90506000611c1885611c03578654600160301b900462ffffff16611bdd565b86548890600160481b900462ffffff16611e2d565b90508315611c4057611c37611c2d8984611e42565b611a0e8984611e42565b92505050611c5c565b611c37611c4d8984611f1c565b611c578984611f1c565b6126b0565b95945050505050565b600080611c75620f424085611dc7565b90506000611c83898961261e565b90508615611d0d576000611c9c82600160601b87611e4e565b90506000611caa8b8061261e565b9050808211611cc0576000945050505050610670565b6000611ccc8383611f1c565b90506000611ce4611cdd8e88611e2d565b8e90611e42565b9050611d02611cf382886126c0565b611cfd84896126c0565b6126d5565b965050505050611d7c565b6000611d1e8286600160601b611e4e565b90506000611d2c8a8061261e565b9050808211611d42576000945050505050610670565b6000611d4e8383611f1c565b90506000611d66611d5f8d88611e2d565b8d90611e42565b9050611d75611cf382886126c0565b9650505050505b85611dbb57611db8898960405180608001604052808b151581526020016001151581526020018962ffffff16815260200187815250600161120f565b92505b50509695505050505050565b60008262ffffff168262ffffff161115611e235760405162461bcd60e51b815260206004820152601e60248201527f506572704d6174683a207375627472616374696f6e206f766572666c6f7700006044820152606401610529565b61157c8284612c43565b600061157c838362ffffff16620f4240611e4e565b600061157c8284612c67565b600080806000198587098587029250828110838203039150508060001415611e8957838281611e7f57611e7f612c7f565b0492505050611387565b838110611eb357604051631dcf306360e21b81526004810182905260248101859052604401610529565b60008486880960026001871981018816978890046003810283188082028403028082028403028082028403028082028403028082028403029081029092039091026000889003889004909101858311909403939093029303949094049190911702949350505050565b600061157c8284612c95565b6000611f35848484611e4e565b905060008280611f4757611f47612c7f565b8486091115611387576000198110611f955760405162461bcd60e51b8152602060048201526011602482015270464d5f4d4452553a206f766572666c6f7760781b6044820152606401610529565b80611c5c81612cac565b600061157c83620f42408462ffffff16611f28565b6000808615611ff6578715611fe057611fcd8685611e42565b9150611fd98584611f1c565b905061202b565b611fea8684611f1c565b9150611fd98585611e42565b8715612012576120068684611e42565b9150611fd98585611f1c565b61201c8685611f1c565b91506120288584611e42565b90505b965096945050505050565b6000806000804290506000612058876002015483611f1c90919063ffffffff16565b9050806120715760008060009450945094505050611ae1565b600061208087600001516123ee565b9050600061209188602001516123ee565b905060006120a289600001516124b4565b905060006120b38a602001516124b4565b8b54909150841480156120c95750828b60010154145b806120d2575083155b806120db575082155b806120e95750604d60ff8316115b806120f75750604d60ff8216115b15612112576000806000985098509850505050505050611ae1565b612126858b6080015163ffffffff1661269a565b945061213185612707565b9750612144828286868e6040015161257a565b9650600061216b6121668c60600151600160601b611e2d90919063ffffffff16565b6122d0565b905061218961217a828a61276c565b61218383612cc7565b9061277b565b97506121b2612197876122d0565b8c60a0015163ffffffff168a61234a9092919063ffffffff16565b948c55505050600189015560028801929092555092509250925092565b806121d8575050565b60006121e3826125fa565b9050600082131561224657600183015460006122048284600160601b611e4e565b90506122108282611f1c565b856001018190555061223961222e82600160601b8860020154611e4e565b600487015490611e42565b6004860155506122989050565b8254600061225d828461125a600160601b82611e42565b90506122698282611f1c565b8555600285015461229090612285908390600160601b90611e4e565b600387015490611e42565b600386015550505b6122c383600501546122b96122b48561159f600160601b6122d0565b61278b565b600160601b611e4e565b8360050181905550505050565b60006001600160ff1b0382111561233a5760405162461bcd60e51b815260206004820152602860248201527f53616665436173743a2076616c756520646f65736e27742066697420696e2061604482015267371034b73a191a9b60c11b6064820152608401610529565b5090565b600061157c8284612ce4565b6000806000851261235b5784612364565b612364856127dd565b90506000808512612375578461237e565b61237e856127dd565b9050600080871280156123915750600086135b806123a757506000871380156123a75750600086125b6123b25760006123b5565b60015b905060006123c4848488611e4e565b9050816123d9576123d4816122d0565b6123e2565b6123e28161283b565b98975050505050505050565b60006001600160a01b03821661240657506001919050565b60408051600481526024810182526020810180516001600160e01b0316634c6afee560e11b179052905160009081906001600160a01b0386169061244b908590612d23565b600060405180830381855afa9150503d8060008114612486576040519150601f19603f3d011682016040523d82523d6000602084013e61248b565b606091505b5091509150816124a057506000949350505050565b80806020019051810190611c5c9190612d3f565b60006001600160a01b0382166124cc57506000919050565b60408051600481526024810182526020810180516001600160e01b031663313ce56760e01b179052905160009081906001600160a01b03861690612511908590612d23565b600060405180830381855afa9150503d806000811461254c576040519150601f19603f3d011682016040523d82523d6000602084013e612551565b606091505b509150915081612566575060ff949350505050565b80806020019051810190611c5c9190612d58565b60008160ff871615158061258f575084600114155b156125ac576125a9816125a389600a612e5f565b87611e4e565b90505b60ff86161515806125be575083600114155b156125d6576125d3818561125a89600a612e5f565b90505b6125ef6125e6600160601b6122d0565b61159f836122d0565b979650505050505050565b600080821215612615576126106122b4836127dd565b61157f565b61157f8261278b565b600061157c8284612e6e565b6000600382111561268b5750806000612644600283612e8d565b61264f906001612c67565b90505b818110156126855790508060028161266a8186612e8d565b6126749190612c67565b61267e9190612e8d565b9050612652565b50919050565b8115612695575060015b919050565b60008183106126a9578161157c565b5090919050565b6000818310156126a9578161157c565b600061157c83620f42408462ffffff16611e4e565b600061157c6002612701856126fb6119466126f188600461261e565b611b988a8061261e565b90611f1c565b9061284f565b600063ffffffff82111561233a5760405162461bcd60e51b815260206004820152602660248201527f53616665436173743a2076616c756520646f65736e27742066697420696e203360448201526532206269747360d01b6064820152608401610529565b60008183126126a9578161157c565b6000818312156126a9578161157c565b60008082121561233a5760405162461bcd60e51b815260206004820181905260248201527f53616665436173743a2076616c7565206d75737420626520706f7369746976656044820152606401610529565b6000600160ff1b82136128325760405162461bcd60e51b815260206004820152601c60248201527f506572704d6174683a20696e76657273696f6e206f766572666c6f77000000006044820152606401610529565b61157f82612cc7565b6000612846826122d0565b61157f90612cc7565b600061157c8284612e8d565b62ffffff811681146110f857600080fd5b60006020828403121561287e57600080fd5b81356113878161285b565b8035801515811461269557600080fd5b600080600080608085870312156128af57600080fd5b6128b885612889565b93506128c660208601612889565b9250604085013591506128db60608601612889565b905092959194509250565b62ffffff958616815293851660208501529184166040840152909216606082015263ffffffff909116608082015260a00190565b60006020828403121561292c57600080fd5b5035919050565b63ffffffff811681146110f857600080fd5b60006020828403121561295757600080fd5b813561138781612933565b60008060006060848603121561297757600080fd5b505081359360208301359350604090920135919050565b60005b838110156129a9578181015183820152602001612991565b838111156129b8576000848401525b50505050565b60208152600082518060208401526129dd81604085016020870161298e565b601f01601f19169190910160400192915050565b60008060408385031215612a0457600080fd5b50508035926020909101359150565b600060a0828403121561268557600080fd5b600080600060608486031215612a3a57600080fd5b612a4384612889565b9250612a5160208501612889565b9150612a5f60408501612889565b90509250925092565b600060208284031215612a7a57600080fd5b81356001600160a01b038116811461138757600080fd5b6020808252601f908201527f5265656e7472616e637947756172643a207265656e7472616e742063616c6c00604082015260600190565b6020808252601d908201527f504d5f4f453a2063616c6c6572206973206e6f742065786368616e6765000000604082015260600190565b600181811c90821680612b1357607f821691505b6020821081141561268557634e487b7160e01b600052602260045260246000fd5b6000813561157f81612933565b8135612b4c8161285b565b62ffffff8116905081548162ffffff1982161783556020840135612b6f8161285b565b65ffffff0000008160181b169050808365ffffffffffff198416171784556040850135612b9b8161285b565b68ffffff0000000000008160301b1690508368ffffffffffffffffff1984161793508084831717855560608601359250612bd48361285b565b62ffffff60481b1993909316179190911760489190911b62ffffff60481b16178155612c29612c0560808401612b34565b82805463ffffffff60601b191660609290921b63ffffffff60601b16919091179055565b5050565b634e487b7160e01b600052601160045260246000fd5b600062ffffff83811690831681811015612c5f57612c5f612c2d565b039392505050565b60008219821115612c7a57612c7a612c2d565b500190565b634e487b7160e01b600052601260045260246000fd5b600082821015612ca757612ca7612c2d565b500390565b6000600019821415612cc057612cc0612c2d565b5060010190565b6000600160ff1b821415612cdd57612cdd612c2d565b5060000390565b60008083128015600160ff1b850184121615612d0257612d02612c2d565b6001600160ff1b0384018313811615612d1d57612d1d612c2d565b50500390565b60008251612d3581846020870161298e565b9190910192915050565b600060208284031215612d5157600080fd5b5051919050565b600060208284031215612d6a57600080fd5b815160ff8116811461138757600080fd5b600181815b80851115612db6578160001904821115612d9c57612d9c612c2d565b80851615612da957918102915b93841c9390800290612d80565b509250929050565b600082612dcd5750600161157f565b81612dda5750600061157f565b8160018114612df05760028114612dfa57612e16565b600191505061157f565b60ff841115612e0b57612e0b612c2d565b50506001821b61157f565b5060208310610133831016604e8410600b8410161715612e39575081810a61157f565b612e438383612d7b565b8060001904821115612e5757612e57612c2d565b029392505050565b600061157c60ff841683612dbe565b6000816000190483118215151615612e8857612e88612c2d565b500290565b600082612eaa57634e487b7160e01b600052601260045260246000fd5b50049056fea26469706673582212202956add31b1a5313e5711d70d66e7748cda90213aafc5a5ece9edf607a7a280764736f6c634300080c0033",
  "devdoc": {
    "kind": "dev",
    "methods": {
      "owner()": {
        "details": "Returns the address of the current owner."
      },
      "renounceOwnership()": {
        "details": "Leaves the contract without owner. It will not be possible to call `onlyOwner` functions anymore. Can only be called by the current owner. NOTE: Renouncing ownership will leave the contract without an owner, thereby removing any functionality that is only available to the owner."
      },
      "transferOwnership(address)": {
        "details": "Transfers ownership of the contract to a new account (`newOwner`). Can only be called by the current owner."
      }
    },
    "version": 1
  },
  "userdoc": {
    "errors": {
      "PRBMath__MulDivOverflow(uint256,uint256)": [
        {
          "notice": "Emitted when the result overflows uint256."
        }
      ]
    },
    "kind": "user",
    "methods": {},
    "version": 1
  },
  "storageLayout": {
    "storage": [
      {
        "astId": 925,
        "contract": "contracts/PerpdexMarket.sol:PerpdexMarket",
        "label": "_status",
        "offset": 0,
        "slot": "0",
        "type": "t_uint256"
      },
      {
        "astId": 550,
        "contract": "contracts/PerpdexMarket.sol:PerpdexMarket",
        "label": "_owner",
        "offset": 0,
        "slot": "1",
        "type": "t_address"
      },
      {
        "astId": 7332,
        "contract": "contracts/PerpdexMarket.sol:PerpdexMarket",
        "label": "symbol",
        "offset": 0,
        "slot": "2",
        "type": "t_string_storage"
      },
      {
        "astId": 7342,
        "contract": "contracts/PerpdexMarket.sol:PerpdexMarket",
        "label": "poolInfo",
        "offset": 0,
        "slot": "3",
        "type": "t_struct(PoolInfo)10719_storage"
      },
      {
        "astId": 7345,
        "contract": "contracts/PerpdexMarket.sol:PerpdexMarket",
        "label": "fundingInfo",
        "offset": 0,
        "slot": "9",
        "type": "t_struct(FundingInfo)10706_storage"
      },
      {
        "astId": 7348,
        "contract": "contracts/PerpdexMarket.sol:PerpdexMarket",
        "label": "priceLimitInfo",
        "offset": 0,
        "slot": "12",
        "type": "t_struct(PriceLimitInfo)10726_storage"
      },
      {
        "astId": 7351,
        "contract": "contracts/PerpdexMarket.sol:PerpdexMarket",
        "label": "poolFeeRatio",
        "offset": 0,
        "slot": "15",
        "type": "t_uint24"
      },
      {
        "astId": 7354,
        "contract": "contracts/PerpdexMarket.sol:PerpdexMarket",
        "label": "fundingMaxPremiumRatio",
        "offset": 3,
        "slot": "15",
        "type": "t_uint24"
      },
      {
        "astId": 7357,
        "contract": "contracts/PerpdexMarket.sol:PerpdexMarket",
        "label": "fundingMaxElapsedSec",
        "offset": 6,
        "slot": "15",
        "type": "t_uint32"
      },
      {
        "astId": 7360,
        "contract": "contracts/PerpdexMarket.sol:PerpdexMarket",
        "label": "fundingRolloverSec",
        "offset": 10,
        "slot": "15",
        "type": "t_uint32"
      },
      {
        "astId": 7371,
        "contract": "contracts/PerpdexMarket.sol:PerpdexMarket",
        "label": "priceLimitConfig",
        "offset": 0,
        "slot": "16",
        "type": "t_struct(PriceLimitConfig)10737_storage"
      }
    ],
    "types": {
      "t_address": {
        "encoding": "inplace",
        "label": "address",
        "numberOfBytes": "20"
      },
      "t_string_storage": {
        "encoding": "bytes",
        "label": "string",
        "numberOfBytes": "32"
      },
      "t_struct(FundingInfo)10706_storage": {
        "encoding": "inplace",
        "label": "struct MarketStructs.FundingInfo",
        "members": [
          {
            "astId": 10701,
            "contract": "contracts/PerpdexMarket.sol:PerpdexMarket",
            "label": "prevIndexPriceBase",
            "offset": 0,
            "slot": "0",
            "type": "t_uint256"
          },
          {
            "astId": 10703,
            "contract": "contracts/PerpdexMarket.sol:PerpdexMarket",
            "label": "prevIndexPriceQuote",
            "offset": 0,
            "slot": "1",
            "type": "t_uint256"
          },
          {
            "astId": 10705,
            "contract": "contracts/PerpdexMarket.sol:PerpdexMarket",
            "label": "prevIndexPriceTimestamp",
            "offset": 0,
            "slot": "2",
            "type": "t_uint256"
          }
        ],
        "numberOfBytes": "96"
      },
      "t_struct(PoolInfo)10719_storage": {
        "encoding": "inplace",
        "label": "struct MarketStructs.PoolInfo",
        "members": [
          {
            "astId": 10708,
            "contract": "contracts/PerpdexMarket.sol:PerpdexMarket",
            "label": "base",
            "offset": 0,
            "slot": "0",
            "type": "t_uint256"
          },
          {
            "astId": 10710,
            "contract": "contracts/PerpdexMarket.sol:PerpdexMarket",
            "label": "quote",
            "offset": 0,
            "slot": "1",
            "type": "t_uint256"
          },
          {
            "astId": 10712,
            "contract": "contracts/PerpdexMarket.sol:PerpdexMarket",
            "label": "totalLiquidity",
            "offset": 0,
            "slot": "2",
            "type": "t_uint256"
          },
          {
            "astId": 10714,
            "contract": "contracts/PerpdexMarket.sol:PerpdexMarket",
            "label": "cumBasePerLiquidityX96",
            "offset": 0,
            "slot": "3",
            "type": "t_uint256"
          },
          {
            "astId": 10716,
            "contract": "contracts/PerpdexMarket.sol:PerpdexMarket",
            "label": "cumQuotePerLiquidityX96",
            "offset": 0,
            "slot": "4",
            "type": "t_uint256"
          },
          {
            "astId": 10718,
            "contract": "contracts/PerpdexMarket.sol:PerpdexMarket",
            "label": "baseBalancePerShareX96",
            "offset": 0,
            "slot": "5",
            "type": "t_uint256"
          }
        ],
        "numberOfBytes": "192"
      },
      "t_struct(PriceLimitConfig)10737_storage": {
        "encoding": "inplace",
        "label": "struct MarketStructs.PriceLimitConfig",
        "members": [
          {
            "astId": 10728,
            "contract": "contracts/PerpdexMarket.sol:PerpdexMarket",
            "label": "normalOrderRatio",
            "offset": 0,
            "slot": "0",
            "type": "t_uint24"
          },
          {
            "astId": 10730,
            "contract": "contracts/PerpdexMarket.sol:PerpdexMarket",
            "label": "liquidationRatio",
            "offset": 3,
            "slot": "0",
            "type": "t_uint24"
          },
          {
            "astId": 10732,
            "contract": "contracts/PerpdexMarket.sol:PerpdexMarket",
            "label": "emaNormalOrderRatio",
            "offset": 6,
            "slot": "0",
            "type": "t_uint24"
          },
          {
            "astId": 10734,
            "contract": "contracts/PerpdexMarket.sol:PerpdexMarket",
            "label": "emaLiquidationRatio",
            "offset": 9,
            "slot": "0",
            "type": "t_uint24"
          },
          {
            "astId": 10736,
            "contract": "contracts/PerpdexMarket.sol:PerpdexMarket",
            "label": "emaSec",
            "offset": 12,
            "slot": "0",
            "type": "t_uint32"
          }
        ],
        "numberOfBytes": "32"
      },
      "t_struct(PriceLimitInfo)10726_storage": {
        "encoding": "inplace",
        "label": "struct MarketStructs.PriceLimitInfo",
        "members": [
          {
            "astId": 10721,
            "contract": "contracts/PerpdexMarket.sol:PerpdexMarket",
            "label": "referencePrice",
            "offset": 0,
            "slot": "0",
            "type": "t_uint256"
          },
          {
            "astId": 10723,
            "contract": "contracts/PerpdexMarket.sol:PerpdexMarket",
            "label": "referenceTimestamp",
            "offset": 0,
            "slot": "1",
            "type": "t_uint256"
          },
          {
            "astId": 10725,
            "contract": "contracts/PerpdexMarket.sol:PerpdexMarket",
            "label": "emaPrice",
            "offset": 0,
            "slot": "2",
            "type": "t_uint256"
          }
        ],
        "numberOfBytes": "96"
      },
      "t_uint24": {
        "encoding": "inplace",
        "label": "uint24",
        "numberOfBytes": "3"
      },
      "t_uint256": {
        "encoding": "inplace",
        "label": "uint256",
        "numberOfBytes": "32"
      },
      "t_uint32": {
        "encoding": "inplace",
        "label": "uint32",
        "numberOfBytes": "4"
      }
    }
  }
}