{
  "address": "0xDf4D877c5e1067BA130bf97bF7a194a9B9a92940",
  "abi": [
    {
      "inputs": [
        {
          "internalType": "address",
          "name": "settlementTokenArg",
          "type": "address"
        }
      ],
      "stateMutability": "nonpayable",
      "type": "constructor"
    },
    {
      "inputs": [
        {
          "internalType": "uint256",
          "name": "prod1",
          "type": "uint256"
        },
        {
          "internalType": "uint256",
          "name": "denominator",
          "type": "uint256"
        }
      ],
      "name": "PRBMath__MulDivOverflow",
      "type": "error"
    },
    {
      "anonymous": false,
      "inputs": [
        {
          "indexed": true,
          "internalType": "address",
          "name": "trader",
          "type": "address"
        },
        {
          "indexed": false,
          "internalType": "uint256",
          "name": "amount",
          "type": "uint256"
        }
      ],
      "name": "Deposited",
      "type": "event"
    },
    {
      "anonymous": false,
      "inputs": [
        {
          "indexed": false,
          "internalType": "uint24",
          "name": "value",
          "type": "uint24"
        }
      ],
      "name": "ImRatioChanged",
      "type": "event"
    },
    {
      "anonymous": false,
      "inputs": [
        {
          "indexed": true,
          "internalType": "address",
          "name": "market",
          "type": "address"
        },
        {
          "indexed": false,
          "internalType": "bool",
          "name": "isMarketAllowed",
          "type": "bool"
        }
      ],
      "name": "IsMarketAllowedChanged",
      "type": "event"
    },
    {
      "anonymous": false,
      "inputs": [
        {
          "indexed": false,
          "internalType": "uint24",
          "name": "rewardRatio",
          "type": "uint24"
        },
        {
          "indexed": false,
          "internalType": "uint16",
          "name": "smoothEmaTime",
          "type": "uint16"
        }
      ],
      "name": "LiquidationRewardConfigChanged",
      "type": "event"
    },
    {
      "anonymous": false,
      "inputs": [
        {
          "indexed": true,
          "internalType": "address",
          "name": "trader",
          "type": "address"
        },
        {
          "indexed": true,
          "internalType": "address",
          "name": "market",
          "type": "address"
        },
        {
          "indexed": false,
          "internalType": "uint256",
          "name": "base",
          "type": "uint256"
        },
        {
          "indexed": false,
          "internalType": "uint256",
          "name": "quote",
          "type": "uint256"
        },
        {
          "indexed": false,
          "internalType": "uint256",
          "name": "liquidity",
          "type": "uint256"
        },
        {
          "indexed": false,
          "internalType": "uint256",
          "name": "cumBasePerLiquidityX96",
          "type": "uint256"
        },
        {
          "indexed": false,
          "internalType": "uint256",
          "name": "cumQuotePerLiquidityX96",
          "type": "uint256"
        },
        {
          "indexed": false,
          "internalType": "uint256",
          "name": "baseBalancePerShareX96",
          "type": "uint256"
        },
        {
          "indexed": false,
          "internalType": "uint256",
          "name": "sharePriceAfterX96",
          "type": "uint256"
        }
      ],
      "name": "LiquidityAdded",
      "type": "event"
    },
    {
      "anonymous": false,
      "inputs": [
        {
          "indexed": true,
          "internalType": "address",
          "name": "trader",
          "type": "address"
        },
        {
          "indexed": true,
          "internalType": "address",
          "name": "market",
          "type": "address"
        },
        {
          "indexed": false,
          "internalType": "address",
          "name": "liquidator",
          "type": "address"
        },
        {
          "indexed": false,
          "internalType": "uint256",
          "name": "base",
          "type": "uint256"
        },
        {
          "indexed": false,
          "internalType": "uint256",
          "name": "quote",
          "type": "uint256"
        },
        {
          "indexed": false,
          "internalType": "uint256",
          "name": "liquidity",
          "type": "uint256"
        },
        {
          "indexed": false,
          "internalType": "int256",
          "name": "takerBase",
          "type": "int256"
        },
        {
          "indexed": false,
          "internalType": "int256",
          "name": "takerQuote",
          "type": "int256"
        },
        {
          "indexed": false,
          "internalType": "int256",
          "name": "realizedPnl",
          "type": "int256"
        },
        {
          "indexed": false,
          "internalType": "uint256",
          "name": "baseBalancePerShareX96",
          "type": "uint256"
        },
        {
          "indexed": false,
          "internalType": "uint256",
          "name": "sharePriceAfterX96",
          "type": "uint256"
        }
      ],
      "name": "LiquidityRemoved",
      "type": "event"
    },
    {
      "anonymous": false,
      "inputs": [
        {
          "indexed": false,
          "internalType": "uint8",
          "name": "value",
          "type": "uint8"
        }
      ],
      "name": "MaxMarketsPerAccountChanged",
      "type": "event"
    },
    {
      "anonymous": false,
      "inputs": [
        {
          "indexed": false,
          "internalType": "uint24",
          "name": "value",
          "type": "uint24"
        }
      ],
      "name": "MmRatioChanged",
      "type": "event"
    },
    {
      "anonymous": false,
      "inputs": [
        {
          "indexed": true,
          "internalType": "address",
          "name": "previousOwner",
          "type": "address"
        },
        {
          "indexed": true,
          "internalType": "address",
          "name": "newOwner",
          "type": "address"
        }
      ],
      "name": "OwnershipTransferred",
      "type": "event"
    },
    {
      "anonymous": false,
      "inputs": [
        {
          "indexed": true,
          "internalType": "address",
          "name": "trader",
          "type": "address"
        },
        {
          "indexed": true,
          "internalType": "address",
          "name": "market",
          "type": "address"
        },
        {
          "indexed": false,
          "internalType": "int256",
          "name": "base",
          "type": "int256"
        },
        {
          "indexed": false,
          "internalType": "int256",
          "name": "quote",
          "type": "int256"
        },
        {
          "indexed": false,
          "internalType": "int256",
          "name": "realizedPnl",
          "type": "int256"
        },
        {
          "indexed": false,
          "internalType": "uint256",
          "name": "protocolFee",
          "type": "uint256"
        },
        {
          "indexed": false,
          "internalType": "uint256",
          "name": "baseBalancePerShareX96",
          "type": "uint256"
        },
        {
          "indexed": false,
          "internalType": "uint256",
          "name": "sharePriceAfterX96",
          "type": "uint256"
        }
      ],
      "name": "PositionChanged",
      "type": "event"
    },
    {
      "anonymous": false,
      "inputs": [
        {
          "indexed": true,
          "internalType": "address",
          "name": "trader",
          "type": "address"
        },
        {
          "indexed": true,
          "internalType": "address",
          "name": "market",
          "type": "address"
        },
        {
          "indexed": true,
          "internalType": "address",
          "name": "liquidator",
          "type": "address"
        },
        {
          "indexed": false,
          "internalType": "int256",
          "name": "base",
          "type": "int256"
        },
        {
          "indexed": false,
          "internalType": "int256",
          "name": "quote",
          "type": "int256"
        },
        {
          "indexed": false,
          "internalType": "int256",
          "name": "realizedPnl",
          "type": "int256"
        },
        {
          "indexed": false,
          "internalType": "uint256",
          "name": "protocolFee",
          "type": "uint256"
        },
        {
          "indexed": false,
          "internalType": "uint256",
          "name": "baseBalancePerShareX96",
          "type": "uint256"
        },
        {
          "indexed": false,
          "internalType": "uint256",
          "name": "sharePriceAfterX96",
          "type": "uint256"
        },
        {
          "indexed": false,
          "internalType": "uint256",
          "name": "liquidationPenalty",
          "type": "uint256"
        },
        {
          "indexed": false,
          "internalType": "uint256",
          "name": "liquidationReward",
          "type": "uint256"
        },
        {
          "indexed": false,
          "internalType": "uint256",
          "name": "insuranceFundReward",
          "type": "uint256"
        }
      ],
      "name": "PositionLiquidated",
      "type": "event"
    },
    {
      "anonymous": false,
      "inputs": [
        {
          "indexed": false,
          "internalType": "uint24",
          "name": "value",
          "type": "uint24"
        }
      ],
      "name": "ProtocolFeeRatioChanged",
      "type": "event"
    },
    {
      "anonymous": false,
      "inputs": [
        {
          "indexed": true,
          "internalType": "address",
          "name": "trader",
          "type": "address"
        },
        {
          "indexed": false,
          "internalType": "uint256",
          "name": "amount",
          "type": "uint256"
        }
      ],
      "name": "ProtocolFeeTransferred",
      "type": "event"
    },
    {
      "anonymous": false,
      "inputs": [
        {
          "indexed": true,
          "internalType": "address",
          "name": "trader",
          "type": "address"
        },
        {
          "indexed": false,
          "internalType": "uint256",
          "name": "amount",
          "type": "uint256"
        }
      ],
      "name": "Withdrawn",
      "type": "event"
    },
    {
      "inputs": [
        {
          "internalType": "address",
          "name": "",
          "type": "address"
        }
      ],
      "name": "accountInfos",
      "outputs": [
        {
          "components": [
            {
              "internalType": "int256",
              "name": "collateralBalance",
              "type": "int256"
            }
          ],
          "internalType": "struct PerpdexStructs.VaultInfo",
          "name": "vaultInfo",
          "type": "tuple"
        }
      ],
      "stateMutability": "view",
      "type": "function"
    },
    {
      "inputs": [
        {
          "components": [
            {
              "internalType": "address",
              "name": "market",
              "type": "address"
            },
            {
              "internalType": "uint256",
              "name": "base",
              "type": "uint256"
            },
            {
              "internalType": "uint256",
              "name": "quote",
              "type": "uint256"
            },
            {
              "internalType": "uint256",
              "name": "minBase",
              "type": "uint256"
            },
            {
              "internalType": "uint256",
              "name": "minQuote",
              "type": "uint256"
            },
            {
              "internalType": "uint256",
              "name": "deadline",
              "type": "uint256"
            }
          ],
          "internalType": "struct IPerpdexExchange.AddLiquidityParams",
          "name": "params",
          "type": "tuple"
        }
      ],
      "name": "addLiquidity",
      "outputs": [
        {
          "internalType": "uint256",
          "name": "base",
          "type": "uint256"
        },
        {
          "internalType": "uint256",
          "name": "quote",
          "type": "uint256"
        },
        {
          "internalType": "uint256",
          "name": "liquidity",
          "type": "uint256"
        }
      ],
      "stateMutability": "nonpayable",
      "type": "function"
    },
    {
      "inputs": [
        {
          "internalType": "uint256",
          "name": "amount",
          "type": "uint256"
        }
      ],
      "name": "deposit",
      "outputs": [],
      "stateMutability": "payable",
      "type": "function"
    },
    {
      "inputs": [
        {
          "internalType": "address",
          "name": "trader",
          "type": "address"
        }
      ],
      "name": "getAccountMarkets",
      "outputs": [
        {
          "internalType": "address[]",
          "name": "",
          "type": "address[]"
        }
      ],
      "stateMutability": "view",
      "type": "function"
    },
    {
      "inputs": [
        {
          "internalType": "address",
          "name": "trader",
          "type": "address"
        },
        {
          "internalType": "address",
          "name": "market",
          "type": "address"
        }
      ],
      "name": "getMakerInfo",
      "outputs": [
        {
          "components": [
            {
              "internalType": "uint256",
              "name": "liquidity",
              "type": "uint256"
            },
            {
              "internalType": "uint256",
              "name": "cumBaseSharePerLiquidityX96",
              "type": "uint256"
            },
            {
              "internalType": "uint256",
              "name": "cumQuotePerLiquidityX96",
              "type": "uint256"
            }
          ],
          "internalType": "struct PerpdexStructs.MakerInfo",
          "name": "",
          "type": "tuple"
        }
      ],
      "stateMutability": "view",
      "type": "function"
    },
    {
      "inputs": [
        {
          "internalType": "address",
          "name": "trader",
          "type": "address"
        },
        {
          "internalType": "address",
          "name": "market",
          "type": "address"
        }
      ],
      "name": "getOpenPositionNotional",
      "outputs": [
        {
          "internalType": "uint256",
          "name": "",
          "type": "uint256"
        }
      ],
      "stateMutability": "view",
      "type": "function"
    },
    {
      "inputs": [
        {
          "internalType": "address",
          "name": "trader",
          "type": "address"
        },
        {
          "internalType": "address",
          "name": "market",
          "type": "address"
        }
      ],
      "name": "getOpenPositionShare",
      "outputs": [
        {
          "internalType": "uint256",
          "name": "",
          "type": "uint256"
        }
      ],
      "stateMutability": "view",
      "type": "function"
    },
    {
      "inputs": [
        {
          "internalType": "address",
          "name": "trader",
          "type": "address"
        },
        {
          "internalType": "address",
          "name": "market",
          "type": "address"
        }
      ],
      "name": "getPositionNotional",
      "outputs": [
        {
          "internalType": "int256",
          "name": "",
          "type": "int256"
        }
      ],
      "stateMutability": "view",
      "type": "function"
    },
    {
      "inputs": [
        {
          "internalType": "address",
          "name": "trader",
          "type": "address"
        },
        {
          "internalType": "address",
          "name": "market",
          "type": "address"
        }
      ],
      "name": "getPositionShare",
      "outputs": [
        {
          "internalType": "int256",
          "name": "",
          "type": "int256"
        }
      ],
      "stateMutability": "view",
      "type": "function"
    },
    {
      "inputs": [
        {
          "internalType": "address",
          "name": "trader",
          "type": "address"
        },
        {
          "internalType": "address",
          "name": "market",
          "type": "address"
        }
      ],
      "name": "getTakerInfo",
      "outputs": [
        {
          "components": [
            {
              "internalType": "int256",
              "name": "baseBalanceShare",
              "type": "int256"
            },
            {
              "internalType": "int256",
              "name": "quoteBalance",
              "type": "int256"
            }
          ],
          "internalType": "struct PerpdexStructs.TakerInfo",
          "name": "",
          "type": "tuple"
        }
      ],
      "stateMutability": "view",
      "type": "function"
    },
    {
      "inputs": [
        {
          "internalType": "address",
          "name": "trader",
          "type": "address"
        }
      ],
      "name": "getTotalAccountValue",
      "outputs": [
        {
          "internalType": "int256",
          "name": "",
          "type": "int256"
        }
      ],
      "stateMutability": "view",
      "type": "function"
    },
    {
      "inputs": [
        {
          "internalType": "address",
          "name": "trader",
          "type": "address"
        }
      ],
      "name": "getTotalOpenPositionNotional",
      "outputs": [
        {
          "internalType": "uint256",
          "name": "",
          "type": "uint256"
        }
      ],
      "stateMutability": "view",
      "type": "function"
    },
    {
      "inputs": [
        {
          "internalType": "address",
          "name": "trader",
          "type": "address"
        }
      ],
      "name": "getTotalPositionNotional",
      "outputs": [
        {
          "internalType": "uint256",
          "name": "",
          "type": "uint256"
        }
      ],
      "stateMutability": "view",
      "type": "function"
    },
    {
      "inputs": [
        {
          "internalType": "address",
          "name": "trader",
          "type": "address"
        }
      ],
      "name": "hasEnoughInitialMargin",
      "outputs": [
        {
          "internalType": "bool",
          "name": "",
          "type": "bool"
        }
      ],
      "stateMutability": "view",
      "type": "function"
    },
    {
      "inputs": [
        {
          "internalType": "address",
          "name": "trader",
          "type": "address"
        }
      ],
      "name": "hasEnoughMaintenanceMargin",
      "outputs": [
        {
          "internalType": "bool",
          "name": "",
          "type": "bool"
        }
      ],
      "stateMutability": "view",
      "type": "function"
    },
    {
      "inputs": [],
      "name": "imRatio",
      "outputs": [
        {
          "internalType": "uint24",
          "name": "",
          "type": "uint24"
        }
      ],
      "stateMutability": "view",
      "type": "function"
    },
    {
      "inputs": [],
      "name": "insuranceFundInfo",
      "outputs": [
        {
          "internalType": "int256",
          "name": "balance",
          "type": "int256"
        },
        {
          "internalType": "uint256",
          "name": "liquidationRewardBalance",
          "type": "uint256"
        }
      ],
      "stateMutability": "view",
      "type": "function"
    },
    {
      "inputs": [
        {
          "internalType": "address",
          "name": "",
          "type": "address"
        }
      ],
      "name": "isMarketAllowed",
      "outputs": [
        {
          "internalType": "bool",
          "name": "",
          "type": "bool"
        }
      ],
      "stateMutability": "view",
      "type": "function"
    },
    {
      "inputs": [],
      "name": "liquidationRewardConfig",
      "outputs": [
        {
          "internalType": "uint24",
          "name": "rewardRatio",
          "type": "uint24"
        },
        {
          "internalType": "uint16",
          "name": "smoothEmaTime",
          "type": "uint16"
        }
      ],
      "stateMutability": "view",
      "type": "function"
    },
    {
      "inputs": [],
      "name": "maxMarketsPerAccount",
      "outputs": [
        {
          "internalType": "uint8",
          "name": "",
          "type": "uint8"
        }
      ],
      "stateMutability": "view",
      "type": "function"
    },
    {
      "inputs": [
        {
          "components": [
            {
              "internalType": "address",
              "name": "trader",
              "type": "address"
            },
            {
              "internalType": "address",
              "name": "market",
              "type": "address"
            },
            {
              "internalType": "address",
              "name": "caller",
              "type": "address"
            },
            {
              "internalType": "bool",
              "name": "isBaseToQuote",
              "type": "bool"
            },
            {
              "internalType": "bool",
              "name": "isExactInput",
              "type": "bool"
            }
          ],
          "internalType": "struct IPerpdexExchange.MaxTradeParams",
          "name": "params",
          "type": "tuple"
        }
      ],
      "name": "maxTrade",
      "outputs": [
        {
          "internalType": "uint256",
          "name": "amount",
          "type": "uint256"
        }
      ],
      "stateMutability": "view",
      "type": "function"
    },
    {
      "inputs": [],
      "name": "mmRatio",
      "outputs": [
        {
          "internalType": "uint24",
          "name": "",
          "type": "uint24"
        }
      ],
      "stateMutability": "view",
      "type": "function"
    },
    {
      "inputs": [],
      "name": "owner",
      "outputs": [
        {
          "internalType": "address",
          "name": "",
          "type": "address"
        }
      ],
      "stateMutability": "view",
      "type": "function"
    },
    {
      "inputs": [
        {
          "components": [
            {
              "internalType": "address",
              "name": "trader",
              "type": "address"
            },
            {
              "internalType": "address",
              "name": "market",
              "type": "address"
            },
            {
              "internalType": "address",
              "name": "caller",
              "type": "address"
            },
            {
              "internalType": "bool",
              "name": "isBaseToQuote",
              "type": "bool"
            },
            {
              "internalType": "bool",
              "name": "isExactInput",
              "type": "bool"
            },
            {
              "internalType": "uint256",
              "name": "amount",
              "type": "uint256"
            },
            {
              "internalType": "uint256",
              "name": "oppositeAmountBound",
              "type": "uint256"
            }
          ],
          "internalType": "struct IPerpdexExchange.PreviewTradeParams",
          "name": "params",
          "type": "tuple"
        }
      ],
      "name": "previewTrade",
      "outputs": [
        {
          "internalType": "uint256",
          "name": "oppositeAmount",
          "type": "uint256"
        }
      ],
      "stateMutability": "view",
      "type": "function"
    },
    {
      "inputs": [],
      "name": "protocolFeeRatio",
      "outputs": [
        {
          "internalType": "uint24",
          "name": "",
          "type": "uint24"
        }
      ],
      "stateMutability": "view",
      "type": "function"
    },
    {
      "inputs": [],
      "name": "protocolInfo",
      "outputs": [
        {
          "internalType": "uint256",
          "name": "protocolFee",
          "type": "uint256"
        }
      ],
      "stateMutability": "view",
      "type": "function"
    },
    {
      "inputs": [],
      "name": "quoteDecimals",
      "outputs": [
        {
          "internalType": "uint8",
          "name": "",
          "type": "uint8"
        }
      ],
      "stateMutability": "view",
      "type": "function"
    },
    {
      "inputs": [
        {
          "components": [
            {
              "internalType": "address",
              "name": "trader",
              "type": "address"
            },
            {
              "internalType": "address",
              "name": "market",
              "type": "address"
            },
            {
              "internalType": "uint256",
              "name": "liquidity",
              "type": "uint256"
            },
            {
              "internalType": "uint256",
              "name": "minBase",
              "type": "uint256"
            },
            {
              "internalType": "uint256",
              "name": "minQuote",
              "type": "uint256"
            },
            {
              "internalType": "uint256",
              "name": "deadline",
              "type": "uint256"
            }
          ],
          "internalType": "struct IPerpdexExchange.RemoveLiquidityParams",
          "name": "params",
          "type": "tuple"
        }
      ],
      "name": "removeLiquidity",
      "outputs": [
        {
          "internalType": "uint256",
          "name": "base",
          "type": "uint256"
        },
        {
          "internalType": "uint256",
          "name": "quote",
          "type": "uint256"
        }
      ],
      "stateMutability": "nonpayable",
      "type": "function"
    },
    {
      "inputs": [],
      "name": "renounceOwnership",
      "outputs": [],
      "stateMutability": "nonpayable",
      "type": "function"
    },
    {
      "inputs": [
        {
          "internalType": "address",
          "name": "trader",
          "type": "address"
        },
        {
          "internalType": "int256",
          "name": "balance",
          "type": "int256"
        }
      ],
      "name": "setCollateralBalance",
      "outputs": [],
      "stateMutability": "nonpayable",
      "type": "function"
    },
    {
      "inputs": [
        {
          "internalType": "uint24",
          "name": "value",
          "type": "uint24"
        }
      ],
      "name": "setImRatio",
      "outputs": [],
      "stateMutability": "nonpayable",
      "type": "function"
    },
    {
      "inputs": [
        {
          "internalType": "address",
          "name": "market",
          "type": "address"
        },
        {
          "internalType": "bool",
          "name": "value",
          "type": "bool"
        }
      ],
      "name": "setIsMarketAllowed",
      "outputs": [],
      "stateMutability": "nonpayable",
      "type": "function"
    },
    {
      "inputs": [
        {
          "components": [
            {
              "internalType": "uint24",
              "name": "rewardRatio",
              "type": "uint24"
            },
            {
              "internalType": "uint16",
              "name": "smoothEmaTime",
              "type": "uint16"
            }
          ],
          "internalType": "struct PerpdexStructs.LiquidationRewardConfig",
          "name": "value",
          "type": "tuple"
        }
      ],
      "name": "setLiquidationRewardConfig",
      "outputs": [],
      "stateMutability": "nonpayable",
      "type": "function"
    },
    {
      "inputs": [
        {
          "internalType": "uint8",
          "name": "value",
          "type": "uint8"
        }
      ],
      "name": "setMaxMarketsPerAccount",
      "outputs": [],
      "stateMutability": "nonpayable",
      "type": "function"
    },
    {
      "inputs": [
        {
          "internalType": "uint24",
          "name": "value",
          "type": "uint24"
        }
      ],
      "name": "setMmRatio",
      "outputs": [],
      "stateMutability": "nonpayable",
      "type": "function"
    },
    {
      "inputs": [
        {
          "internalType": "uint24",
          "name": "value",
          "type": "uint24"
        }
      ],
      "name": "setProtocolFeeRatio",
      "outputs": [],
      "stateMutability": "nonpayable",
      "type": "function"
    },
    {
      "inputs": [],
      "name": "settlementToken",
      "outputs": [
        {
          "internalType": "address",
          "name": "",
          "type": "address"
        }
      ],
      "stateMutability": "view",
      "type": "function"
    },
    {
      "inputs": [
        {
          "components": [
            {
              "internalType": "address",
              "name": "trader",
              "type": "address"
            },
            {
              "internalType": "address",
              "name": "market",
              "type": "address"
            },
            {
              "internalType": "bool",
              "name": "isBaseToQuote",
              "type": "bool"
            },
            {
              "internalType": "bool",
              "name": "isExactInput",
              "type": "bool"
            },
            {
              "internalType": "uint256",
              "name": "amount",
              "type": "uint256"
            },
            {
              "internalType": "uint256",
              "name": "oppositeAmountBound",
              "type": "uint256"
            },
            {
              "internalType": "uint256",
              "name": "deadline",
              "type": "uint256"
            }
          ],
          "internalType": "struct IPerpdexExchange.TradeParams",
          "name": "params",
          "type": "tuple"
        }
      ],
      "name": "trade",
      "outputs": [
        {
          "internalType": "uint256",
          "name": "oppositeAmount",
          "type": "uint256"
        }
      ],
      "stateMutability": "nonpayable",
      "type": "function"
    },
    {
      "inputs": [
        {
          "internalType": "address",
          "name": "newOwner",
          "type": "address"
        }
      ],
      "name": "transferOwnership",
      "outputs": [],
      "stateMutability": "nonpayable",
      "type": "function"
    },
    {
      "inputs": [
        {
          "internalType": "uint256",
          "name": "amount",
          "type": "uint256"
        }
      ],
      "name": "transferProtocolFee",
      "outputs": [],
      "stateMutability": "nonpayable",
      "type": "function"
    },
    {
      "inputs": [
        {
          "internalType": "uint256",
          "name": "amount",
          "type": "uint256"
        }
      ],
      "name": "withdraw",
      "outputs": [],
      "stateMutability": "nonpayable",
      "type": "function"
    }
  ],
  "transactionHash": "0xb88a3a97d111fee3217721b7e862bb698ee05efeb8b20670c42bc10dd506e79c",
  "args": [
    "0x0000000000000000000000000000000000000000"
  ],
  "numDeployments": 1,
  "solcInputHash": "6351b3da456677a3b3f260083ba05335",
  "bytecode": "0x600680546001600160501b03191665c3500186a01017905560e060405262030d4060a052606460c052600780546364030d4064ffffffffff199091161790553480156200004b57600080fd5b5060405162005a0b38038062005a0b8339810160408190526200006e9162000208565b6001600055806200007f33620001a7565b6001600160a01b0381161580620000b05750620000b0816001600160a01b0316620001f960201b620021b91760201c565b620001025760405162461bcd60e51b815260206004820152601b60248201527f50455f433a20746f6b656e206164647265737320696e76616c6964000000000060448201526064015b60405180910390fd5b6001600160a01b03166080524660048114806200012157506201388181145b806200012d5750605181145b8062000137575080155b8062000145575062066eeb81145b80620001515750604581145b6200019f5760405162461bcd60e51b815260206004820152601360248201527f4450455f433a20746573746e6574206f6e6c79000000000000000000000000006044820152606401620000f9565b50506200023a565b600180546001600160a01b038381166001600160a01b0319831681179093556040519116919082907f8be0079c531659141344cd1fd0a4f28419497f9722a3daafe3b4186f6b6457e090600090a35050565b6001600160a01b03163b151590565b6000602082840312156200021b57600080fd5b81516001600160a01b03811681146200023357600080fd5b9392505050565b6080516157a06200026b600039600081816104aa01528181610a5401528181611511015261166301526157a06000f3fe6080604052600436106102465760003560e01c806394887af711610139578063ca5b721e116100b6578063dfe1cb921161007a578063dfe1cb9214610801578063e671be171461083c578063e72e43631461085c578063ec6cca841461088c578063f2fde38b146108ac578063f652b527146108cc57600080fd5b8063ca5b721e14610739578063cffe855614610759578063d11102c514610779578063d1ce35e3146107a6578063ddad7e97146107c657600080fd5b8063ac3732b4116100fd578063ac3732b414610689578063b53c5125146106a9578063b6b55f25146106eb578063c66fa8e6146106fe578063c9ca7b181461071957600080fd5b806394887af71461059a578063996fbf94146105e15780639dce9e19146106015780639f044f3114610631578063a616c66c1461065457600080fd5b80636e838bad116101c75780637c88490a1161018b5780637c88490a146104d957806387cad0bf146104f95780638da5cb5b146105455780639317b1931461056357806393420cf41461058357600080fd5b80636e838bad14610420578063715018a61461044057806373f62501146104555780637a27d9f6146104755780637b9e618d1461049857600080fd5b806333ff15771161020e57806333ff1577146103795780633a921051146103995780633d46396a146103b95780633fd1e2bd146103d95780634b4aa7351461040057600080fd5b80630674fa411461024b5780632d67669c1461027e5780632e1a7d4d1461029e5780632e784343146102c05780632f60a15114610344575b600080fd5b34801561025757600080fd5b5061026b610266366004614f77565b6108e6565b6040519081526020015b60405180910390f35b34801561028a57600080fd5b5061026b610299366004614f94565b61090d565b3480156102aa57600080fd5b506102be6102b9366004614fac565b610a00565b005b3480156102cc57600080fd5b506103296102db366004614fc5565b604080518082018252600080825260209182018190526001600160a01b0394851681526002825282812093909416845291825291829020825180840190935280548352600101549082015290565b60408051825181526020928301519281019290925201610275565b34801561035057600080fd5b5060065461036590610100900462ffffff1681565b60405162ffffff9091168152602001610275565b34801561038557600080fd5b5061026b610394366004614fc5565b610aeb565b3480156103a557600080fd5b5061026b6103b4366004614f77565b610b14565b3480156103c557600080fd5b506102be6103d4366004614fac565b610b35565b3480156103e557600080fd5b506103ee601281565b60405160ff9091168152602001610275565b34801561040c57600080fd5b5061026b61041b366004614f77565b610bbc565b34801561042c57600080fd5b506102be61043b36600461500f565b610bdd565b34801561044c57600080fd5b506102be610d14565b34801561046157600080fd5b506102be61047036600461503b565b610d28565b34801561048157600080fd5b5060065461036590600160381b900462ffffff1681565b3480156104a457600080fd5b506104cc7f000000000000000000000000000000000000000000000000000000000000000081565b6040516102759190615058565b3480156104e557600080fd5b5061026b6104f4366004614fc5565b610d9a565b34801561050557600080fd5b50610536610514366004614f77565b6002602081815260009283526040928390208351918201909352910154815281565b60405190518152602001610275565b34801561055157600080fd5b506001546001600160a01b03166104cc565b34801561056f57600080fd5b506102be61057e36600461507a565b610dbc565b34801561058f57600080fd5b5060055461026b9081565b3480156105a657600080fd5b506007546105c39062ffffff8116906301000000900461ffff1682565b6040805162ffffff909316835261ffff909116602083015201610275565b3480156105ed57600080fd5b5061026b6105fc366004614fc5565b610f6a565b34801561060d57600080fd5b5061062161061c366004614f77565b610f8c565b6040519015158152602001610275565b34801561063d57600080fd5b5060065461036590600160201b900462ffffff1681565b34801561066057600080fd5b5061067461066f3660046150ba565b610fbd565b60408051928352602083019190915201610275565b34801561069557600080fd5b506102be6106a43660046150d6565b61130c565b3480156106b557600080fd5b506106c96106c4366004614fc5565b61146a565b6040805182518152602080840151908201529181015190820152606001610275565b6102be6106f9366004614fac565b6114de565b34801561070a57600080fd5b50600354600454610674919082565b34801561072557600080fd5b506102be61073436600461500f565b6116ec565b34801561074557600080fd5b5061026b610754366004614fc5565b611813565b34801561076557600080fd5b5061026b6107743660046150fa565b611835565b34801561078557600080fd5b50610799610794366004614f77565b61197c565b6040516102759190615116565b3480156107b257600080fd5b506102be6107c136600461500f565b6119f5565b3480156107d257600080fd5b506102be6107e1366004615163565b6001600160a01b0390911660009081526002602081905260409091200155565b34801561080d57600080fd5b5061082161081c3660046150ba565b611ac3565b60408051938452602084019290925290820152606001610275565b34801561084857600080fd5b5061026b6108573660046150fa565b611dbb565b34801561086857600080fd5b50610621610877366004614f77565b60086020526000908152604090205460ff1681565b34801561089857600080fd5b506106216108a7366004614f77565b612111565b3480156108b857600080fd5b506102be6108c7366004614f77565b612140565b3480156108d857600080fd5b506006546103ee9060ff1681565b6001600160a01b0381166000908152600260205260408120610907906121c8565b92915050565b60006008816109226040850160208601614f77565b6001600160a01b0316815260208101919091526040016000205460ff1661094b57506000919050565b600061095a6020840184614f77565b9050600061096e6060850160408601614f77565b90506109f860026000846001600160a01b03166001600160a01b031681526020019081526020016000208560200160208101906109ab9190614f77565b6109bb608088016060890161518f565b6109cb60a0890160808a0161518f565b60065462ffffff600160201b8204811691600160381b9004166001600160a01b0389811690891614612428565b949350505050565b60026000541415610a2c5760405162461bcd60e51b8152600401610a23906151ac565b60405180910390fd5b6002600081815533808252602092835260409182902082516080810184526001600160a01b037f0000000000000000000000000000000000000000000000000000000000000000168152938401859052918301819052600654610100900462ffffff16606084015291610a9f9190612530565b806001600160a01b03167f7084f5476618d8e60b11ef0d7d3f06914655adb8793e28ff7f018d4c76d505d583604051610ada91815260200190565b60405180910390a250506001600055565b6001600160a01b0382166000908152600260205260408120610b0d90836126f5565b9392505050565b6001600160a01b038116600090815260026020526040812061090790612846565b610b3d6128b6565b60026000541415610b605760405162461bcd60e51b8152600401610a23906151ac565b600260008181553380825260209290925260409020610b8190600584612910565b806001600160a01b03167f0880b0e717a57f3b5cbd3fc19396ae3c8cdee5c624c9289477869c38014c849583604051610ada91815260200190565b6001600160a01b03811660009081526002602052604081206109079061293f565b610be56128b6565b60026000541415610c085760405162461bcd60e51b8152600401610a23906151ac565b6002600055620f424062ffffff821610610c585760405162461bcd60e51b815260206004820152601160248201527050455f5349523a20746f6f206c6172676560781b6044820152606401610a23565b60065462ffffff600160201b90910481169082161015610cba5760405162461bcd60e51b815260206004820152601c60248201527f50455f5349523a20736d616c6c6572207468616e206d6d526174696f000000006044820152606401610a23565b6006805463ffffff00191661010062ffffff8416908102919091179091556040519081527f04f9c1a24c6543f4b91577d82af28fb7ef6d7b9fe46acd0e5c36ef17073b94e6906020015b60405180910390a1506001600055565b610d1c6128b6565b610d2660006129a7565b565b610d306128b6565b60026000541415610d535760405162461bcd60e51b8152600401610a23906151ac565b60026000556006805460ff191660ff83169081179091556040519081527fa7b4760b38e2a630f3073fcd5119972cbf81bd50e3761f86534a69661caf811090602001610d04565b6001600160a01b0382166000908152600260205260408120610b0d90836129f9565b610dc46128b6565b60026000541415610de75760405162461bcd60e51b8152600401610a23906151ac565b6002600055610dfe6001600160a01b0383166121b9565b610e4a5760405162461bcd60e51b815260206004820152601f60248201527f50455f53494d413a206d61726b6574206164647265737320696e76616c6964006044820152606401610a23565b8015610f1257306001600160a01b0316826001600160a01b031663d2f7265a6040518163ffffffff1660e01b8152600401602060405180830381865afa158015610e98573d6000803e3d6000fd5b505050506040513d601f19601f82011682018060405250810190610ebc91906151e3565b6001600160a01b031614610f125760405162461bcd60e51b815260206004820152601b60248201527f50455f53494d413a20646966666572656e742065786368616e676500000000006044820152606401610a23565b6001600160a01b038216600081815260086020908152604091829020805460ff191685151590811790915591519182527fd5d4c2e150c76234e0f5d390162d34c5c1e1405df2194cfbd63b12d9521b10279101610ada565b6001600160a01b0382166000908152600260205260408120610b0d9083612a95565b6001600160a01b03811660009081526002602052604081206006546109079190600160201b900462ffffff16612b28565b60008060026000541415610fe35760405162461bcd60e51b8152600401610a23906151ac565b600260005560a08301354281101561100d5760405162461bcd60e51b8152600401610a2390615200565b61101d6040850160208601614f77565b6001600160a01b03811660009081526008602052604090205460ff166110555760405162461bcd60e51b8152600401610a2390615229565b600061112160028261106a60208a018a614f77565b6001600160a01b03166001600160a01b031681526020019081526020016000206040518060e001604052808960200160208101906110a89190614f77565b6001600160a01b0316815260408a81013560208301526060808c0135918301919091526080808c013591830191909152600654600160201b810462ffffff169183019190915260ff1660a082015260c001336001600160a01b031661111060208c018c614f77565b6001600160a01b0316149052612b61565b905060006111356040880160208901614f77565b6001600160a01b0316639482de1a6040518163ffffffff1660e01b8152600401602060405180830381865afa158015611172573d6000803e3d6000fd5b505050506040513d601f19601f820116820180604052508101906111969190615260565b905060006111aa6040890160208a01614f77565b6001600160a01b0316638ee8fe5d6040518163ffffffff1660e01b8152600401602060405180830381865afa1580156111e7573d6000803e3d6000fd5b505050506040513d601f19601f8201168201806040525081019061120b9190615260565b905061121d6040890160208a01614f77565b6001600160a01b031661123360208a018a614f77565b6001600160a01b03167f2935383596639a6916071dea84c6ed5d6c6315fa9628268974458798fea93ebc8560a0015161126d57600061126f565b335b866000015187602001518d6040013589604001518a606001518b608001518b8b6040516112e9999897969594939291906001600160a01b03999099168952602089019790975260408801959095526060870193909352608086019190915260a085015260c084015260e08301526101008201526101200190565b60405180910390a350508051602090910151600160005590969095509350505050565b6113146128b6565b600260005414156113375760405162461bcd60e51b8152600401610a23906151ac565b6002600055620f424061134d602083018361500f565b62ffffff161061139f5760405162461bcd60e51b815260206004820152601f60248201527f50455f534c52433a20746f6f206c617267652072657761726420726174696f006044820152606401610a23565b60006113b16040830160208401615289565b61ffff16116113fe5760405162461bcd60e51b815260206004820152601960248201527850455f534c52433a20656d612074696d65206973207a65726f60381b6044820152606401610a23565b80600761140b82826152a6565b507f1185c4964ca5cd3d88d5dfbc1fb65b84d5533e3354f3b2163e8e1c0f35bca0e1905061143c602083018361500f565b61144c6040840160208501615289565b6040805162ffffff909316835261ffff909116602083015201610d04565b61148e60405180606001604052806000815260200160008152602001600081525090565b506001600160a01b03808316600090815260026020818152604080842094861684526001948501825292839020835160608101855281548152948101549185019190915201549082015292915050565b600260005414156115015760405162461bcd60e51b8152600401610a23906151ac565b6002600055336001600160a01b037f0000000000000000000000000000000000000000000000000000000000000000166115e557811561157b5760405162461bcd60e51b815260206004820152601560248201527450455f443a20616d6f756e74206e6f74207a65726f60581b6044820152606401610a23565b6001600160a01b038116600090815260026020526040902061159d9034612eb3565b806001600160a01b03167f2da466a7b24304f47e87fa2e1e5a81b9831ce54fec19055ce277ca2f39ba42c4346040516115d891815260200190565b60405180910390a26116e3565b341561162e5760405162461bcd60e51b815260206004820152601860248201527750455f443a206d73672e76616c7565206e6f74207a65726f60401b6044820152606401610a23565b6116a860026000836001600160a01b03166001600160a01b0316815260200190815260200160002060405180606001604052807f00000000000000000000000000000000000000000000000000000000000000006001600160a01b03168152602001858152602001846001600160a01b0316815250612f1b565b806001600160a01b03167f2da466a7b24304f47e87fa2e1e5a81b9831ce54fec19055ce277ca2f39ba42c483604051610ada91815260200190565b50506001600055565b6116f46128b6565b600260005414156117175760405162461bcd60e51b8152600401610a23906151ac565b600260005560065462ffffff6101009091048116908216111561177c5760405162461bcd60e51b815260206004820152601b60248201527f50455f534d523a20626967676572207468616e20696d526174696f00000000006044820152606401610a23565b60008162ffffff16116117c05760405162461bcd60e51b815260206004820152600c60248201526b50455f534d523a207a65726f60a01b6044820152606401610a23565b6006805466ffffff000000001916600160201b62ffffff8416908102919091179091556040519081527ffbd0bf17b9833a130f5baeccbfc586acefc75be8ad5bb114f448e412adc4c05b90602001610d04565b6001600160a01b0382166000908152600260205260408120610b0d9083612fe1565b60006118476040830160208401614f77565b6001600160a01b03811660009081526008602052604090205460ff1661187f5760405162461bcd60e51b8152600401610a2390615229565b600061188e6020850185614f77565b905060006118a26060860160408701614f77565b905061197360026000846001600160a01b03166001600160a01b031681526020019081526020016000206040518061010001604052808860200160208101906118eb9190614f77565b6001600160a01b0316815260200161190960808a0160608b0161518f565b1515815260200161192060a08a0160808b0161518f565b1515815260a0808a0135602083015260c08a0135604083015260065462ffffff600160201b820481166060850152600160381b9091041660808301526001600160a01b0387811690871614910152613092565b95945050505050565b6001600160a01b0381166000908152600260209081526040918290206003018054835181840281018401909452808452606093928301828280156119e957602002820191906000526020600020905b81546001600160a01b031681526001909101906020018083116119cb575b50505050509050919050565b6119fd6128b6565b60026000541415611a205760405162461bcd60e51b8152600401610a23906151ac565b600260005561271062ffffff82161115611a715760405162461bcd60e51b815260206004820152601260248201527150455f535046523a20746f6f206c6172676560701b6044820152606401610a23565b6006805462ffffff60381b1916600160381b62ffffff8416908102919091179091556040519081527f68c41b7a5c12c4d9cbb99ec284bf647922a75f379a90694e3ad65574f4ff944d90602001610d04565b600080600060026000541415611aeb5760405162461bcd60e51b8152600401610a23906151ac565b600260005560a084013542811015611b155760405162461bcd60e51b8152600401610a2390615200565b611b226020860186614f77565b6001600160a01b03811660009081526008602052604090205460ff16611b5a5760405162461bcd60e51b8152600401610a2390615229565b336000818152600260209081526040808320815160e08101909252611bdd929091908190611b8a908d018d614f77565b6001600160a01b0316815260208c810135908201526040808d0135908201526060808d0135908201526080808d01359082015260065462ffffff61010082041660a083015260ff1660c09091015261322a565b90506000611bee60208a018a614f77565b6001600160a01b0316639482de1a6040518163ffffffff1660e01b8152600401602060405180830381865afa158015611c2b573d6000803e3d6000fd5b505050506040513d601f19601f82011682018060405250810190611c4f9190615260565b90506000611c6060208b018b614f77565b6001600160a01b0316638ee8fe5d6040518163ffffffff1660e01b8152600401602060405180830381865afa158015611c9d573d6000803e3d6000fd5b505050506040513d601f19601f82011682018060405250810190611cc19190615260565b6001600160a01b038516600090815260026020908152604082209293509091600101908290611cf2908e018e614f77565b6001600160a01b031681526020808201929092526040016000209150611d1a908c018c614f77565b845160208087015160408089015160018701546002880154835196875294860193909352908401526060830152608082015260a0810185905260c081018490526001600160a01b03918216918716907f228674ca516ab8f32325e25d1e16656e747d977df7f664467fd5f7b4e64ba00f9060e00160405180910390a35050815160208301516040909301516001600055909a92995097509095505050505050565b600060026000541415611de05760405162461bcd60e51b8152600401610a23906151ac565b600260005560c082013542811015611e0a5760405162461bcd60e51b8152600401610a2390615200565b611e1a6040840160208501614f77565b6001600160a01b03811660009081526008602052604090205460ff16611e525760405162461bcd60e51b8152600401610a2390615229565b6000611e5d856134ca565b90506000611e716040870160208801614f77565b6001600160a01b0316639482de1a6040518163ffffffff1660e01b8152600401602060405180830381865afa158015611eae573d6000803e3d6000fd5b505050506040513d601f19601f82011682018060405250810190611ed29190615260565b90506000611ee66040880160208901614f77565b6001600160a01b0316638ee8fe5d6040518163ffffffff1660e01b8152600401602060405180830381865afa158015611f23573d6000803e3d6000fd5b505050506040513d601f19601f82011682018060405250810190611f479190615260565b90508260e00151156120255733611f646040890160208a01614f77565b6001600160a01b0316611f7a60208a018a614f77565b6001600160a01b03167f7c3978559b662b8adf839d43cce2ec6ab7db3fdc995575e4576acc9e0628985d866000015187602001518860400151896060015189898c608001518d60a001518e60c0015160405161201899989796959493929190988952602089019790975260408801959095526060870193909352608086019190915260a085015260c084015260e08301526101008201526101200190565b60405180910390a46120bb565b6120356040880160208901614f77565b6001600160a01b031661204b6020890189614f77565b84516020808701516040808901516060808b0151835196875294860193909352908401528201526080810185905260a081018490526001600160a01b0391909116907fe386a40c070a1424ae709b98c27e64993228f777c6294ef7149cf0ee42ef46e89060c00160405180910390a35b6120cb606088016040890161518f565b15156120dd6080890160608a0161518f565b1515146120f45782516120ef9061363f565b612101565b612101836020015161363f565b6001600055979650505050505050565b6001600160a01b03811660009081526002602052604081206006546109079190610100900462ffffff16613668565b6121486128b6565b6001600160a01b0381166121ad5760405162461bcd60e51b815260206004820152602660248201527f4f776e61626c653a206e6577206f776e657220697320746865207a65726f206160448201526564647265737360d01b6064820152608401610a23565b6121b6816129a7565b50565b6001600160a01b03163b151590565b600281015460038201805460009290835b8181101561241e5760008482815481106121f5576121f56152f4565b60009182526020808320909101546001600160a01b031680835260018a810183526040808520938c9052909320805493015482549194509192919015612372578254604051637640482f60e01b8152600481019190915260009081906001600160a01b03871690637640482f906024016040805180830381865afa158015612281573d6000803e3d6000fd5b505050506040513d601f19601f820116820180604052508101906122a5919061530a565b86546001880154600289015460405163933c797960e01b8152600481019390935260248301919091526044820152919350915060009081906001600160a01b0389169063933c7979906064016040805180830381865afa15801561230d573d6000803e3d6000fd5b505050506040513d601f19601f82011682018060405250810190612331919061530a565b915091506123528261234c612345876136b1565b899061371f565b9061371f565b955061236b8161234c612364866136b1565b889061371f565b9450505050505b81156123fd576000846001600160a01b0316638ee8fe5d6040518163ffffffff1660e01b8152600401602060405180830381865afa1580156123b8573d6000803e3d6000fd5b505050506040513d601f19601f820116820180604052508101906123dc9190615260565b90506123f96123456123ed836136b1565b8590600160601b61372b565b9750505b612407878261371f565b9650505050508061241790615344565b90506121d9565b5090949350505050565b6000806124358986612b28565b15905082158015612444575080155b15612453576000915050612525565b80801561247957506001600160a01b038816600090815260018a01602052604090205415155b15612488576000915050612525565b62ffffff84166125135760405163e8fa204f60e01b81528715156004820152861515602482015281151560448201526001600160a01b0389169063e8fa204f90606401602060405180830381865afa1580156124e8573d6000803e3d6000fd5b505050506040513d601f19601f8201168201806040525081019061250c9190615260565b9150612523565b61252088888887856137cf565b91505b505b979650505050505050565b60008160200151116125785760405162461bcd60e51b8152602060048201526011602482015270159317d5ce881e995c9bc8185b5bdd5b9d607a1b6044820152606401610a23565b80516000906001600160a01b031615612603576125fe826020015183600001516001600160a01b031663313ce5676040518163ffffffff1660e01b8152600401602060405180830381865afa1580156125d5573d6000803e3d6000fd5b505050506040513d601f19601f820116820180604052508101906125f9919061535f565b61389a565b612609565b81602001515b9050612622612617826136b1565b60028501549061394c565b60028401556060820151612637908490613668565b6126835760405162461bcd60e51b815260206004820152601f60248201527f564c5f573a206e6f7420656e6f75676820696e697469616c206d617267696e006044820152606401610a23565b81516001600160a01b03166126d95781604001516001600160a01b03166108fc83602001519081150290604051600060405180830381858888f193505050501580156126d3573d6000803e3d6000fd5b50505050565b6126f0826000015183604001518460200151613958565b505050565b6001600160a01b03811660009081526001830160209081526040808320918590529091205481549091901561283f578054604051637640482f60e01b81526000916001600160a01b03861691637640482f916127579160040190815260200190565b6040805180830381865afa158015612773573d6000803e3d6000fd5b505050506040513d601f19601f82011682018060405250810190612797919061530a565b5082546001840154600285015460405163933c797960e01b81526004810193909352602483019190915260448201529091506000906001600160a01b0386169063933c7979906064016040805180830381865afa1580156127fc573d6000803e3d6000fd5b505050506040513d601f19601f82011682018060405250810190612820919061530a565b50905061283a8161234c612833856136b1565b879061371f565b935050505b5092915050565b600381018054600091908290815b8181101561241e57600061289661289188878581548110612877576128776152f4565b6000918252602090912001546001600160a01b03166129f9565b61363f565b90506128a284826139bb565b935050806128af90615344565b9050612854565b6001546001600160a01b03163314610d265760405162461bcd60e51b815260206004820181905260248201527f4f776e61626c653a2063616c6c6572206973206e6f7420746865206f776e65726044820152606401610a23565b61292761291c826136b1565b60028501549061371f565b6002840155815461293890826139c7565b9091555050565b600381018054600091908290815b8181101561241e5760006129878786848154811061296d5761296d6152f4565b6000918252602090912001546001600160a01b0316612a95565b905061299384826139bb565b935050806129a090615344565b905061294d565b600180546001600160a01b038381166001600160a01b0319831681179093556040519116919082907f8be0079c531659141344cd1fd0a4f28419497f9722a3daafe3b4186f6b6457e090600090a35050565b600080612a0684846126f5565b905080612a17576000915050610907565b6000836001600160a01b0316638ee8fe5d6040518163ffffffff1660e01b8152600401602060405180830381865afa158015612a57573d6000803e3d6000fd5b505050506040513d601f19601f82011682018060405250810190612a7b9190615260565b9050611973612a89826136b1565b8390600160601b61372b565b600080612aa28484612fe1565b905080612ab3576000915050610907565b6000836001600160a01b0316638ee8fe5d6040518163ffffffff1660e01b8152600401602060405180830381865afa158015612af3573d6000803e3d6000fd5b505050506040513d601f19601f82011682018060405250810190612b179190615260565b90506119738282600160601b6139d3565b600080612b34846121c8565b90506000612b4185612846565b9050612b55612b508286613aa1565b6136b1565b90911215949350505050565b612b9c6040518060c0016040528060008152602001600081526020016000815260200160008152602001600081526020016000151581525090565b612baa838360800151612b28565b1560a082015260c0820151612bfd578060a00151612bfd5760405162461bcd60e51b815260206004820152601060248201526f4d4c5f524c3a20656e6f756768206d6d60801b6044820152606401610a23565b81516001600160a01b039081166000908152600185810160209081526040808420875192880151938101546002820154925163933c797960e01b81526004810195909552602485015260448401919091529293169063933c7979906064016040805180830381865afa158015612c77573d6000803e3d6000fd5b505050506040513d601f19601f82011682018060405250810190612c9b919061530a565b84604001856060018281525082815250505083600001516001600160a01b0316638ee8fe5d6040518163ffffffff1660e01b8152600401602060405180830381865afa158015612cef573d6000803e3d6000fd5b505050506040513d601f19601f82011682018060405250810190612d139190615260565b84516020860151604051639c8f9f2360e01b815260048101919091529193506001600160a01b03169150639c8f9f239060240160408051808303816000875af1158015612d64573d6000803e3d6000fd5b505050506040513d601f19601f82011682018060405250810190612d88919061530a565b602084015280835260408401511115612db35760405162461bcd60e51b8152600401610a239061537c565b826060015182602001511015612ddb5760405162461bcd60e51b8152600401610a239061537c565b612df6612deb83600001516136b1565b60408401519061371f565b60408301526020820151612e1890612e0d906136b1565b60608401519061371f565b606083015282516001600160a01b031660009081526001850160209081526040909120908401518154612e4a916139c7565b90556000612e6a612e5a836136b1565b604085015190600160601b61372b565b612e73906153b3565b9050612ea5858560000151856040015184612e9b86896060015161394c90919063ffffffff16565b8960a00151613ab6565b608084015250909392505050565b60008111612ef85760405162461bcd60e51b8152602060048201526012602482015271159317d1114e881e995c9bc8185b5bdd5b9d60721b6044820152606401610a23565b612f0f612f04826136b1565b60028401549061371f565b60029092019190915550565b6000816020015111612f635760405162461bcd60e51b8152602060048201526011602482015270159317d10e881e995c9bc8185b5bdd5b9d607a1b6044820152606401610a23565b612f7a816000015182604001518360200151613ce1565b6000612fc6826020015183600001516001600160a01b031663313ce5676040518163ffffffff1660e01b8152600401602060405180830381865afa1580156125d5573d6000803e3d6000fd5b9050612fd461291c826136b1565b6002909301929092555050565b6001600160a01b0381166000908152600183016020526040812061300861289185856126f5565b81549092501561283f578054604051637640482f60e01b81526000916001600160a01b03861691637640482f916130459160040190815260200190565b6040805180830381865afa158015613061573d6000803e3d6000fd5b505050506040513d601f19601f82011682018060405250810190613085919061530a565b50905061197383826139bb565b6000806130a3848460a00151612b28565b1590508260e001516130f057806130f05760405162461bcd60e51b8152602060048201526011602482015270544c5f4f50443a20656e6f756768206d6d60781b6044820152606401610a23565b801561315b5782516001600160a01b031660009081526001850160205260409020541561315b5760405162461bcd60e51b8152602060048201526019602482015278544c5f4f50443a206e6f206d616b6572207768656e206c697160381b6044820152606401610a23565b60c083015162ffffff166131f157825160208401516040808601516060870151915162de853760e31b81526001600160a01b03909416936306f429b8936131a99390929187906004016153d0565b602060405180830381865afa1580156131c6573d6000803e3d6000fd5b505050506040513d601f19601f820116820180604052508101906131ea9190615260565b9150613217565b61321383600001518460200151856040015186606001518760c0015186613e24565b5091505b61283f836040015183856080015161402c565b61324e60405180606001604052806000815260200160008152602001600081525090565b81516001600160a01b039081166000908152600185016020526040808220855182516379144ba960e11b815283519295859492169263f2289752926004808401939192918290030181865afa1580156132ab573d6000803e3d6000fd5b505050506040513d601f19601f820116820180604052508101906132cf919061530a565b865160208801516040808a01519051634e6a20ed60e11b8152600481019290925260248201529294509092506001600160a01b031690639cd441da906044016060604051808303816000875af115801561332d573d6000803e3d6000fd5b505050506040513d601f19601f8201168201806040525081019061335191906153ef565b60408701526020860152808552606086015111156133b15760405162461bcd60e51b815260206004820152601c60248201527f4d4c5f414c3a20746f6f20736d616c6c206f75747075742062617365000000006044820152606401610a23565b8460800151846020015110156134095760405162461bcd60e51b815260206004820152601d60248201527f4d4c5f414c3a20746f6f20736d616c6c206f75747075742071756f74650000006044820152606401610a23565b8254604085015161341b9082906139bb565b84556040850151855160018601546134379284929091876140d2565b846001018190555061345881866040015187602001518760020154866140d2565b6002850155855160c087015161346f91899161411b565b61347d878760a00151613668565b6134c05760405162461bcd60e51b81526020600482015260146024820152734d4c5f414c3a206e6f7420656e6f75676820696d60601b6044820152606401610a23565b5050505092915050565b6134d2614f1b565b610907600260006134e66020860186614f77565b6001600160a01b03166001600160a01b03168152602001908152602001600020600260006135113390565b6001600160a01b03166001600160a01b03168152602001908152602001600020600201600360056040518061016001604052808860200160208101906135579190614f77565b6001600160a01b0316815260200161357560608a0160408b0161518f565b1515815260200161358c60808a0160608b0161518f565b151581526080808a0135602083015260a0808b0135604084015260065462ffffff600160201b820481166060860152610100820481169385019390935260ff811691840191909152600160381b90041660c082015260e0016135eb3390565b6001600160a01b031661360160208b018b614f77565b6001600160a01b03161481526040805180820190915260075462ffffff811682526301000000900461ffff166020808301919091529091015261430e565b60008082121561365f5761365a61365583614584565b6145e2565b610907565b610907826145e2565b600080613674846121c8565b905060006136818561293f565b9050613690612b508286613aa1565b60028601546136a0908490614634565b12158061197357506119738561464a565b60006001600160ff1b0382111561371b5760405162461bcd60e51b815260206004820152602860248201527f53616665436173743a2076616c756520646f65736e27742066697420696e2061604482015267371034b73a191a9b60c11b6064820152608401610a23565b5090565b6000610b0d828461541d565b6000806000851261373c5784613745565b61374585614584565b90506000808512613756578461375f565b61375f85614584565b9050600080871280156137725750600086135b8061378857506000871380156137885750600086125b613793576000613796565b60015b905060006137a58484886139d3565b9050816137ba576137b5816136b1565b6137c3565b6137c3816147a4565b98975050505050505050565b60405163e8fa204f60e01b81528415156004820152831515602482015281151560448201526000906001600160a01b0387169063e8fa204f90606401602060405180830381865afa158015613828573d6000803e3d6000fd5b505050506040513d601f19601f8201168201806040525081019061384c9190615260565b9050831561387d57841561385f57611973565b61387661386f620f4240856147b8565b829061481e565b9050611973565b841561197357613876613893620f4240856147b8565b8290613aa1565b6000806138b46138ac8460ff166136b1565b60129061394c565b905060006138c18261363f565b9050604d8111156139145760405162461bcd60e51b815260206004820152601f60248201527f564c5f5443413a20746f6f206c6172676520646563696d616c732064696666006044820152606401610a23565b60008212156139375761393261392b82600a615542565b8690614833565b611973565b61197361394582600a615542565b869061483f565b6000610b0d828461554e565b6040516001600160a01b0383166024820152604481018290526126f090849063a9059cbb60e01b906064015b60408051601f198184030181529190526020810180516001600160e01b03166001600160e01b03199093169290921790915261484b565b6000610b0d828461558d565b6000610b0d82846155a5565b600080806000198587098587029250828110838203039150508060001415613a0e57838281613a0457613a046155bc565b0492505050610b0d565b838110613a3857604051631dcf306360e21b81526004810182905260248101859052604401610a23565b60008486880960026001871981018816978890046003810283188082028403028082028403028082028403028082028403028082028403029081029092039091026000889003889004909101858311909403939093029303949094049190911702949350505050565b6000610b0d838362ffffff16620f42406139d3565b6001600160a01b038516600090815260208790526040812085151580613adb57508415155b15613bee57613ae98561491d565b613af28761491d565b613afc91906155d2565b60001914613b455760405162461bcd60e51b8152602060048201526016602482015275151317d05515108e881a5b9d985b1a59081a5b9c1d5d60521b6044820152606401610a23565b613b4e8661491d565b8154613b599061491d565b613b6391906155d2565b6000191415613bee576000613b778761363f565b90506000613b88836000015461363f565b9050808211613bbf576000613bab613b9f846136b1565b6001860154908461372b565b9050613bb7888261371f565b945050613beb565b6000613bd5613bcd836136b1565b89908561372b565b6001850154909150613be7908261371f565b9450505b50505b613bf8828561371f565b8154909250600090613c0a908861371f565b90506000613c3384613c2d8861234c8b886001015461371f90919063ffffffff16565b9061394c565b905081158015613c41575080155b80613c685750613c508161491d565b613c598361491d565b613c6391906155d2565b600019145b613cab5760405162461bcd60e51b81526020600482015260146024820152732a262fa0aa2a211d103732bb32b91037b1b1bab960611b6044820152606401610a23565b8183556001830181905560028a0154613cc4908561371f565b60028b0155613cd48a8a8761411b565b5050509695505050505050565b6040516370a0823160e01b81526000906001600160a01b038516906370a0823190613d10903090600401615058565b602060405180830381865afa158015613d2d573d6000803e3d6000fd5b505050506040513d601f19601f82011682018060405250810190613d519190615260565b9050613d5f84843085614945565b81613dd782866001600160a01b03166370a08231306040518263ffffffff1660e01b8152600401613d909190615058565b602060405180830381865afa158015613dad573d6000803e3d6000fd5b505050506040513d601f19601f82011682018060405250810190613dd19190615260565b906139c7565b146126d35760405162461bcd60e51b815260206004820152601c60248201527f564c5f5454493a20696e636f6e73697374656e742062616c616e6365000000006044820152606401610a23565b6000808515613f4c578615613ec45760405162de853760e31b81526001600160a01b038916906306f429b890613e64908a908a908a9089906004016153d0565b602060405180830381865afa158015613e81573d6000803e3d6000fd5b505050506040513d601f19601f82011682018060405250810190613ea59190615260565b9150613eb18285613aa1565b9050613ebd82826139c7565b9150614021565b613ece8585613aa1565b90506001600160a01b0388166306f429b88888613eeb89866139c7565b876040518563ffffffff1660e01b8152600401613f0b94939291906153d0565b602060405180830381865afa158015613f28573d6000803e3d6000fd5b505050506040513d601f19601f82011682018060405250810190613ebd9190615260565b8615613f8a57613f6d85613dd1613f66620f4240886147b8565b889061481e565b90506001600160a01b0388166306f429b88888613eeb89866139bb565b60405162de853760e31b81526000906001600160a01b038a16906306f429b890613fbe908b908b908b908a906004016153d0565b602060405180830381865afa158015613fdb573d6000803e3d6000fd5b505050506040513d601f19601f82011682018060405250810190613fff9190615260565b905061401161386f620f4240876147b8565b925061401d83826139c7565b9150505b965096945050505050565b821561408257808210156126f05760405162461bcd60e51b815260206004820181905260248201527f544c5f56533a20746f6f20736d616c6c206f70706f7369746520616d6f756e746044820152606401610a23565b808211156126f05760405162461bcd60e51b815260206004820181905260248201527f544c5f56533a20746f6f206c61726765206f70706f7369746520616d6f756e746044820152606401610a23565b6000806140df87876139bb565b90506140fa6140f386600160601b896139d3565b84906139bb565b925061252561410a8488846139d3565b614115868a856139d3565b906139bb565b6001600160a01b03821660009081526020849052604081205415158061415a57506001600160a01b038316600090815260018501602052604090205415155b6003850180549192509060005b8181101561427157856001600160a01b031683828154811061418b5761418b6152f4565b6000918252602090912001546001600160a01b03161415614261578361425857826141b76001846155a5565b815481106141c7576141c76152f4565b9060005260206000200160009054906101000a90046001600160a01b03168382815481106141f7576141f76152f4565b9060005260206000200160006101000a8154816001600160a01b0302191690836001600160a01b031602179055508280548061423557614235615657565b600082815260209020810160001990810180546001600160a01b03191690550190555b50505050505050565b61426a81615344565b9050614167565b508261427f57505050505050565b60ff841661428e82600161558d565b11156142d65760405162461bcd60e51b8152602060048201526017602482015276414c5f55503a20746f6f206d616e79206d61726b65747360481b6044820152606401610a23565b508054600181018255600091825260209091200180546001600160a01b0319166001600160a01b039490941693909317909255505050565b614316614f1b565b614324868360a00151612b28565b1560e0820152610120820151614378578060e001516143785760405162461bcd60e51b815260206004820152601060248201526f544c5f4f503a20656e6f756768206d6d60801b6044820152606401610a23565b8060e00151156143eb5781516001600160a01b03166000908152600187016020526040902054156143eb5760405162461bcd60e51b815260206004820181905260248201527f544c5f4f503a206e6f206d616b6572207768656e206c69717569646174696f6e6044820152606401610a23565b600086600001600084600001516001600160a01b03166001600160a01b031681526020019081526020016000206000015490506144518785856000015186602001518760400151886060015189608001518a60e001518b61010001518b60e0015161497d565b60608601526040850152602084015280835260009081906144719061491d565b84516144879061448290869061371f565b61491d565b61449191906155d2565b1390508260e00151156145225780156144ec5760405162461bcd60e51b815260206004820152601f60248201527f544c5f4f503a206e6f206f70656e207768656e206c69717569646174696f6e006044820152606401610a23565b6145128860020188888760a0015188610140015161450d896020015161363f565b614a5d565b60c086015260a085015260808401525b801561457957614536888560c00151613668565b6145795760405162461bcd60e51b8152602060048201526014602482015273544c5f4f503a206e6f7420656e6f75676820696d60601b6044820152606401610a23565b505095945050505050565b6000600160ff1b82136145d95760405162461bcd60e51b815260206004820152601c60248201527f506572704d6174683a20696e76657273696f6e206f766572666c6f77000000006044820152606401610a23565b610907826153b3565b60008082121561371b5760405162461bcd60e51b815260206004820181905260248201527f53616665436173743a2076616c7565206d75737420626520706f7369746976656044820152606401610a23565b60008183126146435781610b0d565b5090919050565b600281015460038201805460009290835b81811015614797576000848281548110614677576146776152f4565b60009182526020808320909101546001600160a01b031680835260018a810183526040808520938c905290932080549301549093509091906146ba90879061371f565b82549096501561476b5781546001830154600284015460405163933c797960e01b815260048101939093526024830191909152604482015260009081906001600160a01b0386169063933c7979906064016040805180830381865afa158015614727573d6000803e3d6000fd5b505050506040513d601f19601f8201168201806040525081019061474b919061530a565b909250905061475a838361371f565b9250614766888261371f565b975050505b60008112156147835750600098975050505050505050565b5050508061479090615344565b905061465b565b5050600013159392505050565b60006147af826136b1565b610907906153b3565b60008262ffffff168262ffffff1611156148145760405162461bcd60e51b815260206004820152601e60248201527f506572704d6174683a207375627472616374696f6e206f766572666c6f7700006044820152606401610a23565b610b0d828461566d565b6000610b0d83620f42408462ffffff166139d3565b6000610b0d8284615691565b6000610b0d82846156b3565b60006148a0826040518060400160405280602081526020017f5361666545524332303a206c6f772d6c6576656c2063616c6c206661696c6564815250856001600160a01b0316614afa9092919063ffffffff16565b8051909150156126f057808060200190518101906148be91906156d2565b6126f05760405162461bcd60e51b815260206004820152602a60248201527f5361666545524332303a204552433230206f7065726174696f6e20646964206e6044820152691bdd081cdd58d8d9595960b21b6064820152608401610a23565b600080821361493d5760008212614935576000610907565b600019610907565b600192915050565b6040516001600160a01b03808516602483015283166044820152606481018290526126d39085906323b872dd60e01b90608401613984565b60008080808062ffffff8716156149a65761499d8e8e8e8e8e8c8c614b09565b92509050614a1e565b6040516380796d5560e01b81526001600160a01b038e16906380796d55906149d8908f908f908f908c906004016153d0565b6020604051808303816000875af11580156149f7573d6000803e3d6000fd5b505050506040513d601f19601f82011682018060405250810190614a1b9190615260565b90505b614a298b828b61402c565b614a358c8c8c84614d20565b9095509350614a498f8e878760008d613ab6565b9250509a509a509a509a9650505050505050565b60008080614a6b8487613aa1565b8551909350614a7b908490613aa1565b9150614a8783836139c7565b9050614aa0876001015483876020015161ffff16614d8f565b60018901919091559150614abe614ab6846136b1565b8a549061394c565b8955614ad4614acc836136b1565b89549061371f565b8855614aea614ae2826136b1565b88549061371f565b9096559097909650939450505050565b60606109f88484600085614dc3565b6000808515614c36578615614bac576040516380796d5560e01b81526001600160a01b038916906380796d5590614b4a908a908a908a9089906004016153d0565b6020604051808303816000875af1158015614b69573d6000803e3d6000fd5b505050506040513d601f19601f82011682018060405250810190614b8d9190615260565b9150614b998285613aa1565b9050614ba582826139c7565b9150614d07565b614bb68585613aa1565b90506001600160a01b0388166380796d558888614bd389866139c7565b876040518563ffffffff1660e01b8152600401614bf394939291906153d0565b6020604051808303816000875af1158015614c12573d6000803e3d6000fd5b505050506040513d601f19601f82011682018060405250810190614ba59190615260565b8615614c6d57614c5085613dd1613f66620f4240886147b8565b90506001600160a01b0388166380796d558888614bd389866139bb565b6040516380796d5560e01b81526000906001600160a01b038a16906380796d5590614ca2908b908b908b908a906004016153d0565b6020604051808303816000875af1158015614cc1573d6000803e3d6000fd5b505050506040513d601f19601f82011682018060405250810190614ce59190615260565b9050614cf761386f620f4240876147b8565b9250614d0383826139c7565b9150505b8854614d1390826139bb565b9098559795505050505050565b6000808415614d5c578515614d4a57614d38846147a4565b614d41846136b1565b91509150614d86565b614d53836136b1565b614d41856147a4565b8515614d7457614d6b836147a4565b614d41856136b1565b614d7d846136b1565b614d41846147a4565b94509492505050565b600080614d9c85856139bb565b9450614dad8562ffffff8516614833565b9050614db985826139c7565b9150935093915050565b606082471015614e245760405162461bcd60e51b815260206004820152602660248201527f416464726573733a20696e73756666696369656e742062616c616e636520666f6044820152651c8818d85b1b60d21b6064820152608401610a23565b614e2d856121b9565b614e795760405162461bcd60e51b815260206004820152601d60248201527f416464726573733a2063616c6c20746f206e6f6e2d636f6e74726163740000006044820152606401610a23565b600080866001600160a01b03168587604051614e95919061571b565b60006040518083038185875af1925050503d8060008114614ed2576040519150601f19603f3d011682016040523d82523d6000602084013e614ed7565b606091505b509150915061252582828660608315614ef1575081610b0d565b825115614f015782518084602001fd5b8160405162461bcd60e51b8152600401610a239190615737565b604051806101000160405280600081526020016000815260200160008152602001600081526020016000815260200160008152602001600081526020016000151581525090565b6001600160a01b03811681146121b657600080fd5b600060208284031215614f8957600080fd5b8135610b0d81614f62565b600060a08284031215614fa657600080fd5b50919050565b600060208284031215614fbe57600080fd5b5035919050565b60008060408385031215614fd857600080fd5b8235614fe381614f62565b91506020830135614ff381614f62565b809150509250929050565b62ffffff811681146121b657600080fd5b60006020828403121561502157600080fd5b8135610b0d81614ffe565b60ff811681146121b657600080fd5b60006020828403121561504d57600080fd5b8135610b0d8161502c565b6001600160a01b0391909116815260200190565b80151581146121b657600080fd5b6000806040838503121561508d57600080fd5b823561509881614f62565b91506020830135614ff38161506c565b600060c08284031215614fa657600080fd5b600060c082840312156150cc57600080fd5b610b0d83836150a8565b600060408284031215614fa657600080fd5b600060e08284031215614fa657600080fd5b600060e0828403121561510c57600080fd5b610b0d83836150e8565b6020808252825182820181905260009190848201906040850190845b818110156151575783516001600160a01b031683529284019291840191600101615132565b50909695505050505050565b6000806040838503121561517657600080fd5b823561518181614f62565b946020939093013593505050565b6000602082840312156151a157600080fd5b8135610b0d8161506c565b6020808252601f908201527f5265656e7472616e637947756172643a207265656e7472616e742063616c6c00604082015260600190565b6000602082840312156151f557600080fd5b8151610b0d81614f62565b6020808252600f908201526e50455f43443a20746f6f206c61746560881b604082015260600190565b6020808252601a908201527f50455f434d413a206d61726b6574206e6f7420616c6c6f776564000000000000604082015260600190565b60006020828403121561527257600080fd5b5051919050565b61ffff811681146121b657600080fd5b60006020828403121561529b57600080fd5b8135610b0d81615279565b81356152b181614ffe565b62ffffff8116905081548162ffffff19821617835560208401356152d481615279565b64ffff0000008160181b168364ffffffffff198416171784555050505050565b634e487b7160e01b600052603260045260246000fd5b6000806040838503121561531d57600080fd5b505080516020909101519092909150565b634e487b7160e01b600052601160045260246000fd5b60006000198214156153585761535861532e565b5060010190565b60006020828403121561537157600080fd5b8151610b0d8161502c565b6020808252601c908201527f4d4c5f524c3a20746f6f20736d616c6c206f7574707574206261736500000000604082015260600190565b6000600160ff1b8214156153c9576153c961532e565b5060000390565b9315158452911515602084015260408301521515606082015260800190565b60008060006060848603121561540457600080fd5b8351925060208401519150604084015190509250925092565b600080821280156001600160ff1b038490038513161561543f5761543f61532e565b600160ff1b83900384128116156154585761545861532e565b50500190565b600181815b8085111561549957816000190482111561547f5761547f61532e565b8085161561548c57918102915b93841c9390800290615463565b509250929050565b6000826154b057506001610907565b816154bd57506000610907565b81600181146154d357600281146154dd576154f9565b6001915050610907565b60ff8411156154ee576154ee61532e565b50506001821b610907565b5060208310610133831016604e8410600b841016171561551c575081810a610907565b615526838361545e565b806000190482111561553a5761553a61532e565b029392505050565b6000610b0d83836154a1565b60008083128015600160ff1b85018412161561556c5761556c61532e565b6001600160ff1b03840183138116156155875761558761532e565b50500390565b600082198211156155a0576155a061532e565b500190565b6000828210156155b7576155b761532e565b500390565b634e487b7160e01b600052601260045260246000fd5b60006001600160ff1b03818413828413808216868404861116156155f8576155f861532e565b600160ff1b60008712828116878305891216156156175761561761532e565b600087129250878205871284841616156156335761563361532e565b878505871281841616156156495761564961532e565b505050929093029392505050565b634e487b7160e01b600052603160045260246000fd5b600062ffffff838116908316818110156156895761568961532e565b039392505050565b6000826156ae57634e487b7160e01b600052601260045260246000fd5b500490565b60008160001904831182151516156156cd576156cd61532e565b500290565b6000602082840312156156e457600080fd5b8151610b0d8161506c565b60005b8381101561570a5781810151838201526020016156f2565b838111156126d35750506000910152565b6000825161572d8184602087016156ef565b9190910192915050565b60208152600082518060208401526157568160408501602087016156ef565b601f01601f1916919091016040019291505056fea26469706673582212201037857eb06592f586103f22398be58e02289c3f13bc408f90692839c026f64564736f6c634300080c0033",
  "devdoc": {
    "kind": "dev",
    "methods": {
      "owner()": {
        "details": "Returns the address of the current owner."
      },
      "renounceOwnership()": {
        "details": "Leaves the contract without owner. It will not be possible to call `onlyOwner` functions anymore. Can only be called by the current owner. NOTE: Renouncing ownership will leave the contract without an owner, thereby removing any functionality that is only available to the owner."
      },
      "transferOwnership(address)": {
        "details": "Transfers ownership of the contract to a new account (`newOwner`). Can only be called by the current owner."
      }
    },
    "version": 1
  },
  "userdoc": {
    "errors": {
      "PRBMath__MulDivOverflow(uint256,uint256)": [
        {
          "notice": "Emitted when the result overflows uint256."
        }
      ]
    },
    "kind": "user",
    "methods": {},
    "version": 1
  },
  "storageLayout": {
    "storage": [
      {
        "astId": 925,
        "contract": "contracts/test/DebugPerpdexExchange.sol:DebugPerpdexExchange",
        "label": "_status",
        "offset": 0,
        "slot": "0",
        "type": "t_uint256"
      },
      {
        "astId": 550,
        "contract": "contracts/test/DebugPerpdexExchange.sol:DebugPerpdexExchange",
        "label": "_owner",
        "offset": 0,
        "slot": "1",
        "type": "t_address"
      },
      {
        "astId": 6147,
        "contract": "contracts/test/DebugPerpdexExchange.sol:DebugPerpdexExchange",
        "label": "accountInfos",
        "offset": 0,
        "slot": "2",
        "type": "t_mapping(t_address,t_struct(AccountInfo)11158_storage)"
      },
      {
        "astId": 6151,
        "contract": "contracts/test/DebugPerpdexExchange.sol:DebugPerpdexExchange",
        "label": "insuranceFundInfo",
        "offset": 0,
        "slot": "3",
        "type": "t_struct(InsuranceFundInfo)11163_storage"
      },
      {
        "astId": 6155,
        "contract": "contracts/test/DebugPerpdexExchange.sol:DebugPerpdexExchange",
        "label": "protocolInfo",
        "offset": 0,
        "slot": "5",
        "type": "t_struct(ProtocolInfo)11166_storage"
      },
      {
        "astId": 6166,
        "contract": "contracts/test/DebugPerpdexExchange.sol:DebugPerpdexExchange",
        "label": "maxMarketsPerAccount",
        "offset": 0,
        "slot": "6",
        "type": "t_uint8"
      },
      {
        "astId": 6170,
        "contract": "contracts/test/DebugPerpdexExchange.sol:DebugPerpdexExchange",
        "label": "imRatio",
        "offset": 1,
        "slot": "6",
        "type": "t_uint24"
      },
      {
        "astId": 6174,
        "contract": "contracts/test/DebugPerpdexExchange.sol:DebugPerpdexExchange",
        "label": "mmRatio",
        "offset": 4,
        "slot": "6",
        "type": "t_uint24"
      },
      {
        "astId": 6178,
        "contract": "contracts/test/DebugPerpdexExchange.sol:DebugPerpdexExchange",
        "label": "protocolFeeRatio",
        "offset": 7,
        "slot": "6",
        "type": "t_uint24"
      },
      {
        "astId": 6187,
        "contract": "contracts/test/DebugPerpdexExchange.sol:DebugPerpdexExchange",
        "label": "liquidationRewardConfig",
        "offset": 0,
        "slot": "7",
        "type": "t_struct(LiquidationRewardConfig)11171_storage"
      },
      {
        "astId": 6192,
        "contract": "contracts/test/DebugPerpdexExchange.sol:DebugPerpdexExchange",
        "label": "isMarketAllowed",
        "offset": 0,
        "slot": "8",
        "type": "t_mapping(t_address,t_bool)"
      }
    ],
    "types": {
      "t_address": {
        "encoding": "inplace",
        "label": "address",
        "numberOfBytes": "20"
      },
      "t_array(t_address)dyn_storage": {
        "base": "t_address",
        "encoding": "dynamic_array",
        "label": "address[]",
        "numberOfBytes": "32"
      },
      "t_bool": {
        "encoding": "inplace",
        "label": "bool",
        "numberOfBytes": "1"
      },
      "t_int256": {
        "encoding": "inplace",
        "label": "int256",
        "numberOfBytes": "32"
      },
      "t_mapping(t_address,t_bool)": {
        "encoding": "mapping",
        "key": "t_address",
        "label": "mapping(address => bool)",
        "numberOfBytes": "32",
        "value": "t_bool"
      },
      "t_mapping(t_address,t_struct(AccountInfo)11158_storage)": {
        "encoding": "mapping",
        "key": "t_address",
        "label": "mapping(address => struct PerpdexStructs.AccountInfo)",
        "numberOfBytes": "32",
        "value": "t_struct(AccountInfo)11158_storage"
      },
      "t_mapping(t_address,t_struct(MakerInfo)11138_storage)": {
        "encoding": "mapping",
        "key": "t_address",
        "label": "mapping(address => struct PerpdexStructs.MakerInfo)",
        "numberOfBytes": "32",
        "value": "t_struct(MakerInfo)11138_storage"
      },
      "t_mapping(t_address,t_struct(TakerInfo)11131_storage)": {
        "encoding": "mapping",
        "key": "t_address",
        "label": "mapping(address => struct PerpdexStructs.TakerInfo)",
        "numberOfBytes": "32",
        "value": "t_struct(TakerInfo)11131_storage"
      },
      "t_struct(AccountInfo)11158_storage": {
        "encoding": "inplace",
        "label": "struct PerpdexStructs.AccountInfo",
        "members": [
          {
            "astId": 11146,
            "contract": "contracts/test/DebugPerpdexExchange.sol:DebugPerpdexExchange",
            "label": "takerInfos",
            "offset": 0,
            "slot": "0",
            "type": "t_mapping(t_address,t_struct(TakerInfo)11131_storage)"
          },
          {
            "astId": 11151,
            "contract": "contracts/test/DebugPerpdexExchange.sol:DebugPerpdexExchange",
            "label": "makerInfos",
            "offset": 0,
            "slot": "1",
            "type": "t_mapping(t_address,t_struct(MakerInfo)11138_storage)"
          },
          {
            "astId": 11154,
            "contract": "contracts/test/DebugPerpdexExchange.sol:DebugPerpdexExchange",
            "label": "vaultInfo",
            "offset": 0,
            "slot": "2",
            "type": "t_struct(VaultInfo)11141_storage"
          },
          {
            "astId": 11157,
            "contract": "contracts/test/DebugPerpdexExchange.sol:DebugPerpdexExchange",
            "label": "markets",
            "offset": 0,
            "slot": "3",
            "type": "t_array(t_address)dyn_storage"
          }
        ],
        "numberOfBytes": "128"
      },
      "t_struct(InsuranceFundInfo)11163_storage": {
        "encoding": "inplace",
        "label": "struct PerpdexStructs.InsuranceFundInfo",
        "members": [
          {
            "astId": 11160,
            "contract": "contracts/test/DebugPerpdexExchange.sol:DebugPerpdexExchange",
            "label": "balance",
            "offset": 0,
            "slot": "0",
            "type": "t_int256"
          },
          {
            "astId": 11162,
            "contract": "contracts/test/DebugPerpdexExchange.sol:DebugPerpdexExchange",
            "label": "liquidationRewardBalance",
            "offset": 0,
            "slot": "1",
            "type": "t_uint256"
          }
        ],
        "numberOfBytes": "64"
      },
      "t_struct(LiquidationRewardConfig)11171_storage": {
        "encoding": "inplace",
        "label": "struct PerpdexStructs.LiquidationRewardConfig",
        "members": [
          {
            "astId": 11168,
            "contract": "contracts/test/DebugPerpdexExchange.sol:DebugPerpdexExchange",
            "label": "rewardRatio",
            "offset": 0,
            "slot": "0",
            "type": "t_uint24"
          },
          {
            "astId": 11170,
            "contract": "contracts/test/DebugPerpdexExchange.sol:DebugPerpdexExchange",
            "label": "smoothEmaTime",
            "offset": 3,
            "slot": "0",
            "type": "t_uint16"
          }
        ],
        "numberOfBytes": "32"
      },
      "t_struct(MakerInfo)11138_storage": {
        "encoding": "inplace",
        "label": "struct PerpdexStructs.MakerInfo",
        "members": [
          {
            "astId": 11133,
            "contract": "contracts/test/DebugPerpdexExchange.sol:DebugPerpdexExchange",
            "label": "liquidity",
            "offset": 0,
            "slot": "0",
            "type": "t_uint256"
          },
          {
            "astId": 11135,
            "contract": "contracts/test/DebugPerpdexExchange.sol:DebugPerpdexExchange",
            "label": "cumBaseSharePerLiquidityX96",
            "offset": 0,
            "slot": "1",
            "type": "t_uint256"
          },
          {
            "astId": 11137,
            "contract": "contracts/test/DebugPerpdexExchange.sol:DebugPerpdexExchange",
            "label": "cumQuotePerLiquidityX96",
            "offset": 0,
            "slot": "2",
            "type": "t_uint256"
          }
        ],
        "numberOfBytes": "96"
      },
      "t_struct(ProtocolInfo)11166_storage": {
        "encoding": "inplace",
        "label": "struct PerpdexStructs.ProtocolInfo",
        "members": [
          {
            "astId": 11165,
            "contract": "contracts/test/DebugPerpdexExchange.sol:DebugPerpdexExchange",
            "label": "protocolFee",
            "offset": 0,
            "slot": "0",
            "type": "t_uint256"
          }
        ],
        "numberOfBytes": "32"
      },
      "t_struct(TakerInfo)11131_storage": {
        "encoding": "inplace",
        "label": "struct PerpdexStructs.TakerInfo",
        "members": [
          {
            "astId": 11128,
            "contract": "contracts/test/DebugPerpdexExchange.sol:DebugPerpdexExchange",
            "label": "baseBalanceShare",
            "offset": 0,
            "slot": "0",
            "type": "t_int256"
          },
          {
            "astId": 11130,
            "contract": "contracts/test/DebugPerpdexExchange.sol:DebugPerpdexExchange",
            "label": "quoteBalance",
            "offset": 0,
            "slot": "1",
            "type": "t_int256"
          }
        ],
        "numberOfBytes": "64"
      },
      "t_struct(VaultInfo)11141_storage": {
        "encoding": "inplace",
        "label": "struct PerpdexStructs.VaultInfo",
        "members": [
          {
            "astId": 11140,
            "contract": "contracts/test/DebugPerpdexExchange.sol:DebugPerpdexExchange",
            "label": "collateralBalance",
            "offset": 0,
            "slot": "0",
            "type": "t_int256"
          }
        ],
        "numberOfBytes": "32"
      },
      "t_uint16": {
        "encoding": "inplace",
        "label": "uint16",
        "numberOfBytes": "2"
      },
      "t_uint24": {
        "encoding": "inplace",
        "label": "uint24",
        "numberOfBytes": "3"
      },
      "t_uint256": {
        "encoding": "inplace",
        "label": "uint256",
        "numberOfBytes": "32"
      },
      "t_uint8": {
        "encoding": "inplace",
        "label": "uint8",
        "numberOfBytes": "1"
      }
    }
  }
}